{
  "address": "0xdd76D7b1720b8Ee74218a28Eb6D54A52502d637b",
  "abi": [
    {
      "inputs": [],
      "name": "CallerIsNotAdmin",
      "type": "error"
    },
    {
      "inputs": [],
      "name": "CannotSetZeroValue",
      "type": "error"
    },
    {
      "inputs": [],
      "name": "ZeroAddress",
      "type": "error"
    },
    {
      "anonymous": false,
      "inputs": [
        {
          "indexed": true,
          "internalType": "address",
          "name": "previousAdmin",
          "type": "address"
        },
        {
          "indexed": true,
          "internalType": "address",
          "name": "newAdmin",
          "type": "address"
        }
      ],
      "name": "AdminTransferred",
      "type": "event"
    },
    {
      "anonymous": false,
      "inputs": [
        {
          "indexed": false,
          "internalType": "uint256",
          "name": "cursedBondPercentage",
          "type": "uint256"
        }
      ],
      "name": "SetCursedBondPercentage",
      "type": "event"
    },
    {
      "anonymous": false,
      "inputs": [
        {
          "indexed": false,
          "internalType": "uint256",
          "name": "embalmerClaimWindow",
          "type": "uint256"
        }
      ],
      "name": "SetEmbalmerClaimWindow",
      "type": "event"
    },
    {
      "anonymous": false,
      "inputs": [
        {
          "indexed": false,
          "internalType": "uint256",
          "name": "expirationThreshold",
          "type": "uint256"
        }
      ],
      "name": "SetExpirationThreshold",
      "type": "event"
    },
    {
      "anonymous": false,
      "inputs": [
        {
          "indexed": false,
          "internalType": "uint256",
          "name": "gracePeriod",
          "type": "uint256"
        }
      ],
      "name": "SetGracePeriod",
      "type": "event"
    },
    {
      "anonymous": false,
      "inputs": [
        {
          "indexed": false,
          "internalType": "uint256",
          "name": "protocolFeeBasePercentage",
          "type": "uint256"
        }
      ],
      "name": "SetProtocolFeeBasePercentage",
      "type": "event"
    },
    {
      "anonymous": false,
      "inputs": [
        {
          "indexed": false,
          "internalType": "uint256",
          "name": "totalProtocolFees",
          "type": "uint256"
        },
        {
          "indexed": false,
          "internalType": "address",
          "name": "withdrawalAddress",
          "type": "address"
        }
      ],
      "name": "WithdrawProtocolFees",
      "type": "event"
    },
    {
      "inputs": [
        {
          "internalType": "uint256",
          "name": "cursedBondPercentage",
          "type": "uint256"
        }
      ],
      "name": "setCursedBondPercentage",
      "outputs": [],
      "stateMutability": "nonpayable",
      "type": "function"
    },
    {
      "inputs": [
        {
          "internalType": "uint256",
          "name": "embalmerClaimWindow",
          "type": "uint256"
        }
      ],
      "name": "setEmbalmerClaimWindow",
      "outputs": [],
      "stateMutability": "nonpayable",
      "type": "function"
    },
    {
      "inputs": [
        {
          "internalType": "uint256",
          "name": "expirationThreshold",
          "type": "uint256"
        }
      ],
      "name": "setExpirationThreshold",
      "outputs": [],
      "stateMutability": "nonpayable",
      "type": "function"
    },
    {
      "inputs": [
        {
          "internalType": "uint256",
          "name": "gracePeriod",
          "type": "uint256"
        }
      ],
      "name": "setGracePeriod",
      "outputs": [],
      "stateMutability": "nonpayable",
      "type": "function"
    },
    {
      "inputs": [
        {
          "internalType": "uint256",
          "name": "protocolFeeBasePercentage",
          "type": "uint256"
        }
      ],
      "name": "setProtocolFeeBasePercentage",
      "outputs": [],
      "stateMutability": "nonpayable",
      "type": "function"
    },
    {
      "inputs": [
        {
          "internalType": "address",
          "name": "newAdmin",
          "type": "address"
        }
      ],
      "name": "transferAdmin",
      "outputs": [],
      "stateMutability": "nonpayable",
      "type": "function"
    },
    {
      "inputs": [
        {
          "internalType": "address",
          "name": "withdrawalAddress",
          "type": "address"
        }
      ],
      "name": "withdrawProtocolFees",
      "outputs": [],
      "stateMutability": "nonpayable",
      "type": "function"
    }
  ],
  "args": [],
  "numDeployments": 1,
  "solcInputHash": "b7fcd450a9977c08df561a1e7df764e7",
  "bytecode": "0x608060405234801561001057600080fd5b50610b83806100206000396000f3fe608060405234801561001057600080fd5b506004361061007d5760003560e01c806375829def1161005b57806375829def146100d65780638a5b5690146100f2578063a828c4791461010e578063f2f659601461012a5761007d565b8063274f255e146100825780632d80caa51461009e5780636430ae6a146100ba575b600080fd5b61009c600480360381019061009791906109a5565b610146565b005b6100b860048036038101906100b39190610a30565b61022c565b005b6100d460048036038101906100cf91906109a5565b6103c2565b005b6100f060048036038101906100eb9190610a30565b6104e2565b005b61010c600480360381019061010791906109a5565b61068b565b005b610128600480360381019061012391906109a5565b610771565b005b610144600480360381019061013f91906109a5565b610857565b005b600061015061093d565b90508060010160009054906101000a900473ffffffffffffffffffffffffffffffffffffffff1673ffffffffffffffffffffffffffffffffffffffff163373ffffffffffffffffffffffffffffffffffffffff16146101db576040517f8dfa73db00000000000000000000000000000000000000000000000000000000815260040160405180910390fd5b60006101e561093d565b90508281600701819055507f3d58bff47ca074037a5dcd57740255670d45843115cca9c9bc442eb6d3f0ad788360405161021f9190610a6c565b60405180910390a1505050565b600061023661093d565b90508060010160009054906101000a900473ffffffffffffffffffffffffffffffffffffffff1673ffffffffffffffffffffffffffffffffffffffff163373ffffffffffffffffffffffffffffffffffffffff16146102c1576040517f8dfa73db00000000000000000000000000000000000000000000000000000000815260040160405180910390fd5b60006102cb61093d565b9050600081600201549050600082600201819055508160000160009054906101000a900473ffffffffffffffffffffffffffffffffffffffff1673ffffffffffffffffffffffffffffffffffffffff1663a9059cbb85836040518363ffffffff1660e01b815260040161033f929190610a96565b6020604051808303816000875af115801561035e573d6000803e3d6000fd5b505050506040513d601f19601f820116820180604052508101906103829190610af7565b507f7baf2b6a1777e2a34a2dcddad43c098eb5ab5b5c7a1f3c8ec4872863265244f481856040516103b4929190610b24565b60405180910390a150505050565b60006103cc61093d565b90508060010160009054906101000a900473ffffffffffffffffffffffffffffffffffffffff1673ffffffffffffffffffffffffffffffffffffffff163373ffffffffffffffffffffffffffffffffffffffff1614610457576040517f8dfa73db00000000000000000000000000000000000000000000000000000000815260040160405180910390fd5b600061046161093d565b90506000830361049d576040517f4a8fadb900000000000000000000000000000000000000000000000000000000815260040160405180910390fd5b8281600401819055507f4aeca9f26d25b33ee1b2c061ab4a849de97bfb592e7dfb276c9ded12d0ad56a2836040516104d59190610a6c565b60405180910390a1505050565b60006104ec61093d565b90508060010160009054906101000a900473ffffffffffffffffffffffffffffffffffffffff1673ffffffffffffffffffffffffffffffffffffffff163373ffffffffffffffffffffffffffffffffffffffff1614610577576040517f8dfa73db00000000000000000000000000000000000000000000000000000000815260040160405180910390fd5b600061058161093d565b9050600073ffffffffffffffffffffffffffffffffffffffff168373ffffffffffffffffffffffffffffffffffffffff16036105e9576040517fd92e233d00000000000000000000000000000000000000000000000000000000815260040160405180910390fd5b828160010160006101000a81548173ffffffffffffffffffffffffffffffffffffffff021916908373ffffffffffffffffffffffffffffffffffffffff1602179055508273ffffffffffffffffffffffffffffffffffffffff163373ffffffffffffffffffffffffffffffffffffffff167ff8ccb027dfcd135e000e9d45e6cc2d662578a8825d4c45b5e32e0adf67e79ec660405160405180910390a3505050565b600061069561093d565b90508060010160009054906101000a900473ffffffffffffffffffffffffffffffffffffffff1673ffffffffffffffffffffffffffffffffffffffff163373ffffffffffffffffffffffffffffffffffffffff1614610720576040517f8dfa73db00000000000000000000000000000000000000000000000000000000815260040160405180910390fd5b600061072a61093d565b90508281600301819055507f4768bb3a79cb8de7ec3c4c950f9f76fbe4588407c214998efbf648001c858e9b836040516107649190610a6c565b60405180910390a1505050565b600061077b61093d565b90508060010160009054906101000a900473ffffffffffffffffffffffffffffffffffffffff1673ffffffffffffffffffffffffffffffffffffffff163373ffffffffffffffffffffffffffffffffffffffff1614610806576040517f8dfa73db00000000000000000000000000000000000000000000000000000000815260040160405180910390fd5b600061081061093d565b90508281600601819055507f047ca17cdae34ccbd8db62138d05e11962458ffd86009620909ba6ad606282ad8360405161084a9190610a6c565b60405180910390a1505050565b600061086161093d565b90508060010160009054906101000a900473ffffffffffffffffffffffffffffffffffffffff1673ffffffffffffffffffffffffffffffffffffffff163373ffffffffffffffffffffffffffffffffffffffff16146108ec576040517f8dfa73db00000000000000000000000000000000000000000000000000000000815260040160405180910390fd5b60006108f661093d565b90508281600501819055507f848ba7852320e491d84ddc22f1f12fe48672aa22757fc4452703c9046d9982d7836040516109309190610a6c565b60405180910390a1505050565b6000807ff20877bf9d9fb9260326061ac66e420582d0e2a7736ab6a6c3afd0604e1902dd90508091505090565b600080fd5b6000819050919050565b6109828161096f565b811461098d57600080fd5b50565b60008135905061099f81610979565b92915050565b6000602082840312156109bb576109ba61096a565b5b60006109c984828501610990565b91505092915050565b600073ffffffffffffffffffffffffffffffffffffffff82169050919050565b60006109fd826109d2565b9050919050565b610a0d816109f2565b8114610a1857600080fd5b50565b600081359050610a2a81610a04565b92915050565b600060208284031215610a4657610a4561096a565b5b6000610a5484828501610a1b565b91505092915050565b610a668161096f565b82525050565b6000602082019050610a816000830184610a5d565b92915050565b610a90816109f2565b82525050565b6000604082019050610aab6000830185610a87565b610ab86020830184610a5d565b9392505050565b60008115159050919050565b610ad481610abf565b8114610adf57600080fd5b50565b600081519050610af181610acb565b92915050565b600060208284031215610b0d57610b0c61096a565b5b6000610b1b84828501610ae2565b91505092915050565b6000604082019050610b396000830185610a5d565b610b466020830184610a87565b939250505056fea26469706673582212202b99df4126e7262fe4189b447cf266da561a651ce3160af63019994b2c9565ac64736f6c63430008120033",
  "devdoc": {
    "kind": "dev",
    "methods": {
      "setCursedBondPercentage(uint256)": {
        "params": {
          "cursedBondPercentage": "ratio to set."
        }
      },
      "setEmbalmerClaimWindow(uint256)": {
        "params": {
          "embalmerClaimWindow": "to set"
        }
      },
      "setExpirationThreshold(uint256)": {
        "params": {
          "expirationThreshold": "to set"
        }
      },
      "setGracePeriod(uint256)": {
        "params": {
          "gracePeriod": "to set"
        }
      },
      "setProtocolFeeBasePercentage(uint256)": {
        "params": {
          "protocolFeeBasePercentage": "percentage to set"
        }
      },
      "transferAdmin(address)": {
        "params": {
          "newAdmin": "to set"
        }
      },
      "withdrawProtocolFees(address)": {
        "params": {
          "withdrawalAddress": "- the address to withdraw funds to"
        }
      }
    },
    "version": 1
  },
  "userdoc": {
    "errors": {
      "CallerIsNotAdmin()": [
        {
          "notice": "Caller must be the admin address"
        }
      ],
      "CannotSetZeroValue()": [
        {
          "notice": "Admin has attempted to set a zero value"
        }
      ],
      "ZeroAddress()": [
        {
          "notice": "Provided address cannot be zero address"
        }
      ]
    },
    "kind": "user",
    "methods": {
      "setCursedBondPercentage(uint256)": {
        "notice": "Sets the digging fee / cursed bond ratioThe denominator is 10000 used to calculate how much bond archaeologists must lock per curse."
      },
      "setEmbalmerClaimWindow(uint256)": {
        "notice": "Updates the embalmerClaimWindowDenominated in seconds"
      },
      "setExpirationThreshold(uint256)": {
        "notice": "Updates the expirationThreshold used during sarcophagus creationDenominated in seconds"
      },
      "setGracePeriod(uint256)": {
        "notice": "Updates the resurrection grace periodDenominated in seconds"
      },
      "setProtocolFeeBasePercentage(uint256)": {
        "notice": "Sets the protocol fee base percentage, used to calculate protocol feesThe denominator is 10000"
      },
      "transferAdmin(address)": {
        "notice": "Transfers admin address to newAdmin."
      },
      "withdrawProtocolFees(address)": {
        "notice": "Withdraws the total protocol fee amount from the contract to the specified address"
      }
    },
    "notice": "Caller of any function in this facet must be the admin address",
    "version": 1
  },
  "storageLayout": {
    "storage": [],
    "types": null
  }
}