{
  "address": "0x0Bbd247cfd96379295d612932284E29f9e85ae6B",
  "abi": [
    {
      "inputs": [
        {
          "internalType": "address",
          "name": "archaeologist",
          "type": "address"
        }
      ],
      "name": "ArchaeologistNotOnSarcophagus",
      "type": "error"
    },
    {
      "inputs": [
        {
          "internalType": "uint256",
          "name": "signatures",
          "type": "uint256"
        },
        {
          "internalType": "uint256",
          "name": "publicKeys",
          "type": "uint256"
        }
      ],
      "name": "DifferentNumberOfSignaturesAndPublicKeys",
      "type": "error"
    },
    {
      "inputs": [
        {
          "internalType": "uint256",
          "name": "currentTime",
          "type": "uint256"
        },
        {
          "internalType": "uint256",
          "name": "embalmerClaimWindowEnd",
          "type": "uint256"
        }
      ],
      "name": "EmbalmerClaimWindowPassed",
      "type": "error"
    },
    {
      "inputs": [
        {
          "internalType": "bytes32",
          "name": "sarcoId",
          "type": "bytes32"
        },
        {
          "internalType": "address",
          "name": "paymentAddress",
          "type": "address"
        },
        {
          "internalType": "bytes",
          "name": "publicKey",
          "type": "bytes"
        },
        {
          "components": [
            {
              "internalType": "uint8",
              "name": "v",
              "type": "uint8"
            },
            {
              "internalType": "bytes32",
              "name": "r",
              "type": "bytes32"
            },
            {
              "internalType": "bytes32",
              "name": "s",
              "type": "bytes32"
            }
          ],
          "internalType": "struct LibTypes.Signature",
          "name": "signature",
          "type": "tuple"
        }
      ],
      "name": "InvalidAccusalSignature",
      "type": "error"
    },
    {
      "inputs": [
        {
          "internalType": "uint256",
          "name": "currentTime",
          "type": "uint256"
        },
        {
          "internalType": "uint256",
          "name": "resurrectionTime",
          "type": "uint256"
        }
      ],
      "name": "ResurrectionTimeInPast",
      "type": "error"
    },
    {
      "inputs": [
        {
          "internalType": "bytes32",
          "name": "sarcoId",
          "type": "bytes32"
        }
      ],
      "name": "SarcophagusAlreadyCleaned",
      "type": "error"
    },
    {
      "inputs": [
        {
          "internalType": "bytes32",
          "name": "sarcoId",
          "type": "bytes32"
        }
      ],
      "name": "SarcophagusCompromised",
      "type": "error"
    },
    {
      "inputs": [
        {
          "internalType": "bytes32",
          "name": "sarcoId",
          "type": "bytes32"
        }
      ],
      "name": "SarcophagusDoesNotExist",
      "type": "error"
    },
    {
      "inputs": [
        {
          "internalType": "bytes32",
          "name": "sarcoId",
          "type": "bytes32"
        }
      ],
      "name": "SarcophagusInactive",
      "type": "error"
    },
    {
      "inputs": [
        {
          "internalType": "address",
          "name": "senderAddress",
          "type": "address"
        }
      ],
      "name": "SenderNotEmbalmerOrAdmin",
      "type": "error"
    },
    {
      "inputs": [
        {
          "internalType": "uint256",
          "name": "currentTime",
          "type": "uint256"
        },
        {
          "internalType": "uint256",
          "name": "embalmerClaimWindowEnd",
          "type": "uint256"
        }
      ],
      "name": "TooEarlyForAdminClean",
      "type": "error"
    },
    {
      "inputs": [
        {
          "internalType": "uint256",
          "name": "currentTime",
          "type": "uint256"
        },
        {
          "internalType": "uint256",
          "name": "publishDeadline",
          "type": "uint256"
        }
      ],
      "name": "TooEarlyForClean",
      "type": "error"
    },
    {
      "anonymous": false,
      "inputs": [
        {
          "indexed": true,
          "internalType": "bytes32",
          "name": "sarcoId",
          "type": "bytes32"
        },
        {
          "indexed": true,
          "internalType": "address",
          "name": "accuser",
          "type": "address"
        },
        {
          "indexed": false,
          "internalType": "uint256",
          "name": "totalSlashedBondDistributed",
          "type": "uint256"
        },
        {
          "indexed": false,
          "internalType": "uint256",
          "name": "totalDiggingFeesDistributed",
          "type": "uint256"
        },
        {
          "indexed": false,
          "internalType": "address[]",
          "name": "accusedArchAddresses",
          "type": "address[]"
        }
      ],
      "name": "AccuseArchaeologist",
      "type": "event"
    },
    {
      "anonymous": false,
      "inputs": [
        {
          "indexed": true,
          "internalType": "bytes32",
          "name": "sarcoId",
          "type": "bytes32"
        },
        {
          "indexed": true,
          "internalType": "address",
          "name": "cleaner",
          "type": "address"
        }
      ],
      "name": "Clean",
      "type": "event"
    },
    {
      "inputs": [
        {
          "internalType": "bytes32",
          "name": "sarcoId",
          "type": "bytes32"
        },
        {
          "internalType": "bytes[]",
          "name": "publicKeys",
          "type": "bytes[]"
        },
        {
          "components": [
            {
              "internalType": "uint8",
              "name": "v",
              "type": "uint8"
            },
            {
              "internalType": "bytes32",
              "name": "r",
              "type": "bytes32"
            },
            {
              "internalType": "bytes32",
              "name": "s",
              "type": "bytes32"
            }
          ],
          "internalType": "struct LibTypes.Signature[]",
          "name": "signatures",
          "type": "tuple[]"
        },
        {
          "internalType": "address",
          "name": "paymentAddress",
          "type": "address"
        }
      ],
      "name": "accuse",
      "outputs": [],
      "stateMutability": "nonpayable",
      "type": "function"
    },
    {
      "inputs": [
        {
          "internalType": "bytes32",
          "name": "sarcoId",
          "type": "bytes32"
        }
      ],
      "name": "clean",
      "outputs": [],
      "stateMutability": "nonpayable",
      "type": "function"
    }
  ],
  "transactionHash": "0xc642fbc958354e533071374a21ad539ae584ba3555e302c293e024ba6661bf3c",
  "args": [],
  "numDeployments": 1,
  "solcInputHash": "d9f1b52a3dd08d38bdc5f8fbabd1bcf7",
  "bytecode": "0x608060405234801561001057600080fd5b50612173806100206000396000f3fe608060405234801561001057600080fd5b50600436106100365760003560e01c806397b03b531461003b578063ebad22f814610057575b600080fd5b61005560048036038101906100509190611763565b610073565b005b610071600480360381019061006c91906118a9565b610885565b005b600061007d611280565b9050600081600a016000848152602001908152602001600020905060008160000154036100e157826040517f018da6880000000000000000000000000000000000000000000000000000000081526004016100d8919061195f565b60405180910390fd5b8060070160009054906101000a900473ffffffffffffffffffffffffffffffffffffffff1673ffffffffffffffffffffffffffffffffffffffff163373ffffffffffffffffffffffffffffffffffffffff161415801561017457506101446112ad565b73ffffffffffffffffffffffffffffffffffffffff163373ffffffffffffffffffffffffffffffffffffffff1614155b156101b657336040517fd5fa066e0000000000000000000000000000000000000000000000000000000081526004016101ad9190611989565b60405180910390fd5b8060020160009054906101000a900460ff161561020a57826040517f9af72b86000000000000000000000000000000000000000000000000000000008152600401610201919061195f565b60405180910390fd5b7fffffffffffffffffffffffffffffffffffffffffffffffffffffffffffffffff81600001540361027257826040517f7c6a6d70000000000000000000000000000000000000000000000000000000008152600401610269919061195f565b60405180910390fd5b8060020160019054906101000a900460ff16156102c657826040517fc921f1850000000000000000000000000000000000000000000000000000000081526004016102bd919061195f565b60405180910390fd5b816005015481600001546102da91906119dd565b42116103325742826005015482600001546102f591906119dd565b6040517f808b7d7c000000000000000000000000000000000000000000000000000000008152600401610329929190611a20565b60405180910390fd5b8060070160009054906101000a900473ffffffffffffffffffffffffffffffffffffffff1673ffffffffffffffffffffffffffffffffffffffff163373ffffffffffffffffffffffffffffffffffffffff161480156103b257508160070154826005015482600001546103a591906119dd565b6103af91906119dd565b42115b1561041857428260070154836005015483600001546103d191906119dd565b6103db91906119dd565b6040517f569861b100000000000000000000000000000000000000000000000000000000815260040161040f929190611a20565b60405180910390fd5b6104206112ad565b73ffffffffffffffffffffffffffffffffffffffff163373ffffffffffffffffffffffffffffffffffffffff1614801561047c575081600701548260050154826000015461046e91906119dd565b61047891906119dd565b4211155b156104e2574282600701548360050154836000015461049b91906119dd565b6104a591906119dd565b6040517ff88af35b0000000000000000000000000000000000000000000000000000000081526004016104d9929190611a20565b60405180910390fd5b6000808260090180549050905060005b818110156106dd57600084600a01600086600901848154811061051857610517611a49565b5b9060005260206000200160009054906101000a900473ffffffffffffffffffffffffffffffffffffffff1673ffffffffffffffffffffffffffffffffffffffff1673ffffffffffffffffffffffffffffffffffffffff16815260200190815260200160002090508060030160009054906101000a900460ff161580156105a457506000801b8160010154145b156106d1576000856001015486600001546105bf9190611a78565b82600001546105ce9190611aac565b90508560020160029054906101000a900460ff166105f9578160040154816105f691906119dd565b90505b600061271087600b01548361060e9190611aac565b6106189190611b1d565b9050808261062691906119dd565b8661063191906119dd565b95508088600b0160008960090187815481106106505761064f611a49565b5b9060005260206000200160009054906101000a900473ffffffffffffffffffffffffffffffffffffffff1673ffffffffffffffffffffffffffffffffffffffff1673ffffffffffffffffffffffffffffffffffffffff16815260200190815260200160002060050160008282546106c79190611a78565b9250508190555050505b816001019150506104f2565b508260070160009054906101000a900473ffffffffffffffffffffffffffffffffffffffff1673ffffffffffffffffffffffffffffffffffffffff163373ffffffffffffffffffffffffffffffffffffffff1603610801578360000160009054906101000a900473ffffffffffffffffffffffffffffffffffffffff1673ffffffffffffffffffffffffffffffffffffffff1663a9059cbb8460070160009054906101000a900473ffffffffffffffffffffffffffffffffffffffff16846040518363ffffffff1660e01b81526004016107b8929190611b4e565b6020604051808303816000875af11580156107d7573d6000803e3d6000fd5b505050506040513d601f19601f820116820180604052508101906107fb9190611baf565b5061081d565b8184600201600082825461081591906119dd565b925050819055505b60018360020160016101000a81548160ff0219169083151502179055503373ffffffffffffffffffffffffffffffffffffffff16857ffa165ffb1378fffa7397821a24fb52e993eab195619a2573789fca8a9e12b26660405160405180910390a35050505050565b600061088f611280565b9050600081600a016000898152602001908152602001600020905060008160000154036108f357876040517f018da6880000000000000000000000000000000000000000000000000000000081526004016108ea919061195f565b60405180910390fd5b8060000154421115610942574281600001546040517f2458293a000000000000000000000000000000000000000000000000000000008152600401610939929190611a20565b60405180910390fd5b8060020160009054906101000a900460ff161561099657876040517f9af72b8600000000000000000000000000000000000000000000000000000000815260040161098d919061195f565b60405180910390fd5b7fffffffffffffffffffffffffffffffffffffffffffffffffffffffffffffffff8160000154036109fe57876040517f7c6a6d700000000000000000000000000000000000000000000000000000000081526004016109f5919061195f565b60405180910390fd5b6000858590509050878790508114610a525780888890506040517fcc1d5b80000000000000000000000000000000000000000000000000000000008152600401610a49929190611a20565b60405180910390fd5b60008167ffffffffffffffff811115610a6e57610a6d611bdc565b5b604051908082528060200260200182016040528015610a9c5781602001602082028036833780820191505090505b50905060008060005b84811015610e1857610af58d898e8e85818110610ac557610ac4611a49565b5b9050602002810190610ad79190611c1a565b8e8e87818110610aea57610ae9611a49565b5b9050606002016112e0565b610b79578c888d8d84818110610b0e57610b0d611a49565b5b9050602002810190610b209190611c1a565b8d8d86818110610b3357610b32611a49565b5b9050606002016040517f272bd265000000000000000000000000000000000000000000000000000000008152600401610b70959493929190611dba565b60405180910390fd5b6000876009018d8d84818110610b9257610b91611a49565b5b9050602002810190610ba49190611c1a565b604051610bb2929190611e38565b908152602001604051809103902060009054906101000a900473ffffffffffffffffffffffffffffffffffffffff169050600087600a0160008373ffffffffffffffffffffffffffffffffffffffff1673ffffffffffffffffffffffffffffffffffffffff16815260200190815260200160002090506000816002018054610c3990611e80565b905003610c7d57336040517f82881f03000000000000000000000000000000000000000000000000000000008152600401610c749190611989565b60405180910390fd5b8060030160009054906101000a900460ff1615610ca1578260010192505050610e13565b60018160030160006101000a81548160ff02191690831515021790555081868580610ccb90611eb1565b965081518110610cde57610cdd611a49565b5b602002602001019073ffffffffffffffffffffffffffffffffffffffff16908173ffffffffffffffffffffffffffffffffffffffff1681525050600061271089600b01548a600101548b60000154610d369190611a78565b8460000154610d459190611aac565b610d4f9190611aac565b610d599190611b1d565b90508860020160029054906101000a900460ff16610da05761271089600b01548360040154610d889190611aac565b610d929190611b1d565b81610d9d91906119dd565b90505b8086610dac91906119dd565b9550808a600b0160008573ffffffffffffffffffffffffffffffffffffffff1673ffffffffffffffffffffffffffffffffffffffff1681526020019081526020016000206005016000828254610e029190611a78565b925050819055508360010193505050505b610aa5565b5060008103610e2c57505050505050611278565b6000856009018054905090508560020160039054906101000a900460ff1660ff168210610e755760018660020160006101000a81548160ff021916908315150217905550610f6c565b6000805b82811015610f305787600a016000896009018381548110610e9d57610e9c611a49565b5b9060005260206000200160009054906101000a900473ffffffffffffffffffffffffffffffffffffffff1673ffffffffffffffffffffffffffffffffffffffff1673ffffffffffffffffffffffffffffffffffffffff16815260200190815260200160002060030160009054906101000a900460ff1615610f255781610f2290611eb1565b91505b806001019050610e79565b508660020160039054906101000a900460ff1660ff168110610f6a5760018760020160006101000a81548160ff0219169083151502179055505b505b8560020160009054906101000a900460ff161561107c5760005b8181101561107a5786600a016000886009018381548110610faa57610fa9611a49565b5b9060005260206000200160009054906101000a900473ffffffffffffffffffffffffffffffffffffffff1673ffffffffffffffffffffffffffffffffffffffff1673ffffffffffffffffffffffffffffffffffffffff16815260200190815260200160002060030160009054906101000a900460ff1661106f5761106e8e88600901838154811061103e5761103d611a49565b5b9060005260206000200160009054906101000a900473ffffffffffffffffffffffffffffffffffffffff166114f0565b5b806001019050610f86565b505b506000600183901c9050600061271087600b015461109a9190611b1d565b846110a59190611b1d565b90508760000160009054906101000a900473ffffffffffffffffffffffffffffffffffffffff1673ffffffffffffffffffffffffffffffffffffffff1663a9059cbb8860070160009054906101000a900473ffffffffffffffffffffffffffffffffffffffff16848461111891906119dd565b6040518363ffffffff1660e01b8152600401611135929190611b4e565b6020604051808303816000875af1158015611154573d6000803e3d6000fd5b505050506040513d601f19601f820116820180604052508101906111789190611baf565b508760000160009054906101000a900473ffffffffffffffffffffffffffffffffffffffff1673ffffffffffffffffffffffffffffffffffffffff1663a9059cbb8a846040518363ffffffff1660e01b81526004016111d8929190611b4e565b6020604051808303816000875af11580156111f7573d6000803e3d6000fd5b505050506040513d601f19601f8201168201806040525081019061121b9190611baf565b503373ffffffffffffffffffffffffffffffffffffffff168e7fe9dec50cc13b92f93757042597e26d7b2af2ac85e441e773d4701a50093ec8d886848960405161126793929190611fb7565b60405180910390a350505050505050505b505050505050565b6000807ff20877bf9d9fb9260326061ac66e420582d0e2a7736ab6a6c3afd0604e1902dd90508091505090565b60006112b76116f6565b60040160009054906101000a900473ffffffffffffffffffffffffffffffffffffffff16905090565b60008084849050905060006001826112f89190611a78565b67ffffffffffffffff81111561131157611310611bdc565b5b6040519080825280601f01601f1916602001820160405280156113435781602001600182028036833780820191505090505b5090506000600190505b828110156113cb5786868281811061136857611367611a49565b5b9050013560f81c60f81b826001836113809190611a78565b8151811061139157611390611a49565b5b60200101907effffffffffffffffffffffffffffffffffffffffffffffffffffffffffffff1916908160001a90535080600101905061134d565b50600088886040516020016113e1929190611ff5565b604051602081830303815290604052805190602001206040516020016114079190612096565b604051602081830303815290604052805190602001209050600060018287600001602081019061143791906120bc565b886020013589604001356040516000815260200160405260405161145e94939291906120f8565b6020604051602081039080840390855afa158015611480573d6000803e3d6000fd5b505050602060405103519050600073ffffffffffffffffffffffffffffffffffffffff848051906020012060001c1690508073ffffffffffffffffffffffffffffffffffffffff168273ffffffffffffffffffffffffffffffffffffffff16149550505050505095945050505050565b60006114fa611280565b9050600081600a0160008581526020019081526020016000209050600082600a016000868152602001908152602001600020600a0160008573ffffffffffffffffffffffffffffffffffffffff1673ffffffffffffffffffffffffffffffffffffffff16815260200190815260200160002090506000826001015483600001546115849190611a78565b82600001546115939190611aac565b90508260020160029054906101000a900460ff166115be578160040154816115bb91906119dd565b90505b600061271084600b0154836115d39190611aac565b6115dd9190611b1d565b90508085600b0160008873ffffffffffffffffffffffffffffffffffffffff1673ffffffffffffffffffffffffffffffffffffffff16815260200190815260200160002060050160008282546116339190611a78565b925050819055508085600b0160008873ffffffffffffffffffffffffffffffffffffffff1673ffffffffffffffffffffffffffffffffffffffff168152602001908152602001600020600401600082825461168e91906119dd565b925050819055508185600c0160008873ffffffffffffffffffffffffffffffffffffffff1673ffffffffffffffffffffffffffffffffffffffff16815260200190815260200160002060008282546116e691906119dd565b9250508190555050505050505050565b6000807fc8fcad8db84d3cc18b4c41d551ea0ee66dd599cde068d998e57d5e09332c131c90508091505090565b600080fd5b600080fd5b6000819050919050565b6117408161172d565b811461174b57600080fd5b50565b60008135905061175d81611737565b92915050565b60006020828403121561177957611778611723565b5b60006117878482850161174e565b91505092915050565b600080fd5b600080fd5b600080fd5b60008083601f8401126117b5576117b4611790565b5b8235905067ffffffffffffffff8111156117d2576117d1611795565b5b6020830191508360208202830111156117ee576117ed61179a565b5b9250929050565b60008083601f84011261180b5761180a611790565b5b8235905067ffffffffffffffff81111561182857611827611795565b5b6020830191508360608202830111156118445761184361179a565b5b9250929050565b600073ffffffffffffffffffffffffffffffffffffffff82169050919050565b60006118768261184b565b9050919050565b6118868161186b565b811461189157600080fd5b50565b6000813590506118a38161187d565b92915050565b600080600080600080608087890312156118c6576118c5611723565b5b60006118d489828a0161174e565b965050602087013567ffffffffffffffff8111156118f5576118f4611728565b5b61190189828a0161179f565b9550955050604087013567ffffffffffffffff81111561192457611923611728565b5b61193089828a016117f5565b9350935050606061194389828a01611894565b9150509295509295509295565b6119598161172d565b82525050565b60006020820190506119746000830184611950565b92915050565b6119838161186b565b82525050565b600060208201905061199e600083018461197a565b92915050565b6000819050919050565b7f4e487b7100000000000000000000000000000000000000000000000000000000600052601160045260246000fd5b60006119e8826119a4565b91506119f3836119a4565b9250828201905080821115611a0b57611a0a6119ae565b5b92915050565b611a1a816119a4565b82525050565b6000604082019050611a356000830185611a11565b611a426020830184611a11565b9392505050565b7f4e487b7100000000000000000000000000000000000000000000000000000000600052603260045260246000fd5b6000611a83826119a4565b9150611a8e836119a4565b9250828203905081811115611aa657611aa56119ae565b5b92915050565b6000611ab7826119a4565b9150611ac2836119a4565b9250828202611ad0816119a4565b91508282048414831517611ae757611ae66119ae565b5b5092915050565b7f4e487b7100000000000000000000000000000000000000000000000000000000600052601260045260246000fd5b6000611b28826119a4565b9150611b33836119a4565b925082611b4357611b42611aee565b5b828204905092915050565b6000604082019050611b63600083018561197a565b611b706020830184611a11565b9392505050565b60008115159050919050565b611b8c81611b77565b8114611b9757600080fd5b50565b600081519050611ba981611b83565b92915050565b600060208284031215611bc557611bc4611723565b5b6000611bd384828501611b9a565b91505092915050565b7f4e487b7100000000000000000000000000000000000000000000000000000000600052604160045260246000fd5b600080fd5b600080fd5b600080fd5b60008083356001602003843603038112611c3757611c36611c0b565b5b80840192508235915067ffffffffffffffff821115611c5957611c58611c10565b5b602083019250600182023603831315611c7557611c74611c15565b5b509250929050565b600082825260208201905092915050565b82818337600083830152505050565b6000601f19601f8301169050919050565b6000611cba8385611c7d565b9350611cc7838584611c8e565b611cd083611c9d565b840190509392505050565b600060ff82169050919050565b611cf181611cdb565b8114611cfc57600080fd5b50565b600081359050611d0e81611ce8565b92915050565b6000611d236020840184611cff565b905092915050565b611d3481611cdb565b82525050565b6000611d49602084018461174e565b905092915050565b611d5a8161172d565b82525050565b60608201611d716000830183611d14565b611d7e6000850182611d2b565b50611d8c6020830183611d3a565b611d996020850182611d51565b50611da76040830183611d3a565b611db46040850182611d51565b50505050565b600060c082019050611dcf6000830188611950565b611ddc602083018761197a565b8181036040830152611def818587611cae565b9050611dfe6060830184611d60565b9695505050505050565b600081905092915050565b6000611e1f8385611e08565b9350611e2c838584611c8e565b82840190509392505050565b6000611e45828486611e13565b91508190509392505050565b7f4e487b7100000000000000000000000000000000000000000000000000000000600052602260045260246000fd5b60006002820490506001821680611e9857607f821691505b602082108103611eab57611eaa611e51565b5b50919050565b6000611ebc826119a4565b91507fffffffffffffffffffffffffffffffffffffffffffffffffffffffffffffffff8203611eee57611eed6119ae565b5b600182019050919050565b600081519050919050565b600082825260208201905092915050565b6000819050602082019050919050565b611f2e8161186b565b82525050565b6000611f408383611f25565b60208301905092915050565b6000602082019050919050565b6000611f6482611ef9565b611f6e8185611f04565b9350611f7983611f15565b8060005b83811015611faa578151611f918882611f34565b9750611f9c83611f4c565b925050600181019050611f7d565b5085935050505092915050565b6000606082019050611fcc6000830186611a11565b611fd96020830185611a11565b8181036040830152611feb8184611f59565b9050949350505050565b600060408201905061200a6000830185611950565b612017602083018461197a565b9392505050565b600081905092915050565b7f19457468657265756d205369676e6564204d6573736167653a0a333200000000600082015250565b600061205f601c8361201e565b915061206a82612029565b601c82019050919050565b6000819050919050565b61209061208b8261172d565b612075565b82525050565b60006120a182612052565b91506120ad828461207f565b60208201915081905092915050565b6000602082840312156120d2576120d1611723565b5b60006120e084828501611cff565b91505092915050565b6120f281611cdb565b82525050565b600060808201905061210d6000830187611950565b61211a60208301866120e9565b6121276040830185611950565b6121346060830184611950565b9594505050505056fea2646970667358221220c9ea0f89ab2b2358b5f1a215e27eaadb14487e23c50836c14a3bee09c9d11e2464736f6c63430008120033",
  "devdoc": {
    "errors": {
      "DifferentNumberOfSignaturesAndPublicKeys(uint256,uint256)": [
        {
          "params": {
            "publicKeys": "the number of public keys passed into the accuse call",
            "signatures": "the number of signatures passed into the accuse call"
          }
        }
      ],
      "EmbalmerClaimWindowPassed(uint256,uint256)": [
        {
          "params": {
            "currentTime": "Timestamp of the failed clean attempt",
            "embalmerClaimWindowEnd": "Latest time an embalmer may claim residual locked bonds the sarcophagus: resurrectionTime + gracePeriod + embalmerClaimWindow"
          }
        }
      ],
      "InvalidAccusalSignature(bytes32,address,bytes,(uint8,bytes32,bytes32))": [
        {
          "params": {
            "paymentAddress": "payment address that should have been signed",
            "publicKey": "publicKey that should be derived from signing key",
            "sarcoId": "that should have been signed",
            "signature": "invalid signature"
          }
        }
      ],
      "ResurrectionTimeInPast(uint256,uint256)": [
        {
          "params": {
            "currentTime": "Timestamp of the failed accuse attempt",
            "resurrectionTime": "Resurrection timestamp which has already passed"
          }
        }
      ],
      "SarcophagusAlreadyCleaned(bytes32)": [
        {
          "params": {
            "sarcoId": "ID of sarcophagus archaeologist has attempted to publish a private key on"
          }
        }
      ],
      "SenderNotEmbalmerOrAdmin(address)": [
        {
          "params": {
            "senderAddress": "Address of sender"
          }
        }
      ],
      "TooEarlyForAdminClean(uint256,uint256)": [
        {
          "params": {
            "currentTime": "Timestamp of the failed clean attempt",
            "embalmerClaimWindowEnd": "Latest time an embalmer may claim residual locked bonds the sarcophagus: resurrectionTime + gracePeriod + embalmerClaimWindow"
          }
        }
      ],
      "TooEarlyForClean(uint256,uint256)": [
        {
          "params": {
            "currentTime": "Timestamp of the failed clean attempt",
            "publishDeadline": "Latest time an archaeologist may publish a private key on a sarcophagus: resurrectionTime + gracePeriod"
          }
        }
      ]
    },
    "kind": "dev",
    "methods": {
      "accuse(bytes32,bytes[],(uint8,bytes32,bytes32)[],address)": {
        "params": {
          "paymentAddress": "the address to which rewards should be sent if successful",
          "publicKeys": "an array of public keys corresponding to leaked private keys - order must match order of signatures",
          "sarcoId": "The identifier of the sarcophagus having leaked private keys",
          "signatures": "an array of signatures of the sarcoId and payment address signed by the leaked private keys - order must match order of publicKeys"
        }
      },
      "clean(bytes32)": {
        "params": {
          "sarcoId": "The identifier of the sarcophagus to clean"
        }
      }
    },
    "version": 1
  },
  "userdoc": {
    "errors": {
      "DifferentNumberOfSignaturesAndPublicKeys(uint256,uint256)": [
        {
          "notice": "Emitted when accuse is called with an unequal numbers of public keys and signatures"
        }
      ],
      "EmbalmerClaimWindowPassed(uint256,uint256)": [
        {
          "notice": "Embalmer has attempted to clean a sarcophagus after the embalmerClaimWindow has passed"
        }
      ],
      "InvalidAccusalSignature(bytes32,address,bytes,(uint8,bytes32,bytes32))": [
        {
          "notice": "Emitted when accuse is called with an invalid signature for the supplied sarcoId, paymentAddress, and publicKey"
        }
      ],
      "ResurrectionTimeInPast(uint256,uint256)": [
        {
          "notice": "Emitted when a third party attempts to accuse an archaeologist on a sarcophagus where the resurrection time has already passed"
        }
      ],
      "SarcophagusAlreadyCleaned(bytes32)": [
        {
          "notice": "Clean has been called on a sarcophagus that has already been cleaned"
        }
      ],
      "SenderNotEmbalmerOrAdmin(address)": [
        {
          "notice": "Clean has been called by someone other than the admin or embalmer of the sarcophagus"
        }
      ],
      "TooEarlyForAdminClean(uint256,uint256)": [
        {
          "notice": "Admin has attempted to clean a sarcophagus before the embalmerClaimWindow has passed"
        }
      ],
      "TooEarlyForClean(uint256,uint256)": [
        {
          "notice": "Clean has been called before the deadline for archaeologists to publish private keys has passed"
        }
      ]
    },
    "kind": "user",
    "methods": {
      "accuse(bytes32,bytes[],(uint8,bytes32,bytes32)[],address)": {
        "notice": "Accuse one or more archaeologists of leaking private keys by submitting signatures on the sarco id and payment address generated with the leaked private keys If the archaeologists responsible for those private keys haven't already been accused, their locked bond will be split between the embalmer and the supplied payment address and digging fees allocated for those archaeologists will be refunded to the embalmer If k or more archaeologists are accused over the lifetime of a sarcophagus, the sarcophagus state will be updated to Accused and bonds for all remaining unaccused archaeologists will be returned"
      },
      "clean(bytes32)": {
        "notice": "If archaeologists fail to publish their private keys on a sarcophagus before the end of the gracePeriod, their locked bonds and diggingFees may be claimed by either the embalmer or the admin embalmers may claim during a limited embalmerClaimWindow after the end of the gracePeriod, after that only the admin will be able to claim remaining locked bond and diggingFees"
      }
    },
    "version": 1
  },
  "storageLayout": {
    "storage": [],
    "types": null
  }
}