{
  "address": "0xe14E811e93B36a5Cb0D74102919D19748cfB14CA",
  "abi": [
    {
      "inputs": [
        {
          "internalType": "contract IERC20",
          "name": "sarcoToken",
          "type": "address"
        },
        {
          "internalType": "address",
          "name": "admin",
          "type": "address"
        },
        {
          "internalType": "uint256",
          "name": "protocolFeeBasePercentage",
          "type": "uint256"
        },
        {
          "internalType": "uint256",
          "name": "cursedBondPercentage",
          "type": "uint256"
        },
        {
          "internalType": "uint256",
          "name": "gracePeriod",
          "type": "uint256"
        },
        {
          "internalType": "uint256",
          "name": "embalmerClaimWindow",
          "type": "uint256"
        },
        {
          "internalType": "uint256",
          "name": "expirationThreshold",
          "type": "uint256"
        }
      ],
      "name": "init",
      "outputs": [],
      "stateMutability": "nonpayable",
      "type": "function"
    }
  ],
  "transactionHash": "0x20500ec8555c675881a84e8f3765b8688b90726c53e5de8a723d55d6852a2a07",
  "args": [],
  "numDeployments": 1,
  "solcInputHash": "b7fcd450a9977c08df561a1e7df764e7",
  "bytecode": "0x608060405234801561001057600080fd5b506102f1806100206000396000f3fe608060405234801561001057600080fd5b506004361061002b5760003560e01c8063b36a27e714610030575b600080fd5b61004a60048036038101906100459190610219565b61004c565b005b6000610056610115565b9050878160000160006101000a81548173ffffffffffffffffffffffffffffffffffffffff021916908373ffffffffffffffffffffffffffffffffffffffff160217905550868160010160006101000a81548173ffffffffffffffffffffffffffffffffffffffff021916908373ffffffffffffffffffffffffffffffffffffffff1602179055508581600301819055508481600401819055508381600501819055508281600701819055508181600601819055505050505050505050565b6000807ff20877bf9d9fb9260326061ac66e420582d0e2a7736ab6a6c3afd0604e1902dd90508091505090565b600080fd5b600073ffffffffffffffffffffffffffffffffffffffff82169050919050565b600061017282610147565b9050919050565b600061018482610167565b9050919050565b61019481610179565b811461019f57600080fd5b50565b6000813590506101b18161018b565b92915050565b6101c081610167565b81146101cb57600080fd5b50565b6000813590506101dd816101b7565b92915050565b6000819050919050565b6101f6816101e3565b811461020157600080fd5b50565b600081359050610213816101ed565b92915050565b600080600080600080600060e0888a03121561023857610237610142565b5b60006102468a828b016101a2565b97505060206102578a828b016101ce565b96505060406102688a828b01610204565b95505060606102798a828b01610204565b945050608061028a8a828b01610204565b93505060a061029b8a828b01610204565b92505060c06102ac8a828b01610204565b9150509295989194975092955056fea2646970667358221220201abb50b120112566583840382d91f6bb36e24502ac1283ac499271b1da590a64736f6c63430008120033",
  "devdoc": {
    "kind": "dev",
    "methods": {
      "init(address,address,uint256,uint256,uint256,uint256,uint256)": {
        "details": "Add any AppStorage struct properties here to initialize values"
      }
    },
    "version": 1
  },
  "userdoc": {
    "kind": "user",
    "methods": {
      "init(address,address,uint256,uint256,uint256,uint256,uint256)": {
        "notice": "Initializes the app with default state values"
      }
    },
    "version": 1
  },
  "storageLayout": {
    "storage": [],
    "types": null
  }
}