{
  "address": "0x49dd97B4e7397318D4bCa938085ACC5C1d5941b7",
  "abi": [
    {
      "inputs": [],
      "name": "withdrawProtocolFees",
      "outputs": [],
      "stateMutability": "nonpayable",
      "type": "function"
    }
  ],
  "args": [],
  "numDeployments": 1,
  "solcInputHash": "793ef83fc5e518f201a0300ed474fb2d",
  "bytecode": "0x608060405234801561001057600080fd5b50610216806100206000396000f3fe608060405234801561001057600080fd5b506004361061002b5760003560e01c80638795cccb14610030575b600080fd5b61003861003a565b005b600080600201549050600080600201819055506000800160009054906101000a900473ffffffffffffffffffffffffffffffffffffffff1673ffffffffffffffffffffffffffffffffffffffff1663a9059cbb33836040518363ffffffff1660e01b81526004016100ac92919061014d565b6020604051808303816000875af11580156100cb573d6000803e3d6000fd5b505050506040513d601f19601f820116820180604052508101906100ef91906101b3565b5050565b600073ffffffffffffffffffffffffffffffffffffffff82169050919050565b600061011e826100f3565b9050919050565b61012e81610113565b82525050565b6000819050919050565b61014781610134565b82525050565b60006040820190506101626000830185610125565b61016f602083018461013e565b9392505050565b600080fd5b60008115159050919050565b6101908161017b565b811461019b57600080fd5b50565b6000815190506101ad81610187565b92915050565b6000602082840312156101c9576101c8610176565b5b60006101d78482850161019e565b9150509291505056fea2646970667358221220d07fcb08e4eb8a4a7d30c218da35b08ca08d72420f339b6111a57a1d0867e34764736f6c634300080d0033",
  "devdoc": {
    "kind": "dev",
    "methods": {
      "withdrawProtocolFees()": {
        "details": "Can only be called by the owner."
      }
    },
    "version": 1
  },
  "userdoc": {
    "kind": "user",
    "methods": {
      "withdrawProtocolFees()": {
        "notice": "Withdraws the total protocol fee amount from the contract."
      }
    },
    "version": 1
  },
  "storageLayout": {
    "storage": [
      {
        "astId": 84,
        "contract": "contracts/facets/AdminFacet.sol:AdminFacet",
        "label": "s",
        "offset": 0,
        "slot": "0",
        "type": "t_struct(AppStorage)3729_storage"
      }
    ],
    "types": {
      "t_address": {
        "encoding": "inplace",
        "label": "address",
        "numberOfBytes": "20"
      },
      "t_array(t_address)dyn_storage": {
        "base": "t_address",
        "encoding": "dynamic_array",
        "label": "address[]",
        "numberOfBytes": "32"
      },
      "t_array(t_bytes32)dyn_storage": {
        "base": "t_bytes32",
        "encoding": "dynamic_array",
        "label": "bytes32[]",
        "numberOfBytes": "32"
      },
      "t_array(t_string_storage)dyn_storage": {
        "base": "t_string_storage",
        "encoding": "dynamic_array",
        "label": "string[]",
        "numberOfBytes": "32"
      },
      "t_bool": {
        "encoding": "inplace",
        "label": "bool",
        "numberOfBytes": "1"
      },
      "t_bytes32": {
        "encoding": "inplace",
        "label": "bytes32",
        "numberOfBytes": "32"
      },
      "t_bytes_storage": {
        "encoding": "bytes",
        "label": "bytes",
        "numberOfBytes": "32"
      },
      "t_contract(IERC20)77": {
        "encoding": "inplace",
        "label": "contract IERC20",
        "numberOfBytes": "20"
      },
      "t_enum(SarcophagusState)3099": {
        "encoding": "inplace",
        "label": "enum LibTypes.SarcophagusState",
        "numberOfBytes": "1"
      },
      "t_mapping(t_address,t_array(t_bytes32)dyn_storage)": {
        "encoding": "mapping",
        "key": "t_address",
        "label": "mapping(address => bytes32[])",
        "numberOfBytes": "32",
        "value": "t_array(t_bytes32)dyn_storage"
      },
      "t_mapping(t_address,t_mapping(t_bytes32,t_bool))": {
        "encoding": "mapping",
        "key": "t_address",
        "label": "mapping(address => mapping(bytes32 => bool))",
        "numberOfBytes": "32",
        "value": "t_mapping(t_bytes32,t_bool)"
      },
      "t_mapping(t_address,t_struct(ArchaeologistStorage)3135_storage)": {
        "encoding": "mapping",
        "key": "t_address",
        "label": "mapping(address => struct LibTypes.ArchaeologistStorage)",
        "numberOfBytes": "32",
        "value": "t_struct(ArchaeologistStorage)3135_storage"
      },
      "t_mapping(t_address,t_uint256)": {
        "encoding": "mapping",
        "key": "t_address",
        "label": "mapping(address => uint256)",
        "numberOfBytes": "32",
        "value": "t_uint256"
      },
      "t_mapping(t_bytes32,t_address)": {
        "encoding": "mapping",
        "key": "t_bytes32",
        "label": "mapping(bytes32 => address)",
        "numberOfBytes": "32",
        "value": "t_address"
      },
      "t_mapping(t_bytes32,t_bool)": {
        "encoding": "mapping",
        "key": "t_bytes32",
        "label": "mapping(bytes32 => bool)",
        "numberOfBytes": "32",
        "value": "t_bool"
      },
      "t_mapping(t_bytes32,t_mapping(t_address,t_struct(ArchaeologistStorage)3135_storage))": {
        "encoding": "mapping",
        "key": "t_bytes32",
        "label": "mapping(bytes32 => mapping(address => struct LibTypes.ArchaeologistStorage))",
        "numberOfBytes": "32",
        "value": "t_mapping(t_address,t_struct(ArchaeologistStorage)3135_storage)"
      },
      "t_mapping(t_bytes32,t_struct(Sarcophagus)3163_storage)": {
        "encoding": "mapping",
        "key": "t_bytes32",
        "label": "mapping(bytes32 => struct LibTypes.Sarcophagus)",
        "numberOfBytes": "32",
        "value": "t_struct(Sarcophagus)3163_storage"
      },
      "t_string_storage": {
        "encoding": "bytes",
        "label": "string",
        "numberOfBytes": "32"
      },
      "t_struct(AppStorage)3729_storage": {
        "encoding": "inplace",
        "label": "struct AppStorage",
        "members": [
          {
            "astId": 3657,
            "contract": "contracts/facets/AdminFacet.sol:AdminFacet",
            "label": "sarcoToken",
            "offset": 0,
            "slot": "0",
            "type": "t_contract(IERC20)77"
          },
          {
            "astId": 3659,
            "contract": "contracts/facets/AdminFacet.sol:AdminFacet",
            "label": "protocolFee",
            "offset": 0,
            "slot": "1",
            "type": "t_uint256"
          },
          {
            "astId": 3661,
            "contract": "contracts/facets/AdminFacet.sol:AdminFacet",
            "label": "totalProtocolFees",
            "offset": 0,
            "slot": "2",
            "type": "t_uint256"
          },
          {
            "astId": 3664,
            "contract": "contracts/facets/AdminFacet.sol:AdminFacet",
            "label": "sarcophagusIdentifiers",
            "offset": 0,
            "slot": "3",
            "type": "t_array(t_bytes32)dyn_storage"
          },
          {
            "astId": 3668,
            "contract": "contracts/facets/AdminFacet.sol:AdminFacet",
            "label": "freeBonds",
            "offset": 0,
            "slot": "4",
            "type": "t_mapping(t_address,t_uint256)"
          },
          {
            "astId": 3672,
            "contract": "contracts/facets/AdminFacet.sol:AdminFacet",
            "label": "cursedBonds",
            "offset": 0,
            "slot": "5",
            "type": "t_mapping(t_address,t_uint256)"
          },
          {
            "astId": 3678,
            "contract": "contracts/facets/AdminFacet.sol:AdminFacet",
            "label": "archaeologistSuccesses",
            "offset": 0,
            "slot": "6",
            "type": "t_mapping(t_address,t_mapping(t_bytes32,t_bool))"
          },
          {
            "astId": 3683,
            "contract": "contracts/facets/AdminFacet.sol:AdminFacet",
            "label": "archaeologistCancels",
            "offset": 0,
            "slot": "7",
            "type": "t_mapping(t_address,t_array(t_bytes32)dyn_storage)"
          },
          {
            "astId": 3688,
            "contract": "contracts/facets/AdminFacet.sol:AdminFacet",
            "label": "archaeologistAccusals",
            "offset": 0,
            "slot": "8",
            "type": "t_mapping(t_address,t_array(t_bytes32)dyn_storage)"
          },
          {
            "astId": 3693,
            "contract": "contracts/facets/AdminFacet.sol:AdminFacet",
            "label": "archaeologistCleanups",
            "offset": 0,
            "slot": "9",
            "type": "t_mapping(t_address,t_array(t_bytes32)dyn_storage)"
          },
          {
            "astId": 3697,
            "contract": "contracts/facets/AdminFacet.sol:AdminFacet",
            "label": "archaeologistRewards",
            "offset": 0,
            "slot": "10",
            "type": "t_mapping(t_address,t_uint256)"
          },
          {
            "astId": 3702,
            "contract": "contracts/facets/AdminFacet.sol:AdminFacet",
            "label": "sarcophagi",
            "offset": 0,
            "slot": "11",
            "type": "t_mapping(t_bytes32,t_struct(Sarcophagus)3163_storage)"
          },
          {
            "astId": 3707,
            "contract": "contracts/facets/AdminFacet.sol:AdminFacet",
            "label": "embalmerSarcophagi",
            "offset": 0,
            "slot": "12",
            "type": "t_mapping(t_address,t_array(t_bytes32)dyn_storage)"
          },
          {
            "astId": 3712,
            "contract": "contracts/facets/AdminFacet.sol:AdminFacet",
            "label": "archaeologistSarcophagi",
            "offset": 0,
            "slot": "13",
            "type": "t_mapping(t_address,t_array(t_bytes32)dyn_storage)"
          },
          {
            "astId": 3717,
            "contract": "contracts/facets/AdminFacet.sol:AdminFacet",
            "label": "recipientSarcophagi",
            "offset": 0,
            "slot": "14",
            "type": "t_mapping(t_address,t_array(t_bytes32)dyn_storage)"
          },
          {
            "astId": 3721,
            "contract": "contracts/facets/AdminFacet.sol:AdminFacet",
            "label": "doubleHashedShardArchaeologists",
            "offset": 0,
            "slot": "15",
            "type": "t_mapping(t_bytes32,t_address)"
          },
          {
            "astId": 3728,
            "contract": "contracts/facets/AdminFacet.sol:AdminFacet",
            "label": "sarcophagusArchaeologists",
            "offset": 0,
            "slot": "16",
            "type": "t_mapping(t_bytes32,t_mapping(t_address,t_struct(ArchaeologistStorage)3135_storage))"
          }
        ],
        "numberOfBytes": "544"
      },
      "t_struct(ArchaeologistStorage)3135_storage": {
        "encoding": "inplace",
        "label": "struct LibTypes.ArchaeologistStorage",
        "members": [
          {
            "astId": 3128,
            "contract": "contracts/facets/AdminFacet.sol:AdminFacet",
            "label": "diggingFee",
            "offset": 0,
            "slot": "0",
            "type": "t_uint256"
          },
          {
            "astId": 3130,
            "contract": "contracts/facets/AdminFacet.sol:AdminFacet",
            "label": "bounty",
            "offset": 0,
            "slot": "1",
            "type": "t_uint256"
          },
          {
            "astId": 3132,
            "contract": "contracts/facets/AdminFacet.sol:AdminFacet",
            "label": "doubleHashedShard",
            "offset": 0,
            "slot": "2",
            "type": "t_bytes32"
          },
          {
            "astId": 3134,
            "contract": "contracts/facets/AdminFacet.sol:AdminFacet",
            "label": "unencryptedShard",
            "offset": 0,
            "slot": "3",
            "type": "t_bytes_storage"
          }
        ],
        "numberOfBytes": "128"
      },
      "t_struct(Sarcophagus)3163_storage": {
        "encoding": "inplace",
        "label": "struct LibTypes.Sarcophagus",
        "members": [
          {
            "astId": 3137,
            "contract": "contracts/facets/AdminFacet.sol:AdminFacet",
            "label": "name",
            "offset": 0,
            "slot": "0",
            "type": "t_string_storage"
          },
          {
            "astId": 3140,
            "contract": "contracts/facets/AdminFacet.sol:AdminFacet",
            "label": "state",
            "offset": 0,
            "slot": "1",
            "type": "t_enum(SarcophagusState)3099"
          },
          {
            "astId": 3142,
            "contract": "contracts/facets/AdminFacet.sol:AdminFacet",
            "label": "canBeTransferred",
            "offset": 1,
            "slot": "1",
            "type": "t_bool"
          },
          {
            "astId": 3144,
            "contract": "contracts/facets/AdminFacet.sol:AdminFacet",
            "label": "minShards",
            "offset": 2,
            "slot": "1",
            "type": "t_uint8"
          },
          {
            "astId": 3146,
            "contract": "contracts/facets/AdminFacet.sol:AdminFacet",
            "label": "resurrectionTime",
            "offset": 0,
            "slot": "2",
            "type": "t_uint256"
          },
          {
            "astId": 3148,
            "contract": "contracts/facets/AdminFacet.sol:AdminFacet",
            "label": "maxResurrectionInterval",
            "offset": 0,
            "slot": "3",
            "type": "t_uint256"
          },
          {
            "astId": 3151,
            "contract": "contracts/facets/AdminFacet.sol:AdminFacet",
            "label": "arweaveTxIds",
            "offset": 0,
            "slot": "4",
            "type": "t_array(t_string_storage)dyn_storage"
          },
          {
            "astId": 3153,
            "contract": "contracts/facets/AdminFacet.sol:AdminFacet",
            "label": "storageFee",
            "offset": 0,
            "slot": "5",
            "type": "t_uint256"
          },
          {
            "astId": 3155,
            "contract": "contracts/facets/AdminFacet.sol:AdminFacet",
            "label": "embalmer",
            "offset": 0,
            "slot": "6",
            "type": "t_address"
          },
          {
            "astId": 3157,
            "contract": "contracts/facets/AdminFacet.sol:AdminFacet",
            "label": "recipientAddress",
            "offset": 0,
            "slot": "7",
            "type": "t_address"
          },
          {
            "astId": 3159,
            "contract": "contracts/facets/AdminFacet.sol:AdminFacet",
            "label": "arweaveArchaeologist",
            "offset": 0,
            "slot": "8",
            "type": "t_address"
          },
          {
            "astId": 3162,
            "contract": "contracts/facets/AdminFacet.sol:AdminFacet",
            "label": "archaeologists",
            "offset": 0,
            "slot": "9",
            "type": "t_array(t_address)dyn_storage"
          }
        ],
        "numberOfBytes": "320"
      },
      "t_uint256": {
        "encoding": "inplace",
        "label": "uint256",
        "numberOfBytes": "32"
      },
      "t_uint8": {
        "encoding": "inplace",
        "label": "uint8",
        "numberOfBytes": "1"
      }
    }
  }
}