{
  "address": "0xc93d0381126d15696049Af0FD48A29579654fBfa",
  "abi": [
    {
      "inputs": [
        {
          "internalType": "contract IERC20",
          "name": "sarcoToken",
          "type": "address"
        },
        {
          "internalType": "uint256",
          "name": "protocolFee",
          "type": "uint256"
        }
      ],
      "name": "init",
      "outputs": [],
      "stateMutability": "nonpayable",
      "type": "function"
    }
  ],
  "args": [],
  "numDeployments": 1,
  "solcInputHash": "4657a8166706ac1f0ed35a951814704b",
  "bytecode": "0x608060405234801561001057600080fd5b506101cf806100206000396000f3fe608060405234801561001057600080fd5b506004361061002b5760003560e01c8063399ae72414610030575b600080fd5b61004a60048036038101906100459190610159565b61004c565b005b60006100566100a9565b9050828160000160006101000a81548173ffffffffffffffffffffffffffffffffffffffff021916908373ffffffffffffffffffffffffffffffffffffffff160217905550818160010181905550505050565b600090565b600080fd5b600073ffffffffffffffffffffffffffffffffffffffff82169050919050565b60006100de826100b3565b9050919050565b60006100f0826100d3565b9050919050565b610100816100e5565b811461010b57600080fd5b50565b60008135905061011d816100f7565b92915050565b6000819050919050565b61013681610123565b811461014157600080fd5b50565b6000813590506101538161012d565b92915050565b600080604083850312156101705761016f6100ae565b5b600061017e8582860161010e565b925050602061018f85828601610144565b915050925092905056fea2646970667358221220b3128fdd2d2a42b6d6cfa5ed53a054cf85154dd3a038277289b4ae4ad3c7c57a64736f6c634300080d0033",
  "devdoc": {
    "kind": "dev",
    "methods": {
      "init(address,uint256)": {
        "details": "Add any AppStorage struct properties here to initialize values"
      }
    },
    "version": 1
  },
  "userdoc": {
    "kind": "user",
    "methods": {
      "init(address,uint256)": {
        "notice": "Initializes the app with default state values"
      }
    },
    "version": 1
  },
  "storageLayout": {
    "storage": [],
    "types": null
  }
}