{
  "address": "0xad8BE3e1f89c441600834F76a3d2677869D8F5df",
  "abi": [
    {
      "inputs": [
        {
          "internalType": "address[]",
          "name": "archaeologists",
          "type": "address[]"
        }
      ],
      "name": "ArchaeologistListNotUnique",
      "type": "error"
    },
    {
      "inputs": [
        {
          "internalType": "address",
          "name": "archaeologist",
          "type": "address"
        }
      ],
      "name": "ArchaeologistNotOnSarcophagus",
      "type": "error"
    },
    {
      "inputs": [],
      "name": "ArweaveArchaeologistNotInList",
      "type": "error"
    },
    {
      "inputs": [],
      "name": "ArweaveTxIdEmpty",
      "type": "error"
    },
    {
      "inputs": [
        {
          "internalType": "uint256",
          "name": "signaturesLength",
          "type": "uint256"
        }
      ],
      "name": "IncorrectNumberOfArchaeologistSignatures",
      "type": "error"
    },
    {
      "inputs": [],
      "name": "MaxResurrectionIntervalIsZero",
      "type": "error"
    },
    {
      "inputs": [
        {
          "internalType": "uint8",
          "name": "minShards",
          "type": "uint8"
        }
      ],
      "name": "MinShardsGreaterThanArchaeologists",
      "type": "error"
    },
    {
      "inputs": [],
      "name": "MinShardsZero",
      "type": "error"
    },
    {
      "inputs": [
        {
          "internalType": "uint256",
          "name": "newResurrectionTime",
          "type": "uint256"
        }
      ],
      "name": "NewResurrectionTimeInPast",
      "type": "error"
    },
    {
      "inputs": [
        {
          "internalType": "uint256",
          "name": "newResurrectionTime",
          "type": "uint256"
        }
      ],
      "name": "NewResurrectionTimeTooLarge",
      "type": "error"
    },
    {
      "inputs": [],
      "name": "NoArchaeologistsProvided",
      "type": "error"
    },
    {
      "inputs": [
        {
          "internalType": "uint256",
          "name": "cursedBond",
          "type": "uint256"
        },
        {
          "internalType": "uint256",
          "name": "amount",
          "type": "uint256"
        }
      ],
      "name": "NotEnoughCursedBond",
      "type": "error"
    },
    {
      "inputs": [
        {
          "internalType": "uint256",
          "name": "freeBond",
          "type": "uint256"
        },
        {
          "internalType": "uint256",
          "name": "amount",
          "type": "uint256"
        }
      ],
      "name": "NotEnoughFreeBond",
      "type": "error"
    },
    {
      "inputs": [
        {
          "internalType": "uint256",
          "name": "resurrectionTime",
          "type": "uint256"
        }
      ],
      "name": "ResurrectionTimeInPast",
      "type": "error"
    },
    {
      "inputs": [
        {
          "internalType": "bytes32",
          "name": "sarcoId",
          "type": "bytes32"
        }
      ],
      "name": "SarcophagusAlreadyExists",
      "type": "error"
    },
    {
      "inputs": [
        {
          "internalType": "bytes32",
          "name": "sarcoId",
          "type": "bytes32"
        }
      ],
      "name": "SarcophagusAlreadyFinalized",
      "type": "error"
    },
    {
      "inputs": [
        {
          "internalType": "bytes32",
          "name": "sarcoId",
          "type": "bytes32"
        }
      ],
      "name": "SarcophagusDoesNotExist",
      "type": "error"
    },
    {
      "inputs": [],
      "name": "SarcophagusIsUnwrappable",
      "type": "error"
    },
    {
      "inputs": [
        {
          "internalType": "bytes32",
          "name": "sarcoId",
          "type": "bytes32"
        }
      ],
      "name": "SarcophagusNotFinalized",
      "type": "error"
    },
    {
      "inputs": [
        {
          "internalType": "address",
          "name": "sender",
          "type": "address"
        },
        {
          "internalType": "address",
          "name": "embalmer",
          "type": "address"
        }
      ],
      "name": "SenderNotEmbalmer",
      "type": "error"
    },
    {
      "inputs": [
        {
          "internalType": "address",
          "name": "hopefulAddress",
          "type": "address"
        },
        {
          "internalType": "address",
          "name": "actualAddress",
          "type": "address"
        }
      ],
      "name": "SignatureFromWrongAccount",
      "type": "error"
    },
    {
      "inputs": [],
      "name": "SignatureListNotUnique",
      "type": "error"
    },
    {
      "anonymous": false,
      "inputs": [
        {
          "indexed": true,
          "internalType": "bytes32",
          "name": "sarcoId",
          "type": "bytes32"
        }
      ],
      "name": "BurySarcophagus",
      "type": "event"
    },
    {
      "anonymous": false,
      "inputs": [
        {
          "indexed": true,
          "internalType": "bytes32",
          "name": "sarcoId",
          "type": "bytes32"
        }
      ],
      "name": "CancelSarcophagus",
      "type": "event"
    },
    {
      "anonymous": false,
      "inputs": [
        {
          "indexed": true,
          "internalType": "bytes32",
          "name": "sarcoId",
          "type": "bytes32"
        },
        {
          "indexed": false,
          "internalType": "string",
          "name": "arweaveTxId",
          "type": "string"
        }
      ],
      "name": "FinalizeSarcophagus",
      "type": "event"
    },
    {
      "anonymous": false,
      "inputs": [
        {
          "indexed": true,
          "internalType": "bytes32",
          "name": "sarcoId",
          "type": "bytes32"
        },
        {
          "indexed": false,
          "internalType": "address",
          "name": "embalmer",
          "type": "address"
        },
        {
          "indexed": false,
          "internalType": "uint256",
          "name": "totalFees",
          "type": "uint256"
        }
      ],
      "name": "InitializeSarcophagus",
      "type": "event"
    },
    {
      "anonymous": false,
      "inputs": [
        {
          "indexed": true,
          "internalType": "bytes32",
          "name": "sarcoId",
          "type": "bytes32"
        },
        {
          "indexed": false,
          "internalType": "uint256",
          "name": "resurrectionTime",
          "type": "uint256"
        }
      ],
      "name": "RewrapSarcophagus",
      "type": "event"
    },
    {
      "inputs": [
        {
          "internalType": "bytes32",
          "name": "sarcoId",
          "type": "bytes32"
        }
      ],
      "name": "burySarcophagus",
      "outputs": [],
      "stateMutability": "nonpayable",
      "type": "function"
    },
    {
      "inputs": [
        {
          "internalType": "bytes32",
          "name": "sarcoId",
          "type": "bytes32"
        }
      ],
      "name": "cancelSarcophagus",
      "outputs": [],
      "stateMutability": "nonpayable",
      "type": "function"
    },
    {
      "inputs": [
        {
          "internalType": "bytes32",
          "name": "sarcoId",
          "type": "bytes32"
        },
        {
          "components": [
            {
              "internalType": "address",
              "name": "account",
              "type": "address"
            },
            {
              "internalType": "uint8",
              "name": "v",
              "type": "uint8"
            },
            {
              "internalType": "bytes32",
              "name": "r",
              "type": "bytes32"
            },
            {
              "internalType": "bytes32",
              "name": "s",
              "type": "bytes32"
            }
          ],
          "internalType": "struct LibTypes.SignatureWithAccount[]",
          "name": "archaeologistSignatures",
          "type": "tuple[]"
        },
        {
          "components": [
            {
              "internalType": "uint8",
              "name": "v",
              "type": "uint8"
            },
            {
              "internalType": "bytes32",
              "name": "r",
              "type": "bytes32"
            },
            {
              "internalType": "bytes32",
              "name": "s",
              "type": "bytes32"
            }
          ],
          "internalType": "struct LibTypes.Signature",
          "name": "arweaveArchaeologistSignature",
          "type": "tuple"
        },
        {
          "internalType": "string",
          "name": "arweaveTxId",
          "type": "string"
        }
      ],
      "name": "finalizeSarcophagus",
      "outputs": [],
      "stateMutability": "nonpayable",
      "type": "function"
    },
    {
      "inputs": [
        {
          "internalType": "string",
          "name": "name",
          "type": "string"
        },
        {
          "components": [
            {
              "internalType": "address",
              "name": "archAddress",
              "type": "address"
            },
            {
              "internalType": "uint256",
              "name": "storageFee",
              "type": "uint256"
            },
            {
              "internalType": "uint256",
              "name": "diggingFee",
              "type": "uint256"
            },
            {
              "internalType": "uint256",
              "name": "bounty",
              "type": "uint256"
            },
            {
              "internalType": "bytes32",
              "name": "hashedShard",
              "type": "bytes32"
            }
          ],
          "internalType": "struct LibTypes.ArchaeologistMemory[]",
          "name": "archaeologists",
          "type": "tuple[]"
        },
        {
          "internalType": "address",
          "name": "arweaveArchaeologist",
          "type": "address"
        },
        {
          "internalType": "address",
          "name": "recipient",
          "type": "address"
        },
        {
          "internalType": "uint256",
          "name": "resurrectionTime",
          "type": "uint256"
        },
        {
          "internalType": "uint256",
          "name": "maxResurrectionInterval",
          "type": "uint256"
        },
        {
          "internalType": "bool",
          "name": "canBeTransferred",
          "type": "bool"
        },
        {
          "internalType": "uint8",
          "name": "minShards",
          "type": "uint8"
        },
        {
          "internalType": "bytes32",
          "name": "sarcoId",
          "type": "bytes32"
        }
      ],
      "name": "initializeSarcophagus",
      "outputs": [
        {
          "internalType": "uint256",
          "name": "",
          "type": "uint256"
        }
      ],
      "stateMutability": "nonpayable",
      "type": "function"
    },
    {
      "inputs": [
        {
          "internalType": "bytes32",
          "name": "sarcoId",
          "type": "bytes32"
        },
        {
          "internalType": "uint256",
          "name": "resurrectionTime",
          "type": "uint256"
        }
      ],
      "name": "rewrapSarcophagus",
      "outputs": [],
      "stateMutability": "nonpayable",
      "type": "function"
    }
  ],
  "args": [],
  "numDeployments": 1,
  "solcInputHash": "69dfe71399ca13d901626b8fc6d4f940",
  "bytecode": "0x608060405234801561001057600080fd5b50613c4f806100206000396000f3fe608060405234801561001057600080fd5b50600436106100575760003560e01c80630511f2ec1461005c5780633753bfcf1461007857806384f6697414610094578063a2b1fb3c146100c4578063ab7d7969146100e0575b600080fd5b61007660048036038101906100719190612e89565b6100fc565b005b610092600480360381019061008d919061323c565b6105cd565b005b6100ae60048036038101906100a99190613498565b610c44565b6040516100bb91906135a9565b60405180910390f35b6100de60048036038101906100d99190612e89565b61166a565b005b6100fa60048036038101906100f591906135c4565b611a27565b005b600160028111156101105761010f613604565b5b6000600b01600083815260200190815260200160002060010160009054906101000a900460ff16600281111561014957610148613604565b5b1461018b57806040517f018da6880000000000000000000000000000000000000000000000000000000081526004016101829190613642565b60405180910390fd5b3373ffffffffffffffffffffffffffffffffffffffff166000600b01600083815260200190815260200160002060060160009054906101000a900473ffffffffffffffffffffffffffffffffffffffff1673ffffffffffffffffffffffffffffffffffffffff161461026f57336000600b01600083815260200190815260200160002060060160009054906101000a900473ffffffffffffffffffffffffffffffffffffffff166040517f0e37d99c00000000000000000000000000000000000000000000000000000000815260040161026692919061366c565b60405180910390fd5b61027881611f56565b6102b957806040517f3cb813720000000000000000000000000000000000000000000000000000000081526004016102b09190613642565b60405180910390fd5b426000600b016000838152602001908152602001600020600201541161032f576000600b016000828152602001908152602001600020600201546040517f357efa2700000000000000000000000000000000000000000000000000000000815260040161032691906135a9565b60405180910390fd5b7fffffffffffffffffffffffffffffffffffffffffffffffffffffffffffffffff6000600b0160008381526020019081526020016000206002018190555060026000600b01600083815260200190815260200160002060010160006101000a81548160ff021916908360028111156103aa576103a9613604565b5b021790555060008080600b01600084815260200190815260200160002060090180548060200260200160405190810160405280929190818152602001828054801561044a57602002820191906000526020600020905b8160009054906101000a900473ffffffffffffffffffffffffffffffffffffffff1673ffffffffffffffffffffffffffffffffffffffff1681526020019060010190808311610400575b5050505050905060005b81518110156104f7576104818483838151811061047457610473613695565b5b6020026020010151611f8a565b60006104a78584848151811061049a57610499613695565b5b60200260200101516120ce565b90506104d18383815181106104bf576104be613695565b5b602002602001015182600001516121f8565b8060200151846104e191906136f3565b93505080806104ef90613749565b915050610454565b506000800160009054906101000a900473ffffffffffffffffffffffffffffffffffffffff1673ffffffffffffffffffffffffffffffffffffffff1663a9059cbb33846040518363ffffffff1660e01b8152600401610557929190613791565b6020604051808303816000875af1158015610576573d6000803e3d6000fd5b505050506040513d601f19601f8201168201806040525081019061059a91906137cf565b50827f3a0205aa93b1a96da7d6405b2967f91b441383623de2d1ee3b27bfd1642b167a60405160405180910390a2505050565b600160028111156105e1576105e0613604565b5b6000600b01600086815260200190815260200160002060010160009054906101000a900460ff16600281111561061a57610619613604565b5b1461065c57836040517f018da6880000000000000000000000000000000000000000000000000000000081526004016106539190613642565b60405180910390fd5b3373ffffffffffffffffffffffffffffffffffffffff166000600b01600086815260200190815260200160002060060160009054906101000a900473ffffffffffffffffffffffffffffffffffffffff1673ffffffffffffffffffffffffffffffffffffffff161461074057336000600b01600086815260200190815260200160002060060160009054906101000a900473ffffffffffffffffffffffffffffffffffffffff166040517f0e37d99c00000000000000000000000000000000000000000000000000000000815260040161073792919061366c565b60405180910390fd5b61074984611f56565b1561078b57836040517f4e0360c20000000000000000000000000000000000000000000000000000000081526004016107829190613642565b60405180910390fd5b60008151036107c6576040517f4de8730700000000000000000000000000000000000000000000000000000000815260040160405180910390fd5b60016000600b016000868152602001908152602001600020600901805490506107ef91906137fc565b8351146108345782516040517f9566bfda00000000000000000000000000000000000000000000000000000000815260040161082b91906135a9565b60405180910390fd5b60005b8351811015610ac15760116000868152602001908152602001600020600085838151811061086857610867613695565b5b60200260200101516000015173ffffffffffffffffffffffffffffffffffffffff1673ffffffffffffffffffffffffffffffffffffffff16815260200190815260200160002060009054906101000a900460ff16156108f3576040517f96bde77000000000000000000000000000000000000000000000000000000000815260040160405180910390fd5b61091b8585838151811061090a57610909613695565b5b602002602001015160000151612261565b61097a5783818151811061093257610931613695565b5b6020026020010151600001516040517f82881f030000000000000000000000000000000000000000000000000000000081526004016109719190613830565b60405180910390fd5b6109ff8585838151811061099157610990613695565b5b6020026020010151602001518684815181106109b0576109af613695565b5b6020026020010151604001518785815181106109cf576109ce613695565b5b6020026020010151606001518886815181106109ee576109ed613695565b5b6020026020010151600001516122d3565b610a2785858381518110610a1657610a15613695565b5b6020026020010151600001516123f2565b6001601160008781526020019081526020016000206000868481518110610a5157610a50613695565b5b60200260200101516000015173ffffffffffffffffffffffffffffffffffffffff1673ffffffffffffffffffffffffffffffffffffffff16815260200190815260200160002060006101000a81548160ff0219169083151502179055508080610ab990613749565b915050610837565b50610b14818360000151846020015185604001516000600b0160008a815260200190815260200160002060080160009054906101000a900473ffffffffffffffffffffffffffffffffffffffff16612536565b610b57846000600b01600087815260200190815260200160002060080160009054906101000a900473ffffffffffffffffffffffffffffffffffffffff166123f2565b6000600b01600085815260200190815260200160002060040181908060018154018082558091505060019003906000526020600020016000909190919091509080519060200190610ba9929190612b9d565b50610c066000600b01600086815260200190815260200160002060080160009054906101000a900473ffffffffffffffffffffffffffffffffffffffff166000600b016000878152602001908152602001600020600501546121f8565b837f9b431f9d40c7ec693619fb18ac9efd158fe23da84ef32a5e1b4c21add8f0b9e582604051610c3691906138d3565b60405180910390a250505050565b6000806002811115610c5957610c58613604565b5b6000600b01600084815260200190815260200160002060010160009054906101000a900460ff166002811115610c9257610c91613604565b5b14610cd457816040517fb9d0d584000000000000000000000000000000000000000000000000000000008152600401610ccb9190613642565b60405180910390fd5b428611610d1857856040517f357efa27000000000000000000000000000000000000000000000000000000008152600401610d0f91906135a9565b60405180910390fd5b6000895103610d53576040517fb274cdd900000000000000000000000000000000000000000000000000000000815260040160405180910390fd5b88518360ff161115610d9c57826040517f4f1dd41a000000000000000000000000000000000000000000000000000000008152600401610d939190613904565b60405180910390fd5b60008360ff1603610dd9576040517fc289fea400000000000000000000000000000000000000000000000000000000815260040160405180910390fd5b60008503610e13576040517f97a2d6c400000000000000000000000000000000000000000000000000000000815260040160405180910390fd5b6000895167ffffffffffffffff811115610e3057610e2f612ecc565b5b604051908082528060200260200182016040528015610e5e5781602001602082028036833780820191505090505b5090506000805b8b5181101561114b5760008c8281518110610e8357610e82613695565b5b60200260200101519050610e9b868260000151612261565b15610edd57836040517f8cdcf341000000000000000000000000000000000000000000000000000000008152600401610ed491906139dd565b60405180910390fd5b8b73ffffffffffffffffffffffffffffffffffffffff16816000015173ffffffffffffffffffffffffffffffffffffffff1603610f1c57806020015192505b60008160800151604051602001610f339190613642565b60405160208183030381529060405280519060200120905060006040518060800160405280846040015181526020018460600151815260200183815260200160405180602001604052806000815250815250905082600001516000600f01600084815260200190815260200160002060006101000a81548173ffffffffffffffffffffffffffffffffffffffff021916908373ffffffffffffffffffffffffffffffffffffffff16021790555080600060100160008a81526020019081526020016000206000856000015173ffffffffffffffffffffffffffffffffffffffff1673ffffffffffffffffffffffffffffffffffffffff1681526020019081526020016000206000820151816000015560208201518160010155604082015181600201556060820151816003019080519060200190611072929190612c23565b509050506000600d016000846000015173ffffffffffffffffffffffffffffffffffffffff1673ffffffffffffffffffffffffffffffffffffffff16815260200190815260200160002088908060018154018082558091505060019003906000526020600020016000909190919091505582600001518685815181106110fb576110fa613695565b5b602002602001019073ffffffffffffffffffffffffffffffffffffffff16908173ffffffffffffffffffffffffffffffffffffffff1681525050505050808061114390613749565b915050610e65565b5060008103611186576040517f36f92dd500000000000000000000000000000000000000000000000000000000815260040160405180910390fd5b6040518061018001604052808d8152602001600160028111156111ac576111ab613604565b5b815260200187151581526020018660ff168152602001898152602001888152602001600067ffffffffffffffff8111156111e9576111e8612ecc565b5b60405190808252806020026020018201604052801561121c57816020015b60608152602001906001900390816112075790505b5081526020018281526020013373ffffffffffffffffffffffffffffffffffffffff1681526020018a73ffffffffffffffffffffffffffffffffffffffff1681526020018b73ffffffffffffffffffffffffffffffffffffffff168152602001838152506000600b01600086815260200190815260200160002060008201518160000190805190602001906112b2929190612b9d565b5060208201518160010160006101000a81548160ff021916908360028111156112de576112dd613604565b5b021790555060408201518160010160016101000a81548160ff02191690831515021790555060608201518160010160026101000a81548160ff021916908360ff1602179055506080820151816002015560a0820151816003015560c0820151816004019080519060200190611354929190612ca9565b5060e082015181600501556101008201518160060160006101000a81548173ffffffffffffffffffffffffffffffffffffffff021916908373ffffffffffffffffffffffffffffffffffffffff1602179055506101208201518160070160006101000a81548173ffffffffffffffffffffffffffffffffffffffff021916908373ffffffffffffffffffffffffffffffffffffffff1602179055506101408201518160080160006101000a81548173ffffffffffffffffffffffffffffffffffffffff021916908373ffffffffffffffffffffffffffffffffffffffff160217905550610160820151816009019080519060200190611454929190612d09565b5090505060006003018490806001815401808255809150506001900390600052602060002001600090919091909150556000600c0160003373ffffffffffffffffffffffffffffffffffffffff1673ffffffffffffffffffffffffffffffffffffffff1681526020019081526020016000208490806001815401808255809150506001900390600052602060002001600090919091909150556000600e0160008a73ffffffffffffffffffffffffffffffffffffffff1673ffffffffffffffffffffffffffffffffffffffff16815260200190815260200160002084908060018154018082558091505060019003906000526020600020016000909190919091505560006115628584612655565b90506000800160009054906101000a900473ffffffffffffffffffffffffffffffffffffffff1673ffffffffffffffffffffffffffffffffffffffff166323b872dd3330846040518463ffffffff1660e01b81526004016115c5939291906139ff565b6020604051808303816000875af11580156115e4573d6000803e3d6000fd5b505050506040513d601f19601f8201168201806040525081019061160891906137cf565b50847f069a41c1d43b317f88336b3b824b9e7439d4fd4893bda3c41607daba5e14e569338360405161163b929190613791565b60405180910390a2600160006003018054905061165891906137fc565b93505050509998505050505050505050565b6001600281111561167e5761167d613604565b5b6000600b01600083815260200190815260200160002060010160009054906101000a900460ff1660028111156116b7576116b6613604565b5b146116f957806040517f018da6880000000000000000000000000000000000000000000000000000000081526004016116f09190613642565b60405180910390fd5b3373ffffffffffffffffffffffffffffffffffffffff166000600b01600083815260200190815260200160002060060160009054906101000a900473ffffffffffffffffffffffffffffffffffffffff1673ffffffffffffffffffffffffffffffffffffffff16146117dd57336000600b01600083815260200190815260200160002060060160009054906101000a900473ffffffffffffffffffffffffffffffffffffffff166040517f0e37d99c0000000000000000000000000000000000000000000000000000000081526004016117d492919061366c565b60405180910390fd5b6117e681611f56565b1561182857806040517f4e0360c200000000000000000000000000000000000000000000000000000000815260040161181f9190613642565b60405180910390fd5b60026000600b01600083815260200190815260200160002060010160006101000a81548160ff0219169083600281111561186557611864613604565b5b0217905550600080600b01600083815260200190815260200160002060090180548060200260200160405190810160405280929190818152602001828054801561190457602002820191906000526020600020905b8160009054906101000a900473ffffffffffffffffffffffffffffffffffffffff1673ffffffffffffffffffffffffffffffffffffffff16815260200190600101908083116118ba575b5050505050905060006119178383612655565b90506000800160009054906101000a900473ffffffffffffffffffffffffffffffffffffffff1673ffffffffffffffffffffffffffffffffffffffff1663a9059cbb6000600b01600086815260200190815260200160002060060160009054906101000a900473ffffffffffffffffffffffffffffffffffffffff16836040518363ffffffff1660e01b81526004016119b1929190613791565b6020604051808303816000875af11580156119d0573d6000803e3d6000fd5b505050506040513d601f19601f820116820180604052508101906119f491906137cf565b50827f829e85bd7eda128d8f00c1b0b36d28a9357d6c88d69a552de0d3be7b766e775060405160405180910390a2505050565b60016002811115611a3b57611a3a613604565b5b6000600b01600084815260200190815260200160002060010160009054906101000a900460ff166002811115611a7457611a73613604565b5b14611ab657816040517f018da688000000000000000000000000000000000000000000000000000000008152600401611aad9190613642565b60405180910390fd5b3373ffffffffffffffffffffffffffffffffffffffff166000600b01600084815260200190815260200160002060060160009054906101000a900473ffffffffffffffffffffffffffffffffffffffff1673ffffffffffffffffffffffffffffffffffffffff1614611b9a57336000600b01600084815260200190815260200160002060060160009054906101000a900473ffffffffffffffffffffffffffffffffffffffff166040517f0e37d99c000000000000000000000000000000000000000000000000000000008152600401611b9192919061366c565b60405180910390fd5b611ba382611f56565b611be457816040517f3cb81372000000000000000000000000000000000000000000000000000000008152600401611bdb9190613642565b60405180910390fd5b426000600b0160008481526020019081526020016000206002015411611c36576040517f8680d5de00000000000000000000000000000000000000000000000000000000815260040160405180910390fd5b428111611c7a57806040517f365e3534000000000000000000000000000000000000000000000000000000008152600401611c7191906135a9565b60405180910390fd5b6000600b016000838152602001908152602001600020600301544282611ca091906137fc565b1115611cfc576000600b016000838152602001908152602001600020600201546040517fe4b2b618000000000000000000000000000000000000000000000000000000008152600401611cf391906135a9565b60405180910390fd5b600080600b016000848152602001908152602001600020600901805480602002602001604051908101604052809291908181526020018280548015611d9657602002820191906000526020600020905b8160009054906101000a900473ffffffffffffffffffffffffffffffffffffffff1673ffffffffffffffffffffffffffffffffffffffff1681526020019060010190808311611d4c575b505050505090506000805b8251811015611e20576000611dd086858481518110611dc357611dc2613695565b5b60200260200101516120ce565b9050611dfa848381518110611de857611de7613695565b5b602002602001015182600001516121f8565b806000015183611e0a91906136f3565b9250508080611e1890613749565b915050611da1565b506000611e2b612804565b90508060006002016000828254611e4291906136f3565b92505081905550836000600b016000878152602001908152602001600020600201819055506000800160009054906101000a900473ffffffffffffffffffffffffffffffffffffffff1673ffffffffffffffffffffffffffffffffffffffff166323b872dd33308486611eb591906136f3565b6040518463ffffffff1660e01b8152600401611ed3939291906139ff565b6020604051808303816000875af1158015611ef2573d6000803e3d6000fd5b505050506040513d601f19601f82011682018060405250810190611f1691906137cf565b50847fc43f235edfdfb8fb8f12d43aefddd2a254a828397ab67fb26d997312751b14ea85604051611f4791906135a9565b60405180910390a25050505050565b600080611f6161281c565b9050600081600b0160008581526020019081526020016000206004018054905011915050919050565b6000611f9461281c565b9050600081601001600085815260200190815260200160002060008473ffffffffffffffffffffffffffffffffffffffff1673ffffffffffffffffffffffffffffffffffffffff16815260200190815260200160002060405180608001604052908160008201548152602001600182015481526020016002820154815260200160038201805461202390613a65565b80601f016020809104026020016040519081016040528092919081815260200182805461204f90613a65565b801561209c5780601f106120715761010080835404028352916020019161209c565b820191906000526020600020905b81548152906001019060200180831161207f57829003601f168201915b505050505081525050905060006120bb82600001518360200151612821565b90506120c78482612837565b5050505050565b6120d6612d93565b60006120e061281c565b905080601001600085815260200190815260200160002060008473ffffffffffffffffffffffffffffffffffffffff1673ffffffffffffffffffffffffffffffffffffffff16815260200190815260200160002060405180608001604052908160008201548152602001600182015481526020016002820154815260200160038201805461216d90613a65565b80601f016020809104026020016040519081016040528092919081815260200182805461219990613a65565b80156121e65780601f106121bb576101008083540402835291602001916121e6565b820191906000526020600020905b8154815290600101906020018083116121c957829003601f168201915b50505050508152505091505092915050565b600061220261281c565b90508181600a0160008573ffffffffffffffffffffffffffffffffffffffff1673ffffffffffffffffffffffffffffffffffffffff168152602001908152602001600020600082825461225591906136f3565b92505081905550505050565b60008061226c61281c565b90506000801b81601001600086815260200190815260200160002060008573ffffffffffffffffffffffffffffffffffffffff1673ffffffffffffffffffffffffffffffffffffffff16815260200190815260200160002060020154141591505092915050565b6000856040516020016122e69190613642565b6040516020818303038152906040528051906020012060405160200161230c9190613b0e565b6040516020818303038152906040528051906020012090506000600182878787604051600081526020016040526040516123499493929190613b34565b6020604051602081039080840390855afa15801561236b573d6000803e3d6000fd5b5050506020604051035190508273ffffffffffffffffffffffffffffffffffffffff168173ffffffffffffffffffffffffffffffffffffffff16146123e95780836040517f50d751170000000000000000000000000000000000000000000000000000000081526004016123e092919061366c565b60405180910390fd5b50505050505050565b60006123fc61281c565b9050600081601001600085815260200190815260200160002060008473ffffffffffffffffffffffffffffffffffffffff1673ffffffffffffffffffffffffffffffffffffffff16815260200190815260200160002060405180608001604052908160008201548152602001600182015481526020016002820154815260200160038201805461248b90613a65565b80601f01602080910402602001604051908101604052809291908181526020018280546124b790613a65565b80156125045780601f106124d957610100808354040283529160200191612504565b820191906000526020600020905b8154815290600101906020018083116124e757829003601f168201915b5050505050815250509050600061252382600001518360200151612821565b905061252f848261284f565b5050505050565b6000856040516020016125499190613bce565b6040516020818303038152906040528051906020012060405160200161256f9190613b0e565b6040516020818303038152906040528051906020012090506000600182878787604051600081526020016040526040516125ac9493929190613b34565b6020604051602081039080840390855afa1580156125ce573d6000803e3d6000fd5b5050506020604051035190508273ffffffffffffffffffffffffffffffffffffffff168173ffffffffffffffffffffffffffffffffffffffff161461264c5780836040517f50d7511700000000000000000000000000000000000000000000000000000000815260040161264392919061366c565b60405180910390fd5b50505050505050565b60008061266061281c565b90506000805b84518110156127d2576000836010016000888152602001908152602001600020600087848151811061269b5761269a613695565b5b602002602001015173ffffffffffffffffffffffffffffffffffffffff1673ffffffffffffffffffffffffffffffffffffffff16815260200190815260200160002060405180608001604052908160008201548152602001600182015481526020016002820154815260200160038201805461271690613a65565b80601f016020809104026020016040519081016040528092919081815260200182805461274290613a65565b801561278f5780601f106127645761010080835404028352916020019161278f565b820191906000526020600020905b81548152906001019060200180831161277257829003601f168201915b50505050508152505090508060200151836127aa91906136f3565b92508060000151836127bc91906136f3565b92505080806127ca90613749565b915050612666565b5081600b01600086815260200190815260200160002060050154816127f791906136f3565b9050809250505092915050565b60008061280f61281c565b9050806001015491505090565b600090565b6000818361282f91906136f3565b905092915050565b6128418282612867565b61284b8282612999565b5050565b6128598282612a02565b6128638282612b34565b5050565b600061287161281c565b90508060050160008473ffffffffffffffffffffffffffffffffffffffff1673ffffffffffffffffffffffffffffffffffffffff1681526020019081526020016000205482111561293c578060050160008473ffffffffffffffffffffffffffffffffffffffff1673ffffffffffffffffffffffffffffffffffffffff16815260200190815260200160002054826040517faf5a111b000000000000000000000000000000000000000000000000000000008152600401612933929190613bf0565b60405180910390fd5b818160050160008573ffffffffffffffffffffffffffffffffffffffff1673ffffffffffffffffffffffffffffffffffffffff168152602001908152602001600020600082825461298d91906137fc565b92505081905550505050565b60006129a361281c565b9050818160040160008573ffffffffffffffffffffffffffffffffffffffff1673ffffffffffffffffffffffffffffffffffffffff16815260200190815260200160002060008282546129f691906136f3565b92505081905550505050565b6000612a0c61281c565b90508060040160008473ffffffffffffffffffffffffffffffffffffffff1673ffffffffffffffffffffffffffffffffffffffff16815260200190815260200160002054821115612ad7578060040160008473ffffffffffffffffffffffffffffffffffffffff1673ffffffffffffffffffffffffffffffffffffffff16815260200190815260200160002054826040517fa4e3bead000000000000000000000000000000000000000000000000000000008152600401612ace929190613bf0565b60405180910390fd5b818160040160008573ffffffffffffffffffffffffffffffffffffffff1673ffffffffffffffffffffffffffffffffffffffff1681526020019081526020016000206000828254612b2891906137fc565b92505081905550505050565b6000612b3e61281c565b9050818160050160008573ffffffffffffffffffffffffffffffffffffffff1673ffffffffffffffffffffffffffffffffffffffff1681526020019081526020016000206000828254612b9191906136f3565b92505081905550505050565b828054612ba990613a65565b90600052602060002090601f016020900481019282612bcb5760008555612c12565b82601f10612be457805160ff1916838001178555612c12565b82800160010185558215612c12579182015b82811115612c11578251825591602001919060010190612bf6565b5b509050612c1f9190612dbe565b5090565b828054612c2f90613a65565b90600052602060002090601f016020900481019282612c515760008555612c98565b82601f10612c6a57805160ff1916838001178555612c98565b82800160010185558215612c98579182015b82811115612c97578251825591602001919060010190612c7c565b5b509050612ca59190612dbe565b5090565b828054828255906000526020600020908101928215612cf8579160200282015b82811115612cf7578251829080519060200190612ce7929190612b9d565b5091602001919060010190612cc9565b5b509050612d059190612ddb565b5090565b828054828255906000526020600020908101928215612d82579160200282015b82811115612d815782518260006101000a81548173ffffffffffffffffffffffffffffffffffffffff021916908373ffffffffffffffffffffffffffffffffffffffff16021790555091602001919060010190612d29565b5b509050612d8f9190612dbe565b5090565b6040518060800160405280600081526020016000815260200160008019168152602001606081525090565b5b80821115612dd7576000816000905550600101612dbf565b5090565b5b80821115612dfb5760008181612df29190612dff565b50600101612ddc565b5090565b508054612e0b90613a65565b6000825580601f10612e1d5750612e3c565b601f016020900490600052602060002090810190612e3b9190612dbe565b5b50565b6000604051905090565b600080fd5b600080fd5b6000819050919050565b612e6681612e53565b8114612e7157600080fd5b50565b600081359050612e8381612e5d565b92915050565b600060208284031215612e9f57612e9e612e49565b5b6000612ead84828501612e74565b91505092915050565b600080fd5b6000601f19601f8301169050919050565b7f4e487b7100000000000000000000000000000000000000000000000000000000600052604160045260246000fd5b612f0482612ebb565b810181811067ffffffffffffffff82111715612f2357612f22612ecc565b5b80604052505050565b6000612f36612e3f565b9050612f428282612efb565b919050565b600067ffffffffffffffff821115612f6257612f61612ecc565b5b602082029050602081019050919050565b600080fd5b600080fd5b600073ffffffffffffffffffffffffffffffffffffffff82169050919050565b6000612fa882612f7d565b9050919050565b612fb881612f9d565b8114612fc357600080fd5b50565b600081359050612fd581612faf565b92915050565b600060ff82169050919050565b612ff181612fdb565b8114612ffc57600080fd5b50565b60008135905061300e81612fe8565b92915050565b60006080828403121561302a57613029612f78565b5b6130346080612f2c565b9050600061304484828501612fc6565b600083015250602061305884828501612fff565b602083015250604061306c84828501612e74565b604083015250606061308084828501612e74565b60608301525092915050565b600061309f61309a84612f47565b612f2c565b905080838252602082019050608084028301858111156130c2576130c1612f73565b5b835b818110156130eb57806130d78882613014565b8452602084019350506080810190506130c4565b5050509392505050565b600082601f83011261310a57613109612eb6565b5b813561311a84826020860161308c565b91505092915050565b60006060828403121561313957613138612f78565b5b6131436060612f2c565b9050600061315384828501612fff565b600083015250602061316784828501612e74565b602083015250604061317b84828501612e74565b60408301525092915050565b600080fd5b600067ffffffffffffffff8211156131a7576131a6612ecc565b5b6131b082612ebb565b9050602081019050919050565b82818337600083830152505050565b60006131df6131da8461318c565b612f2c565b9050828152602081018484840111156131fb576131fa613187565b5b6132068482856131bd565b509392505050565b600082601f83011261322357613222612eb6565b5b81356132338482602086016131cc565b91505092915050565b60008060008060c0858703121561325657613255612e49565b5b600061326487828801612e74565b945050602085013567ffffffffffffffff81111561328557613284612e4e565b5b613291878288016130f5565b93505060406132a287828801613123565b92505060a085013567ffffffffffffffff8111156132c3576132c2612e4e565b5b6132cf8782880161320e565b91505092959194509250565b600067ffffffffffffffff8211156132f6576132f5612ecc565b5b602082029050602081019050919050565b6000819050919050565b61331a81613307565b811461332557600080fd5b50565b60008135905061333781613311565b92915050565b600060a0828403121561335357613352612f78565b5b61335d60a0612f2c565b9050600061336d84828501612fc6565b600083015250602061338184828501613328565b602083015250604061339584828501613328565b60408301525060606133a984828501613328565b60608301525060806133bd84828501612e74565b60808301525092915050565b60006133dc6133d7846132db565b612f2c565b90508083825260208201905060a084028301858111156133ff576133fe612f73565b5b835b818110156134285780613414888261333d565b84526020840193505060a081019050613401565b5050509392505050565b600082601f83011261344757613446612eb6565b5b81356134578482602086016133c9565b91505092915050565b60008115159050919050565b61347581613460565b811461348057600080fd5b50565b6000813590506134928161346c565b92915050565b60008060008060008060008060006101208a8c0312156134bb576134ba612e49565b5b60008a013567ffffffffffffffff8111156134d9576134d8612e4e565b5b6134e58c828d0161320e565b99505060208a013567ffffffffffffffff81111561350657613505612e4e565b5b6135128c828d01613432565b98505060406135238c828d01612fc6565b97505060606135348c828d01612fc6565b96505060806135458c828d01613328565b95505060a06135568c828d01613328565b94505060c06135678c828d01613483565b93505060e06135788c828d01612fff565b92505061010061358a8c828d01612e74565b9150509295985092959850929598565b6135a381613307565b82525050565b60006020820190506135be600083018461359a565b92915050565b600080604083850312156135db576135da612e49565b5b60006135e985828601612e74565b92505060206135fa85828601613328565b9150509250929050565b7f4e487b7100000000000000000000000000000000000000000000000000000000600052602160045260246000fd5b61363c81612e53565b82525050565b60006020820190506136576000830184613633565b92915050565b61366681612f9d565b82525050565b6000604082019050613681600083018561365d565b61368e602083018461365d565b9392505050565b7f4e487b7100000000000000000000000000000000000000000000000000000000600052603260045260246000fd5b7f4e487b7100000000000000000000000000000000000000000000000000000000600052601160045260246000fd5b60006136fe82613307565b915061370983613307565b9250827fffffffffffffffffffffffffffffffffffffffffffffffffffffffffffffffff0382111561373e5761373d6136c4565b5b828201905092915050565b600061375482613307565b91507fffffffffffffffffffffffffffffffffffffffffffffffffffffffffffffffff8203613786576137856136c4565b5b600182019050919050565b60006040820190506137a6600083018561365d565b6137b3602083018461359a565b9392505050565b6000815190506137c98161346c565b92915050565b6000602082840312156137e5576137e4612e49565b5b60006137f3848285016137ba565b91505092915050565b600061380782613307565b915061381283613307565b925082821015613825576138246136c4565b5b828203905092915050565b6000602082019050613845600083018461365d565b92915050565b600081519050919050565b600082825260208201905092915050565b60005b8381101561388557808201518184015260208101905061386a565b83811115613894576000848401525b50505050565b60006138a58261384b565b6138af8185613856565b93506138bf818560208601613867565b6138c881612ebb565b840191505092915050565b600060208201905081810360008301526138ed818461389a565b905092915050565b6138fe81612fdb565b82525050565b600060208201905061391960008301846138f5565b92915050565b600081519050919050565b600082825260208201905092915050565b6000819050602082019050919050565b61395481612f9d565b82525050565b6000613966838361394b565b60208301905092915050565b6000602082019050919050565b600061398a8261391f565b613994818561392a565b935061399f8361393b565b8060005b838110156139d05781516139b7888261395a565b97506139c283613972565b9250506001810190506139a3565b5085935050505092915050565b600060208201905081810360008301526139f7818461397f565b905092915050565b6000606082019050613a14600083018661365d565b613a21602083018561365d565b613a2e604083018461359a565b949350505050565b7f4e487b7100000000000000000000000000000000000000000000000000000000600052602260045260246000fd5b60006002820490506001821680613a7d57607f821691505b602082108103613a9057613a8f613a36565b5b50919050565b600081905092915050565b7f19457468657265756d205369676e6564204d6573736167653a0a333200000000600082015250565b6000613ad7601c83613a96565b9150613ae282613aa1565b601c82019050919050565b6000819050919050565b613b08613b0382612e53565b613aed565b82525050565b6000613b1982613aca565b9150613b258284613af7565b60208201915081905092915050565b6000608082019050613b496000830187613633565b613b5660208301866138f5565b613b636040830185613633565b613b706060830184613633565b95945050505050565b600081519050919050565b600082825260208201905092915050565b6000613ba082613b79565b613baa8185613b84565b9350613bba818560208601613867565b613bc381612ebb565b840191505092915050565b60006020820190508181036000830152613be88184613b95565b905092915050565b6000604082019050613c05600083018561359a565b613c12602083018461359a565b939250505056fea264697066735822122095fb2ad3d46aeb31943b56bd2d4028b2f154ae2f3d9c1ab27f0083b63b039c9b64736f6c634300080d0033",
  "devdoc": {
    "kind": "dev",
    "methods": {
      "burySarcophagus(bytes32)": {
        "details": "Extends the resurrection time into infinity so that that unwrap will never be successful.",
        "params": {
          "sarcoId": "the identifier of the sarcophagus"
        }
      },
      "cancelSarcophagus(bytes32)": {
        "params": {
          "sarcoId": "the identifier of the sarcophagus"
        }
      },
      "finalizeSarcophagus(bytes32,(address,uint8,bytes32,bytes32)[],(uint8,bytes32,bytes32),string)": {
        "details": "The archaeologistSignatures must be sent in the same order that the archaeologists were sent to the initializeSarcophagus function, otherwise the transaction will revert.",
        "params": {
          "archaeologistSignatures": "the signatures of the archaeologists. This is archaeologist.length - 1 since the arweave archaeologist will be providing their own signature.",
          "arweaveArchaeologistSignature": "the signature of the archaeologist who uploaded to arweave",
          "arweaveTxId": "the arweave transaction id",
          "sarcoId": "the identifier of the sarcophagus"
        }
      },
      "initializeSarcophagus(string,(address,uint256,uint256,uint256,bytes32)[],address,address,uint256,uint256,bool,uint8,bytes32)": {
        "details": "archaeologists will have to sign off on this interval, and commit to it for the lifetime of the sarcophagus.",
        "params": {
          "archaeologists": "the data for the archaeologists",
          "arweaveArchaeologist": "The address of the archaeologist who uploads to arweave",
          "canBeTransferred": "Whether the sarcophagus can be transferred",
          "maxResurrectionInterval": "the maximum length of time that any new resurrection times can be from time of rewrap",
          "minShards": "The minimum number of shards required to unwrap the sarcophagus",
          "name": "the name of the sarcophagus",
          "recipient": "the address of the recipient",
          "resurrectionTime": "the resurrection time of the sarcophagus",
          "sarcoId": "Unique identifier of the sarcophagus"
        },
        "returns": {
          "_0": "The index of the new sarcophagus"
        }
      },
      "rewrapSarcophagus(bytes32,uint256)": {
        "details": "The embalmer sets a new resurrection time sometime in the future.",
        "params": {
          "resurrectionTime": "the new resurrection time",
          "sarcoId": "the identifier of the sarcophagus"
        }
      }
    },
    "version": 1
  },
  "userdoc": {
    "kind": "user",
    "methods": {
      "burySarcophagus(bytes32)": {
        "notice": "Permanently closes the sarcophagus, giving it no opportunity to be resurrected. This may only be done after finalizeSarcophagus and before the resurrection time has passed."
      },
      "cancelSarcophagus(bytes32)": {
        "notice": "Cancels a sarcophagus. An embalmer may cancel a sarcophagus after `initializeSarcophagus` but before `finalizeSarcophagus`. The embalmer's fees that were locked up will be refunded."
      },
      "finalizeSarcophagus(bytes32,(address,uint8,bytes32,bytes32)[],(uint8,bytes32,bytes32),string)": {
        "notice": "Embalmer finalizes the skeleton of a sarcophagus. FinalizeSarcophagus is the last step of the two step mummification process. The purpose of finalizeSarcophagus is to:   - Provide the archaeologists' signatures to the contract. These     confirm that the archaeologists approve the fees stored on the     contract and are ready to work.   - Provide the arweave transaction id to be stored on chain.   - Reward the archaeologist who uploaded to payload to arweave with the storage fee."
      },
      "initializeSarcophagus(string,(address,uint256,uint256,uint256,bytes32)[],address,address,uint256,uint256,bool,uint8,bytes32)": {
        "notice": "Embalmer creates the skeleton for a new sarcopahgus. InitializeSarcophagus is the first step of the two step mummification process. The purpose of intializeSarcophagus is to:   - Lock up payment for the archaeologists (bounty, digging fees, and storage fee)   - Store hashes of the unencrypted shards on chain   - Store the particapting archaeologists' addresses and individual     denominations of fees dedicated to each   - Create the sarcophagus object After initializeSarcophagus the archaeologists have been chosen but may have no knowledge of the sarcophagus yet. An archaeologist still needs to upload a payload to arweave and also communicate directly with the embalmer to indicate that they are ready to do work. After this the finalizeSarcohpagus() method should be called, which is the second step."
      },
      "rewrapSarcophagus(bytes32,uint256)": {
        "notice": "The embalmer may extend the life of the sarcophagus as long as the resurrection time has not passed yet."
      }
    },
    "version": 1
  },
  "storageLayout": {
    "storage": [
      {
        "astId": 94,
        "contract": "contracts/facets/EmbalmerFacet.sol:EmbalmerFacet",
        "label": "s",
        "offset": 0,
        "slot": "0",
        "type": "t_struct(AppStorage)2351_storage"
      },
      {
        "astId": 128,
        "contract": "contracts/facets/EmbalmerFacet.sol:EmbalmerFacet",
        "label": "verifiedArchaeologists",
        "offset": 0,
        "slot": "17",
        "type": "t_mapping(t_bytes32,t_mapping(t_address,t_bool))"
      }
    ],
    "types": {
      "t_address": {
        "encoding": "inplace",
        "label": "address",
        "numberOfBytes": "20"
      },
      "t_array(t_address)dyn_storage": {
        "base": "t_address",
        "encoding": "dynamic_array",
        "label": "address[]",
        "numberOfBytes": "32"
      },
      "t_array(t_bytes32)dyn_storage": {
        "base": "t_bytes32",
        "encoding": "dynamic_array",
        "label": "bytes32[]",
        "numberOfBytes": "32"
      },
      "t_array(t_string_storage)dyn_storage": {
        "base": "t_string_storage",
        "encoding": "dynamic_array",
        "label": "string[]",
        "numberOfBytes": "32"
      },
      "t_bool": {
        "encoding": "inplace",
        "label": "bool",
        "numberOfBytes": "1"
      },
      "t_bytes32": {
        "encoding": "inplace",
        "label": "bytes32",
        "numberOfBytes": "32"
      },
      "t_bytes_storage": {
        "encoding": "bytes",
        "label": "bytes",
        "numberOfBytes": "32"
      },
      "t_contract(IERC20)77": {
        "encoding": "inplace",
        "label": "contract IERC20",
        "numberOfBytes": "20"
      },
      "t_enum(SarcophagusState)1755": {
        "encoding": "inplace",
        "label": "enum LibTypes.SarcophagusState",
        "numberOfBytes": "1"
      },
      "t_mapping(t_address,t_array(t_bytes32)dyn_storage)": {
        "encoding": "mapping",
        "key": "t_address",
        "label": "mapping(address => bytes32[])",
        "numberOfBytes": "32",
        "value": "t_array(t_bytes32)dyn_storage"
      },
      "t_mapping(t_address,t_bool)": {
        "encoding": "mapping",
        "key": "t_address",
        "label": "mapping(address => bool)",
        "numberOfBytes": "32",
        "value": "t_bool"
      },
      "t_mapping(t_address,t_mapping(t_bytes32,t_bool))": {
        "encoding": "mapping",
        "key": "t_address",
        "label": "mapping(address => mapping(bytes32 => bool))",
        "numberOfBytes": "32",
        "value": "t_mapping(t_bytes32,t_bool)"
      },
      "t_mapping(t_address,t_struct(ArchaeologistStorage)1791_storage)": {
        "encoding": "mapping",
        "key": "t_address",
        "label": "mapping(address => struct LibTypes.ArchaeologistStorage)",
        "numberOfBytes": "32",
        "value": "t_struct(ArchaeologistStorage)1791_storage"
      },
      "t_mapping(t_address,t_uint256)": {
        "encoding": "mapping",
        "key": "t_address",
        "label": "mapping(address => uint256)",
        "numberOfBytes": "32",
        "value": "t_uint256"
      },
      "t_mapping(t_bytes32,t_address)": {
        "encoding": "mapping",
        "key": "t_bytes32",
        "label": "mapping(bytes32 => address)",
        "numberOfBytes": "32",
        "value": "t_address"
      },
      "t_mapping(t_bytes32,t_bool)": {
        "encoding": "mapping",
        "key": "t_bytes32",
        "label": "mapping(bytes32 => bool)",
        "numberOfBytes": "32",
        "value": "t_bool"
      },
      "t_mapping(t_bytes32,t_mapping(t_address,t_bool))": {
        "encoding": "mapping",
        "key": "t_bytes32",
        "label": "mapping(bytes32 => mapping(address => bool))",
        "numberOfBytes": "32",
        "value": "t_mapping(t_address,t_bool)"
      },
      "t_mapping(t_bytes32,t_mapping(t_address,t_struct(ArchaeologistStorage)1791_storage))": {
        "encoding": "mapping",
        "key": "t_bytes32",
        "label": "mapping(bytes32 => mapping(address => struct LibTypes.ArchaeologistStorage))",
        "numberOfBytes": "32",
        "value": "t_mapping(t_address,t_struct(ArchaeologistStorage)1791_storage)"
      },
      "t_mapping(t_bytes32,t_struct(Sarcophagus)1819_storage)": {
        "encoding": "mapping",
        "key": "t_bytes32",
        "label": "mapping(bytes32 => struct LibTypes.Sarcophagus)",
        "numberOfBytes": "32",
        "value": "t_struct(Sarcophagus)1819_storage"
      },
      "t_string_storage": {
        "encoding": "bytes",
        "label": "string",
        "numberOfBytes": "32"
      },
      "t_struct(AppStorage)2351_storage": {
        "encoding": "inplace",
        "label": "struct AppStorage",
        "members": [
          {
            "astId": 2279,
            "contract": "contracts/facets/EmbalmerFacet.sol:EmbalmerFacet",
            "label": "sarcoToken",
            "offset": 0,
            "slot": "0",
            "type": "t_contract(IERC20)77"
          },
          {
            "astId": 2281,
            "contract": "contracts/facets/EmbalmerFacet.sol:EmbalmerFacet",
            "label": "protocolFee",
            "offset": 0,
            "slot": "1",
            "type": "t_uint256"
          },
          {
            "astId": 2283,
            "contract": "contracts/facets/EmbalmerFacet.sol:EmbalmerFacet",
            "label": "totalProtocolFees",
            "offset": 0,
            "slot": "2",
            "type": "t_uint256"
          },
          {
            "astId": 2286,
            "contract": "contracts/facets/EmbalmerFacet.sol:EmbalmerFacet",
            "label": "sarcophagusIdentifiers",
            "offset": 0,
            "slot": "3",
            "type": "t_array(t_bytes32)dyn_storage"
          },
          {
            "astId": 2290,
            "contract": "contracts/facets/EmbalmerFacet.sol:EmbalmerFacet",
            "label": "freeBonds",
            "offset": 0,
            "slot": "4",
            "type": "t_mapping(t_address,t_uint256)"
          },
          {
            "astId": 2294,
            "contract": "contracts/facets/EmbalmerFacet.sol:EmbalmerFacet",
            "label": "cursedBonds",
            "offset": 0,
            "slot": "5",
            "type": "t_mapping(t_address,t_uint256)"
          },
          {
            "astId": 2300,
            "contract": "contracts/facets/EmbalmerFacet.sol:EmbalmerFacet",
            "label": "archaeologistSuccesses",
            "offset": 0,
            "slot": "6",
            "type": "t_mapping(t_address,t_mapping(t_bytes32,t_bool))"
          },
          {
            "astId": 2305,
            "contract": "contracts/facets/EmbalmerFacet.sol:EmbalmerFacet",
            "label": "archaeologistCancels",
            "offset": 0,
            "slot": "7",
            "type": "t_mapping(t_address,t_array(t_bytes32)dyn_storage)"
          },
          {
            "astId": 2310,
            "contract": "contracts/facets/EmbalmerFacet.sol:EmbalmerFacet",
            "label": "archaeologistAccusals",
            "offset": 0,
            "slot": "8",
            "type": "t_mapping(t_address,t_array(t_bytes32)dyn_storage)"
          },
          {
            "astId": 2315,
            "contract": "contracts/facets/EmbalmerFacet.sol:EmbalmerFacet",
            "label": "archaeologistCleanups",
            "offset": 0,
            "slot": "9",
            "type": "t_mapping(t_address,t_array(t_bytes32)dyn_storage)"
          },
          {
            "astId": 2319,
            "contract": "contracts/facets/EmbalmerFacet.sol:EmbalmerFacet",
            "label": "archaeologistRewards",
            "offset": 0,
            "slot": "10",
            "type": "t_mapping(t_address,t_uint256)"
          },
          {
            "astId": 2324,
            "contract": "contracts/facets/EmbalmerFacet.sol:EmbalmerFacet",
            "label": "sarcophagi",
            "offset": 0,
            "slot": "11",
            "type": "t_mapping(t_bytes32,t_struct(Sarcophagus)1819_storage)"
          },
          {
            "astId": 2329,
            "contract": "contracts/facets/EmbalmerFacet.sol:EmbalmerFacet",
            "label": "embalmerSarcophagi",
            "offset": 0,
            "slot": "12",
            "type": "t_mapping(t_address,t_array(t_bytes32)dyn_storage)"
          },
          {
            "astId": 2334,
            "contract": "contracts/facets/EmbalmerFacet.sol:EmbalmerFacet",
            "label": "archaeologistSarcophagi",
            "offset": 0,
            "slot": "13",
            "type": "t_mapping(t_address,t_array(t_bytes32)dyn_storage)"
          },
          {
            "astId": 2339,
            "contract": "contracts/facets/EmbalmerFacet.sol:EmbalmerFacet",
            "label": "recipientSarcophagi",
            "offset": 0,
            "slot": "14",
            "type": "t_mapping(t_address,t_array(t_bytes32)dyn_storage)"
          },
          {
            "astId": 2343,
            "contract": "contracts/facets/EmbalmerFacet.sol:EmbalmerFacet",
            "label": "doubleHashedShardArchaeologists",
            "offset": 0,
            "slot": "15",
            "type": "t_mapping(t_bytes32,t_address)"
          },
          {
            "astId": 2350,
            "contract": "contracts/facets/EmbalmerFacet.sol:EmbalmerFacet",
            "label": "sarcophagusArchaeologists",
            "offset": 0,
            "slot": "16",
            "type": "t_mapping(t_bytes32,t_mapping(t_address,t_struct(ArchaeologistStorage)1791_storage))"
          }
        ],
        "numberOfBytes": "544"
      },
      "t_struct(ArchaeologistStorage)1791_storage": {
        "encoding": "inplace",
        "label": "struct LibTypes.ArchaeologistStorage",
        "members": [
          {
            "astId": 1784,
            "contract": "contracts/facets/EmbalmerFacet.sol:EmbalmerFacet",
            "label": "diggingFee",
            "offset": 0,
            "slot": "0",
            "type": "t_uint256"
          },
          {
            "astId": 1786,
            "contract": "contracts/facets/EmbalmerFacet.sol:EmbalmerFacet",
            "label": "bounty",
            "offset": 0,
            "slot": "1",
            "type": "t_uint256"
          },
          {
            "astId": 1788,
            "contract": "contracts/facets/EmbalmerFacet.sol:EmbalmerFacet",
            "label": "doubleHashedShard",
            "offset": 0,
            "slot": "2",
            "type": "t_bytes32"
          },
          {
            "astId": 1790,
            "contract": "contracts/facets/EmbalmerFacet.sol:EmbalmerFacet",
            "label": "unencryptedShard",
            "offset": 0,
            "slot": "3",
            "type": "t_bytes_storage"
          }
        ],
        "numberOfBytes": "128"
      },
      "t_struct(Sarcophagus)1819_storage": {
        "encoding": "inplace",
        "label": "struct LibTypes.Sarcophagus",
        "members": [
          {
            "astId": 1793,
            "contract": "contracts/facets/EmbalmerFacet.sol:EmbalmerFacet",
            "label": "name",
            "offset": 0,
            "slot": "0",
            "type": "t_string_storage"
          },
          {
            "astId": 1796,
            "contract": "contracts/facets/EmbalmerFacet.sol:EmbalmerFacet",
            "label": "state",
            "offset": 0,
            "slot": "1",
            "type": "t_enum(SarcophagusState)1755"
          },
          {
            "astId": 1798,
            "contract": "contracts/facets/EmbalmerFacet.sol:EmbalmerFacet",
            "label": "canBeTransferred",
            "offset": 1,
            "slot": "1",
            "type": "t_bool"
          },
          {
            "astId": 1800,
            "contract": "contracts/facets/EmbalmerFacet.sol:EmbalmerFacet",
            "label": "minShards",
            "offset": 2,
            "slot": "1",
            "type": "t_uint8"
          },
          {
            "astId": 1802,
            "contract": "contracts/facets/EmbalmerFacet.sol:EmbalmerFacet",
            "label": "resurrectionTime",
            "offset": 0,
            "slot": "2",
            "type": "t_uint256"
          },
          {
            "astId": 1804,
            "contract": "contracts/facets/EmbalmerFacet.sol:EmbalmerFacet",
            "label": "maxResurrectionInterval",
            "offset": 0,
            "slot": "3",
            "type": "t_uint256"
          },
          {
            "astId": 1807,
            "contract": "contracts/facets/EmbalmerFacet.sol:EmbalmerFacet",
            "label": "arweaveTxIds",
            "offset": 0,
            "slot": "4",
            "type": "t_array(t_string_storage)dyn_storage"
          },
          {
            "astId": 1809,
            "contract": "contracts/facets/EmbalmerFacet.sol:EmbalmerFacet",
            "label": "storageFee",
            "offset": 0,
            "slot": "5",
            "type": "t_uint256"
          },
          {
            "astId": 1811,
            "contract": "contracts/facets/EmbalmerFacet.sol:EmbalmerFacet",
            "label": "embalmer",
            "offset": 0,
            "slot": "6",
            "type": "t_address"
          },
          {
            "astId": 1813,
            "contract": "contracts/facets/EmbalmerFacet.sol:EmbalmerFacet",
            "label": "recipientAddress",
            "offset": 0,
            "slot": "7",
            "type": "t_address"
          },
          {
            "astId": 1815,
            "contract": "contracts/facets/EmbalmerFacet.sol:EmbalmerFacet",
            "label": "arweaveArchaeologist",
            "offset": 0,
            "slot": "8",
            "type": "t_address"
          },
          {
            "astId": 1818,
            "contract": "contracts/facets/EmbalmerFacet.sol:EmbalmerFacet",
            "label": "archaeologists",
            "offset": 0,
            "slot": "9",
            "type": "t_array(t_address)dyn_storage"
          }
        ],
        "numberOfBytes": "320"
      },
      "t_uint256": {
        "encoding": "inplace",
        "label": "uint256",
        "numberOfBytes": "32"
      },
      "t_uint8": {
        "encoding": "inplace",
        "label": "uint8",
        "numberOfBytes": "1"
      }
    }
  }
}