{
  "address": "0xAC7408d7480b778bf0003E0cCee0129934b6cC3a",
  "abi": [
    {
      "inputs": [
        {
          "internalType": "uint256",
          "name": "cursedBond",
          "type": "uint256"
        },
        {
          "internalType": "uint256",
          "name": "amount",
          "type": "uint256"
        }
      ],
      "name": "NotEnoughCursedBond",
      "type": "error"
    },
    {
      "inputs": [],
      "name": "NotEnoughProof",
      "type": "error"
    },
    {
      "inputs": [
        {
          "internalType": "bytes32",
          "name": "sarcoId",
          "type": "bytes32"
        }
      ],
      "name": "SarcophagusDoesNotExist",
      "type": "error"
    },
    {
      "inputs": [],
      "name": "SarcophagusIsUnwrappable",
      "type": "error"
    },
    {
      "inputs": [],
      "name": "SarcophagusNotCleanable",
      "type": "error"
    },
    {
      "anonymous": false,
      "inputs": [
        {
          "indexed": true,
          "internalType": "bytes32",
          "name": "sarcoId",
          "type": "bytes32"
        },
        {
          "indexed": true,
          "internalType": "address",
          "name": "accuser",
          "type": "address"
        },
        {
          "indexed": false,
          "internalType": "uint256",
          "name": "accuserBondReward",
          "type": "uint256"
        },
        {
          "indexed": false,
          "internalType": "uint256",
          "name": "embalmerBondReward",
          "type": "uint256"
        }
      ],
      "name": "AccuseArchaeologist",
      "type": "event"
    },
    {
      "anonymous": false,
      "inputs": [
        {
          "indexed": true,
          "internalType": "bytes32",
          "name": "sarcoId",
          "type": "bytes32"
        },
        {
          "indexed": true,
          "internalType": "address",
          "name": "cleaner",
          "type": "address"
        },
        {
          "indexed": false,
          "internalType": "uint256",
          "name": "cleanerBondReward",
          "type": "uint256"
        },
        {
          "indexed": false,
          "internalType": "uint256",
          "name": "embalmerBondReward",
          "type": "uint256"
        }
      ],
      "name": "CleanUpSarcophagus",
      "type": "event"
    },
    {
      "inputs": [
        {
          "internalType": "bytes32",
          "name": "sarcoId",
          "type": "bytes32"
        },
        {
          "internalType": "bytes32[]",
          "name": "unencryptedShardHashes",
          "type": "bytes32[]"
        },
        {
          "internalType": "address",
          "name": "paymentAddress",
          "type": "address"
        }
      ],
      "name": "accuse",
      "outputs": [],
      "stateMutability": "nonpayable",
      "type": "function"
    },
    {
      "inputs": [
        {
          "internalType": "bytes32",
          "name": "sarcoId",
          "type": "bytes32"
        },
        {
          "internalType": "address",
          "name": "paymentAddress",
          "type": "address"
        }
      ],
      "name": "clean",
      "outputs": [],
      "stateMutability": "nonpayable",
      "type": "function"
    }
  ],
  "args": [],
  "numDeployments": 1,
  "solcInputHash": "1bf053ca981c4b9e5393977a84534509",
  "bytecode": "0x608060405234801561001057600080fd5b5061166e806100206000396000f3fe608060405234801561001057600080fd5b50600436106100365760003560e01c80633f5e9d6c1461003b5780635c88a8e114610057575b600080fd5b61005560048036038101906100509190611108565b610073565b005b610071600480360381019061006c91906112a1565b610556565b005b600080600b0160008481526020019081526020016000209050600160028111156100a05761009f611310565b5b8160010160009054906101000a900460ff1660028111156100c4576100c3611310565b5b1461010657826040517f018da6880000000000000000000000000000000000000000000000000000000081526004016100fd919061134e565b60405180910390fd5b80600201546101188260020154610b3d565b61012291906113a2565b42101561015b576040517f57f122a100000000000000000000000000000000000000000000000000000000815260040160405180910390fd5b6000816009018054806020026020016040519081016040528092919081815260200182805480156101e157602002820191906000526020600020905b8160009054906101000a900473ffffffffffffffffffffffffffffffffffffffff1673ffffffffffffffffffffffffffffffffffffffff1681526020019060010190808311610197575b50505050509050600080600080600090505b84518110156104b85760008015156000600601600088858151811061021b5761021a6113f8565b5b602002602001015173ffffffffffffffffffffffffffffffffffffffff1673ffffffffffffffffffffffffffffffffffffffff16815260200190815260200160002060008b815260200190815260200160002060009054906101000a900460ff16151514905080156104a45760008060100160008b815260200190815260200160002060008885815181106102b3576102b26113f8565b5b602002602001015173ffffffffffffffffffffffffffffffffffffffff1673ffffffffffffffffffffffffffffffffffffffff16815260200190815260200160002060405180608001604052908160008201548152602001600182015481526020016002820154815260200160038201805461032e90611456565b80601f016020809104026020016040519081016040528092919081815260200182805461035a90611456565b80156103a75780601f1061037c576101008083540402835291602001916103a7565b820191906000526020600020905b81548152906001019060200180831161038a57829003601f168201915b50505050508152505090508060200151846103c291906113a2565b93508060000151856103d491906113a2565b945060006103ea82600001518360200151610b98565b905080876103f891906113a2565b965061041e8885815181106104105761040f6113f8565b5b602002602001015182610bae565b60006009016000898681518110610438576104376113f8565b5b602002602001015173ffffffffffffffffffffffffffffffffffffffff1673ffffffffffffffffffffffffffffffffffffffff1681526020019081526020016000208b908060018154018082558091505060019003906000526020600020016000909190919091505550505b5080806104b090611487565b9150506101f3565b506000806104c98888878787610ce0565b9150915060028760010160006101000a81548160ff021916908360028111156104f5576104f4611310565b5b02179055503373ffffffffffffffffffffffffffffffffffffffff16897f106e723534f3d39516c80d5e49eb5ac7788139c661267137c40382659d409fb984846040516105439291906114de565b60405180910390a3505050505050505050565b600080600b01600085815260200190815260200160002090506001600281111561058357610582611310565b5b8160010160009054906101000a900460ff1660028111156105a7576105a6611310565b5b146105e957836040517f018da6880000000000000000000000000000000000000000000000000000000081526004016105e0919061134e565b60405180910390fd5b4281600201541015610627576040517f8680d5de00000000000000000000000000000000000000000000000000000000815260040160405180910390fd5b8060010160029054906101000a900460ff1660ff1683511015610676576040517f2bb3a5a800000000000000000000000000000000000000000000000000000000815260040160405180910390fd5b6000835167ffffffffffffffff8111156106935761069261115e565b5b6040519080825280602002602001820160405280156106c15781602001602082028036833780820191505090505b50905060008060008060005b88518110156109195760008982815181106106eb576106ea6113f8565b5b6020026020010151604051602001610703919061134e565b604051602081830303815290604052805190602001209050600080600f01600083815260200190815260200160002060009054906101000a900473ffffffffffffffffffffffffffffffffffffffff16905060008060100160008e815260200190815260200160002060008373ffffffffffffffffffffffffffffffffffffffff1673ffffffffffffffffffffffffffffffffffffffff1681526020019081526020016000209050828160020154036108d157818986806107c390611487565b9750815181106107d6576107d56113f8565b5b602002602001019073ffffffffffffffffffffffffffffffffffffffff16908173ffffffffffffffffffffffffffffffffffffffff1681525050600061082482600001548360010154610b98565b905081600001548961083691906113a2565b985081600101548861084891906113a2565b9750808761085691906113a2565b96506108628382610bae565b600060080160008473ffffffffffffffffffffffffffffffffffffffff1673ffffffffffffffffffffffffffffffffffffffff1681526020019081526020016000208e908060018154018082558091505060019003906000526020600020016000909190919091505550610903565b6040517f2bb3a5a800000000000000000000000000000000000000000000000000000000815260040160405180910390fd5b505050808061091190611487565b9150506106cd565b50600080600b0160008b81526020019081526020016000206009018054806020026020016040519081016040528092919081815260200182805480156109b457602002820191906000526020600020905b8160009054906101000a900473ffffffffffffffffffffffffffffffffffffffff1673ffffffffffffffffffffffffffffffffffffffff168152602001906001019080831161096a575b5050505050905060005b8151811015610a9c5760006001905060005b8851811015610a5c578881815181106109ec576109eb6113f8565b5b602002602001015173ffffffffffffffffffffffffffffffffffffffff16848481518110610a1d57610a1c6113f8565b5b602002602001015173ffffffffffffffffffffffffffffffffffffffff1603610a495760009150610a5c565b8080610a5490611487565b9150506109d0565b508015610a8857610a878c848481518110610a7a57610a796113f8565b5b6020026020010151610e96565b5b508080610a9490611487565b9150506109be565b50600080610aad8a8a878a8a610ce0565b9150915060028960010160006101000a81548160ff02191690836002811115610ad957610ad8611310565b5b02179055503373ffffffffffffffffffffffffffffffffffffffff168c7f6cee286923fc4de6af78ba8b06ff9f4236e5aad4282a5e13a3cea8446c803fd48484604051610b279291906114de565b60405180910390a3505050505050505050505050565b600080610708905060006064428511610b61578442610b5c9190611507565b610b6e565b4285610b6d9190611507565b5b610b78919061156a565b90508161ffff16811015610b8e578161ffff1690505b8092505050919050565b60008183610ba691906113a2565b905092915050565b6000610bb8610fda565b90508060050160008473ffffffffffffffffffffffffffffffffffffffff1673ffffffffffffffffffffffffffffffffffffffff16815260200190815260200160002054821115610c83578060050160008473ffffffffffffffffffffffffffffffffffffffff1673ffffffffffffffffffffffffffffffffffffffff16815260200190815260200160002054826040517faf5a111b000000000000000000000000000000000000000000000000000000008152600401610c7a9291906114de565b60405180910390fd5b818160050160008573ffffffffffffffffffffffffffffffffffffffff1673ffffffffffffffffffffffffffffffffffffffff1681526020019081526020016000206000828254610cd49190611507565b92505081905550505050565b6000806000600286610cf2919061156a565b905060008187610d029190611507565b90506000800160009054906101000a900473ffffffffffffffffffffffffffffffffffffffff1673ffffffffffffffffffffffffffffffffffffffff1663a9059cbb8960060160009054906101000a900473ffffffffffffffffffffffffffffffffffffffff16848989610d7691906113a2565b610d8091906113a2565b6040518363ffffffff1660e01b8152600401610d9d9291906115aa565b6020604051808303816000875af1158015610dbc573d6000803e3d6000fd5b505050506040513d601f19601f82011682018060405250810190610de0919061160b565b506000800160009054906101000a900473ffffffffffffffffffffffffffffffffffffffff1673ffffffffffffffffffffffffffffffffffffffff1663a9059cbb8a836040518363ffffffff1660e01b8152600401610e409291906115aa565b6020604051808303816000875af1158015610e5f573d6000803e3d6000fd5b505050506040513d601f19601f82011682018060405250810190610e83919061160b565b5080829350935050509550959350505050565b6000610ea0610fda565b9050600081601001600085815260200190815260200160002060008473ffffffffffffffffffffffffffffffffffffffff1673ffffffffffffffffffffffffffffffffffffffff168152602001908152602001600020604051806080016040529081600082015481526020016001820154815260200160028201548152602001600382018054610f2f90611456565b80601f0160208091040260200160405190810160405280929190818152602001828054610f5b90611456565b8015610fa85780601f10610f7d57610100808354040283529160200191610fa8565b820191906000526020600020905b815481529060010190602001808311610f8b57829003601f168201915b50505050508152505090506000610fc782600001518360200151610b98565b9050610fd38482610fdf565b5050505050565b600090565b610fe98282610bae565b610ff38282610ff7565b5050565b6000611001610fda565b9050818160040160008573ffffffffffffffffffffffffffffffffffffffff1673ffffffffffffffffffffffffffffffffffffffff168152602001908152602001600020600082825461105491906113a2565b92505081905550505050565b6000604051905090565b600080fd5b600080fd5b6000819050919050565b61108781611074565b811461109257600080fd5b50565b6000813590506110a48161107e565b92915050565b600073ffffffffffffffffffffffffffffffffffffffff82169050919050565b60006110d5826110aa565b9050919050565b6110e5816110ca565b81146110f057600080fd5b50565b600081359050611102816110dc565b92915050565b6000806040838503121561111f5761111e61106a565b5b600061112d85828601611095565b925050602061113e858286016110f3565b9150509250929050565b600080fd5b6000601f19601f8301169050919050565b7f4e487b7100000000000000000000000000000000000000000000000000000000600052604160045260246000fd5b6111968261114d565b810181811067ffffffffffffffff821117156111b5576111b461115e565b5b80604052505050565b60006111c8611060565b90506111d4828261118d565b919050565b600067ffffffffffffffff8211156111f4576111f361115e565b5b602082029050602081019050919050565b600080fd5b600061121d611218846111d9565b6111be565b905080838252602082019050602084028301858111156112405761123f611205565b5b835b8181101561126957806112558882611095565b845260208401935050602081019050611242565b5050509392505050565b600082601f83011261128857611287611148565b5b813561129884826020860161120a565b91505092915050565b6000806000606084860312156112ba576112b961106a565b5b60006112c886828701611095565b935050602084013567ffffffffffffffff8111156112e9576112e861106f565b5b6112f586828701611273565b9250506040611306868287016110f3565b9150509250925092565b7f4e487b7100000000000000000000000000000000000000000000000000000000600052602160045260246000fd5b61134881611074565b82525050565b6000602082019050611363600083018461133f565b92915050565b6000819050919050565b7f4e487b7100000000000000000000000000000000000000000000000000000000600052601160045260246000fd5b60006113ad82611369565b91506113b883611369565b9250827fffffffffffffffffffffffffffffffffffffffffffffffffffffffffffffffff038211156113ed576113ec611373565b5b828201905092915050565b7f4e487b7100000000000000000000000000000000000000000000000000000000600052603260045260246000fd5b7f4e487b7100000000000000000000000000000000000000000000000000000000600052602260045260246000fd5b6000600282049050600182168061146e57607f821691505b60208210810361148157611480611427565b5b50919050565b600061149282611369565b91507fffffffffffffffffffffffffffffffffffffffffffffffffffffffffffffffff82036114c4576114c3611373565b5b600182019050919050565b6114d881611369565b82525050565b60006040820190506114f360008301856114cf565b61150060208301846114cf565b9392505050565b600061151282611369565b915061151d83611369565b9250828210156115305761152f611373565b5b828203905092915050565b7f4e487b7100000000000000000000000000000000000000000000000000000000600052601260045260246000fd5b600061157582611369565b915061158083611369565b9250826115905761158f61153b565b5b828204905092915050565b6115a4816110ca565b82525050565b60006040820190506115bf600083018561159b565b6115cc60208301846114cf565b9392505050565b60008115159050919050565b6115e8816115d3565b81146115f357600080fd5b50565b600081519050611605816115df565b92915050565b6000602082840312156116215761162061106a565b5b600061162f848285016115f6565b9150509291505056fea26469706673582212205f2131a7fed5e939c3a3341f2234d90dfcd197d00ffdc72126c69f808baa634064736f6c634300080d0033",
  "devdoc": {
    "kind": "dev",
    "methods": {
      "accuse(bytes32,bytes32[],address)": {
        "params": {
          "paymentAddress": "the address to which rewards should be sent if successful",
          "sarcoId": "The identifier of the sarcophagus having leaked shards",
          "unencryptedShardHashes": "At least 'm' unencrypted shard hashes as proof of bad behaviour"
        }
      },
      "clean(bytes32,address)": {
        "params": {
          "paymentAddress": "The address to which rewards will be sent",
          "sarcoId": "The identifier of the sarcophagus to clean"
        }
      }
    },
    "version": 1
  },
  "userdoc": {
    "kind": "user",
    "methods": {
      "accuse(bytes32,bytes32[],address)": {
        "notice": "Accuse archaeologoists of bad behaviour, by providing proof of leaked unencrypted shards before a sarcophagus is ready to be unwrapped. The minumum number of shards required to unwrap the sarcophagus should be provided for a a successful accusal. of the cursed bonds of the archs back to them, and un-curses their bonds."
      },
      "clean(bytes32,address)": {
        "notice": "Close a sarcophagus that has not been unwrapped before its resurrection window is passed"
      }
    },
    "version": 1
  },
  "storageLayout": {
    "storage": [
      {
        "astId": 92,
        "contract": "contracts/facets/ThirdPartyFacet.sol:ThirdPartyFacet",
        "label": "s",
        "offset": 0,
        "slot": "0",
        "type": "t_struct(AppStorage)1932_storage"
      }
    ],
    "types": {
      "t_address": {
        "encoding": "inplace",
        "label": "address",
        "numberOfBytes": "20"
      },
      "t_array(t_address)dyn_storage": {
        "base": "t_address",
        "encoding": "dynamic_array",
        "label": "address[]",
        "numberOfBytes": "32"
      },
      "t_array(t_bytes32)dyn_storage": {
        "base": "t_bytes32",
        "encoding": "dynamic_array",
        "label": "bytes32[]",
        "numberOfBytes": "32"
      },
      "t_array(t_string_storage)dyn_storage": {
        "base": "t_string_storage",
        "encoding": "dynamic_array",
        "label": "string[]",
        "numberOfBytes": "32"
      },
      "t_bool": {
        "encoding": "inplace",
        "label": "bool",
        "numberOfBytes": "1"
      },
      "t_bytes32": {
        "encoding": "inplace",
        "label": "bytes32",
        "numberOfBytes": "32"
      },
      "t_bytes_storage": {
        "encoding": "bytes",
        "label": "bytes",
        "numberOfBytes": "32"
      },
      "t_contract(IERC20)77": {
        "encoding": "inplace",
        "label": "contract IERC20",
        "numberOfBytes": "20"
      },
      "t_enum(SarcophagusState)1336": {
        "encoding": "inplace",
        "label": "enum LibTypes.SarcophagusState",
        "numberOfBytes": "1"
      },
      "t_mapping(t_address,t_array(t_bytes32)dyn_storage)": {
        "encoding": "mapping",
        "key": "t_address",
        "label": "mapping(address => bytes32[])",
        "numberOfBytes": "32",
        "value": "t_array(t_bytes32)dyn_storage"
      },
      "t_mapping(t_address,t_mapping(t_bytes32,t_bool))": {
        "encoding": "mapping",
        "key": "t_address",
        "label": "mapping(address => mapping(bytes32 => bool))",
        "numberOfBytes": "32",
        "value": "t_mapping(t_bytes32,t_bool)"
      },
      "t_mapping(t_address,t_struct(ArchaeologistStorage)1372_storage)": {
        "encoding": "mapping",
        "key": "t_address",
        "label": "mapping(address => struct LibTypes.ArchaeologistStorage)",
        "numberOfBytes": "32",
        "value": "t_struct(ArchaeologistStorage)1372_storage"
      },
      "t_mapping(t_address,t_uint256)": {
        "encoding": "mapping",
        "key": "t_address",
        "label": "mapping(address => uint256)",
        "numberOfBytes": "32",
        "value": "t_uint256"
      },
      "t_mapping(t_bytes32,t_address)": {
        "encoding": "mapping",
        "key": "t_bytes32",
        "label": "mapping(bytes32 => address)",
        "numberOfBytes": "32",
        "value": "t_address"
      },
      "t_mapping(t_bytes32,t_bool)": {
        "encoding": "mapping",
        "key": "t_bytes32",
        "label": "mapping(bytes32 => bool)",
        "numberOfBytes": "32",
        "value": "t_bool"
      },
      "t_mapping(t_bytes32,t_mapping(t_address,t_struct(ArchaeologistStorage)1372_storage))": {
        "encoding": "mapping",
        "key": "t_bytes32",
        "label": "mapping(bytes32 => mapping(address => struct LibTypes.ArchaeologistStorage))",
        "numberOfBytes": "32",
        "value": "t_mapping(t_address,t_struct(ArchaeologistStorage)1372_storage)"
      },
      "t_mapping(t_bytes32,t_struct(Sarcophagus)1400_storage)": {
        "encoding": "mapping",
        "key": "t_bytes32",
        "label": "mapping(bytes32 => struct LibTypes.Sarcophagus)",
        "numberOfBytes": "32",
        "value": "t_struct(Sarcophagus)1400_storage"
      },
      "t_string_storage": {
        "encoding": "bytes",
        "label": "string",
        "numberOfBytes": "32"
      },
      "t_struct(AppStorage)1932_storage": {
        "encoding": "inplace",
        "label": "struct AppStorage",
        "members": [
          {
            "astId": 1860,
            "contract": "contracts/facets/ThirdPartyFacet.sol:ThirdPartyFacet",
            "label": "sarcoToken",
            "offset": 0,
            "slot": "0",
            "type": "t_contract(IERC20)77"
          },
          {
            "astId": 1862,
            "contract": "contracts/facets/ThirdPartyFacet.sol:ThirdPartyFacet",
            "label": "protocolFee",
            "offset": 0,
            "slot": "1",
            "type": "t_uint256"
          },
          {
            "astId": 1864,
            "contract": "contracts/facets/ThirdPartyFacet.sol:ThirdPartyFacet",
            "label": "totalProtocolFees",
            "offset": 0,
            "slot": "2",
            "type": "t_uint256"
          },
          {
            "astId": 1867,
            "contract": "contracts/facets/ThirdPartyFacet.sol:ThirdPartyFacet",
            "label": "sarcophagusIdentifiers",
            "offset": 0,
            "slot": "3",
            "type": "t_array(t_bytes32)dyn_storage"
          },
          {
            "astId": 1871,
            "contract": "contracts/facets/ThirdPartyFacet.sol:ThirdPartyFacet",
            "label": "freeBonds",
            "offset": 0,
            "slot": "4",
            "type": "t_mapping(t_address,t_uint256)"
          },
          {
            "astId": 1875,
            "contract": "contracts/facets/ThirdPartyFacet.sol:ThirdPartyFacet",
            "label": "cursedBonds",
            "offset": 0,
            "slot": "5",
            "type": "t_mapping(t_address,t_uint256)"
          },
          {
            "astId": 1881,
            "contract": "contracts/facets/ThirdPartyFacet.sol:ThirdPartyFacet",
            "label": "archaeologistSuccesses",
            "offset": 0,
            "slot": "6",
            "type": "t_mapping(t_address,t_mapping(t_bytes32,t_bool))"
          },
          {
            "astId": 1886,
            "contract": "contracts/facets/ThirdPartyFacet.sol:ThirdPartyFacet",
            "label": "archaeologistCancels",
            "offset": 0,
            "slot": "7",
            "type": "t_mapping(t_address,t_array(t_bytes32)dyn_storage)"
          },
          {
            "astId": 1891,
            "contract": "contracts/facets/ThirdPartyFacet.sol:ThirdPartyFacet",
            "label": "archaeologistAccusals",
            "offset": 0,
            "slot": "8",
            "type": "t_mapping(t_address,t_array(t_bytes32)dyn_storage)"
          },
          {
            "astId": 1896,
            "contract": "contracts/facets/ThirdPartyFacet.sol:ThirdPartyFacet",
            "label": "archaeologistCleanups",
            "offset": 0,
            "slot": "9",
            "type": "t_mapping(t_address,t_array(t_bytes32)dyn_storage)"
          },
          {
            "astId": 1900,
            "contract": "contracts/facets/ThirdPartyFacet.sol:ThirdPartyFacet",
            "label": "archaeologistRewards",
            "offset": 0,
            "slot": "10",
            "type": "t_mapping(t_address,t_uint256)"
          },
          {
            "astId": 1905,
            "contract": "contracts/facets/ThirdPartyFacet.sol:ThirdPartyFacet",
            "label": "sarcophagi",
            "offset": 0,
            "slot": "11",
            "type": "t_mapping(t_bytes32,t_struct(Sarcophagus)1400_storage)"
          },
          {
            "astId": 1910,
            "contract": "contracts/facets/ThirdPartyFacet.sol:ThirdPartyFacet",
            "label": "embalmerSarcophagi",
            "offset": 0,
            "slot": "12",
            "type": "t_mapping(t_address,t_array(t_bytes32)dyn_storage)"
          },
          {
            "astId": 1915,
            "contract": "contracts/facets/ThirdPartyFacet.sol:ThirdPartyFacet",
            "label": "archaeologistSarcophagi",
            "offset": 0,
            "slot": "13",
            "type": "t_mapping(t_address,t_array(t_bytes32)dyn_storage)"
          },
          {
            "astId": 1920,
            "contract": "contracts/facets/ThirdPartyFacet.sol:ThirdPartyFacet",
            "label": "recipientSarcophagi",
            "offset": 0,
            "slot": "14",
            "type": "t_mapping(t_address,t_array(t_bytes32)dyn_storage)"
          },
          {
            "astId": 1924,
            "contract": "contracts/facets/ThirdPartyFacet.sol:ThirdPartyFacet",
            "label": "doubleHashedShardArchaeologists",
            "offset": 0,
            "slot": "15",
            "type": "t_mapping(t_bytes32,t_address)"
          },
          {
            "astId": 1931,
            "contract": "contracts/facets/ThirdPartyFacet.sol:ThirdPartyFacet",
            "label": "sarcophagusArchaeologists",
            "offset": 0,
            "slot": "16",
            "type": "t_mapping(t_bytes32,t_mapping(t_address,t_struct(ArchaeologistStorage)1372_storage))"
          }
        ],
        "numberOfBytes": "544"
      },
      "t_struct(ArchaeologistStorage)1372_storage": {
        "encoding": "inplace",
        "label": "struct LibTypes.ArchaeologistStorage",
        "members": [
          {
            "astId": 1365,
            "contract": "contracts/facets/ThirdPartyFacet.sol:ThirdPartyFacet",
            "label": "diggingFee",
            "offset": 0,
            "slot": "0",
            "type": "t_uint256"
          },
          {
            "astId": 1367,
            "contract": "contracts/facets/ThirdPartyFacet.sol:ThirdPartyFacet",
            "label": "bounty",
            "offset": 0,
            "slot": "1",
            "type": "t_uint256"
          },
          {
            "astId": 1369,
            "contract": "contracts/facets/ThirdPartyFacet.sol:ThirdPartyFacet",
            "label": "doubleHashedShard",
            "offset": 0,
            "slot": "2",
            "type": "t_bytes32"
          },
          {
            "astId": 1371,
            "contract": "contracts/facets/ThirdPartyFacet.sol:ThirdPartyFacet",
            "label": "unencryptedShard",
            "offset": 0,
            "slot": "3",
            "type": "t_bytes_storage"
          }
        ],
        "numberOfBytes": "128"
      },
      "t_struct(Sarcophagus)1400_storage": {
        "encoding": "inplace",
        "label": "struct LibTypes.Sarcophagus",
        "members": [
          {
            "astId": 1374,
            "contract": "contracts/facets/ThirdPartyFacet.sol:ThirdPartyFacet",
            "label": "name",
            "offset": 0,
            "slot": "0",
            "type": "t_string_storage"
          },
          {
            "astId": 1377,
            "contract": "contracts/facets/ThirdPartyFacet.sol:ThirdPartyFacet",
            "label": "state",
            "offset": 0,
            "slot": "1",
            "type": "t_enum(SarcophagusState)1336"
          },
          {
            "astId": 1379,
            "contract": "contracts/facets/ThirdPartyFacet.sol:ThirdPartyFacet",
            "label": "canBeTransferred",
            "offset": 1,
            "slot": "1",
            "type": "t_bool"
          },
          {
            "astId": 1381,
            "contract": "contracts/facets/ThirdPartyFacet.sol:ThirdPartyFacet",
            "label": "minShards",
            "offset": 2,
            "slot": "1",
            "type": "t_uint8"
          },
          {
            "astId": 1383,
            "contract": "contracts/facets/ThirdPartyFacet.sol:ThirdPartyFacet",
            "label": "resurrectionTime",
            "offset": 0,
            "slot": "2",
            "type": "t_uint256"
          },
          {
            "astId": 1385,
            "contract": "contracts/facets/ThirdPartyFacet.sol:ThirdPartyFacet",
            "label": "maxResurrectionInterval",
            "offset": 0,
            "slot": "3",
            "type": "t_uint256"
          },
          {
            "astId": 1388,
            "contract": "contracts/facets/ThirdPartyFacet.sol:ThirdPartyFacet",
            "label": "arweaveTxIds",
            "offset": 0,
            "slot": "4",
            "type": "t_array(t_string_storage)dyn_storage"
          },
          {
            "astId": 1390,
            "contract": "contracts/facets/ThirdPartyFacet.sol:ThirdPartyFacet",
            "label": "storageFee",
            "offset": 0,
            "slot": "5",
            "type": "t_uint256"
          },
          {
            "astId": 1392,
            "contract": "contracts/facets/ThirdPartyFacet.sol:ThirdPartyFacet",
            "label": "embalmer",
            "offset": 0,
            "slot": "6",
            "type": "t_address"
          },
          {
            "astId": 1394,
            "contract": "contracts/facets/ThirdPartyFacet.sol:ThirdPartyFacet",
            "label": "recipientAddress",
            "offset": 0,
            "slot": "7",
            "type": "t_address"
          },
          {
            "astId": 1396,
            "contract": "contracts/facets/ThirdPartyFacet.sol:ThirdPartyFacet",
            "label": "arweaveArchaeologist",
            "offset": 0,
            "slot": "8",
            "type": "t_address"
          },
          {
            "astId": 1399,
            "contract": "contracts/facets/ThirdPartyFacet.sol:ThirdPartyFacet",
            "label": "archaeologists",
            "offset": 0,
            "slot": "9",
            "type": "t_array(t_address)dyn_storage"
          }
        ],
        "numberOfBytes": "320"
      },
      "t_uint256": {
        "encoding": "inplace",
        "label": "uint256",
        "numberOfBytes": "32"
      },
      "t_uint8": {
        "encoding": "inplace",
        "label": "uint8",
        "numberOfBytes": "1"
      }
    }
  }
}