{
  "address": "0x89ccfc59F7Cde9aEfeb7143dcb8430D95b764b26",
  "abi": [
    {
      "inputs": [
        {
          "internalType": "uint256",
          "name": "embalmerClaimWindow",
          "type": "uint256"
        }
      ],
      "name": "setEmbalmerClaimWindow",
      "outputs": [],
      "stateMutability": "nonpayable",
      "type": "function"
    },
    {
      "inputs": [
        {
          "internalType": "uint256",
          "name": "expirationThreshold",
          "type": "uint256"
        }
      ],
      "name": "setExpirationThreshold",
      "outputs": [],
      "stateMutability": "nonpayable",
      "type": "function"
    },
    {
      "inputs": [
        {
          "internalType": "uint256",
          "name": "gracePeriod",
          "type": "uint256"
        }
      ],
      "name": "setGracePeriod",
      "outputs": [],
      "stateMutability": "nonpayable",
      "type": "function"
    },
    {
      "inputs": [
        {
          "internalType": "uint256",
          "name": "protocolFeeBasePercentage",
          "type": "uint256"
        }
      ],
      "name": "setProtocolFeeBasePercentage",
      "outputs": [],
      "stateMutability": "nonpayable",
      "type": "function"
    },
    {
      "inputs": [],
      "name": "withdrawProtocolFees",
      "outputs": [],
      "stateMutability": "nonpayable",
      "type": "function"
    }
  ],
  "transactionHash": "0xb05ea185c029610dd39929557d59833417212e623d4e076c078844679db8e6b5",
  "args": [],
  "numDeployments": 1,
  "solcInputHash": "9b1a1cbc137d98a70bc447679d5e9b0d",
  "bytecode": "0x608060405234801561001057600080fd5b5061053c806100206000396000f3fe608060405234801561001057600080fd5b50600436106100575760003560e01c8063274f255e1461005c5780638795cccb146100785780638a5b569014610082578063a828c4791461009e578063f2f65960146100ba575b600080fd5b61007660048036038101906100719190610358565b6100d6565b005b6100806100f7565b005b61009c60048036038101906100979190610358565b6101c5565b005b6100b860048036038101906100b39190610358565b6101e6565b005b6100d460048036038101906100cf9190610358565b610207565b005b60006100e0610228565b90506100ea610255565b8181600501819055505050565b6000610101610228565b905061010b610255565b600081600101549050600082600101819055508160000160009054906101000a900473ffffffffffffffffffffffffffffffffffffffff1673ffffffffffffffffffffffffffffffffffffffff1663a9059cbb33836040518363ffffffff1660e01b815260040161017d9291906103d5565b6020604051808303816000875af115801561019c573d6000803e3d6000fd5b505050506040513d601f19601f820116820180604052508101906101c09190610436565b505050565b60006101cf610228565b90506101d9610255565b8181600201819055505050565b60006101f0610228565b90506101fa610255565b8181600401819055505050565b6000610211610228565b905061021b610255565b8181600301819055505050565b6000807fe7e19c3fbf84f26ac171b2009b923863c68cc47279d5c6e6a019ce74e2daf4f490508091505090565b61025d6102f0565b60040160009054906101000a900473ffffffffffffffffffffffffffffffffffffffff1673ffffffffffffffffffffffffffffffffffffffff163373ffffffffffffffffffffffffffffffffffffffff16146102ee576040517f08c379a00000000000000000000000000000000000000000000000000000000081526004016102e5906104e6565b60405180910390fd5b565b6000807fc8fcad8db84d3cc18b4c41d551ea0ee66dd599cde068d998e57d5e09332c131c90508091505090565b600080fd5b6000819050919050565b61033581610322565b811461034057600080fd5b50565b6000813590506103528161032c565b92915050565b60006020828403121561036e5761036d61031d565b5b600061037c84828501610343565b91505092915050565b600073ffffffffffffffffffffffffffffffffffffffff82169050919050565b60006103b082610385565b9050919050565b6103c0816103a5565b82525050565b6103cf81610322565b82525050565b60006040820190506103ea60008301856103b7565b6103f760208301846103c6565b9392505050565b60008115159050919050565b610413816103fe565b811461041e57600080fd5b50565b6000815190506104308161040a565b92915050565b60006020828403121561044c5761044b61031d565b5b600061045a84828501610421565b91505092915050565b600082825260208201905092915050565b7f4c69624469616d6f6e643a204d75737420626520636f6e7472616374206f776e60008201527f6572000000000000000000000000000000000000000000000000000000000000602082015250565b60006104d0602283610463565b91506104db82610474565b604082019050919050565b600060208201905081810360008301526104ff816104c3565b905091905056fea26469706673582212208e295684db341b9fb4aff68bfacc75e94e7062dedc4004e7ccef74feee14927164736f6c634300080d0033",
  "devdoc": {
    "kind": "dev",
    "methods": {
      "setEmbalmerClaimWindow(uint256)": {
        "details": "Can only be called by the diamond owner.",
        "params": {
          "embalmerClaimWindow": "to set"
        }
      },
      "setExpirationThreshold(uint256)": {
        "details": "Can only be called by the diamond owner.",
        "params": {
          "expirationThreshold": "to set"
        }
      },
      "setGracePeriod(uint256)": {
        "details": "Can only be called by the diamond owner.",
        "params": {
          "gracePeriod": "to set"
        }
      },
      "setProtocolFeeBasePercentage(uint256)": {
        "details": "Can only be called by the owner.",
        "params": {
          "protocolFeeBasePercentage": "percentage to set"
        }
      },
      "withdrawProtocolFees()": {
        "details": "Can only be called by the owner."
      }
    },
    "version": 1
  },
  "userdoc": {
    "kind": "user",
    "methods": {
      "setEmbalmerClaimWindow(uint256)": {
        "notice": "Updates the embalmerClaimWindow"
      },
      "setExpirationThreshold(uint256)": {
        "notice": "Updates the expirationThreshold used during sarcophagus creation"
      },
      "setGracePeriod(uint256)": {
        "notice": "Updates the resurrection grace period"
      },
      "setProtocolFeeBasePercentage(uint256)": {
        "notice": "Sets the protocol fee base percentage, used to calculate protocol fees"
      },
      "withdrawProtocolFees()": {
        "notice": "Withdraws the total protocol fee amount from the contract."
      }
    },
    "version": 1
  },
  "storageLayout": {
    "storage": [],
    "types": null
  }
}