{
  "address": "0x7910094ebA694852c8664F135B7330ecE38b3d70",
  "abi": [
    {
      "inputs": [
        {
          "internalType": "uint256",
          "name": "cursedBondPercentage",
          "type": "uint256"
        }
      ],
      "name": "setCursedBondPercentage",
      "outputs": [],
      "stateMutability": "nonpayable",
      "type": "function"
    },
    {
      "inputs": [
        {
          "internalType": "uint256",
          "name": "embalmerClaimWindow",
          "type": "uint256"
        }
      ],
      "name": "setEmbalmerClaimWindow",
      "outputs": [],
      "stateMutability": "nonpayable",
      "type": "function"
    },
    {
      "inputs": [
        {
          "internalType": "uint256",
          "name": "expirationThreshold",
          "type": "uint256"
        }
      ],
      "name": "setExpirationThreshold",
      "outputs": [],
      "stateMutability": "nonpayable",
      "type": "function"
    },
    {
      "inputs": [
        {
          "internalType": "uint256",
          "name": "gracePeriod",
          "type": "uint256"
        }
      ],
      "name": "setGracePeriod",
      "outputs": [],
      "stateMutability": "nonpayable",
      "type": "function"
    },
    {
      "inputs": [
        {
          "internalType": "uint256",
          "name": "protocolFeeBasePercentage",
          "type": "uint256"
        }
      ],
      "name": "setProtocolFeeBasePercentage",
      "outputs": [],
      "stateMutability": "nonpayable",
      "type": "function"
    },
    {
      "inputs": [],
      "name": "withdrawProtocolFees",
      "outputs": [],
      "stateMutability": "nonpayable",
      "type": "function"
    }
  ],
  "transactionHash": "0xda01583673fa7c6d3fb22371ce1da018c0117472e8f7263e2431fc54aaeeea2f",
  "args": [],
  "numDeployments": 2,
  "solcInputHash": "02cdb842f5b9caff3fd1c503289458b6",
  "bytecode": "0x608060405234801561001057600080fd5b50610584806100206000396000f3fe608060405234801561001057600080fd5b50600436106100625760003560e01c8063274f255e146100675780636430ae6a146100835780638795cccb1461009f5780638a5b5690146100a9578063a828c479146100c5578063f2f65960146100e1575b600080fd5b610081600480360381019061007c91906103a0565b6100fd565b005b61009d600480360381019061009891906103a0565b61011e565b005b6100a761013f565b005b6100c360048036038101906100be91906103a0565b61020d565b005b6100df60048036038101906100da91906103a0565b61022e565b005b6100fb60048036038101906100f691906103a0565b61024f565b005b6000610107610270565b905061011161029d565b8181600601819055505050565b6000610128610270565b905061013261029d565b8181600301819055505050565b6000610149610270565b905061015361029d565b600081600101549050600082600101819055508160000160009054906101000a900473ffffffffffffffffffffffffffffffffffffffff1673ffffffffffffffffffffffffffffffffffffffff1663a9059cbb33836040518363ffffffff1660e01b81526004016101c592919061041d565b6020604051808303816000875af11580156101e4573d6000803e3d6000fd5b505050506040513d601f19601f82011682018060405250810190610208919061047e565b505050565b6000610217610270565b905061022161029d565b8181600201819055505050565b6000610238610270565b905061024261029d565b8181600501819055505050565b6000610259610270565b905061026361029d565b8181600401819055505050565b6000807f2319d9fa277d38834e73ba5e2482efd90323373359a32bb0c96b78353987994190508091505090565b6102a5610338565b60040160009054906101000a900473ffffffffffffffffffffffffffffffffffffffff1673ffffffffffffffffffffffffffffffffffffffff163373ffffffffffffffffffffffffffffffffffffffff1614610336576040517f08c379a000000000000000000000000000000000000000000000000000000000815260040161032d9061052e565b60405180910390fd5b565b6000807fc8fcad8db84d3cc18b4c41d551ea0ee66dd599cde068d998e57d5e09332c131c90508091505090565b600080fd5b6000819050919050565b61037d8161036a565b811461038857600080fd5b50565b60008135905061039a81610374565b92915050565b6000602082840312156103b6576103b5610365565b5b60006103c48482850161038b565b91505092915050565b600073ffffffffffffffffffffffffffffffffffffffff82169050919050565b60006103f8826103cd565b9050919050565b610408816103ed565b82525050565b6104178161036a565b82525050565b600060408201905061043260008301856103ff565b61043f602083018461040e565b9392505050565b60008115159050919050565b61045b81610446565b811461046657600080fd5b50565b60008151905061047881610452565b92915050565b60006020828403121561049457610493610365565b5b60006104a284828501610469565b91505092915050565b600082825260208201905092915050565b7f4c69624469616d6f6e643a204d75737420626520636f6e7472616374206f776e60008201527f6572000000000000000000000000000000000000000000000000000000000000602082015250565b60006105186022836104ab565b9150610523826104bc565b604082019050919050565b600060208201905081810360008301526105478161050b565b905091905056fea264697066735822122037c05b32196d6ff75c2199866a36b601d5afc8cb7c6a0c35422d44e58b54061b64736f6c634300080d0033",
  "devdoc": {
    "kind": "dev",
    "methods": {
      "setCursedBondPercentage(uint256)": {
        "details": "Can only be called by the owner.",
        "params": {
          "cursedBondPercentage": "ratio to set."
        }
      },
      "setEmbalmerClaimWindow(uint256)": {
        "details": "Can only be called by the diamond owner.",
        "params": {
          "embalmerClaimWindow": "to set"
        }
      },
      "setExpirationThreshold(uint256)": {
        "details": "Can only be called by the diamond owner.",
        "params": {
          "expirationThreshold": "to set"
        }
      },
      "setGracePeriod(uint256)": {
        "details": "Can only be called by the diamond owner.",
        "params": {
          "gracePeriod": "to set"
        }
      },
      "setProtocolFeeBasePercentage(uint256)": {
        "details": "Can only be called by the owner.",
        "params": {
          "protocolFeeBasePercentage": "percentage to set"
        }
      },
      "withdrawProtocolFees()": {
        "details": "Can only be called by the owner."
      }
    },
    "version": 1
  },
  "userdoc": {
    "kind": "user",
    "methods": {
      "setCursedBondPercentage(uint256)": {
        "notice": "Sets the digging fee / cursed bond ratio used to calculate how much bond archaeologists must lock per curse."
      },
      "setEmbalmerClaimWindow(uint256)": {
        "notice": "Updates the embalmerClaimWindow"
      },
      "setExpirationThreshold(uint256)": {
        "notice": "Updates the expirationThreshold used during sarcophagus creation"
      },
      "setGracePeriod(uint256)": {
        "notice": "Updates the resurrection grace period"
      },
      "setProtocolFeeBasePercentage(uint256)": {
        "notice": "Sets the protocol fee base percentage, used to calculate protocol fees"
      },
      "withdrawProtocolFees()": {
        "notice": "Withdraws the total protocol fee amount from the contract."
      }
    },
    "version": 1
  },
  "storageLayout": {
    "storage": [],
    "types": null
  }
}