{
  "address": "0xCc3624453a3A0ba5AdAe3b3429E0d7E47232730C",
  "abi": [
    {
      "inputs": [
        {
          "internalType": "uint256",
          "name": "embalmerClaimWindow",
          "type": "uint256"
        }
      ],
      "name": "setEmbalmerClaimWindow",
      "outputs": [],
      "stateMutability": "nonpayable",
      "type": "function"
    },
    {
      "inputs": [
        {
          "internalType": "uint256",
          "name": "expirationThreshold",
          "type": "uint256"
        }
      ],
      "name": "setExpirationThreshold",
      "outputs": [],
      "stateMutability": "nonpayable",
      "type": "function"
    },
    {
      "inputs": [
        {
          "internalType": "uint256",
          "name": "gracePeriod",
          "type": "uint256"
        }
      ],
      "name": "setGracePeriod",
      "outputs": [],
      "stateMutability": "nonpayable",
      "type": "function"
    },
    {
      "inputs": [
        {
          "internalType": "uint256",
          "name": "protocolFeeBasePercentage",
          "type": "uint256"
        }
      ],
      "name": "setProtocolFeeBasePercentage",
      "outputs": [],
      "stateMutability": "nonpayable",
      "type": "function"
    },
    {
      "inputs": [],
      "name": "withdrawProtocolFees",
      "outputs": [],
      "stateMutability": "nonpayable",
      "type": "function"
    }
  ],
  "transactionHash": "0xe9913c520cf6ec467d7e62fcc8f1808c543c7bbd052d2b8ab3d826d75ab4fb35",
  "args": [],
  "numDeployments": 1,
  "solcInputHash": "4aa61604c0a9efd866e19679821c2a67",
  "bytecode": "0x608060405234801561001057600080fd5b506104d2806100206000396000f3fe608060405234801561001057600080fd5b50600436106100575760003560e01c8063274f255e1461005c5780638795cccb146100785780638a5b569014610082578063a828c4791461009e578063f2f65960146100ba575b600080fd5b610076600480360381019061007191906102ee565b6100d6565b005b6100806100eb565b005b61009c600480360381019061009791906102ee565b6101ac565b005b6100b860048036038101906100b391906102ee565b6101c1565b005b6100d460048036038101906100cf91906102ee565b6101d6565b005b6100de6101eb565b8060006005018190555050565b6100f36101eb565b600080600101549050600080600101819055506000800160009054906101000a900473ffffffffffffffffffffffffffffffffffffffff1673ffffffffffffffffffffffffffffffffffffffff1663a9059cbb33836040518363ffffffff1660e01b815260040161016592919061036b565b6020604051808303816000875af1158015610184573d6000803e3d6000fd5b505050506040513d601f19601f820116820180604052508101906101a891906103cc565b5050565b6101b46101eb565b8060006002018190555050565b6101c96101eb565b8060006004018190555050565b6101de6101eb565b8060006003018190555050565b6101f3610286565b60040160009054906101000a900473ffffffffffffffffffffffffffffffffffffffff1673ffffffffffffffffffffffffffffffffffffffff163373ffffffffffffffffffffffffffffffffffffffff1614610284576040517f08c379a000000000000000000000000000000000000000000000000000000000815260040161027b9061047c565b60405180910390fd5b565b6000807fc8fcad8db84d3cc18b4c41d551ea0ee66dd599cde068d998e57d5e09332c131c90508091505090565b600080fd5b6000819050919050565b6102cb816102b8565b81146102d657600080fd5b50565b6000813590506102e8816102c2565b92915050565b600060208284031215610304576103036102b3565b5b6000610312848285016102d9565b91505092915050565b600073ffffffffffffffffffffffffffffffffffffffff82169050919050565b60006103468261031b565b9050919050565b6103568161033b565b82525050565b610365816102b8565b82525050565b6000604082019050610380600083018561034d565b61038d602083018461035c565b9392505050565b60008115159050919050565b6103a981610394565b81146103b457600080fd5b50565b6000815190506103c6816103a0565b92915050565b6000602082840312156103e2576103e16102b3565b5b60006103f0848285016103b7565b91505092915050565b600082825260208201905092915050565b7f4c69624469616d6f6e643a204d75737420626520636f6e7472616374206f776e60008201527f6572000000000000000000000000000000000000000000000000000000000000602082015250565b60006104666022836103f9565b91506104718261040a565b604082019050919050565b6000602082019050818103600083015261049581610459565b905091905056fea2646970667358221220250d8903aaddd8a09f81cf18d870b1a394de79631652d5a39b5944af8ecd61e364736f6c634300080d0033",
  "devdoc": {
    "kind": "dev",
    "methods": {
      "setEmbalmerClaimWindow(uint256)": {
        "details": "Can only be called by the diamond owner.",
        "params": {
          "embalmerClaimWindow": "to set"
        }
      },
      "setExpirationThreshold(uint256)": {
        "details": "Can only be called by the diamond owner.",
        "params": {
          "expirationThreshold": "to set"
        }
      },
      "setGracePeriod(uint256)": {
        "details": "Can only be called by the diamond owner.",
        "params": {
          "gracePeriod": "to set"
        }
      },
      "setProtocolFeeBasePercentage(uint256)": {
        "details": "Can only be called by the owner.",
        "params": {
          "protocolFeeBasePercentage": "percentage to set"
        }
      },
      "withdrawProtocolFees()": {
        "details": "Can only be called by the owner."
      }
    },
    "version": 1
  },
  "userdoc": {
    "kind": "user",
    "methods": {
      "setEmbalmerClaimWindow(uint256)": {
        "notice": "Updates the embalmerClaimWindow"
      },
      "setExpirationThreshold(uint256)": {
        "notice": "Updates the expirationThreshold used during sarcophagus creation"
      },
      "setGracePeriod(uint256)": {
        "notice": "Updates the resurrection grace period"
      },
      "setProtocolFeeBasePercentage(uint256)": {
        "notice": "Sets the protocol fee base percentage, used to calculate protocol fees"
      },
      "withdrawProtocolFees()": {
        "notice": "Withdraws the total protocol fee amount from the contract."
      }
    },
    "version": 1
  },
  "storageLayout": {
    "storage": [
      {
        "astId": 1126,
        "contract": "contracts/facets/AdminFacet.sol:AdminFacet",
        "label": "s",
        "offset": 0,
        "slot": "0",
        "type": "t_struct(AppStorage)4934_storage"
      }
    ],
    "types": {
      "t_address": {
        "encoding": "inplace",
        "label": "address",
        "numberOfBytes": "20"
      },
      "t_array(t_address)dyn_storage": {
        "base": "t_address",
        "encoding": "dynamic_array",
        "label": "address[]",
        "numberOfBytes": "32"
      },
      "t_array(t_bytes32)dyn_storage": {
        "base": "t_bytes32",
        "encoding": "dynamic_array",
        "label": "bytes32[]",
        "numberOfBytes": "32"
      },
      "t_bool": {
        "encoding": "inplace",
        "label": "bool",
        "numberOfBytes": "1"
      },
      "t_bytes32": {
        "encoding": "inplace",
        "label": "bytes32",
        "numberOfBytes": "32"
      },
      "t_bytes_memory_ptr": {
        "encoding": "bytes",
        "label": "bytes",
        "numberOfBytes": "32"
      },
      "t_bytes_storage": {
        "encoding": "bytes",
        "label": "bytes",
        "numberOfBytes": "32"
      },
      "t_contract(IERC20)77": {
        "encoding": "inplace",
        "label": "contract IERC20",
        "numberOfBytes": "20"
      },
      "t_mapping(t_address,t_array(t_bytes32)dyn_storage)": {
        "encoding": "mapping",
        "key": "t_address",
        "label": "mapping(address => bytes32[])",
        "numberOfBytes": "32",
        "value": "t_array(t_bytes32)dyn_storage"
      },
      "t_mapping(t_address,t_struct(ArchaeologistProfile)4647_storage)": {
        "encoding": "mapping",
        "key": "t_address",
        "label": "mapping(address => struct LibTypes.ArchaeologistProfile)",
        "numberOfBytes": "32",
        "value": "t_struct(ArchaeologistProfile)4647_storage"
      },
      "t_mapping(t_address,t_struct(CursedArchaeologist)4634_storage)": {
        "encoding": "mapping",
        "key": "t_address",
        "label": "mapping(address => struct LibTypes.CursedArchaeologist)",
        "numberOfBytes": "32",
        "value": "t_struct(CursedArchaeologist)4634_storage"
      },
      "t_mapping(t_address,t_uint256)": {
        "encoding": "mapping",
        "key": "t_address",
        "label": "mapping(address => uint256)",
        "numberOfBytes": "32",
        "value": "t_uint256"
      },
      "t_mapping(t_bytes32,t_struct(Sarcophagus)4625_storage)": {
        "encoding": "mapping",
        "key": "t_bytes32",
        "label": "mapping(bytes32 => struct LibTypes.Sarcophagus)",
        "numberOfBytes": "32",
        "value": "t_struct(Sarcophagus)4625_storage"
      },
      "t_mapping(t_bytes_memory_ptr,t_address)": {
        "encoding": "mapping",
        "key": "t_bytes_memory_ptr",
        "label": "mapping(bytes => address)",
        "numberOfBytes": "32",
        "value": "t_address"
      },
      "t_string_storage": {
        "encoding": "bytes",
        "label": "string",
        "numberOfBytes": "32"
      },
      "t_struct(AppStorage)4934_storage": {
        "encoding": "inplace",
        "label": "struct AppStorage",
        "members": [
          {
            "astId": 4869,
            "contract": "contracts/facets/AdminFacet.sol:AdminFacet",
            "label": "sarcoToken",
            "offset": 0,
            "slot": "0",
            "type": "t_contract(IERC20)77"
          },
          {
            "astId": 4871,
            "contract": "contracts/facets/AdminFacet.sol:AdminFacet",
            "label": "totalProtocolFees",
            "offset": 0,
            "slot": "1",
            "type": "t_uint256"
          },
          {
            "astId": 4874,
            "contract": "contracts/facets/AdminFacet.sol:AdminFacet",
            "label": "protocolFeeBasePercentage",
            "offset": 0,
            "slot": "2",
            "type": "t_uint256"
          },
          {
            "astId": 4876,
            "contract": "contracts/facets/AdminFacet.sol:AdminFacet",
            "label": "gracePeriod",
            "offset": 0,
            "slot": "3",
            "type": "t_uint256"
          },
          {
            "astId": 4878,
            "contract": "contracts/facets/AdminFacet.sol:AdminFacet",
            "label": "expirationThreshold",
            "offset": 0,
            "slot": "4",
            "type": "t_uint256"
          },
          {
            "astId": 4880,
            "contract": "contracts/facets/AdminFacet.sol:AdminFacet",
            "label": "embalmerClaimWindow",
            "offset": 0,
            "slot": "5",
            "type": "t_uint256"
          },
          {
            "astId": 4886,
            "contract": "contracts/facets/AdminFacet.sol:AdminFacet",
            "label": "embalmerSarcophagi",
            "offset": 0,
            "slot": "6",
            "type": "t_mapping(t_address,t_array(t_bytes32)dyn_storage)"
          },
          {
            "astId": 4891,
            "contract": "contracts/facets/AdminFacet.sol:AdminFacet",
            "label": "archaeologistSarcophagi",
            "offset": 0,
            "slot": "7",
            "type": "t_mapping(t_address,t_array(t_bytes32)dyn_storage)"
          },
          {
            "astId": 4896,
            "contract": "contracts/facets/AdminFacet.sol:AdminFacet",
            "label": "recipientSarcophagi",
            "offset": 0,
            "slot": "8",
            "type": "t_mapping(t_address,t_array(t_bytes32)dyn_storage)"
          },
          {
            "astId": 4900,
            "contract": "contracts/facets/AdminFacet.sol:AdminFacet",
            "label": "publicKeyToArchaeologistAddress",
            "offset": 0,
            "slot": "9",
            "type": "t_mapping(t_bytes_memory_ptr,t_address)"
          },
          {
            "astId": 4905,
            "contract": "contracts/facets/AdminFacet.sol:AdminFacet",
            "label": "sarcophagi",
            "offset": 0,
            "slot": "10",
            "type": "t_mapping(t_bytes32,t_struct(Sarcophagus)4625_storage)"
          },
          {
            "astId": 4908,
            "contract": "contracts/facets/AdminFacet.sol:AdminFacet",
            "label": "archaeologistProfileAddresses",
            "offset": 0,
            "slot": "11",
            "type": "t_array(t_address)dyn_storage"
          },
          {
            "astId": 4913,
            "contract": "contracts/facets/AdminFacet.sol:AdminFacet",
            "label": "archaeologistProfiles",
            "offset": 0,
            "slot": "12",
            "type": "t_mapping(t_address,t_struct(ArchaeologistProfile)4647_storage)"
          },
          {
            "astId": 4917,
            "contract": "contracts/facets/AdminFacet.sol:AdminFacet",
            "label": "archaeologistRewards",
            "offset": 0,
            "slot": "13",
            "type": "t_mapping(t_address,t_uint256)"
          },
          {
            "astId": 4923,
            "contract": "contracts/facets/AdminFacet.sol:AdminFacet",
            "label": "archaeologistSuccesses",
            "offset": 0,
            "slot": "14",
            "type": "t_mapping(t_address,t_array(t_bytes32)dyn_storage)"
          },
          {
            "astId": 4928,
            "contract": "contracts/facets/AdminFacet.sol:AdminFacet",
            "label": "archaeologistAccusals",
            "offset": 0,
            "slot": "15",
            "type": "t_mapping(t_address,t_array(t_bytes32)dyn_storage)"
          },
          {
            "astId": 4933,
            "contract": "contracts/facets/AdminFacet.sol:AdminFacet",
            "label": "archaeologistCleanups",
            "offset": 0,
            "slot": "16",
            "type": "t_mapping(t_address,t_array(t_bytes32)dyn_storage)"
          }
        ],
        "numberOfBytes": "544"
      },
      "t_struct(ArchaeologistProfile)4647_storage": {
        "encoding": "inplace",
        "label": "struct LibTypes.ArchaeologistProfile",
        "members": [
          {
            "astId": 4636,
            "contract": "contracts/facets/AdminFacet.sol:AdminFacet",
            "label": "exists",
            "offset": 0,
            "slot": "0",
            "type": "t_bool"
          },
          {
            "astId": 4638,
            "contract": "contracts/facets/AdminFacet.sol:AdminFacet",
            "label": "peerId",
            "offset": 0,
            "slot": "1",
            "type": "t_string_storage"
          },
          {
            "astId": 4640,
            "contract": "contracts/facets/AdminFacet.sol:AdminFacet",
            "label": "minimumDiggingFee",
            "offset": 0,
            "slot": "2",
            "type": "t_uint256"
          },
          {
            "astId": 4642,
            "contract": "contracts/facets/AdminFacet.sol:AdminFacet",
            "label": "maximumRewrapInterval",
            "offset": 0,
            "slot": "3",
            "type": "t_uint256"
          },
          {
            "astId": 4644,
            "contract": "contracts/facets/AdminFacet.sol:AdminFacet",
            "label": "freeBond",
            "offset": 0,
            "slot": "4",
            "type": "t_uint256"
          },
          {
            "astId": 4646,
            "contract": "contracts/facets/AdminFacet.sol:AdminFacet",
            "label": "cursedBond",
            "offset": 0,
            "slot": "5",
            "type": "t_uint256"
          }
        ],
        "numberOfBytes": "192"
      },
      "t_struct(CursedArchaeologist)4634_storage": {
        "encoding": "inplace",
        "label": "struct LibTypes.CursedArchaeologist",
        "members": [
          {
            "astId": 4627,
            "contract": "contracts/facets/AdminFacet.sol:AdminFacet",
            "label": "publicKey",
            "offset": 0,
            "slot": "0",
            "type": "t_bytes_storage"
          },
          {
            "astId": 4629,
            "contract": "contracts/facets/AdminFacet.sol:AdminFacet",
            "label": "privateKey",
            "offset": 0,
            "slot": "1",
            "type": "t_bytes32"
          },
          {
            "astId": 4631,
            "contract": "contracts/facets/AdminFacet.sol:AdminFacet",
            "label": "isAccused",
            "offset": 0,
            "slot": "2",
            "type": "t_bool"
          },
          {
            "astId": 4633,
            "contract": "contracts/facets/AdminFacet.sol:AdminFacet",
            "label": "diggingFee",
            "offset": 0,
            "slot": "3",
            "type": "t_uint256"
          }
        ],
        "numberOfBytes": "128"
      },
      "t_struct(Sarcophagus)4625_storage": {
        "encoding": "inplace",
        "label": "struct LibTypes.Sarcophagus",
        "members": [
          {
            "astId": 4600,
            "contract": "contracts/facets/AdminFacet.sol:AdminFacet",
            "label": "resurrectionTime",
            "offset": 0,
            "slot": "0",
            "type": "t_uint256"
          },
          {
            "astId": 4602,
            "contract": "contracts/facets/AdminFacet.sol:AdminFacet",
            "label": "isCompromised",
            "offset": 0,
            "slot": "1",
            "type": "t_bool"
          },
          {
            "astId": 4604,
            "contract": "contracts/facets/AdminFacet.sol:AdminFacet",
            "label": "isCleaned",
            "offset": 1,
            "slot": "1",
            "type": "t_bool"
          },
          {
            "astId": 4606,
            "contract": "contracts/facets/AdminFacet.sol:AdminFacet",
            "label": "name",
            "offset": 0,
            "slot": "2",
            "type": "t_string_storage"
          },
          {
            "astId": 4608,
            "contract": "contracts/facets/AdminFacet.sol:AdminFacet",
            "label": "threshold",
            "offset": 0,
            "slot": "3",
            "type": "t_uint8"
          },
          {
            "astId": 4610,
            "contract": "contracts/facets/AdminFacet.sol:AdminFacet",
            "label": "maximumRewrapInterval",
            "offset": 0,
            "slot": "4",
            "type": "t_uint256"
          },
          {
            "astId": 4612,
            "contract": "contracts/facets/AdminFacet.sol:AdminFacet",
            "label": "arweaveTxId",
            "offset": 0,
            "slot": "5",
            "type": "t_string_storage"
          },
          {
            "astId": 4614,
            "contract": "contracts/facets/AdminFacet.sol:AdminFacet",
            "label": "embalmerAddress",
            "offset": 0,
            "slot": "6",
            "type": "t_address"
          },
          {
            "astId": 4616,
            "contract": "contracts/facets/AdminFacet.sol:AdminFacet",
            "label": "recipientAddress",
            "offset": 0,
            "slot": "7",
            "type": "t_address"
          },
          {
            "astId": 4619,
            "contract": "contracts/facets/AdminFacet.sol:AdminFacet",
            "label": "cursedArchaeologistAddresses",
            "offset": 0,
            "slot": "8",
            "type": "t_array(t_address)dyn_storage"
          },
          {
            "astId": 4624,
            "contract": "contracts/facets/AdminFacet.sol:AdminFacet",
            "label": "cursedArchaeologists",
            "offset": 0,
            "slot": "9",
            "type": "t_mapping(t_address,t_struct(CursedArchaeologist)4634_storage)"
          }
        ],
        "numberOfBytes": "320"
      },
      "t_uint256": {
        "encoding": "inplace",
        "label": "uint256",
        "numberOfBytes": "32"
      },
      "t_uint8": {
        "encoding": "inplace",
        "label": "uint8",
        "numberOfBytes": "1"
      }
    }
  }
}