{
  "address": "0xe70964396fAc3369cC176563D1880F94D2d850aa",
  "abi": [
    {
      "inputs": [
        {
          "internalType": "contract IERC20",
          "name": "sarcoToken",
          "type": "address"
        },
        {
          "internalType": "uint256",
          "name": "protocolFeeBasePercentage",
          "type": "uint256"
        },
        {
          "internalType": "uint256",
          "name": "gracePeriod",
          "type": "uint256"
        },
        {
          "internalType": "uint256",
          "name": "embalmerClaimWindow",
          "type": "uint256"
        },
        {
          "internalType": "uint256",
          "name": "expirationThreshold",
          "type": "uint256"
        }
      ],
      "name": "init",
      "outputs": [],
      "stateMutability": "nonpayable",
      "type": "function"
    }
  ],
  "transactionHash": "0x497004377e4fdfbab4570520151d6bc5dea7366734a470d258bb92940e4071bc",
  "args": [],
  "numDeployments": 3,
  "solcInputHash": "4debb0c1d1e8401d5bc4e926ad08864b",
  "bytecode": "0x608060405234801561001057600080fd5b5061025a806100206000396000f3fe608060405234801561001057600080fd5b506004361061002b5760003560e01c80639a73061714610030575b600080fd5b61004a600480360381019061004591906101a9565b61004c565b005b60006100566100d1565b9050858160000160006101000a81548173ffffffffffffffffffffffffffffffffffffffff021916908373ffffffffffffffffffffffffffffffffffffffff16021790555084816002018190555060648160030181905550838160040181905550828160060181905550818160050181905550505050505050565b6000807f3a8f033ea537e60920c617837bea7240bb5fae1dbc538a6c5afd56a2fbc26ddc90508091505090565b600080fd5b600073ffffffffffffffffffffffffffffffffffffffff82169050919050565b600061012e82610103565b9050919050565b600061014082610123565b9050919050565b61015081610135565b811461015b57600080fd5b50565b60008135905061016d81610147565b92915050565b6000819050919050565b61018681610173565b811461019157600080fd5b50565b6000813590506101a38161017d565b92915050565b600080600080600060a086880312156101c5576101c46100fe565b5b60006101d38882890161015e565b95505060206101e488828901610194565b94505060406101f588828901610194565b935050606061020688828901610194565b925050608061021788828901610194565b915050929550929590935056fea2646970667358221220e43010073f8c9b29f4883d6bd7bec9704ba6574ee404b911a0a9261edcee327c64736f6c634300080d0033",
  "devdoc": {
    "kind": "dev",
    "methods": {
      "init(address,uint256,uint256,uint256,uint256)": {
        "details": "Add any AppStorage struct properties here to initialize values"
      }
    },
    "version": 1
  },
  "userdoc": {
    "kind": "user",
    "methods": {
      "init(address,uint256,uint256,uint256,uint256)": {
        "notice": "Initializes the app with default state values"
      }
    },
    "version": 1
  },
  "storageLayout": {
    "storage": [],
    "types": null
  }
}