{
  "address": "0xF9B4d464B86774a0d311d54FA4D05cF16Ef39024",
  "abi": [
    {
      "inputs": [
        {
          "internalType": "address",
          "name": "archaeologistAddress",
          "type": "address"
        }
      ],
      "name": "ArchaeologistAlreadyPublishedPrivateKey",
      "type": "error"
    },
    {
      "inputs": [
        {
          "internalType": "address",
          "name": "archaeologistAddress",
          "type": "address"
        },
        {
          "internalType": "bytes32",
          "name": "sarcoId",
          "type": "bytes32"
        }
      ],
      "name": "ArchaeologistHasBeenAccused",
      "type": "error"
    },
    {
      "inputs": [
        {
          "internalType": "address",
          "name": "archaeologist",
          "type": "address"
        }
      ],
      "name": "ArchaeologistNotOnSarcophagus",
      "type": "error"
    },
    {
      "inputs": [
        {
          "internalType": "bool",
          "name": "exists",
          "type": "bool"
        },
        {
          "internalType": "address",
          "name": "archaeologist",
          "type": "address"
        }
      ],
      "name": "ArchaeologistProfileExistsShouldBe",
      "type": "error"
    },
    {
      "inputs": [
        {
          "internalType": "address",
          "name": "archaeologistAddress",
          "type": "address"
        },
        {
          "internalType": "bytes",
          "name": "publicKey",
          "type": "bytes"
        },
        {
          "internalType": "bytes32",
          "name": "privateKey",
          "type": "bytes32"
        }
      ],
      "name": "ArchaeologistPublishedIncorrectPrivateKey",
      "type": "error"
    },
    {
      "inputs": [
        {
          "internalType": "uint256",
          "name": "currentTime",
          "type": "uint256"
        },
        {
          "internalType": "uint256",
          "name": "embalmerClaimWindowEnd",
          "type": "uint256"
        }
      ],
      "name": "EmbalmerClaimWindowPassed",
      "type": "error"
    },
    {
      "inputs": [
        {
          "internalType": "uint256",
          "name": "cursedBond",
          "type": "uint256"
        },
        {
          "internalType": "uint256",
          "name": "amount",
          "type": "uint256"
        }
      ],
      "name": "NotEnoughCursedBond",
      "type": "error"
    },
    {
      "inputs": [
        {
          "internalType": "uint256",
          "name": "freeBond",
          "type": "uint256"
        },
        {
          "internalType": "uint256",
          "name": "amount",
          "type": "uint256"
        }
      ],
      "name": "NotEnoughFreeBond",
      "type": "error"
    },
    {
      "inputs": [
        {
          "internalType": "bytes32",
          "name": "sarcoId",
          "type": "bytes32"
        }
      ],
      "name": "SarcophagusAlreadyCleaned",
      "type": "error"
    },
    {
      "inputs": [
        {
          "internalType": "bytes32",
          "name": "sarcoId",
          "type": "bytes32"
        }
      ],
      "name": "SarcophagusCompromised",
      "type": "error"
    },
    {
      "inputs": [
        {
          "internalType": "bytes32",
          "name": "sarcoId",
          "type": "bytes32"
        }
      ],
      "name": "SarcophagusDoesNotExist",
      "type": "error"
    },
    {
      "inputs": [
        {
          "internalType": "bytes32",
          "name": "sarcoId",
          "type": "bytes32"
        }
      ],
      "name": "SarcophagusInactive",
      "type": "error"
    },
    {
      "inputs": [
        {
          "internalType": "address",
          "name": "senderAddress",
          "type": "address"
        }
      ],
      "name": "SenderNotEmbalmerOrAdmin",
      "type": "error"
    },
    {
      "inputs": [
        {
          "internalType": "uint256",
          "name": "currentTime",
          "type": "uint256"
        },
        {
          "internalType": "uint256",
          "name": "embalmerClaimWindowEnd",
          "type": "uint256"
        }
      ],
      "name": "TooEarlyForAdminClean",
      "type": "error"
    },
    {
      "inputs": [
        {
          "internalType": "uint256",
          "name": "currentTime",
          "type": "uint256"
        },
        {
          "internalType": "uint256",
          "name": "publishDeadline",
          "type": "uint256"
        }
      ],
      "name": "TooEarlyForClean",
      "type": "error"
    },
    {
      "inputs": [
        {
          "internalType": "uint256",
          "name": "currentTime",
          "type": "uint256"
        },
        {
          "internalType": "uint256",
          "name": "resurrectionTime",
          "type": "uint256"
        }
      ],
      "name": "TooEarlyForPublish",
      "type": "error"
    },
    {
      "inputs": [
        {
          "internalType": "uint256",
          "name": "currentTime",
          "type": "uint256"
        },
        {
          "internalType": "uint256",
          "name": "publishDeadline",
          "type": "uint256"
        }
      ],
      "name": "TooLateForPublish",
      "type": "error"
    },
    {
      "anonymous": false,
      "inputs": [
        {
          "indexed": true,
          "internalType": "address",
          "name": "archaeologist",
          "type": "address"
        },
        {
          "indexed": false,
          "internalType": "uint256",
          "name": "depositedBond",
          "type": "uint256"
        }
      ],
      "name": "DepositFreeBond",
      "type": "event"
    },
    {
      "anonymous": false,
      "inputs": [
        {
          "indexed": true,
          "internalType": "bytes32",
          "name": "sarcoId",
          "type": "bytes32"
        },
        {
          "indexed": false,
          "internalType": "bytes32",
          "name": "privateKey",
          "type": "bytes32"
        }
      ],
      "name": "PublishPrivateKey",
      "type": "event"
    },
    {
      "anonymous": false,
      "inputs": [
        {
          "indexed": true,
          "internalType": "address",
          "name": "archaeologist",
          "type": "address"
        },
        {
          "indexed": false,
          "internalType": "string",
          "name": "peerId",
          "type": "string"
        },
        {
          "indexed": false,
          "internalType": "uint256",
          "name": "minimumDiggingFee",
          "type": "uint256"
        },
        {
          "indexed": false,
          "internalType": "uint256",
          "name": "maximumRewrapInterval",
          "type": "uint256"
        },
        {
          "indexed": false,
          "internalType": "uint256",
          "name": "freeBond",
          "type": "uint256"
        }
      ],
      "name": "RegisterArchaeologist",
      "type": "event"
    },
    {
      "anonymous": false,
      "inputs": [
        {
          "indexed": true,
          "internalType": "address",
          "name": "archaeologist",
          "type": "address"
        },
        {
          "indexed": false,
          "internalType": "string",
          "name": "peerId",
          "type": "string"
        },
        {
          "indexed": false,
          "internalType": "uint256",
          "name": "minimumDiggingFee",
          "type": "uint256"
        },
        {
          "indexed": false,
          "internalType": "uint256",
          "name": "maximumRewrapInterval",
          "type": "uint256"
        },
        {
          "indexed": false,
          "internalType": "uint256",
          "name": "freeBond",
          "type": "uint256"
        }
      ],
      "name": "UpdateArchaeologist",
      "type": "event"
    },
    {
      "anonymous": false,
      "inputs": [
        {
          "indexed": true,
          "internalType": "address",
          "name": "archaeologist",
          "type": "address"
        },
        {
          "indexed": false,
          "internalType": "uint256",
          "name": "withdrawnBond",
          "type": "uint256"
        }
      ],
      "name": "WithdrawFreeBond",
      "type": "event"
    },
    {
      "anonymous": false,
      "inputs": [
        {
          "indexed": true,
          "internalType": "address",
          "name": "archaeologist",
          "type": "address"
        },
        {
          "indexed": false,
          "internalType": "uint256",
          "name": "withdrawnReward",
          "type": "uint256"
        }
      ],
      "name": "WithdrawReward",
      "type": "event"
    },
    {
      "inputs": [
        {
          "internalType": "uint256",
          "name": "amount",
          "type": "uint256"
        }
      ],
      "name": "depositFreeBond",
      "outputs": [],
      "stateMutability": "nonpayable",
      "type": "function"
    },
    {
      "inputs": [
        {
          "internalType": "bytes32",
          "name": "sarcoId",
          "type": "bytes32"
        },
        {
          "internalType": "bytes32",
          "name": "privateKey",
          "type": "bytes32"
        }
      ],
      "name": "publishPrivateKey",
      "outputs": [],
      "stateMutability": "nonpayable",
      "type": "function"
    },
    {
      "inputs": [
        {
          "internalType": "string",
          "name": "peerId",
          "type": "string"
        },
        {
          "internalType": "uint256",
          "name": "minimumDiggingFee",
          "type": "uint256"
        },
        {
          "internalType": "uint256",
          "name": "maximumRewrapInterval",
          "type": "uint256"
        },
        {
          "internalType": "uint256",
          "name": "freeBond",
          "type": "uint256"
        }
      ],
      "name": "registerArchaeologist",
      "outputs": [],
      "stateMutability": "nonpayable",
      "type": "function"
    },
    {
      "inputs": [
        {
          "internalType": "string",
          "name": "peerId",
          "type": "string"
        },
        {
          "internalType": "uint256",
          "name": "minimumDiggingFee",
          "type": "uint256"
        },
        {
          "internalType": "uint256",
          "name": "maximumRewrapInterval",
          "type": "uint256"
        },
        {
          "internalType": "uint256",
          "name": "freeBond",
          "type": "uint256"
        }
      ],
      "name": "updateArchaeologist",
      "outputs": [],
      "stateMutability": "nonpayable",
      "type": "function"
    },
    {
      "inputs": [
        {
          "internalType": "uint256",
          "name": "amount",
          "type": "uint256"
        }
      ],
      "name": "withdrawFreeBond",
      "outputs": [],
      "stateMutability": "nonpayable",
      "type": "function"
    },
    {
      "inputs": [],
      "name": "withdrawReward",
      "outputs": [],
      "stateMutability": "nonpayable",
      "type": "function"
    }
  ],
  "transactionHash": "0xbe970cdc00b4083ec7382546126a882e069ddeb7e02594a9ef48ff89960e7df5",
  "args": [],
  "numDeployments": 1,
  "solcInputHash": "c7d604b319dcb7a10f8812f92e9977d9",
  "bytecode": "0x608060405234801561001057600080fd5b50611f82806100206000396000f3fe608060405234801561001057600080fd5b50600436106100625760003560e01c80630c4c35f014610067578063364e080114610083578063449f11a61461009f5780636a5ac74c146100bb578063a4110dbe146100d7578063c885bc58146100f3575b600080fd5b610081600480360381019061007c91906116f5565b6100fd565b005b61009d60048036038101906100989190611778565b610299565b005b6100b960048036038101906100b491906116f5565b6103a0565b005b6100d560048036038101906100d09190611778565b610609565b005b6100f160048036038101906100ec91906117db565b610712565b005b6100fb610c32565b005b61010633610db3565b600080600c0160003373ffffffffffffffffffffffffffffffffffffffff1673ffffffffffffffffffffffffffffffffffffffff1681526020019081526020016000209050848160010190805190602001906101639291906114c2565b50838160020181905550828160030181905550600082111561022f576101893383610e59565b6000800160009054906101000a900473ffffffffffffffffffffffffffffffffffffffff1673ffffffffffffffffffffffffffffffffffffffff166323b872dd3330856040518463ffffffff1660e01b81526004016101ea9392919061186b565b6020604051808303816000875af1158015610209573d6000803e3d6000fd5b505050506040513d601f19601f8201168201806040525081019061022d91906118da565b505b3373ffffffffffffffffffffffffffffffffffffffff167f4df9330dcb4af4b522d063da8a473d6711cdd390feef75f059a663a76c2701398260010183600201548460030154856004015460405161028a9493929190611a0d565b60405180910390a25050505050565b6102a233610db3565b6102ac3382610ec5565b6000800160009054906101000a900473ffffffffffffffffffffffffffffffffffffffff1673ffffffffffffffffffffffffffffffffffffffff1663a9059cbb33836040518363ffffffff1660e01b815260040161030b929190611a59565b6020604051808303816000875af115801561032a573d6000803e3d6000fd5b505050506040513d601f19601f8201168201806040525081019061034e91906118da565b503373ffffffffffffffffffffffffffffffffffffffff167fd91b1e491a880123721b161dbbf8249668b0c546077d7ba4d0016441ca9d8f45826040516103959190611a82565b60405180910390a250565b6103a933611000565b60006040518060c0016040528060011515815260200186815260200185815260200184815260200183815260200160008152509050600082111561048d576000800160009054906101000a900473ffffffffffffffffffffffffffffffffffffffff1673ffffffffffffffffffffffffffffffffffffffff166323b872dd3330856040518463ffffffff1660e01b81526004016104489392919061186b565b6020604051808303816000875af1158015610467573d6000803e3d6000fd5b505050506040513d601f19601f8201168201806040525081019061048b91906118da565b505b806000600c0160003373ffffffffffffffffffffffffffffffffffffffff1673ffffffffffffffffffffffffffffffffffffffff16815260200190815260200160002060008201518160000160006101000a81548160ff021916908315150217905550602082015181600101908051906020019061050c9291906114c2565b5060408201518160020155606082015181600301556080820151816004015560a082015181600501559050506000600b01339080600181540180825580915050600190039060005260206000200160009091909190916101000a81548173ffffffffffffffffffffffffffffffffffffffff021916908373ffffffffffffffffffffffffffffffffffffffff1602179055503373ffffffffffffffffffffffffffffffffffffffff167fec728a18db560dc21e59ae36132eb1e1c1b00d056a88ee755e0940e471ad591e82602001518360400151846060015185608001516040516105fa9493929190611b14565b60405180910390a25050505050565b61061233610db3565b61061c3382610e59565b6000800160009054906101000a900473ffffffffffffffffffffffffffffffffffffffff1673ffffffffffffffffffffffffffffffffffffffff166323b872dd3330846040518463ffffffff1660e01b815260040161067d9392919061186b565b6020604051808303816000875af115801561069c573d6000803e3d6000fd5b505050506040513d601f19601f820116820180604052508101906106c091906118da565b503373ffffffffffffffffffffffffffffffffffffffff167ff882a0847c57aefe6f6c7df2098dd0afd122eb0e886199e223651b8e45fda823826040516107079190611a82565b60405180910390a250565b600080600a0160008481526020019081526020016000209050600081600001540361077457826040517f018da68800000000000000000000000000000000000000000000000000000000815260040161076b9190611b6f565b60405180910390fd5b8060010160009054906101000a900460ff16156107c857826040517f9af72b860000000000000000000000000000000000000000000000000000000081526004016107bf9190611b6f565b60405180910390fd5b7fffffffffffffffffffffffffffffffffffffffffffffffffffffffffffffffff81600001540361083057826040517f7c6a6d700000000000000000000000000000000000000000000000000000000081526004016108279190611b6f565b60405180910390fd5b806000015442101561087f574281600001546040517f48276809000000000000000000000000000000000000000000000000000000008152600401610876929190611b8a565b60405180910390fd5b60006003015481600001546108949190611be2565b4211156108ee574260006003015482600001546108b19190611be2565b6040517f4ccffab10000000000000000000000000000000000000000000000000000000081526004016108e5929190611b8a565b60405180910390fd5b600080600a01600085815260200190815260200160002060090160003373ffffffffffffffffffffffffffffffffffffffff1673ffffffffffffffffffffffffffffffffffffffff1681526020019081526020016000209050600081600001805461095890611936565b90500361099c57336040517f82881f030000000000000000000000000000000000000000000000000000000081526004016109939190611c38565b60405180910390fd5b8060020160009054906101000a900460ff16156109f25733846040517fa40b44230000000000000000000000000000000000000000000000000000000081526004016109e9929190611c53565b60405180910390fd5b6000801b816001015414610a3d57336040517f7b06b177000000000000000000000000000000000000000000000000000000008152600401610a349190611c38565b60405180910390fd5b610ad383826000018054610a5090611936565b80601f0160208091040260200160405190810160405280929190818152602001828054610a7c90611936565b8015610ac95780601f10610a9e57610100808354040283529160200191610ac9565b820191906000526020600020905b815481529060010190602001808311610aac57829003601f168201915b50505050506110a7565b610b1b573381600001846040517f5a95e91c000000000000000000000000000000000000000000000000000000008152600401610b1293929190611d22565b60405180910390fd5b828160010181905550610b2e84336112f1565b80600301546000600d0160003373ffffffffffffffffffffffffffffffffffffffff1673ffffffffffffffffffffffffffffffffffffffff1681526020019081526020016000206000828254610b849190611be2565b925050819055506000600e0160003373ffffffffffffffffffffffffffffffffffffffff1673ffffffffffffffffffffffffffffffffffffffff168152602001908152602001600020849080600181540180825580915050600190039060005260206000200160009091909190915055837f3e5a6fa1aea4d7b93ca7b96ea3b3a42e221934c707be2efa8c5678da3d345f2d84604051610c249190611b6f565b60405180910390a250505050565b600080600d0160003373ffffffffffffffffffffffffffffffffffffffff1673ffffffffffffffffffffffffffffffffffffffff168152602001908152602001600020549050600080600d0160003373ffffffffffffffffffffffffffffffffffffffff1673ffffffffffffffffffffffffffffffffffffffff168152602001908152602001600020819055506000800160009054906101000a900473ffffffffffffffffffffffffffffffffffffffff1673ffffffffffffffffffffffffffffffffffffffff1663a9059cbb33836040518363ffffffff1660e01b8152600401610d1e929190611a59565b6020604051808303816000875af1158015610d3d573d6000803e3d6000fd5b505050506040513d601f19601f82011682018060405250810190610d6191906118da565b503373ffffffffffffffffffffffffffffffffffffffff167fbc84835063c693975166f00cffb19f01a94c2db55b1bf259238c5da3594e506682604051610da89190611a82565b60405180910390a250565b6000610dbd61136a565b905080600c0160008373ffffffffffffffffffffffffffffffffffffffff1673ffffffffffffffffffffffffffffffffffffffff16815260200190815260200160002060000160009054906101000a900460ff16610e55576001826040517f2eeb3571000000000000000000000000000000000000000000000000000000008152600401610e4c929190611d6f565b60405180910390fd5b5050565b6000610e6361136a565b90508181600c0160008573ffffffffffffffffffffffffffffffffffffffff1673ffffffffffffffffffffffffffffffffffffffff1681526020019081526020016000206004016000828254610eb99190611be2565b92505081905550505050565b6000610ecf61136a565b905080600c0160008473ffffffffffffffffffffffffffffffffffffffff1673ffffffffffffffffffffffffffffffffffffffff16815260200190815260200160002060040154821115610fa05780600c0160008473ffffffffffffffffffffffffffffffffffffffff1673ffffffffffffffffffffffffffffffffffffffff16815260200190815260200160002060040154826040517fa4e3bead000000000000000000000000000000000000000000000000000000008152600401610f97929190611b8a565b60405180910390fd5b8181600c0160008573ffffffffffffffffffffffffffffffffffffffff1673ffffffffffffffffffffffffffffffffffffffff1681526020019081526020016000206004016000828254610ff49190611d98565b92505081905550505050565b600061100a61136a565b905080600c0160008373ffffffffffffffffffffffffffffffffffffffff1673ffffffffffffffffffffffffffffffffffffffff16815260200190815260200160002060000160009054906101000a900460ff16156110a3576000826040517f2eeb357100000000000000000000000000000000000000000000000000000000815260040161109a929190611d6f565b60405180910390fd5b5050565b600080600183516110b89190611d98565b67ffffffffffffffff8111156110d1576110d0611594565b5b6040519080825280601f01601f1916602001820160405280156111035781602001600182028036833780820191505090505b5090506000600190505b83518110156111955783818151811061112957611128611dcc565b5b602001015160f81c60f81b826001836111429190611d98565b8151811061115357611152611dcc565b5b60200101907effffffffffffffffffffffffffffffffffffffffffffffffffffffffffffff1916908160001a905350808061118d90611dfb565b91505061110d565b5060007f79be667ef9dcbbac55a06295ce870b07029bfcdb2dce28d959f2815b16f81798905060007f483ada7726a3c4655da4fbfc0e1108a8fd17b448a68554199c47d08ffb10d4b8905060007ffffffffffffffffffffffffffffffffebaaedce6af48a03bbfd25e8cd03641419050600060016000806002866112199190611e72565b0361122557601b611228565b601c5b8660001b858061123b5761123a611e43565b5b888d60001c0960001b604051600081526020016040526040516112619493929190611f07565b6020604051602081039080840390855afa158015611283573d6000803e3d6000fd5b505050602060405103519050600073ffffffffffffffffffffffffffffffffffffffff868051906020012060001c1690508173ffffffffffffffffffffffffffffffffffffffff168173ffffffffffffffffffffffffffffffffffffffff1614965050505050505092915050565b60006112fb61136a565b9050600081600a01600085815260200190815260200160002060090160008473ffffffffffffffffffffffffffffffffffffffff1673ffffffffffffffffffffffffffffffffffffffff168152602001908152602001600020905061136483826003015461136f565b50505050565b600090565b6113798282611387565b6113838282610e59565b5050565b600061139161136a565b905080600c0160008473ffffffffffffffffffffffffffffffffffffffff1673ffffffffffffffffffffffffffffffffffffffff168152602001908152602001600020600501548211156114625780600c0160008473ffffffffffffffffffffffffffffffffffffffff1673ffffffffffffffffffffffffffffffffffffffff16815260200190815260200160002060050154826040517faf5a111b000000000000000000000000000000000000000000000000000000008152600401611459929190611b8a565b60405180910390fd5b8181600c0160008573ffffffffffffffffffffffffffffffffffffffff1673ffffffffffffffffffffffffffffffffffffffff16815260200190815260200160002060050160008282546114b69190611d98565b92505081905550505050565b8280546114ce90611936565b90600052602060002090601f0160209004810192826114f05760008555611537565b82601f1061150957805160ff1916838001178555611537565b82800160010185558215611537579182015b8281111561153657825182559160200191906001019061151b565b5b5090506115449190611548565b5090565b5b80821115611561576000816000905550600101611549565b5090565b6000604051905090565b600080fd5b600080fd5b600080fd5b600080fd5b6000601f19601f8301169050919050565b7f4e487b7100000000000000000000000000000000000000000000000000000000600052604160045260246000fd5b6115cc82611583565b810181811067ffffffffffffffff821117156115eb576115ea611594565b5b80604052505050565b60006115fe611565565b905061160a82826115c3565b919050565b600067ffffffffffffffff82111561162a57611629611594565b5b61163382611583565b9050602081019050919050565b82818337600083830152505050565b600061166261165d8461160f565b6115f4565b90508281526020810184848401111561167e5761167d61157e565b5b611689848285611640565b509392505050565b600082601f8301126116a6576116a5611579565b5b81356116b684826020860161164f565b91505092915050565b6000819050919050565b6116d2816116bf565b81146116dd57600080fd5b50565b6000813590506116ef816116c9565b92915050565b6000806000806080858703121561170f5761170e61156f565b5b600085013567ffffffffffffffff81111561172d5761172c611574565b5b61173987828801611691565b945050602061174a878288016116e0565b935050604061175b878288016116e0565b925050606061176c878288016116e0565b91505092959194509250565b60006020828403121561178e5761178d61156f565b5b600061179c848285016116e0565b91505092915050565b6000819050919050565b6117b8816117a5565b81146117c357600080fd5b50565b6000813590506117d5816117af565b92915050565b600080604083850312156117f2576117f161156f565b5b6000611800858286016117c6565b9250506020611811858286016117c6565b9150509250929050565b600073ffffffffffffffffffffffffffffffffffffffff82169050919050565b60006118468261181b565b9050919050565b6118568161183b565b82525050565b611865816116bf565b82525050565b6000606082019050611880600083018661184d565b61188d602083018561184d565b61189a604083018461185c565b949350505050565b60008115159050919050565b6118b7816118a2565b81146118c257600080fd5b50565b6000815190506118d4816118ae565b92915050565b6000602082840312156118f0576118ef61156f565b5b60006118fe848285016118c5565b91505092915050565b7f4e487b7100000000000000000000000000000000000000000000000000000000600052602260045260246000fd5b6000600282049050600182168061194e57607f821691505b60208210810361196157611960611907565b5b50919050565b600082825260208201905092915050565b60008190508160005260206000209050919050565b6000815461199a81611936565b6119a48186611967565b945060018216600081146119bf57600181146119d157611a04565b60ff1983168652602086019350611a04565b6119da85611978565b60005b838110156119fc578154818901526001820191506020810190506119dd565b808801955050505b50505092915050565b60006080820190508181036000830152611a27818761198d565b9050611a36602083018661185c565b611a43604083018561185c565b611a50606083018461185c565b95945050505050565b6000604082019050611a6e600083018561184d565b611a7b602083018461185c565b9392505050565b6000602082019050611a97600083018461185c565b92915050565b600081519050919050565b60005b83811015611ac6578082015181840152602081019050611aab565b83811115611ad5576000848401525b50505050565b6000611ae682611a9d565b611af08185611967565b9350611b00818560208601611aa8565b611b0981611583565b840191505092915050565b60006080820190508181036000830152611b2e8187611adb565b9050611b3d602083018661185c565b611b4a604083018561185c565b611b57606083018461185c565b95945050505050565b611b69816117a5565b82525050565b6000602082019050611b846000830184611b60565b92915050565b6000604082019050611b9f600083018561185c565b611bac602083018461185c565b9392505050565b7f4e487b7100000000000000000000000000000000000000000000000000000000600052601160045260246000fd5b6000611bed826116bf565b9150611bf8836116bf565b9250827fffffffffffffffffffffffffffffffffffffffffffffffffffffffffffffffff03821115611c2d57611c2c611bb3565b5b828201905092915050565b6000602082019050611c4d600083018461184d565b92915050565b6000604082019050611c68600083018561184d565b611c756020830184611b60565b9392505050565b600082825260208201905092915050565b60008190508160005260206000209050919050565b60008154611caf81611936565b611cb98186611c7c565b94506001821660008114611cd45760018114611ce657611d19565b60ff1983168652602086019350611d19565b611cef85611c8d565b60005b83811015611d1157815481890152600182019150602081019050611cf2565b808801955050505b50505092915050565b6000606082019050611d37600083018661184d565b8181036020830152611d498185611ca2565b9050611d586040830184611b60565b949350505050565b611d69816118a2565b82525050565b6000604082019050611d846000830185611d60565b611d91602083018461184d565b9392505050565b6000611da3826116bf565b9150611dae836116bf565b925082821015611dc157611dc0611bb3565b5b828203905092915050565b7f4e487b7100000000000000000000000000000000000000000000000000000000600052603260045260246000fd5b6000611e06826116bf565b91507fffffffffffffffffffffffffffffffffffffffffffffffffffffffffffffffff8203611e3857611e37611bb3565b5b600182019050919050565b7f4e487b7100000000000000000000000000000000000000000000000000000000600052601260045260246000fd5b6000611e7d826116bf565b9150611e88836116bf565b925082611e9857611e97611e43565b5b828206905092915050565b6000819050919050565b60008160001b9050919050565b6000611ed5611ed0611ecb84611ea3565b611ead565b6117a5565b9050919050565b611ee581611eba565b82525050565b600060ff82169050919050565b611f0181611eeb565b82525050565b6000608082019050611f1c6000830187611edc565b611f296020830186611ef8565b611f366040830185611b60565b611f436060830184611b60565b9594505050505056fea2646970667358221220dea0fe4ce213b10ddeb13874ff45bcd2763eced7382d3cab215d1e190e43f8c964736f6c634300080d0033",
  "devdoc": {
    "errors": {
      "ArchaeologistHasBeenAccused(address,bytes32)": [
        {
          "params": {
            "archaeologistAddress": "Address of accused archaeologist",
            "sarcoId": "ID of sarcophagus archaeologist has attempted to publish a share on"
          }
        }
      ],
      "EmbalmerClaimWindowPassed(uint256,uint256)": [
        {
          "params": {
            "currentTime": "Timestamp of the failed clean attempt",
            "embalmerClaimWindowEnd": "Latest time an embalmer may claim residual locked bonds the sarcophagus: resurrectionTime + gracePeriod + embalmerClaimWindow"
          }
        }
      ],
      "SarcophagusAlreadyCleaned(bytes32)": [
        {
          "params": {
            "sarcoId": "ID of sarcophagus archaeologist has attempted to publish a share on"
          }
        }
      ],
      "SenderNotEmbalmerOrAdmin(address)": [
        {
          "params": {
            "senderAddress": "Address of sender"
          }
        }
      ],
      "TooEarlyForAdminClean(uint256,uint256)": [
        {
          "params": {
            "currentTime": "Timestamp of the failed clean attempt",
            "embalmerClaimWindowEnd": "Latest time an embalmer may claim residual locked bonds the sarcophagus: resurrectionTime + gracePeriod + embalmerClaimWindow"
          }
        }
      ],
      "TooEarlyForClean(uint256,uint256)": [
        {
          "params": {
            "currentTime": "Timestamp of the failed clean attempt",
            "publishDeadline": "Latest time an archaeologist may publish a key share on a sarcophagus: esurrectionTime + gracePeriod"
          }
        }
      ],
      "TooEarlyForPublish(uint256,uint256)": [
        {
          "params": {
            "currentTime": "Timestamp of the failed publish attempt",
            "resurrectionTime": "Time after which the sarcophagus can be resurrected"
          }
        }
      ],
      "TooLateForPublish(uint256,uint256)": [
        {
          "params": {
            "currentTime": "Timestamp of the failed publish attempt",
            "publishDeadline": "Time after which the sarcophagus can no longer be resurrected  (resurrectionTime + gracePeriod)"
          }
        }
      ]
    },
    "kind": "dev",
    "methods": {
      "depositFreeBond(uint256)": {
        "params": {
          "amount": "The amount to deposit"
        }
      },
      "publishPrivateKey(bytes32,bytes32)": {
        "params": {
          "privateKey": "The private key the archaeologist is publishing",
          "sarcoId": "The identifier of the sarcophagus to unwrap"
        }
      },
      "registerArchaeologist(string,uint256,uint256,uint256)": {
        "params": {
          "freeBond": "How much bond the archaeologist wants to deposit during the register call (if any)",
          "maximumRewrapInterval": "The longest interval of time from a rewrap time the arch will accept for a resurrection",
          "minimumDiggingFee": "The archaeologist's minimum amount to accept for a digging fee",
          "peerId": "The libp2p identifier for the archaeologist"
        }
      },
      "updateArchaeologist(string,uint256,uint256,uint256)": {
        "params": {
          "maximumRewrapInterval": "The longest interval of time from a rewrap time the arch will accept for a resurrection freeBond How much bond the archaeologist wants to deposit during the update call (if any)",
          "minimumDiggingFee": "The archaeologist's minimum amount to accept for a digging fee",
          "peerId": "The libp2p identifier for the archaeologist"
        }
      },
      "withdrawFreeBond(uint256)": {
        "params": {
          "amount": "The amount to withdraw"
        }
      }
    },
    "version": 1
  },
  "userdoc": {
    "errors": {
      "ArchaeologistHasBeenAccused(address,bytes32)": [
        {
          "notice": "An archaeologist that has already been accused has attempted to publish a key share"
        }
      ],
      "EmbalmerClaimWindowPassed(uint256,uint256)": [
        {
          "notice": "Embalmer has attempted to clean a sarcophagus after the embalmerClaimWindow has passed"
        }
      ],
      "SarcophagusAlreadyCleaned(bytes32)": [
        {
          "notice": "Clean has been called on a sarcophagus that has already been cleaned"
        }
      ],
      "SenderNotEmbalmerOrAdmin(address)": [
        {
          "notice": "Clean has been called by someone other than the admin or embalmer of the sarcophagus"
        }
      ],
      "TooEarlyForAdminClean(uint256,uint256)": [
        {
          "notice": "Admin has attempted to clean a sarcophagus before the embalmerClaimWindow has passed"
        }
      ],
      "TooEarlyForClean(uint256,uint256)": [
        {
          "notice": "Clean has been called before the deadline for archaeologists to publish key shares has passed"
        }
      ],
      "TooEarlyForPublish(uint256,uint256)": [
        {
          "notice": "Archaeologist has attempted to publish a keyshare before the resurrection time"
        }
      ],
      "TooLateForPublish(uint256,uint256)": [
        {
          "notice": "Archaeologist has attempted to publish a keyshare after the end of the resurrection window"
        }
      ]
    },
    "kind": "user",
    "methods": {
      "depositFreeBond(uint256)": {
        "notice": "Deposits an archaeologist's free bond to the contract."
      },
      "publishPrivateKey(bytes32,bytes32)": {
        "notice": "Publishes the private key for which the archaeologist is responsible during the sarcophagus resurrection window. Pays digging fees to the archaeologist and releases their locked bond. Cannot be called on a compromised or buried sarcophagus."
      },
      "registerArchaeologist(string,uint256,uint256,uint256)": {
        "notice": "Registers the archaeologist profile"
      },
      "updateArchaeologist(string,uint256,uint256,uint256)": {
        "notice": "Updates the archaeologist profile"
      },
      "withdrawFreeBond(uint256)": {
        "notice": "Withdraws an archaeologist's free bond from the contract."
      },
      "withdrawReward()": {
        "notice": "Withdraws all rewards from an archaeologist's reward pool"
      }
    },
    "version": 1
  },
  "storageLayout": {
    "storage": [
      {
        "astId": 1881,
        "contract": "contracts/facets/ArchaeologistFacet.sol:ArchaeologistFacet",
        "label": "s",
        "offset": 0,
        "slot": "0",
        "type": "t_struct(AppStorage)5609_storage"
      }
    ],
    "types": {
      "t_address": {
        "encoding": "inplace",
        "label": "address",
        "numberOfBytes": "20"
      },
      "t_array(t_address)dyn_storage": {
        "base": "t_address",
        "encoding": "dynamic_array",
        "label": "address[]",
        "numberOfBytes": "32"
      },
      "t_array(t_bytes32)dyn_storage": {
        "base": "t_bytes32",
        "encoding": "dynamic_array",
        "label": "bytes32[]",
        "numberOfBytes": "32"
      },
      "t_bool": {
        "encoding": "inplace",
        "label": "bool",
        "numberOfBytes": "1"
      },
      "t_bytes32": {
        "encoding": "inplace",
        "label": "bytes32",
        "numberOfBytes": "32"
      },
      "t_bytes_memory_ptr": {
        "encoding": "bytes",
        "label": "bytes",
        "numberOfBytes": "32"
      },
      "t_bytes_storage": {
        "encoding": "bytes",
        "label": "bytes",
        "numberOfBytes": "32"
      },
      "t_contract(IERC20)664": {
        "encoding": "inplace",
        "label": "contract IERC20",
        "numberOfBytes": "20"
      },
      "t_mapping(t_address,t_array(t_bytes32)dyn_storage)": {
        "encoding": "mapping",
        "key": "t_address",
        "label": "mapping(address => bytes32[])",
        "numberOfBytes": "32",
        "value": "t_array(t_bytes32)dyn_storage"
      },
      "t_mapping(t_address,t_struct(ArchaeologistProfile)5301_storage)": {
        "encoding": "mapping",
        "key": "t_address",
        "label": "mapping(address => struct LibTypes.ArchaeologistProfile)",
        "numberOfBytes": "32",
        "value": "t_struct(ArchaeologistProfile)5301_storage"
      },
      "t_mapping(t_address,t_struct(CursedArchaeologist)5288_storage)": {
        "encoding": "mapping",
        "key": "t_address",
        "label": "mapping(address => struct LibTypes.CursedArchaeologist)",
        "numberOfBytes": "32",
        "value": "t_struct(CursedArchaeologist)5288_storage"
      },
      "t_mapping(t_address,t_uint256)": {
        "encoding": "mapping",
        "key": "t_address",
        "label": "mapping(address => uint256)",
        "numberOfBytes": "32",
        "value": "t_uint256"
      },
      "t_mapping(t_bytes32,t_struct(Sarcophagus)5279_storage)": {
        "encoding": "mapping",
        "key": "t_bytes32",
        "label": "mapping(bytes32 => struct LibTypes.Sarcophagus)",
        "numberOfBytes": "32",
        "value": "t_struct(Sarcophagus)5279_storage"
      },
      "t_mapping(t_bytes_memory_ptr,t_address)": {
        "encoding": "mapping",
        "key": "t_bytes_memory_ptr",
        "label": "mapping(bytes => address)",
        "numberOfBytes": "32",
        "value": "t_address"
      },
      "t_string_storage": {
        "encoding": "bytes",
        "label": "string",
        "numberOfBytes": "32"
      },
      "t_struct(AppStorage)5609_storage": {
        "encoding": "inplace",
        "label": "struct AppStorage",
        "members": [
          {
            "astId": 5544,
            "contract": "contracts/facets/ArchaeologistFacet.sol:ArchaeologistFacet",
            "label": "sarcoToken",
            "offset": 0,
            "slot": "0",
            "type": "t_contract(IERC20)664"
          },
          {
            "astId": 5546,
            "contract": "contracts/facets/ArchaeologistFacet.sol:ArchaeologistFacet",
            "label": "totalProtocolFees",
            "offset": 0,
            "slot": "1",
            "type": "t_uint256"
          },
          {
            "astId": 5549,
            "contract": "contracts/facets/ArchaeologistFacet.sol:ArchaeologistFacet",
            "label": "protocolFeeBasePercentage",
            "offset": 0,
            "slot": "2",
            "type": "t_uint256"
          },
          {
            "astId": 5551,
            "contract": "contracts/facets/ArchaeologistFacet.sol:ArchaeologistFacet",
            "label": "gracePeriod",
            "offset": 0,
            "slot": "3",
            "type": "t_uint256"
          },
          {
            "astId": 5553,
            "contract": "contracts/facets/ArchaeologistFacet.sol:ArchaeologistFacet",
            "label": "expirationThreshold",
            "offset": 0,
            "slot": "4",
            "type": "t_uint256"
          },
          {
            "astId": 5555,
            "contract": "contracts/facets/ArchaeologistFacet.sol:ArchaeologistFacet",
            "label": "embalmerClaimWindow",
            "offset": 0,
            "slot": "5",
            "type": "t_uint256"
          },
          {
            "astId": 5561,
            "contract": "contracts/facets/ArchaeologistFacet.sol:ArchaeologistFacet",
            "label": "embalmerSarcophagi",
            "offset": 0,
            "slot": "6",
            "type": "t_mapping(t_address,t_array(t_bytes32)dyn_storage)"
          },
          {
            "astId": 5566,
            "contract": "contracts/facets/ArchaeologistFacet.sol:ArchaeologistFacet",
            "label": "archaeologistSarcophagi",
            "offset": 0,
            "slot": "7",
            "type": "t_mapping(t_address,t_array(t_bytes32)dyn_storage)"
          },
          {
            "astId": 5571,
            "contract": "contracts/facets/ArchaeologistFacet.sol:ArchaeologistFacet",
            "label": "recipientSarcophagi",
            "offset": 0,
            "slot": "8",
            "type": "t_mapping(t_address,t_array(t_bytes32)dyn_storage)"
          },
          {
            "astId": 5575,
            "contract": "contracts/facets/ArchaeologistFacet.sol:ArchaeologistFacet",
            "label": "publicKeyToArchaeologistAddress",
            "offset": 0,
            "slot": "9",
            "type": "t_mapping(t_bytes_memory_ptr,t_address)"
          },
          {
            "astId": 5580,
            "contract": "contracts/facets/ArchaeologistFacet.sol:ArchaeologistFacet",
            "label": "sarcophagi",
            "offset": 0,
            "slot": "10",
            "type": "t_mapping(t_bytes32,t_struct(Sarcophagus)5279_storage)"
          },
          {
            "astId": 5583,
            "contract": "contracts/facets/ArchaeologistFacet.sol:ArchaeologistFacet",
            "label": "archaeologistProfileAddresses",
            "offset": 0,
            "slot": "11",
            "type": "t_array(t_address)dyn_storage"
          },
          {
            "astId": 5588,
            "contract": "contracts/facets/ArchaeologistFacet.sol:ArchaeologistFacet",
            "label": "archaeologistProfiles",
            "offset": 0,
            "slot": "12",
            "type": "t_mapping(t_address,t_struct(ArchaeologistProfile)5301_storage)"
          },
          {
            "astId": 5592,
            "contract": "contracts/facets/ArchaeologistFacet.sol:ArchaeologistFacet",
            "label": "archaeologistRewards",
            "offset": 0,
            "slot": "13",
            "type": "t_mapping(t_address,t_uint256)"
          },
          {
            "astId": 5598,
            "contract": "contracts/facets/ArchaeologistFacet.sol:ArchaeologistFacet",
            "label": "archaeologistSuccesses",
            "offset": 0,
            "slot": "14",
            "type": "t_mapping(t_address,t_array(t_bytes32)dyn_storage)"
          },
          {
            "astId": 5603,
            "contract": "contracts/facets/ArchaeologistFacet.sol:ArchaeologistFacet",
            "label": "archaeologistAccusals",
            "offset": 0,
            "slot": "15",
            "type": "t_mapping(t_address,t_array(t_bytes32)dyn_storage)"
          },
          {
            "astId": 5608,
            "contract": "contracts/facets/ArchaeologistFacet.sol:ArchaeologistFacet",
            "label": "archaeologistCleanups",
            "offset": 0,
            "slot": "16",
            "type": "t_mapping(t_address,t_array(t_bytes32)dyn_storage)"
          }
        ],
        "numberOfBytes": "544"
      },
      "t_struct(ArchaeologistProfile)5301_storage": {
        "encoding": "inplace",
        "label": "struct LibTypes.ArchaeologistProfile",
        "members": [
          {
            "astId": 5290,
            "contract": "contracts/facets/ArchaeologistFacet.sol:ArchaeologistFacet",
            "label": "exists",
            "offset": 0,
            "slot": "0",
            "type": "t_bool"
          },
          {
            "astId": 5292,
            "contract": "contracts/facets/ArchaeologistFacet.sol:ArchaeologistFacet",
            "label": "peerId",
            "offset": 0,
            "slot": "1",
            "type": "t_string_storage"
          },
          {
            "astId": 5294,
            "contract": "contracts/facets/ArchaeologistFacet.sol:ArchaeologistFacet",
            "label": "minimumDiggingFee",
            "offset": 0,
            "slot": "2",
            "type": "t_uint256"
          },
          {
            "astId": 5296,
            "contract": "contracts/facets/ArchaeologistFacet.sol:ArchaeologistFacet",
            "label": "maximumRewrapInterval",
            "offset": 0,
            "slot": "3",
            "type": "t_uint256"
          },
          {
            "astId": 5298,
            "contract": "contracts/facets/ArchaeologistFacet.sol:ArchaeologistFacet",
            "label": "freeBond",
            "offset": 0,
            "slot": "4",
            "type": "t_uint256"
          },
          {
            "astId": 5300,
            "contract": "contracts/facets/ArchaeologistFacet.sol:ArchaeologistFacet",
            "label": "cursedBond",
            "offset": 0,
            "slot": "5",
            "type": "t_uint256"
          }
        ],
        "numberOfBytes": "192"
      },
      "t_struct(CursedArchaeologist)5288_storage": {
        "encoding": "inplace",
        "label": "struct LibTypes.CursedArchaeologist",
        "members": [
          {
            "astId": 5281,
            "contract": "contracts/facets/ArchaeologistFacet.sol:ArchaeologistFacet",
            "label": "publicKey",
            "offset": 0,
            "slot": "0",
            "type": "t_bytes_storage"
          },
          {
            "astId": 5283,
            "contract": "contracts/facets/ArchaeologistFacet.sol:ArchaeologistFacet",
            "label": "privateKey",
            "offset": 0,
            "slot": "1",
            "type": "t_bytes32"
          },
          {
            "astId": 5285,
            "contract": "contracts/facets/ArchaeologistFacet.sol:ArchaeologistFacet",
            "label": "isAccused",
            "offset": 0,
            "slot": "2",
            "type": "t_bool"
          },
          {
            "astId": 5287,
            "contract": "contracts/facets/ArchaeologistFacet.sol:ArchaeologistFacet",
            "label": "diggingFee",
            "offset": 0,
            "slot": "3",
            "type": "t_uint256"
          }
        ],
        "numberOfBytes": "128"
      },
      "t_struct(Sarcophagus)5279_storage": {
        "encoding": "inplace",
        "label": "struct LibTypes.Sarcophagus",
        "members": [
          {
            "astId": 5254,
            "contract": "contracts/facets/ArchaeologistFacet.sol:ArchaeologistFacet",
            "label": "resurrectionTime",
            "offset": 0,
            "slot": "0",
            "type": "t_uint256"
          },
          {
            "astId": 5256,
            "contract": "contracts/facets/ArchaeologistFacet.sol:ArchaeologistFacet",
            "label": "isCompromised",
            "offset": 0,
            "slot": "1",
            "type": "t_bool"
          },
          {
            "astId": 5258,
            "contract": "contracts/facets/ArchaeologistFacet.sol:ArchaeologistFacet",
            "label": "isCleaned",
            "offset": 1,
            "slot": "1",
            "type": "t_bool"
          },
          {
            "astId": 5260,
            "contract": "contracts/facets/ArchaeologistFacet.sol:ArchaeologistFacet",
            "label": "name",
            "offset": 0,
            "slot": "2",
            "type": "t_string_storage"
          },
          {
            "astId": 5262,
            "contract": "contracts/facets/ArchaeologistFacet.sol:ArchaeologistFacet",
            "label": "threshold",
            "offset": 0,
            "slot": "3",
            "type": "t_uint8"
          },
          {
            "astId": 5264,
            "contract": "contracts/facets/ArchaeologistFacet.sol:ArchaeologistFacet",
            "label": "maximumRewrapInterval",
            "offset": 0,
            "slot": "4",
            "type": "t_uint256"
          },
          {
            "astId": 5266,
            "contract": "contracts/facets/ArchaeologistFacet.sol:ArchaeologistFacet",
            "label": "arweaveTxId",
            "offset": 0,
            "slot": "5",
            "type": "t_string_storage"
          },
          {
            "astId": 5268,
            "contract": "contracts/facets/ArchaeologistFacet.sol:ArchaeologistFacet",
            "label": "embalmerAddress",
            "offset": 0,
            "slot": "6",
            "type": "t_address"
          },
          {
            "astId": 5270,
            "contract": "contracts/facets/ArchaeologistFacet.sol:ArchaeologistFacet",
            "label": "recipientAddress",
            "offset": 0,
            "slot": "7",
            "type": "t_address"
          },
          {
            "astId": 5273,
            "contract": "contracts/facets/ArchaeologistFacet.sol:ArchaeologistFacet",
            "label": "cursedArchaeologistAddresses",
            "offset": 0,
            "slot": "8",
            "type": "t_array(t_address)dyn_storage"
          },
          {
            "astId": 5278,
            "contract": "contracts/facets/ArchaeologistFacet.sol:ArchaeologistFacet",
            "label": "cursedArchaeologists",
            "offset": 0,
            "slot": "9",
            "type": "t_mapping(t_address,t_struct(CursedArchaeologist)5288_storage)"
          }
        ],
        "numberOfBytes": "320"
      },
      "t_uint256": {
        "encoding": "inplace",
        "label": "uint256",
        "numberOfBytes": "32"
      },
      "t_uint8": {
        "encoding": "inplace",
        "label": "uint8",
        "numberOfBytes": "1"
      }
    }
  }
}