{
  "address": "0x639980c5404764a45d9762b2a3acc8991C1ce7B6",
  "abi": [
    {
      "inputs": [
        {
          "internalType": "address",
          "name": "archaeologistAddress",
          "type": "address"
        }
      ],
      "name": "ArchaeologistAlreadyPublishedPrivateKey",
      "type": "error"
    },
    {
      "inputs": [
        {
          "internalType": "address",
          "name": "archaeologistAddress",
          "type": "address"
        },
        {
          "internalType": "bytes32",
          "name": "sarcoId",
          "type": "bytes32"
        }
      ],
      "name": "ArchaeologistHasBeenAccused",
      "type": "error"
    },
    {
      "inputs": [
        {
          "internalType": "address",
          "name": "archaeologist",
          "type": "address"
        }
      ],
      "name": "ArchaeologistNotOnSarcophagus",
      "type": "error"
    },
    {
      "inputs": [
        {
          "internalType": "bool",
          "name": "exists",
          "type": "bool"
        },
        {
          "internalType": "address",
          "name": "archaeologist",
          "type": "address"
        }
      ],
      "name": "ArchaeologistProfileExistsShouldBe",
      "type": "error"
    },
    {
      "inputs": [
        {
          "internalType": "address",
          "name": "archaeologistAddress",
          "type": "address"
        },
        {
          "internalType": "bytes",
          "name": "publicKey",
          "type": "bytes"
        },
        {
          "internalType": "bytes32",
          "name": "privateKey",
          "type": "bytes32"
        }
      ],
      "name": "ArchaeologistPublishedIncorrectPrivateKey",
      "type": "error"
    },
    {
      "inputs": [
        {
          "internalType": "uint256",
          "name": "cursedBond",
          "type": "uint256"
        },
        {
          "internalType": "uint256",
          "name": "amount",
          "type": "uint256"
        }
      ],
      "name": "NotEnoughCursedBond",
      "type": "error"
    },
    {
      "inputs": [
        {
          "internalType": "uint256",
          "name": "freeBond",
          "type": "uint256"
        },
        {
          "internalType": "uint256",
          "name": "amount",
          "type": "uint256"
        }
      ],
      "name": "NotEnoughFreeBond",
      "type": "error"
    },
    {
      "inputs": [
        {
          "internalType": "bytes32",
          "name": "sarcoId",
          "type": "bytes32"
        }
      ],
      "name": "SarcophagusCompromised",
      "type": "error"
    },
    {
      "inputs": [
        {
          "internalType": "bytes32",
          "name": "sarcoId",
          "type": "bytes32"
        }
      ],
      "name": "SarcophagusDoesNotExist",
      "type": "error"
    },
    {
      "inputs": [
        {
          "internalType": "bytes32",
          "name": "sarcoId",
          "type": "bytes32"
        }
      ],
      "name": "SarcophagusInactive",
      "type": "error"
    },
    {
      "inputs": [
        {
          "internalType": "uint256",
          "name": "currentTime",
          "type": "uint256"
        },
        {
          "internalType": "uint256",
          "name": "resurrectionTime",
          "type": "uint256"
        }
      ],
      "name": "TooEarlyForPublish",
      "type": "error"
    },
    {
      "inputs": [
        {
          "internalType": "uint256",
          "name": "currentTime",
          "type": "uint256"
        },
        {
          "internalType": "uint256",
          "name": "publishDeadline",
          "type": "uint256"
        }
      ],
      "name": "TooLateForPublish",
      "type": "error"
    },
    {
      "anonymous": false,
      "inputs": [
        {
          "indexed": true,
          "internalType": "address",
          "name": "archaeologist",
          "type": "address"
        },
        {
          "indexed": false,
          "internalType": "uint256",
          "name": "depositedBond",
          "type": "uint256"
        }
      ],
      "name": "DepositFreeBond",
      "type": "event"
    },
    {
      "anonymous": false,
      "inputs": [
        {
          "indexed": true,
          "internalType": "bytes32",
          "name": "sarcoId",
          "type": "bytes32"
        },
        {
          "indexed": false,
          "internalType": "bytes32",
          "name": "privateKey",
          "type": "bytes32"
        }
      ],
      "name": "PublishPrivateKey",
      "type": "event"
    },
    {
      "anonymous": false,
      "inputs": [
        {
          "indexed": true,
          "internalType": "address",
          "name": "archaeologist",
          "type": "address"
        },
        {
          "indexed": false,
          "internalType": "string",
          "name": "peerId",
          "type": "string"
        },
        {
          "indexed": false,
          "internalType": "uint256",
          "name": "minimumDiggingFee",
          "type": "uint256"
        },
        {
          "indexed": false,
          "internalType": "uint256",
          "name": "maximumRewrapInterval",
          "type": "uint256"
        },
        {
          "indexed": false,
          "internalType": "uint256",
          "name": "freeBond",
          "type": "uint256"
        }
      ],
      "name": "RegisterArchaeologist",
      "type": "event"
    },
    {
      "anonymous": false,
      "inputs": [
        {
          "indexed": true,
          "internalType": "address",
          "name": "archaeologist",
          "type": "address"
        },
        {
          "indexed": false,
          "internalType": "string",
          "name": "peerId",
          "type": "string"
        },
        {
          "indexed": false,
          "internalType": "uint256",
          "name": "minimumDiggingFee",
          "type": "uint256"
        },
        {
          "indexed": false,
          "internalType": "uint256",
          "name": "maximumRewrapInterval",
          "type": "uint256"
        },
        {
          "indexed": false,
          "internalType": "uint256",
          "name": "freeBond",
          "type": "uint256"
        }
      ],
      "name": "UpdateArchaeologist",
      "type": "event"
    },
    {
      "anonymous": false,
      "inputs": [
        {
          "indexed": true,
          "internalType": "address",
          "name": "archaeologist",
          "type": "address"
        },
        {
          "indexed": false,
          "internalType": "uint256",
          "name": "withdrawnBond",
          "type": "uint256"
        }
      ],
      "name": "WithdrawFreeBond",
      "type": "event"
    },
    {
      "anonymous": false,
      "inputs": [
        {
          "indexed": true,
          "internalType": "address",
          "name": "archaeologist",
          "type": "address"
        },
        {
          "indexed": false,
          "internalType": "uint256",
          "name": "withdrawnReward",
          "type": "uint256"
        }
      ],
      "name": "WithdrawReward",
      "type": "event"
    },
    {
      "inputs": [
        {
          "internalType": "uint256",
          "name": "amount",
          "type": "uint256"
        }
      ],
      "name": "depositFreeBond",
      "outputs": [],
      "stateMutability": "nonpayable",
      "type": "function"
    },
    {
      "inputs": [
        {
          "internalType": "bytes32",
          "name": "sarcoId",
          "type": "bytes32"
        },
        {
          "internalType": "bytes32",
          "name": "privateKey",
          "type": "bytes32"
        }
      ],
      "name": "publishPrivateKey",
      "outputs": [],
      "stateMutability": "nonpayable",
      "type": "function"
    },
    {
      "inputs": [
        {
          "internalType": "string",
          "name": "peerId",
          "type": "string"
        },
        {
          "internalType": "uint256",
          "name": "minimumDiggingFee",
          "type": "uint256"
        },
        {
          "internalType": "uint256",
          "name": "maximumRewrapInterval",
          "type": "uint256"
        },
        {
          "internalType": "uint256",
          "name": "freeBond",
          "type": "uint256"
        }
      ],
      "name": "registerArchaeologist",
      "outputs": [],
      "stateMutability": "nonpayable",
      "type": "function"
    },
    {
      "inputs": [
        {
          "internalType": "string",
          "name": "peerId",
          "type": "string"
        },
        {
          "internalType": "uint256",
          "name": "minimumDiggingFee",
          "type": "uint256"
        },
        {
          "internalType": "uint256",
          "name": "maximumRewrapInterval",
          "type": "uint256"
        },
        {
          "internalType": "uint256",
          "name": "freeBond",
          "type": "uint256"
        }
      ],
      "name": "updateArchaeologist",
      "outputs": [],
      "stateMutability": "nonpayable",
      "type": "function"
    },
    {
      "inputs": [
        {
          "internalType": "uint256",
          "name": "amount",
          "type": "uint256"
        }
      ],
      "name": "withdrawFreeBond",
      "outputs": [],
      "stateMutability": "nonpayable",
      "type": "function"
    },
    {
      "inputs": [],
      "name": "withdrawReward",
      "outputs": [],
      "stateMutability": "nonpayable",
      "type": "function"
    }
  ],
  "transactionHash": "0x09d580100ee8470305cf180034291a0b3761730240867576975a0f28459c8819",
  "args": [],
  "numDeployments": 1,
  "solcInputHash": "9b1a1cbc137d98a70bc447679d5e9b0d",
  "bytecode": "0x608060405234801561001057600080fd5b50611fc4806100206000396000f3fe608060405234801561001057600080fd5b50600436106100625760003560e01c80630c4c35f014610067578063364e080114610083578063449f11a61461009f5780636a5ac74c146100bb578063a4110dbe146100d7578063c885bc58146100f3575b600080fd5b610081600480360381019061007c9190611737565b6100fd565b005b61009d600480360381019061009891906117ba565b6102a6565b005b6100b960048036038101906100b49190611737565b6103ba565b005b6100d560048036038101906100d091906117ba565b61062e565b005b6100f160048036038101906100ec919061181d565b610744565b005b6100fb610be4565b005b6000610107610d72565b905061011233610d9f565b600081600c0160003373ffffffffffffffffffffffffffffffffffffffff1673ffffffffffffffffffffffffffffffffffffffff16815260200190815260200160002090508581600101908051906020019061016f929190611504565b50848160020181905550838160030181905550600083111561023b576101953384610e45565b8160000160009054906101000a900473ffffffffffffffffffffffffffffffffffffffff1673ffffffffffffffffffffffffffffffffffffffff166323b872dd3330866040518463ffffffff1660e01b81526004016101f6939291906118ad565b6020604051808303816000875af1158015610215573d6000803e3d6000fd5b505050506040513d601f19601f82011682018060405250810190610239919061191c565b505b3373ffffffffffffffffffffffffffffffffffffffff167f4df9330dcb4af4b522d063da8a473d6711cdd390feef75f059a663a76c270139826001018360020154846003015485600401546040516102969493929190611a4f565b60405180910390a2505050505050565b60006102b0610d72565b90506102bb33610d9f565b6102c53383610eb1565b8060000160009054906101000a900473ffffffffffffffffffffffffffffffffffffffff1673ffffffffffffffffffffffffffffffffffffffff1663a9059cbb33846040518363ffffffff1660e01b8152600401610324929190611a9b565b6020604051808303816000875af1158015610343573d6000803e3d6000fd5b505050506040513d601f19601f82011682018060405250810190610367919061191c565b503373ffffffffffffffffffffffffffffffffffffffff167fd91b1e491a880123721b161dbbf8249668b0c546077d7ba4d0016441ca9d8f45836040516103ae9190611ac4565b60405180910390a25050565b60006103c4610d72565b90506103cf33610fec565b60006040518060c001604052806001151581526020018781526020018681526020018581526020018481526020016000815250905060008311156104b3578160000160009054906101000a900473ffffffffffffffffffffffffffffffffffffffff1673ffffffffffffffffffffffffffffffffffffffff166323b872dd3330866040518463ffffffff1660e01b815260040161046e939291906118ad565b6020604051808303816000875af115801561048d573d6000803e3d6000fd5b505050506040513d601f19601f820116820180604052508101906104b1919061191c565b505b8082600c0160003373ffffffffffffffffffffffffffffffffffffffff1673ffffffffffffffffffffffffffffffffffffffff16815260200190815260200160002060008201518160000160006101000a81548160ff0219169083151502179055506020820151816001019080519060200190610531929190611504565b5060408201518160020155606082015181600301556080820151816004015560a0820151816005015590505081600b01339080600181540180825580915050600190039060005260206000200160009091909190916101000a81548173ffffffffffffffffffffffffffffffffffffffff021916908373ffffffffffffffffffffffffffffffffffffffff1602179055503373ffffffffffffffffffffffffffffffffffffffff167fec728a18db560dc21e59ae36132eb1e1c1b00d056a88ee755e0940e471ad591e826020015183604001518460600151856080015160405161061e9493929190611b56565b60405180910390a2505050505050565b6000610638610d72565b905061064333610d9f565b61064d3383610e45565b8060000160009054906101000a900473ffffffffffffffffffffffffffffffffffffffff1673ffffffffffffffffffffffffffffffffffffffff166323b872dd3330856040518463ffffffff1660e01b81526004016106ae939291906118ad565b6020604051808303816000875af11580156106cd573d6000803e3d6000fd5b505050506040513d601f19601f820116820180604052508101906106f1919061191c565b503373ffffffffffffffffffffffffffffffffffffffff167ff882a0847c57aefe6f6c7df2098dd0afd122eb0e886199e223651b8e45fda823836040516107389190611ac4565b60405180910390a25050565b600061074e610d72565b9050600081600a016000858152602001908152602001600020905060008160000154036107b257836040517f018da6880000000000000000000000000000000000000000000000000000000081526004016107a99190611bb1565b60405180910390fd5b8060010160009054906101000a900460ff161561080657836040517f9af72b860000000000000000000000000000000000000000000000000000000081526004016107fd9190611bb1565b60405180910390fd5b7fffffffffffffffffffffffffffffffffffffffffffffffffffffffffffffffff81600001540361086e57836040517f7c6a6d700000000000000000000000000000000000000000000000000000000081526004016108659190611bb1565b60405180910390fd5b80600001544210156108bd574281600001546040517f482768090000000000000000000000000000000000000000000000000000000081526004016108b4929190611bcc565b60405180910390fd5b816003015481600001546108d19190611c24565b42111561092a5742826003015482600001546108ed9190611c24565b6040517f4ccffab1000000000000000000000000000000000000000000000000000000008152600401610921929190611bcc565b60405180910390fd5b600082600a01600086815260200190815260200160002060090160003373ffffffffffffffffffffffffffffffffffffffff1673ffffffffffffffffffffffffffffffffffffffff1681526020019081526020016000209050600081600001805461099490611978565b9050036109d857336040517f82881f030000000000000000000000000000000000000000000000000000000081526004016109cf9190611c7a565b60405180910390fd5b8060020160009054906101000a900460ff1615610a2e5733856040517fa40b4423000000000000000000000000000000000000000000000000000000008152600401610a25929190611c95565b60405180910390fd5b6000801b816001015414610a7957336040517f7b06b177000000000000000000000000000000000000000000000000000000008152600401610a709190611c7a565b60405180910390fd5b610a868482600001611093565b610ace573381600001856040517f5a95e91c000000000000000000000000000000000000000000000000000000008152600401610ac593929190611d64565b60405180910390fd5b838160010181905550610ae18533611338565b806003015483600d0160003373ffffffffffffffffffffffffffffffffffffffff1673ffffffffffffffffffffffffffffffffffffffff1681526020019081526020016000206000828254610b369190611c24565b9250508190555082600e0160003373ffffffffffffffffffffffffffffffffffffffff1673ffffffffffffffffffffffffffffffffffffffff168152602001908152602001600020859080600181540180825580915050600190039060005260206000200160009091909190915055847f3e5a6fa1aea4d7b93ca7b96ea3b3a42e221934c707be2efa8c5678da3d345f2d85604051610bd59190611bb1565b60405180910390a25050505050565b6000610bee610d72565b9050600081600d0160003373ffffffffffffffffffffffffffffffffffffffff1673ffffffffffffffffffffffffffffffffffffffff168152602001908152602001600020549050600082600d0160003373ffffffffffffffffffffffffffffffffffffffff1673ffffffffffffffffffffffffffffffffffffffff168152602001908152602001600020819055508160000160009054906101000a900473ffffffffffffffffffffffffffffffffffffffff1673ffffffffffffffffffffffffffffffffffffffff1663a9059cbb33836040518363ffffffff1660e01b8152600401610cdc929190611a9b565b6020604051808303816000875af1158015610cfb573d6000803e3d6000fd5b505050506040513d601f19601f82011682018060405250810190610d1f919061191c565b503373ffffffffffffffffffffffffffffffffffffffff167fbc84835063c693975166f00cffb19f01a94c2db55b1bf259238c5da3594e506682604051610d669190611ac4565b60405180910390a25050565b6000807fe7e19c3fbf84f26ac171b2009b923863c68cc47279d5c6e6a019ce74e2daf4f490508091505090565b6000610da9610d72565b905080600c0160008373ffffffffffffffffffffffffffffffffffffffff1673ffffffffffffffffffffffffffffffffffffffff16815260200190815260200160002060000160009054906101000a900460ff16610e41576001826040517f2eeb3571000000000000000000000000000000000000000000000000000000008152600401610e38929190611db1565b60405180910390fd5b5050565b6000610e4f610d72565b90508181600c0160008573ffffffffffffffffffffffffffffffffffffffff1673ffffffffffffffffffffffffffffffffffffffff1681526020019081526020016000206004016000828254610ea59190611c24565b92505081905550505050565b6000610ebb610d72565b905080600c0160008473ffffffffffffffffffffffffffffffffffffffff1673ffffffffffffffffffffffffffffffffffffffff16815260200190815260200160002060040154821115610f8c5780600c0160008473ffffffffffffffffffffffffffffffffffffffff1673ffffffffffffffffffffffffffffffffffffffff16815260200190815260200160002060040154826040517fa4e3bead000000000000000000000000000000000000000000000000000000008152600401610f83929190611bcc565b60405180910390fd5b8181600c0160008573ffffffffffffffffffffffffffffffffffffffff1673ffffffffffffffffffffffffffffffffffffffff1681526020019081526020016000206004016000828254610fe09190611dda565b92505081905550505050565b6000610ff6610d72565b905080600c0160008373ffffffffffffffffffffffffffffffffffffffff1673ffffffffffffffffffffffffffffffffffffffff16815260200190815260200160002060000160009054906101000a900460ff161561108f576000826040517f2eeb3571000000000000000000000000000000000000000000000000000000008152600401611086929190611db1565b60405180910390fd5b5050565b60008060018380546110a490611978565b90506110b09190611dda565b67ffffffffffffffff8111156110c9576110c86115d6565b5b6040519080825280601f01601f1916602001820160405280156110fb5781602001600182028036833780820191505090505b5090506000600190505b83805461111190611978565b90508110156111dc578381815461112790611978565b811061113657611135611e0e565b5b8154600116156111555790600052602060002090602091828204019190065b9054901a7f010000000000000000000000000000000000000000000000000000000000000002826001836111899190611dda565b8151811061119a57611199611e0e565b5b60200101907effffffffffffffffffffffffffffffffffffffffffffffffffffffffffffff1916908160001a90535080806111d490611e3d565b915050611105565b5060007f79be667ef9dcbbac55a06295ce870b07029bfcdb2dce28d959f2815b16f81798905060007f483ada7726a3c4655da4fbfc0e1108a8fd17b448a68554199c47d08ffb10d4b8905060007ffffffffffffffffffffffffffffffffebaaedce6af48a03bbfd25e8cd03641419050600060016000806002866112609190611eb4565b0361126c57601b61126f565b601c5b8660001b858061128257611281611e85565b5b888d60001c0960001b604051600081526020016040526040516112a89493929190611f49565b6020604051602081039080840390855afa1580156112ca573d6000803e3d6000fd5b505050602060405103519050600073ffffffffffffffffffffffffffffffffffffffff868051906020012060001c1690508173ffffffffffffffffffffffffffffffffffffffff168173ffffffffffffffffffffffffffffffffffffffff1614965050505050505092915050565b6000611342610d72565b9050600081600a01600085815260200190815260200160002060090160008473ffffffffffffffffffffffffffffffffffffffff1673ffffffffffffffffffffffffffffffffffffffff16815260200190815260200160002090506113ab8382600301546113b1565b50505050565b6113bb82826113c9565b6113c58282610e45565b5050565b60006113d3610d72565b905080600c0160008473ffffffffffffffffffffffffffffffffffffffff1673ffffffffffffffffffffffffffffffffffffffff168152602001908152602001600020600501548211156114a45780600c0160008473ffffffffffffffffffffffffffffffffffffffff1673ffffffffffffffffffffffffffffffffffffffff16815260200190815260200160002060050154826040517faf5a111b00000000000000000000000000000000000000000000000000000000815260040161149b929190611bcc565b60405180910390fd5b8181600c0160008573ffffffffffffffffffffffffffffffffffffffff1673ffffffffffffffffffffffffffffffffffffffff16815260200190815260200160002060050160008282546114f89190611dda565b92505081905550505050565b82805461151090611978565b90600052602060002090601f0160209004810192826115325760008555611579565b82601f1061154b57805160ff1916838001178555611579565b82800160010185558215611579579182015b8281111561157857825182559160200191906001019061155d565b5b509050611586919061158a565b5090565b5b808211156115a357600081600090555060010161158b565b5090565b6000604051905090565b600080fd5b600080fd5b600080fd5b600080fd5b6000601f19601f8301169050919050565b7f4e487b7100000000000000000000000000000000000000000000000000000000600052604160045260246000fd5b61160e826115c5565b810181811067ffffffffffffffff8211171561162d5761162c6115d6565b5b80604052505050565b60006116406115a7565b905061164c8282611605565b919050565b600067ffffffffffffffff82111561166c5761166b6115d6565b5b611675826115c5565b9050602081019050919050565b82818337600083830152505050565b60006116a461169f84611651565b611636565b9050828152602081018484840111156116c0576116bf6115c0565b5b6116cb848285611682565b509392505050565b600082601f8301126116e8576116e76115bb565b5b81356116f8848260208601611691565b91505092915050565b6000819050919050565b61171481611701565b811461171f57600080fd5b50565b6000813590506117318161170b565b92915050565b60008060008060808587031215611751576117506115b1565b5b600085013567ffffffffffffffff81111561176f5761176e6115b6565b5b61177b878288016116d3565b945050602061178c87828801611722565b935050604061179d87828801611722565b92505060606117ae87828801611722565b91505092959194509250565b6000602082840312156117d0576117cf6115b1565b5b60006117de84828501611722565b91505092915050565b6000819050919050565b6117fa816117e7565b811461180557600080fd5b50565b600081359050611817816117f1565b92915050565b60008060408385031215611834576118336115b1565b5b600061184285828601611808565b925050602061185385828601611808565b9150509250929050565b600073ffffffffffffffffffffffffffffffffffffffff82169050919050565b60006118888261185d565b9050919050565b6118988161187d565b82525050565b6118a781611701565b82525050565b60006060820190506118c2600083018661188f565b6118cf602083018561188f565b6118dc604083018461189e565b949350505050565b60008115159050919050565b6118f9816118e4565b811461190457600080fd5b50565b600081519050611916816118f0565b92915050565b600060208284031215611932576119316115b1565b5b600061194084828501611907565b91505092915050565b7f4e487b7100000000000000000000000000000000000000000000000000000000600052602260045260246000fd5b6000600282049050600182168061199057607f821691505b6020821081036119a3576119a2611949565b5b50919050565b600082825260208201905092915050565b60008190508160005260206000209050919050565b600081546119dc81611978565b6119e681866119a9565b94506001821660008114611a015760018114611a1357611a46565b60ff1983168652602086019350611a46565b611a1c856119ba565b60005b83811015611a3e57815481890152600182019150602081019050611a1f565b808801955050505b50505092915050565b60006080820190508181036000830152611a6981876119cf565b9050611a78602083018661189e565b611a85604083018561189e565b611a92606083018461189e565b95945050505050565b6000604082019050611ab0600083018561188f565b611abd602083018461189e565b9392505050565b6000602082019050611ad9600083018461189e565b92915050565b600081519050919050565b60005b83811015611b08578082015181840152602081019050611aed565b83811115611b17576000848401525b50505050565b6000611b2882611adf565b611b3281856119a9565b9350611b42818560208601611aea565b611b4b816115c5565b840191505092915050565b60006080820190508181036000830152611b708187611b1d565b9050611b7f602083018661189e565b611b8c604083018561189e565b611b99606083018461189e565b95945050505050565b611bab816117e7565b82525050565b6000602082019050611bc66000830184611ba2565b92915050565b6000604082019050611be1600083018561189e565b611bee602083018461189e565b9392505050565b7f4e487b7100000000000000000000000000000000000000000000000000000000600052601160045260246000fd5b6000611c2f82611701565b9150611c3a83611701565b9250827fffffffffffffffffffffffffffffffffffffffffffffffffffffffffffffffff03821115611c6f57611c6e611bf5565b5b828201905092915050565b6000602082019050611c8f600083018461188f565b92915050565b6000604082019050611caa600083018561188f565b611cb76020830184611ba2565b9392505050565b600082825260208201905092915050565b60008190508160005260206000209050919050565b60008154611cf181611978565b611cfb8186611cbe565b94506001821660008114611d165760018114611d2857611d5b565b60ff1983168652602086019350611d5b565b611d3185611ccf565b60005b83811015611d5357815481890152600182019150602081019050611d34565b808801955050505b50505092915050565b6000606082019050611d79600083018661188f565b8181036020830152611d8b8185611ce4565b9050611d9a6040830184611ba2565b949350505050565b611dab816118e4565b82525050565b6000604082019050611dc66000830185611da2565b611dd3602083018461188f565b9392505050565b6000611de582611701565b9150611df083611701565b925082821015611e0357611e02611bf5565b5b828203905092915050565b7f4e487b7100000000000000000000000000000000000000000000000000000000600052603260045260246000fd5b6000611e4882611701565b91507fffffffffffffffffffffffffffffffffffffffffffffffffffffffffffffffff8203611e7a57611e79611bf5565b5b600182019050919050565b7f4e487b7100000000000000000000000000000000000000000000000000000000600052601260045260246000fd5b6000611ebf82611701565b9150611eca83611701565b925082611eda57611ed9611e85565b5b828206905092915050565b6000819050919050565b60008160001b9050919050565b6000611f17611f12611f0d84611ee5565b611eef565b6117e7565b9050919050565b611f2781611efc565b82525050565b600060ff82169050919050565b611f4381611f2d565b82525050565b6000608082019050611f5e6000830187611f1e565b611f6b6020830186611f3a565b611f786040830185611ba2565b611f856060830184611ba2565b9594505050505056fea2646970667358221220fbee25bb5010b1116d98b9198e50ef0cb35088d2517d84ea5fc72f4bc8da6f2564736f6c634300080d0033",
  "devdoc": {
    "errors": {
      "ArchaeologistAlreadyPublishedPrivateKey(address)": [
        {
          "params": {
            "archaeologistAddress": "address of publishing archaeologist"
          }
        }
      ],
      "ArchaeologistHasBeenAccused(address,bytes32)": [
        {
          "params": {
            "archaeologistAddress": "Address of accused archaeologist who is attempting to publish their private key",
            "sarcoId": "ID of sarcophagus archaeologist has attempted to publish a key on"
          }
        }
      ],
      "ArchaeologistPublishedIncorrectPrivateKey(address,bytes,bytes32)": [
        {
          "params": {
            "archaeologistAddress": "address of publishing archaeologist",
            "privateKey": "privateKey the archaeologist has attempted to publish",
            "publicKey": "publicKey stored for archaeologist on the sarcophagus"
          }
        }
      ],
      "TooEarlyForPublish(uint256,uint256)": [
        {
          "params": {
            "currentTime": "Timestamp of the failed publish attempt",
            "resurrectionTime": "Time after which the sarcophagus can be resurrected"
          }
        }
      ],
      "TooLateForPublish(uint256,uint256)": [
        {
          "params": {
            "currentTime": "Timestamp of the failed publish attempt",
            "publishDeadline": "Time after which the sarcophagus can no longer be resurrected  (resurrectionTime + gracePeriod)"
          }
        }
      ]
    },
    "events": {
      "PublishPrivateKey(bytes32,bytes32)": {
        "params": {
          "privateKey": "private key that has been published",
          "sarcoId": "ID of sarcophagus archaeologist has published the private key on"
        }
      }
    },
    "kind": "dev",
    "methods": {
      "depositFreeBond(uint256)": {
        "params": {
          "amount": "The amount to deposit"
        }
      },
      "publishPrivateKey(bytes32,bytes32)": {
        "params": {
          "privateKey": "The private key the archaeologist is publishing",
          "sarcoId": "The identifier of the sarcophagus to unwrap"
        }
      },
      "registerArchaeologist(string,uint256,uint256,uint256)": {
        "params": {
          "freeBond": "How much bond the archaeologist wants to deposit during the register call (if any)",
          "maximumRewrapInterval": "The longest interval of time from a rewrap time the arch will accept for a resurrection",
          "minimumDiggingFee": "The archaeologist's minimum amount to accept for a digging fee",
          "peerId": "The libp2p identifier for the archaeologist"
        }
      },
      "updateArchaeologist(string,uint256,uint256,uint256)": {
        "params": {
          "maximumRewrapInterval": "The longest interval of time from a rewrap time the arch will accept for a resurrection freeBond How much bond the archaeologist wants to deposit during the update call (if any)",
          "minimumDiggingFee": "The archaeologist's minimum amount to accept for a digging fee",
          "peerId": "The libp2p identifier for the archaeologist"
        }
      },
      "withdrawFreeBond(uint256)": {
        "params": {
          "amount": "The amount to withdraw"
        }
      }
    },
    "version": 1
  },
  "userdoc": {
    "errors": {
      "ArchaeologistAlreadyPublishedPrivateKey(address)": [
        {
          "notice": "Archaeologist has attempted to publish a key for a sarcophagus twice"
        }
      ],
      "ArchaeologistHasBeenAccused(address,bytes32)": [
        {
          "notice": "An archaeologist that has already been successfully accused has attempted to publish their private key"
        }
      ],
      "ArchaeologistPublishedIncorrectPrivateKey(address,bytes,bytes32)": [
        {
          "notice": "Archaeologist has attempted to publish the incorrect private key for a sarcophagus"
        }
      ],
      "TooEarlyForPublish(uint256,uint256)": [
        {
          "notice": "Archaeologist has attempted to publish a key before the resurrection time"
        }
      ],
      "TooLateForPublish(uint256,uint256)": [
        {
          "notice": "Archaeologist has attempted to publish a key after the end of the resurrection window"
        }
      ]
    },
    "events": {
      "PublishPrivateKey(bytes32,bytes32)": {
        "notice": "Emitted when an archaeologist successfully publishes their private key for a sarcophagus"
      }
    },
    "kind": "user",
    "methods": {
      "depositFreeBond(uint256)": {
        "notice": "Deposits an archaeologist's free bond to the contract."
      },
      "publishPrivateKey(bytes32,bytes32)": {
        "notice": "Publishes the private key for which the archaeologist is responsible during the sarcophagus resurrection window. Pays digging fees to the archaeologist and releases their locked bond. Cannot be called on a compromised or buried sarcophagus."
      },
      "registerArchaeologist(string,uint256,uint256,uint256)": {
        "notice": "Registers the archaeologist profile"
      },
      "updateArchaeologist(string,uint256,uint256,uint256)": {
        "notice": "Updates the archaeologist profile"
      },
      "withdrawFreeBond(uint256)": {
        "notice": "Withdraws an archaeologist's free bond from the contract."
      },
      "withdrawReward()": {
        "notice": "Withdraws all rewards from an archaeologist's reward pool"
      }
    },
    "version": 1
  },
  "storageLayout": {
    "storage": [],
    "types": null
  }
}