{
  "address": "0x439E568CD152F1128e22fE0D548bb04f45DF88aa",
  "abi": [
    {
      "inputs": [
        {
          "internalType": "address",
          "name": "archaeologistAddress",
          "type": "address"
        }
      ],
      "name": "ArchaeologistListContainsDuplicate",
      "type": "error"
    },
    {
      "inputs": [
        {
          "internalType": "bool",
          "name": "exists",
          "type": "bool"
        },
        {
          "internalType": "address",
          "name": "archaeologist",
          "type": "address"
        }
      ],
      "name": "ArchaeologistProfileExistsShouldBe",
      "type": "error"
    },
    {
      "inputs": [
        {
          "internalType": "bytes",
          "name": "publicKey",
          "type": "bytes"
        }
      ],
      "name": "DuplicatePublicKey",
      "type": "error"
    },
    {
      "inputs": [
        {
          "internalType": "address",
          "name": "recoveredAddress",
          "type": "address"
        },
        {
          "internalType": "address",
          "name": "expectedAddress",
          "type": "address"
        }
      ],
      "name": "InvalidSignature",
      "type": "error"
    },
    {
      "inputs": [
        {
          "internalType": "uint256",
          "name": "currentTime",
          "type": "uint256"
        },
        {
          "internalType": "uint256",
          "name": "newResurrectionTime",
          "type": "uint256"
        }
      ],
      "name": "NewResurrectionTimeInPast",
      "type": "error"
    },
    {
      "inputs": [],
      "name": "NewResurrectionTimeIsZero",
      "type": "error"
    },
    {
      "inputs": [
        {
          "internalType": "uint256",
          "name": "resurrectionTime",
          "type": "uint256"
        },
        {
          "internalType": "uint256",
          "name": "sarcophagusMaximumRewrapInterval",
          "type": "uint256"
        },
        {
          "internalType": "uint256",
          "name": "maximumPermissibleResurrectionTime",
          "type": "uint256"
        }
      ],
      "name": "NewResurrectionTimeTooFarInFuture",
      "type": "error"
    },
    {
      "inputs": [],
      "name": "NoArchaeologistsProvided",
      "type": "error"
    },
    {
      "inputs": [
        {
          "internalType": "uint256",
          "name": "currentTime",
          "type": "uint256"
        },
        {
          "internalType": "uint256",
          "name": "resurrectionTime",
          "type": "uint256"
        }
      ],
      "name": "ResurrectionTimeInPast",
      "type": "error"
    },
    {
      "inputs": [
        {
          "internalType": "uint256",
          "name": "resurrectionTime",
          "type": "uint256"
        },
        {
          "internalType": "uint256",
          "name": "maxResurrectionTime",
          "type": "uint256"
        }
      ],
      "name": "ResurrectionTimePastMaxResurrectionTime",
      "type": "error"
    },
    {
      "inputs": [
        {
          "internalType": "uint256",
          "name": "resurrectionTime",
          "type": "uint256"
        },
        {
          "internalType": "uint256",
          "name": "sarcophagusMaximumRewrapInterval",
          "type": "uint256"
        },
        {
          "internalType": "uint256",
          "name": "maximumPermissibleResurrectionTime",
          "type": "uint256"
        }
      ],
      "name": "ResurrectionTimeTooFarInFuture",
      "type": "error"
    },
    {
      "inputs": [
        {
          "internalType": "uint256",
          "name": "resurrectionTime",
          "type": "uint256"
        },
        {
          "internalType": "uint256",
          "name": "previousResurrectionTime",
          "type": "uint256"
        }
      ],
      "name": "ResurrectionTimeTooFarPastPreviousResurrectionTime",
      "type": "error"
    },
    {
      "inputs": [
        {
          "internalType": "bytes32",
          "name": "sarcoId",
          "type": "bytes32"
        }
      ],
      "name": "SarcophagusAlreadyExists",
      "type": "error"
    },
    {
      "inputs": [
        {
          "internalType": "bytes32",
          "name": "sarcoId",
          "type": "bytes32"
        }
      ],
      "name": "SarcophagusCompromised",
      "type": "error"
    },
    {
      "inputs": [
        {
          "internalType": "bytes32",
          "name": "sarcoId",
          "type": "bytes32"
        }
      ],
      "name": "SarcophagusDoesNotExist",
      "type": "error"
    },
    {
      "inputs": [
        {
          "internalType": "bytes32",
          "name": "sarcoId",
          "type": "bytes32"
        }
      ],
      "name": "SarcophagusInactive",
      "type": "error"
    },
    {
      "inputs": [
        {
          "internalType": "uint256",
          "name": "currentTime",
          "type": "uint256"
        },
        {
          "internalType": "uint256",
          "name": "creationTime",
          "type": "uint256"
        },
        {
          "internalType": "uint256",
          "name": "creationDeadline",
          "type": "uint256"
        }
      ],
      "name": "SarcophagusParametersExpired",
      "type": "error"
    },
    {
      "inputs": [
        {
          "internalType": "address",
          "name": "sender",
          "type": "address"
        },
        {
          "internalType": "address",
          "name": "embalmer",
          "type": "address"
        }
      ],
      "name": "SenderNotEmbalmer",
      "type": "error"
    },
    {
      "inputs": [],
      "name": "ThresholdCannotBeZero",
      "type": "error"
    },
    {
      "inputs": [
        {
          "internalType": "uint8",
          "name": "threshold",
          "type": "uint8"
        },
        {
          "internalType": "uint256",
          "name": "totalNumberOfArchaeologists",
          "type": "uint256"
        }
      ],
      "name": "ThresholdGreaterThanTotalNumberOfArchaeologists",
      "type": "error"
    },
    {
      "anonymous": false,
      "inputs": [
        {
          "indexed": true,
          "internalType": "bytes32",
          "name": "sarcoId",
          "type": "bytes32"
        }
      ],
      "name": "BurySarcophagus",
      "type": "event"
    },
    {
      "anonymous": false,
      "inputs": [
        {
          "indexed": true,
          "internalType": "bytes32",
          "name": "sarcoId",
          "type": "bytes32"
        },
        {
          "indexed": false,
          "internalType": "string",
          "name": "name",
          "type": "string"
        },
        {
          "indexed": false,
          "internalType": "uint256",
          "name": "resurrectionTime",
          "type": "uint256"
        },
        {
          "indexed": false,
          "internalType": "uint256",
          "name": "creationTime",
          "type": "uint256"
        },
        {
          "indexed": true,
          "internalType": "address",
          "name": "embalmer",
          "type": "address"
        },
        {
          "indexed": true,
          "internalType": "address",
          "name": "recipient",
          "type": "address"
        },
        {
          "indexed": false,
          "internalType": "address[]",
          "name": "cursedArchaeologists",
          "type": "address[]"
        },
        {
          "indexed": false,
          "internalType": "uint256",
          "name": "totalDiggingFees",
          "type": "uint256"
        },
        {
          "indexed": false,
          "internalType": "string",
          "name": "arweaveTxId",
          "type": "string"
        }
      ],
      "name": "CreateSarcophagus",
      "type": "event"
    },
    {
      "anonymous": false,
      "inputs": [
        {
          "indexed": true,
          "internalType": "bytes32",
          "name": "sarcoId",
          "type": "bytes32"
        },
        {
          "indexed": false,
          "internalType": "uint256",
          "name": "resurrectionTime",
          "type": "uint256"
        },
        {
          "indexed": false,
          "internalType": "uint256",
          "name": "totalDiggingFees",
          "type": "uint256"
        },
        {
          "indexed": false,
          "internalType": "uint256",
          "name": "rewrapSarcophagusProtocolFees",
          "type": "uint256"
        }
      ],
      "name": "RewrapSarcophagus",
      "type": "event"
    },
    {
      "inputs": [
        {
          "internalType": "bytes32",
          "name": "sarcoId",
          "type": "bytes32"
        }
      ],
      "name": "burySarcophagus",
      "outputs": [],
      "stateMutability": "nonpayable",
      "type": "function"
    },
    {
      "inputs": [
        {
          "internalType": "bytes32",
          "name": "sarcoId",
          "type": "bytes32"
        },
        {
          "components": [
            {
              "internalType": "string",
              "name": "name",
              "type": "string"
            },
            {
              "internalType": "uint256",
              "name": "maximumRewrapInterval",
              "type": "uint256"
            },
            {
              "internalType": "uint256",
              "name": "maximumResurrectionTime",
              "type": "uint256"
            },
            {
              "internalType": "address",
              "name": "recipientAddress",
              "type": "address"
            },
            {
              "internalType": "uint256",
              "name": "resurrectionTime",
              "type": "uint256"
            },
            {
              "internalType": "uint8",
              "name": "threshold",
              "type": "uint8"
            },
            {
              "internalType": "uint256",
              "name": "creationTime",
              "type": "uint256"
            }
          ],
          "internalType": "struct EmbalmerFacet.SarcophagusParams",
          "name": "sarcophagusParams",
          "type": "tuple"
        },
        {
          "components": [
            {
              "internalType": "bytes",
              "name": "publicKey",
              "type": "bytes"
            },
            {
              "internalType": "address",
              "name": "archAddress",
              "type": "address"
            },
            {
              "internalType": "uint256",
              "name": "diggingFeePerSecond",
              "type": "uint256"
            },
            {
              "internalType": "uint256",
              "name": "curseFee",
              "type": "uint256"
            },
            {
              "internalType": "uint8",
              "name": "v",
              "type": "uint8"
            },
            {
              "internalType": "bytes32",
              "name": "r",
              "type": "bytes32"
            },
            {
              "internalType": "bytes32",
              "name": "s",
              "type": "bytes32"
            }
          ],
          "internalType": "struct EmbalmerFacet.CurseParams[]",
          "name": "selectedArchaeologists",
          "type": "tuple[]"
        },
        {
          "internalType": "string",
          "name": "arweaveTxId",
          "type": "string"
        }
      ],
      "name": "createSarcophagus",
      "outputs": [],
      "stateMutability": "nonpayable",
      "type": "function"
    },
    {
      "inputs": [
        {
          "internalType": "bytes32",
          "name": "sarcoId",
          "type": "bytes32"
        },
        {
          "internalType": "uint256",
          "name": "resurrectionTime",
          "type": "uint256"
        }
      ],
      "name": "rewrapSarcophagus",
      "outputs": [],
      "stateMutability": "nonpayable",
      "type": "function"
    }
  ],
  "args": [],
  "numDeployments": 4,
  "solcInputHash": "a69a9e5116a852d226e041ea72f51f49",
  "bytecode": "0x608060405234801561001057600080fd5b50613154806100206000396000f3fe608060405234801561001057600080fd5b50600436106100415760003560e01c80630511f2ec1461004657806355b21ba214610062578063ab7d79691461007e575b600080fd5b610060600480360381019061005b9190612149565b61009a565b005b61007c60048036038101906100779190612255565b610432565b005b6100986004803603810190610093919061234e565b610e19565b005b60006100a46118cd565b9050600081600a0160008481526020019081526020016000209050600081600001540361010857826040517f018da6880000000000000000000000000000000000000000000000000000000081526004016100ff919061239d565b60405180910390fd5b8060020160009054906101000a900460ff161561015c57826040517f9af72b86000000000000000000000000000000000000000000000000000000008152600401610153919061239d565b60405180910390fd5b7fffffffffffffffffffffffffffffffffffffffffffffffffffffffffffffffff8160000154036101c457826040517f7c6a6d700000000000000000000000000000000000000000000000000000000081526004016101bb919061239d565b60405180910390fd5b3373ffffffffffffffffffffffffffffffffffffffff168160070160009054906101000a900473ffffffffffffffffffffffffffffffffffffffff1673ffffffffffffffffffffffffffffffffffffffff161461027e57338160070160009054906101000a900473ffffffffffffffffffffffffffffffffffffffff166040517f0e37d99c0000000000000000000000000000000000000000000000000000000081526004016102759291906123f9565b60405180910390fd5b806000015442106102cc574281600001546040517f2458293a0000000000000000000000000000000000000000000000000000000081526004016102c3929190612431565b60405180910390fd5b600081600901905060008180549050905060005b818110156103d457600084600a0160008584815481106103035761030261245a565b5b9060005260206000200160009054906101000a900473ffffffffffffffffffffffffffffffffffffffff1673ffffffffffffffffffffffffffffffffffffffff1673ffffffffffffffffffffffffffffffffffffffff16815260200190815260200160002090508060030160009054906101000a900460ff166103c8576103c7878584815481106103975761039661245a565b5b9060005260206000200160009054906101000a900473ffffffffffffffffffffffffffffffffffffffff166118fa565b5b816001019150506102e0565b507fffffffffffffffffffffffffffffffffffffffffffffffffffffffffffffffff8360000181905550847f3a0205aa93b1a96da7d6405b2967f91b441383623de2d1ee3b27bfd1642b167a60405160405180910390a25050505050565b600061043c6118cd565b9050600081600a016000898152602001908152602001600020600001541461049b57866040517fb9d0d584000000000000000000000000000000000000000000000000000000008152600401610492919061239d565b60405180910390fd5b80600601548660c001356104af91906124b8565b42111561050e57428660c0013582600601548860c001356104d091906124b8565b6040517ffafba495000000000000000000000000000000000000000000000000000000008152600401610505939291906124ec565b60405180910390fd5b8560800135421061055c574286608001356040517f2458293a000000000000000000000000000000000000000000000000000000008152600401610553929190612431565b60405180910390fd5b856080013586602001354261057191906124b8565b10156105cf578560800135866020013587602001354261059191906124b8565b6040517f3d7ad6900000000000000000000000000000000000000000000000000000000081526004016105c6939291906124ec565b60405180910390fd5b85604001358660800135111561062657856080013586604001356040517f7532a1b000000000000000000000000000000000000000000000000000000000815260040161061d929190612431565b60405180910390fd5b600081600a016000898152602001908152602001600020905060008087879050905060008103610682576040517fb274cdd900000000000000000000000000000000000000000000000000000000815260040160405180910390fd5b60008960a0016020810190610697919061255c565b60ff16036106d1576040517ff412416600000000000000000000000000000000000000000000000000000000815260040160405180910390fd5b808960a00160208101906106e5919061255c565b60ff16111561073f578860a0016020810190610701919061255c565b816040517fa44e438a000000000000000000000000000000000000000000000000000000008152600401610736929190612598565b60405180910390fd5b88806000019061074f91906125d0565b846003019182610760929190612879565b508860a0016020810190610774919061255c565b8360020160036101000a81548160ff021916908360ff160217905550886080013583600001819055508860c001358360010181905550886020013583600401819055508860400135836005018190555085858460060191826107d7929190612879565b50338360070160006101000a81548173ffffffffffffffffffffffffffffffffffffffff021916908373ffffffffffffffffffffffffffffffffffffffff16021790555088606001602081019061082e9190612975565b8360080160006101000a81548173ffffffffffffffffffffffffffffffffffffffff021916908373ffffffffffffffffffffffffffffffffffffffff1602179055508067ffffffffffffffff81111561088a5761088961263e565b5b6040519080825280602002602001820160405280156108b85781602001602082028036833780820191505090505b508360090190805190602001906108d0929190612062565b50836004015483600b018190555060005b81811015610c94576109288989838181106108ff576108fe61245a565b5b905060200281019061091191906129a2565b60200160208101906109239190612975565b611b0f565b600084600a0160008b8b858181106109435761094261245a565b5b905060200281019061095591906129a2565b60200160208101906109679190612975565b73ffffffffffffffffffffffffffffffffffffffff1673ffffffffffffffffffffffffffffffffffffffff16815260200190815260200160002060020180546109af9061269c565b905014610a29578888828181106109c9576109c861245a565b5b90506020028101906109db91906129a2565b60200160208101906109ed9190612975565b6040517f11298b2f000000000000000000000000000000000000000000000000000000008152600401610a2091906129ca565b60405180910390fd5b600073ffffffffffffffffffffffffffffffffffffffff16856009018a8a84818110610a5857610a5761245a565b5b9050602002810190610a6a91906129a2565b8060000190610a7991906129e5565b604051610a87929190612a87565b908152602001604051809103902060009054906101000a900473ffffffffffffffffffffffffffffffffffffffff1673ffffffffffffffffffffffffffffffffffffffff1614610b4257888882818110610ae457610ae361245a565b5b9050602002810190610af691906129a2565b8060000190610b0591906129e5565b6040517f65453fd5000000000000000000000000000000000000000000000000000000008152600401610b39929190612aef565b60405180910390fd5b610b7e8a602001358b604001358c60c001358c8c86818110610b6757610b6661245a565b5b9050602002810190610b7991906129a2565b611bab565b6000610baf8c8b8b85818110610b9757610b9661245a565b5b9050602002810190610ba991906129a2565b84611d29565b90508084610bbd91906124b8565b9350898983818110610bd257610bd161245a565b5b9050602002810190610be491906129a2565b6020016020810190610bf69190612975565b866009018b8b85818110610c0d57610c0c61245a565b5b9050602002810190610c1f91906129a2565b8060000190610c2e91906129e5565b604051610c3c929190612a87565b908152602001604051809103902060006101000a81548173ffffffffffffffffffffffffffffffffffffffff021916908373ffffffffffffffffffffffffffffffffffffffff160217905550816001019150506108e1565b506000610ca083612030565b905080856002016000828254610cb691906124b8565b925050819055508460000160009054906101000a900473ffffffffffffffffffffffffffffffffffffffff1673ffffffffffffffffffffffffffffffffffffffff166323b872dd33308487610d0b91906124b8565b6040518463ffffffff1660e01b8152600401610d2993929190612b13565b6020604051808303816000875af1158015610d48573d6000803e3d6000fd5b505050506040513d601f19601f82011682018060405250810190610d6c9190612b82565b505050876060016020810190610d829190612975565b73ffffffffffffffffffffffffffffffffffffffff163373ffffffffffffffffffffffffffffffffffffffff168a7fe4607f24c5b0a05d9a47b2d4cd8bdb75b50ec717c6bcf5bbc92d48b175d5ce068b8060000190610de191906125d0565b8d608001358e60c0013589600901898e8e604051610e06989796959493929190612d11565b60405180910390a4505050505050505050565b6000610e236118cd565b9050600081600a01600085815260200190815260200160002090506000816000015403610e8757836040517f018da688000000000000000000000000000000000000000000000000000000008152600401610e7e919061239d565b60405180910390fd5b8060020160009054906101000a900460ff1615610edb57836040517f9af72b86000000000000000000000000000000000000000000000000000000008152600401610ed2919061239d565b60405180910390fd5b7fffffffffffffffffffffffffffffffffffffffffffffffffffffffffffffffff816000015403610f4357836040517f7c6a6d70000000000000000000000000000000000000000000000000000000008152600401610f3a919061239d565b60405180910390fd5b3373ffffffffffffffffffffffffffffffffffffffff168160070160009054906101000a900473ffffffffffffffffffffffffffffffffffffffff1673ffffffffffffffffffffffffffffffffffffffff1614610ffd57338160070160009054906101000a900473ffffffffffffffffffffffffffffffffffffffff166040517f0e37d99c000000000000000000000000000000000000000000000000000000008152600401610ff49291906123f9565b60405180910390fd5b8060000154421061104b574281600001546040517f2458293a000000000000000000000000000000000000000000000000000000008152600401611042929190612431565b60405180910390fd5b8242106110915742836040517f3c6870c0000000000000000000000000000000000000000000000000000000008152600401611088929190612431565b60405180910390fd5b828160040154426110a291906124b8565b10156110fc578281600401548260040154426110be91906124b8565b6040517fca9b0f900000000000000000000000000000000000000000000000000000000081526004016110f3939291906124ec565b60405180910390fd5b828160050154101561114b578281600501546040517f7532a1b0000000000000000000000000000000000000000000000000000000008152600401611142929190612431565b60405180910390fd5b600080826009019050600083600b0154905060008280549050905060005b8181101561176757600086600a01600086848154811061118c5761118b61245a565b5b9060005260206000200160009054906101000a900473ffffffffffffffffffffffffffffffffffffffff1673ffffffffffffffffffffffffffffffffffffffff1673ffffffffffffffffffffffffffffffffffffffff16815260200190815260200160002090508060030160009054906101000a900460ff1661175b5760008760010154886000015461121f9190612d8b565b826000015461122e9190612dbf565b90506000428b61123e9190612d8b565b836000015461124d9190612dbf565b9050818111156114085760006127108784846112699190612d8b565b6112739190612dbf565b61127d9190612e30565b9050828111156112ca578b8a600001546040517f48d069230000000000000000000000000000000000000000000000000000000081526004016112c1929190612431565b60405180910390fd5b808b600b0160008a88815481106112e4576112e361245a565b5b9060005260206000200160009054906101000a900473ffffffffffffffffffffffffffffffffffffffff1673ffffffffffffffffffffffffffffffffffffffff1673ffffffffffffffffffffffffffffffffffffffff168152602001908152602001600020600501600082825461135b91906124b8565b92505081905550808361136e9190612d8b565b8b600c0160008a88815481106113875761138661245a565b5b9060005260206000200160009054906101000a900473ffffffffffffffffffffffffffffffffffffffff1673ffffffffffffffffffffffffffffffffffffffff1673ffffffffffffffffffffffffffffffffffffffff16815260200190815260200160002060008282546113fb91906124b8565b925050819055505061169a565b818110156116035760006127108783856114229190612d8b565b61142c9190612dbf565b6114369190612e30565b9050808b600b0160008a88815481106114525761145161245a565b5b9060005260206000200160009054906101000a900473ffffffffffffffffffffffffffffffffffffffff1673ffffffffffffffffffffffffffffffffffffffff1673ffffffffffffffffffffffffffffffffffffffff16815260200190815260200160002060050160008282546114c99190612d8b565b92505081905550808b600b0160008a88815481106114ea576114e961245a565b5b9060005260206000200160009054906101000a900473ffffffffffffffffffffffffffffffffffffffff1673ffffffffffffffffffffffffffffffffffffffff1673ffffffffffffffffffffffffffffffffffffffff168152602001908152602001600020600401600082825461156191906124b8565b92505081905550828b600c0160008a88815481106115825761158161245a565b5b9060005260206000200160009054906101000a900473ffffffffffffffffffffffffffffffffffffffff1673ffffffffffffffffffffffffffffffffffffffff1673ffffffffffffffffffffffffffffffffffffffff16815260200190815260200160002060008282546115f691906124b8565b9250508190555050611699565b818a600c01600089878154811061161d5761161c61245a565b5b9060005260206000200160009054906101000a900473ffffffffffffffffffffffffffffffffffffffff1673ffffffffffffffffffffffffffffffffffffffff1673ffffffffffffffffffffffffffffffffffffffff168152602001908152602001600020600082825461169191906124b8565b925050819055505b5b80886116a691906124b8565b97508860020160029054906101000a900460ff166117585782600401548a600c0160008987815481106116dc576116db61245a565b5b9060005260206000200160009054906101000a900473ffffffffffffffffffffffffffffffffffffffff1673ffffffffffffffffffffffffffffffffffffffff1673ffffffffffffffffffffffffffffffffffffffff168152602001908152602001600020600082825461175091906124b8565b925050819055505b50505b81600101915050611169565b50600061177385612030565b90508087600201600082825461178991906124b8565b925050819055508786600001819055504286600101819055508560020160029054906101000a900460ff166117d65760018660020160026101000a81548160ff0219169083151502179055505b8660000160009054906101000a900473ffffffffffffffffffffffffffffffffffffffff1673ffffffffffffffffffffffffffffffffffffffff166323b872dd3330848961182491906124b8565b6040518463ffffffff1660e01b815260040161184293929190612b13565b6020604051808303816000875af1158015611861573d6000803e3d6000fd5b505050506040513d601f19601f820116820180604052508101906118859190612b82565b50887ff2ded5f77c6de574fac210979efbdd01ff3071d109e50651be4e05211f6e49438987846040516118ba939291906124ec565b60405180910390a2505050505050505050565b6000807ff20877bf9d9fb9260326061ac66e420582d0e2a7736ab6a6c3afd0604e1902dd90508091505090565b60006119046118cd565b9050600081600a0160008581526020019081526020016000209050600082600a016000868152602001908152602001600020600a0160008573ffffffffffffffffffffffffffffffffffffffff1673ffffffffffffffffffffffffffffffffffffffff168152602001908152602001600020905060008260010154836000015461198e9190612d8b565b826000015461199d9190612dbf565b9050600061271084600b01548460040154846119b991906124b8565b6119c39190612dbf565b6119cd9190612e30565b90508085600b0160008873ffffffffffffffffffffffffffffffffffffffff1673ffffffffffffffffffffffffffffffffffffffff1681526020019081526020016000206005016000828254611a239190612d8b565b925050819055508085600b0160008873ffffffffffffffffffffffffffffffffffffffff1673ffffffffffffffffffffffffffffffffffffffff1681526020019081526020016000206004016000828254611a7e91906124b8565b925050819055508360020160029054906101000a900460ff16611aae57826004015482611aab91906124b8565b91505b8185600c0160008873ffffffffffffffffffffffffffffffffffffffff1673ffffffffffffffffffffffffffffffffffffffff1681526020019081526020016000206000828254611aff91906124b8565b9250508190555050505050505050565b6000611b196118cd565b9050600081600b0160008473ffffffffffffffffffffffffffffffffffffffff1673ffffffffffffffffffffffffffffffffffffffff1681526020019081526020016000206000015403611ba7576001826040517f2eeb3571000000000000000000000000000000000000000000000000000000008152600401611b9e929190612e70565b60405180910390fd5b5050565b6000818060000190611bbd91906129e5565b86868560400135878760600135604051602001611be09796959493929190612e99565b60405160208183030381529060405280519060200120604051602001611c069190612f7b565b6040516020818303038152906040528051906020012090506000600182846080016020810190611c36919061255c565b8560a001358660c0013560405160008152602001604052604051611c5d9493929190612fa1565b6020604051602081039080840390855afa158015611c7f573d6000803e3d6000fd5b505050602060405103519050826020016020810190611c9e9190612975565b73ffffffffffffffffffffffffffffffffffffffff168173ffffffffffffffffffffffffffffffffffffffff1614611d215780836020016020810190611ce49190612975565b6040517f42d750dc000000000000000000000000000000000000000000000000000000008152600401611d189291906123f9565b60405180910390fd5b505050505050565b600080611d346118cd565b9050600081600a01600087815260200190815260200160002090506040518060a00160405280866040013581526020016000801b8152602001868060000190611d7d91906129e5565b8080601f016020809104026020016040519081016040528093929190818152602001838380828437600081840152601f19601f820116905080830192505050505050508152602001600015158152602001866060013581525081600a016000876020016020810190611def9190612975565b73ffffffffffffffffffffffffffffffffffffffff1673ffffffffffffffffffffffffffffffffffffffff16815260200190815260200160002060008201518160000155602082015181600101556040820151816002019081611e52919061304c565b5060608201518160030160006101000a81548160ff02191690831515021790555060808201518160040155905050846020016020810190611e939190612975565b816009018581548110611ea957611ea861245a565b5b9060005260206000200160006101000a81548173ffffffffffffffffffffffffffffffffffffffff021916908373ffffffffffffffffffffffffffffffffffffffff1602179055506000856060013582600101548360000154611f0c9190612d8b565b8760400135611f1b9190612dbf565b611f2591906124b8565b90506000612710846004015483611f3c9190612dbf565b611f469190612e30565b90508084600b016000896020016020810190611f629190612975565b73ffffffffffffffffffffffffffffffffffffffff1673ffffffffffffffffffffffffffffffffffffffff1681526020019081526020016000206004016000828254611fae9190612d8b565b925050819055508084600b016000896020016020810190611fcf9190612975565b73ffffffffffffffffffffffffffffffffffffffff1673ffffffffffffffffffffffffffffffffffffffff168152602001908152602001600020600501600082825461201b91906124b8565b92505081905550819450505050509392505050565b60008061203b6118cd565b90506127108160030154846120509190612dbf565b61205a9190612e30565b915050919050565b8280548282559060005260206000209081019282156120db579160200282015b828111156120da5782518260006101000a81548173ffffffffffffffffffffffffffffffffffffffff021916908373ffffffffffffffffffffffffffffffffffffffff16021790555091602001919060010190612082565b5b5090506120e891906120ec565b5090565b5b808211156121055760008160009055506001016120ed565b5090565b600080fd5b600080fd5b6000819050919050565b61212681612113565b811461213157600080fd5b50565b6000813590506121438161211d565b92915050565b60006020828403121561215f5761215e612109565b5b600061216d84828501612134565b91505092915050565b600080fd5b600060e0828403121561219157612190612176565b5b81905092915050565b600080fd5b600080fd5b600080fd5b60008083601f8401126121bf576121be61219a565b5b8235905067ffffffffffffffff8111156121dc576121db61219f565b5b6020830191508360208202830111156121f8576121f76121a4565b5b9250929050565b60008083601f8401126122155761221461219a565b5b8235905067ffffffffffffffff8111156122325761223161219f565b5b60208301915083600182028301111561224e5761224d6121a4565b5b9250929050565b6000806000806000806080878903121561227257612271612109565b5b600061228089828a01612134565b965050602087013567ffffffffffffffff8111156122a1576122a061210e565b5b6122ad89828a0161217b565b955050604087013567ffffffffffffffff8111156122ce576122cd61210e565b5b6122da89828a016121a9565b9450945050606087013567ffffffffffffffff8111156122fd576122fc61210e565b5b61230989828a016121ff565b92509250509295509295509295565b6000819050919050565b61232b81612318565b811461233657600080fd5b50565b60008135905061234881612322565b92915050565b6000806040838503121561236557612364612109565b5b600061237385828601612134565b925050602061238485828601612339565b9150509250929050565b61239781612113565b82525050565b60006020820190506123b2600083018461238e565b92915050565b600073ffffffffffffffffffffffffffffffffffffffff82169050919050565b60006123e3826123b8565b9050919050565b6123f3816123d8565b82525050565b600060408201905061240e60008301856123ea565b61241b60208301846123ea565b9392505050565b61242b81612318565b82525050565b60006040820190506124466000830185612422565b6124536020830184612422565b9392505050565b7f4e487b7100000000000000000000000000000000000000000000000000000000600052603260045260246000fd5b7f4e487b7100000000000000000000000000000000000000000000000000000000600052601160045260246000fd5b60006124c382612318565b91506124ce83612318565b92508282019050808211156124e6576124e5612489565b5b92915050565b60006060820190506125016000830186612422565b61250e6020830185612422565b61251b6040830184612422565b949350505050565b600060ff82169050919050565b61253981612523565b811461254457600080fd5b50565b60008135905061255681612530565b92915050565b60006020828403121561257257612571612109565b5b600061258084828501612547565b91505092915050565b61259281612523565b82525050565b60006040820190506125ad6000830185612589565b6125ba6020830184612422565b9392505050565b600080fd5b600080fd5b600080fd5b600080833560016020038436030381126125ed576125ec6125c1565b5b80840192508235915067ffffffffffffffff82111561260f5761260e6125c6565b5b60208301925060018202360383131561262b5761262a6125cb565b5b509250929050565b600082905092915050565b7f4e487b7100000000000000000000000000000000000000000000000000000000600052604160045260246000fd5b7f4e487b7100000000000000000000000000000000000000000000000000000000600052602260045260246000fd5b600060028204905060018216806126b457607f821691505b6020821081036126c7576126c661266d565b5b50919050565b60008190508160005260206000209050919050565b60006020601f8301049050919050565b600082821b905092915050565b60006008830261272f7fffffffffffffffffffffffffffffffffffffffffffffffffffffffffffffffff826126f2565b61273986836126f2565b95508019841693508086168417925050509392505050565b6000819050919050565b600061277661277161276c84612318565b612751565b612318565b9050919050565b6000819050919050565b6127908361275b565b6127a461279c8261277d565b8484546126ff565b825550505050565b600090565b6127b96127ac565b6127c4818484612787565b505050565b5b818110156127e8576127dd6000826127b1565b6001810190506127ca565b5050565b601f82111561282d576127fe816126cd565b612807846126e2565b81016020851015612816578190505b61282a612822856126e2565b8301826127c9565b50505b505050565b600082821c905092915050565b600061285060001984600802612832565b1980831691505092915050565b6000612869838361283f565b9150826002028217905092915050565b6128838383612633565b67ffffffffffffffff81111561289c5761289b61263e565b5b6128a6825461269c565b6128b18282856127ec565b6000601f8311600181146128e057600084156128ce578287013590505b6128d8858261285d565b865550612940565b601f1984166128ee866126cd565b60005b82811015612916578489013582556001820191506020850194506020810190506128f1565b86831015612933578489013561292f601f89168261283f565b8355505b6001600288020188555050505b50505050505050565b612952816123d8565b811461295d57600080fd5b50565b60008135905061296f81612949565b92915050565b60006020828403121561298b5761298a612109565b5b600061299984828501612960565b91505092915050565b60008235600160e0038336030381126129be576129bd6125c1565b5b80830191505092915050565b60006020820190506129df60008301846123ea565b92915050565b60008083356001602003843603038112612a0257612a016125c1565b5b80840192508235915067ffffffffffffffff821115612a2457612a236125c6565b5b602083019250600182023603831315612a4057612a3f6125cb565b5b509250929050565b600081905092915050565b82818337600083830152505050565b6000612a6e8385612a48565b9350612a7b838584612a53565b82840190509392505050565b6000612a94828486612a62565b91508190509392505050565b600082825260208201905092915050565b6000601f19601f8301169050919050565b6000612ace8385612aa0565b9350612adb838584612a53565b612ae483612ab1565b840190509392505050565b60006020820190508181036000830152612b0a818486612ac2565b90509392505050565b6000606082019050612b2860008301866123ea565b612b3560208301856123ea565b612b426040830184612422565b949350505050565b60008115159050919050565b612b5f81612b4a565b8114612b6a57600080fd5b50565b600081519050612b7c81612b56565b92915050565b600060208284031215612b9857612b97612109565b5b6000612ba684828501612b6d565b91505092915050565b600082825260208201905092915050565b6000612bcc8385612baf565b9350612bd9838584612a53565b612be283612ab1565b840190509392505050565b600081549050919050565b600082825260208201905092915050565b60008190508160005260206000209050919050565b612c27816123d8565b82525050565b6000612c398383612c1e565b60208301905092915050565b60008160001c9050919050565b600073ffffffffffffffffffffffffffffffffffffffff82169050919050565b6000612c85612c8083612c45565b612c52565b9050919050565b6000612c988254612c72565b9050919050565b6000600182019050919050565b6000612cb782612bed565b612cc18185612bf8565b9350612ccc83612c09565b8060005b83811015612d0457612ce182612c8c565b612ceb8882612c2d565b9750612cf683612c9f565b925050600181019050612cd0565b5085935050505092915050565b600060c0820190508181036000830152612d2c818a8c612bc0565b9050612d3b6020830189612422565b612d486040830188612422565b8181036060830152612d5a8187612cac565b9050612d696080830186612422565b81810360a0830152612d7c818486612bc0565b90509998505050505050505050565b6000612d9682612318565b9150612da183612318565b9250828203905081811115612db957612db8612489565b5b92915050565b6000612dca82612318565b9150612dd583612318565b9250828202612de381612318565b91508282048414831517612dfa57612df9612489565b5b5092915050565b7f4e487b7100000000000000000000000000000000000000000000000000000000600052601260045260246000fd5b6000612e3b82612318565b9150612e4683612318565b925082612e5657612e55612e01565b5b828204905092915050565b612e6a81612b4a565b82525050565b6000604082019050612e856000830185612e61565b612e9260208301846123ea565b9392505050565b600060c0820190508181036000830152612eb481898b612ac2565b9050612ec36020830188612422565b612ed06040830187612422565b612edd6060830186612422565b612eea6080830185612422565b612ef760a0830184612422565b98975050505050505050565b600081905092915050565b7f19457468657265756d205369676e6564204d6573736167653a0a333200000000600082015250565b6000612f44601c83612f03565b9150612f4f82612f0e565b601c82019050919050565b6000819050919050565b612f75612f7082612113565b612f5a565b82525050565b6000612f8682612f37565b9150612f928284612f64565b60208201915081905092915050565b6000608082019050612fb6600083018761238e565b612fc36020830186612589565b612fd0604083018561238e565b612fdd606083018461238e565b95945050505050565b600081519050919050565b60008190508160005260206000209050919050565b601f8211156130475761301881612ff1565b613021846126e2565b81016020851015613030578190505b61304461303c856126e2565b8301826127c9565b50505b505050565b61305582612fe6565b67ffffffffffffffff81111561306e5761306d61263e565b5b613078825461269c565b613083828285613006565b600060209050601f8311600181146130b657600084156130a4578287015190505b6130ae858261285d565b865550613116565b601f1984166130c486612ff1565b60005b828110156130ec578489015182556001820191506020850194506020810190506130c7565b868310156131095784890151613105601f89168261283f565b8355505b6001600288020188555050505b50505050505056fea2646970667358221220a805b7c135a1c594b35c443a1c57f0eb6702927cf08919561c3e614a39b4739964736f6c63430008120033",
  "devdoc": {
    "errors": {
      "DuplicatePublicKey(bytes)": [
        {
          "params": {
            "publicKey": "the duplicated public key"
          }
        }
      ],
      "ResurrectionTimeInPast(uint256,uint256)": [
        {
          "params": {
            "currentTime": "Timestamp of the failed rewrap attempt",
            "resurrectionTime": "Resurrection timestamp which has already passed"
          }
        }
      ],
      "ResurrectionTimePastMaxResurrectionTime(uint256,uint256)": [
        {
          "params": {
            "maxResurrectionTime": "The maximum allowed resurrection time",
            "resurrectionTime": "The resurrection time defined during the sarcophagus creation or rewrap"
          }
        }
      ],
      "ResurrectionTimeTooFarInFuture(uint256,uint256,uint256)": [
        {
          "params": {
            "maximumPermissibleResurrectionTime": "Resurrection timestamp which is too far in the future",
            "resurrectionTime": "Resurrection timestamp which is too far in the future",
            "sarcophagusMaximumRewrapInterval": "Maximum rewrap interval set for the sarcophagus"
          }
        }
      ],
      "SarcophagusAlreadyExists(bytes32)": [
        {
          "params": {
            "sarcoId": "Id that is already in use"
          }
        }
      ],
      "SarcophagusParametersExpired(uint256,uint256,uint256)": [
        {
          "params": {
            "creationDeadline": "Deadline for creation of a sarcophagus with the supplied parameters",
            "creationTime": "Time when the sarcophagus parameters were created",
            "currentTime": "Timestamp of the failed create attempt"
          }
        }
      ]
    },
    "events": {
      "BurySarcophagus(bytes32)": {
        "params": {
          "sarcoId": "Id of sarcophagus that was buried"
        }
      },
      "CreateSarcophagus(bytes32,string,uint256,uint256,address,address,address[],uint256,string)": {
        "params": {
          "arweaveTxId": "arweave tx id for the sarcophagus",
          "creationTime": "Creation time as set during negotiation, not the same as blocktime at which event is emitted",
          "cursedArchaeologists": "Array of addresses of cursed archaeologists",
          "embalmer": "Address of embalmer",
          "name": "Name of the new sarcophagus",
          "recipient": "Address of recipient",
          "resurrectionTime": "Resurrection time of the new sarcophagus",
          "sarcoId": "Id of the new sarcophagus",
          "totalDiggingFees": "Total digging fees charged to embalmer to create the sarcophagus"
        }
      },
      "RewrapSarcophagus(bytes32,uint256,uint256,uint256)": {
        "params": {
          "resurrectionTime": "New resurrection time for the sarcophagus",
          "rewrapSarcophagusProtocolFees": "Total protocol fees charged to the embalmer for the rewrap",
          "sarcoId": "Id of sarcophagus that was rewrapped",
          "totalDiggingFees": "Total digging fees charged to the embalmer for the rewrap"
        }
      }
    },
    "kind": "dev",
    "methods": {
      "burySarcophagus(bytes32)": {
        "params": {
          "sarcoId": "the identifier of the sarcophagus"
        }
      },
      "createSarcophagus(bytes32,(string,uint256,uint256,address,uint256,uint8,uint256),(bytes,address,uint256,uint256,uint8,bytes32,bytes32)[],string)": {
        "params": {
          "arweaveTxId": "id of tx storing the sarcophagus payload on arweave",
          "sarcoId": "the identifier of the sarcophagus",
          "sarcophagusParams": "params to set on sarcophagus being created",
          "selectedArchaeologists": "the archaeologists the embalmer has selected to curse"
        }
      },
      "rewrapSarcophagus(bytes32,uint256)": {
        "params": {
          "resurrectionTime": "the new resurrection time",
          "sarcoId": "the identifier of the sarcophagus"
        }
      }
    },
    "version": 1
  },
  "userdoc": {
    "errors": {
      "ArchaeologistListContainsDuplicate(address)": [
        {
          "notice": "Emitted when an embalmer attempts to create a sarcophagus with an archaeologist list that contains the same archaeologist more than once"
        }
      ],
      "DuplicatePublicKey(bytes)": [
        {
          "notice": "Emitted when an embalmer attempts to create a sarcophagus with a public key that has already been assigned to another sarcophagus"
        }
      ],
      "NoArchaeologistsProvided()": [
        {
          "notice": "Emitted when an embalmer attempts to create a sarcophagus with no archaeologists"
        }
      ],
      "ResurrectionTimeInPast(uint256,uint256)": [
        {
          "notice": "Emitted when an embalmer attempts to rewrap a sarcophagus with a resurrection time that has already passed"
        }
      ],
      "ResurrectionTimePastMaxResurrectionTime(uint256,uint256)": [
        {
          "notice": "Emitted when the resurrection time defined during sarcohpagus creation or rewrap goes past the max resurrection time"
        }
      ],
      "ResurrectionTimeTooFarInFuture(uint256,uint256,uint256)": [
        {
          "notice": "Emitted when an embalmer attempts to rewrap a sarcophagus with a resurrection time that exceeds the maximum rewrap interval"
        }
      ],
      "SarcophagusAlreadyExists(bytes32)": [
        {
          "notice": "Emitted when an embalmer attempts to create a sarcophagus with an id that is already in use"
        }
      ],
      "SarcophagusParametersExpired(uint256,uint256,uint256)": [
        {
          "notice": "Emitted when an embalmer attempts to create a sarcophagus with expired parameters"
        }
      ],
      "ThresholdCannotBeZero()": [
        {
          "notice": "Emitted when an embalmer attempts to create a sarcophagus with a shamir secret sharing threshold of 0"
        }
      ],
      "ThresholdGreaterThanTotalNumberOfArchaeologists(uint8,uint256)": [
        {
          "notice": "Emitted when an embalmer attempts to create a sarcophagus with more required archaeologists than total archaeologists"
        }
      ]
    },
    "events": {
      "BurySarcophagus(bytes32)": {
        "notice": "Emitted when a sarcophagus is buried"
      },
      "CreateSarcophagus(bytes32,string,uint256,uint256,address,address,address[],uint256,string)": {
        "notice": "Emitted when a sarcophagus is created"
      },
      "RewrapSarcophagus(bytes32,uint256,uint256,uint256)": {
        "notice": "Emitted when a sarcophagus is rewrapped"
      }
    },
    "kind": "user",
    "methods": {
      "burySarcophagus(bytes32)": {
        "notice": "Terminates a sarcophagus by setting its resurrection time to infinity and returning locked bonds to all innocent cursed archaeologists. Callable by the embalmer of a sarcophagus if its resurrection time has not passed, it has not been compromised by k or more accusals, and it has not been buried."
      },
      "createSarcophagus(bytes32,(string,uint256,uint256,address,uint256,uint8,uint256),(bytes,address,uint256,uint256,uint8,bytes32,bytes32)[],string)": {
        "notice": "Creates a sarcophagus with the supplied parameters and locks a portion of each archaeologist's freeBond equal to the digging fees calculated for the duration of the sarcophagus until its resurrection time. Verifies that each supplied archaeologist has signed off on the sarcophagus negotiation parameters:    - `publicKey` that matches the private key the archaeologist is responsible for    - `maximumRewrapInterval` to be enforced for the lifetime of the sarcophagus. No new resurrection time for future rewraps may exceed this interval from time of rewrap.    - `creationTime` of sarcophagus    - `diggingFeePerSecond` agreed to be paid to the archaeologist during the lifetime of the sarcophagus. Paid per rewrap and publishPrivateKey. Constant.    - `curseFee` agreed to be paid to the archaeologist once during the lifetime of the sarcophagus to cover cost of publishPrivateKey tx. Paid either on first rewrap or publishPrivateKey if no rewrap has occurred Constant."
      },
      "rewrapSarcophagus(bytes32,uint256)": {
        "notice": "Updates the resurrectionTime on a sarcophagus. Callable by the embalmer of a sarcophagus if its resurrection time has not passed, it has not been compromised by k or more accusals, and it has not been buried."
      }
    },
    "version": 1
  },
  "storageLayout": {
    "storage": [],
    "types": null
  }
}