{
  "address": "0x408E91946a336Df994656D43Df4Fa1f22cC71475",
  "abi": [
    {
      "inputs": [
        {
          "internalType": "address",
          "name": "archaeologist",
          "type": "address"
        }
      ],
      "name": "ArchaeologistNotOnSarcophagus",
      "type": "error"
    },
    {
      "inputs": [
        {
          "internalType": "uint256",
          "name": "currentTime",
          "type": "uint256"
        },
        {
          "internalType": "uint256",
          "name": "embalmerClaimWindowEnd",
          "type": "uint256"
        }
      ],
      "name": "EmbalmerClaimWindowPassed",
      "type": "error"
    },
    {
      "inputs": [
        {
          "internalType": "uint256",
          "name": "cursedBond",
          "type": "uint256"
        },
        {
          "internalType": "uint256",
          "name": "amount",
          "type": "uint256"
        }
      ],
      "name": "NotEnoughCursedBond",
      "type": "error"
    },
    {
      "inputs": [
        {
          "internalType": "bytes32",
          "name": "sarcoId",
          "type": "bytes32"
        }
      ],
      "name": "SarcophagusAlreadyCleaned",
      "type": "error"
    },
    {
      "inputs": [
        {
          "internalType": "bytes32",
          "name": "sarcoId",
          "type": "bytes32"
        }
      ],
      "name": "SarcophagusCompromised",
      "type": "error"
    },
    {
      "inputs": [
        {
          "internalType": "bytes32",
          "name": "sarcoId",
          "type": "bytes32"
        }
      ],
      "name": "SarcophagusDoesNotExist",
      "type": "error"
    },
    {
      "inputs": [
        {
          "internalType": "bytes32",
          "name": "sarcoId",
          "type": "bytes32"
        }
      ],
      "name": "SarcophagusInactive",
      "type": "error"
    },
    {
      "inputs": [],
      "name": "SarcophagusIsUnwrappable",
      "type": "error"
    },
    {
      "inputs": [
        {
          "internalType": "address",
          "name": "senderAddress",
          "type": "address"
        }
      ],
      "name": "SenderNotEmbalmerOrAdmin",
      "type": "error"
    },
    {
      "inputs": [
        {
          "internalType": "uint256",
          "name": "currentTime",
          "type": "uint256"
        },
        {
          "internalType": "uint256",
          "name": "embalmerClaimWindowEnd",
          "type": "uint256"
        }
      ],
      "name": "TooEarlyForAdminClean",
      "type": "error"
    },
    {
      "inputs": [
        {
          "internalType": "uint256",
          "name": "currentTime",
          "type": "uint256"
        },
        {
          "internalType": "uint256",
          "name": "publishDeadline",
          "type": "uint256"
        }
      ],
      "name": "TooEarlyForClean",
      "type": "error"
    },
    {
      "anonymous": false,
      "inputs": [
        {
          "indexed": true,
          "internalType": "bytes32",
          "name": "sarcoId",
          "type": "bytes32"
        },
        {
          "indexed": true,
          "internalType": "address",
          "name": "accuser",
          "type": "address"
        },
        {
          "indexed": false,
          "internalType": "uint256",
          "name": "accuserBondReward",
          "type": "uint256"
        },
        {
          "indexed": false,
          "internalType": "uint256",
          "name": "embalmerBondReward",
          "type": "uint256"
        }
      ],
      "name": "AccuseArchaeologist",
      "type": "event"
    },
    {
      "anonymous": false,
      "inputs": [
        {
          "indexed": true,
          "internalType": "bytes32",
          "name": "sarcoId",
          "type": "bytes32"
        },
        {
          "indexed": true,
          "internalType": "address",
          "name": "cleaner",
          "type": "address"
        }
      ],
      "name": "Clean",
      "type": "event"
    },
    {
      "inputs": [
        {
          "internalType": "bytes32",
          "name": "sarcoId",
          "type": "bytes32"
        },
        {
          "components": [
            {
              "internalType": "uint8",
              "name": "v",
              "type": "uint8"
            },
            {
              "internalType": "bytes32",
              "name": "r",
              "type": "bytes32"
            },
            {
              "internalType": "bytes32",
              "name": "s",
              "type": "bytes32"
            }
          ],
          "internalType": "struct ThirdPartyFacet.Signature[]",
          "name": "signatures",
          "type": "tuple[]"
        },
        {
          "internalType": "address",
          "name": "paymentAddress",
          "type": "address"
        }
      ],
      "name": "accuse",
      "outputs": [],
      "stateMutability": "nonpayable",
      "type": "function"
    },
    {
      "inputs": [
        {
          "internalType": "bytes32",
          "name": "sarcoId",
          "type": "bytes32"
        }
      ],
      "name": "clean",
      "outputs": [],
      "stateMutability": "nonpayable",
      "type": "function"
    }
  ],
  "transactionHash": "0xe01663d88e94c0e1a1180d0f5e73fcffa861ff776c8c306e799ab469546668fb",
  "args": [],
  "numDeployments": 1,
  "solcInputHash": "4aa61604c0a9efd866e19679821c2a67",
  "bytecode": "0x608060405234801561001057600080fd5b5061196e806100206000396000f3fe608060405234801561001057600080fd5b50600436106100365760003560e01c80634519c2021461003b57806397b03b5314610057575b600080fd5b610055600480360381019061005091906114c3565b610073565b005b610071600480360381019061006c9190611537565b61073e565b005b600080600a016000868152602001908152602001600020905060008160000154036100d557846040517f018da6880000000000000000000000000000000000000000000000000000000081526004016100cc9190611573565b60405180910390fd5b8060000154421115610113576040517f8680d5de00000000000000000000000000000000000000000000000000000000815260040160405180910390fd5b8060010160009054906101000a900460ff161561016757846040517f9af72b8600000000000000000000000000000000000000000000000000000000815260040161015e9190611573565b60405180910390fd5b7fffffffffffffffffffffffffffffffffffffffffffffffffffffffffffffffff8160000154036101cf57846040517f7c6a6d700000000000000000000000000000000000000000000000000000000081526004016101c69190611573565b60405180910390fd5b60008484905067ffffffffffffffff8111156101ee576101ed61158e565b5b60405190808252806020026020018201604052801561021c5781602001602082028036833780820191505090505b50905060008060005b87879050811015610458576000604051806020016040528060008152509050600080600901826040516102589190611637565b908152602001604051809103902060009054906101000a900473ffffffffffffffffffffffffffffffffffffffff16905060008760090160008373ffffffffffffffffffffffffffffffffffffffff1673ffffffffffffffffffffffffffffffffffffffff168152602001908152602001600020905060008160000180546102df9061167d565b90500361032357336040517f82881f0300000000000000000000000000000000000000000000000000000000815260040161031a91906116bd565b60405180910390fd5b8060020160009054906101000a900460ff161561034257505050610458565b60018160020160006101000a81548160ff0219169083151502179055508187868061036c90611711565b97508151811061037f5761037e611759565b5b602002602001019073ffffffffffffffffffffffffffffffffffffffff16908173ffffffffffffffffffffffffffffffffffffffff16815250508060030154866103c99190611788565b95506103d9828260030154610f7a565b6000600f0160008373ffffffffffffffffffffffffffffffffffffffff1673ffffffffffffffffffffffffffffffffffffffff1681526020019081526020016000208c9080600181540180825580915050600190039060005260206000200160009091909190915055505050808061045090611711565b915050610225565b506000810361046a5750505050610738565b8360030160009054906101000a900460ff1660ff1681106104a75760018460010160006101000a81548160ff0219169083151502179055506105af565b6000805b8560080180549050811015610573578560090160008760080183815481106104d6576104d5611759565b5b9060005260206000200160009054906101000a900473ffffffffffffffffffffffffffffffffffffffff1673ffffffffffffffffffffffffffffffffffffffff1673ffffffffffffffffffffffffffffffffffffffff16815260200190815260200160002060020160009054906101000a900460ff161561056057818061055c90611711565b9250505b808061056b90611711565b9150506104ab565b508460030160009054906101000a900460ff1660ff1681106105ad5760018560010160006101000a81548160ff0219169083151502179055505b505b8360010160009054906101000a900460ff16156106ce5760005b84600801805490508110156106cc578460090160008660080183815481106105f4576105f3611759565b5b9060005260206000200160009054906101000a900473ffffffffffffffffffffffffffffffffffffffff1673ffffffffffffffffffffffffffffffffffffffff1673ffffffffffffffffffffffffffffffffffffffff16815260200190815260200160002060020160009054906101000a900460ff166106b9576106b88986600801838154811061068857610687611759565b5b9060005260206000200160009054906101000a900473ffffffffffffffffffffffffffffffffffffffff166110b5565b5b80806106c490611711565b9150506105c9565b505b6000806106dc87878661112e565b915091503373ffffffffffffffffffffffffffffffffffffffff168a7f6cee286923fc4de6af78ba8b06ff9f4236e5aad4282a5e13a3cea8446c803fd484846040516107299291906117ed565b60405180910390a35050505050505b50505050565b600080600a016000838152602001908152602001600020905060008160000154036107a057816040517f018da6880000000000000000000000000000000000000000000000000000000081526004016107979190611573565b60405180910390fd5b8060010160009054906101000a900460ff16156107f457816040517f9af72b860000000000000000000000000000000000000000000000000000000081526004016107eb9190611573565b60405180910390fd5b7fffffffffffffffffffffffffffffffffffffffffffffffffffffffffffffffff81600001540361085c57816040517f7c6a6d700000000000000000000000000000000000000000000000000000000081526004016108539190611573565b60405180910390fd5b8060010160019054906101000a900460ff16156108b057816040517fc921f1850000000000000000000000000000000000000000000000000000000081526004016108a79190611573565b60405180910390fd5b60006003015481600001546108c59190611788565b421161091e574260006003015482600001546108e19190611788565b6040517f808b7d7c0000000000000000000000000000000000000000000000000000000081526004016109159291906117ed565b60405180910390fd5b8060060160009054906101000a900473ffffffffffffffffffffffffffffffffffffffff1673ffffffffffffffffffffffffffffffffffffffff163373ffffffffffffffffffffffffffffffffffffffff16141580156109b157506109816112d7565b73ffffffffffffffffffffffffffffffffffffffff163373ffffffffffffffffffffffffffffffffffffffff1614155b156109f357336040517fd5fa066e0000000000000000000000000000000000000000000000000000000081526004016109ea91906116bd565b60405180910390fd5b8060060160009054906101000a900473ffffffffffffffffffffffffffffffffffffffff1673ffffffffffffffffffffffffffffffffffffffff163373ffffffffffffffffffffffffffffffffffffffff16148015610a7557506000600501546000600301548260000154610a689190611788565b610a729190611788565b42115b15610add57426000600501546000600301548360000154610a969190611788565b610aa09190611788565b6040517f569861b1000000000000000000000000000000000000000000000000000000008152600401610ad49291906117ed565b60405180910390fd5b610ae56112d7565b73ffffffffffffffffffffffffffffffffffffffff163373ffffffffffffffffffffffffffffffffffffffff16148015610b4357506000600501546000600301548260000154610b359190611788565b610b3f9190611788565b4211155b15610bab57426000600501546000600301548360000154610b649190611788565b610b6e9190611788565b6040517ff88af35b000000000000000000000000000000000000000000000000000000008152600401610ba29291906117ed565b60405180910390fd5b6000805b8260080180549050811015610d9d576000836009016000856008018481548110610bdc57610bdb611759565b5b9060005260206000200160009054906101000a900473ffffffffffffffffffffffffffffffffffffffff1673ffffffffffffffffffffffffffffffffffffffff1673ffffffffffffffffffffffffffffffffffffffff16815260200190815260200160002090508060020160009054906101000a900460ff16158015610c6857506000801b8160010154145b15610d8957806003015483610c7d9190611788565b9250806003015483610c8f9190611788565b9250610cdf846008018381548110610caa57610ca9611759565b5b9060005260206000200160009054906101000a900473ffffffffffffffffffffffffffffffffffffffff168260030154610f7a565b60006010016000856008018481548110610cfc57610cfb611759565b5b9060005260206000200160009054906101000a900473ffffffffffffffffffffffffffffffffffffffff1673ffffffffffffffffffffffffffffffffffffffff1673ffffffffffffffffffffffffffffffffffffffff1681526020019081526020016000208590806001815401808255809150506001900390600052602060002001600090919091909150555b508080610d9590611711565b915050610baf565b508160060160009054906101000a900473ffffffffffffffffffffffffffffffffffffffff1673ffffffffffffffffffffffffffffffffffffffff163373ffffffffffffffffffffffffffffffffffffffff1603610ebd576000800160009054906101000a900473ffffffffffffffffffffffffffffffffffffffff1673ffffffffffffffffffffffffffffffffffffffff1663a9059cbb8360060160009054906101000a900473ffffffffffffffffffffffffffffffffffffffff16836040518363ffffffff1660e01b8152600401610e78929190611816565b6020604051808303816000875af1158015610e97573d6000803e3d6000fd5b505050506040513d601f19601f82011682018060405250810190610ebb9190611877565b505b610ec56112d7565b73ffffffffffffffffffffffffffffffffffffffff163373ffffffffffffffffffffffffffffffffffffffff1603610f14578060006001016000828254610f0c9190611788565b925050819055505b60018260010160016101000a81548160ff0219169083151502179055503373ffffffffffffffffffffffffffffffffffffffff16837ffa165ffb1378fffa7397821a24fb52e993eab195619a2573789fca8a9e12b26660405160405180910390a3505050565b6000610f8461130a565b905080600c0160008473ffffffffffffffffffffffffffffffffffffffff1673ffffffffffffffffffffffffffffffffffffffff168152602001908152602001600020600501548211156110555780600c0160008473ffffffffffffffffffffffffffffffffffffffff1673ffffffffffffffffffffffffffffffffffffffff16815260200190815260200160002060050154826040517faf5a111b00000000000000000000000000000000000000000000000000000000815260040161104c9291906117ed565b60405180910390fd5b8181600c0160008573ffffffffffffffffffffffffffffffffffffffff1673ffffffffffffffffffffffffffffffffffffffff16815260200190815260200160002060050160008282546110a991906118a4565b92505081905550505050565b60006110bf61130a565b9050600081600a01600085815260200190815260200160002060090160008473ffffffffffffffffffffffffffffffffffffffff1673ffffffffffffffffffffffffffffffffffffffff168152602001908152602001600020905061112883826003015461130f565b50505050565b60008060006002846111409190611907565b90506000818561115091906118a4565b90506000800160009054906101000a900473ffffffffffffffffffffffffffffffffffffffff1673ffffffffffffffffffffffffffffffffffffffff1663a9059cbb8760060160009054906101000a900473ffffffffffffffffffffffffffffffffffffffff1684886111c39190611788565b6040518363ffffffff1660e01b81526004016111e0929190611816565b6020604051808303816000875af11580156111ff573d6000803e3d6000fd5b505050506040513d601f19601f820116820180604052508101906112239190611877565b506000800160009054906101000a900473ffffffffffffffffffffffffffffffffffffffff1673ffffffffffffffffffffffffffffffffffffffff1663a9059cbb88836040518363ffffffff1660e01b8152600401611283929190611816565b6020604051808303816000875af11580156112a2573d6000803e3d6000fd5b505050506040513d601f19601f820116820180604052508101906112c69190611877565b508082935093505050935093915050565b60006112e1611327565b60040160009054906101000a900473ffffffffffffffffffffffffffffffffffffffff16905090565b600090565b6113198282610f7a565b6113238282611354565b5050565b6000807fc8fcad8db84d3cc18b4c41d551ea0ee66dd599cde068d998e57d5e09332c131c90508091505090565b600061135e61130a565b90508181600c0160008573ffffffffffffffffffffffffffffffffffffffff1673ffffffffffffffffffffffffffffffffffffffff16815260200190815260200160002060040160008282546113b49190611788565b92505081905550505050565b600080fd5b600080fd5b6000819050919050565b6113dd816113ca565b81146113e857600080fd5b50565b6000813590506113fa816113d4565b92915050565b600080fd5b600080fd5b600080fd5b60008083601f84011261142557611424611400565b5b8235905067ffffffffffffffff81111561144257611441611405565b5b60208301915083606082028301111561145e5761145d61140a565b5b9250929050565b600073ffffffffffffffffffffffffffffffffffffffff82169050919050565b600061149082611465565b9050919050565b6114a081611485565b81146114ab57600080fd5b50565b6000813590506114bd81611497565b92915050565b600080600080606085870312156114dd576114dc6113c0565b5b60006114eb878288016113eb565b945050602085013567ffffffffffffffff81111561150c5761150b6113c5565b5b6115188782880161140f565b9350935050604061152b878288016114ae565b91505092959194509250565b60006020828403121561154d5761154c6113c0565b5b600061155b848285016113eb565b91505092915050565b61156d816113ca565b82525050565b60006020820190506115886000830184611564565b92915050565b7f4e487b7100000000000000000000000000000000000000000000000000000000600052604160045260246000fd5b600081519050919050565b600081905092915050565b60005b838110156115f15780820151818401526020810190506115d6565b83811115611600576000848401525b50505050565b6000611611826115bd565b61161b81856115c8565b935061162b8185602086016115d3565b80840191505092915050565b60006116438284611606565b915081905092915050565b7f4e487b7100000000000000000000000000000000000000000000000000000000600052602260045260246000fd5b6000600282049050600182168061169557607f821691505b6020821081036116a8576116a761164e565b5b50919050565b6116b781611485565b82525050565b60006020820190506116d260008301846116ae565b92915050565b7f4e487b7100000000000000000000000000000000000000000000000000000000600052601160045260246000fd5b6000819050919050565b600061171c82611707565b91507fffffffffffffffffffffffffffffffffffffffffffffffffffffffffffffffff820361174e5761174d6116d8565b5b600182019050919050565b7f4e487b7100000000000000000000000000000000000000000000000000000000600052603260045260246000fd5b600061179382611707565b915061179e83611707565b9250827fffffffffffffffffffffffffffffffffffffffffffffffffffffffffffffffff038211156117d3576117d26116d8565b5b828201905092915050565b6117e781611707565b82525050565b600060408201905061180260008301856117de565b61180f60208301846117de565b9392505050565b600060408201905061182b60008301856116ae565b61183860208301846117de565b9392505050565b60008115159050919050565b6118548161183f565b811461185f57600080fd5b50565b6000815190506118718161184b565b92915050565b60006020828403121561188d5761188c6113c0565b5b600061189b84828501611862565b91505092915050565b60006118af82611707565b91506118ba83611707565b9250828210156118cd576118cc6116d8565b5b828203905092915050565b7f4e487b7100000000000000000000000000000000000000000000000000000000600052601260045260246000fd5b600061191282611707565b915061191d83611707565b92508261192d5761192c6118d8565b5b82820490509291505056fea264697066735822122086e21ac73b5be639696d2f620e593687b70f17de3a660b676058f57e681787a564736f6c634300080d0033",
  "devdoc": {
    "errors": {
      "EmbalmerClaimWindowPassed(uint256,uint256)": [
        {
          "params": {
            "currentTime": "Timestamp of the failed clean attempt",
            "embalmerClaimWindowEnd": "Latest time an embalmer may claim residual locked bonds the sarcophagus: resurrectionTime + gracePeriod + embalmerClaimWindow"
          }
        }
      ],
      "SarcophagusAlreadyCleaned(bytes32)": [
        {
          "params": {
            "sarcoId": "ID of sarcophagus archaeologist has attempted to publish a private key on"
          }
        }
      ],
      "SenderNotEmbalmerOrAdmin(address)": [
        {
          "params": {
            "senderAddress": "Address of sender"
          }
        }
      ],
      "TooEarlyForAdminClean(uint256,uint256)": [
        {
          "params": {
            "currentTime": "Timestamp of the failed clean attempt",
            "embalmerClaimWindowEnd": "Latest time an embalmer may claim residual locked bonds the sarcophagus: resurrectionTime + gracePeriod + embalmerClaimWindow"
          }
        }
      ],
      "TooEarlyForClean(uint256,uint256)": [
        {
          "params": {
            "currentTime": "Timestamp of the failed clean attempt",
            "publishDeadline": "Latest time an archaeologist may publish a private key on a sarcophagus: resurrectionTime + gracePeriod"
          }
        }
      ]
    },
    "kind": "dev",
    "methods": {
      "accuse(bytes32,(uint8,bytes32,bytes32)[],address)": {
        "params": {
          "paymentAddress": "the address to which rewards should be sent if successful",
          "sarcoId": "The identifier of the sarcophagus having leaked private keys",
          "signatures": "an array of signatures of the sarcoId signed by the leaked private keys"
        }
      },
      "clean(bytes32)": {
        "params": {
          "sarcoId": "The identifier of the sarcophagus to clean"
        }
      }
    },
    "version": 1
  },
  "userdoc": {
    "errors": {
      "EmbalmerClaimWindowPassed(uint256,uint256)": [
        {
          "notice": "Embalmer has attempted to clean a sarcophagus after the embalmerClaimWindow has passed"
        }
      ],
      "SarcophagusAlreadyCleaned(bytes32)": [
        {
          "notice": "Clean has been called on a sarcophagus that has already been cleaned"
        }
      ],
      "SenderNotEmbalmerOrAdmin(address)": [
        {
          "notice": "Clean has been called by someone other than the admin or embalmer of the sarcophagus"
        }
      ],
      "TooEarlyForAdminClean(uint256,uint256)": [
        {
          "notice": "Admin has attempted to clean a sarcophagus before the embalmerClaimWindow has passed"
        }
      ],
      "TooEarlyForClean(uint256,uint256)": [
        {
          "notice": "Clean has been called before the deadline for archaeologists to publish private keys has passed"
        }
      ]
    },
    "kind": "user",
    "methods": {
      "accuse(bytes32,(uint8,bytes32,bytes32)[],address)": {
        "notice": "Accuse one or more archaeologists of leaking private keys by submitting signatures on the sarco id and payment address generated with the leaked private keys If the archaeologists responsible for those private keys haven't already been accused, their locked bond will be split between the embalmer and the supplied payment address and digging fees allocated for those archaeologists will be refunded to the embalmer If k or more archaeologists are accused over the lifetime of a sarcophagus, the sarcophagus state will be updated to Accused and bonds for all remaining unaccused archaeologists will be returned"
      },
      "clean(bytes32)": {
        "notice": "If archaeologists fail to publish their private keys on a sarcophagus before the end of the gracePeriod, their locked bonds and diggingFees may be claimed by either the embalmer or the admin embalmers may claim during a limited embalmerClaimWindow after the end of the gracePeriod, after that only the admin will be able to claim remaining locked bond and diggingFees"
      }
    },
    "version": 1
  },
  "storageLayout": {
    "storage": [
      {
        "astId": 2828,
        "contract": "contracts/facets/ThirdPartyFacet.sol:ThirdPartyFacet",
        "label": "s",
        "offset": 0,
        "slot": "0",
        "type": "t_struct(AppStorage)4934_storage"
      }
    ],
    "types": {
      "t_address": {
        "encoding": "inplace",
        "label": "address",
        "numberOfBytes": "20"
      },
      "t_array(t_address)dyn_storage": {
        "base": "t_address",
        "encoding": "dynamic_array",
        "label": "address[]",
        "numberOfBytes": "32"
      },
      "t_array(t_bytes32)dyn_storage": {
        "base": "t_bytes32",
        "encoding": "dynamic_array",
        "label": "bytes32[]",
        "numberOfBytes": "32"
      },
      "t_bool": {
        "encoding": "inplace",
        "label": "bool",
        "numberOfBytes": "1"
      },
      "t_bytes32": {
        "encoding": "inplace",
        "label": "bytes32",
        "numberOfBytes": "32"
      },
      "t_bytes_memory_ptr": {
        "encoding": "bytes",
        "label": "bytes",
        "numberOfBytes": "32"
      },
      "t_bytes_storage": {
        "encoding": "bytes",
        "label": "bytes",
        "numberOfBytes": "32"
      },
      "t_contract(IERC20)77": {
        "encoding": "inplace",
        "label": "contract IERC20",
        "numberOfBytes": "20"
      },
      "t_mapping(t_address,t_array(t_bytes32)dyn_storage)": {
        "encoding": "mapping",
        "key": "t_address",
        "label": "mapping(address => bytes32[])",
        "numberOfBytes": "32",
        "value": "t_array(t_bytes32)dyn_storage"
      },
      "t_mapping(t_address,t_struct(ArchaeologistProfile)4647_storage)": {
        "encoding": "mapping",
        "key": "t_address",
        "label": "mapping(address => struct LibTypes.ArchaeologistProfile)",
        "numberOfBytes": "32",
        "value": "t_struct(ArchaeologistProfile)4647_storage"
      },
      "t_mapping(t_address,t_struct(CursedArchaeologist)4634_storage)": {
        "encoding": "mapping",
        "key": "t_address",
        "label": "mapping(address => struct LibTypes.CursedArchaeologist)",
        "numberOfBytes": "32",
        "value": "t_struct(CursedArchaeologist)4634_storage"
      },
      "t_mapping(t_address,t_uint256)": {
        "encoding": "mapping",
        "key": "t_address",
        "label": "mapping(address => uint256)",
        "numberOfBytes": "32",
        "value": "t_uint256"
      },
      "t_mapping(t_bytes32,t_struct(Sarcophagus)4625_storage)": {
        "encoding": "mapping",
        "key": "t_bytes32",
        "label": "mapping(bytes32 => struct LibTypes.Sarcophagus)",
        "numberOfBytes": "32",
        "value": "t_struct(Sarcophagus)4625_storage"
      },
      "t_mapping(t_bytes_memory_ptr,t_address)": {
        "encoding": "mapping",
        "key": "t_bytes_memory_ptr",
        "label": "mapping(bytes => address)",
        "numberOfBytes": "32",
        "value": "t_address"
      },
      "t_string_storage": {
        "encoding": "bytes",
        "label": "string",
        "numberOfBytes": "32"
      },
      "t_struct(AppStorage)4934_storage": {
        "encoding": "inplace",
        "label": "struct AppStorage",
        "members": [
          {
            "astId": 4869,
            "contract": "contracts/facets/ThirdPartyFacet.sol:ThirdPartyFacet",
            "label": "sarcoToken",
            "offset": 0,
            "slot": "0",
            "type": "t_contract(IERC20)77"
          },
          {
            "astId": 4871,
            "contract": "contracts/facets/ThirdPartyFacet.sol:ThirdPartyFacet",
            "label": "totalProtocolFees",
            "offset": 0,
            "slot": "1",
            "type": "t_uint256"
          },
          {
            "astId": 4874,
            "contract": "contracts/facets/ThirdPartyFacet.sol:ThirdPartyFacet",
            "label": "protocolFeeBasePercentage",
            "offset": 0,
            "slot": "2",
            "type": "t_uint256"
          },
          {
            "astId": 4876,
            "contract": "contracts/facets/ThirdPartyFacet.sol:ThirdPartyFacet",
            "label": "gracePeriod",
            "offset": 0,
            "slot": "3",
            "type": "t_uint256"
          },
          {
            "astId": 4878,
            "contract": "contracts/facets/ThirdPartyFacet.sol:ThirdPartyFacet",
            "label": "expirationThreshold",
            "offset": 0,
            "slot": "4",
            "type": "t_uint256"
          },
          {
            "astId": 4880,
            "contract": "contracts/facets/ThirdPartyFacet.sol:ThirdPartyFacet",
            "label": "embalmerClaimWindow",
            "offset": 0,
            "slot": "5",
            "type": "t_uint256"
          },
          {
            "astId": 4886,
            "contract": "contracts/facets/ThirdPartyFacet.sol:ThirdPartyFacet",
            "label": "embalmerSarcophagi",
            "offset": 0,
            "slot": "6",
            "type": "t_mapping(t_address,t_array(t_bytes32)dyn_storage)"
          },
          {
            "astId": 4891,
            "contract": "contracts/facets/ThirdPartyFacet.sol:ThirdPartyFacet",
            "label": "archaeologistSarcophagi",
            "offset": 0,
            "slot": "7",
            "type": "t_mapping(t_address,t_array(t_bytes32)dyn_storage)"
          },
          {
            "astId": 4896,
            "contract": "contracts/facets/ThirdPartyFacet.sol:ThirdPartyFacet",
            "label": "recipientSarcophagi",
            "offset": 0,
            "slot": "8",
            "type": "t_mapping(t_address,t_array(t_bytes32)dyn_storage)"
          },
          {
            "astId": 4900,
            "contract": "contracts/facets/ThirdPartyFacet.sol:ThirdPartyFacet",
            "label": "publicKeyToArchaeologistAddress",
            "offset": 0,
            "slot": "9",
            "type": "t_mapping(t_bytes_memory_ptr,t_address)"
          },
          {
            "astId": 4905,
            "contract": "contracts/facets/ThirdPartyFacet.sol:ThirdPartyFacet",
            "label": "sarcophagi",
            "offset": 0,
            "slot": "10",
            "type": "t_mapping(t_bytes32,t_struct(Sarcophagus)4625_storage)"
          },
          {
            "astId": 4908,
            "contract": "contracts/facets/ThirdPartyFacet.sol:ThirdPartyFacet",
            "label": "archaeologistProfileAddresses",
            "offset": 0,
            "slot": "11",
            "type": "t_array(t_address)dyn_storage"
          },
          {
            "astId": 4913,
            "contract": "contracts/facets/ThirdPartyFacet.sol:ThirdPartyFacet",
            "label": "archaeologistProfiles",
            "offset": 0,
            "slot": "12",
            "type": "t_mapping(t_address,t_struct(ArchaeologistProfile)4647_storage)"
          },
          {
            "astId": 4917,
            "contract": "contracts/facets/ThirdPartyFacet.sol:ThirdPartyFacet",
            "label": "archaeologistRewards",
            "offset": 0,
            "slot": "13",
            "type": "t_mapping(t_address,t_uint256)"
          },
          {
            "astId": 4923,
            "contract": "contracts/facets/ThirdPartyFacet.sol:ThirdPartyFacet",
            "label": "archaeologistSuccesses",
            "offset": 0,
            "slot": "14",
            "type": "t_mapping(t_address,t_array(t_bytes32)dyn_storage)"
          },
          {
            "astId": 4928,
            "contract": "contracts/facets/ThirdPartyFacet.sol:ThirdPartyFacet",
            "label": "archaeologistAccusals",
            "offset": 0,
            "slot": "15",
            "type": "t_mapping(t_address,t_array(t_bytes32)dyn_storage)"
          },
          {
            "astId": 4933,
            "contract": "contracts/facets/ThirdPartyFacet.sol:ThirdPartyFacet",
            "label": "archaeologistCleanups",
            "offset": 0,
            "slot": "16",
            "type": "t_mapping(t_address,t_array(t_bytes32)dyn_storage)"
          }
        ],
        "numberOfBytes": "544"
      },
      "t_struct(ArchaeologistProfile)4647_storage": {
        "encoding": "inplace",
        "label": "struct LibTypes.ArchaeologistProfile",
        "members": [
          {
            "astId": 4636,
            "contract": "contracts/facets/ThirdPartyFacet.sol:ThirdPartyFacet",
            "label": "exists",
            "offset": 0,
            "slot": "0",
            "type": "t_bool"
          },
          {
            "astId": 4638,
            "contract": "contracts/facets/ThirdPartyFacet.sol:ThirdPartyFacet",
            "label": "peerId",
            "offset": 0,
            "slot": "1",
            "type": "t_string_storage"
          },
          {
            "astId": 4640,
            "contract": "contracts/facets/ThirdPartyFacet.sol:ThirdPartyFacet",
            "label": "minimumDiggingFee",
            "offset": 0,
            "slot": "2",
            "type": "t_uint256"
          },
          {
            "astId": 4642,
            "contract": "contracts/facets/ThirdPartyFacet.sol:ThirdPartyFacet",
            "label": "maximumRewrapInterval",
            "offset": 0,
            "slot": "3",
            "type": "t_uint256"
          },
          {
            "astId": 4644,
            "contract": "contracts/facets/ThirdPartyFacet.sol:ThirdPartyFacet",
            "label": "freeBond",
            "offset": 0,
            "slot": "4",
            "type": "t_uint256"
          },
          {
            "astId": 4646,
            "contract": "contracts/facets/ThirdPartyFacet.sol:ThirdPartyFacet",
            "label": "cursedBond",
            "offset": 0,
            "slot": "5",
            "type": "t_uint256"
          }
        ],
        "numberOfBytes": "192"
      },
      "t_struct(CursedArchaeologist)4634_storage": {
        "encoding": "inplace",
        "label": "struct LibTypes.CursedArchaeologist",
        "members": [
          {
            "astId": 4627,
            "contract": "contracts/facets/ThirdPartyFacet.sol:ThirdPartyFacet",
            "label": "publicKey",
            "offset": 0,
            "slot": "0",
            "type": "t_bytes_storage"
          },
          {
            "astId": 4629,
            "contract": "contracts/facets/ThirdPartyFacet.sol:ThirdPartyFacet",
            "label": "privateKey",
            "offset": 0,
            "slot": "1",
            "type": "t_bytes32"
          },
          {
            "astId": 4631,
            "contract": "contracts/facets/ThirdPartyFacet.sol:ThirdPartyFacet",
            "label": "isAccused",
            "offset": 0,
            "slot": "2",
            "type": "t_bool"
          },
          {
            "astId": 4633,
            "contract": "contracts/facets/ThirdPartyFacet.sol:ThirdPartyFacet",
            "label": "diggingFee",
            "offset": 0,
            "slot": "3",
            "type": "t_uint256"
          }
        ],
        "numberOfBytes": "128"
      },
      "t_struct(Sarcophagus)4625_storage": {
        "encoding": "inplace",
        "label": "struct LibTypes.Sarcophagus",
        "members": [
          {
            "astId": 4600,
            "contract": "contracts/facets/ThirdPartyFacet.sol:ThirdPartyFacet",
            "label": "resurrectionTime",
            "offset": 0,
            "slot": "0",
            "type": "t_uint256"
          },
          {
            "astId": 4602,
            "contract": "contracts/facets/ThirdPartyFacet.sol:ThirdPartyFacet",
            "label": "isCompromised",
            "offset": 0,
            "slot": "1",
            "type": "t_bool"
          },
          {
            "astId": 4604,
            "contract": "contracts/facets/ThirdPartyFacet.sol:ThirdPartyFacet",
            "label": "isCleaned",
            "offset": 1,
            "slot": "1",
            "type": "t_bool"
          },
          {
            "astId": 4606,
            "contract": "contracts/facets/ThirdPartyFacet.sol:ThirdPartyFacet",
            "label": "name",
            "offset": 0,
            "slot": "2",
            "type": "t_string_storage"
          },
          {
            "astId": 4608,
            "contract": "contracts/facets/ThirdPartyFacet.sol:ThirdPartyFacet",
            "label": "threshold",
            "offset": 0,
            "slot": "3",
            "type": "t_uint8"
          },
          {
            "astId": 4610,
            "contract": "contracts/facets/ThirdPartyFacet.sol:ThirdPartyFacet",
            "label": "maximumRewrapInterval",
            "offset": 0,
            "slot": "4",
            "type": "t_uint256"
          },
          {
            "astId": 4612,
            "contract": "contracts/facets/ThirdPartyFacet.sol:ThirdPartyFacet",
            "label": "arweaveTxId",
            "offset": 0,
            "slot": "5",
            "type": "t_string_storage"
          },
          {
            "astId": 4614,
            "contract": "contracts/facets/ThirdPartyFacet.sol:ThirdPartyFacet",
            "label": "embalmerAddress",
            "offset": 0,
            "slot": "6",
            "type": "t_address"
          },
          {
            "astId": 4616,
            "contract": "contracts/facets/ThirdPartyFacet.sol:ThirdPartyFacet",
            "label": "recipientAddress",
            "offset": 0,
            "slot": "7",
            "type": "t_address"
          },
          {
            "astId": 4619,
            "contract": "contracts/facets/ThirdPartyFacet.sol:ThirdPartyFacet",
            "label": "cursedArchaeologistAddresses",
            "offset": 0,
            "slot": "8",
            "type": "t_array(t_address)dyn_storage"
          },
          {
            "astId": 4624,
            "contract": "contracts/facets/ThirdPartyFacet.sol:ThirdPartyFacet",
            "label": "cursedArchaeologists",
            "offset": 0,
            "slot": "9",
            "type": "t_mapping(t_address,t_struct(CursedArchaeologist)4634_storage)"
          }
        ],
        "numberOfBytes": "320"
      },
      "t_uint256": {
        "encoding": "inplace",
        "label": "uint256",
        "numberOfBytes": "32"
      },
      "t_uint8": {
        "encoding": "inplace",
        "label": "uint8",
        "numberOfBytes": "1"
      }
    }
  }
}