{
  "address": "0xf6075c52D69FB353095BEa26cD4eb7b1788411ad",
  "abi": [
    {
      "inputs": [
        {
          "internalType": "address",
          "name": "archaeologist",
          "type": "address"
        },
        {
          "internalType": "uint256",
          "name": "index",
          "type": "uint256"
        }
      ],
      "name": "archaeologistAccusalsIdentifier",
      "outputs": [
        {
          "internalType": "bytes32",
          "name": "",
          "type": "bytes32"
        }
      ],
      "stateMutability": "view",
      "type": "function"
    },
    {
      "inputs": [
        {
          "internalType": "address",
          "name": "archaeologist",
          "type": "address"
        },
        {
          "internalType": "uint256",
          "name": "index",
          "type": "uint256"
        }
      ],
      "name": "archaeologistCleanupsIdentifier",
      "outputs": [
        {
          "internalType": "bytes32",
          "name": "",
          "type": "bytes32"
        }
      ],
      "stateMutability": "view",
      "type": "function"
    },
    {
      "inputs": [
        {
          "internalType": "address",
          "name": "archaeologist",
          "type": "address"
        },
        {
          "internalType": "uint256",
          "name": "index",
          "type": "uint256"
        }
      ],
      "name": "archaeologistSuccessesIdentifier",
      "outputs": [
        {
          "internalType": "bytes32",
          "name": "",
          "type": "bytes32"
        }
      ],
      "stateMutability": "view",
      "type": "function"
    },
    {
      "inputs": [
        {
          "internalType": "address",
          "name": "archaeologist",
          "type": "address"
        }
      ],
      "name": "getArchaeologistAccusalsCount",
      "outputs": [
        {
          "internalType": "uint256",
          "name": "",
          "type": "uint256"
        }
      ],
      "stateMutability": "view",
      "type": "function"
    },
    {
      "inputs": [
        {
          "internalType": "address",
          "name": "archaeologist",
          "type": "address"
        }
      ],
      "name": "getArchaeologistCleanupsCount",
      "outputs": [
        {
          "internalType": "uint256",
          "name": "",
          "type": "uint256"
        }
      ],
      "stateMutability": "view",
      "type": "function"
    },
    {
      "inputs": [
        {
          "internalType": "address",
          "name": "archaeologist",
          "type": "address"
        }
      ],
      "name": "getArchaeologistProfile",
      "outputs": [
        {
          "components": [
            {
              "internalType": "bool",
              "name": "exists",
              "type": "bool"
            },
            {
              "internalType": "string",
              "name": "peerId",
              "type": "string"
            },
            {
              "internalType": "uint256",
              "name": "minimumDiggingFee",
              "type": "uint256"
            },
            {
              "internalType": "uint256",
              "name": "maximumRewrapInterval",
              "type": "uint256"
            },
            {
              "internalType": "uint256",
              "name": "freeBond",
              "type": "uint256"
            },
            {
              "internalType": "uint256",
              "name": "cursedBond",
              "type": "uint256"
            }
          ],
          "internalType": "struct LibTypes.ArchaeologistProfile",
          "name": "",
          "type": "tuple"
        }
      ],
      "stateMutability": "view",
      "type": "function"
    },
    {
      "inputs": [
        {
          "internalType": "uint256",
          "name": "index",
          "type": "uint256"
        }
      ],
      "name": "getArchaeologistProfileAddressAtIndex",
      "outputs": [
        {
          "internalType": "address",
          "name": "",
          "type": "address"
        }
      ],
      "stateMutability": "view",
      "type": "function"
    },
    {
      "inputs": [],
      "name": "getArchaeologistProfileAddresses",
      "outputs": [
        {
          "internalType": "address[]",
          "name": "",
          "type": "address[]"
        }
      ],
      "stateMutability": "view",
      "type": "function"
    },
    {
      "inputs": [
        {
          "internalType": "address[]",
          "name": "addresses",
          "type": "address[]"
        }
      ],
      "name": "getArchaeologistProfiles",
      "outputs": [
        {
          "components": [
            {
              "internalType": "bool",
              "name": "exists",
              "type": "bool"
            },
            {
              "internalType": "string",
              "name": "peerId",
              "type": "string"
            },
            {
              "internalType": "uint256",
              "name": "minimumDiggingFee",
              "type": "uint256"
            },
            {
              "internalType": "uint256",
              "name": "maximumRewrapInterval",
              "type": "uint256"
            },
            {
              "internalType": "uint256",
              "name": "freeBond",
              "type": "uint256"
            },
            {
              "internalType": "uint256",
              "name": "cursedBond",
              "type": "uint256"
            }
          ],
          "internalType": "struct LibTypes.ArchaeologistProfile[]",
          "name": "",
          "type": "tuple[]"
        }
      ],
      "stateMutability": "view",
      "type": "function"
    },
    {
      "inputs": [
        {
          "internalType": "address",
          "name": "archaeologist",
          "type": "address"
        }
      ],
      "name": "getArchaeologistSarcophagi",
      "outputs": [
        {
          "internalType": "bytes32[]",
          "name": "",
          "type": "bytes32[]"
        }
      ],
      "stateMutability": "view",
      "type": "function"
    },
    {
      "inputs": [
        {
          "internalType": "address",
          "name": "archaeologist",
          "type": "address"
        },
        {
          "internalType": "bytes32",
          "name": "sarcoId",
          "type": "bytes32"
        }
      ],
      "name": "getArchaeologistSuccessOnSarcophagus",
      "outputs": [
        {
          "internalType": "bool",
          "name": "",
          "type": "bool"
        }
      ],
      "stateMutability": "view",
      "type": "function"
    },
    {
      "inputs": [
        {
          "internalType": "address",
          "name": "archaeologist",
          "type": "address"
        }
      ],
      "name": "getArchaeologistSuccessesCount",
      "outputs": [
        {
          "internalType": "uint256",
          "name": "",
          "type": "uint256"
        }
      ],
      "stateMutability": "view",
      "type": "function"
    },
    {
      "inputs": [
        {
          "internalType": "address[]",
          "name": "addresses",
          "type": "address[]"
        }
      ],
      "name": "getArchaeologistsStatistics",
      "outputs": [
        {
          "components": [
            {
              "internalType": "uint256",
              "name": "successes",
              "type": "uint256"
            },
            {
              "internalType": "uint256",
              "name": "accusals",
              "type": "uint256"
            },
            {
              "internalType": "uint256",
              "name": "cleanups",
              "type": "uint256"
            },
            {
              "internalType": "uint256",
              "name": "failures",
              "type": "uint256"
            }
          ],
          "internalType": "struct ViewStateFacet.ArchaeologistStatistics[]",
          "name": "",
          "type": "tuple[]"
        }
      ],
      "stateMutability": "view",
      "type": "function"
    },
    {
      "inputs": [
        {
          "internalType": "address",
          "name": "archaeologist",
          "type": "address"
        }
      ],
      "name": "getCursedBond",
      "outputs": [
        {
          "internalType": "uint256",
          "name": "",
          "type": "uint256"
        }
      ],
      "stateMutability": "view",
      "type": "function"
    },
    {
      "inputs": [],
      "name": "getEmbalmerClaimWindow",
      "outputs": [
        {
          "internalType": "uint256",
          "name": "",
          "type": "uint256"
        }
      ],
      "stateMutability": "view",
      "type": "function"
    },
    {
      "inputs": [
        {
          "internalType": "address",
          "name": "embalmer",
          "type": "address"
        }
      ],
      "name": "getEmbalmerSarcophagi",
      "outputs": [
        {
          "internalType": "bytes32[]",
          "name": "",
          "type": "bytes32[]"
        }
      ],
      "stateMutability": "view",
      "type": "function"
    },
    {
      "inputs": [],
      "name": "getExpirationThreshold",
      "outputs": [
        {
          "internalType": "uint256",
          "name": "",
          "type": "uint256"
        }
      ],
      "stateMutability": "view",
      "type": "function"
    },
    {
      "inputs": [
        {
          "internalType": "address",
          "name": "archaeologist",
          "type": "address"
        }
      ],
      "name": "getFreeBond",
      "outputs": [
        {
          "internalType": "uint256",
          "name": "",
          "type": "uint256"
        }
      ],
      "stateMutability": "view",
      "type": "function"
    },
    {
      "inputs": [],
      "name": "getGracePeriod",
      "outputs": [
        {
          "internalType": "uint256",
          "name": "",
          "type": "uint256"
        }
      ],
      "stateMutability": "view",
      "type": "function"
    },
    {
      "inputs": [],
      "name": "getProtocolFeeBasePercentage",
      "outputs": [
        {
          "internalType": "uint256",
          "name": "",
          "type": "uint256"
        }
      ],
      "stateMutability": "view",
      "type": "function"
    },
    {
      "inputs": [
        {
          "internalType": "address",
          "name": "recipient",
          "type": "address"
        }
      ],
      "name": "getRecipientSarcophagi",
      "outputs": [
        {
          "internalType": "bytes32[]",
          "name": "",
          "type": "bytes32[]"
        }
      ],
      "stateMutability": "view",
      "type": "function"
    },
    {
      "inputs": [
        {
          "internalType": "address",
          "name": "archaeologist",
          "type": "address"
        }
      ],
      "name": "getRewards",
      "outputs": [
        {
          "internalType": "uint256",
          "name": "",
          "type": "uint256"
        }
      ],
      "stateMutability": "view",
      "type": "function"
    },
    {
      "inputs": [
        {
          "internalType": "bytes32",
          "name": "sarcoId",
          "type": "bytes32"
        }
      ],
      "name": "getSarcophagus",
      "outputs": [
        {
          "components": [
            {
              "internalType": "uint256",
              "name": "resurrectionTime",
              "type": "uint256"
            },
            {
              "internalType": "bool",
              "name": "isCompromised",
              "type": "bool"
            },
            {
              "internalType": "bool",
              "name": "isCleaned",
              "type": "bool"
            },
            {
              "internalType": "string",
              "name": "name",
              "type": "string"
            },
            {
              "internalType": "uint8",
              "name": "threshold",
              "type": "uint8"
            },
            {
              "internalType": "uint256",
              "name": "maximumRewrapInterval",
              "type": "uint256"
            },
            {
              "internalType": "string",
              "name": "arweaveTxId",
              "type": "string"
            },
            {
              "internalType": "address",
              "name": "embalmerAddress",
              "type": "address"
            },
            {
              "internalType": "address",
              "name": "recipientAddress",
              "type": "address"
            },
            {
              "internalType": "address[]",
              "name": "archaeologistAddresses",
              "type": "address[]"
            },
            {
              "internalType": "uint8",
              "name": "publishedPrivateKeyCount",
              "type": "uint8"
            },
            {
              "internalType": "bool",
              "name": "hasLockedBond",
              "type": "bool"
            }
          ],
          "internalType": "struct ViewStateFacet.SarcophagusResponse",
          "name": "",
          "type": "tuple"
        }
      ],
      "stateMutability": "view",
      "type": "function"
    },
    {
      "inputs": [
        {
          "internalType": "bytes32",
          "name": "sarcoId",
          "type": "bytes32"
        },
        {
          "internalType": "address",
          "name": "archaeologist",
          "type": "address"
        }
      ],
      "name": "getSarcophagusArchaeologist",
      "outputs": [
        {
          "components": [
            {
              "internalType": "bytes",
              "name": "publicKey",
              "type": "bytes"
            },
            {
              "internalType": "bytes32",
              "name": "privateKey",
              "type": "bytes32"
            },
            {
              "internalType": "bool",
              "name": "isAccused",
              "type": "bool"
            },
            {
              "internalType": "uint256",
              "name": "diggingFee",
              "type": "uint256"
            }
          ],
          "internalType": "struct LibTypes.CursedArchaeologist",
          "name": "",
          "type": "tuple"
        }
      ],
      "stateMutability": "view",
      "type": "function"
    },
    {
      "inputs": [],
      "name": "getTotalProtocolFees",
      "outputs": [
        {
          "internalType": "uint256",
          "name": "",
          "type": "uint256"
        }
      ],
      "stateMutability": "view",
      "type": "function"
    }
  ],
  "transactionHash": "0x399f949ae290e2d3045f74adce16d91eb57d5bef437f592685eb71b4edc28cba",
  "args": [],
  "numDeployments": 1,
  "solcInputHash": "4aa61604c0a9efd866e19679821c2a67",
  "bytecode": "0x608060405234801561001057600080fd5b50612a1b806100206000396000f3fe608060405234801561001057600080fd5b50600436106101735760003560e01c806387927ce6116100de578063d31dedd111610097578063dc231f4311610071578063dc231f43146104fc578063de116f061461052c578063ef60e4e71461055c578063fb6fffb51461058c57610173565b8063d31dedd11461047e578063daa4d21b146104ae578063dbd18388146104de57610173565b806387927ce6146103825780638fbd55d2146103b25780639c545639146103e25780639fdaded114610400578063a9328dcc1461041e578063c34e9bff1461044e57610173565b806357babbaf1161013057806357babbaf146102745780636b74d55a146102a45780636ba5c8ef146102d45780636c99bedc1461030457806379ee54f7146103345780637aa9fd2f1461036457610173565b80632569090214610178578063284f34de146101a857806331baea67146101d85780633fbb8930146101f657806342e10bc8146102145780634d0b676714610244575b600080fd5b610192600480360381019061018d9190611b56565b6105bc565b60405161019f9190611b9c565b60405180910390f35b6101c260048036038101906101bd9190611be3565b61060a565b6040516101cf9190611c3c565b60405180910390f35b6101e0610672565b6040516101ed9190611b9c565b60405180910390f35b6101fe61067e565b60405161020b9190611d15565b60405180910390f35b61022e60048036038101906102299190611b56565b61070f565b60405161023b9190611e83565b60405180910390f35b61025e60048036038101906102599190611b56565b610840565b60405161026b9190611f63565b60405180910390f35b61028e60048036038101906102899190611f85565b6108da565b60405161029b9190611fc1565b60405180910390f35b6102be60048036038101906102b99190612124565b610924565b6040516102cb9190612271565b60405180910390f35b6102ee60048036038101906102e991906122bf565b610d74565b6040516102fb919061230e565b60405180910390f35b61031e60048036038101906103199190611be3565b610dde565b60405161032b9190611c3c565b60405180910390f35b61034e60048036038101906103499190611b56565b610e46565b60405161035b9190611b9c565b60405180910390f35b61036c610e91565b6040516103799190611b9c565b60405180910390f35b61039c60048036038101906103979190611b56565b610e9d565b6040516103a99190611b9c565b60405180910390f35b6103cc60048036038101906103c79190611b56565b610eeb565b6040516103d99190611b9c565b60405180910390f35b6103ea610f39565b6040516103f79190611b9c565b60405180910390f35b610408610f45565b6040516104159190611b9c565b60405180910390f35b61043860048036038101906104339190612124565b610f51565b6040516104459190612474565b60405180910390f35b61046860048036038101906104639190611b56565b6111a2565b6040516104759190611f63565b60405180910390f35b61049860048036038101906104939190611b56565b61123c565b6040516104a59190611b9c565b60405180910390f35b6104c860048036038101906104c39190611b56565b61128a565b6040516104d59190611b9c565b60405180910390f35b6104e66112d8565b6040516104f39190611b9c565b60405180910390f35b61051660048036038101906105119190612496565b6112e4565b604051610523919061258e565b60405180910390f35b610546600480360381019061054191906125b0565b611416565b604051610553919061277a565b60405180910390f35b61057660048036038101906105719190611b56565b6118bc565b6040516105839190611f63565b60405180910390f35b6105a660048036038101906105a19190611be3565b611956565b6040516105b39190611c3c565b60405180910390f35b600080600e0160008373ffffffffffffffffffffffffffffffffffffffff1673ffffffffffffffffffffffffffffffffffffffff168152602001908152602001600020805490509050919050565b600080600e0160008473ffffffffffffffffffffffffffffffffffffffff1673ffffffffffffffffffffffffffffffffffffffff168152602001908152602001600020828154811061065f5761065e61279c565b5b9060005260206000200154905092915050565b60008060050154905090565b60606000600b0180548060200260200160405190810160405280929190818152602001828054801561070557602002820191906000526020600020905b8160009054906101000a900473ffffffffffffffffffffffffffffffffffffffff1673ffffffffffffffffffffffffffffffffffffffff16815260200190600101908083116106bb575b5050505050905090565b6107176119be565b6000600c0160008373ffffffffffffffffffffffffffffffffffffffff1673ffffffffffffffffffffffffffffffffffffffff1681526020019081526020016000206040518060c00160405290816000820160009054906101000a900460ff1615151515815260200160018201805461078f906127fa565b80601f01602080910402602001604051908101604052809291908181526020018280546107bb906127fa565b80156108085780601f106107dd57610100808354040283529160200191610808565b820191906000526020600020905b8154815290600101906020018083116107eb57829003601f168201915b505050505081526020016002820154815260200160038201548152602001600482015481526020016005820154815250509050919050565b6060600060080160008373ffffffffffffffffffffffffffffffffffffffff1673ffffffffffffffffffffffffffffffffffffffff1681526020019081526020016000208054806020026020016040519081016040528092919081815260200182805480156108ce57602002820191906000526020600020905b8154815260200190600101908083116108ba575b50505050509050919050565b600080600b0182815481106108f2576108f161279c565b5b9060005260206000200160009054906101000a900473ffffffffffffffffffffffffffffffffffffffff169050919050565b60606000825167ffffffffffffffff81111561094357610942611fe1565b5b60405190808252806020026020018201604052801561097c57816020015b6109696119f6565b8152602001906001900390816109615790505b50905060005b8351811015610d6a576000808060070160008785815181106109a7576109a661279c565b5b602002602001015173ffffffffffffffffffffffffffffffffffffffff1673ffffffffffffffffffffffffffffffffffffffff168152602001908152602001600020905060005b8180549050811015610b5c57600080600a016000848481548110610a1557610a1461279c565b5b9060005260206000200154815260200190815260200160002090503073ffffffffffffffffffffffffffffffffffffffff16636ba5c8ef898781518110610a5f57610a5e61279c565b5b6020026020010151858581548110610a7a57610a7961279c565b5b90600052602060002001546040518363ffffffff1660e01b8152600401610aa292919061282b565b602060405180830381865afa158015610abf573d6000803e3d6000fd5b505050506040513d601f19601f82011682018060405250810190610ae39190612880565b158015610b1457507fffffffffffffffffffffffffffffffffffffffffffffffffffffffffffffffff816000015414155b8015610b3357506000600301548160000154610b3091906128dc565b42115b15610b4857600184610b4591906128dc565b93505b508080610b5490612932565b9150506109ee565b5060405180608001604052803073ffffffffffffffffffffffffffffffffffffffff166325690902898781518110610b9757610b9661279c565b5b60200260200101516040518263ffffffff1660e01b8152600401610bbb9190611fc1565b602060405180830381865afa158015610bd8573d6000803e3d6000fd5b505050506040513d601f19601f82011682018060405250810190610bfc919061298f565b81526020013073ffffffffffffffffffffffffffffffffffffffff1663daa4d21b898781518110610c3057610c2f61279c565b5b60200260200101516040518263ffffffff1660e01b8152600401610c549190611fc1565b602060405180830381865afa158015610c71573d6000803e3d6000fd5b505050506040513d601f19601f82011682018060405250810190610c95919061298f565b81526020013073ffffffffffffffffffffffffffffffffffffffff1663d31dedd1898781518110610cc957610cc861279c565b5b60200260200101516040518263ffffffff1660e01b8152600401610ced9190611fc1565b602060405180830381865afa158015610d0a573d6000803e3d6000fd5b505050506040513d601f19601f82011682018060405250810190610d2e919061298f565b815260200183815250848481518110610d4a57610d4961279c565b5b602002602001018190525050508080610d6290612932565b915050610982565b5080915050919050565b60008060001b6000600a01600084815260200190815260200160002060090160008573ffffffffffffffffffffffffffffffffffffffff1673ffffffffffffffffffffffffffffffffffffffff168152602001908152602001600020600101541415905092915050565b600080600f0160008473ffffffffffffffffffffffffffffffffffffffff1673ffffffffffffffffffffffffffffffffffffffff1681526020019081526020016000208281548110610e3357610e3261279c565b5b9060005260206000200154905092915050565b600080600d0160008373ffffffffffffffffffffffffffffffffffffffff1673ffffffffffffffffffffffffffffffffffffffff168152602001908152602001600020549050919050565b60008060040154905090565b600080600c0160008373ffffffffffffffffffffffffffffffffffffffff1673ffffffffffffffffffffffffffffffffffffffff168152602001908152602001600020600501549050919050565b600080600c0160008373ffffffffffffffffffffffffffffffffffffffff1673ffffffffffffffffffffffffffffffffffffffff168152602001908152602001600020600401549050919050565b60008060010154905090565b60008060020154905090565b60606000825167ffffffffffffffff811115610f7057610f6f611fe1565b5b604051908082528060200260200182016040528015610fa957816020015b610f966119be565b815260200190600190039081610f8e5790505b50905060005b8351811015611198576000600c016000858381518110610fd257610fd161279c565b5b602002602001015173ffffffffffffffffffffffffffffffffffffffff1673ffffffffffffffffffffffffffffffffffffffff16815260200190815260200160002060000160009054906101000a900460ff1615611185576000600c0160008583815181106110445761104361279c565b5b602002602001015173ffffffffffffffffffffffffffffffffffffffff1673ffffffffffffffffffffffffffffffffffffffff1681526020019081526020016000206040518060c00160405290816000820160009054906101000a900460ff161515151581526020016001820180546110bc906127fa565b80601f01602080910402602001604051908101604052809291908181526020018280546110e8906127fa565b80156111355780601f1061110a57610100808354040283529160200191611135565b820191906000526020600020905b81548152906001019060200180831161111857829003601f168201915b505050505081526020016002820154815260200160038201548152602001600482015481526020016005820154815250508282815181106111795761117861279c565b5b60200260200101819052505b808061119090612932565b915050610faf565b5080915050919050565b6060600060060160008373ffffffffffffffffffffffffffffffffffffffff1673ffffffffffffffffffffffffffffffffffffffff16815260200190815260200160002080548060200260200160405190810160405280929190818152602001828054801561123057602002820191906000526020600020905b81548152602001906001019080831161121c575b50505050509050919050565b60008060100160008373ffffffffffffffffffffffffffffffffffffffff1673ffffffffffffffffffffffffffffffffffffffff168152602001908152602001600020805490509050919050565b600080600f0160008373ffffffffffffffffffffffffffffffffffffffff1673ffffffffffffffffffffffffffffffffffffffff168152602001908152602001600020805490509050919050565b60008060030154905090565b6112ec611a1e565b6000600a01600084815260200190815260200160002060090160008373ffffffffffffffffffffffffffffffffffffffff1673ffffffffffffffffffffffffffffffffffffffff16815260200190815260200160002060405180608001604052908160008201805461135d906127fa565b80601f0160208091040260200160405190810160405280929190818152602001828054611389906127fa565b80156113d65780601f106113ab576101008083540402835291602001916113d6565b820191906000526020600020905b8154815290600101906020018083116113b957829003601f168201915b50505050508152602001600182015481526020016002820160009054906101000a900460ff16151515158152602001600382015481525050905092915050565b61141e611a4b565b600080600a016000848152602001908152602001600020905060008060005b8360080180549050811015611604576000801b84600901600086600801848154811061146c5761146b61279c565b5b9060005260206000200160009054906101000a900473ffffffffffffffffffffffffffffffffffffffff1673ffffffffffffffffffffffffffffffffffffffff1673ffffffffffffffffffffffffffffffffffffffff16815260200190815260200160002060010154146114ed5782806114e5906129bc565b9350506115f1565b8360090160008560080183815481106115095761150861279c565b5b9060005260206000200160009054906101000a900473ffffffffffffffffffffffffffffffffffffffff1673ffffffffffffffffffffffffffffffffffffffff1673ffffffffffffffffffffffffffffffffffffffff16815260200190815260200160002060020160009054906101000a900460ff1615801561159b57508360010160009054906101000a900460ff16155b80156115b657508360010160019054906101000a900460ff16155b80156115e657507fffffffffffffffffffffffffffffffffffffffffffffffffffffffffffffffff846000015414155b156115f057600191505b5b80806115fc90612932565b91505061143d565b50604051806101800160405280846000015481526020018460010160009054906101000a900460ff16151581526020018460010160019054906101000a900460ff161515815260200184600201805461165c906127fa565b80601f0160208091040260200160405190810160405280929190818152602001828054611688906127fa565b80156116d55780601f106116aa576101008083540402835291602001916116d5565b820191906000526020600020905b8154815290600101906020018083116116b857829003601f168201915b505050505081526020018460030160009054906101000a900460ff1660ff16815260200184600401548152602001846005018054611712906127fa565b80601f016020809104026020016040519081016040528092919081815260200182805461173e906127fa565b801561178b5780601f106117605761010080835404028352916020019161178b565b820191906000526020600020905b81548152906001019060200180831161176e57829003601f168201915b505050505081526020018460060160009054906101000a900473ffffffffffffffffffffffffffffffffffffffff1673ffffffffffffffffffffffffffffffffffffffff1681526020018460070160009054906101000a900473ffffffffffffffffffffffffffffffffffffffff1673ffffffffffffffffffffffffffffffffffffffff1681526020018460080180548060200260200160405190810160405280929190818152602001828054801561189957602002820191906000526020600020905b8160009054906101000a900473ffffffffffffffffffffffffffffffffffffffff1673ffffffffffffffffffffffffffffffffffffffff168152602001906001019080831161184f575b505050505081526020018360ff1681526020018215158152509350505050919050565b6060600060070160008373ffffffffffffffffffffffffffffffffffffffff1673ffffffffffffffffffffffffffffffffffffffff16815260200190815260200160002080548060200260200160405190810160405280929190818152602001828054801561194a57602002820191906000526020600020905b815481526020019060010190808311611936575b50505050509050919050565b60008060100160008473ffffffffffffffffffffffffffffffffffffffff1673ffffffffffffffffffffffffffffffffffffffff16815260200190815260200160002082815481106119ab576119aa61279c565b5b9060005260206000200154905092915050565b6040518060c0016040528060001515815260200160608152602001600081526020016000815260200160008152602001600081525090565b6040518060800160405280600081526020016000815260200160008152602001600081525090565b60405180608001604052806060815260200160008019168152602001600015158152602001600081525090565b6040518061018001604052806000815260200160001515815260200160001515815260200160608152602001600060ff1681526020016000815260200160608152602001600073ffffffffffffffffffffffffffffffffffffffff168152602001600073ffffffffffffffffffffffffffffffffffffffff16815260200160608152602001600060ff1681526020016000151581525090565b6000604051905090565b600080fd5b600080fd5b600073ffffffffffffffffffffffffffffffffffffffff82169050919050565b6000611b2382611af8565b9050919050565b611b3381611b18565b8114611b3e57600080fd5b50565b600081359050611b5081611b2a565b92915050565b600060208284031215611b6c57611b6b611aee565b5b6000611b7a84828501611b41565b91505092915050565b6000819050919050565b611b9681611b83565b82525050565b6000602082019050611bb16000830184611b8d565b92915050565b611bc081611b83565b8114611bcb57600080fd5b50565b600081359050611bdd81611bb7565b92915050565b60008060408385031215611bfa57611bf9611aee565b5b6000611c0885828601611b41565b9250506020611c1985828601611bce565b9150509250929050565b6000819050919050565b611c3681611c23565b82525050565b6000602082019050611c516000830184611c2d565b92915050565b600081519050919050565b600082825260208201905092915050565b6000819050602082019050919050565b611c8c81611b18565b82525050565b6000611c9e8383611c83565b60208301905092915050565b6000602082019050919050565b6000611cc282611c57565b611ccc8185611c62565b9350611cd783611c73565b8060005b83811015611d08578151611cef8882611c92565b9750611cfa83611caa565b925050600181019050611cdb565b5085935050505092915050565b60006020820190508181036000830152611d2f8184611cb7565b905092915050565b60008115159050919050565b611d4c81611d37565b82525050565b600081519050919050565b600082825260208201905092915050565b60005b83811015611d8c578082015181840152602081019050611d71565b83811115611d9b576000848401525b50505050565b6000601f19601f8301169050919050565b6000611dbd82611d52565b611dc78185611d5d565b9350611dd7818560208601611d6e565b611de081611da1565b840191505092915050565b611df481611b83565b82525050565b600060c083016000830151611e126000860182611d43565b5060208301518482036020860152611e2a8282611db2565b9150506040830151611e3f6040860182611deb565b506060830151611e526060860182611deb565b506080830151611e656080860182611deb565b5060a0830151611e7860a0860182611deb565b508091505092915050565b60006020820190508181036000830152611e9d8184611dfa565b905092915050565b600081519050919050565b600082825260208201905092915050565b6000819050602082019050919050565b611eda81611c23565b82525050565b6000611eec8383611ed1565b60208301905092915050565b6000602082019050919050565b6000611f1082611ea5565b611f1a8185611eb0565b9350611f2583611ec1565b8060005b83811015611f56578151611f3d8882611ee0565b9750611f4883611ef8565b925050600181019050611f29565b5085935050505092915050565b60006020820190508181036000830152611f7d8184611f05565b905092915050565b600060208284031215611f9b57611f9a611aee565b5b6000611fa984828501611bce565b91505092915050565b611fbb81611b18565b82525050565b6000602082019050611fd66000830184611fb2565b92915050565b600080fd5b7f4e487b7100000000000000000000000000000000000000000000000000000000600052604160045260246000fd5b61201982611da1565b810181811067ffffffffffffffff8211171561203857612037611fe1565b5b80604052505050565b600061204b611ae4565b90506120578282612010565b919050565b600067ffffffffffffffff82111561207757612076611fe1565b5b602082029050602081019050919050565b600080fd5b60006120a061209b8461205c565b612041565b905080838252602082019050602084028301858111156120c3576120c2612088565b5b835b818110156120ec57806120d88882611b41565b8452602084019350506020810190506120c5565b5050509392505050565b600082601f83011261210b5761210a611fdc565b5b813561211b84826020860161208d565b91505092915050565b60006020828403121561213a57612139611aee565b5b600082013567ffffffffffffffff81111561215857612157611af3565b5b612164848285016120f6565b91505092915050565b600081519050919050565b600082825260208201905092915050565b6000819050602082019050919050565b6080820160008201516121af6000850182611deb565b5060208201516121c26020850182611deb565b5060408201516121d56040850182611deb565b5060608201516121e86060850182611deb565b50505050565b60006121fa8383612199565b60808301905092915050565b6000602082019050919050565b600061221e8261216d565b6122288185612178565b935061223383612189565b8060005b8381101561226457815161224b88826121ee565b975061225683612206565b925050600181019050612237565b5085935050505092915050565b6000602082019050818103600083015261228b8184612213565b905092915050565b61229c81611c23565b81146122a757600080fd5b50565b6000813590506122b981612293565b92915050565b600080604083850312156122d6576122d5611aee565b5b60006122e485828601611b41565b92505060206122f5858286016122aa565b9150509250929050565b61230881611d37565b82525050565b600060208201905061232360008301846122ff565b92915050565b600081519050919050565b600082825260208201905092915050565b6000819050602082019050919050565b600060c08301600083015161236d6000860182611d43565b50602083015184820360208601526123858282611db2565b915050604083015161239a6040860182611deb565b5060608301516123ad6060860182611deb565b5060808301516123c06080860182611deb565b5060a08301516123d360a0860182611deb565b508091505092915050565b60006123ea8383612355565b905092915050565b6000602082019050919050565b600061240a82612329565b6124148185612334565b93508360208202850161242685612345565b8060005b85811015612462578484038952815161244385826123de565b945061244e836123f2565b925060208a0199505060018101905061242a565b50829750879550505050505092915050565b6000602082019050818103600083015261248e81846123ff565b905092915050565b600080604083850312156124ad576124ac611aee565b5b60006124bb858286016122aa565b92505060206124cc85828601611b41565b9150509250929050565b600081519050919050565b600082825260208201905092915050565b60006124fd826124d6565b61250781856124e1565b9350612517818560208601611d6e565b61252081611da1565b840191505092915050565b6000608083016000830151848203600086015261254882826124f2565b915050602083015161255d6020860182611ed1565b5060408301516125706040860182611d43565b5060608301516125836060860182611deb565b508091505092915050565b600060208201905081810360008301526125a8818461252b565b905092915050565b6000602082840312156125c6576125c5611aee565b5b60006125d4848285016122aa565b91505092915050565b600060ff82169050919050565b6125f3816125dd565b82525050565b600082825260208201905092915050565b600061261582611c57565b61261f81856125f9565b935061262a83611c73565b8060005b8381101561265b5781516126428882611c92565b975061264d83611caa565b92505060018101905061262e565b5085935050505092915050565b6000610180830160008301516126816000860182611deb565b5060208301516126946020860182611d43565b5060408301516126a76040860182611d43565b50606083015184820360608601526126bf8282611db2565b91505060808301516126d460808601826125ea565b5060a08301516126e760a0860182611deb565b5060c083015184820360c08601526126ff8282611db2565b91505060e083015161271460e0860182611c83565b50610100830151612729610100860182611c83565b50610120830151848203610120860152612743828261260a565b91505061014083015161275a6101408601826125ea565b5061016083015161276f610160860182611d43565b508091505092915050565b600060208201905081810360008301526127948184612668565b905092915050565b7f4e487b7100000000000000000000000000000000000000000000000000000000600052603260045260246000fd5b7f4e487b7100000000000000000000000000000000000000000000000000000000600052602260045260246000fd5b6000600282049050600182168061281257607f821691505b602082108103612825576128246127cb565b5b50919050565b60006040820190506128406000830185611fb2565b61284d6020830184611c2d565b9392505050565b61285d81611d37565b811461286857600080fd5b50565b60008151905061287a81612854565b92915050565b60006020828403121561289657612895611aee565b5b60006128a48482850161286b565b91505092915050565b7f4e487b7100000000000000000000000000000000000000000000000000000000600052601160045260246000fd5b60006128e782611b83565b91506128f283611b83565b9250827fffffffffffffffffffffffffffffffffffffffffffffffffffffffffffffffff03821115612927576129266128ad565b5b828201905092915050565b600061293d82611b83565b91507fffffffffffffffffffffffffffffffffffffffffffffffffffffffffffffffff820361296f5761296e6128ad565b5b600182019050919050565b60008151905061298981611bb7565b92915050565b6000602082840312156129a5576129a4611aee565b5b60006129b38482850161297a565b91505092915050565b60006129c7826125dd565b915060ff82036129da576129d96128ad565b5b60018201905091905056fea2646970667358221220a71b3af0c677e4e683db1067f173e6fc6b87a6f7f2c352a55d8b451db86308b764736f6c634300080d0033",
  "devdoc": {
    "kind": "dev",
    "methods": {
      "archaeologistAccusalsIdentifier(address,uint256)": {
        "params": {
          "archaeologist": "The address of an archaeologist",
          "index": "The index of the archaeologist's accused sarcophagi"
        },
        "returns": {
          "_0": "the identifier associated with the index of the archaeologist's accused sarcophagi"
        }
      },
      "archaeologistCleanupsIdentifier(address,uint256)": {
        "params": {
          "archaeologist": "The address of an archaeologist",
          "index": "The index of the archaeologist's cleaned-up sarcophagi"
        },
        "returns": {
          "_0": "the identifier associated with the index of the archaeologist's cleaned-up sarcophagi"
        }
      },
      "archaeologistSuccessesIdentifier(address,uint256)": {
        "params": {
          "archaeologist": "The address of an archaeologist",
          "index": "The index of the archaeologist's unwrapped sarcophagi"
        },
        "returns": {
          "_0": "the identifier associated with the index of the archaeologist's unwrapped sarcophagi"
        }
      },
      "getArchaeologistAccusalsCount(address)": {
        "params": {
          "archaeologist": "The address of the archaeologist whose accusations count is being returned"
        }
      },
      "getArchaeologistCleanupsCount(address)": {
        "params": {
          "archaeologist": "The address of the archaeologist whose cleanups count is being returned"
        }
      },
      "getArchaeologistProfile(address)": {
        "params": {
          "archaeologist": "The archaeologist account's address"
        },
        "returns": {
          "_0": "the Archaeologist object"
        }
      },
      "getArchaeologistProfileAddressAtIndex(uint256)": {
        "params": {
          "index": "The index of the registered archaeologist"
        },
        "returns": {
          "_0": "address of the archaeologist"
        }
      },
      "getArchaeologistProfileAddresses()": {
        "returns": {
          "_0": "addresses of registered archaeologists"
        }
      },
      "getArchaeologistProfiles(address[])": {
        "params": {
          "addresses": "The list of archaeologist addresses"
        },
        "returns": {
          "_0": "The list of archaeologist profiles"
        }
      },
      "getArchaeologistSarcophagi(address)": {
        "params": {
          "archaeologist": "The address of the archaeologist whose sarcophagi are being returned"
        }
      },
      "getArchaeologistSuccessOnSarcophagus(address,bytes32)": {
        "params": {
          "archaeologist": "The address of the archaeologist",
          "sarcoId": "the sarcophagus to check if unwrapping occured"
        }
      },
      "getArchaeologistSuccessesCount(address)": {
        "params": {
          "archaeologist": "The address of the archaeologist whose success"
        }
      },
      "getArchaeologistsStatistics(address[])": {
        "params": {
          "addresses": "The list of archaeologist addresses"
        },
        "returns": {
          "_0": "The list of archaeologist statistics"
        }
      },
      "getCursedBond(address)": {
        "params": {
          "archaeologist": "The address of the archaeologist whose cursed bond is being returned"
        }
      },
      "getEmbalmerClaimWindow()": {
        "returns": {
          "_0": "The embalmer claim window"
        }
      },
      "getEmbalmerSarcophagi(address)": {
        "params": {
          "embalmer": "The address of the embalmer whose sarcophagi are being returned"
        }
      },
      "getExpirationThreshold()": {
        "returns": {
          "_0": "The expiration threshold"
        }
      },
      "getFreeBond(address)": {
        "params": {
          "archaeologist": "The address of the archaeologist whose free bond is being returned"
        }
      },
      "getGracePeriod()": {
        "returns": {
          "_0": "The resurrection grace period"
        }
      },
      "getProtocolFeeBasePercentage()": {
        "returns": {
          "_0": "The protocol fee base percentage - protocolFeeBasePercentage"
        }
      },
      "getRecipientSarcophagi(address)": {
        "params": {
          "recipient": "The address of the recipient whose sarcophagi are being returned"
        }
      },
      "getRewards(address)": {
        "params": {
          "archaeologist": "The address of the archaeologist whose reward is being returned"
        }
      },
      "getSarcophagus(bytes32)": {
        "params": {
          "sarcoId": "The identifier of the sarcophagus being returned"
        }
      },
      "getSarcophagusArchaeologist(bytes32,address)": {
        "params": {
          "archaeologist": "The address of the archaeologist whose data is being returned",
          "sarcoId": "The identifier of the sarcophagus whose data is being returned"
        }
      },
      "getTotalProtocolFees()": {
        "returns": {
          "_0": "The total protocol fees"
        }
      }
    },
    "version": 1
  },
  "userdoc": {
    "kind": "user",
    "methods": {
      "archaeologistAccusalsIdentifier(address,uint256)": {
        "notice": "Returns the sarcophagus unique identifier for a given archaeologist and index of the accused sarcophagi"
      },
      "archaeologistCleanupsIdentifier(address,uint256)": {
        "notice": "Returns the sarcophagus unique identifier for a given archaeologist and index of the cleaned-up sarcophagi"
      },
      "archaeologistSuccessesIdentifier(address,uint256)": {
        "notice": "Returns the sarcophagus unique identifier for a given archaeologist and index of the successfully unwrapped sarcophagi"
      },
      "getArchaeologistAccusalsCount(address)": {
        "notice": "Returns the number of accusations for an archaeologist."
      },
      "getArchaeologistCleanupsCount(address)": {
        "notice": "Returns the number of cleanups for an archaeologist."
      },
      "getArchaeologistProfile(address)": {
        "notice": "Given an archaeologist address, return that archaeologist's profile"
      },
      "getArchaeologistProfileAddressAtIndex(uint256)": {
        "notice": "Given an index (of the full archaeologist array), return the archaeologist address at that index"
      },
      "getArchaeologistProfileAddresses()": {
        "notice": "Return the list of registereed archaeologist addresses."
      },
      "getArchaeologistProfiles(address[])": {
        "notice": "Gets archaeologist profiles given a list of archaeologist addresses. If an invalid address is included, simply leaves it out of the list."
      },
      "getArchaeologistSarcophagi(address)": {
        "notice": "Given an archaeologist's address, returns the identifiers of all sarcophagi that the archaeologist has participated in."
      },
      "getArchaeologistSuccessOnSarcophagus(address,bytes32)": {
        "notice": "Returns whether an archaeologist completed an unwrap for a sarcophagus"
      },
      "getArchaeologistSuccessesCount(address)": {
        "notice": "Returns the number of successful unwraps for an archaeologist."
      },
      "getArchaeologistsStatistics(address[])": {
        "notice": "Gets all reputation statistics for each archaeologist Contains a list of counts for each category."
      },
      "getCursedBond(address)": {
        "notice": "Returns the amount of cursed bond stored in the contract for an archaeologist."
      },
      "getEmbalmerClaimWindow()": {
        "notice": "Gets the window after end of gracePeriod + resurrectionTime where embalmer can claim remaining bonds from archaeologists that have failed to publish private keys"
      },
      "getEmbalmerSarcophagi(address)": {
        "notice": "Given an embalmer's address, returns the identifiers of all sarcophagi that the embalmer has created."
      },
      "getExpirationThreshold()": {
        "notice": "Gets the expiration threshold after which a sarcophagus must be renegotiated"
      },
      "getFreeBond(address)": {
        "notice": "Returns the amount of free bond stored in the contract for an archaeologist."
      },
      "getGracePeriod()": {
        "notice": "Gets the grace period an archaeologist is given to resurrect a sarcophagus after the resurrection time passes"
      },
      "getProtocolFeeBasePercentage()": {
        "notice": "Get the protocol fee base percentage from the contract."
      },
      "getRecipientSarcophagi(address)": {
        "notice": "Given a recipient's address, returns the identifiers of all sarcophagi that the recipient has participated in."
      },
      "getRewards(address)": {
        "notice": "Returns the amount of rewards stored in the contract for an archaeologist."
      },
      "getSarcophagus(bytes32)": {
        "notice": "Returns data on the sarcophagus with the supplied id includes aggregate data on cursed archaeologists associated with the sarcophagus     - publishedPrivateKeyCount - the total number of private keys published by archaeologists on the sarcophagus     - hasLockedBond - true if archaeologists still have bond locked in the contract for this sarcophagus"
      },
      "getSarcophagusArchaeologist(bytes32,address)": {
        "notice": "Returns the data stored on a sarcophagus for an archaeologist."
      },
      "getTotalProtocolFees()": {
        "notice": "Gets the total protocol fees from the contract."
      }
    },
    "version": 1
  },
  "storageLayout": {
    "storage": [
      {
        "astId": 3544,
        "contract": "contracts/facets/ViewStateFacet.sol:ViewStateFacet",
        "label": "s",
        "offset": 0,
        "slot": "0",
        "type": "t_struct(AppStorage)4934_storage"
      }
    ],
    "types": {
      "t_address": {
        "encoding": "inplace",
        "label": "address",
        "numberOfBytes": "20"
      },
      "t_array(t_address)dyn_storage": {
        "base": "t_address",
        "encoding": "dynamic_array",
        "label": "address[]",
        "numberOfBytes": "32"
      },
      "t_array(t_bytes32)dyn_storage": {
        "base": "t_bytes32",
        "encoding": "dynamic_array",
        "label": "bytes32[]",
        "numberOfBytes": "32"
      },
      "t_bool": {
        "encoding": "inplace",
        "label": "bool",
        "numberOfBytes": "1"
      },
      "t_bytes32": {
        "encoding": "inplace",
        "label": "bytes32",
        "numberOfBytes": "32"
      },
      "t_bytes_memory_ptr": {
        "encoding": "bytes",
        "label": "bytes",
        "numberOfBytes": "32"
      },
      "t_bytes_storage": {
        "encoding": "bytes",
        "label": "bytes",
        "numberOfBytes": "32"
      },
      "t_contract(IERC20)77": {
        "encoding": "inplace",
        "label": "contract IERC20",
        "numberOfBytes": "20"
      },
      "t_mapping(t_address,t_array(t_bytes32)dyn_storage)": {
        "encoding": "mapping",
        "key": "t_address",
        "label": "mapping(address => bytes32[])",
        "numberOfBytes": "32",
        "value": "t_array(t_bytes32)dyn_storage"
      },
      "t_mapping(t_address,t_struct(ArchaeologistProfile)4647_storage)": {
        "encoding": "mapping",
        "key": "t_address",
        "label": "mapping(address => struct LibTypes.ArchaeologistProfile)",
        "numberOfBytes": "32",
        "value": "t_struct(ArchaeologistProfile)4647_storage"
      },
      "t_mapping(t_address,t_struct(CursedArchaeologist)4634_storage)": {
        "encoding": "mapping",
        "key": "t_address",
        "label": "mapping(address => struct LibTypes.CursedArchaeologist)",
        "numberOfBytes": "32",
        "value": "t_struct(CursedArchaeologist)4634_storage"
      },
      "t_mapping(t_address,t_uint256)": {
        "encoding": "mapping",
        "key": "t_address",
        "label": "mapping(address => uint256)",
        "numberOfBytes": "32",
        "value": "t_uint256"
      },
      "t_mapping(t_bytes32,t_struct(Sarcophagus)4625_storage)": {
        "encoding": "mapping",
        "key": "t_bytes32",
        "label": "mapping(bytes32 => struct LibTypes.Sarcophagus)",
        "numberOfBytes": "32",
        "value": "t_struct(Sarcophagus)4625_storage"
      },
      "t_mapping(t_bytes_memory_ptr,t_address)": {
        "encoding": "mapping",
        "key": "t_bytes_memory_ptr",
        "label": "mapping(bytes => address)",
        "numberOfBytes": "32",
        "value": "t_address"
      },
      "t_string_storage": {
        "encoding": "bytes",
        "label": "string",
        "numberOfBytes": "32"
      },
      "t_struct(AppStorage)4934_storage": {
        "encoding": "inplace",
        "label": "struct AppStorage",
        "members": [
          {
            "astId": 4869,
            "contract": "contracts/facets/ViewStateFacet.sol:ViewStateFacet",
            "label": "sarcoToken",
            "offset": 0,
            "slot": "0",
            "type": "t_contract(IERC20)77"
          },
          {
            "astId": 4871,
            "contract": "contracts/facets/ViewStateFacet.sol:ViewStateFacet",
            "label": "totalProtocolFees",
            "offset": 0,
            "slot": "1",
            "type": "t_uint256"
          },
          {
            "astId": 4874,
            "contract": "contracts/facets/ViewStateFacet.sol:ViewStateFacet",
            "label": "protocolFeeBasePercentage",
            "offset": 0,
            "slot": "2",
            "type": "t_uint256"
          },
          {
            "astId": 4876,
            "contract": "contracts/facets/ViewStateFacet.sol:ViewStateFacet",
            "label": "gracePeriod",
            "offset": 0,
            "slot": "3",
            "type": "t_uint256"
          },
          {
            "astId": 4878,
            "contract": "contracts/facets/ViewStateFacet.sol:ViewStateFacet",
            "label": "expirationThreshold",
            "offset": 0,
            "slot": "4",
            "type": "t_uint256"
          },
          {
            "astId": 4880,
            "contract": "contracts/facets/ViewStateFacet.sol:ViewStateFacet",
            "label": "embalmerClaimWindow",
            "offset": 0,
            "slot": "5",
            "type": "t_uint256"
          },
          {
            "astId": 4886,
            "contract": "contracts/facets/ViewStateFacet.sol:ViewStateFacet",
            "label": "embalmerSarcophagi",
            "offset": 0,
            "slot": "6",
            "type": "t_mapping(t_address,t_array(t_bytes32)dyn_storage)"
          },
          {
            "astId": 4891,
            "contract": "contracts/facets/ViewStateFacet.sol:ViewStateFacet",
            "label": "archaeologistSarcophagi",
            "offset": 0,
            "slot": "7",
            "type": "t_mapping(t_address,t_array(t_bytes32)dyn_storage)"
          },
          {
            "astId": 4896,
            "contract": "contracts/facets/ViewStateFacet.sol:ViewStateFacet",
            "label": "recipientSarcophagi",
            "offset": 0,
            "slot": "8",
            "type": "t_mapping(t_address,t_array(t_bytes32)dyn_storage)"
          },
          {
            "astId": 4900,
            "contract": "contracts/facets/ViewStateFacet.sol:ViewStateFacet",
            "label": "publicKeyToArchaeologistAddress",
            "offset": 0,
            "slot": "9",
            "type": "t_mapping(t_bytes_memory_ptr,t_address)"
          },
          {
            "astId": 4905,
            "contract": "contracts/facets/ViewStateFacet.sol:ViewStateFacet",
            "label": "sarcophagi",
            "offset": 0,
            "slot": "10",
            "type": "t_mapping(t_bytes32,t_struct(Sarcophagus)4625_storage)"
          },
          {
            "astId": 4908,
            "contract": "contracts/facets/ViewStateFacet.sol:ViewStateFacet",
            "label": "archaeologistProfileAddresses",
            "offset": 0,
            "slot": "11",
            "type": "t_array(t_address)dyn_storage"
          },
          {
            "astId": 4913,
            "contract": "contracts/facets/ViewStateFacet.sol:ViewStateFacet",
            "label": "archaeologistProfiles",
            "offset": 0,
            "slot": "12",
            "type": "t_mapping(t_address,t_struct(ArchaeologistProfile)4647_storage)"
          },
          {
            "astId": 4917,
            "contract": "contracts/facets/ViewStateFacet.sol:ViewStateFacet",
            "label": "archaeologistRewards",
            "offset": 0,
            "slot": "13",
            "type": "t_mapping(t_address,t_uint256)"
          },
          {
            "astId": 4923,
            "contract": "contracts/facets/ViewStateFacet.sol:ViewStateFacet",
            "label": "archaeologistSuccesses",
            "offset": 0,
            "slot": "14",
            "type": "t_mapping(t_address,t_array(t_bytes32)dyn_storage)"
          },
          {
            "astId": 4928,
            "contract": "contracts/facets/ViewStateFacet.sol:ViewStateFacet",
            "label": "archaeologistAccusals",
            "offset": 0,
            "slot": "15",
            "type": "t_mapping(t_address,t_array(t_bytes32)dyn_storage)"
          },
          {
            "astId": 4933,
            "contract": "contracts/facets/ViewStateFacet.sol:ViewStateFacet",
            "label": "archaeologistCleanups",
            "offset": 0,
            "slot": "16",
            "type": "t_mapping(t_address,t_array(t_bytes32)dyn_storage)"
          }
        ],
        "numberOfBytes": "544"
      },
      "t_struct(ArchaeologistProfile)4647_storage": {
        "encoding": "inplace",
        "label": "struct LibTypes.ArchaeologistProfile",
        "members": [
          {
            "astId": 4636,
            "contract": "contracts/facets/ViewStateFacet.sol:ViewStateFacet",
            "label": "exists",
            "offset": 0,
            "slot": "0",
            "type": "t_bool"
          },
          {
            "astId": 4638,
            "contract": "contracts/facets/ViewStateFacet.sol:ViewStateFacet",
            "label": "peerId",
            "offset": 0,
            "slot": "1",
            "type": "t_string_storage"
          },
          {
            "astId": 4640,
            "contract": "contracts/facets/ViewStateFacet.sol:ViewStateFacet",
            "label": "minimumDiggingFee",
            "offset": 0,
            "slot": "2",
            "type": "t_uint256"
          },
          {
            "astId": 4642,
            "contract": "contracts/facets/ViewStateFacet.sol:ViewStateFacet",
            "label": "maximumRewrapInterval",
            "offset": 0,
            "slot": "3",
            "type": "t_uint256"
          },
          {
            "astId": 4644,
            "contract": "contracts/facets/ViewStateFacet.sol:ViewStateFacet",
            "label": "freeBond",
            "offset": 0,
            "slot": "4",
            "type": "t_uint256"
          },
          {
            "astId": 4646,
            "contract": "contracts/facets/ViewStateFacet.sol:ViewStateFacet",
            "label": "cursedBond",
            "offset": 0,
            "slot": "5",
            "type": "t_uint256"
          }
        ],
        "numberOfBytes": "192"
      },
      "t_struct(CursedArchaeologist)4634_storage": {
        "encoding": "inplace",
        "label": "struct LibTypes.CursedArchaeologist",
        "members": [
          {
            "astId": 4627,
            "contract": "contracts/facets/ViewStateFacet.sol:ViewStateFacet",
            "label": "publicKey",
            "offset": 0,
            "slot": "0",
            "type": "t_bytes_storage"
          },
          {
            "astId": 4629,
            "contract": "contracts/facets/ViewStateFacet.sol:ViewStateFacet",
            "label": "privateKey",
            "offset": 0,
            "slot": "1",
            "type": "t_bytes32"
          },
          {
            "astId": 4631,
            "contract": "contracts/facets/ViewStateFacet.sol:ViewStateFacet",
            "label": "isAccused",
            "offset": 0,
            "slot": "2",
            "type": "t_bool"
          },
          {
            "astId": 4633,
            "contract": "contracts/facets/ViewStateFacet.sol:ViewStateFacet",
            "label": "diggingFee",
            "offset": 0,
            "slot": "3",
            "type": "t_uint256"
          }
        ],
        "numberOfBytes": "128"
      },
      "t_struct(Sarcophagus)4625_storage": {
        "encoding": "inplace",
        "label": "struct LibTypes.Sarcophagus",
        "members": [
          {
            "astId": 4600,
            "contract": "contracts/facets/ViewStateFacet.sol:ViewStateFacet",
            "label": "resurrectionTime",
            "offset": 0,
            "slot": "0",
            "type": "t_uint256"
          },
          {
            "astId": 4602,
            "contract": "contracts/facets/ViewStateFacet.sol:ViewStateFacet",
            "label": "isCompromised",
            "offset": 0,
            "slot": "1",
            "type": "t_bool"
          },
          {
            "astId": 4604,
            "contract": "contracts/facets/ViewStateFacet.sol:ViewStateFacet",
            "label": "isCleaned",
            "offset": 1,
            "slot": "1",
            "type": "t_bool"
          },
          {
            "astId": 4606,
            "contract": "contracts/facets/ViewStateFacet.sol:ViewStateFacet",
            "label": "name",
            "offset": 0,
            "slot": "2",
            "type": "t_string_storage"
          },
          {
            "astId": 4608,
            "contract": "contracts/facets/ViewStateFacet.sol:ViewStateFacet",
            "label": "threshold",
            "offset": 0,
            "slot": "3",
            "type": "t_uint8"
          },
          {
            "astId": 4610,
            "contract": "contracts/facets/ViewStateFacet.sol:ViewStateFacet",
            "label": "maximumRewrapInterval",
            "offset": 0,
            "slot": "4",
            "type": "t_uint256"
          },
          {
            "astId": 4612,
            "contract": "contracts/facets/ViewStateFacet.sol:ViewStateFacet",
            "label": "arweaveTxId",
            "offset": 0,
            "slot": "5",
            "type": "t_string_storage"
          },
          {
            "astId": 4614,
            "contract": "contracts/facets/ViewStateFacet.sol:ViewStateFacet",
            "label": "embalmerAddress",
            "offset": 0,
            "slot": "6",
            "type": "t_address"
          },
          {
            "astId": 4616,
            "contract": "contracts/facets/ViewStateFacet.sol:ViewStateFacet",
            "label": "recipientAddress",
            "offset": 0,
            "slot": "7",
            "type": "t_address"
          },
          {
            "astId": 4619,
            "contract": "contracts/facets/ViewStateFacet.sol:ViewStateFacet",
            "label": "cursedArchaeologistAddresses",
            "offset": 0,
            "slot": "8",
            "type": "t_array(t_address)dyn_storage"
          },
          {
            "astId": 4624,
            "contract": "contracts/facets/ViewStateFacet.sol:ViewStateFacet",
            "label": "cursedArchaeologists",
            "offset": 0,
            "slot": "9",
            "type": "t_mapping(t_address,t_struct(CursedArchaeologist)4634_storage)"
          }
        ],
        "numberOfBytes": "320"
      },
      "t_uint256": {
        "encoding": "inplace",
        "label": "uint256",
        "numberOfBytes": "32"
      },
      "t_uint8": {
        "encoding": "inplace",
        "label": "uint8",
        "numberOfBytes": "1"
      }
    }
  }
}