{
  "address": "0x40cBb4A31731e6c15B47804476E83dA10BaB9AfD",
  "abi": [
    {
      "inputs": [
        {
          "internalType": "bool",
          "name": "exists",
          "type": "bool"
        },
        {
          "internalType": "address",
          "name": "archaeologist",
          "type": "address"
        }
      ],
      "name": "ArchaeologistProfileExistsShouldBe",
      "type": "error"
    },
    {
      "inputs": [
        {
          "internalType": "bytes32",
          "name": "sarcoId",
          "type": "bytes32"
        }
      ],
      "name": "SarcophagusDoesNotExist",
      "type": "error"
    },
    {
      "inputs": [
        {
          "internalType": "address",
          "name": "archaeologist",
          "type": "address"
        },
        {
          "internalType": "uint256",
          "name": "index",
          "type": "uint256"
        }
      ],
      "name": "archaeologistAccusalsIdentifier",
      "outputs": [
        {
          "internalType": "bytes32",
          "name": "",
          "type": "bytes32"
        }
      ],
      "stateMutability": "view",
      "type": "function"
    },
    {
      "inputs": [
        {
          "internalType": "address",
          "name": "archaeologist",
          "type": "address"
        },
        {
          "internalType": "uint256",
          "name": "index",
          "type": "uint256"
        }
      ],
      "name": "archaeologistCleanupsIdentifier",
      "outputs": [
        {
          "internalType": "bytes32",
          "name": "",
          "type": "bytes32"
        }
      ],
      "stateMutability": "view",
      "type": "function"
    },
    {
      "inputs": [
        {
          "internalType": "address",
          "name": "archaeologist",
          "type": "address"
        },
        {
          "internalType": "uint256",
          "name": "index",
          "type": "uint256"
        }
      ],
      "name": "archaeologistSuccessesIdentifier",
      "outputs": [
        {
          "internalType": "bytes32",
          "name": "",
          "type": "bytes32"
        }
      ],
      "stateMutability": "view",
      "type": "function"
    },
    {
      "inputs": [
        {
          "internalType": "address",
          "name": "archaeologist",
          "type": "address"
        }
      ],
      "name": "getArchaeologistAccusalsCount",
      "outputs": [
        {
          "internalType": "uint256",
          "name": "",
          "type": "uint256"
        }
      ],
      "stateMutability": "view",
      "type": "function"
    },
    {
      "inputs": [
        {
          "internalType": "address",
          "name": "archaeologist",
          "type": "address"
        }
      ],
      "name": "getArchaeologistCleanupsCount",
      "outputs": [
        {
          "internalType": "uint256",
          "name": "",
          "type": "uint256"
        }
      ],
      "stateMutability": "view",
      "type": "function"
    },
    {
      "inputs": [
        {
          "internalType": "address",
          "name": "archaeologist",
          "type": "address"
        }
      ],
      "name": "getArchaeologistProfile",
      "outputs": [
        {
          "components": [
            {
              "internalType": "uint256",
              "name": "maximumRewrapInterval",
              "type": "uint256"
            },
            {
              "internalType": "uint256",
              "name": "maximumResurrectionTime",
              "type": "uint256"
            },
            {
              "internalType": "string",
              "name": "peerId",
              "type": "string"
            },
            {
              "internalType": "uint256",
              "name": "minimumDiggingFeePerSecond",
              "type": "uint256"
            },
            {
              "internalType": "uint256",
              "name": "freeBond",
              "type": "uint256"
            },
            {
              "internalType": "uint256",
              "name": "cursedBond",
              "type": "uint256"
            }
          ],
          "internalType": "struct LibTypes.ArchaeologistProfile",
          "name": "",
          "type": "tuple"
        }
      ],
      "stateMutability": "view",
      "type": "function"
    },
    {
      "inputs": [
        {
          "internalType": "uint256",
          "name": "index",
          "type": "uint256"
        }
      ],
      "name": "getArchaeologistProfileAddressAtIndex",
      "outputs": [
        {
          "internalType": "address",
          "name": "",
          "type": "address"
        }
      ],
      "stateMutability": "view",
      "type": "function"
    },
    {
      "inputs": [],
      "name": "getArchaeologistProfileAddresses",
      "outputs": [
        {
          "internalType": "address[]",
          "name": "",
          "type": "address[]"
        }
      ],
      "stateMutability": "view",
      "type": "function"
    },
    {
      "inputs": [
        {
          "internalType": "address[]",
          "name": "addresses",
          "type": "address[]"
        }
      ],
      "name": "getArchaeologistProfiles",
      "outputs": [
        {
          "components": [
            {
              "internalType": "uint256",
              "name": "maximumRewrapInterval",
              "type": "uint256"
            },
            {
              "internalType": "uint256",
              "name": "maximumResurrectionTime",
              "type": "uint256"
            },
            {
              "internalType": "string",
              "name": "peerId",
              "type": "string"
            },
            {
              "internalType": "uint256",
              "name": "minimumDiggingFeePerSecond",
              "type": "uint256"
            },
            {
              "internalType": "uint256",
              "name": "freeBond",
              "type": "uint256"
            },
            {
              "internalType": "uint256",
              "name": "cursedBond",
              "type": "uint256"
            }
          ],
          "internalType": "struct LibTypes.ArchaeologistProfile[]",
          "name": "",
          "type": "tuple[]"
        }
      ],
      "stateMutability": "view",
      "type": "function"
    },
    {
      "inputs": [
        {
          "internalType": "address",
          "name": "archaeologist",
          "type": "address"
        }
      ],
      "name": "getArchaeologistSarcophagi",
      "outputs": [
        {
          "internalType": "bytes32[]",
          "name": "",
          "type": "bytes32[]"
        }
      ],
      "stateMutability": "view",
      "type": "function"
    },
    {
      "inputs": [
        {
          "internalType": "address",
          "name": "archaeologist",
          "type": "address"
        },
        {
          "internalType": "bytes32",
          "name": "sarcoId",
          "type": "bytes32"
        }
      ],
      "name": "getArchaeologistSuccessOnSarcophagus",
      "outputs": [
        {
          "internalType": "bool",
          "name": "",
          "type": "bool"
        }
      ],
      "stateMutability": "view",
      "type": "function"
    },
    {
      "inputs": [
        {
          "internalType": "address",
          "name": "archaeologist",
          "type": "address"
        }
      ],
      "name": "getArchaeologistSuccessesCount",
      "outputs": [
        {
          "internalType": "uint256",
          "name": "",
          "type": "uint256"
        }
      ],
      "stateMutability": "view",
      "type": "function"
    },
    {
      "inputs": [
        {
          "internalType": "address[]",
          "name": "addresses",
          "type": "address[]"
        }
      ],
      "name": "getArchaeologistsStatistics",
      "outputs": [
        {
          "components": [
            {
              "internalType": "uint256",
              "name": "successes",
              "type": "uint256"
            },
            {
              "internalType": "uint256",
              "name": "accusals",
              "type": "uint256"
            },
            {
              "internalType": "uint256",
              "name": "cleanups",
              "type": "uint256"
            },
            {
              "internalType": "uint256",
              "name": "failures",
              "type": "uint256"
            }
          ],
          "internalType": "struct ViewStateFacet.ArchaeologistStatistics[]",
          "name": "",
          "type": "tuple[]"
        }
      ],
      "stateMutability": "view",
      "type": "function"
    },
    {
      "inputs": [
        {
          "internalType": "address",
          "name": "archaeologist",
          "type": "address"
        }
      ],
      "name": "getCursedBond",
      "outputs": [
        {
          "internalType": "uint256",
          "name": "",
          "type": "uint256"
        }
      ],
      "stateMutability": "view",
      "type": "function"
    },
    {
      "inputs": [],
      "name": "getCursedBondPercentage",
      "outputs": [
        {
          "internalType": "uint256",
          "name": "",
          "type": "uint256"
        }
      ],
      "stateMutability": "view",
      "type": "function"
    },
    {
      "inputs": [],
      "name": "getEmbalmerClaimWindow",
      "outputs": [
        {
          "internalType": "uint256",
          "name": "",
          "type": "uint256"
        }
      ],
      "stateMutability": "view",
      "type": "function"
    },
    {
      "inputs": [
        {
          "internalType": "address",
          "name": "embalmer",
          "type": "address"
        }
      ],
      "name": "getEmbalmerSarcophagi",
      "outputs": [
        {
          "internalType": "bytes32[]",
          "name": "",
          "type": "bytes32[]"
        }
      ],
      "stateMutability": "view",
      "type": "function"
    },
    {
      "inputs": [],
      "name": "getExpirationThreshold",
      "outputs": [
        {
          "internalType": "uint256",
          "name": "",
          "type": "uint256"
        }
      ],
      "stateMutability": "view",
      "type": "function"
    },
    {
      "inputs": [
        {
          "internalType": "address",
          "name": "archaeologist",
          "type": "address"
        }
      ],
      "name": "getFreeBond",
      "outputs": [
        {
          "internalType": "uint256",
          "name": "",
          "type": "uint256"
        }
      ],
      "stateMutability": "view",
      "type": "function"
    },
    {
      "inputs": [],
      "name": "getGracePeriod",
      "outputs": [
        {
          "internalType": "uint256",
          "name": "",
          "type": "uint256"
        }
      ],
      "stateMutability": "view",
      "type": "function"
    },
    {
      "inputs": [],
      "name": "getProtocolFeeBasePercentage",
      "outputs": [
        {
          "internalType": "uint256",
          "name": "",
          "type": "uint256"
        }
      ],
      "stateMutability": "view",
      "type": "function"
    },
    {
      "inputs": [
        {
          "internalType": "address",
          "name": "recipient",
          "type": "address"
        }
      ],
      "name": "getRecipientSarcophagi",
      "outputs": [
        {
          "internalType": "bytes32[]",
          "name": "",
          "type": "bytes32[]"
        }
      ],
      "stateMutability": "view",
      "type": "function"
    },
    {
      "inputs": [
        {
          "internalType": "address",
          "name": "archaeologist",
          "type": "address"
        }
      ],
      "name": "getRewards",
      "outputs": [
        {
          "internalType": "uint256",
          "name": "",
          "type": "uint256"
        }
      ],
      "stateMutability": "view",
      "type": "function"
    },
    {
      "inputs": [
        {
          "internalType": "bytes32",
          "name": "sarcoId",
          "type": "bytes32"
        }
      ],
      "name": "getSarcophagus",
      "outputs": [
        {
          "components": [
            {
              "internalType": "uint256",
              "name": "resurrectionTime",
              "type": "uint256"
            },
            {
              "internalType": "uint256",
              "name": "previousRewrapTime",
              "type": "uint256"
            },
            {
              "internalType": "bool",
              "name": "isCompromised",
              "type": "bool"
            },
            {
              "internalType": "bool",
              "name": "isCleaned",
              "type": "bool"
            },
            {
              "internalType": "string",
              "name": "name",
              "type": "string"
            },
            {
              "internalType": "uint8",
              "name": "threshold",
              "type": "uint8"
            },
            {
              "internalType": "uint256",
              "name": "maximumRewrapInterval",
              "type": "uint256"
            },
            {
              "internalType": "string",
              "name": "arweaveTxId",
              "type": "string"
            },
            {
              "internalType": "address",
              "name": "embalmerAddress",
              "type": "address"
            },
            {
              "internalType": "address",
              "name": "recipientAddress",
              "type": "address"
            },
            {
              "internalType": "address[]",
              "name": "archaeologistAddresses",
              "type": "address[]"
            },
            {
              "internalType": "uint8",
              "name": "publishedPrivateKeyCount",
              "type": "uint8"
            },
            {
              "internalType": "bool",
              "name": "hasLockedBond",
              "type": "bool"
            }
          ],
          "internalType": "struct ViewStateFacet.SarcophagusResponse",
          "name": "",
          "type": "tuple"
        }
      ],
      "stateMutability": "view",
      "type": "function"
    },
    {
      "inputs": [
        {
          "internalType": "bytes32",
          "name": "sarcoId",
          "type": "bytes32"
        },
        {
          "internalType": "address",
          "name": "archaeologist",
          "type": "address"
        }
      ],
      "name": "getSarcophagusArchaeologist",
      "outputs": [
        {
          "components": [
            {
              "internalType": "uint256",
              "name": "diggingFeePerSecond",
              "type": "uint256"
            },
            {
              "internalType": "bytes32",
              "name": "privateKey",
              "type": "bytes32"
            },
            {
              "internalType": "bytes",
              "name": "publicKey",
              "type": "bytes"
            },
            {
              "internalType": "bool",
              "name": "isAccused",
              "type": "bool"
            }
          ],
          "internalType": "struct LibTypes.CursedArchaeologist",
          "name": "",
          "type": "tuple"
        }
      ],
      "stateMutability": "view",
      "type": "function"
    },
    {
      "inputs": [],
      "name": "getTotalProtocolFees",
      "outputs": [
        {
          "internalType": "uint256",
          "name": "",
          "type": "uint256"
        }
      ],
      "stateMutability": "view",
      "type": "function"
    }
  ],
  "transactionHash": "0x978d037d10efd5ea4fc522b419fe8ae4b187578682866ee1275de4e0d66b8682",
  "args": [],
  "numDeployments": 2,
  "solcInputHash": "02cdb842f5b9caff3fd1c503289458b6",
  "bytecode": "0x608060405234801561001057600080fd5b50612cd3806100206000396000f3fe608060405234801561001057600080fd5b506004361061018e5760003560e01c80638fbd55d2116100de578063daa4d21b11610097578063dcfcb90111610071578063dcfcb90114610547578063de116f0614610565578063ef60e4e714610595578063fb6fffb5146105c55761018e565b8063daa4d21b146104c9578063dbd18388146104f9578063dc231f43146105175761018e565b80638fbd55d2146103cd5780639c545639146103fd5780639fdaded11461041b578063a9328dcc14610439578063c34e9bff14610469578063d31dedd1146104995761018e565b806357babbaf1161014b5780636c99bedc116101255780636c99bedc1461031f57806379ee54f71461034f5780637aa9fd2f1461037f57806387927ce61461039d5761018e565b806357babbaf1461028f5780636b74d55a146102bf5780636ba5c8ef146102ef5761018e565b80632569090214610193578063284f34de146101c357806331baea67146101f35780633fbb89301461021157806342e10bc81461022f5780634d0b67671461025f575b600080fd5b6101ad60048036038101906101a89190611dd0565b6105f5565b6040516101ba9190611e16565b60405180910390f35b6101dd60048036038101906101d89190611e5d565b61064f565b6040516101ea9190611eb6565b60405180910390f35b6101fb6106c3565b6040516102089190611e16565b60405180910390f35b6102196106db565b6040516102269190611f8f565b60405180910390f35b61024960048036038101906102449190611dd0565b610778565b60405161025691906120e2565b60405180910390f35b61027960048036038101906102749190611dd0565b6108ad565b60405161028691906121c2565b60405180910390f35b6102a960048036038101906102a491906121e4565b610953565b6040516102b69190612220565b60405180910390f35b6102d960048036038101906102d49190612383565b6109a9565b6040516102e691906124d0565b60405180910390f35b6103096004803603810190610304919061251e565b610e05565b6040516103169190612579565b60405180910390f35b61033960048036038101906103349190611e5d565b610e7a565b6040516103469190611eb6565b60405180910390f35b61036960048036038101906103649190611dd0565b610eee565b6040516103769190611e16565b60405180910390f35b610387610f45565b6040516103949190611e16565b60405180910390f35b6103b760048036038101906103b29190611dd0565b610f5d565b6040516103c49190611e16565b60405180910390f35b6103e760048036038101906103e29190611dd0565b610fb7565b6040516103f49190611e16565b60405180910390f35b610405611011565b6040516104129190611e16565b60405180910390f35b610423611029565b6040516104309190611e16565b60405180910390f35b610453600480360381019061044e9190612383565b611041565b60405161046091906126df565b60405180910390f35b610483600480360381019061047e9190611dd0565b611282565b60405161049091906121c2565b60405180910390f35b6104b360048036038101906104ae9190611dd0565b611328565b6040516104c09190611e16565b60405180910390f35b6104e360048036038101906104de9190611dd0565b611382565b6040516104f09190611e16565b60405180910390f35b6105016113dc565b60405161050e9190611e16565b60405180910390f35b610531600480360381019061052c9190612701565b6113f4565b60405161053e9190612808565b60405180910390f35b61054f611532565b60405161055c9190611e16565b60405180910390f35b61057f600480360381019061057a919061282a565b61154a565b60405161058c9190612a09565b60405180910390f35b6105af60048036038101906105aa9190611dd0565b611a50565b6040516105bc91906121c2565b60405180910390f35b6105df60048036038101906105da9190611e5d565b611af6565b6040516105ec9190611eb6565b60405180910390f35b600080610600611b6a565b905080600f0160008473ffffffffffffffffffffffffffffffffffffffff1673ffffffffffffffffffffffffffffffffffffffff16815260200190815260200160002080549050915050919050565b60008061065a611b6a565b905080600f0160008573ffffffffffffffffffffffffffffffffffffffff1673ffffffffffffffffffffffffffffffffffffffff16815260200190815260200160002083815481106106af576106ae612a2b565b5b906000526020600020015491505092915050565b6000806106ce611b6a565b9050806006015491505090565b606060006106e7611b6a565b90508060070180548060200260200160405190810160405280929190818152602001828054801561076d57602002820191906000526020600020905b8160009054906101000a900473ffffffffffffffffffffffffffffffffffffffff1673ffffffffffffffffffffffffffffffffffffffff1681526020019060010190808311610723575b505050505091505090565b610780611c33565b600061078a611b6a565b905061079583611b97565b80600d0160008473ffffffffffffffffffffffffffffffffffffffff1673ffffffffffffffffffffffffffffffffffffffff1681526020019081526020016000206040518060c0016040529081600082015481526020016001820154815260200160028201805461080590612a89565b80601f016020809104026020016040519081016040528092919081815260200182805461083190612a89565b801561087e5780601f106108535761010080835404028352916020019161087e565b820191906000526020600020905b81548152906001019060200180831161086157829003601f168201915b505050505081526020016003820154815260200160048201548152602001600582015481525050915050919050565b606060006108b9611b6a565b905080600a0160008473ffffffffffffffffffffffffffffffffffffffff1673ffffffffffffffffffffffffffffffffffffffff16815260200190815260200160002080548060200260200160405190810160405280929190818152602001828054801561094657602002820191906000526020600020905b815481526020019060010190808311610932575b5050505050915050919050565b60008061095e611b6a565b905080600701838154811061097657610975612a2b565b5b9060005260206000200160009054906101000a900473ffffffffffffffffffffffffffffffffffffffff16915050919050565b606060006109b5611b6a565b90506000835167ffffffffffffffff8111156109d4576109d3612240565b5b604051908082528060200260200182016040528015610a0d57816020015b6109fa611c69565b8152602001906001900390816109f25790505b50905060005b8451811015610dfa57600080846009016000888581518110610a3857610a37612a2b565b5b602002602001015173ffffffffffffffffffffffffffffffffffffffff1673ffffffffffffffffffffffffffffffffffffffff168152602001908152602001600020905060005b8180549050811015610bec57600086600c016000848481548110610aa657610aa5612a2b565b5b9060005260206000200154815260200190815260200160002090503073ffffffffffffffffffffffffffffffffffffffff16636ba5c8ef8a8781518110610af057610aef612a2b565b5b6020026020010151858581548110610b0b57610b0a612a2b565b5b90600052602060002001546040518363ffffffff1660e01b8152600401610b33929190612aba565b602060405180830381865afa158015610b50573d6000803e3d6000fd5b505050506040513d601f19601f82011682018060405250810190610b749190612b0f565b158015610ba557507fffffffffffffffffffffffffffffffffffffffffffffffffffffffffffffffff816000015414155b8015610bc3575086600401548160000154610bc09190612b6b565b42115b15610bd857600184610bd59190612b6b565b93505b508080610be490612bc1565b915050610a7f565b5060405180608001604052803073ffffffffffffffffffffffffffffffffffffffff1663256909028a8781518110610c2757610c26612a2b565b5b60200260200101516040518263ffffffff1660e01b8152600401610c4b9190612220565b602060405180830381865afa158015610c68573d6000803e3d6000fd5b505050506040513d601f19601f82011682018060405250810190610c8c9190612c1e565b81526020013073ffffffffffffffffffffffffffffffffffffffff1663daa4d21b8a8781518110610cc057610cbf612a2b565b5b60200260200101516040518263ffffffff1660e01b8152600401610ce49190612220565b602060405180830381865afa158015610d01573d6000803e3d6000fd5b505050506040513d601f19601f82011682018060405250810190610d259190612c1e565b81526020013073ffffffffffffffffffffffffffffffffffffffff1663d31dedd18a8781518110610d5957610d58612a2b565b5b60200260200101516040518263ffffffff1660e01b8152600401610d7d9190612220565b602060405180830381865afa158015610d9a573d6000803e3d6000fd5b505050506040513d601f19601f82011682018060405250810190610dbe9190612c1e565b815260200183815250848481518110610dda57610dd9612a2b565b5b602002602001018190525050508080610df290612bc1565b915050610a13565b508092505050919050565b600080610e10611b6a565b90506000801b81600c016000858152602001908152602001600020600a0160008673ffffffffffffffffffffffffffffffffffffffff1673ffffffffffffffffffffffffffffffffffffffff16815260200190815260200160002060010154141591505092915050565b600080610e85611b6a565b90508060100160008573ffffffffffffffffffffffffffffffffffffffff1673ffffffffffffffffffffffffffffffffffffffff1681526020019081526020016000208381548110610eda57610ed9612a2b565b5b906000526020600020015491505092915050565b600080610ef9611b6a565b905080600e0160008473ffffffffffffffffffffffffffffffffffffffff1673ffffffffffffffffffffffffffffffffffffffff16815260200190815260200160002054915050919050565b600080610f50611b6a565b9050806005015491505090565b600080610f68611b6a565b905080600d0160008473ffffffffffffffffffffffffffffffffffffffff1673ffffffffffffffffffffffffffffffffffffffff16815260200190815260200160002060050154915050919050565b600080610fc2611b6a565b905080600d0160008473ffffffffffffffffffffffffffffffffffffffff1673ffffffffffffffffffffffffffffffffffffffff16815260200190815260200160002060040154915050919050565b60008061101c611b6a565b9050806001015491505090565b600080611034611b6a565b9050806002015491505090565b6060600061104d611b6a565b90506000835167ffffffffffffffff81111561106c5761106b612240565b5b6040519080825280602002602001820160405280156110a557816020015b611092611c33565b81526020019060019003908161108a5790505b50905060005b845181101561127757600083600d0160008784815181106110cf576110ce612a2b565b5b602002602001015173ffffffffffffffffffffffffffffffffffffffff1673ffffffffffffffffffffffffffffffffffffffff1681526020019081526020016000206000015403156112645782600d01600086838151811061113457611133612a2b565b5b602002602001015173ffffffffffffffffffffffffffffffffffffffff1673ffffffffffffffffffffffffffffffffffffffff1681526020019081526020016000206040518060c001604052908160008201548152602001600182015481526020016002820180546111a590612a89565b80601f01602080910402602001604051908101604052809291908181526020018280546111d190612a89565b801561121e5780601f106111f35761010080835404028352916020019161121e565b820191906000526020600020905b81548152906001019060200180831161120157829003601f168201915b50505050508152602001600382015481526020016004820154815260200160058201548152505082828151811061125857611257612a2b565b5b60200260200101819052505b808061126f90612bc1565b9150506110ab565b508092505050919050565b6060600061128e611b6a565b90508060080160008473ffffffffffffffffffffffffffffffffffffffff1673ffffffffffffffffffffffffffffffffffffffff16815260200190815260200160002080548060200260200160405190810160405280929190818152602001828054801561131b57602002820191906000526020600020905b815481526020019060010190808311611307575b5050505050915050919050565b600080611333611b6a565b90508060110160008473ffffffffffffffffffffffffffffffffffffffff1673ffffffffffffffffffffffffffffffffffffffff16815260200190815260200160002080549050915050919050565b60008061138d611b6a565b90508060100160008473ffffffffffffffffffffffffffffffffffffffff1673ffffffffffffffffffffffffffffffffffffffff16815260200190815260200160002080549050915050919050565b6000806113e7611b6a565b9050806004015491505090565b6113fc611c91565b6000611406611b6a565b905080600c016000858152602001908152602001600020600a0160008473ffffffffffffffffffffffffffffffffffffffff1673ffffffffffffffffffffffffffffffffffffffff168152602001908152602001600020604051806080016040529081600082015481526020016001820154815260200160028201805461148c90612a89565b80601f01602080910402602001604051908101604052809291908181526020018280546114b890612a89565b80156115055780601f106114da57610100808354040283529160200191611505565b820191906000526020600020905b8154815290600101906020018083116114e857829003601f168201915b505050505081526020016003820160009054906101000a900460ff16151515158152505091505092915050565b60008061153d611b6a565b9050806003015491505090565b611552611cbe565b600061155c611b6a565b9050600081600c016000858152602001908152602001600020905060008160000154036115c057836040517f018da6880000000000000000000000000000000000000000000000000000000081526004016115b79190611eb6565b60405180910390fd5b60008060005b836009018054905081101561178d576000801b84600a0160008660090184815481106115f5576115f4612a2b565b5b9060005260206000200160009054906101000a900473ffffffffffffffffffffffffffffffffffffffff1673ffffffffffffffffffffffffffffffffffffffff1673ffffffffffffffffffffffffffffffffffffffff168152602001908152602001600020600101541461167657828061166e90612c4b565b93505061177a565b83600a01600085600901838154811061169257611691612a2b565b5b9060005260206000200160009054906101000a900473ffffffffffffffffffffffffffffffffffffffff1673ffffffffffffffffffffffffffffffffffffffff1673ffffffffffffffffffffffffffffffffffffffff16815260200190815260200160002060030160009054906101000a900460ff1615801561172457508360020160009054906101000a900460ff16155b801561173f57508360020160019054906101000a900460ff16155b801561176f57507fffffffffffffffffffffffffffffffffffffffffffffffffffffffffffffffff846000015414155b1561177957600191505b5b808061178590612bc1565b9150506115c6565b50604051806101a0016040528084600001548152602001846001015481526020018460020160009054906101000a900460ff16151581526020018460020160019054906101000a900460ff16151581526020018460030180546117ef90612a89565b80601f016020809104026020016040519081016040528092919081815260200182805461181b90612a89565b80156118685780601f1061183d57610100808354040283529160200191611868565b820191906000526020600020905b81548152906001019060200180831161184b57829003601f168201915b505050505081526020018460020160029054906101000a900460ff1660ff168152602001846004015481526020018460060180546118a590612a89565b80601f01602080910402602001604051908101604052809291908181526020018280546118d190612a89565b801561191e5780601f106118f35761010080835404028352916020019161191e565b820191906000526020600020905b81548152906001019060200180831161190157829003601f168201915b505050505081526020018460070160009054906101000a900473ffffffffffffffffffffffffffffffffffffffff1673ffffffffffffffffffffffffffffffffffffffff1681526020018460080160009054906101000a900473ffffffffffffffffffffffffffffffffffffffff1673ffffffffffffffffffffffffffffffffffffffff16815260200184600901805480602002602001604051908101604052809291908181526020018280548015611a2c57602002820191906000526020600020905b8160009054906101000a900473ffffffffffffffffffffffffffffffffffffffff1673ffffffffffffffffffffffffffffffffffffffff16815260200190600101908083116119e2575b505050505081526020018360ff168152602001821515815250945050505050919050565b60606000611a5c611b6a565b90508060090160008473ffffffffffffffffffffffffffffffffffffffff1673ffffffffffffffffffffffffffffffffffffffff168152602001908152602001600020805480602002602001604051908101604052809291908181526020018280548015611ae957602002820191906000526020600020905b815481526020019060010190808311611ad5575b5050505050915050919050565b600080611b01611b6a565b90508060110160008573ffffffffffffffffffffffffffffffffffffffff1673ffffffffffffffffffffffffffffffffffffffff1681526020019081526020016000208381548110611b5657611b55612a2b565b5b906000526020600020015491505092915050565b6000807f2319d9fa277d38834e73ba5e2482efd90323373359a32bb0c96b78353987994190508091505090565b6000611ba1611b6a565b9050600081600d0160008473ffffffffffffffffffffffffffffffffffffffff1673ffffffffffffffffffffffffffffffffffffffff1681526020019081526020016000206000015403611c2f576001826040517f2eeb3571000000000000000000000000000000000000000000000000000000008152600401611c26929190612c74565b60405180910390fd5b5050565b6040518060c001604052806000815260200160008152602001606081526020016000815260200160008152602001600081525090565b6040518060800160405280600081526020016000815260200160008152602001600081525090565b60405180608001604052806000815260200160008019168152602001606081526020016000151581525090565b604051806101a00160405280600081526020016000815260200160001515815260200160001515815260200160608152602001600060ff1681526020016000815260200160608152602001600073ffffffffffffffffffffffffffffffffffffffff168152602001600073ffffffffffffffffffffffffffffffffffffffff16815260200160608152602001600060ff1681526020016000151581525090565b6000604051905090565b600080fd5b600080fd5b600073ffffffffffffffffffffffffffffffffffffffff82169050919050565b6000611d9d82611d72565b9050919050565b611dad81611d92565b8114611db857600080fd5b50565b600081359050611dca81611da4565b92915050565b600060208284031215611de657611de5611d68565b5b6000611df484828501611dbb565b91505092915050565b6000819050919050565b611e1081611dfd565b82525050565b6000602082019050611e2b6000830184611e07565b92915050565b611e3a81611dfd565b8114611e4557600080fd5b50565b600081359050611e5781611e31565b92915050565b60008060408385031215611e7457611e73611d68565b5b6000611e8285828601611dbb565b9250506020611e9385828601611e48565b9150509250929050565b6000819050919050565b611eb081611e9d565b82525050565b6000602082019050611ecb6000830184611ea7565b92915050565b600081519050919050565b600082825260208201905092915050565b6000819050602082019050919050565b611f0681611d92565b82525050565b6000611f188383611efd565b60208301905092915050565b6000602082019050919050565b6000611f3c82611ed1565b611f468185611edc565b9350611f5183611eed565b8060005b83811015611f82578151611f698882611f0c565b9750611f7483611f24565b925050600181019050611f55565b5085935050505092915050565b60006020820190508181036000830152611fa98184611f31565b905092915050565b611fba81611dfd565b82525050565b600081519050919050565b600082825260208201905092915050565b60005b83811015611ffa578082015181840152602081019050611fdf565b83811115612009576000848401525b50505050565b6000601f19601f8301169050919050565b600061202b82611fc0565b6120358185611fcb565b9350612045818560208601611fdc565b61204e8161200f565b840191505092915050565b600060c0830160008301516120716000860182611fb1565b5060208301516120846020860182611fb1565b506040830151848203604086015261209c8282612020565b91505060608301516120b16060860182611fb1565b5060808301516120c46080860182611fb1565b5060a08301516120d760a0860182611fb1565b508091505092915050565b600060208201905081810360008301526120fc8184612059565b905092915050565b600081519050919050565b600082825260208201905092915050565b6000819050602082019050919050565b61213981611e9d565b82525050565b600061214b8383612130565b60208301905092915050565b6000602082019050919050565b600061216f82612104565b612179818561210f565b935061218483612120565b8060005b838110156121b557815161219c888261213f565b97506121a783612157565b925050600181019050612188565b5085935050505092915050565b600060208201905081810360008301526121dc8184612164565b905092915050565b6000602082840312156121fa576121f9611d68565b5b600061220884828501611e48565b91505092915050565b61221a81611d92565b82525050565b60006020820190506122356000830184612211565b92915050565b600080fd5b7f4e487b7100000000000000000000000000000000000000000000000000000000600052604160045260246000fd5b6122788261200f565b810181811067ffffffffffffffff8211171561229757612296612240565b5b80604052505050565b60006122aa611d5e565b90506122b6828261226f565b919050565b600067ffffffffffffffff8211156122d6576122d5612240565b5b602082029050602081019050919050565b600080fd5b60006122ff6122fa846122bb565b6122a0565b90508083825260208201905060208402830185811115612322576123216122e7565b5b835b8181101561234b57806123378882611dbb565b845260208401935050602081019050612324565b5050509392505050565b600082601f83011261236a5761236961223b565b5b813561237a8482602086016122ec565b91505092915050565b60006020828403121561239957612398611d68565b5b600082013567ffffffffffffffff8111156123b7576123b6611d6d565b5b6123c384828501612355565b91505092915050565b600081519050919050565b600082825260208201905092915050565b6000819050602082019050919050565b60808201600082015161240e6000850182611fb1565b5060208201516124216020850182611fb1565b5060408201516124346040850182611fb1565b5060608201516124476060850182611fb1565b50505050565b600061245983836123f8565b60808301905092915050565b6000602082019050919050565b600061247d826123cc565b61248781856123d7565b9350612492836123e8565b8060005b838110156124c35781516124aa888261244d565b97506124b583612465565b925050600181019050612496565b5085935050505092915050565b600060208201905081810360008301526124ea8184612472565b905092915050565b6124fb81611e9d565b811461250657600080fd5b50565b600081359050612518816124f2565b92915050565b6000806040838503121561253557612534611d68565b5b600061254385828601611dbb565b925050602061255485828601612509565b9150509250929050565b60008115159050919050565b6125738161255e565b82525050565b600060208201905061258e600083018461256a565b92915050565b600081519050919050565b600082825260208201905092915050565b6000819050602082019050919050565b600060c0830160008301516125d86000860182611fb1565b5060208301516125eb6020860182611fb1565b50604083015184820360408601526126038282612020565b91505060608301516126186060860182611fb1565b50608083015161262b6080860182611fb1565b5060a083015161263e60a0860182611fb1565b508091505092915050565b600061265583836125c0565b905092915050565b6000602082019050919050565b600061267582612594565b61267f818561259f565b935083602082028501612691856125b0565b8060005b858110156126cd57848403895281516126ae8582612649565b94506126b98361265d565b925060208a01995050600181019050612695565b50829750879550505050505092915050565b600060208201905081810360008301526126f9818461266a565b905092915050565b6000806040838503121561271857612717611d68565b5b600061272685828601612509565b925050602061273785828601611dbb565b9150509250929050565b600081519050919050565b600082825260208201905092915050565b600061276882612741565b612772818561274c565b9350612782818560208601611fdc565b61278b8161200f565b840191505092915050565b61279f8161255e565b82525050565b60006080830160008301516127bd6000860182611fb1565b5060208301516127d06020860182612130565b50604083015184820360408601526127e8828261275d565b91505060608301516127fd6060860182612796565b508091505092915050565b6000602082019050818103600083015261282281846127a5565b905092915050565b6000602082840312156128405761283f611d68565b5b600061284e84828501612509565b91505092915050565b600060ff82169050919050565b61286d81612857565b82525050565b600082825260208201905092915050565b600061288f82611ed1565b6128998185612873565b93506128a483611eed565b8060005b838110156128d55781516128bc8882611f0c565b97506128c783611f24565b9250506001810190506128a8565b5085935050505092915050565b60006101a0830160008301516128fb6000860182611fb1565b50602083015161290e6020860182611fb1565b5060408301516129216040860182612796565b5060608301516129346060860182612796565b506080830151848203608086015261294c8282612020565b91505060a083015161296160a0860182612864565b5060c083015161297460c0860182611fb1565b5060e083015184820360e086015261298c8282612020565b9150506101008301516129a3610100860182611efd565b506101208301516129b8610120860182611efd565b506101408301518482036101408601526129d28282612884565b9150506101608301516129e9610160860182612864565b506101808301516129fe610180860182612796565b508091505092915050565b60006020820190508181036000830152612a2381846128e2565b905092915050565b7f4e487b7100000000000000000000000000000000000000000000000000000000600052603260045260246000fd5b7f4e487b7100000000000000000000000000000000000000000000000000000000600052602260045260246000fd5b60006002820490506001821680612aa157607f821691505b602082108103612ab457612ab3612a5a565b5b50919050565b6000604082019050612acf6000830185612211565b612adc6020830184611ea7565b9392505050565b612aec8161255e565b8114612af757600080fd5b50565b600081519050612b0981612ae3565b92915050565b600060208284031215612b2557612b24611d68565b5b6000612b3384828501612afa565b91505092915050565b7f4e487b7100000000000000000000000000000000000000000000000000000000600052601160045260246000fd5b6000612b7682611dfd565b9150612b8183611dfd565b9250827fffffffffffffffffffffffffffffffffffffffffffffffffffffffffffffffff03821115612bb657612bb5612b3c565b5b828201905092915050565b6000612bcc82611dfd565b91507fffffffffffffffffffffffffffffffffffffffffffffffffffffffffffffffff8203612bfe57612bfd612b3c565b5b600182019050919050565b600081519050612c1881611e31565b92915050565b600060208284031215612c3457612c33611d68565b5b6000612c4284828501612c09565b91505092915050565b6000612c5682612857565b915060ff8203612c6957612c68612b3c565b5b600182019050919050565b6000604082019050612c89600083018561256a565b612c966020830184612211565b939250505056fea2646970667358221220830700e476802ad7bd8dceec2eed3791fe959adf6649d8bbbf42100e1ba299f264736f6c634300080d0033",
  "devdoc": {
    "kind": "dev",
    "methods": {
      "archaeologistAccusalsIdentifier(address,uint256)": {
        "params": {
          "archaeologist": "The address of an archaeologist",
          "index": "The index of the archaeologist's accused sarcophagi"
        },
        "returns": {
          "_0": "the identifier associated with the index of the archaeologist's accused sarcophagi"
        }
      },
      "archaeologistCleanupsIdentifier(address,uint256)": {
        "params": {
          "archaeologist": "The address of an archaeologist",
          "index": "The index of the archaeologist's cleaned-up sarcophagi"
        },
        "returns": {
          "_0": "the identifier associated with the index of the archaeologist's cleaned-up sarcophagi"
        }
      },
      "archaeologistSuccessesIdentifier(address,uint256)": {
        "params": {
          "archaeologist": "The address of an archaeologist",
          "index": "The index of the archaeologist's unwrapped sarcophagi"
        },
        "returns": {
          "_0": "the identifier associated with the index of the archaeologist's unwrapped sarcophagi"
        }
      },
      "getArchaeologistAccusalsCount(address)": {
        "params": {
          "archaeologist": "The address of the archaeologist whose accusations count is being returned"
        }
      },
      "getArchaeologistCleanupsCount(address)": {
        "params": {
          "archaeologist": "The address of the archaeologist whose cleanups count is being returned"
        }
      },
      "getArchaeologistProfile(address)": {
        "params": {
          "archaeologist": "The archaeologist account's address"
        },
        "returns": {
          "_0": "the Archaeologist object"
        }
      },
      "getArchaeologistProfileAddressAtIndex(uint256)": {
        "params": {
          "index": "The index of the registered archaeologist"
        },
        "returns": {
          "_0": "address of the archaeologist"
        }
      },
      "getArchaeologistProfileAddresses()": {
        "returns": {
          "_0": "addresses of registered archaeologists"
        }
      },
      "getArchaeologistProfiles(address[])": {
        "params": {
          "addresses": "The list of archaeologist addresses"
        },
        "returns": {
          "_0": "The list of archaeologist profiles"
        }
      },
      "getArchaeologistSarcophagi(address)": {
        "params": {
          "archaeologist": "The address of the archaeologist whose sarcophagi are being returned"
        }
      },
      "getArchaeologistSuccessOnSarcophagus(address,bytes32)": {
        "params": {
          "archaeologist": "The address of the archaeologist",
          "sarcoId": "the sarcophagus to check if unwrapping occured"
        }
      },
      "getArchaeologistSuccessesCount(address)": {
        "params": {
          "archaeologist": "The address of the archaeologist whose success"
        }
      },
      "getArchaeologistsStatistics(address[])": {
        "params": {
          "addresses": "The list of archaeologist addresses"
        },
        "returns": {
          "_0": "The list of archaeologist statistics"
        }
      },
      "getCursedBond(address)": {
        "params": {
          "archaeologist": "The address of the archaeologist whose cursed bond is being returned"
        }
      },
      "getCursedBondPercentage()": {
        "returns": {
          "_0": "The cursed bond percentage - cursedBondPercentage"
        }
      },
      "getEmbalmerClaimWindow()": {
        "returns": {
          "_0": "The embalmer claim window"
        }
      },
      "getEmbalmerSarcophagi(address)": {
        "params": {
          "embalmer": "The address of the embalmer whose sarcophagi are being returned"
        }
      },
      "getExpirationThreshold()": {
        "returns": {
          "_0": "The expiration threshold"
        }
      },
      "getFreeBond(address)": {
        "params": {
          "archaeologist": "The address of the archaeologist whose free bond is being returned"
        }
      },
      "getGracePeriod()": {
        "returns": {
          "_0": "The resurrection grace period"
        }
      },
      "getProtocolFeeBasePercentage()": {
        "returns": {
          "_0": "The protocol fee base percentage - protocolFeeBasePercentage"
        }
      },
      "getRecipientSarcophagi(address)": {
        "params": {
          "recipient": "The address of the recipient whose sarcophagi are being returned"
        }
      },
      "getRewards(address)": {
        "params": {
          "archaeologist": "The address of the archaeologist whose reward is being returned"
        }
      },
      "getSarcophagus(bytes32)": {
        "params": {
          "sarcoId": "The identifier of the sarcophagus being returned"
        }
      },
      "getSarcophagusArchaeologist(bytes32,address)": {
        "params": {
          "archaeologist": "The address of the archaeologist whose data is being returned",
          "sarcoId": "The identifier of the sarcophagus whose data is being returned"
        }
      },
      "getTotalProtocolFees()": {
        "returns": {
          "_0": "The total protocol fees"
        }
      }
    },
    "version": 1
  },
  "userdoc": {
    "kind": "user",
    "methods": {
      "archaeologistAccusalsIdentifier(address,uint256)": {
        "notice": "Returns the sarcophagus unique identifier for a given archaeologist and index of the accused sarcophagi"
      },
      "archaeologistCleanupsIdentifier(address,uint256)": {
        "notice": "Returns the sarcophagus unique identifier for a given archaeologist and index of the cleaned-up sarcophagi"
      },
      "archaeologistSuccessesIdentifier(address,uint256)": {
        "notice": "Returns the sarcophagus unique identifier for a given archaeologist and index of the successfully unwrapped sarcophagi"
      },
      "getArchaeologistAccusalsCount(address)": {
        "notice": "Returns the number of accusations for an archaeologist."
      },
      "getArchaeologistCleanupsCount(address)": {
        "notice": "Returns the number of cleanups for an archaeologist."
      },
      "getArchaeologistProfile(address)": {
        "notice": "Given an archaeologist address, return that archaeologist's profile"
      },
      "getArchaeologistProfileAddressAtIndex(uint256)": {
        "notice": "Given an index (of the full archaeologist array), return the archaeologist address at that index"
      },
      "getArchaeologistProfileAddresses()": {
        "notice": "Return the list of registereed archaeologist addresses."
      },
      "getArchaeologistProfiles(address[])": {
        "notice": "Gets archaeologist profiles given a list of archaeologist addresses. If an invalid address is included, simply leaves it out of the list."
      },
      "getArchaeologistSarcophagi(address)": {
        "notice": "Given an archaeologist's address, returns the identifiers of all sarcophagi that the archaeologist has participated in."
      },
      "getArchaeologistSuccessOnSarcophagus(address,bytes32)": {
        "notice": "Returns whether an archaeologist completed an unwrap for a sarcophagus"
      },
      "getArchaeologistSuccessesCount(address)": {
        "notice": "Returns the number of successful unwraps for an archaeologist."
      },
      "getArchaeologistsStatistics(address[])": {
        "notice": "Gets all reputation statistics for each archaeologist Contains a list of counts for each category."
      },
      "getCursedBond(address)": {
        "notice": "Returns the amount of cursed bond stored in the contract for an archaeologist."
      },
      "getCursedBondPercentage()": {
        "notice": "Get the cursed bond percentage from the contract."
      },
      "getEmbalmerClaimWindow()": {
        "notice": "Gets the window after end of gracePeriod + resurrectionTime where embalmer can claim remaining bonds from archaeologists that have failed to publish private keys"
      },
      "getEmbalmerSarcophagi(address)": {
        "notice": "Given an embalmer's address, returns the identifiers of all sarcophagi that the embalmer has created."
      },
      "getExpirationThreshold()": {
        "notice": "Gets the expiration threshold after which a sarcophagus must be renegotiated"
      },
      "getFreeBond(address)": {
        "notice": "Returns the amount of free bond stored in the contract for an archaeologist."
      },
      "getGracePeriod()": {
        "notice": "Gets the grace period an archaeologist is given to resurrect a sarcophagus after the resurrection time passes"
      },
      "getProtocolFeeBasePercentage()": {
        "notice": "Get the protocol fee base percentage from the contract."
      },
      "getRecipientSarcophagi(address)": {
        "notice": "Given a recipient's address, returns the identifiers of all sarcophagi that the recipient has participated in."
      },
      "getRewards(address)": {
        "notice": "Returns the amount of rewards stored in the contract for an archaeologist."
      },
      "getSarcophagus(bytes32)": {
        "notice": "Returns data on the sarcophagus with the supplied id includes aggregate data on cursed archaeologists associated with the sarcophagus     - publishedPrivateKeyCount - the total number of private keys published by archaeologists on the sarcophagus     - hasLockedBond - true if archaeologists still have bond locked in the contract for this sarcophagus"
      },
      "getSarcophagusArchaeologist(bytes32,address)": {
        "notice": "Returns the data stored on a sarcophagus for an archaeologist."
      },
      "getTotalProtocolFees()": {
        "notice": "Gets the total protocol fees from the contract."
      }
    },
    "version": 1
  },
  "storageLayout": {
    "storage": [],
    "types": null
  }
}