{
  "address": "0x95aF4161E4A0B0f341c0746f38FdC29da79746aE",
  "abi": [
    {
      "inputs": [
        {
          "internalType": "address",
          "name": "archaeologist",
          "type": "address"
        },
        {
          "internalType": "uint256",
          "name": "index",
          "type": "uint256"
        }
      ],
      "name": "archaeologistAccusalsIdentifier",
      "outputs": [
        {
          "internalType": "bytes32",
          "name": "",
          "type": "bytes32"
        }
      ],
      "stateMutability": "view",
      "type": "function"
    },
    {
      "inputs": [
        {
          "internalType": "address",
          "name": "archaeologist",
          "type": "address"
        },
        {
          "internalType": "uint256",
          "name": "index",
          "type": "uint256"
        }
      ],
      "name": "archaeologistCleanupsIdentifier",
      "outputs": [
        {
          "internalType": "bytes32",
          "name": "",
          "type": "bytes32"
        }
      ],
      "stateMutability": "view",
      "type": "function"
    },
    {
      "inputs": [
        {
          "internalType": "address",
          "name": "archaeologist",
          "type": "address"
        },
        {
          "internalType": "uint256",
          "name": "index",
          "type": "uint256"
        }
      ],
      "name": "archaeologistSuccessesIdentifier",
      "outputs": [
        {
          "internalType": "bytes32",
          "name": "",
          "type": "bytes32"
        }
      ],
      "stateMutability": "view",
      "type": "function"
    },
    {
      "inputs": [
        {
          "internalType": "address",
          "name": "archaeologist",
          "type": "address"
        }
      ],
      "name": "getArchaeologistAccusalsCount",
      "outputs": [
        {
          "internalType": "uint256",
          "name": "",
          "type": "uint256"
        }
      ],
      "stateMutability": "view",
      "type": "function"
    },
    {
      "inputs": [
        {
          "internalType": "address",
          "name": "archaeologist",
          "type": "address"
        }
      ],
      "name": "getArchaeologistCleanupsCount",
      "outputs": [
        {
          "internalType": "uint256",
          "name": "",
          "type": "uint256"
        }
      ],
      "stateMutability": "view",
      "type": "function"
    },
    {
      "inputs": [
        {
          "internalType": "address",
          "name": "archaeologist",
          "type": "address"
        }
      ],
      "name": "getArchaeologistProfile",
      "outputs": [
        {
          "components": [
            {
              "internalType": "bool",
              "name": "exists",
              "type": "bool"
            },
            {
              "internalType": "string",
              "name": "peerId",
              "type": "string"
            },
            {
              "internalType": "uint256",
              "name": "minimumDiggingFee",
              "type": "uint256"
            },
            {
              "internalType": "uint256",
              "name": "maximumRewrapInterval",
              "type": "uint256"
            },
            {
              "internalType": "uint256",
              "name": "freeBond",
              "type": "uint256"
            },
            {
              "internalType": "uint256",
              "name": "cursedBond",
              "type": "uint256"
            }
          ],
          "internalType": "struct LibTypes.ArchaeologistProfile",
          "name": "",
          "type": "tuple"
        }
      ],
      "stateMutability": "view",
      "type": "function"
    },
    {
      "inputs": [
        {
          "internalType": "uint256",
          "name": "index",
          "type": "uint256"
        }
      ],
      "name": "getArchaeologistProfileAddressAtIndex",
      "outputs": [
        {
          "internalType": "address",
          "name": "",
          "type": "address"
        }
      ],
      "stateMutability": "view",
      "type": "function"
    },
    {
      "inputs": [],
      "name": "getArchaeologistProfileAddresses",
      "outputs": [
        {
          "internalType": "address[]",
          "name": "",
          "type": "address[]"
        }
      ],
      "stateMutability": "view",
      "type": "function"
    },
    {
      "inputs": [
        {
          "internalType": "address[]",
          "name": "addresses",
          "type": "address[]"
        }
      ],
      "name": "getArchaeologistProfiles",
      "outputs": [
        {
          "components": [
            {
              "internalType": "bool",
              "name": "exists",
              "type": "bool"
            },
            {
              "internalType": "string",
              "name": "peerId",
              "type": "string"
            },
            {
              "internalType": "uint256",
              "name": "minimumDiggingFee",
              "type": "uint256"
            },
            {
              "internalType": "uint256",
              "name": "maximumRewrapInterval",
              "type": "uint256"
            },
            {
              "internalType": "uint256",
              "name": "freeBond",
              "type": "uint256"
            },
            {
              "internalType": "uint256",
              "name": "cursedBond",
              "type": "uint256"
            }
          ],
          "internalType": "struct LibTypes.ArchaeologistProfile[]",
          "name": "",
          "type": "tuple[]"
        }
      ],
      "stateMutability": "view",
      "type": "function"
    },
    {
      "inputs": [
        {
          "internalType": "address",
          "name": "archaeologist",
          "type": "address"
        }
      ],
      "name": "getArchaeologistSarcophagi",
      "outputs": [
        {
          "internalType": "bytes32[]",
          "name": "",
          "type": "bytes32[]"
        }
      ],
      "stateMutability": "view",
      "type": "function"
    },
    {
      "inputs": [
        {
          "internalType": "address",
          "name": "archaeologist",
          "type": "address"
        },
        {
          "internalType": "bytes32",
          "name": "sarcoId",
          "type": "bytes32"
        }
      ],
      "name": "getArchaeologistSuccessOnSarcophagus",
      "outputs": [
        {
          "internalType": "bool",
          "name": "",
          "type": "bool"
        }
      ],
      "stateMutability": "view",
      "type": "function"
    },
    {
      "inputs": [
        {
          "internalType": "address",
          "name": "archaeologist",
          "type": "address"
        }
      ],
      "name": "getArchaeologistSuccessesCount",
      "outputs": [
        {
          "internalType": "uint256",
          "name": "",
          "type": "uint256"
        }
      ],
      "stateMutability": "view",
      "type": "function"
    },
    {
      "inputs": [
        {
          "internalType": "address[]",
          "name": "addresses",
          "type": "address[]"
        }
      ],
      "name": "getArchaeologistsStatistics",
      "outputs": [
        {
          "components": [
            {
              "internalType": "uint256",
              "name": "successes",
              "type": "uint256"
            },
            {
              "internalType": "uint256",
              "name": "accusals",
              "type": "uint256"
            },
            {
              "internalType": "uint256",
              "name": "cleanups",
              "type": "uint256"
            },
            {
              "internalType": "uint256",
              "name": "failures",
              "type": "uint256"
            }
          ],
          "internalType": "struct ViewStateFacet.ArchaeologistStatistics[]",
          "name": "",
          "type": "tuple[]"
        }
      ],
      "stateMutability": "view",
      "type": "function"
    },
    {
      "inputs": [
        {
          "internalType": "address",
          "name": "archaeologist",
          "type": "address"
        }
      ],
      "name": "getCursedBond",
      "outputs": [
        {
          "internalType": "uint256",
          "name": "",
          "type": "uint256"
        }
      ],
      "stateMutability": "view",
      "type": "function"
    },
    {
      "inputs": [],
      "name": "getEmbalmerClaimWindow",
      "outputs": [
        {
          "internalType": "uint256",
          "name": "",
          "type": "uint256"
        }
      ],
      "stateMutability": "view",
      "type": "function"
    },
    {
      "inputs": [
        {
          "internalType": "address",
          "name": "embalmer",
          "type": "address"
        }
      ],
      "name": "getEmbalmerSarcophagi",
      "outputs": [
        {
          "internalType": "bytes32[]",
          "name": "",
          "type": "bytes32[]"
        }
      ],
      "stateMutability": "view",
      "type": "function"
    },
    {
      "inputs": [],
      "name": "getExpirationThreshold",
      "outputs": [
        {
          "internalType": "uint256",
          "name": "",
          "type": "uint256"
        }
      ],
      "stateMutability": "view",
      "type": "function"
    },
    {
      "inputs": [
        {
          "internalType": "address",
          "name": "archaeologist",
          "type": "address"
        }
      ],
      "name": "getFreeBond",
      "outputs": [
        {
          "internalType": "uint256",
          "name": "",
          "type": "uint256"
        }
      ],
      "stateMutability": "view",
      "type": "function"
    },
    {
      "inputs": [],
      "name": "getGracePeriod",
      "outputs": [
        {
          "internalType": "uint256",
          "name": "",
          "type": "uint256"
        }
      ],
      "stateMutability": "view",
      "type": "function"
    },
    {
      "inputs": [],
      "name": "getProtocolFeeBasePercentage",
      "outputs": [
        {
          "internalType": "uint256",
          "name": "",
          "type": "uint256"
        }
      ],
      "stateMutability": "view",
      "type": "function"
    },
    {
      "inputs": [
        {
          "internalType": "address",
          "name": "recipient",
          "type": "address"
        }
      ],
      "name": "getRecipientSarcophagi",
      "outputs": [
        {
          "internalType": "bytes32[]",
          "name": "",
          "type": "bytes32[]"
        }
      ],
      "stateMutability": "view",
      "type": "function"
    },
    {
      "inputs": [
        {
          "internalType": "address",
          "name": "archaeologist",
          "type": "address"
        }
      ],
      "name": "getRewards",
      "outputs": [
        {
          "internalType": "uint256",
          "name": "",
          "type": "uint256"
        }
      ],
      "stateMutability": "view",
      "type": "function"
    },
    {
      "inputs": [
        {
          "internalType": "bytes32",
          "name": "sarcoId",
          "type": "bytes32"
        }
      ],
      "name": "getSarcophagus",
      "outputs": [
        {
          "components": [
            {
              "internalType": "uint256",
              "name": "resurrectionTime",
              "type": "uint256"
            },
            {
              "internalType": "bool",
              "name": "isCompromised",
              "type": "bool"
            },
            {
              "internalType": "bool",
              "name": "isCleaned",
              "type": "bool"
            },
            {
              "internalType": "string",
              "name": "name",
              "type": "string"
            },
            {
              "internalType": "uint8",
              "name": "threshold",
              "type": "uint8"
            },
            {
              "internalType": "uint256",
              "name": "maximumRewrapInterval",
              "type": "uint256"
            },
            {
              "internalType": "string",
              "name": "arweaveTxId",
              "type": "string"
            },
            {
              "internalType": "address",
              "name": "embalmerAddress",
              "type": "address"
            },
            {
              "internalType": "address",
              "name": "recipientAddress",
              "type": "address"
            },
            {
              "internalType": "address[]",
              "name": "archaeologistAddresses",
              "type": "address[]"
            },
            {
              "internalType": "uint8",
              "name": "publishedPrivateKeyCount",
              "type": "uint8"
            },
            {
              "internalType": "bool",
              "name": "hasLockedBond",
              "type": "bool"
            }
          ],
          "internalType": "struct ViewStateFacet.SarcophagusResponse",
          "name": "",
          "type": "tuple"
        }
      ],
      "stateMutability": "view",
      "type": "function"
    },
    {
      "inputs": [
        {
          "internalType": "bytes32",
          "name": "sarcoId",
          "type": "bytes32"
        },
        {
          "internalType": "address",
          "name": "archaeologist",
          "type": "address"
        }
      ],
      "name": "getSarcophagusArchaeologist",
      "outputs": [
        {
          "components": [
            {
              "internalType": "bytes",
              "name": "publicKey",
              "type": "bytes"
            },
            {
              "internalType": "bytes32",
              "name": "privateKey",
              "type": "bytes32"
            },
            {
              "internalType": "bool",
              "name": "isAccused",
              "type": "bool"
            },
            {
              "internalType": "uint256",
              "name": "diggingFee",
              "type": "uint256"
            }
          ],
          "internalType": "struct LibTypes.CursedArchaeologist",
          "name": "",
          "type": "tuple"
        }
      ],
      "stateMutability": "view",
      "type": "function"
    },
    {
      "inputs": [],
      "name": "getTotalProtocolFees",
      "outputs": [
        {
          "internalType": "uint256",
          "name": "",
          "type": "uint256"
        }
      ],
      "stateMutability": "view",
      "type": "function"
    }
  ],
  "transactionHash": "0x2be7fa5d15dd0279978836ca30ae18bc16f3c5206b1df99d71caac2c2253f1ff",
  "args": [],
  "numDeployments": 1,
  "solcInputHash": "9b1a1cbc137d98a70bc447679d5e9b0d",
  "bytecode": "0x608060405234801561001057600080fd5b50612b73806100206000396000f3fe608060405234801561001057600080fd5b50600436106101735760003560e01c806387927ce6116100de578063d31dedd111610097578063dc231f4311610071578063dc231f43146104fc578063de116f061461052c578063ef60e4e71461055c578063fb6fffb51461058c57610173565b8063d31dedd11461047e578063daa4d21b146104ae578063dbd18388146104de57610173565b806387927ce6146103825780638fbd55d2146103b25780639c545639146103e25780639fdaded114610400578063a9328dcc1461041e578063c34e9bff1461044e57610173565b806357babbaf1161013057806357babbaf146102745780636b74d55a146102a45780636ba5c8ef146102d45780636c99bedc1461030457806379ee54f7146103345780637aa9fd2f1461036457610173565b80632569090214610178578063284f34de146101a857806331baea67146101d85780633fbb8930146101f657806342e10bc8146102145780634d0b676714610244575b600080fd5b610192600480360381019061018d9190611cae565b6105bc565b60405161019f9190611cf4565b60405180910390f35b6101c260048036038101906101bd9190611d3b565b610616565b6040516101cf9190611d94565b60405180910390f35b6101e061068a565b6040516101ed9190611cf4565b60405180910390f35b6101fe6106a2565b60405161020b9190611e6d565b60405180910390f35b61022e60048036038101906102299190611cae565b61073f565b60405161023b9190611fdb565b60405180910390f35b61025e60048036038101906102599190611cae565b61087c565b60405161026b91906120bb565b60405180910390f35b61028e600480360381019061028991906120dd565b610922565b60405161029b9190612119565b60405180910390f35b6102be60048036038101906102b9919061227c565b610978565b6040516102cb91906123c9565b60405180910390f35b6102ee60048036038101906102e99190612417565b610dd4565b6040516102fb9190612466565b60405180910390f35b61031e60048036038101906103199190611d3b565b610e49565b60405161032b9190611d94565b60405180910390f35b61034e60048036038101906103499190611cae565b610ebd565b60405161035b9190611cf4565b60405180910390f35b61036c610f14565b6040516103799190611cf4565b60405180910390f35b61039c60048036038101906103979190611cae565b610f2c565b6040516103a99190611cf4565b60405180910390f35b6103cc60048036038101906103c79190611cae565b610f86565b6040516103d99190611cf4565b60405180910390f35b6103ea610fe0565b6040516103f79190611cf4565b60405180910390f35b610408610ff8565b6040516104159190611cf4565b60405180910390f35b6104386004803603810190610433919061227c565b611010565b60405161044591906125cc565b60405180910390f35b61046860048036038101906104639190611cae565b61126c565b60405161047591906120bb565b60405180910390f35b61049860048036038101906104939190611cae565b611312565b6040516104a59190611cf4565b60405180910390f35b6104c860048036038101906104c39190611cae565b61136c565b6040516104d59190611cf4565b60405180910390f35b6104e66113c6565b6040516104f39190611cf4565b60405180910390f35b610516600480360381019061051191906125ee565b6113de565b60405161052391906126e6565b60405180910390f35b61054660048036038101906105419190612708565b61151c565b60405161055391906128d2565b60405180910390f35b61057660048036038101906105719190611cae565b6119cf565b60405161058391906120bb565b60405180910390f35b6105a660048036038101906105a19190611d3b565b611a75565b6040516105b39190611d94565b60405180910390f35b6000806105c7611ae9565b905080600e0160008473ffffffffffffffffffffffffffffffffffffffff1673ffffffffffffffffffffffffffffffffffffffff16815260200190815260200160002080549050915050919050565b600080610621611ae9565b905080600e0160008573ffffffffffffffffffffffffffffffffffffffff1673ffffffffffffffffffffffffffffffffffffffff1681526020019081526020016000208381548110610676576106756128f4565b5b906000526020600020015491505092915050565b600080610695611ae9565b9050806005015491505090565b606060006106ae611ae9565b905080600b0180548060200260200160405190810160405280929190818152602001828054801561073457602002820191906000526020600020905b8160009054906101000a900473ffffffffffffffffffffffffffffffffffffffff1673ffffffffffffffffffffffffffffffffffffffff16815260200190600101908083116106ea575b505050505091505090565b610747611b16565b6000610751611ae9565b905080600c0160008473ffffffffffffffffffffffffffffffffffffffff1673ffffffffffffffffffffffffffffffffffffffff1681526020019081526020016000206040518060c00160405290816000820160009054906101000a900460ff161515151581526020016001820180546107ca90612952565b80601f01602080910402602001604051908101604052809291908181526020018280546107f690612952565b80156108435780601f1061081857610100808354040283529160200191610843565b820191906000526020600020905b81548152906001019060200180831161082657829003601f168201915b50505050508152602001600282015481526020016003820154815260200160048201548152602001600582015481525050915050919050565b60606000610888611ae9565b90508060080160008473ffffffffffffffffffffffffffffffffffffffff1673ffffffffffffffffffffffffffffffffffffffff16815260200190815260200160002080548060200260200160405190810160405280929190818152602001828054801561091557602002820191906000526020600020905b815481526020019060010190808311610901575b5050505050915050919050565b60008061092d611ae9565b905080600b018381548110610945576109446128f4565b5b9060005260206000200160009054906101000a900473ffffffffffffffffffffffffffffffffffffffff16915050919050565b60606000610984611ae9565b90506000835167ffffffffffffffff8111156109a3576109a2612139565b5b6040519080825280602002602001820160405280156109dc57816020015b6109c9611b4e565b8152602001906001900390816109c15790505b50905060005b8451811015610dc957600080846007016000888581518110610a0757610a066128f4565b5b602002602001015173ffffffffffffffffffffffffffffffffffffffff1673ffffffffffffffffffffffffffffffffffffffff168152602001908152602001600020905060005b8180549050811015610bbb57600086600a016000848481548110610a7557610a746128f4565b5b9060005260206000200154815260200190815260200160002090503073ffffffffffffffffffffffffffffffffffffffff16636ba5c8ef8a8781518110610abf57610abe6128f4565b5b6020026020010151858581548110610ada57610ad96128f4565b5b90600052602060002001546040518363ffffffff1660e01b8152600401610b02929190612983565b602060405180830381865afa158015610b1f573d6000803e3d6000fd5b505050506040513d601f19601f82011682018060405250810190610b4391906129d8565b158015610b7457507fffffffffffffffffffffffffffffffffffffffffffffffffffffffffffffffff816000015414155b8015610b92575086600301548160000154610b8f9190612a34565b42115b15610ba757600184610ba49190612a34565b93505b508080610bb390612a8a565b915050610a4e565b5060405180608001604052803073ffffffffffffffffffffffffffffffffffffffff1663256909028a8781518110610bf657610bf56128f4565b5b60200260200101516040518263ffffffff1660e01b8152600401610c1a9190612119565b602060405180830381865afa158015610c37573d6000803e3d6000fd5b505050506040513d601f19601f82011682018060405250810190610c5b9190612ae7565b81526020013073ffffffffffffffffffffffffffffffffffffffff1663daa4d21b8a8781518110610c8f57610c8e6128f4565b5b60200260200101516040518263ffffffff1660e01b8152600401610cb39190612119565b602060405180830381865afa158015610cd0573d6000803e3d6000fd5b505050506040513d601f19601f82011682018060405250810190610cf49190612ae7565b81526020013073ffffffffffffffffffffffffffffffffffffffff1663d31dedd18a8781518110610d2857610d276128f4565b5b60200260200101516040518263ffffffff1660e01b8152600401610d4c9190612119565b602060405180830381865afa158015610d69573d6000803e3d6000fd5b505050506040513d601f19601f82011682018060405250810190610d8d9190612ae7565b815260200183815250848481518110610da957610da86128f4565b5b602002602001018190525050508080610dc190612a8a565b9150506109e2565b508092505050919050565b600080610ddf611ae9565b90506000801b81600a01600085815260200190815260200160002060090160008673ffffffffffffffffffffffffffffffffffffffff1673ffffffffffffffffffffffffffffffffffffffff16815260200190815260200160002060010154141591505092915050565b600080610e54611ae9565b905080600f0160008573ffffffffffffffffffffffffffffffffffffffff1673ffffffffffffffffffffffffffffffffffffffff1681526020019081526020016000208381548110610ea957610ea86128f4565b5b906000526020600020015491505092915050565b600080610ec8611ae9565b905080600d0160008473ffffffffffffffffffffffffffffffffffffffff1673ffffffffffffffffffffffffffffffffffffffff16815260200190815260200160002054915050919050565b600080610f1f611ae9565b9050806004015491505090565b600080610f37611ae9565b905080600c0160008473ffffffffffffffffffffffffffffffffffffffff1673ffffffffffffffffffffffffffffffffffffffff16815260200190815260200160002060050154915050919050565b600080610f91611ae9565b905080600c0160008473ffffffffffffffffffffffffffffffffffffffff1673ffffffffffffffffffffffffffffffffffffffff16815260200190815260200160002060040154915050919050565b600080610feb611ae9565b9050806001015491505090565b600080611003611ae9565b9050806002015491505090565b6060600061101c611ae9565b90506000835167ffffffffffffffff81111561103b5761103a612139565b5b60405190808252806020026020018201604052801561107457816020015b611061611b16565b8152602001906001900390816110595790505b50905060005b84518110156112615782600c01600086838151811061109c5761109b6128f4565b5b602002602001015173ffffffffffffffffffffffffffffffffffffffff1673ffffffffffffffffffffffffffffffffffffffff16815260200190815260200160002060000160009054906101000a900460ff161561124e5782600c01600086838151811061110d5761110c6128f4565b5b602002602001015173ffffffffffffffffffffffffffffffffffffffff1673ffffffffffffffffffffffffffffffffffffffff1681526020019081526020016000206040518060c00160405290816000820160009054906101000a900460ff1615151515815260200160018201805461118590612952565b80601f01602080910402602001604051908101604052809291908181526020018280546111b190612952565b80156111fe5780601f106111d3576101008083540402835291602001916111fe565b820191906000526020600020905b8154815290600101906020018083116111e157829003601f168201915b50505050508152602001600282015481526020016003820154815260200160048201548152602001600582015481525050828281518110611242576112416128f4565b5b60200260200101819052505b808061125990612a8a565b91505061107a565b508092505050919050565b60606000611278611ae9565b90508060060160008473ffffffffffffffffffffffffffffffffffffffff1673ffffffffffffffffffffffffffffffffffffffff16815260200190815260200160002080548060200260200160405190810160405280929190818152602001828054801561130557602002820191906000526020600020905b8154815260200190600101908083116112f1575b5050505050915050919050565b60008061131d611ae9565b90508060100160008473ffffffffffffffffffffffffffffffffffffffff1673ffffffffffffffffffffffffffffffffffffffff16815260200190815260200160002080549050915050919050565b600080611377611ae9565b905080600f0160008473ffffffffffffffffffffffffffffffffffffffff1673ffffffffffffffffffffffffffffffffffffffff16815260200190815260200160002080549050915050919050565b6000806113d1611ae9565b9050806003015491505090565b6113e6611b76565b60006113f0611ae9565b905080600a01600085815260200190815260200160002060090160008473ffffffffffffffffffffffffffffffffffffffff1673ffffffffffffffffffffffffffffffffffffffff16815260200190815260200160002060405180608001604052908160008201805461146290612952565b80601f016020809104026020016040519081016040528092919081815260200182805461148e90612952565b80156114db5780601f106114b0576101008083540402835291602001916114db565b820191906000526020600020905b8154815290600101906020018083116114be57829003601f168201915b50505050508152602001600182015481526020016002820160009054906101000a900460ff1615151515815260200160038201548152505091505092915050565b611524611ba3565b600061152e611ae9565b9050600081600a016000858152602001908152602001600020905060008060005b8360080180549050811015611716576000801b84600901600086600801848154811061157e5761157d6128f4565b5b9060005260206000200160009054906101000a900473ffffffffffffffffffffffffffffffffffffffff1673ffffffffffffffffffffffffffffffffffffffff1673ffffffffffffffffffffffffffffffffffffffff16815260200190815260200160002060010154146115ff5782806115f790612b14565b935050611703565b83600901600085600801838154811061161b5761161a6128f4565b5b9060005260206000200160009054906101000a900473ffffffffffffffffffffffffffffffffffffffff1673ffffffffffffffffffffffffffffffffffffffff1673ffffffffffffffffffffffffffffffffffffffff16815260200190815260200160002060020160009054906101000a900460ff161580156116ad57508360010160009054906101000a900460ff16155b80156116c857508360010160019054906101000a900460ff16155b80156116f857507fffffffffffffffffffffffffffffffffffffffffffffffffffffffffffffffff846000015414155b1561170257600191505b5b808061170e90612a8a565b91505061154f565b50604051806101800160405280846000015481526020018460010160009054906101000a900460ff16151581526020018460010160019054906101000a900460ff161515815260200184600201805461176e90612952565b80601f016020809104026020016040519081016040528092919081815260200182805461179a90612952565b80156117e75780601f106117bc576101008083540402835291602001916117e7565b820191906000526020600020905b8154815290600101906020018083116117ca57829003601f168201915b505050505081526020018460030160009054906101000a900460ff1660ff1681526020018460040154815260200184600501805461182490612952565b80601f016020809104026020016040519081016040528092919081815260200182805461185090612952565b801561189d5780601f106118725761010080835404028352916020019161189d565b820191906000526020600020905b81548152906001019060200180831161188057829003601f168201915b505050505081526020018460060160009054906101000a900473ffffffffffffffffffffffffffffffffffffffff1673ffffffffffffffffffffffffffffffffffffffff1681526020018460070160009054906101000a900473ffffffffffffffffffffffffffffffffffffffff1673ffffffffffffffffffffffffffffffffffffffff168152602001846008018054806020026020016040519081016040528092919081815260200182805480156119ab57602002820191906000526020600020905b8160009054906101000a900473ffffffffffffffffffffffffffffffffffffffff1673ffffffffffffffffffffffffffffffffffffffff1681526020019060010190808311611961575b505050505081526020018360ff168152602001821515815250945050505050919050565b606060006119db611ae9565b90508060070160008473ffffffffffffffffffffffffffffffffffffffff1673ffffffffffffffffffffffffffffffffffffffff168152602001908152602001600020805480602002602001604051908101604052809291908181526020018280548015611a6857602002820191906000526020600020905b815481526020019060010190808311611a54575b5050505050915050919050565b600080611a80611ae9565b90508060100160008573ffffffffffffffffffffffffffffffffffffffff1673ffffffffffffffffffffffffffffffffffffffff1681526020019081526020016000208381548110611ad557611ad46128f4565b5b906000526020600020015491505092915050565b6000807fe7e19c3fbf84f26ac171b2009b923863c68cc47279d5c6e6a019ce74e2daf4f490508091505090565b6040518060c0016040528060001515815260200160608152602001600081526020016000815260200160008152602001600081525090565b6040518060800160405280600081526020016000815260200160008152602001600081525090565b60405180608001604052806060815260200160008019168152602001600015158152602001600081525090565b6040518061018001604052806000815260200160001515815260200160001515815260200160608152602001600060ff1681526020016000815260200160608152602001600073ffffffffffffffffffffffffffffffffffffffff168152602001600073ffffffffffffffffffffffffffffffffffffffff16815260200160608152602001600060ff1681526020016000151581525090565b6000604051905090565b600080fd5b600080fd5b600073ffffffffffffffffffffffffffffffffffffffff82169050919050565b6000611c7b82611c50565b9050919050565b611c8b81611c70565b8114611c9657600080fd5b50565b600081359050611ca881611c82565b92915050565b600060208284031215611cc457611cc3611c46565b5b6000611cd284828501611c99565b91505092915050565b6000819050919050565b611cee81611cdb565b82525050565b6000602082019050611d096000830184611ce5565b92915050565b611d1881611cdb565b8114611d2357600080fd5b50565b600081359050611d3581611d0f565b92915050565b60008060408385031215611d5257611d51611c46565b5b6000611d6085828601611c99565b9250506020611d7185828601611d26565b9150509250929050565b6000819050919050565b611d8e81611d7b565b82525050565b6000602082019050611da96000830184611d85565b92915050565b600081519050919050565b600082825260208201905092915050565b6000819050602082019050919050565b611de481611c70565b82525050565b6000611df68383611ddb565b60208301905092915050565b6000602082019050919050565b6000611e1a82611daf565b611e248185611dba565b9350611e2f83611dcb565b8060005b83811015611e60578151611e478882611dea565b9750611e5283611e02565b925050600181019050611e33565b5085935050505092915050565b60006020820190508181036000830152611e878184611e0f565b905092915050565b60008115159050919050565b611ea481611e8f565b82525050565b600081519050919050565b600082825260208201905092915050565b60005b83811015611ee4578082015181840152602081019050611ec9565b83811115611ef3576000848401525b50505050565b6000601f19601f8301169050919050565b6000611f1582611eaa565b611f1f8185611eb5565b9350611f2f818560208601611ec6565b611f3881611ef9565b840191505092915050565b611f4c81611cdb565b82525050565b600060c083016000830151611f6a6000860182611e9b565b5060208301518482036020860152611f828282611f0a565b9150506040830151611f976040860182611f43565b506060830151611faa6060860182611f43565b506080830151611fbd6080860182611f43565b5060a0830151611fd060a0860182611f43565b508091505092915050565b60006020820190508181036000830152611ff58184611f52565b905092915050565b600081519050919050565b600082825260208201905092915050565b6000819050602082019050919050565b61203281611d7b565b82525050565b60006120448383612029565b60208301905092915050565b6000602082019050919050565b600061206882611ffd565b6120728185612008565b935061207d83612019565b8060005b838110156120ae5781516120958882612038565b97506120a083612050565b925050600181019050612081565b5085935050505092915050565b600060208201905081810360008301526120d5818461205d565b905092915050565b6000602082840312156120f3576120f2611c46565b5b600061210184828501611d26565b91505092915050565b61211381611c70565b82525050565b600060208201905061212e600083018461210a565b92915050565b600080fd5b7f4e487b7100000000000000000000000000000000000000000000000000000000600052604160045260246000fd5b61217182611ef9565b810181811067ffffffffffffffff821117156121905761218f612139565b5b80604052505050565b60006121a3611c3c565b90506121af8282612168565b919050565b600067ffffffffffffffff8211156121cf576121ce612139565b5b602082029050602081019050919050565b600080fd5b60006121f86121f3846121b4565b612199565b9050808382526020820190506020840283018581111561221b5761221a6121e0565b5b835b8181101561224457806122308882611c99565b84526020840193505060208101905061221d565b5050509392505050565b600082601f83011261226357612262612134565b5b81356122738482602086016121e5565b91505092915050565b60006020828403121561229257612291611c46565b5b600082013567ffffffffffffffff8111156122b0576122af611c4b565b5b6122bc8482850161224e565b91505092915050565b600081519050919050565b600082825260208201905092915050565b6000819050602082019050919050565b6080820160008201516123076000850182611f43565b50602082015161231a6020850182611f43565b50604082015161232d6040850182611f43565b5060608201516123406060850182611f43565b50505050565b600061235283836122f1565b60808301905092915050565b6000602082019050919050565b6000612376826122c5565b61238081856122d0565b935061238b836122e1565b8060005b838110156123bc5781516123a38882612346565b97506123ae8361235e565b92505060018101905061238f565b5085935050505092915050565b600060208201905081810360008301526123e3818461236b565b905092915050565b6123f481611d7b565b81146123ff57600080fd5b50565b600081359050612411816123eb565b92915050565b6000806040838503121561242e5761242d611c46565b5b600061243c85828601611c99565b925050602061244d85828601612402565b9150509250929050565b61246081611e8f565b82525050565b600060208201905061247b6000830184612457565b92915050565b600081519050919050565b600082825260208201905092915050565b6000819050602082019050919050565b600060c0830160008301516124c56000860182611e9b565b50602083015184820360208601526124dd8282611f0a565b91505060408301516124f26040860182611f43565b5060608301516125056060860182611f43565b5060808301516125186080860182611f43565b5060a083015161252b60a0860182611f43565b508091505092915050565b600061254283836124ad565b905092915050565b6000602082019050919050565b600061256282612481565b61256c818561248c565b93508360208202850161257e8561249d565b8060005b858110156125ba578484038952815161259b8582612536565b94506125a68361254a565b925060208a01995050600181019050612582565b50829750879550505050505092915050565b600060208201905081810360008301526125e68184612557565b905092915050565b6000806040838503121561260557612604611c46565b5b600061261385828601612402565b925050602061262485828601611c99565b9150509250929050565b600081519050919050565b600082825260208201905092915050565b60006126558261262e565b61265f8185612639565b935061266f818560208601611ec6565b61267881611ef9565b840191505092915050565b600060808301600083015184820360008601526126a0828261264a565b91505060208301516126b56020860182612029565b5060408301516126c86040860182611e9b565b5060608301516126db6060860182611f43565b508091505092915050565b600060208201905081810360008301526127008184612683565b905092915050565b60006020828403121561271e5761271d611c46565b5b600061272c84828501612402565b91505092915050565b600060ff82169050919050565b61274b81612735565b82525050565b600082825260208201905092915050565b600061276d82611daf565b6127778185612751565b935061278283611dcb565b8060005b838110156127b357815161279a8882611dea565b97506127a583611e02565b925050600181019050612786565b5085935050505092915050565b6000610180830160008301516127d96000860182611f43565b5060208301516127ec6020860182611e9b565b5060408301516127ff6040860182611e9b565b50606083015184820360608601526128178282611f0a565b915050608083015161282c6080860182612742565b5060a083015161283f60a0860182611f43565b5060c083015184820360c08601526128578282611f0a565b91505060e083015161286c60e0860182611ddb565b50610100830151612881610100860182611ddb565b5061012083015184820361012086015261289b8282612762565b9150506101408301516128b2610140860182612742565b506101608301516128c7610160860182611e9b565b508091505092915050565b600060208201905081810360008301526128ec81846127c0565b905092915050565b7f4e487b7100000000000000000000000000000000000000000000000000000000600052603260045260246000fd5b7f4e487b7100000000000000000000000000000000000000000000000000000000600052602260045260246000fd5b6000600282049050600182168061296a57607f821691505b60208210810361297d5761297c612923565b5b50919050565b6000604082019050612998600083018561210a565b6129a56020830184611d85565b9392505050565b6129b581611e8f565b81146129c057600080fd5b50565b6000815190506129d2816129ac565b92915050565b6000602082840312156129ee576129ed611c46565b5b60006129fc848285016129c3565b91505092915050565b7f4e487b7100000000000000000000000000000000000000000000000000000000600052601160045260246000fd5b6000612a3f82611cdb565b9150612a4a83611cdb565b9250827fffffffffffffffffffffffffffffffffffffffffffffffffffffffffffffffff03821115612a7f57612a7e612a05565b5b828201905092915050565b6000612a9582611cdb565b91507fffffffffffffffffffffffffffffffffffffffffffffffffffffffffffffffff8203612ac757612ac6612a05565b5b600182019050919050565b600081519050612ae181611d0f565b92915050565b600060208284031215612afd57612afc611c46565b5b6000612b0b84828501612ad2565b91505092915050565b6000612b1f82612735565b915060ff8203612b3257612b31612a05565b5b60018201905091905056fea2646970667358221220a396af51d872b4016cf6cfe965d9c9672f15ba438bac68673e4eb3affdfbf8a264736f6c634300080d0033",
  "devdoc": {
    "kind": "dev",
    "methods": {
      "archaeologistAccusalsIdentifier(address,uint256)": {
        "params": {
          "archaeologist": "The address of an archaeologist",
          "index": "The index of the archaeologist's accused sarcophagi"
        },
        "returns": {
          "_0": "the identifier associated with the index of the archaeologist's accused sarcophagi"
        }
      },
      "archaeologistCleanupsIdentifier(address,uint256)": {
        "params": {
          "archaeologist": "The address of an archaeologist",
          "index": "The index of the archaeologist's cleaned-up sarcophagi"
        },
        "returns": {
          "_0": "the identifier associated with the index of the archaeologist's cleaned-up sarcophagi"
        }
      },
      "archaeologistSuccessesIdentifier(address,uint256)": {
        "params": {
          "archaeologist": "The address of an archaeologist",
          "index": "The index of the archaeologist's unwrapped sarcophagi"
        },
        "returns": {
          "_0": "the identifier associated with the index of the archaeologist's unwrapped sarcophagi"
        }
      },
      "getArchaeologistAccusalsCount(address)": {
        "params": {
          "archaeologist": "The address of the archaeologist whose accusations count is being returned"
        }
      },
      "getArchaeologistCleanupsCount(address)": {
        "params": {
          "archaeologist": "The address of the archaeologist whose cleanups count is being returned"
        }
      },
      "getArchaeologistProfile(address)": {
        "params": {
          "archaeologist": "The archaeologist account's address"
        },
        "returns": {
          "_0": "the Archaeologist object"
        }
      },
      "getArchaeologistProfileAddressAtIndex(uint256)": {
        "params": {
          "index": "The index of the registered archaeologist"
        },
        "returns": {
          "_0": "address of the archaeologist"
        }
      },
      "getArchaeologistProfileAddresses()": {
        "returns": {
          "_0": "addresses of registered archaeologists"
        }
      },
      "getArchaeologistProfiles(address[])": {
        "params": {
          "addresses": "The list of archaeologist addresses"
        },
        "returns": {
          "_0": "The list of archaeologist profiles"
        }
      },
      "getArchaeologistSarcophagi(address)": {
        "params": {
          "archaeologist": "The address of the archaeologist whose sarcophagi are being returned"
        }
      },
      "getArchaeologistSuccessOnSarcophagus(address,bytes32)": {
        "params": {
          "archaeologist": "The address of the archaeologist",
          "sarcoId": "the sarcophagus to check if unwrapping occured"
        }
      },
      "getArchaeologistSuccessesCount(address)": {
        "params": {
          "archaeologist": "The address of the archaeologist whose success"
        }
      },
      "getArchaeologistsStatistics(address[])": {
        "params": {
          "addresses": "The list of archaeologist addresses"
        },
        "returns": {
          "_0": "The list of archaeologist statistics"
        }
      },
      "getCursedBond(address)": {
        "params": {
          "archaeologist": "The address of the archaeologist whose cursed bond is being returned"
        }
      },
      "getEmbalmerClaimWindow()": {
        "returns": {
          "_0": "The embalmer claim window"
        }
      },
      "getEmbalmerSarcophagi(address)": {
        "params": {
          "embalmer": "The address of the embalmer whose sarcophagi are being returned"
        }
      },
      "getExpirationThreshold()": {
        "returns": {
          "_0": "The expiration threshold"
        }
      },
      "getFreeBond(address)": {
        "params": {
          "archaeologist": "The address of the archaeologist whose free bond is being returned"
        }
      },
      "getGracePeriod()": {
        "returns": {
          "_0": "The resurrection grace period"
        }
      },
      "getProtocolFeeBasePercentage()": {
        "returns": {
          "_0": "The protocol fee base percentage - protocolFeeBasePercentage"
        }
      },
      "getRecipientSarcophagi(address)": {
        "params": {
          "recipient": "The address of the recipient whose sarcophagi are being returned"
        }
      },
      "getRewards(address)": {
        "params": {
          "archaeologist": "The address of the archaeologist whose reward is being returned"
        }
      },
      "getSarcophagus(bytes32)": {
        "params": {
          "sarcoId": "The identifier of the sarcophagus being returned"
        }
      },
      "getSarcophagusArchaeologist(bytes32,address)": {
        "params": {
          "archaeologist": "The address of the archaeologist whose data is being returned",
          "sarcoId": "The identifier of the sarcophagus whose data is being returned"
        }
      },
      "getTotalProtocolFees()": {
        "returns": {
          "_0": "The total protocol fees"
        }
      }
    },
    "version": 1
  },
  "userdoc": {
    "kind": "user",
    "methods": {
      "archaeologistAccusalsIdentifier(address,uint256)": {
        "notice": "Returns the sarcophagus unique identifier for a given archaeologist and index of the accused sarcophagi"
      },
      "archaeologistCleanupsIdentifier(address,uint256)": {
        "notice": "Returns the sarcophagus unique identifier for a given archaeologist and index of the cleaned-up sarcophagi"
      },
      "archaeologistSuccessesIdentifier(address,uint256)": {
        "notice": "Returns the sarcophagus unique identifier for a given archaeologist and index of the successfully unwrapped sarcophagi"
      },
      "getArchaeologistAccusalsCount(address)": {
        "notice": "Returns the number of accusations for an archaeologist."
      },
      "getArchaeologistCleanupsCount(address)": {
        "notice": "Returns the number of cleanups for an archaeologist."
      },
      "getArchaeologistProfile(address)": {
        "notice": "Given an archaeologist address, return that archaeologist's profile"
      },
      "getArchaeologistProfileAddressAtIndex(uint256)": {
        "notice": "Given an index (of the full archaeologist array), return the archaeologist address at that index"
      },
      "getArchaeologistProfileAddresses()": {
        "notice": "Return the list of registereed archaeologist addresses."
      },
      "getArchaeologistProfiles(address[])": {
        "notice": "Gets archaeologist profiles given a list of archaeologist addresses. If an invalid address is included, simply leaves it out of the list."
      },
      "getArchaeologistSarcophagi(address)": {
        "notice": "Given an archaeologist's address, returns the identifiers of all sarcophagi that the archaeologist has participated in."
      },
      "getArchaeologistSuccessOnSarcophagus(address,bytes32)": {
        "notice": "Returns whether an archaeologist completed an unwrap for a sarcophagus"
      },
      "getArchaeologistSuccessesCount(address)": {
        "notice": "Returns the number of successful unwraps for an archaeologist."
      },
      "getArchaeologistsStatistics(address[])": {
        "notice": "Gets all reputation statistics for each archaeologist Contains a list of counts for each category."
      },
      "getCursedBond(address)": {
        "notice": "Returns the amount of cursed bond stored in the contract for an archaeologist."
      },
      "getEmbalmerClaimWindow()": {
        "notice": "Gets the window after end of gracePeriod + resurrectionTime where embalmer can claim remaining bonds from archaeologists that have failed to publish private keys"
      },
      "getEmbalmerSarcophagi(address)": {
        "notice": "Given an embalmer's address, returns the identifiers of all sarcophagi that the embalmer has created."
      },
      "getExpirationThreshold()": {
        "notice": "Gets the expiration threshold after which a sarcophagus must be renegotiated"
      },
      "getFreeBond(address)": {
        "notice": "Returns the amount of free bond stored in the contract for an archaeologist."
      },
      "getGracePeriod()": {
        "notice": "Gets the grace period an archaeologist is given to resurrect a sarcophagus after the resurrection time passes"
      },
      "getProtocolFeeBasePercentage()": {
        "notice": "Get the protocol fee base percentage from the contract."
      },
      "getRecipientSarcophagi(address)": {
        "notice": "Given a recipient's address, returns the identifiers of all sarcophagi that the recipient has participated in."
      },
      "getRewards(address)": {
        "notice": "Returns the amount of rewards stored in the contract for an archaeologist."
      },
      "getSarcophagus(bytes32)": {
        "notice": "Returns data on the sarcophagus with the supplied id includes aggregate data on cursed archaeologists associated with the sarcophagus     - publishedPrivateKeyCount - the total number of private keys published by archaeologists on the sarcophagus     - hasLockedBond - true if archaeologists still have bond locked in the contract for this sarcophagus"
      },
      "getSarcophagusArchaeologist(bytes32,address)": {
        "notice": "Returns the data stored on a sarcophagus for an archaeologist."
      },
      "getTotalProtocolFees()": {
        "notice": "Gets the total protocol fees from the contract."
      }
    },
    "version": 1
  },
  "storageLayout": {
    "storage": [],
    "types": null
  }
}