{
  "address": "0xA1Da60f46bf9BBc28e00Bda0a568C9369D6Eef80",
  "abi": [
    {
      "inputs": [],
      "stateMutability": "nonpayable",
      "type": "constructor"
    },
    {
      "inputs": [
        {
          "internalType": "uint256",
          "name": "sarcoId",
          "type": "uint256"
        },
        {
          "internalType": "address",
          "name": "archaeologist",
          "type": "address"
        }
      ],
      "name": "CurseAlreadyExists",
      "type": "error"
    },
    {
      "anonymous": false,
      "inputs": [
        {
          "indexed": true,
          "internalType": "address",
          "name": "account",
          "type": "address"
        },
        {
          "indexed": true,
          "internalType": "address",
          "name": "operator",
          "type": "address"
        },
        {
          "indexed": false,
          "internalType": "bool",
          "name": "approved",
          "type": "bool"
        }
      ],
      "name": "ApprovalForAll",
      "type": "event"
    },
    {
      "anonymous": false,
      "inputs": [
        {
          "indexed": true,
          "internalType": "address",
          "name": "previousOwner",
          "type": "address"
        },
        {
          "indexed": true,
          "internalType": "address",
          "name": "newOwner",
          "type": "address"
        }
      ],
      "name": "OwnershipTransferred",
      "type": "event"
    },
    {
      "anonymous": false,
      "inputs": [
        {
          "indexed": true,
          "internalType": "address",
          "name": "operator",
          "type": "address"
        },
        {
          "indexed": true,
          "internalType": "address",
          "name": "from",
          "type": "address"
        },
        {
          "indexed": true,
          "internalType": "address",
          "name": "to",
          "type": "address"
        },
        {
          "indexed": false,
          "internalType": "uint256[]",
          "name": "ids",
          "type": "uint256[]"
        },
        {
          "indexed": false,
          "internalType": "uint256[]",
          "name": "values",
          "type": "uint256[]"
        }
      ],
      "name": "TransferBatch",
      "type": "event"
    },
    {
      "anonymous": false,
      "inputs": [
        {
          "indexed": true,
          "internalType": "address",
          "name": "operator",
          "type": "address"
        },
        {
          "indexed": true,
          "internalType": "address",
          "name": "from",
          "type": "address"
        },
        {
          "indexed": true,
          "internalType": "address",
          "name": "to",
          "type": "address"
        },
        {
          "indexed": false,
          "internalType": "uint256",
          "name": "id",
          "type": "uint256"
        },
        {
          "indexed": false,
          "internalType": "uint256",
          "name": "value",
          "type": "uint256"
        }
      ],
      "name": "TransferSingle",
      "type": "event"
    },
    {
      "anonymous": false,
      "inputs": [
        {
          "indexed": false,
          "internalType": "string",
          "name": "value",
          "type": "string"
        },
        {
          "indexed": true,
          "internalType": "uint256",
          "name": "id",
          "type": "uint256"
        }
      ],
      "name": "URI",
      "type": "event"
    },
    {
      "inputs": [
        {
          "internalType": "address",
          "name": "account",
          "type": "address"
        },
        {
          "internalType": "uint256",
          "name": "id",
          "type": "uint256"
        }
      ],
      "name": "balanceOf",
      "outputs": [
        {
          "internalType": "uint256",
          "name": "",
          "type": "uint256"
        }
      ],
      "stateMutability": "view",
      "type": "function"
    },
    {
      "inputs": [
        {
          "internalType": "address[]",
          "name": "accounts",
          "type": "address[]"
        },
        {
          "internalType": "uint256[]",
          "name": "ids",
          "type": "uint256[]"
        }
      ],
      "name": "balanceOfBatch",
      "outputs": [
        {
          "internalType": "uint256[]",
          "name": "",
          "type": "uint256[]"
        }
      ],
      "stateMutability": "view",
      "type": "function"
    },
    {
      "inputs": [],
      "name": "contractURI",
      "outputs": [
        {
          "internalType": "string",
          "name": "",
          "type": "string"
        }
      ],
      "stateMutability": "view",
      "type": "function"
    },
    {
      "inputs": [],
      "name": "createSVG",
      "outputs": [
        {
          "internalType": "string",
          "name": "",
          "type": "string"
        }
      ],
      "stateMutability": "pure",
      "type": "function"
    },
    {
      "inputs": [
        {
          "internalType": "address",
          "name": "account",
          "type": "address"
        },
        {
          "internalType": "address",
          "name": "operator",
          "type": "address"
        }
      ],
      "name": "isApprovedForAll",
      "outputs": [
        {
          "internalType": "bool",
          "name": "",
          "type": "bool"
        }
      ],
      "stateMutability": "view",
      "type": "function"
    },
    {
      "inputs": [
        {
          "internalType": "address",
          "name": "_to",
          "type": "address"
        },
        {
          "internalType": "uint256",
          "name": "_sarcoId",
          "type": "uint256"
        },
        {
          "internalType": "string",
          "name": "_name",
          "type": "string"
        },
        {
          "internalType": "string",
          "name": "_description",
          "type": "string"
        },
        {
          "internalType": "string",
          "name": "_imageURI",
          "type": "string"
        },
        {
          "internalType": "string",
          "name": "_diggingFee",
          "type": "string"
        },
        {
          "internalType": "string",
          "name": "_bounty",
          "type": "string"
        }
      ],
      "name": "mint",
      "outputs": [],
      "stateMutability": "nonpayable",
      "type": "function"
    },
    {
      "inputs": [],
      "name": "owner",
      "outputs": [
        {
          "internalType": "address",
          "name": "",
          "type": "address"
        }
      ],
      "stateMutability": "view",
      "type": "function"
    },
    {
      "inputs": [],
      "name": "renounceOwnership",
      "outputs": [],
      "stateMutability": "nonpayable",
      "type": "function"
    },
    {
      "inputs": [
        {
          "internalType": "address",
          "name": "from",
          "type": "address"
        },
        {
          "internalType": "address",
          "name": "to",
          "type": "address"
        },
        {
          "internalType": "uint256[]",
          "name": "ids",
          "type": "uint256[]"
        },
        {
          "internalType": "uint256[]",
          "name": "amounts",
          "type": "uint256[]"
        },
        {
          "internalType": "bytes",
          "name": "data",
          "type": "bytes"
        }
      ],
      "name": "safeBatchTransferFrom",
      "outputs": [],
      "stateMutability": "nonpayable",
      "type": "function"
    },
    {
      "inputs": [
        {
          "internalType": "address",
          "name": "from",
          "type": "address"
        },
        {
          "internalType": "address",
          "name": "to",
          "type": "address"
        },
        {
          "internalType": "uint256",
          "name": "id",
          "type": "uint256"
        },
        {
          "internalType": "uint256",
          "name": "amount",
          "type": "uint256"
        },
        {
          "internalType": "bytes",
          "name": "data",
          "type": "bytes"
        }
      ],
      "name": "safeTransferFrom",
      "outputs": [],
      "stateMutability": "nonpayable",
      "type": "function"
    },
    {
      "inputs": [
        {
          "internalType": "address",
          "name": "operator",
          "type": "address"
        },
        {
          "internalType": "bool",
          "name": "approved",
          "type": "bool"
        }
      ],
      "name": "setApprovalForAll",
      "outputs": [],
      "stateMutability": "nonpayable",
      "type": "function"
    },
    {
      "inputs": [
        {
          "internalType": "bytes4",
          "name": "interfaceId",
          "type": "bytes4"
        }
      ],
      "name": "supportsInterface",
      "outputs": [
        {
          "internalType": "bool",
          "name": "",
          "type": "bool"
        }
      ],
      "stateMutability": "view",
      "type": "function"
    },
    {
      "inputs": [
        {
          "internalType": "address",
          "name": "newOwner",
          "type": "address"
        }
      ],
      "name": "transferOwnership",
      "outputs": [],
      "stateMutability": "nonpayable",
      "type": "function"
    },
    {
      "inputs": [
        {
          "internalType": "uint256",
          "name": "_tokenId",
          "type": "uint256"
        }
      ],
      "name": "uri",
      "outputs": [
        {
          "internalType": "string",
          "name": "",
          "type": "string"
        }
      ],
      "stateMutability": "view",
      "type": "function"
    }
  ],
  "transactionHash": "0x3f311ca2f01ae3acab82773be0f4a76b64d6b6a58bbcadab85b507c06391382e",
  "args": [],
  "numDeployments": 1,
  "solcInputHash": "dc10fd0a351132a12ac3ebdbe5e05ee5",
  "bytecode": "0x60806040523480156200001157600080fd5b506040518060200160405280600081525062000033816200026360201b60201c565b5062000054620000486200027f60201b60201c565b6200028760201b60201c565b620000a57f6e616d65000000000000000000000000000000000000000000000000000000006040516020016200008a906200146c565b6040516020818303038152906040526200034d60201b60201c565b620000f67f6465736372697074696f6e000000000000000000000000000000000000000000604051602001620000db9062001504565b6040516020818303038152906040526200034d60201b60201c565b620001587f696d6167650000000000000000000000000000000000000000000000000000006200012b620003df60201b60201c565b6040516020016200013d9190620015b9565b6040516020818303038152906040526200034d60201b60201c565b6200025d3360006040518060400160405280600a81526020017f466972737420546573740000000000000000000000000000000000000000000081525060405180606001604052806024815260200162006142602491396040518060400160405280600781526020017f736f6d65555249000000000000000000000000000000000000000000000000008152506040518060400160405280600181526020017f30000000000000000000000000000000000000000000000000000000000000008152506040518060400160405280600181526020017f3000000000000000000000000000000000000000000000000000000000000000815250620003f660201b60201c565b62001dd7565b80600290805190602001906200027b929190620011f5565b5050565b600033905090565b6000600860009054906101000a900473ffffffffffffffffffffffffffffffffffffffff16905081600860006101000a81548173ffffffffffffffffffffffffffffffffffffffff021916908373ffffffffffffffffffffffffffffffffffffffff1602179055508173ffffffffffffffffffffffffffffffffffffffff168173ffffffffffffffffffffffffffffffffffffffff167f8be0079c531659141344cd1fd0a4f28419497f9722a3daafe3b4186f6b6457e060405160405180910390a35050565b6000600167ffffffffffffffff8111156200036d576200036c620015dd565b5b604051908082528060200260200182016040528015620003a257816020015b60608152602001906001900390816200038c5790505b5090508181600081518110620003bd57620003bc6200160c565b5b6020026020010181905250620003da838262000a4e60201b60201c565b505050565b606060405180602001604052806000815250905090565b620004066200027f60201b60201c565b73ffffffffffffffffffffffffffffffffffffffff166200042c62000ad860201b60201c565b73ffffffffffffffffffffffffffffffffffffffff161462000485576040517f08c379a00000000000000000000000000000000000000000000000000000000081526004016200047c906200168b565b60405180910390fd5b600015156009600088815260200190815260200160002060008973ffffffffffffffffffffffffffffffffffffffff1673ffffffffffffffffffffffffffffffffffffffff16815260200190815260200160002060009054906101000a900460ff16151514620005305785876040517f352d6bca000000000000000000000000000000000000000000000000000000008152600401620005279291906200170d565b60405180910390fd5b6200058586887f6e616d6500000000000000000000000000000000000000000000000000000000886040516020016200056a9190620015b9565b60405160208183030381529060405262000b0260201b60201c565b620005da86887f6465736372697074696f6e00000000000000000000000000000000000000000087604051602001620005bf9190620015b9565b60405160208183030381529060405262000b0260201b60201c565b6200062f86887f696d61676500000000000000000000000000000000000000000000000000000086604051602001620006149190620015b9565b60405160208183030381529060405262000b0260201b60201c565b6000600267ffffffffffffffff8111156200064f576200064e620015dd565b5b6040519080825280602002602001820160405280156200068457816020015b60608152602001906001900390816200066e5790505b5090506000600267ffffffffffffffff811115620006a757620006a6620015dd565b5b604051908082528060200260200182016040528015620006dc57816020015b6060815260200190600190039081620006c65790505b5090506000600267ffffffffffffffff811115620006ff57620006fe620015dd565b5b6040519080825280602002602001820160405280156200073457816020015b60608152602001906001900390816200071e5790505b50905060405160200162000748906200178a565b604051602081830303815290604052836000815181106200076e576200076d6200160c565b5b60200260200101819052506040516020016200078a90620017fc565b60405160208183030381529060405283600181518110620007b057620007af6200160c565b5b6020026020010181905250604051602001620007cc906200186e565b60405160208183030381529060405282600081518110620007f257620007f16200160c565b5b60200260200101819052506040516020016200080e906200186e565b604051602081830303815290604052826001815181106200083457620008336200160c565b5b602002602001018190525084604051602001620008529190620015b9565b604051602081830303815290604052816000815181106200087857620008776200160c565b5b602002602001018190525083604051602001620008969190620015b9565b60405160208183030381529060405281600181518110620008bc57620008bb6200160c565b5b6020026020010181905250620008fb898b7f74726169745f74797065000000000000000000000000000000000000000000008662000b9860201b60201c565b6200092f898b7f74726169745f646973706c6179000000000000000000000000000000000000008562000b9860201b60201c565b62000963898b7f74726169745f76616c75650000000000000000000000000000000000000000008462000b9860201b60201c565b6001600960008b815260200190815260200160002060008c73ffffffffffffffffffffffffffffffffffffffff1673ffffffffffffffffffffffffffffffffffffffff16815260200190815260200160002060006101000a81548160ff02191690831515021790555089600760008b815260200190815260200160002060006101000a81548173ffffffffffffffffffffffffffffffffffffffff021916908373ffffffffffffffffffffffffffffffffffffffff16021790555062000a428a8a60016040518060200160405280600081525062000d6160201b60201c565b50505050505050505050565b600060036002016000848152602001908152602001600020540362000a8b57600160036000015462000a819190620018bf565b6003600001819055505b8060036001016000848152602001908152602001600020908051906020019062000ab792919062001286565b50805160036002016000848152602001908152602001600020819055505050565b6000600860009054906101000a900473ffffffffffffffffffffffffffffffffffffffff16905090565b6000600167ffffffffffffffff81111562000b225762000b21620015dd565b5b60405190808252806020026020018201604052801562000b5757816020015b606081526020019060019003908162000b415790505b509050818160008151811062000b725762000b716200160c565b5b602002602001018190525062000b918585858462000b9860201b60201c565b5050505050565b60006006600086815260200190815260200160002060008573ffffffffffffffffffffffffffffffffffffffff1673ffffffffffffffffffffffffffffffffffffffff16815260200190815260200160002090506000816002016000858152602001908152602001600020540362000c75576001816000015462000c1d9190620018bf565b6006600087815260200190815260200160002060008673ffffffffffffffffffffffffffffffffffffffff1673ffffffffffffffffffffffffffffffffffffffff168152602001908152602001600020600001819055505b816006600087815260200190815260200160002060008673ffffffffffffffffffffffffffffffffffffffff1673ffffffffffffffffffffffffffffffffffffffff1681526020019081526020016000206001016000858152602001908152602001600020908051906020019062000cef92919062001286565b5081516006600087815260200190815260200160002060008673ffffffffffffffffffffffffffffffffffffffff1673ffffffffffffffffffffffffffffffffffffffff1681526020019081526020016000206002016000858152602001908152602001600020819055505050505050565b600073ffffffffffffffffffffffffffffffffffffffff168473ffffffffffffffffffffffffffffffffffffffff160362000dd3576040517f08c379a000000000000000000000000000000000000000000000000000000000815260040162000dca9062001992565b60405180910390fd5b600062000de56200027f60201b60201c565b9050600062000dfa8562000f4860201b60201c565b9050600062000e0f8562000f4860201b60201c565b905062000e288360008985858962000fc960201b60201c565b8460008088815260200190815260200160002060008973ffffffffffffffffffffffffffffffffffffffff1673ffffffffffffffffffffffffffffffffffffffff168152602001908152602001600020600082825462000e899190620018bf565b925050819055508673ffffffffffffffffffffffffffffffffffffffff16600073ffffffffffffffffffffffffffffffffffffffff168473ffffffffffffffffffffffffffffffffffffffff167fc3d58168c5ae7397731d063d5bbf3d657854427343f4c083240f7aacaa2d0f62898960405162000f09929190620019b4565b60405180910390a462000f288360008985858962000fd160201b60201c565b62000f3f8360008989898962000fd960201b60201c565b50505050505050565b60606000600167ffffffffffffffff81111562000f6a5762000f69620015dd565b5b60405190808252806020026020018201604052801562000f995781602001602082028036833780820191505090505b509050828160008151811062000fb45762000fb36200160c565b5b60200260200101818152505080915050919050565b505050505050565b505050505050565b620010058473ffffffffffffffffffffffffffffffffffffffff16620011d260201b62000f371760201c565b15620011ca578373ffffffffffffffffffffffffffffffffffffffff1663f23a6e6187878686866040518663ffffffff1660e01b81526004016200104e95949392919062001a3e565b6020604051808303816000875af19250505080156200108d57506040513d601f19601f820116820180604052508101906200108a919062001b0e565b60015b6200113e576200109c62001b4d565b806308c379a003620010ff5750620010b362001ba8565b80620010c0575062001101565b806040517f08c379a0000000000000000000000000000000000000000000000000000000008152600401620010f69190620015b9565b60405180910390fd5b505b6040517f08c379a0000000000000000000000000000000000000000000000000000000008152600401620011359062001cb9565b60405180910390fd5b63f23a6e6160e01b7bffffffffffffffffffffffffffffffffffffffffffffffffffffffff1916817bffffffffffffffffffffffffffffffffffffffffffffffffffffffff191614620011c8576040517f08c379a0000000000000000000000000000000000000000000000000000000008152600401620011bf9062001d51565b60405180910390fd5b505b505050505050565b6000808273ffffffffffffffffffffffffffffffffffffffff163b119050919050565b828054620012039062001da2565b90600052602060002090601f01602090048101928262001227576000855562001273565b82601f106200124257805160ff191683800117855562001273565b8280016001018555821562001273579182015b828111156200127257825182559160200191906001019062001255565b5b509050620012829190620012ed565b5090565b828054828255906000526020600020908101928215620012da579160200282015b82811115620012d9578251829080519060200190620012c89291906200130c565b5091602001919060010190620012a7565b5b509050620012e991906200139d565b5090565b5b8082111562001308576000816000905550600101620012ee565b5090565b8280546200131a9062001da2565b90600052602060002090601f0160209004810192826200133e57600085556200138a565b82601f106200135957805160ff19168380011785556200138a565b828001600101855582156200138a579182015b82811115620013895782518255916020019190600101906200136c565b5b509050620013999190620012ed565b5090565b5b80821115620013c15760008181620013b79190620013c5565b506001016200139e565b5090565b508054620013d39062001da2565b6000825580601f10620013e7575062001408565b601f016020900490600052602060002090810190620014079190620012ed565b5b50565b600082825260208201905092915050565b7f455243313135354f6e436861696e4d65746164617461204578616d706c650000600082015250565b600062001454601e836200140b565b915062001461826200141c565b602082019050919050565b60006020820190508181036000830152620014878162001445565b9050919050565b7f53696d706c65206578616d706c65206f6620455243313135354f6e436861696e60008201527f4d657461646174612077697468206f6e20636861696e20737667000000000000602082015250565b6000620014ec603a836200140b565b9150620014f9826200148e565b604082019050919050565b600060208201905081810360008301526200151f81620014dd565b9050919050565b600081519050919050565b60005b838110156200155157808201518184015260208101905062001534565b8381111562001561576000848401525b50505050565b6000601f19601f8301169050919050565b6000620015858262001526565b6200159181856200140b565b9350620015a381856020860162001531565b620015ae8162001567565b840191505092915050565b60006020820190508181036000830152620015d5818462001578565b905092915050565b7f4e487b7100000000000000000000000000000000000000000000000000000000600052604160045260246000fd5b7f4e487b7100000000000000000000000000000000000000000000000000000000600052603260045260246000fd5b7f4f776e61626c653a2063616c6c6572206973206e6f7420746865206f776e6572600082015250565b6000620016736020836200140b565b915062001680826200163b565b602082019050919050565b60006020820190508181036000830152620016a68162001664565b9050919050565b6000819050919050565b620016c281620016ad565b82525050565b600073ffffffffffffffffffffffffffffffffffffffff82169050919050565b6000620016f582620016c8565b9050919050565b6200170781620016e8565b82525050565b6000604082019050620017246000830185620016b7565b620017336020830184620016fc565b9392505050565b7f44696767696e6720466565000000000000000000000000000000000000000000600082015250565b600062001772600b836200140b565b91506200177f826200173a565b602082019050919050565b60006020820190508181036000830152620017a58162001763565b9050919050565b7f426f756e74790000000000000000000000000000000000000000000000000000600082015250565b6000620017e46006836200140b565b9150620017f182620017ac565b602082019050919050565b600060208201905081810360008301526200181781620017d5565b9050919050565b7f737472696e670000000000000000000000000000000000000000000000000000600082015250565b6000620018566006836200140b565b915062001863826200181e565b602082019050919050565b60006020820190508181036000830152620018898162001847565b9050919050565b7f4e487b7100000000000000000000000000000000000000000000000000000000600052601160045260246000fd5b6000620018cc82620016ad565b9150620018d983620016ad565b9250827fffffffffffffffffffffffffffffffffffffffffffffffffffffffffffffffff0382111562001911576200191062001890565b5b828201905092915050565b7f455243313135353a206d696e7420746f20746865207a65726f2061646472657360008201527f7300000000000000000000000000000000000000000000000000000000000000602082015250565b60006200197a6021836200140b565b915062001987826200191c565b604082019050919050565b60006020820190508181036000830152620019ad816200196b565b9050919050565b6000604082019050620019cb6000830185620016b7565b620019da6020830184620016b7565b9392505050565b600081519050919050565b600082825260208201905092915050565b600062001a0a82620019e1565b62001a168185620019ec565b935062001a2881856020860162001531565b62001a338162001567565b840191505092915050565b600060a08201905062001a556000830188620016fc565b62001a646020830187620016fc565b62001a736040830186620016b7565b62001a826060830185620016b7565b818103608083015262001a968184620019fd565b90509695505050505050565b6000604051905090565b600080fd5b60007fffffffff0000000000000000000000000000000000000000000000000000000082169050919050565b62001ae88162001ab1565b811462001af457600080fd5b50565b60008151905062001b088162001add565b92915050565b60006020828403121562001b275762001b2662001aac565b5b600062001b378482850162001af7565b91505092915050565b60008160e01c9050919050565b600060033d111562001b6f5760046000803e62001b6c60005162001b40565b90505b90565b62001b7d8262001567565b810181811067ffffffffffffffff8211171562001b9f5762001b9e620015dd565b5b80604052505050565b600060443d1062001c405762001bbd62001aa2565b60043d036004823e80513d602482011167ffffffffffffffff8211171562001be757505062001c40565b808201805167ffffffffffffffff81111562001c07575050505062001c40565b80602083010160043d03850181111562001c2657505050505062001c40565b62001c378260200185018662001b72565b82955050505050505b90565b7f455243313135353a207472616e7366657220746f206e6f6e204552433131353560008201527f526563656976657220696d706c656d656e746572000000000000000000000000602082015250565b600062001ca16034836200140b565b915062001cae8262001c43565b604082019050919050565b6000602082019050818103600083015262001cd48162001c92565b9050919050565b7f455243313135353a204552433131353552656365697665722072656a6563746560008201527f6420746f6b656e73000000000000000000000000000000000000000000000000602082015250565b600062001d396028836200140b565b915062001d468262001cdb565b604082019050919050565b6000602082019050818103600083015262001d6c8162001d2a565b9050919050565b7f4e487b7100000000000000000000000000000000000000000000000000000000600052602260045260246000fd5b6000600282049050600182168062001dbb57607f821691505b60208210810362001dd15762001dd062001d73565b5b50919050565b61435b8062001de76000396000f3fe608060405234801561001057600080fd5b50600436106100e95760003560e01c8063a22cb4651161008c578063e8a3d48511610066578063e8a3d48514610248578063e985e9c514610266578063f242432a14610296578063f2fde38b146102b2576100e9565b8063a22cb465146101f2578063a5166d151461020e578063daab4c861461022a576100e9565b80632eb2c2d6116100c85780632eb2c2d61461017e5780634e1273f41461019a578063715018a6146101ca5780638da5cb5b146101d4576100e9565b8062fdd58e146100ee57806301ffc9a71461011e5780630e89341c1461014e575b600080fd5b61010860048036038101906101039190612634565b6102ce565b6040516101159190612683565b60405180910390f35b610138600480360381019061013391906126f6565b610396565b604051610145919061273e565b60405180910390f35b61016860048036038101906101639190612759565b610478565b604051610175919061281f565b60405180910390f35b61019860048036038101906101939190612a3e565b61049d565b005b6101b460048036038101906101af9190612bd0565b61053e565b6040516101c19190612d06565b60405180910390f35b6101d2610657565b005b6101dc6106df565b6040516101e99190612d37565b60405180910390f35b61020c60048036038101906102079190612d7e565b610709565b005b61022860048036038101906102239190612e5f565b61071f565b005b610232610cf6565b60405161023f919061281f565b60405180910390f35b610250610d0d565b60405161025d919061281f565b60405180910390f35b610280600480360381019061027b9190612f8d565b610d1c565b60405161028d919061273e565b60405180910390f35b6102b060048036038101906102ab9190612fcd565b610db0565b005b6102cc60048036038101906102c79190613064565b610e40565b005b60008073ffffffffffffffffffffffffffffffffffffffff168373ffffffffffffffffffffffffffffffffffffffff160361033e576040517f08c379a000000000000000000000000000000000000000000000000000000000815260040161033590613103565b60405180910390fd5b60008083815260200190815260200160002060008473ffffffffffffffffffffffffffffffffffffffff1673ffffffffffffffffffffffffffffffffffffffff16815260200190815260200160002054905092915050565b60007fd9b67a26000000000000000000000000000000000000000000000000000000007bffffffffffffffffffffffffffffffffffffffffffffffffffffffff1916827bffffffffffffffffffffffffffffffffffffffffffffffffffffffff1916148061046157507f0e89341c000000000000000000000000000000000000000000000000000000007bffffffffffffffffffffffffffffffffffffffffffffffffffffffff1916827bffffffffffffffffffffffffffffffffffffffffffffffffffffffff1916145b80610471575061047082610f5a565b5b9050919050565b60606040518061020001604052806101c581526020016141616101c591399050919050565b6104a5610fc4565b73ffffffffffffffffffffffffffffffffffffffff168573ffffffffffffffffffffffffffffffffffffffff1614806104eb57506104ea856104e5610fc4565b610d1c565b5b61052a576040517f08c379a000000000000000000000000000000000000000000000000000000000815260040161052190613195565b60405180910390fd5b6105378585858585610fcc565b5050505050565b60608151835114610584576040517f08c379a000000000000000000000000000000000000000000000000000000000815260040161057b90613227565b60405180910390fd5b6000835167ffffffffffffffff8111156105a1576105a0612846565b5b6040519080825280602002602001820160405280156105cf5781602001602082028036833780820191505090505b50905060005b845181101561064c5761061c8582815181106105f4576105f3613247565b5b602002602001015185838151811061060f5761060e613247565b5b60200260200101516102ce565b82828151811061062f5761062e613247565b5b60200260200101818152505080610645906132a5565b90506105d5565b508091505092915050565b61065f610fc4565b73ffffffffffffffffffffffffffffffffffffffff1661067d6106df565b73ffffffffffffffffffffffffffffffffffffffff16146106d3576040517f08c379a00000000000000000000000000000000000000000000000000000000081526004016106ca90613339565b60405180910390fd5b6106dd60006112ed565b565b6000600860009054906101000a900473ffffffffffffffffffffffffffffffffffffffff16905090565b61071b610714610fc4565b83836113b3565b5050565b610727610fc4565b73ffffffffffffffffffffffffffffffffffffffff166107456106df565b73ffffffffffffffffffffffffffffffffffffffff161461079b576040517f08c379a000000000000000000000000000000000000000000000000000000000815260040161079290613339565b60405180910390fd5b600015156009600088815260200190815260200160002060008973ffffffffffffffffffffffffffffffffffffffff1673ffffffffffffffffffffffffffffffffffffffff16815260200190815260200160002060009054906101000a900460ff161515146108435785876040517f352d6bca00000000000000000000000000000000000000000000000000000000815260040161083a929190613359565b60405180910390fd5b61088e86887f6e616d65000000000000000000000000000000000000000000000000000000008860405160200161087a919061281f565b60405160208183030381529060405261151f565b6108d986887f6465736372697074696f6e000000000000000000000000000000000000000000876040516020016108c5919061281f565b60405160208183030381529060405261151f565b61092486887f696d61676500000000000000000000000000000000000000000000000000000086604051602001610910919061281f565b60405160208183030381529060405261151f565b6000600267ffffffffffffffff81111561094157610940612846565b5b60405190808252806020026020018201604052801561097457816020015b606081526020019060019003908161095f5790505b5090506000600267ffffffffffffffff81111561099457610993612846565b5b6040519080825280602002602001820160405280156109c757816020015b60608152602001906001900390816109b25790505b5090506000600267ffffffffffffffff8111156109e7576109e6612846565b5b604051908082528060200260200182016040528015610a1a57816020015b6060815260200190600190039081610a055790505b509050604051602001610a2c906133ce565b60405160208183030381529060405283600081518110610a4f57610a4e613247565b5b6020026020010181905250604051602001610a699061343a565b60405160208183030381529060405283600181518110610a8c57610a8b613247565b5b6020026020010181905250604051602001610aa6906134a6565b60405160208183030381529060405282600081518110610ac957610ac8613247565b5b6020026020010181905250604051602001610ae3906134a6565b60405160208183030381529060405282600181518110610b0657610b05613247565b5b602002602001018190525084604051602001610b22919061281f565b60405160208183030381529060405281600081518110610b4557610b44613247565b5b602002602001018190525083604051602001610b61919061281f565b60405160208183030381529060405281600181518110610b8457610b83613247565b5b6020026020010181905250610bbb898b7f74726169745f7479706500000000000000000000000000000000000000000000866115a5565b610be7898b7f74726169745f646973706c617900000000000000000000000000000000000000856115a5565b610c13898b7f74726169745f76616c7565000000000000000000000000000000000000000000846115a5565b6001600960008b815260200190815260200160002060008c73ffffffffffffffffffffffffffffffffffffffff1673ffffffffffffffffffffffffffffffffffffffff16815260200190815260200160002060006101000a81548160ff02191690831515021790555089600760008b815260200190815260200160002060006101000a81548173ffffffffffffffffffffffffffffffffffffffff021916908373ffffffffffffffffffffffffffffffffffffffff160217905550610cea8a8a600160405180602001604052806000815250611769565b50505050505050505050565b606060405180602001604052806000815250905090565b6060610d17611919565b905090565b6000600160008473ffffffffffffffffffffffffffffffffffffffff1673ffffffffffffffffffffffffffffffffffffffff16815260200190815260200160002060008373ffffffffffffffffffffffffffffffffffffffff1673ffffffffffffffffffffffffffffffffffffffff16815260200190815260200160002060009054906101000a900460ff16905092915050565b610db8610fc4565b73ffffffffffffffffffffffffffffffffffffffff16610dd66106df565b73ffffffffffffffffffffffffffffffffffffffff1614610e2c576040517f08c379a0000000000000000000000000000000000000000000000000000000008152600401610e2390613339565b60405180910390fd5b610e398585858585611aaa565b5050505050565b610e48610fc4565b73ffffffffffffffffffffffffffffffffffffffff16610e666106df565b73ffffffffffffffffffffffffffffffffffffffff1614610ebc576040517f08c379a0000000000000000000000000000000000000000000000000000000008152600401610eb390613339565b60405180910390fd5b600073ffffffffffffffffffffffffffffffffffffffff168173ffffffffffffffffffffffffffffffffffffffff1603610f2b576040517f08c379a0000000000000000000000000000000000000000000000000000000008152600401610f2290613538565b60405180910390fd5b610f34816112ed565b50565b6000808273ffffffffffffffffffffffffffffffffffffffff163b119050919050565b60007f01ffc9a7000000000000000000000000000000000000000000000000000000007bffffffffffffffffffffffffffffffffffffffffffffffffffffffff1916827bffffffffffffffffffffffffffffffffffffffffffffffffffffffff1916149050919050565b600033905090565b8151835114611010576040517f08c379a0000000000000000000000000000000000000000000000000000000008152600401611007906135ca565b60405180910390fd5b600073ffffffffffffffffffffffffffffffffffffffff168473ffffffffffffffffffffffffffffffffffffffff160361107f576040517f08c379a00000000000000000000000000000000000000000000000000000000081526004016110769061365c565b60405180910390fd5b6000611089610fc4565b9050611099818787878787611d45565b60005b845181101561124a5760008582815181106110ba576110b9613247565b5b6020026020010151905060008583815181106110d9576110d8613247565b5b60200260200101519050600080600084815260200190815260200160002060008b73ffffffffffffffffffffffffffffffffffffffff1673ffffffffffffffffffffffffffffffffffffffff1681526020019081526020016000205490508181101561117a576040517f08c379a0000000000000000000000000000000000000000000000000000000008152600401611171906136ee565b60405180910390fd5b81810360008085815260200190815260200160002060008c73ffffffffffffffffffffffffffffffffffffffff1673ffffffffffffffffffffffffffffffffffffffff168152602001908152602001600020819055508160008085815260200190815260200160002060008b73ffffffffffffffffffffffffffffffffffffffff1673ffffffffffffffffffffffffffffffffffffffff168152602001908152602001600020600082825461122f919061370e565b9250508190555050505080611243906132a5565b905061109c565b508473ffffffffffffffffffffffffffffffffffffffff168673ffffffffffffffffffffffffffffffffffffffff168273ffffffffffffffffffffffffffffffffffffffff167f4a39dc06d4c0dbc64b70af90fd698a233a518aa5d07e595d983b8c0526c8f7fb87876040516112c1929190613764565b60405180910390a46112d7818787878787611d4d565b6112e5818787878787611d55565b505050505050565b6000600860009054906101000a900473ffffffffffffffffffffffffffffffffffffffff16905081600860006101000a81548173ffffffffffffffffffffffffffffffffffffffff021916908373ffffffffffffffffffffffffffffffffffffffff1602179055508173ffffffffffffffffffffffffffffffffffffffff168173ffffffffffffffffffffffffffffffffffffffff167f8be0079c531659141344cd1fd0a4f28419497f9722a3daafe3b4186f6b6457e060405160405180910390a35050565b8173ffffffffffffffffffffffffffffffffffffffff168373ffffffffffffffffffffffffffffffffffffffff1603611421576040517f08c379a00000000000000000000000000000000000000000000000000000000081526004016114189061380d565b60405180910390fd5b80600160008573ffffffffffffffffffffffffffffffffffffffff1673ffffffffffffffffffffffffffffffffffffffff16815260200190815260200160002060008473ffffffffffffffffffffffffffffffffffffffff1673ffffffffffffffffffffffffffffffffffffffff16815260200190815260200160002060006101000a81548160ff0219169083151502179055508173ffffffffffffffffffffffffffffffffffffffff168373ffffffffffffffffffffffffffffffffffffffff167f17307eab39ab6107e8899845ad3d59bd9653f200f220920489ca2b5937696c3183604051611512919061273e565b60405180910390a3505050565b6000600167ffffffffffffffff81111561153c5761153b612846565b5b60405190808252806020026020018201604052801561156f57816020015b606081526020019060019003908161155a5790505b509050818160008151811061158757611586613247565b5b602002602001018190525061159e858585846115a5565b5050505050565b60006006600086815260200190815260200160002060008573ffffffffffffffffffffffffffffffffffffffff1673ffffffffffffffffffffffffffffffffffffffff16815260200190815260200160002090506000816002016000858152602001908152602001600020540361167f5760018160000154611627919061370e565b6006600087815260200190815260200160002060008673ffffffffffffffffffffffffffffffffffffffff1673ffffffffffffffffffffffffffffffffffffffff168152602001908152602001600020600001819055505b816006600087815260200190815260200160002060008673ffffffffffffffffffffffffffffffffffffffff1673ffffffffffffffffffffffffffffffffffffffff168152602001908152602001600020600101600085815260200190815260200160002090805190602001906116f7929190612425565b5081516006600087815260200190815260200160002060008673ffffffffffffffffffffffffffffffffffffffff1673ffffffffffffffffffffffffffffffffffffffff1681526020019081526020016000206002016000858152602001908152602001600020819055505050505050565b600073ffffffffffffffffffffffffffffffffffffffff168473ffffffffffffffffffffffffffffffffffffffff16036117d8576040517f08c379a00000000000000000000000000000000000000000000000000000000081526004016117cf9061389f565b60405180910390fd5b60006117e2610fc4565b905060006117ef85611f2c565b905060006117fc85611f2c565b905061180d83600089858589611d45565b8460008088815260200190815260200160002060008973ffffffffffffffffffffffffffffffffffffffff1673ffffffffffffffffffffffffffffffffffffffff168152602001908152602001600020600082825461186c919061370e565b925050819055508673ffffffffffffffffffffffffffffffffffffffff16600073ffffffffffffffffffffffffffffffffffffffff168473ffffffffffffffffffffffffffffffffffffffff167fc3d58168c5ae7397731d063d5bbf3d657854427343f4c083240f7aacaa2d0f6289896040516118ea9291906138bf565b60405180910390a461190183600089858589611d4d565b61191083600089898989611fa6565b50505050505050565b606060006119467f6e616d650000000000000000000000000000000000000000000000000000000061217d565b905060006119737f6465736372697074696f6e00000000000000000000000000000000000000000061217d565b905060006119a07f696d61676500000000000000000000000000000000000000000000000000000061217d565b9050611a83838060200190518101906119b99190613958565b60008451116119d75760405180602001604052806000815250611a0b565b838060200190518101906119eb9190613958565b6040516020016119fb9190613a75565b6040516020818303038152906040525b6000845111611a295760405180602001604052806000815250611a5d565b83806020019051810190611a3d9190613958565b604051602001611a4d9190613aee565b6040516020818303038152906040525b604051602001611a6f93929190613bff565b6040516020818303038152906040526121d3565b604051602001611a939190613ca8565b604051602081830303815290604052935050505090565b600073ffffffffffffffffffffffffffffffffffffffff168473ffffffffffffffffffffffffffffffffffffffff1603611b19576040517f08c379a0000000000000000000000000000000000000000000000000000000008152600401611b109061365c565b60405180910390fd5b6000611b23610fc4565b90506000611b3085611f2c565b90506000611b3d85611f2c565b9050611b4d838989858589611d45565b600080600088815260200190815260200160002060008a73ffffffffffffffffffffffffffffffffffffffff1673ffffffffffffffffffffffffffffffffffffffff16815260200190815260200160002054905085811015611be4576040517f08c379a0000000000000000000000000000000000000000000000000000000008152600401611bdb906136ee565b60405180910390fd5b85810360008089815260200190815260200160002060008b73ffffffffffffffffffffffffffffffffffffffff1673ffffffffffffffffffffffffffffffffffffffff168152602001908152602001600020819055508560008089815260200190815260200160002060008a73ffffffffffffffffffffffffffffffffffffffff1673ffffffffffffffffffffffffffffffffffffffff1681526020019081526020016000206000828254611c99919061370e565b925050819055508773ffffffffffffffffffffffffffffffffffffffff168973ffffffffffffffffffffffffffffffffffffffff168573ffffffffffffffffffffffffffffffffffffffff167fc3d58168c5ae7397731d063d5bbf3d657854427343f4c083240f7aacaa2d0f628a8a604051611d169291906138bf565b60405180910390a4611d2c848a8a86868a611d4d565b611d3a848a8a8a8a8a611fa6565b505050505050505050565b505050505050565b505050505050565b611d748473ffffffffffffffffffffffffffffffffffffffff16610f37565b15611f24578373ffffffffffffffffffffffffffffffffffffffff1663bc197c8187878686866040518663ffffffff1660e01b8152600401611dba959493929190613d1f565b6020604051808303816000875af1925050508015611df657506040513d601f19601f82011682018060405250810190611df39190613d9c565b60015b611e9b57611e02613dd6565b806308c379a003611e5e5750611e16613df8565b80611e215750611e60565b806040517f08c379a0000000000000000000000000000000000000000000000000000000008152600401611e55919061281f565b60405180910390fd5b505b6040517f08c379a0000000000000000000000000000000000000000000000000000000008152600401611e9290613efa565b60405180910390fd5b63bc197c8160e01b7bffffffffffffffffffffffffffffffffffffffffffffffffffffffff1916817bffffffffffffffffffffffffffffffffffffffffffffffffffffffff191614611f22576040517f08c379a0000000000000000000000000000000000000000000000000000000008152600401611f1990613f8c565b60405180910390fd5b505b505050505050565b60606000600167ffffffffffffffff811115611f4b57611f4a612846565b5b604051908082528060200260200182016040528015611f795781602001602082028036833780820191505090505b5090508281600081518110611f9157611f90613247565b5b60200260200101818152505080915050919050565b611fc58473ffffffffffffffffffffffffffffffffffffffff16610f37565b15612175578373ffffffffffffffffffffffffffffffffffffffff1663f23a6e6187878686866040518663ffffffff1660e01b815260040161200b959493929190613fac565b6020604051808303816000875af192505050801561204757506040513d601f19601f820116820180604052508101906120449190613d9c565b60015b6120ec57612053613dd6565b806308c379a0036120af5750612067613df8565b8061207257506120b1565b806040517f08c379a00000000000000000000000000000000000000000000000000000000081526004016120a6919061281f565b60405180910390fd5b505b6040517f08c379a00000000000000000000000000000000000000000000000000000000081526004016120e390613efa565b60405180910390fd5b63f23a6e6160e01b7bffffffffffffffffffffffffffffffffffffffffffffffffffffffff1916817bffffffffffffffffffffffffffffffffffffffffffffffffffffffff191614612173576040517f08c379a000000000000000000000000000000000000000000000000000000000815260040161216a90613f8c565b60405180910390fd5b505b505050505050565b6060600061218a83612336565b90506000815111156121ba57806000815181106121aa576121a9613247565b5b60200260200101519150506121ce565b604051806020016040528060008152509150505b919050565b606060008251036121f557604051806020016040528060008152509050612331565b60006040518060600160405280604081526020016141216040913990506000600360028551612224919061370e565b61222e9190614035565b600461223a9190614066565b67ffffffffffffffff81111561225357612252612846565b5b6040519080825280601f01601f1916602001820160405280156122855781602001600182028036833780820191505090505b509050600182016020820185865187015b808210156122f1576003820191508151603f8160121c168501518453600184019350603f81600c1c168501518453600184019350603f8160061c168501518453600184019350603f8116850151845360018401935050612296565b505060038651066001811461230d576002811461232057612328565b603d6001830353603d6002830353612328565b603d60018303535b50505080925050505b919050565b606060036001016000838152602001908152602001600020805480602002602001604051908101604052809291908181526020016000905b8282101561241a57838290600052602060002001805461238d906140ef565b80601f01602080910402602001604051908101604052809291908181526020018280546123b9906140ef565b80156124065780601f106123db57610100808354040283529160200191612406565b820191906000526020600020905b8154815290600101906020018083116123e957829003601f168201915b50505050508152602001906001019061236e565b505050509050919050565b828054828255906000526020600020908101928215612474579160200282015b82811115612473578251829080519060200190612463929190612485565b5091602001919060010190612445565b5b509050612481919061250b565b5090565b828054612491906140ef565b90600052602060002090601f0160209004810192826124b357600085556124fa565b82601f106124cc57805160ff19168380011785556124fa565b828001600101855582156124fa579182015b828111156124f95782518255916020019190600101906124de565b5b509050612507919061252f565b5090565b5b8082111561252b5760008181612522919061254c565b5060010161250c565b5090565b5b80821115612548576000816000905550600101612530565b5090565b508054612558906140ef565b6000825580601f1061256a5750612589565b601f016020900490600052602060002090810190612588919061252f565b5b50565b6000604051905090565b600080fd5b600080fd5b600073ffffffffffffffffffffffffffffffffffffffff82169050919050565b60006125cb826125a0565b9050919050565b6125db816125c0565b81146125e657600080fd5b50565b6000813590506125f8816125d2565b92915050565b6000819050919050565b612611816125fe565b811461261c57600080fd5b50565b60008135905061262e81612608565b92915050565b6000806040838503121561264b5761264a612596565b5b6000612659858286016125e9565b925050602061266a8582860161261f565b9150509250929050565b61267d816125fe565b82525050565b60006020820190506126986000830184612674565b92915050565b60007fffffffff0000000000000000000000000000000000000000000000000000000082169050919050565b6126d38161269e565b81146126de57600080fd5b50565b6000813590506126f0816126ca565b92915050565b60006020828403121561270c5761270b612596565b5b600061271a848285016126e1565b91505092915050565b60008115159050919050565b61273881612723565b82525050565b6000602082019050612753600083018461272f565b92915050565b60006020828403121561276f5761276e612596565b5b600061277d8482850161261f565b91505092915050565b600081519050919050565b600082825260208201905092915050565b60005b838110156127c05780820151818401526020810190506127a5565b838111156127cf576000848401525b50505050565b6000601f19601f8301169050919050565b60006127f182612786565b6127fb8185612791565b935061280b8185602086016127a2565b612814816127d5565b840191505092915050565b6000602082019050818103600083015261283981846127e6565b905092915050565b600080fd5b7f4e487b7100000000000000000000000000000000000000000000000000000000600052604160045260246000fd5b61287e826127d5565b810181811067ffffffffffffffff8211171561289d5761289c612846565b5b80604052505050565b60006128b061258c565b90506128bc8282612875565b919050565b600067ffffffffffffffff8211156128dc576128db612846565b5b602082029050602081019050919050565b600080fd5b6000612905612900846128c1565b6128a6565b90508083825260208201905060208402830185811115612928576129276128ed565b5b835b81811015612951578061293d888261261f565b84526020840193505060208101905061292a565b5050509392505050565b600082601f8301126129705761296f612841565b5b81356129808482602086016128f2565b91505092915050565b600080fd5b600067ffffffffffffffff8211156129a9576129a8612846565b5b6129b2826127d5565b9050602081019050919050565b82818337600083830152505050565b60006129e16129dc8461298e565b6128a6565b9050828152602081018484840111156129fd576129fc612989565b5b612a088482856129bf565b509392505050565b600082601f830112612a2557612a24612841565b5b8135612a358482602086016129ce565b91505092915050565b600080600080600060a08688031215612a5a57612a59612596565b5b6000612a68888289016125e9565b9550506020612a79888289016125e9565b945050604086013567ffffffffffffffff811115612a9a57612a9961259b565b5b612aa68882890161295b565b935050606086013567ffffffffffffffff811115612ac757612ac661259b565b5b612ad38882890161295b565b925050608086013567ffffffffffffffff811115612af457612af361259b565b5b612b0088828901612a10565b9150509295509295909350565b600067ffffffffffffffff821115612b2857612b27612846565b5b602082029050602081019050919050565b6000612b4c612b4784612b0d565b6128a6565b90508083825260208201905060208402830185811115612b6f57612b6e6128ed565b5b835b81811015612b985780612b8488826125e9565b845260208401935050602081019050612b71565b5050509392505050565b600082601f830112612bb757612bb6612841565b5b8135612bc7848260208601612b39565b91505092915050565b60008060408385031215612be757612be6612596565b5b600083013567ffffffffffffffff811115612c0557612c0461259b565b5b612c1185828601612ba2565b925050602083013567ffffffffffffffff811115612c3257612c3161259b565b5b612c3e8582860161295b565b9150509250929050565b600081519050919050565b600082825260208201905092915050565b6000819050602082019050919050565b612c7d816125fe565b82525050565b6000612c8f8383612c74565b60208301905092915050565b6000602082019050919050565b6000612cb382612c48565b612cbd8185612c53565b9350612cc883612c64565b8060005b83811015612cf9578151612ce08882612c83565b9750612ceb83612c9b565b925050600181019050612ccc565b5085935050505092915050565b60006020820190508181036000830152612d208184612ca8565b905092915050565b612d31816125c0565b82525050565b6000602082019050612d4c6000830184612d28565b92915050565b612d5b81612723565b8114612d6657600080fd5b50565b600081359050612d7881612d52565b92915050565b60008060408385031215612d9557612d94612596565b5b6000612da3858286016125e9565b9250506020612db485828601612d69565b9150509250929050565b600067ffffffffffffffff821115612dd957612dd8612846565b5b612de2826127d5565b9050602081019050919050565b6000612e02612dfd84612dbe565b6128a6565b905082815260208101848484011115612e1e57612e1d612989565b5b612e298482856129bf565b509392505050565b600082601f830112612e4657612e45612841565b5b8135612e56848260208601612def565b91505092915050565b600080600080600080600060e0888a031215612e7e57612e7d612596565b5b6000612e8c8a828b016125e9565b9750506020612e9d8a828b0161261f565b965050604088013567ffffffffffffffff811115612ebe57612ebd61259b565b5b612eca8a828b01612e31565b955050606088013567ffffffffffffffff811115612eeb57612eea61259b565b5b612ef78a828b01612e31565b945050608088013567ffffffffffffffff811115612f1857612f1761259b565b5b612f248a828b01612e31565b93505060a088013567ffffffffffffffff811115612f4557612f4461259b565b5b612f518a828b01612e31565b92505060c088013567ffffffffffffffff811115612f7257612f7161259b565b5b612f7e8a828b01612e31565b91505092959891949750929550565b60008060408385031215612fa457612fa3612596565b5b6000612fb2858286016125e9565b9250506020612fc3858286016125e9565b9150509250929050565b600080600080600060a08688031215612fe957612fe8612596565b5b6000612ff7888289016125e9565b9550506020613008888289016125e9565b94505060406130198882890161261f565b935050606061302a8882890161261f565b925050608086013567ffffffffffffffff81111561304b5761304a61259b565b5b61305788828901612a10565b9150509295509295909350565b60006020828403121561307a57613079612596565b5b6000613088848285016125e9565b91505092915050565b7f455243313135353a2062616c616e636520717565727920666f7220746865207a60008201527f65726f2061646472657373000000000000000000000000000000000000000000602082015250565b60006130ed602b83612791565b91506130f882613091565b604082019050919050565b6000602082019050818103600083015261311c816130e0565b9050919050565b7f455243313135353a207472616e736665722063616c6c6572206973206e6f742060008201527f6f776e6572206e6f7220617070726f7665640000000000000000000000000000602082015250565b600061317f603283612791565b915061318a82613123565b604082019050919050565b600060208201905081810360008301526131ae81613172565b9050919050565b7f455243313135353a206163636f756e747320616e6420696473206c656e67746860008201527f206d69736d617463680000000000000000000000000000000000000000000000602082015250565b6000613211602983612791565b915061321c826131b5565b604082019050919050565b6000602082019050818103600083015261324081613204565b9050919050565b7f4e487b7100000000000000000000000000000000000000000000000000000000600052603260045260246000fd5b7f4e487b7100000000000000000000000000000000000000000000000000000000600052601160045260246000fd5b60006132b0826125fe565b91507fffffffffffffffffffffffffffffffffffffffffffffffffffffffffffffffff82036132e2576132e1613276565b5b600182019050919050565b7f4f776e61626c653a2063616c6c6572206973206e6f7420746865206f776e6572600082015250565b6000613323602083612791565b915061332e826132ed565b602082019050919050565b6000602082019050818103600083015261335281613316565b9050919050565b600060408201905061336e6000830185612674565b61337b6020830184612d28565b9392505050565b7f44696767696e6720466565000000000000000000000000000000000000000000600082015250565b60006133b8600b83612791565b91506133c382613382565b602082019050919050565b600060208201905081810360008301526133e7816133ab565b9050919050565b7f426f756e74790000000000000000000000000000000000000000000000000000600082015250565b6000613424600683612791565b915061342f826133ee565b602082019050919050565b6000602082019050818103600083015261345381613417565b9050919050565b7f737472696e670000000000000000000000000000000000000000000000000000600082015250565b6000613490600683612791565b915061349b8261345a565b602082019050919050565b600060208201905081810360008301526134bf81613483565b9050919050565b7f4f776e61626c653a206e6577206f776e657220697320746865207a65726f206160008201527f6464726573730000000000000000000000000000000000000000000000000000602082015250565b6000613522602683612791565b915061352d826134c6565b604082019050919050565b6000602082019050818103600083015261355181613515565b9050919050565b7f455243313135353a2069647320616e6420616d6f756e7473206c656e6774682060008201527f6d69736d61746368000000000000000000000000000000000000000000000000602082015250565b60006135b4602883612791565b91506135bf82613558565b604082019050919050565b600060208201905081810360008301526135e3816135a7565b9050919050565b7f455243313135353a207472616e7366657220746f20746865207a65726f20616460008201527f6472657373000000000000000000000000000000000000000000000000000000602082015250565b6000613646602583612791565b9150613651826135ea565b604082019050919050565b6000602082019050818103600083015261367581613639565b9050919050565b7f455243313135353a20696e73756666696369656e742062616c616e636520666f60008201527f72207472616e7366657200000000000000000000000000000000000000000000602082015250565b60006136d8602a83612791565b91506136e38261367c565b604082019050919050565b60006020820190508181036000830152613707816136cb565b9050919050565b6000613719826125fe565b9150613724836125fe565b9250827fffffffffffffffffffffffffffffffffffffffffffffffffffffffffffffffff0382111561375957613758613276565b5b828201905092915050565b6000604082019050818103600083015261377e8185612ca8565b905081810360208301526137928184612ca8565b90509392505050565b7f455243313135353a2073657474696e6720617070726f76616c2073746174757360008201527f20666f722073656c660000000000000000000000000000000000000000000000602082015250565b60006137f7602983612791565b91506138028261379b565b604082019050919050565b60006020820190508181036000830152613826816137ea565b9050919050565b7f455243313135353a206d696e7420746f20746865207a65726f2061646472657360008201527f7300000000000000000000000000000000000000000000000000000000000000602082015250565b6000613889602183612791565b91506138948261382d565b604082019050919050565b600060208201905081810360008301526138b88161387c565b9050919050565b60006040820190506138d46000830185612674565b6138e16020830184612674565b9392505050565b60006138fb6138f684612dbe565b6128a6565b90508281526020810184848401111561391757613916612989565b5b6139228482856127a2565b509392505050565b600082601f83011261393f5761393e612841565b5b815161394f8482602086016138e8565b91505092915050565b60006020828403121561396e5761396d612596565b5b600082015167ffffffffffffffff81111561398c5761398b61259b565b5b6139988482850161392a565b91505092915050565b600081905092915050565b7f2c20276465736372697074696f6e273a20270000000000000000000000000000600082015250565b60006139e26012836139a1565b91506139ed826139ac565b601282019050919050565b6000613a0382612786565b613a0d81856139a1565b9350613a1d8185602086016127a2565b80840191505092915050565b7f2700000000000000000000000000000000000000000000000000000000000000600082015250565b6000613a5f6001836139a1565b9150613a6a82613a29565b600182019050919050565b6000613a80826139d5565b9150613a8c82846139f8565b9150613a9782613a52565b915081905092915050565b7f2c2027696d616765273a20270000000000000000000000000000000000000000600082015250565b6000613ad8600c836139a1565b9150613ae382613aa2565b600c82019050919050565b6000613af982613acb565b9150613b0582846139f8565b9150613b1082613a52565b915081905092915050565b7f7b00000000000000000000000000000000000000000000000000000000000000600082015250565b6000613b516001836139a1565b9150613b5c82613b1b565b600182019050919050565b7f276e616d65273a20270000000000000000000000000000000000000000000000600082015250565b6000613b9d6009836139a1565b9150613ba882613b67565b600982019050919050565b7f7d00000000000000000000000000000000000000000000000000000000000000600082015250565b6000613be96001836139a1565b9150613bf482613bb3565b600182019050919050565b6000613c0a82613b44565b9150613c1582613b90565b9150613c2182866139f8565b9150613c2c82613a52565b9150613c3882856139f8565b9150613c4482846139f8565b9150613c4f82613bdc565b9150819050949350505050565b7f646174613a6170706c69636174696f6e2f6a736f6e3b6261736536342c000000600082015250565b6000613c92601d836139a1565b9150613c9d82613c5c565b601d82019050919050565b6000613cb382613c85565b9150613cbf82846139f8565b915081905092915050565b600081519050919050565b600082825260208201905092915050565b6000613cf182613cca565b613cfb8185613cd5565b9350613d0b8185602086016127a2565b613d14816127d5565b840191505092915050565b600060a082019050613d346000830188612d28565b613d416020830187612d28565b8181036040830152613d538186612ca8565b90508181036060830152613d678185612ca8565b90508181036080830152613d7b8184613ce6565b90509695505050505050565b600081519050613d96816126ca565b92915050565b600060208284031215613db257613db1612596565b5b6000613dc084828501613d87565b91505092915050565b60008160e01c9050919050565b600060033d1115613df55760046000803e613df2600051613dc9565b90505b90565b600060443d10613e8557613e0a61258c565b60043d036004823e80513d602482011167ffffffffffffffff82111715613e32575050613e85565b808201805167ffffffffffffffff811115613e505750505050613e85565b80602083010160043d038501811115613e6d575050505050613e85565b613e7c82602001850186612875565b82955050505050505b90565b7f455243313135353a207472616e7366657220746f206e6f6e204552433131353560008201527f526563656976657220696d706c656d656e746572000000000000000000000000602082015250565b6000613ee4603483612791565b9150613eef82613e88565b604082019050919050565b60006020820190508181036000830152613f1381613ed7565b9050919050565b7f455243313135353a204552433131353552656365697665722072656a6563746560008201527f6420746f6b656e73000000000000000000000000000000000000000000000000602082015250565b6000613f76602883612791565b9150613f8182613f1a565b604082019050919050565b60006020820190508181036000830152613fa581613f69565b9050919050565b600060a082019050613fc16000830188612d28565b613fce6020830187612d28565b613fdb6040830186612674565b613fe86060830185612674565b8181036080830152613ffa8184613ce6565b90509695505050505050565b7f4e487b7100000000000000000000000000000000000000000000000000000000600052601260045260246000fd5b6000614040826125fe565b915061404b836125fe565b92508261405b5761405a614006565b5b828204905092915050565b6000614071826125fe565b915061407c836125fe565b9250817fffffffffffffffffffffffffffffffffffffffffffffffffffffffffffffffff04831182151516156140b5576140b4613276565b5b828202905092915050565b7f4e487b7100000000000000000000000000000000000000000000000000000000600052602260045260246000fd5b6000600282049050600182168061410757607f821691505b60208210810361411a576141196140c0565b5b5091905056fe4142434445464748494a4b4c4d4e4f505152535455565758595a6162636465666768696a6b6c6d6e6f707172737475767778797a303132333435363738392b2f646174613a6170706c69636174696f6e2f6a736f6e3b6261736536342c65794a755957316c496a6f695647567a6443425459584a6a6279424f526c51674d694973496d526c63324e796158423061573975496a6f695647687063794270637942684948526c633351676332467959323867626d5a3049434d7949697769615731685a3255694f694a6f64485277637a6f764c326b7563476c6a633356744c6e426f62335276637939705a4338784d4338794e5441774c7a45324e6a6375616e426e5032687459574d39536a41305631644458325669593268344d316433656d4a4e4c566f30583074445830786c54454a58636a564d576b316851577458613059324f434973496d463064484a70596e56305a584d694f6c7437496d52706333427359586c6664486c775a534936496e4e30636d6c755a794973496e527959576c3058335235634755694f694a456157646e6157356e49455a6c5a534973496e5a686248566c496a6f694d54416966537837496d52706333427359586c6664486c775a534936496e4e30636d6c755a794973496e527959576c3058335235634755694f694a436233567564486b694c434a32595778315a534936496a45774d434a395858303da2646970667358221220875c4517831edf00a9f1a9e397726368034e385812afdf6bcde4a2748bfb35ed64736f6c634300080d003346697273742074657374206f6620455243313135354f6e436861696e4d65746164617461",
  "devdoc": {
    "kind": "dev",
    "methods": {
      "balanceOf(address,uint256)": {
        "details": "See {IERC1155-balanceOf}. Requirements: - `account` cannot be the zero address."
      },
      "balanceOfBatch(address[],uint256[])": {
        "details": "See {IERC1155-balanceOfBatch}. Requirements: - `accounts` and `ids` must have the same length."
      },
      "isApprovedForAll(address,address)": {
        "details": "See {IERC1155-isApprovedForAll}."
      },
      "mint(address,uint256,string,string,string,string,string)": {
        "params": {
          "_description": "the token description.",
          "_imageURI": "the token image URI.",
          "_name": "the token name.",
          "_sarcoId": "the token identifier.",
          "_to": "the address to mint the token to."
        }
      },
      "owner()": {
        "details": "Returns the address of the current owner."
      },
      "renounceOwnership()": {
        "details": "Leaves the contract without owner. It will not be possible to call `onlyOwner` functions anymore. Can only be called by the current owner. NOTE: Renouncing ownership will leave the contract without an owner, thereby removing any functionality that is only available to the owner."
      },
      "safeBatchTransferFrom(address,address,uint256[],uint256[],bytes)": {
        "details": "See {IERC1155-safeBatchTransferFrom}."
      },
      "safeTransferFrom(address,address,uint256,uint256,bytes)": {
        "details": "See {IERC1155-safeTransferFrom}."
      },
      "setApprovalForAll(address,bool)": {
        "details": "See {IERC1155-setApprovalForAll}."
      },
      "supportsInterface(bytes4)": {
        "details": "See {IERC165-supportsInterface}."
      },
      "transferOwnership(address)": {
        "details": "Transfers ownership of the contract to a new account (`newOwner`). Can only be called by the current owner."
      }
    },
    "version": 1
  },
  "userdoc": {
    "kind": "user",
    "methods": {
      "mint(address,uint256,string,string,string,string,string)": {
        "notice": "Mints a single curse nft with metadata."
      }
    },
    "version": 1
  },
  "storageLayout": {
    "storage": [
      {
        "astId": 131,
        "contract": "contracts/tokens/CursesMock.sol:CursesMock",
        "label": "_balances",
        "offset": 0,
        "slot": "0",
        "type": "t_mapping(t_uint256,t_mapping(t_address,t_uint256))"
      },
      {
        "astId": 137,
        "contract": "contracts/tokens/CursesMock.sol:CursesMock",
        "label": "_operatorApprovals",
        "offset": 0,
        "slot": "1",
        "type": "t_mapping(t_address,t_mapping(t_address,t_bool))"
      },
      {
        "astId": 139,
        "contract": "contracts/tokens/CursesMock.sol:CursesMock",
        "label": "_uri",
        "offset": 0,
        "slot": "2",
        "type": "t_string_storage"
      },
      {
        "astId": 2260,
        "contract": "contracts/tokens/CursesMock.sol:CursesMock",
        "label": "contractMetadata",
        "offset": 0,
        "slot": "3",
        "type": "t_struct(Metadata)2257_storage"
      },
      {
        "astId": 2267,
        "contract": "contracts/tokens/CursesMock.sol:CursesMock",
        "label": "tokenMetadata",
        "offset": 0,
        "slot": "6",
        "type": "t_mapping(t_uint256,t_mapping(t_address,t_struct(Metadata)2257_storage))"
      },
      {
        "astId": 2211,
        "contract": "contracts/tokens/CursesMock.sol:CursesMock",
        "label": "owners",
        "offset": 0,
        "slot": "7",
        "type": "t_mapping(t_uint256,t_address)"
      },
      {
        "astId": 7,
        "contract": "contracts/tokens/CursesMock.sol:CursesMock",
        "label": "_owner",
        "offset": 0,
        "slot": "8",
        "type": "t_address"
      },
      {
        "astId": 1927,
        "contract": "contracts/tokens/CursesMock.sol:CursesMock",
        "label": "ids",
        "offset": 0,
        "slot": "9",
        "type": "t_mapping(t_uint256,t_mapping(t_address,t_bool))"
      }
    ],
    "types": {
      "t_address": {
        "encoding": "inplace",
        "label": "address",
        "numberOfBytes": "20"
      },
      "t_array(t_bytes_storage)dyn_storage": {
        "base": "t_bytes_storage",
        "encoding": "dynamic_array",
        "label": "bytes[]",
        "numberOfBytes": "32"
      },
      "t_bool": {
        "encoding": "inplace",
        "label": "bool",
        "numberOfBytes": "1"
      },
      "t_bytes32": {
        "encoding": "inplace",
        "label": "bytes32",
        "numberOfBytes": "32"
      },
      "t_bytes_storage": {
        "encoding": "bytes",
        "label": "bytes",
        "numberOfBytes": "32"
      },
      "t_mapping(t_address,t_bool)": {
        "encoding": "mapping",
        "key": "t_address",
        "label": "mapping(address => bool)",
        "numberOfBytes": "32",
        "value": "t_bool"
      },
      "t_mapping(t_address,t_mapping(t_address,t_bool))": {
        "encoding": "mapping",
        "key": "t_address",
        "label": "mapping(address => mapping(address => bool))",
        "numberOfBytes": "32",
        "value": "t_mapping(t_address,t_bool)"
      },
      "t_mapping(t_address,t_struct(Metadata)2257_storage)": {
        "encoding": "mapping",
        "key": "t_address",
        "label": "mapping(address => struct OnChainMetadata.Metadata)",
        "numberOfBytes": "32",
        "value": "t_struct(Metadata)2257_storage"
      },
      "t_mapping(t_address,t_uint256)": {
        "encoding": "mapping",
        "key": "t_address",
        "label": "mapping(address => uint256)",
        "numberOfBytes": "32",
        "value": "t_uint256"
      },
      "t_mapping(t_bytes32,t_array(t_bytes_storage)dyn_storage)": {
        "encoding": "mapping",
        "key": "t_bytes32",
        "label": "mapping(bytes32 => bytes[])",
        "numberOfBytes": "32",
        "value": "t_array(t_bytes_storage)dyn_storage"
      },
      "t_mapping(t_bytes32,t_uint256)": {
        "encoding": "mapping",
        "key": "t_bytes32",
        "label": "mapping(bytes32 => uint256)",
        "numberOfBytes": "32",
        "value": "t_uint256"
      },
      "t_mapping(t_uint256,t_address)": {
        "encoding": "mapping",
        "key": "t_uint256",
        "label": "mapping(uint256 => address)",
        "numberOfBytes": "32",
        "value": "t_address"
      },
      "t_mapping(t_uint256,t_mapping(t_address,t_bool))": {
        "encoding": "mapping",
        "key": "t_uint256",
        "label": "mapping(uint256 => mapping(address => bool))",
        "numberOfBytes": "32",
        "value": "t_mapping(t_address,t_bool)"
      },
      "t_mapping(t_uint256,t_mapping(t_address,t_struct(Metadata)2257_storage))": {
        "encoding": "mapping",
        "key": "t_uint256",
        "label": "mapping(uint256 => mapping(address => struct OnChainMetadata.Metadata))",
        "numberOfBytes": "32",
        "value": "t_mapping(t_address,t_struct(Metadata)2257_storage)"
      },
      "t_mapping(t_uint256,t_mapping(t_address,t_uint256))": {
        "encoding": "mapping",
        "key": "t_uint256",
        "label": "mapping(uint256 => mapping(address => uint256))",
        "numberOfBytes": "32",
        "value": "t_mapping(t_address,t_uint256)"
      },
      "t_string_storage": {
        "encoding": "bytes",
        "label": "string",
        "numberOfBytes": "32"
      },
      "t_struct(Metadata)2257_storage": {
        "encoding": "inplace",
        "label": "struct OnChainMetadata.Metadata",
        "members": [
          {
            "astId": 2247,
            "contract": "contracts/tokens/CursesMock.sol:CursesMock",
            "label": "keyCount",
            "offset": 0,
            "slot": "0",
            "type": "t_uint256"
          },
          {
            "astId": 2252,
            "contract": "contracts/tokens/CursesMock.sol:CursesMock",
            "label": "data",
            "offset": 0,
            "slot": "1",
            "type": "t_mapping(t_bytes32,t_array(t_bytes_storage)dyn_storage)"
          },
          {
            "astId": 2256,
            "contract": "contracts/tokens/CursesMock.sol:CursesMock",
            "label": "valueCount",
            "offset": 0,
            "slot": "2",
            "type": "t_mapping(t_bytes32,t_uint256)"
          }
        ],
        "numberOfBytes": "96"
      },
      "t_uint256": {
        "encoding": "inplace",
        "label": "uint256",
        "numberOfBytes": "32"
      }
    }
  }
}