{
  "address": "0xF510Ab7e4aB53FCAA00761eC13e76f131C023968",
  "abi": [
    {
      "inputs": [],
      "stateMutability": "nonpayable",
      "type": "constructor"
    },
    {
      "inputs": [
        {
          "internalType": "uint256",
          "name": "sarcoId",
          "type": "uint256"
        },
        {
          "internalType": "address",
          "name": "archaeologist",
          "type": "address"
        }
      ],
      "name": "CurseAlreadyExists",
      "type": "error"
    },
    {
      "anonymous": false,
      "inputs": [
        {
          "indexed": true,
          "internalType": "address",
          "name": "account",
          "type": "address"
        },
        {
          "indexed": true,
          "internalType": "address",
          "name": "operator",
          "type": "address"
        },
        {
          "indexed": false,
          "internalType": "bool",
          "name": "approved",
          "type": "bool"
        }
      ],
      "name": "ApprovalForAll",
      "type": "event"
    },
    {
      "anonymous": false,
      "inputs": [
        {
          "indexed": true,
          "internalType": "address",
          "name": "previousOwner",
          "type": "address"
        },
        {
          "indexed": true,
          "internalType": "address",
          "name": "newOwner",
          "type": "address"
        }
      ],
      "name": "OwnershipTransferred",
      "type": "event"
    },
    {
      "anonymous": false,
      "inputs": [
        {
          "indexed": true,
          "internalType": "address",
          "name": "operator",
          "type": "address"
        },
        {
          "indexed": true,
          "internalType": "address",
          "name": "from",
          "type": "address"
        },
        {
          "indexed": true,
          "internalType": "address",
          "name": "to",
          "type": "address"
        },
        {
          "indexed": false,
          "internalType": "uint256[]",
          "name": "ids",
          "type": "uint256[]"
        },
        {
          "indexed": false,
          "internalType": "uint256[]",
          "name": "values",
          "type": "uint256[]"
        }
      ],
      "name": "TransferBatch",
      "type": "event"
    },
    {
      "anonymous": false,
      "inputs": [
        {
          "indexed": true,
          "internalType": "address",
          "name": "operator",
          "type": "address"
        },
        {
          "indexed": true,
          "internalType": "address",
          "name": "from",
          "type": "address"
        },
        {
          "indexed": true,
          "internalType": "address",
          "name": "to",
          "type": "address"
        },
        {
          "indexed": false,
          "internalType": "uint256",
          "name": "id",
          "type": "uint256"
        },
        {
          "indexed": false,
          "internalType": "uint256",
          "name": "value",
          "type": "uint256"
        }
      ],
      "name": "TransferSingle",
      "type": "event"
    },
    {
      "anonymous": false,
      "inputs": [
        {
          "indexed": false,
          "internalType": "string",
          "name": "value",
          "type": "string"
        },
        {
          "indexed": true,
          "internalType": "uint256",
          "name": "id",
          "type": "uint256"
        }
      ],
      "name": "URI",
      "type": "event"
    },
    {
      "inputs": [
        {
          "internalType": "address",
          "name": "account",
          "type": "address"
        },
        {
          "internalType": "uint256",
          "name": "id",
          "type": "uint256"
        }
      ],
      "name": "balanceOf",
      "outputs": [
        {
          "internalType": "uint256",
          "name": "",
          "type": "uint256"
        }
      ],
      "stateMutability": "view",
      "type": "function"
    },
    {
      "inputs": [
        {
          "internalType": "address[]",
          "name": "accounts",
          "type": "address[]"
        },
        {
          "internalType": "uint256[]",
          "name": "ids",
          "type": "uint256[]"
        }
      ],
      "name": "balanceOfBatch",
      "outputs": [
        {
          "internalType": "uint256[]",
          "name": "",
          "type": "uint256[]"
        }
      ],
      "stateMutability": "view",
      "type": "function"
    },
    {
      "inputs": [],
      "name": "contractURI",
      "outputs": [
        {
          "internalType": "string",
          "name": "",
          "type": "string"
        }
      ],
      "stateMutability": "view",
      "type": "function"
    },
    {
      "inputs": [
        {
          "internalType": "uint256",
          "name": "_bounty",
          "type": "uint256"
        },
        {
          "internalType": "uint256",
          "name": "_diggingFee",
          "type": "uint256"
        }
      ],
      "name": "createSVG",
      "outputs": [
        {
          "internalType": "string",
          "name": "",
          "type": "string"
        }
      ],
      "stateMutability": "pure",
      "type": "function"
    },
    {
      "inputs": [
        {
          "internalType": "address",
          "name": "account",
          "type": "address"
        },
        {
          "internalType": "address",
          "name": "operator",
          "type": "address"
        }
      ],
      "name": "isApprovedForAll",
      "outputs": [
        {
          "internalType": "bool",
          "name": "",
          "type": "bool"
        }
      ],
      "stateMutability": "view",
      "type": "function"
    },
    {
      "inputs": [
        {
          "internalType": "address",
          "name": "_to",
          "type": "address"
        },
        {
          "internalType": "uint256",
          "name": "_tokenId",
          "type": "uint256"
        },
        {
          "internalType": "string",
          "name": "_name",
          "type": "string"
        },
        {
          "internalType": "string",
          "name": "_description",
          "type": "string"
        },
        {
          "internalType": "uint256",
          "name": "_diggingFee",
          "type": "uint256"
        },
        {
          "internalType": "uint256",
          "name": "_bounty",
          "type": "uint256"
        }
      ],
      "name": "mint",
      "outputs": [],
      "stateMutability": "nonpayable",
      "type": "function"
    },
    {
      "inputs": [],
      "name": "owner",
      "outputs": [
        {
          "internalType": "address",
          "name": "",
          "type": "address"
        }
      ],
      "stateMutability": "view",
      "type": "function"
    },
    {
      "inputs": [],
      "name": "renounceOwnership",
      "outputs": [],
      "stateMutability": "nonpayable",
      "type": "function"
    },
    {
      "inputs": [
        {
          "internalType": "address",
          "name": "_from",
          "type": "address"
        },
        {
          "internalType": "address",
          "name": "_to",
          "type": "address"
        },
        {
          "internalType": "uint256[]",
          "name": "_ids",
          "type": "uint256[]"
        },
        {
          "internalType": "uint256[]",
          "name": "_amounts",
          "type": "uint256[]"
        },
        {
          "internalType": "bytes",
          "name": "_data",
          "type": "bytes"
        }
      ],
      "name": "safeBatchTransferFrom",
      "outputs": [],
      "stateMutability": "nonpayable",
      "type": "function"
    },
    {
      "inputs": [
        {
          "internalType": "address",
          "name": "_from",
          "type": "address"
        },
        {
          "internalType": "address",
          "name": "_to",
          "type": "address"
        },
        {
          "internalType": "uint256",
          "name": "_id",
          "type": "uint256"
        },
        {
          "internalType": "uint256",
          "name": "_amount",
          "type": "uint256"
        },
        {
          "internalType": "bytes",
          "name": "_data",
          "type": "bytes"
        }
      ],
      "name": "safeTransferFrom",
      "outputs": [],
      "stateMutability": "nonpayable",
      "type": "function"
    },
    {
      "inputs": [
        {
          "internalType": "address",
          "name": "operator",
          "type": "address"
        },
        {
          "internalType": "bool",
          "name": "approved",
          "type": "bool"
        }
      ],
      "name": "setApprovalForAll",
      "outputs": [],
      "stateMutability": "nonpayable",
      "type": "function"
    },
    {
      "inputs": [
        {
          "internalType": "bytes4",
          "name": "interfaceId",
          "type": "bytes4"
        }
      ],
      "name": "supportsInterface",
      "outputs": [
        {
          "internalType": "bool",
          "name": "",
          "type": "bool"
        }
      ],
      "stateMutability": "view",
      "type": "function"
    },
    {
      "inputs": [
        {
          "internalType": "address",
          "name": "newOwner",
          "type": "address"
        }
      ],
      "name": "transferOwnership",
      "outputs": [],
      "stateMutability": "nonpayable",
      "type": "function"
    },
    {
      "inputs": [
        {
          "internalType": "uint256",
          "name": "_tokenId",
          "type": "uint256"
        }
      ],
      "name": "uri",
      "outputs": [
        {
          "internalType": "string",
          "name": "",
          "type": "string"
        }
      ],
      "stateMutability": "view",
      "type": "function"
    }
  ],
  "transactionHash": "0xc6d53c90ce7c3575a0cede6815709e3520411e6658d7205271772de609c90ab3",
  "args": [],
  "numDeployments": 2,
  "solcInputHash": "071c9340c22ca74c1b3cd2596c1be0e8",
  "bytecode": "0x60806040523480156200001157600080fd5b506040518060200160405280600081525062000033816200016360201b60201c565b5062000054620000486200017f60201b60201c565b6200018760201b60201c565b620000a57f6e616d65000000000000000000000000000000000000000000000000000000006040516020016200008a906200148a565b6040516020818303038152906040526200024d60201b60201c565b620000f67f6465736372697074696f6e000000000000000000000000000000000000000000604051602001620000db9062001522565b6040516020818303038152906040526200024d60201b60201c565b6200015d3360006040518060400160405280600a81526020017f46697273742054657374000000000000000000000000000000000000000000008152506040518060600160405280602481526020016200743d6024913960016002620002df60201b60201c565b62002472565b80600290805190602001906200017b92919062001213565b5050565b600033905090565b6000600760009054906101000a900473ffffffffffffffffffffffffffffffffffffffff16905081600760006101000a81548173ffffffffffffffffffffffffffffffffffffffff021916908373ffffffffffffffffffffffffffffffffffffffff1602179055508173ffffffffffffffffffffffffffffffffffffffff168173ffffffffffffffffffffffffffffffffffffffff167f8be0079c531659141344cd1fd0a4f28419497f9722a3daafe3b4186f6b6457e060405160405180910390a35050565b6000600167ffffffffffffffff8111156200026d576200026c62001544565b5b604051908082528060200260200182016040528015620002a257816020015b60608152602001906001900390816200028c5790505b5090508181600081518110620002bd57620002bc62001573565b5b6020026020010181905250620002da83826200081060201b60201c565b505050565b600015156008600087815260200190815260200160002060009054906101000a900460ff161515146200034d5784866040517f352d6bca0000000000000000000000000000000000000000000000000000000081526004016200034492919062001602565b60405180910390fd5b620003a1857f6e616d650000000000000000000000000000000000000000000000000000000086604051602001620003869190620016c2565b6040516020818303038152906040526200089a60201b60201c565b620003f5857f6465736372697074696f6e00000000000000000000000000000000000000000085604051602001620003da9190620016c2565b6040516020818303038152906040526200089a60201b60201c565b6200045a857f696d6167650000000000000000000000000000000000000000000000000000006200042d84866200092e60201b60201c565b6040516020016200043f9190620016c2565b6040516020818303038152906040526200089a60201b60201c565b6000600267ffffffffffffffff8111156200047a576200047962001544565b5b604051908082528060200260200182016040528015620004af57816020015b6060815260200190600190039081620004995790505b5090506000600267ffffffffffffffff811115620004d257620004d162001544565b5b6040519080825280602002602001820160405280156200050757816020015b6060815260200190600190039081620004f15790505b5090506000600267ffffffffffffffff8111156200052a576200052962001544565b5b6040519080825280602002602001820160405280156200055f57816020015b6060815260200190600190039081620005495790505b509050604051602001620005739062001741565b6040516020818303038152906040528360008151811062000599576200059862001573565b5b6020026020010181905250604051602001620005b590620017a8565b60405160208183030381529060405283600181518110620005db57620005da62001573565b5b6020026020010181905250604051602001620005f7906200180f565b604051602081830303815290604052826000815181106200061d576200061c62001573565b5b602002602001018190525060405160200162000639906200180f565b604051602081830303815290604052826001815181106200065f576200065e62001573565b5b60200260200101819052506200068085620009bc60201b62000e3b1760201c565b6040516020016200069291906200185d565b60405160208183030381529060405281600081518110620006b857620006b762001573565b5b6020026020010181905250620006d984620009bc60201b62000e3b1760201c565b604051602001620006eb91906200185d565b6040516020818303038152906040528160018151811062000711576200071062001573565b5b60200260200101819052506200074f887f74726169745f74797065000000000000000000000000000000000000000000008562000b3560201b60201c565b62000782887f74726169745f646973706c6179000000000000000000000000000000000000008462000b3560201b60201c565b620007b5887f74726169745f76616c75650000000000000000000000000000000000000000008362000b3560201b60201c565b6001600860008a815260200190815260200160002060006101000a81548160ff02191690831515021790555062000805898960016040518060200160405280600081525062000c0960201b60201c565b505050505050505050565b60006003600201600084815260200190815260200160002054036200084d576001600360000154620008439190620018a5565b6003600001819055505b8060036001016000848152602001908152602001600020908051906020019062000879929190620012a4565b50805160036002016000848152602001908152602001600020819055505050565b6000600167ffffffffffffffff811115620008ba57620008b962001544565b5b604051908082528060200260200182016040528015620008ef57816020015b6060815260200190600190039081620008d95790505b50905081816000815181106200090a576200090962001573565b5b60200260200101819052506200092884848362000b3560201b60201c565b50505050565b6060620009936200094a84620009bc60201b62000e3b1760201c565b6200096084620009bc60201b62000e3b1760201c565b6040516020016200097392919062001d6a565b60405160208183030381529060405262000df060201b62000f9b1760201c565b604051602001620009a5919062001e09565b604051602081830303815290604052905092915050565b60606000820362000a05576040518060400160405280600181526020017f3000000000000000000000000000000000000000000000000000000000000000815250905062000b30565b600082905060005b6000821462000a3d57808062000a239062001e2f565b915050600a8262000a35919062001eab565b915062000a0d565b60008167ffffffffffffffff81111562000a5c5762000a5b62001544565b5b6040519080825280601f01601f19166020018201604052801562000a8f5781602001600182028036833780820191505090505b5090505b6000851462000b295760018262000aab919062001ee3565b9150600a8562000abc919062001f1e565b603062000aca9190620018a5565b60f81b81838151811062000ae35762000ae262001573565b5b60200101907effffffffffffffffffffffffffffffffffffffffffffffffffffffffffffff1916908160001a905350600a8562000b21919062001eab565b945062000a93565b8093505050505b919050565b60006006600085815260200190815260200160002090506000816002016000858152602001908152602001600020540362000b98576001816000015462000b7d9190620018a5565b60066000868152602001908152602001600020600001819055505b81600660008681526020019081526020016000206001016000858152602001908152602001600020908051906020019062000bd5929190620012a4565b5081516006600086815260200190815260200160002060020160008581526020019081526020016000208190555050505050565b600073ffffffffffffffffffffffffffffffffffffffff168473ffffffffffffffffffffffffffffffffffffffff160362000c7b576040517f08c379a000000000000000000000000000000000000000000000000000000000815260040162000c729062001fcc565b60405180910390fd5b600062000c8d6200017f60201b60201c565b9050600062000ca28562000f6660201b60201c565b9050600062000cb78562000f6660201b60201c565b905062000cd08360008985858962000fe760201b60201c565b8460008088815260200190815260200160002060008973ffffffffffffffffffffffffffffffffffffffff1673ffffffffffffffffffffffffffffffffffffffff168152602001908152602001600020600082825462000d319190620018a5565b925050819055508673ffffffffffffffffffffffffffffffffffffffff16600073ffffffffffffffffffffffffffffffffffffffff168473ffffffffffffffffffffffffffffffffffffffff167fc3d58168c5ae7397731d063d5bbf3d657854427343f4c083240f7aacaa2d0f62898960405162000db192919062001fee565b60405180910390a462000dd08360008985858962000fef60201b60201c565b62000de78360008989898962000ff760201b60201c565b50505050505050565b6060600082510362000e145760405180602001604052806000815250905062000f61565b6000604051806060016040528060408152602001620073fd604091399050600060036002855162000e469190620018a5565b62000e52919062001eab565b600462000e6091906200201b565b67ffffffffffffffff81111562000e7c5762000e7b62001544565b5b6040519080825280601f01601f19166020018201604052801562000eaf5781602001600182028036833780820191505090505b509050600182016020820185865187015b8082101562000f1d576003820191508151603f8160121c168501518453600184019350603f81600c1c168501518453600184019350603f8160061c168501518453600184019350603f811685015184536001840193505062000ec0565b505060038651066001811462000f3c576002811462000f505762000f58565b603d6001830353603d600283035362000f58565b603d60018303535b50505080925050505b919050565b60606000600167ffffffffffffffff81111562000f885762000f8762001544565b5b60405190808252806020026020018201604052801562000fb75781602001602082028036833780820191505090505b509050828160008151811062000fd25762000fd162001573565b5b60200260200101818152505080915050919050565b505050505050565b505050505050565b620010238473ffffffffffffffffffffffffffffffffffffffff16620011f060201b620010fe1760201c565b15620011e8578373ffffffffffffffffffffffffffffffffffffffff1663f23a6e6187878686866040518663ffffffff1660e01b81526004016200106c959493929190620020d9565b6020604051808303816000875af1925050508015620010ab57506040513d601f19601f82011682018060405250810190620010a89190620021a9565b60015b6200115c57620010ba620021e8565b806308c379a0036200111d5750620010d162002243565b80620010de57506200111f565b806040517f08c379a0000000000000000000000000000000000000000000000000000000008152600401620011149190620016c2565b60405180910390fd5b505b6040517f08c379a0000000000000000000000000000000000000000000000000000000008152600401620011539062002354565b60405180910390fd5b63f23a6e6160e01b7bffffffffffffffffffffffffffffffffffffffffffffffffffffffff1916817bffffffffffffffffffffffffffffffffffffffffffffffffffffffff191614620011e6576040517f08c379a0000000000000000000000000000000000000000000000000000000008152600401620011dd90620023ec565b60405180910390fd5b505b505050505050565b6000808273ffffffffffffffffffffffffffffffffffffffff163b119050919050565b82805462001221906200243d565b90600052602060002090601f01602090048101928262001245576000855562001291565b82601f106200126057805160ff191683800117855562001291565b8280016001018555821562001291579182015b828111156200129057825182559160200191906001019062001273565b5b509050620012a091906200130b565b5090565b828054828255906000526020600020908101928215620012f8579160200282015b82811115620012f7578251829080519060200190620012e69291906200132a565b5091602001919060010190620012c5565b5b509050620013079190620013bb565b5090565b5b80821115620013265760008160009055506001016200130c565b5090565b82805462001338906200243d565b90600052602060002090601f0160209004810192826200135c5760008555620013a8565b82601f106200137757805160ff1916838001178555620013a8565b82800160010185558215620013a8579182015b82811115620013a75782518255916020019190600101906200138a565b5b509050620013b791906200130b565b5090565b5b80821115620013df5760008181620013d59190620013e3565b50600101620013bc565b5090565b508054620013f1906200243d565b6000825580601f1062001405575062001426565b601f0160209004906000526020600020908101906200142591906200130b565b5b50565b600082825260208201905092915050565b7f455243313135354f6e436861696e4d65746164617461204578616d706c650000600082015250565b600062001472601e8362001429565b91506200147f826200143a565b602082019050919050565b60006020820190508181036000830152620014a58162001463565b9050919050565b7f53696d706c65206578616d706c65206f6620455243313135354f6e436861696e60008201527f4d657461646174612077697468206f6e20636861696e20737667000000000000602082015250565b60006200150a603a8362001429565b91506200151782620014ac565b604082019050919050565b600060208201905081810360008301526200153d81620014fb565b9050919050565b7f4e487b7100000000000000000000000000000000000000000000000000000000600052604160045260246000fd5b7f4e487b7100000000000000000000000000000000000000000000000000000000600052603260045260246000fd5b6000819050919050565b620015b781620015a2565b82525050565b600073ffffffffffffffffffffffffffffffffffffffff82169050919050565b6000620015ea82620015bd565b9050919050565b620015fc81620015dd565b82525050565b6000604082019050620016196000830185620015ac565b620016286020830184620015f1565b9392505050565b600081519050919050565b60005b838110156200165a5780820151818401526020810190506200163d565b838111156200166a576000848401525b50505050565b6000601f19601f8301169050919050565b60006200168e826200162f565b6200169a818562001429565b9350620016ac8185602086016200163a565b620016b78162001670565b840191505092915050565b60006020820190508181036000830152620016de818462001681565b905092915050565b600081905092915050565b7f44696767696e6720466565000000000000000000000000000000000000000000600082015250565b600062001729600b83620016e6565b91506200173682620016f1565b600b82019050919050565b60006200174e826200171a565b9150819050919050565b7f426f756e74790000000000000000000000000000000000000000000000000000600082015250565b600062001790600683620016e6565b91506200179d8262001758565b600682019050919050565b6000620017b58262001781565b9150819050919050565b7f737472696e670000000000000000000000000000000000000000000000000000600082015250565b6000620017f7600683620016e6565b91506200180482620017bf565b600682019050919050565b60006200181c82620017e8565b9150819050919050565b600062001833826200162f565b6200183f8185620016e6565b9350620018518185602086016200163a565b80840191505092915050565b60006200186b828462001826565b915081905092915050565b7f4e487b7100000000000000000000000000000000000000000000000000000000600052601160045260246000fd5b6000620018b282620015a2565b9150620018bf83620015a2565b9250827fffffffffffffffffffffffffffffffffffffffffffffffffffffffffffffffff03821115620018f757620018f662001876565b5b828201905092915050565b7f3c737667207374796c653d276261636b67726f756e642d636f6c6f723a23303060008201527f30272076696577426f783d2730203020333030203330302720786d6c6e733d2760208201527f687474703a2f2f7777772e77332e6f72672f323030302f737667273e3c74657860408201527f74207472616e73666f726d3d277472616e736c6174652832332e32343620313360608201527f372e303129272064783d2730272064793d2730272066696c6c3d27236666666660808201527f66662720666f6e742d73697a653d2731352720666f6e742d7765696768743d2760a08201527f343030273e536172636f7068616775733c2f746578743e3c746578742074726160c08201527f6e73666f726d3d277472616e736c6174652832332e323436203137362e35362960e08201527f272064783d2730272064793d2730272066696c6c3d27236136613661362720666101008201527f6f6e742d73697a653d27382720666f6e742d7765696768743d273430302720736101208201527f74726f6b652d77696474683d2730273e44696767696e67206665653a3c2f74656101408201527f78743e3c74657874207472616e73666f726d3d277472616e736c6174652832336101608201527f2e323436203136322e353629272064783d2730272064793d2730272066696c6c6101808201527f3d27236136613661362720666f6e742d73697a653d27382720666f6e742d77656101a08201527f696768743d2734303027207374726f6b652d77696474683d2730273e426f756e6101c08201527f74793a3c2f746578743e3c74657874207472616e73666f726d3d277472616e736101e08201527f6c6174652839312e323436203136322e353629272064783d2730272064793d276102008201527f30272066696c6c3d27236136613661362720666f6e742d73697a653d273827206102208201527f666f6e742d7765696768743d2734303027207374726f6b652d77696474683d276102408201527f30273e000000000000000000000000000000000000000000000000000000000061026082015250565b600062001c1961026383620016e6565b915062001c268262001902565b61026382019050919050565b7f20534152434f3c2f746578743e3c74657874207472616e73666f726d3d27747260008201527f616e736c6174652839312e323436203137362e353629272064783d273027206460208201527f793d2730272066696c6c3d27236136613661362720666f6e742d73697a653d2760408201527f382720666f6e742d7765696768743d2734303027207374726f6b652d7769647460608201527f683d2730273e0000000000000000000000000000000000000000000000000000608082015250565b600062001d02608683620016e6565b915062001d0f8262001c32565b608682019050919050565b7f20534152434f3c2f746578743e3c2f7376673e00000000000000000000000000600082015250565b600062001d52601383620016e6565b915062001d5f8262001d1a565b601382019050919050565b600062001d778262001c09565b915062001d85828562001826565b915062001d928262001cf3565b915062001da0828462001826565b915062001dad8262001d43565b91508190509392505050565b7f646174613a696d6167652f7376672b786d6c3b6261736536342c000000000000600082015250565b600062001df1601a83620016e6565b915062001dfe8262001db9565b601a82019050919050565b600062001e168262001de2565b915062001e24828462001826565b915081905092915050565b600062001e3c82620015a2565b91507fffffffffffffffffffffffffffffffffffffffffffffffffffffffffffffffff820362001e715762001e7062001876565b5b600182019050919050565b7f4e487b7100000000000000000000000000000000000000000000000000000000600052601260045260246000fd5b600062001eb882620015a2565b915062001ec583620015a2565b92508262001ed85762001ed762001e7c565b5b828204905092915050565b600062001ef082620015a2565b915062001efd83620015a2565b92508282101562001f135762001f1262001876565b5b828203905092915050565b600062001f2b82620015a2565b915062001f3883620015a2565b92508262001f4b5762001f4a62001e7c565b5b828206905092915050565b7f455243313135353a206d696e7420746f20746865207a65726f2061646472657360008201527f7300000000000000000000000000000000000000000000000000000000000000602082015250565b600062001fb460218362001429565b915062001fc18262001f56565b604082019050919050565b6000602082019050818103600083015262001fe78162001fa5565b9050919050565b6000604082019050620020056000830185620015ac565b620020146020830184620015ac565b9392505050565b60006200202882620015a2565b91506200203583620015a2565b9250817fffffffffffffffffffffffffffffffffffffffffffffffffffffffffffffffff048311821515161562002071576200207062001876565b5b828202905092915050565b600081519050919050565b600082825260208201905092915050565b6000620020a5826200207c565b620020b1818562002087565b9350620020c38185602086016200163a565b620020ce8162001670565b840191505092915050565b600060a082019050620020f06000830188620015f1565b620020ff6020830187620015f1565b6200210e6040830186620015ac565b6200211d6060830185620015ac565b818103608083015262002131818462002098565b90509695505050505050565b6000604051905090565b600080fd5b60007fffffffff0000000000000000000000000000000000000000000000000000000082169050919050565b62002183816200214c565b81146200218f57600080fd5b50565b600081519050620021a38162002178565b92915050565b600060208284031215620021c257620021c162002147565b5b6000620021d28482850162002192565b91505092915050565b60008160e01c9050919050565b600060033d11156200220a5760046000803e62002207600051620021db565b90505b90565b620022188262001670565b810181811067ffffffffffffffff821117156200223a576200223962001544565b5b80604052505050565b600060443d10620022db57620022586200213d565b60043d036004823e80513d602482011167ffffffffffffffff8211171562002282575050620022db565b808201805167ffffffffffffffff811115620022a25750505050620022db565b80602083010160043d038501811115620022c1575050505050620022db565b620022d2826020018501866200220d565b82955050505050505b90565b7f455243313135353a207472616e7366657220746f206e6f6e204552433131353560008201527f526563656976657220696d706c656d656e746572000000000000000000000000602082015250565b60006200233c60348362001429565b91506200234982620022de565b604082019050919050565b600060208201905081810360008301526200236f816200232d565b9050919050565b7f455243313135353a204552433131353552656365697665722072656a6563746560008201527f6420746f6b656e73000000000000000000000000000000000000000000000000602082015250565b6000620023d460288362001429565b9150620023e18262002376565b604082019050919050565b600060208201905081810360008301526200240781620023c5565b9050919050565b7f4e487b7100000000000000000000000000000000000000000000000000000000600052602260045260246000fd5b600060028204905060018216806200245657607f821691505b6020821081036200246c576200246b6200240e565b5b50919050565b614f7b80620024826000396000f3fe608060405234801561001057600080fd5b50600436106100e95760003560e01c80638da5cb5b1161008c578063e8a3d48511610066578063e8a3d4851461025a578063e985e9c514610278578063f242432a146102a8578063f2fde38b146102c4576100e9565b80638da5cb5b14610204578063a22cb46514610222578063b268245e1461023e576100e9565b80632eb2c2d6116100c85780632eb2c2d61461017e5780634a17de961461019a5780634e1273f4146101ca578063715018a6146101fa576100e9565b8062fdd58e146100ee57806301ffc9a71461011e5780630e89341c1461014e575b600080fd5b61010860048036038101906101039190612a77565b6102e0565b6040516101159190612ac6565b60405180910390f35b61013860048036038101906101339190612b39565b6103a8565b6040516101459190612b81565b60405180910390f35b61016860048036038101906101639190612b9c565b61048a565b6040516101759190612c62565b60405180910390f35b61019860048036038101906101939190612e81565b61049c565b005b6101b460048036038101906101af9190612f50565b61052c565b6040516101c19190612c62565b60405180910390f35b6101e460048036038101906101df9190613053565b61058f565b6040516101f19190613189565b60405180910390f35b6102026106a8565b005b61020c610730565b60405161021991906131ba565b60405180910390f35b61023c60048036038101906102379190613201565b61075a565b005b610258600480360381019061025391906132e2565b610770565b005b610262610c11565b60405161026f9190612c62565b60405180910390f35b610292600480360381019061028d91906133a7565b610c20565b60405161029f9190612b81565b60405180910390f35b6102c260048036038101906102bd91906133e7565b610cb4565b005b6102de60048036038101906102d9919061347e565b610d44565b005b60008073ffffffffffffffffffffffffffffffffffffffff168373ffffffffffffffffffffffffffffffffffffffff1603610350576040517f08c379a00000000000000000000000000000000000000000000000000000000081526004016103479061351d565b60405180910390fd5b60008083815260200190815260200160002060008473ffffffffffffffffffffffffffffffffffffffff1673ffffffffffffffffffffffffffffffffffffffff16815260200190815260200160002054905092915050565b60007fd9b67a26000000000000000000000000000000000000000000000000000000007bffffffffffffffffffffffffffffffffffffffffffffffffffffffff1916827bffffffffffffffffffffffffffffffffffffffffffffffffffffffff1916148061047357507f0e89341c000000000000000000000000000000000000000000000000000000007bffffffffffffffffffffffffffffffffffffffffffffffffffffffff1916827bffffffffffffffffffffffffffffffffffffffffffffffffffffffff1916145b80610483575061048282611121565b5b9050919050565b60606104958261118b565b9050919050565b6104a4611502565b73ffffffffffffffffffffffffffffffffffffffff166104c2610730565b73ffffffffffffffffffffffffffffffffffffffff1614610518576040517f08c379a000000000000000000000000000000000000000000000000000000000815260040161050f90613589565b60405180910390fd5b610525858585858561150a565b5050505050565b606061056861053a84610e3b565b61054384610e3b565b604051602001610554929190613a41565b604051602081830303815290604052610f9b565b6040516020016105789190613ad2565b604051602081830303815290604052905092915050565b606081518351146105d5576040517f08c379a00000000000000000000000000000000000000000000000000000000081526004016105cc90613b66565b60405180910390fd5b6000835167ffffffffffffffff8111156105f2576105f1612c89565b5b6040519080825280602002602001820160405280156106205781602001602082028036833780820191505090505b50905060005b845181101561069d5761066d85828151811061064557610644613b86565b5b60200260200101518583815181106106605761065f613b86565b5b60200260200101516102e0565b8282815181106106805761067f613b86565b5b6020026020010181815250508061069690613be4565b9050610626565b508091505092915050565b6106b0611502565b73ffffffffffffffffffffffffffffffffffffffff166106ce610730565b73ffffffffffffffffffffffffffffffffffffffff1614610724576040517f08c379a000000000000000000000000000000000000000000000000000000000815260040161071b90613589565b60405180910390fd5b61072e600061182b565b565b6000600760009054906101000a900473ffffffffffffffffffffffffffffffffffffffff16905090565b61076c610765611502565b83836118f1565b5050565b600015156008600087815260200190815260200160002060009054906101000a900460ff161515146107db5784866040517f352d6bca0000000000000000000000000000000000000000000000000000000081526004016107d2929190613c2c565b60405180910390fd5b610825857f6e616d6500000000000000000000000000000000000000000000000000000000866040516020016108119190612c62565b604051602081830303815290604052611a5d565b61086f857f6465736372697074696f6e0000000000000000000000000000000000000000008560405160200161085b9190612c62565b604051602081830303815290604052611a5d565b6108c2857f696d61676500000000000000000000000000000000000000000000000000000061089e848661052c565b6040516020016108ae9190612c62565b604051602081830303815290604052611a5d565b6000600267ffffffffffffffff8111156108df576108de612c89565b5b60405190808252806020026020018201604052801561091257816020015b60608152602001906001900390816108fd5790505b5090506000600267ffffffffffffffff81111561093257610931612c89565b5b60405190808252806020026020018201604052801561096557816020015b60608152602001906001900390816109505790505b5090506000600267ffffffffffffffff81111561098557610984612c89565b5b6040519080825280602002602001820160405280156109b857816020015b60608152602001906001900390816109a35790505b5090506040516020016109ca90613ca1565b604051602081830303815290604052836000815181106109ed576109ec613b86565b5b6020026020010181905250604051602001610a0790613d02565b60405160208183030381529060405283600181518110610a2a57610a29613b86565b5b6020026020010181905250604051602001610a4490613d63565b60405160208183030381529060405282600081518110610a6757610a66613b86565b5b6020026020010181905250604051602001610a8190613d63565b60405160208183030381529060405282600181518110610aa457610aa3613b86565b5b6020026020010181905250610ab885610e3b565b604051602001610ac89190613d78565b60405160208183030381529060405281600081518110610aeb57610aea613b86565b5b6020026020010181905250610aff84610e3b565b604051602001610b0f9190613d78565b60405160208183030381529060405281600181518110610b3257610b31613b86565b5b6020026020010181905250610b68887f74726169745f747970650000000000000000000000000000000000000000000085611ae1565b610b93887f74726169745f646973706c61790000000000000000000000000000000000000084611ae1565b610bbe887f74726169745f76616c756500000000000000000000000000000000000000000083611ae1565b6001600860008a815260200190815260200160002060006101000a81548160ff021916908315150217905550610c068989600160405180602001604052806000815250611bb0565b505050505050505050565b6060610c1b611d60565b905090565b6000600160008473ffffffffffffffffffffffffffffffffffffffff1673ffffffffffffffffffffffffffffffffffffffff16815260200190815260200160002060008373ffffffffffffffffffffffffffffffffffffffff1673ffffffffffffffffffffffffffffffffffffffff16815260200190815260200160002060009054906101000a900460ff16905092915050565b610cbc611502565b73ffffffffffffffffffffffffffffffffffffffff16610cda610730565b73ffffffffffffffffffffffffffffffffffffffff1614610d30576040517f08c379a0000000000000000000000000000000000000000000000000000000008152600401610d2790613589565b60405180910390fd5b610d3d8585858585611ef1565b5050505050565b610d4c611502565b73ffffffffffffffffffffffffffffffffffffffff16610d6a610730565b73ffffffffffffffffffffffffffffffffffffffff1614610dc0576040517f08c379a0000000000000000000000000000000000000000000000000000000008152600401610db790613589565b60405180910390fd5b600073ffffffffffffffffffffffffffffffffffffffff168173ffffffffffffffffffffffffffffffffffffffff1603610e2f576040517f08c379a0000000000000000000000000000000000000000000000000000000008152600401610e2690613e01565b60405180910390fd5b610e388161182b565b50565b606060008203610e82576040518060400160405280600181526020017f30000000000000000000000000000000000000000000000000000000000000008152509050610f96565b600082905060005b60008214610eb4578080610e9d90613be4565b915050600a82610ead9190613e50565b9150610e8a565b60008167ffffffffffffffff811115610ed057610ecf612c89565b5b6040519080825280601f01601f191660200182016040528015610f025781602001600182028036833780820191505090505b5090505b60008514610f8f57600182610f1b9190613e81565b9150600a85610f2a9190613eb5565b6030610f369190613ee6565b60f81b818381518110610f4c57610f4b613b86565b5b60200101907effffffffffffffffffffffffffffffffffffffffffffffffffffffffffffff1916908160001a905350600a85610f889190613e50565b9450610f06565b8093505050505b919050565b60606000825103610fbd576040518060200160405280600081525090506110f9565b6000604051806060016040528060408152602001614f066040913990506000600360028551610fec9190613ee6565b610ff69190613e50565b60046110029190613f3c565b67ffffffffffffffff81111561101b5761101a612c89565b5b6040519080825280601f01601f19166020018201604052801561104d5781602001600182028036833780820191505090505b509050600182016020820185865187015b808210156110b9576003820191508151603f8160121c168501518453600184019350603f81600c1c168501518453600184019350603f8160061c168501518453600184019350603f811685015184536001840193505061105e565b50506003865106600181146110d557600281146110e8576110f0565b603d6001830353603d60028303536110f0565b603d60018303535b50505080925050505b919050565b6000808273ffffffffffffffffffffffffffffffffffffffff163b119050919050565b60007f01ffc9a7000000000000000000000000000000000000000000000000000000007bffffffffffffffffffffffffffffffffffffffffffffffffffffffff1916827bffffffffffffffffffffffffffffffffffffffffffffffffffffffff1916149050919050565b60608060006111ba847f74726169745f747970650000000000000000000000000000000000000000000061218c565b905060008151111561136a576040518060400160405280600181526020017f5b000000000000000000000000000000000000000000000000000000000000008152509150600061122a857f74726169745f76616c756500000000000000000000000000000000000000000061218c565b90506000611258867f74726169745f646973706c61790000000000000000000000000000000000000061218c565b905060005b835181101561134457846000821161128457604051806020016040528060008152506112bb565b6040518060400160405280600181526020017f2c000000000000000000000000000000000000000000000000000000000000008152505b8383815181106112ce576112cd613b86565b5b60200260200101518684815181106112e9576112e8613b86565b5b602002602001015186858151811061130457611303613b86565b5b6020026020010151604051602001611320959493929190614159565b6040516020818303038152906040529450808061133c90613be4565b91505061125d565b50836040516020016113569190614227565b604051602081830303815290604052935050505b6000611396857f6e616d6500000000000000000000000000000000000000000000000000000000612293565b8060200190518101906113a991906142b9565b905060006113d7867f6465736372697074696f6e000000000000000000000000000000000000000000612293565b8060200190518101906113ea91906142b9565b90506000611418877f696d616765000000000000000000000000000000000000000000000000000000612293565b90506114d78383600084511161143d5760405180602001604052806000815250611471565b8380602001905181019061145191906142b9565b604051602001611461919061439a565b6040516020818303038152906040525b600089511161148f57604051806020016040528060008152506114b0565b886040516020016114a09190614413565b6040516020818303038152906040525b6040516020016114c39493929190614565565b604051602081830303815290604052610f9b565b6040516020016114e79190614631565b60405160208183030381529060405295505050505050919050565b600033905090565b815183511461154e576040517f08c379a0000000000000000000000000000000000000000000000000000000008152600401611545906146c5565b60405180910390fd5b600073ffffffffffffffffffffffffffffffffffffffff168473ffffffffffffffffffffffffffffffffffffffff16036115bd576040517f08c379a00000000000000000000000000000000000000000000000000000000081526004016115b490614757565b60405180910390fd5b60006115c7611502565b90506115d78187878787876122eb565b60005b84518110156117885760008582815181106115f8576115f7613b86565b5b60200260200101519050600085838151811061161757611616613b86565b5b60200260200101519050600080600084815260200190815260200160002060008b73ffffffffffffffffffffffffffffffffffffffff1673ffffffffffffffffffffffffffffffffffffffff168152602001908152602001600020549050818110156116b8576040517f08c379a00000000000000000000000000000000000000000000000000000000081526004016116af906147e9565b60405180910390fd5b81810360008085815260200190815260200160002060008c73ffffffffffffffffffffffffffffffffffffffff1673ffffffffffffffffffffffffffffffffffffffff168152602001908152602001600020819055508160008085815260200190815260200160002060008b73ffffffffffffffffffffffffffffffffffffffff1673ffffffffffffffffffffffffffffffffffffffff168152602001908152602001600020600082825461176d9190613ee6565b925050819055505050508061178190613be4565b90506115da565b508473ffffffffffffffffffffffffffffffffffffffff168673ffffffffffffffffffffffffffffffffffffffff168273ffffffffffffffffffffffffffffffffffffffff167f4a39dc06d4c0dbc64b70af90fd698a233a518aa5d07e595d983b8c0526c8f7fb87876040516117ff929190614809565b60405180910390a46118158187878787876122f3565b6118238187878787876122fb565b505050505050565b6000600760009054906101000a900473ffffffffffffffffffffffffffffffffffffffff16905081600760006101000a81548173ffffffffffffffffffffffffffffffffffffffff021916908373ffffffffffffffffffffffffffffffffffffffff1602179055508173ffffffffffffffffffffffffffffffffffffffff168173ffffffffffffffffffffffffffffffffffffffff167f8be0079c531659141344cd1fd0a4f28419497f9722a3daafe3b4186f6b6457e060405160405180910390a35050565b8173ffffffffffffffffffffffffffffffffffffffff168373ffffffffffffffffffffffffffffffffffffffff160361195f576040517f08c379a0000000000000000000000000000000000000000000000000000000008152600401611956906148b2565b60405180910390fd5b80600160008573ffffffffffffffffffffffffffffffffffffffff1673ffffffffffffffffffffffffffffffffffffffff16815260200190815260200160002060008473ffffffffffffffffffffffffffffffffffffffff1673ffffffffffffffffffffffffffffffffffffffff16815260200190815260200160002060006101000a81548160ff0219169083151502179055508173ffffffffffffffffffffffffffffffffffffffff168373ffffffffffffffffffffffffffffffffffffffff167f17307eab39ab6107e8899845ad3d59bd9653f200f220920489ca2b5937696c3183604051611a509190612b81565b60405180910390a3505050565b6000600167ffffffffffffffff811115611a7a57611a79612c89565b5b604051908082528060200260200182016040528015611aad57816020015b6060815260200190600190039081611a985790505b5090508181600081518110611ac557611ac4613b86565b5b6020026020010181905250611adb848483611ae1565b50505050565b600060066000858152602001908152602001600020905060008160020160008581526020019081526020016000205403611b415760018160000154611b269190613ee6565b60066000868152602001908152602001600020600001819055505b816006600086815260200190815260200160002060010160008581526020019081526020016000209080519060200190611b7c929190612868565b5081516006600086815260200190815260200160002060020160008581526020019081526020016000208190555050505050565b600073ffffffffffffffffffffffffffffffffffffffff168473ffffffffffffffffffffffffffffffffffffffff1603611c1f576040517f08c379a0000000000000000000000000000000000000000000000000000000008152600401611c1690614944565b60405180910390fd5b6000611c29611502565b90506000611c36856124d2565b90506000611c43856124d2565b9050611c54836000898585896122eb565b8460008088815260200190815260200160002060008973ffffffffffffffffffffffffffffffffffffffff1673ffffffffffffffffffffffffffffffffffffffff1681526020019081526020016000206000828254611cb39190613ee6565b925050819055508673ffffffffffffffffffffffffffffffffffffffff16600073ffffffffffffffffffffffffffffffffffffffff168473ffffffffffffffffffffffffffffffffffffffff167fc3d58168c5ae7397731d063d5bbf3d657854427343f4c083240f7aacaa2d0f628989604051611d31929190614964565b60405180910390a4611d48836000898585896122f3565b611d578360008989898961254c565b50505050505050565b60606000611d8d7f6e616d6500000000000000000000000000000000000000000000000000000000612723565b90506000611dba7f6465736372697074696f6e000000000000000000000000000000000000000000612723565b90506000611de77f696d616765000000000000000000000000000000000000000000000000000000612723565b9050611eca83806020019051810190611e0091906142b9565b6000845111611e1e5760405180602001604052806000815250611e52565b83806020019051810190611e3291906142b9565b604051602001611e429190614a25565b6040516020818303038152906040525b6000845111611e705760405180602001604052806000815250611ea4565b83806020019051810190611e8491906142b9565b604051602001611e949190614a9e565b6040516020818303038152906040525b604051602001611eb693929190614b17565b604051602081830303815290604052610f9b565b604051602001611eda9190614631565b604051602081830303815290604052935050505090565b600073ffffffffffffffffffffffffffffffffffffffff168473ffffffffffffffffffffffffffffffffffffffff1603611f60576040517f08c379a0000000000000000000000000000000000000000000000000000000008152600401611f5790614757565b60405180910390fd5b6000611f6a611502565b90506000611f77856124d2565b90506000611f84856124d2565b9050611f948389898585896122eb565b600080600088815260200190815260200160002060008a73ffffffffffffffffffffffffffffffffffffffff1673ffffffffffffffffffffffffffffffffffffffff1681526020019081526020016000205490508581101561202b576040517f08c379a0000000000000000000000000000000000000000000000000000000008152600401612022906147e9565b60405180910390fd5b85810360008089815260200190815260200160002060008b73ffffffffffffffffffffffffffffffffffffffff1673ffffffffffffffffffffffffffffffffffffffff168152602001908152602001600020819055508560008089815260200190815260200160002060008a73ffffffffffffffffffffffffffffffffffffffff1673ffffffffffffffffffffffffffffffffffffffff16815260200190815260200160002060008282546120e09190613ee6565b925050819055508773ffffffffffffffffffffffffffffffffffffffff168973ffffffffffffffffffffffffffffffffffffffff168573ffffffffffffffffffffffffffffffffffffffff167fc3d58168c5ae7397731d063d5bbf3d657854427343f4c083240f7aacaa2d0f628a8a60405161215d929190614964565b60405180910390a4612173848a8a86868a6122f3565b612181848a8a8a8a8a61254c565b505050505050505050565b60606000600660008581526020019081526020016000206001016000848152602001908152602001600020805480602002602001604051908101604052809291908181526020016000905b828210156122835783829060005260206000200180546121f690614ba3565b80601f016020809104026020016040519081016040528092919081815260200182805461222290614ba3565b801561226f5780601f106122445761010080835404028352916020019161226f565b820191906000526020600020905b81548152906001019060200180831161225257829003601f168201915b5050505050815260200190600101906121d7565b5050505090508091505092915050565b606060006122a1848461218c565b90506000815111156122d157806000815181106122c1576122c0613b86565b5b60200260200101519150506122e5565b604051806020016040528060008152509150505b92915050565b505050505050565b505050505050565b61231a8473ffffffffffffffffffffffffffffffffffffffff166110fe565b156124ca578373ffffffffffffffffffffffffffffffffffffffff1663bc197c8187878686866040518663ffffffff1660e01b8152600401612360959493929190614c1e565b6020604051808303816000875af192505050801561239c57506040513d601f19601f820116820180604052508101906123999190614c9b565b60015b612441576123a8614cd5565b806308c379a00361240457506123bc614cf7565b806123c75750612406565b806040517f08c379a00000000000000000000000000000000000000000000000000000000081526004016123fb9190612c62565b60405180910390fd5b505b6040517f08c379a000000000000000000000000000000000000000000000000000000000815260040161243890614df9565b60405180910390fd5b63bc197c8160e01b7bffffffffffffffffffffffffffffffffffffffffffffffffffffffff1916817bffffffffffffffffffffffffffffffffffffffffffffffffffffffff1916146124c8576040517f08c379a00000000000000000000000000000000000000000000000000000000081526004016124bf90614e8b565b60405180910390fd5b505b505050505050565b60606000600167ffffffffffffffff8111156124f1576124f0612c89565b5b60405190808252806020026020018201604052801561251f5781602001602082028036833780820191505090505b509050828160008151811061253757612536613b86565b5b60200260200101818152505080915050919050565b61256b8473ffffffffffffffffffffffffffffffffffffffff166110fe565b1561271b578373ffffffffffffffffffffffffffffffffffffffff1663f23a6e6187878686866040518663ffffffff1660e01b81526004016125b1959493929190614eab565b6020604051808303816000875af19250505080156125ed57506040513d601f19601f820116820180604052508101906125ea9190614c9b565b60015b612692576125f9614cd5565b806308c379a003612655575061260d614cf7565b806126185750612657565b806040517f08c379a000000000000000000000000000000000000000000000000000000000815260040161264c9190612c62565b60405180910390fd5b505b6040517f08c379a000000000000000000000000000000000000000000000000000000000815260040161268990614df9565b60405180910390fd5b63f23a6e6160e01b7bffffffffffffffffffffffffffffffffffffffffffffffffffffffff1916817bffffffffffffffffffffffffffffffffffffffffffffffffffffffff191614612719576040517f08c379a000000000000000000000000000000000000000000000000000000000815260040161271090614e8b565b60405180910390fd5b505b505050505050565b6060600061273083612779565b905060008151111561276057806000815181106127505761274f613b86565b5b6020026020010151915050612774565b604051806020016040528060008152509150505b919050565b606060036001016000838152602001908152602001600020805480602002602001604051908101604052809291908181526020016000905b8282101561285d5783829060005260206000200180546127d090614ba3565b80601f01602080910402602001604051908101604052809291908181526020018280546127fc90614ba3565b80156128495780601f1061281e57610100808354040283529160200191612849565b820191906000526020600020905b81548152906001019060200180831161282c57829003601f168201915b5050505050815260200190600101906127b1565b505050509050919050565b8280548282559060005260206000209081019282156128b7579160200282015b828111156128b65782518290805190602001906128a69291906128c8565b5091602001919060010190612888565b5b5090506128c4919061294e565b5090565b8280546128d490614ba3565b90600052602060002090601f0160209004810192826128f6576000855561293d565b82601f1061290f57805160ff191683800117855561293d565b8280016001018555821561293d579182015b8281111561293c578251825591602001919060010190612921565b5b50905061294a9190612972565b5090565b5b8082111561296e5760008181612965919061298f565b5060010161294f565b5090565b5b8082111561298b576000816000905550600101612973565b5090565b50805461299b90614ba3565b6000825580601f106129ad57506129cc565b601f0160209004906000526020600020908101906129cb9190612972565b5b50565b6000604051905090565b600080fd5b600080fd5b600073ffffffffffffffffffffffffffffffffffffffff82169050919050565b6000612a0e826129e3565b9050919050565b612a1e81612a03565b8114612a2957600080fd5b50565b600081359050612a3b81612a15565b92915050565b6000819050919050565b612a5481612a41565b8114612a5f57600080fd5b50565b600081359050612a7181612a4b565b92915050565b60008060408385031215612a8e57612a8d6129d9565b5b6000612a9c85828601612a2c565b9250506020612aad85828601612a62565b9150509250929050565b612ac081612a41565b82525050565b6000602082019050612adb6000830184612ab7565b92915050565b60007fffffffff0000000000000000000000000000000000000000000000000000000082169050919050565b612b1681612ae1565b8114612b2157600080fd5b50565b600081359050612b3381612b0d565b92915050565b600060208284031215612b4f57612b4e6129d9565b5b6000612b5d84828501612b24565b91505092915050565b60008115159050919050565b612b7b81612b66565b82525050565b6000602082019050612b966000830184612b72565b92915050565b600060208284031215612bb257612bb16129d9565b5b6000612bc084828501612a62565b91505092915050565b600081519050919050565b600082825260208201905092915050565b60005b83811015612c03578082015181840152602081019050612be8565b83811115612c12576000848401525b50505050565b6000601f19601f8301169050919050565b6000612c3482612bc9565b612c3e8185612bd4565b9350612c4e818560208601612be5565b612c5781612c18565b840191505092915050565b60006020820190508181036000830152612c7c8184612c29565b905092915050565b600080fd5b7f4e487b7100000000000000000000000000000000000000000000000000000000600052604160045260246000fd5b612cc182612c18565b810181811067ffffffffffffffff82111715612ce057612cdf612c89565b5b80604052505050565b6000612cf36129cf565b9050612cff8282612cb8565b919050565b600067ffffffffffffffff821115612d1f57612d1e612c89565b5b602082029050602081019050919050565b600080fd5b6000612d48612d4384612d04565b612ce9565b90508083825260208201905060208402830185811115612d6b57612d6a612d30565b5b835b81811015612d945780612d808882612a62565b845260208401935050602081019050612d6d565b5050509392505050565b600082601f830112612db357612db2612c84565b5b8135612dc3848260208601612d35565b91505092915050565b600080fd5b600067ffffffffffffffff821115612dec57612deb612c89565b5b612df582612c18565b9050602081019050919050565b82818337600083830152505050565b6000612e24612e1f84612dd1565b612ce9565b905082815260208101848484011115612e4057612e3f612dcc565b5b612e4b848285612e02565b509392505050565b600082601f830112612e6857612e67612c84565b5b8135612e78848260208601612e11565b91505092915050565b600080600080600060a08688031215612e9d57612e9c6129d9565b5b6000612eab88828901612a2c565b9550506020612ebc88828901612a2c565b945050604086013567ffffffffffffffff811115612edd57612edc6129de565b5b612ee988828901612d9e565b935050606086013567ffffffffffffffff811115612f0a57612f096129de565b5b612f1688828901612d9e565b925050608086013567ffffffffffffffff811115612f3757612f366129de565b5b612f4388828901612e53565b9150509295509295909350565b60008060408385031215612f6757612f666129d9565b5b6000612f7585828601612a62565b9250506020612f8685828601612a62565b9150509250929050565b600067ffffffffffffffff821115612fab57612faa612c89565b5b602082029050602081019050919050565b6000612fcf612fca84612f90565b612ce9565b90508083825260208201905060208402830185811115612ff257612ff1612d30565b5b835b8181101561301b57806130078882612a2c565b845260208401935050602081019050612ff4565b5050509392505050565b600082601f83011261303a57613039612c84565b5b813561304a848260208601612fbc565b91505092915050565b6000806040838503121561306a576130696129d9565b5b600083013567ffffffffffffffff811115613088576130876129de565b5b61309485828601613025565b925050602083013567ffffffffffffffff8111156130b5576130b46129de565b5b6130c185828601612d9e565b9150509250929050565b600081519050919050565b600082825260208201905092915050565b6000819050602082019050919050565b61310081612a41565b82525050565b600061311283836130f7565b60208301905092915050565b6000602082019050919050565b6000613136826130cb565b61314081856130d6565b935061314b836130e7565b8060005b8381101561317c5781516131638882613106565b975061316e8361311e565b92505060018101905061314f565b5085935050505092915050565b600060208201905081810360008301526131a3818461312b565b905092915050565b6131b481612a03565b82525050565b60006020820190506131cf60008301846131ab565b92915050565b6131de81612b66565b81146131e957600080fd5b50565b6000813590506131fb816131d5565b92915050565b60008060408385031215613218576132176129d9565b5b600061322685828601612a2c565b9250506020613237858286016131ec565b9150509250929050565b600067ffffffffffffffff82111561325c5761325b612c89565b5b61326582612c18565b9050602081019050919050565b600061328561328084613241565b612ce9565b9050828152602081018484840111156132a1576132a0612dcc565b5b6132ac848285612e02565b509392505050565b600082601f8301126132c9576132c8612c84565b5b81356132d9848260208601613272565b91505092915050565b60008060008060008060c087890312156132ff576132fe6129d9565b5b600061330d89828a01612a2c565b965050602061331e89828a01612a62565b955050604087013567ffffffffffffffff81111561333f5761333e6129de565b5b61334b89828a016132b4565b945050606087013567ffffffffffffffff81111561336c5761336b6129de565b5b61337889828a016132b4565b935050608061338989828a01612a62565b92505060a061339a89828a01612a62565b9150509295509295509295565b600080604083850312156133be576133bd6129d9565b5b60006133cc85828601612a2c565b92505060206133dd85828601612a2c565b9150509250929050565b600080600080600060a08688031215613403576134026129d9565b5b600061341188828901612a2c565b955050602061342288828901612a2c565b945050604061343388828901612a62565b935050606061344488828901612a62565b925050608086013567ffffffffffffffff811115613465576134646129de565b5b61347188828901612e53565b9150509295509295909350565b600060208284031215613494576134936129d9565b5b60006134a284828501612a2c565b91505092915050565b7f455243313135353a2062616c616e636520717565727920666f7220746865207a60008201527f65726f2061646472657373000000000000000000000000000000000000000000602082015250565b6000613507602b83612bd4565b9150613512826134ab565b604082019050919050565b60006020820190508181036000830152613536816134fa565b9050919050565b7f4f776e61626c653a2063616c6c6572206973206e6f7420746865206f776e6572600082015250565b6000613573602083612bd4565b915061357e8261353d565b602082019050919050565b600060208201905081810360008301526135a281613566565b9050919050565b600081905092915050565b7f3c737667207374796c653d276261636b67726f756e642d636f6c6f723a23303060008201527f30272076696577426f783d2730203020333030203330302720786d6c6e733d2760208201527f687474703a2f2f7777772e77332e6f72672f323030302f737667273e3c74657860408201527f74207472616e73666f726d3d277472616e736c6174652832332e32343620313360608201527f372e303129272064783d2730272064793d2730272066696c6c3d27236666666660808201527f66662720666f6e742d73697a653d2731352720666f6e742d7765696768743d2760a08201527f343030273e536172636f7068616775733c2f746578743e3c746578742074726160c08201527f6e73666f726d3d277472616e736c6174652832332e323436203137362e35362960e08201527f272064783d2730272064793d2730272066696c6c3d27236136613661362720666101008201527f6f6e742d73697a653d27382720666f6e742d7765696768743d273430302720736101208201527f74726f6b652d77696474683d2730273e44696767696e67206665653a3c2f74656101408201527f78743e3c74657874207472616e73666f726d3d277472616e736c6174652832336101608201527f2e323436203136322e353629272064783d2730272064793d2730272066696c6c6101808201527f3d27236136613661362720666f6e742d73697a653d27382720666f6e742d77656101a08201527f696768743d2734303027207374726f6b652d77696474683d2730273e426f756e6101c08201527f74793a3c2f746578743e3c74657874207472616e73666f726d3d277472616e736101e08201527f6c6174652839312e323436203136322e353629272064783d2730272064793d276102008201527f30272066696c6c3d27236136613661362720666f6e742d73697a653d273827206102208201527f666f6e742d7765696768743d2734303027207374726f6b652d77696474683d276102408201527f30273e000000000000000000000000000000000000000000000000000000000061026082015250565b60006138c9610263836135a9565b91506138d4826135b4565b61026382019050919050565b60006138eb82612bc9565b6138f581856135a9565b9350613905818560208601612be5565b80840191505092915050565b7f20534152434f3c2f746578743e3c74657874207472616e73666f726d3d27747260008201527f616e736c6174652839312e323436203137362e353629272064783d273027206460208201527f793d2730272066696c6c3d27236136613661362720666f6e742d73697a653d2760408201527f382720666f6e742d7765696768743d2734303027207374726f6b652d7769647460608201527f683d2730273e0000000000000000000000000000000000000000000000000000608082015250565b60006139df6086836135a9565b91506139ea82613911565b608682019050919050565b7f20534152434f3c2f746578743e3c2f7376673e00000000000000000000000000600082015250565b6000613a2b6013836135a9565b9150613a36826139f5565b601382019050919050565b6000613a4c826138bb565b9150613a5882856138e0565b9150613a63826139d2565b9150613a6f82846138e0565b9150613a7a82613a1e565b91508190509392505050565b7f646174613a696d6167652f7376672b786d6c3b6261736536342c000000000000600082015250565b6000613abc601a836135a9565b9150613ac782613a86565b601a82019050919050565b6000613add82613aaf565b9150613ae982846138e0565b915081905092915050565b7f455243313135353a206163636f756e747320616e6420696473206c656e67746860008201527f206d69736d617463680000000000000000000000000000000000000000000000602082015250565b6000613b50602983612bd4565b9150613b5b82613af4565b604082019050919050565b60006020820190508181036000830152613b7f81613b43565b9050919050565b7f4e487b7100000000000000000000000000000000000000000000000000000000600052603260045260246000fd5b7f4e487b7100000000000000000000000000000000000000000000000000000000600052601160045260246000fd5b6000613bef82612a41565b91507fffffffffffffffffffffffffffffffffffffffffffffffffffffffffffffffff8203613c2157613c20613bb5565b5b600182019050919050565b6000604082019050613c416000830185612ab7565b613c4e60208301846131ab565b9392505050565b7f44696767696e6720466565000000000000000000000000000000000000000000600082015250565b6000613c8b600b836135a9565b9150613c9682613c55565b600b82019050919050565b6000613cac82613c7e565b9150819050919050565b7f426f756e74790000000000000000000000000000000000000000000000000000600082015250565b6000613cec6006836135a9565b9150613cf782613cb6565b600682019050919050565b6000613d0d82613cdf565b9150819050919050565b7f737472696e670000000000000000000000000000000000000000000000000000600082015250565b6000613d4d6006836135a9565b9150613d5882613d17565b600682019050919050565b6000613d6e82613d40565b9150819050919050565b6000613d8482846138e0565b915081905092915050565b7f4f776e61626c653a206e6577206f776e657220697320746865207a65726f206160008201527f6464726573730000000000000000000000000000000000000000000000000000602082015250565b6000613deb602683612bd4565b9150613df682613d8f565b604082019050919050565b60006020820190508181036000830152613e1a81613dde565b9050919050565b7f4e487b7100000000000000000000000000000000000000000000000000000000600052601260045260246000fd5b6000613e5b82612a41565b9150613e6683612a41565b925082613e7657613e75613e21565b5b828204905092915050565b6000613e8c82612a41565b9150613e9783612a41565b925082821015613eaa57613ea9613bb5565b5b828203905092915050565b6000613ec082612a41565b9150613ecb83612a41565b925082613edb57613eda613e21565b5b828206905092915050565b6000613ef182612a41565b9150613efc83612a41565b9250827fffffffffffffffffffffffffffffffffffffffffffffffffffffffffffffffff03821115613f3157613f30613bb5565b5b828201905092915050565b6000613f4782612a41565b9150613f5283612a41565b9250817fffffffffffffffffffffffffffffffffffffffffffffffffffffffffffffffff0483118215151615613f8b57613f8a613bb5565b5b828202905092915050565b600081519050919050565b600081905092915050565b6000613fb782613f96565b613fc18185613fa1565b9350613fd1818560208601612be5565b80840191505092915050565b7f7b00000000000000000000000000000000000000000000000000000000000000600082015250565b60006140136001836135a9565b915061401e82613fdd565b600182019050919050565b7f22646973706c61795f74797065223a2022000000000000000000000000000000600082015250565b600061405f6011836135a9565b915061406a82614029565b601182019050919050565b7f222c202274726169745f74797065223a20220000000000000000000000000000600082015250565b60006140ab6012836135a9565b91506140b682614075565b601282019050919050565b7f222c202276616c7565223a202200000000000000000000000000000000000000600082015250565b60006140f7600d836135a9565b9150614102826140c1565b600d82019050919050565b7f227d000000000000000000000000000000000000000000000000000000000000600082015250565b60006141436002836135a9565b915061414e8261410d565b600282019050919050565b60006141658288613fac565b915061417182876138e0565b915061417c82614006565b915061418782614052565b915061419382866138e0565b915061419e8261409e565b91506141aa82856138e0565b91506141b5826140ea565b91506141c182846138e0565b91506141cc82614136565b91508190509695505050505050565b7f5d00000000000000000000000000000000000000000000000000000000000000600082015250565b60006142116001836135a9565b915061421c826141db565b600182019050919050565b60006142338284613fac565b915061423e82614204565b915081905092915050565b600061425c61425784613241565b612ce9565b90508281526020810184848401111561427857614277612dcc565b5b614283848285612be5565b509392505050565b600082601f8301126142a05761429f612c84565b5b81516142b0848260208601614249565b91505092915050565b6000602082840312156142cf576142ce6129d9565b5b600082015167ffffffffffffffff8111156142ed576142ec6129de565b5b6142f98482850161428b565b91505092915050565b7f2c2022696d616765223a20220000000000000000000000000000000000000000600082015250565b6000614338600c836135a9565b915061434382614302565b600c82019050919050565b7f2200000000000000000000000000000000000000000000000000000000000000600082015250565b60006143846001836135a9565b915061438f8261434e565b600182019050919050565b60006143a58261432b565b91506143b182846138e0565b91506143bc82614377565b915081905092915050565b7f2c202261747472696275746573223a2000000000000000000000000000000000600082015250565b60006143fd6010836135a9565b9150614408826143c7565b601082019050919050565b600061441e826143f0565b915061442a8284613fac565b915081905092915050565b7f226e616d65223a20220000000000000000000000000000000000000000000000600082015250565b600061446b6009836135a9565b915061447682614435565b600982019050919050565b7f222c200000000000000000000000000000000000000000000000000000000000600082015250565b60006144b76003836135a9565b91506144c282614481565b600382019050919050565b7f226465736372697074696f6e223a202200000000000000000000000000000000600082015250565b60006145036010836135a9565b915061450e826144cd565b601082019050919050565b7f7d00000000000000000000000000000000000000000000000000000000000000600082015250565b600061454f6001836135a9565b915061455a82614519565b600182019050919050565b600061457082614006565b915061457b8261445e565b915061458782876138e0565b9150614592826144aa565b915061459d826144f6565b91506145a982866138e0565b91506145b482614377565b91506145c082856138e0565b91506145cc82846138e0565b91506145d782614542565b915081905095945050505050565b7f646174613a6170706c69636174696f6e2f6a736f6e3b6261736536342c000000600082015250565b600061461b601d836135a9565b9150614626826145e5565b601d82019050919050565b600061463c8261460e565b915061464882846138e0565b915081905092915050565b7f455243313135353a2069647320616e6420616d6f756e7473206c656e6774682060008201527f6d69736d61746368000000000000000000000000000000000000000000000000602082015250565b60006146af602883612bd4565b91506146ba82614653565b604082019050919050565b600060208201905081810360008301526146de816146a2565b9050919050565b7f455243313135353a207472616e7366657220746f20746865207a65726f20616460008201527f6472657373000000000000000000000000000000000000000000000000000000602082015250565b6000614741602583612bd4565b915061474c826146e5565b604082019050919050565b6000602082019050818103600083015261477081614734565b9050919050565b7f455243313135353a20696e73756666696369656e742062616c616e636520666f60008201527f72207472616e7366657200000000000000000000000000000000000000000000602082015250565b60006147d3602a83612bd4565b91506147de82614777565b604082019050919050565b60006020820190508181036000830152614802816147c6565b9050919050565b60006040820190508181036000830152614823818561312b565b90508181036020830152614837818461312b565b90509392505050565b7f455243313135353a2073657474696e6720617070726f76616c2073746174757360008201527f20666f722073656c660000000000000000000000000000000000000000000000602082015250565b600061489c602983612bd4565b91506148a782614840565b604082019050919050565b600060208201905081810360008301526148cb8161488f565b9050919050565b7f455243313135353a206d696e7420746f20746865207a65726f2061646472657360008201527f7300000000000000000000000000000000000000000000000000000000000000602082015250565b600061492e602183612bd4565b9150614939826148d2565b604082019050919050565b6000602082019050818103600083015261495d81614921565b9050919050565b60006040820190506149796000830185612ab7565b6149866020830184612ab7565b9392505050565b7f2c20276465736372697074696f6e273a20270000000000000000000000000000600082015250565b60006149c36012836135a9565b91506149ce8261498d565b601282019050919050565b7f2700000000000000000000000000000000000000000000000000000000000000600082015250565b6000614a0f6001836135a9565b9150614a1a826149d9565b600182019050919050565b6000614a30826149b6565b9150614a3c82846138e0565b9150614a4782614a02565b915081905092915050565b7f2c2027696d616765273a20270000000000000000000000000000000000000000600082015250565b6000614a88600c836135a9565b9150614a9382614a52565b600c82019050919050565b6000614aa982614a7b565b9150614ab582846138e0565b9150614ac082614a02565b915081905092915050565b7f276e616d65273a20270000000000000000000000000000000000000000000000600082015250565b6000614b016009836135a9565b9150614b0c82614acb565b600982019050919050565b6000614b2282614006565b9150614b2d82614af4565b9150614b3982866138e0565b9150614b4482614a02565b9150614b5082856138e0565b9150614b5c82846138e0565b9150614b6782614542565b9150819050949350505050565b7f4e487b7100000000000000000000000000000000000000000000000000000000600052602260045260246000fd5b60006002820490506001821680614bbb57607f821691505b602082108103614bce57614bcd614b74565b5b50919050565b600082825260208201905092915050565b6000614bf082613f96565b614bfa8185614bd4565b9350614c0a818560208601612be5565b614c1381612c18565b840191505092915050565b600060a082019050614c3360008301886131ab565b614c4060208301876131ab565b8181036040830152614c52818661312b565b90508181036060830152614c66818561312b565b90508181036080830152614c7a8184614be5565b90509695505050505050565b600081519050614c9581612b0d565b92915050565b600060208284031215614cb157614cb06129d9565b5b6000614cbf84828501614c86565b91505092915050565b60008160e01c9050919050565b600060033d1115614cf45760046000803e614cf1600051614cc8565b90505b90565b600060443d10614d8457614d096129cf565b60043d036004823e80513d602482011167ffffffffffffffff82111715614d31575050614d84565b808201805167ffffffffffffffff811115614d4f5750505050614d84565b80602083010160043d038501811115614d6c575050505050614d84565b614d7b82602001850186612cb8565b82955050505050505b90565b7f455243313135353a207472616e7366657220746f206e6f6e204552433131353560008201527f526563656976657220696d706c656d656e746572000000000000000000000000602082015250565b6000614de3603483612bd4565b9150614dee82614d87565b604082019050919050565b60006020820190508181036000830152614e1281614dd6565b9050919050565b7f455243313135353a204552433131353552656365697665722072656a6563746560008201527f6420746f6b656e73000000000000000000000000000000000000000000000000602082015250565b6000614e75602883612bd4565b9150614e8082614e19565b604082019050919050565b60006020820190508181036000830152614ea481614e68565b9050919050565b600060a082019050614ec060008301886131ab565b614ecd60208301876131ab565b614eda6040830186612ab7565b614ee76060830185612ab7565b8181036080830152614ef98184614be5565b9050969550505050505056fe4142434445464748494a4b4c4d4e4f505152535455565758595a6162636465666768696a6b6c6d6e6f707172737475767778797a303132333435363738392b2fa264697066735822122050600885789b38cfbde8fba693331195f2ca13e8b5a2da255db6d79a7a93964164736f6c634300080d00334142434445464748494a4b4c4d4e4f505152535455565758595a6162636465666768696a6b6c6d6e6f707172737475767778797a303132333435363738392b2f46697273742074657374206f6620455243313135354f6e436861696e4d65746164617461",
  "devdoc": {
    "kind": "dev",
    "methods": {
      "balanceOf(address,uint256)": {
        "details": "See {IERC1155-balanceOf}. Requirements: - `account` cannot be the zero address."
      },
      "balanceOfBatch(address[],uint256[])": {
        "details": "See {IERC1155-balanceOfBatch}. Requirements: - `accounts` and `ids` must have the same length."
      },
      "createSVG(uint256,uint256)": {
        "params": {
          "_bounty": "the bounty of the token.",
          "_diggingFee": "the digging fee of the token."
        },
        "returns": {
          "_0": "the SVG image for the token as a string."
        }
      },
      "isApprovedForAll(address,address)": {
        "details": "See {IERC1155-isApprovedForAll}."
      },
      "mint(address,uint256,string,string,uint256,uint256)": {
        "params": {
          "_bounty": "the bounty.",
          "_description": "the token description.",
          "_diggingFee": "the digging fee.",
          "_name": "the token name.",
          "_to": "the address to mint the token to.",
          "_tokenId": "the token identifier."
        }
      },
      "owner()": {
        "details": "Returns the address of the current owner."
      },
      "renounceOwnership()": {
        "details": "Leaves the contract without owner. It will not be possible to call `onlyOwner` functions anymore. Can only be called by the current owner. NOTE: Renouncing ownership will leave the contract without an owner, thereby removing any functionality that is only available to the owner."
      },
      "safeBatchTransferFrom(address,address,uint256[],uint256[],bytes)": {
        "details": "See {IERC1155-safeBatchTransferFrom}. Overrides the ERC1155 method."
      },
      "safeTransferFrom(address,address,uint256,uint256,bytes)": {
        "details": "See {IERC1155-safeTransferFrom}. Overrides the ERC1155 method."
      },
      "setApprovalForAll(address,bool)": {
        "details": "See {IERC1155-setApprovalForAll}."
      },
      "supportsInterface(bytes4)": {
        "details": "See {IERC165-supportsInterface}."
      },
      "transferOwnership(address)": {
        "details": "Transfers ownership of the contract to a new account (`newOwner`). Can only be called by the current owner."
      }
    },
    "version": 1
  },
  "userdoc": {
    "kind": "user",
    "methods": {
      "createSVG(uint256,uint256)": {
        "notice": "Generates a SVG image for the token based on the passed in attributes."
      },
      "mint(address,uint256,string,string,uint256,uint256)": {
        "notice": "Mints a single curse nft with metadata."
      },
      "safeBatchTransferFrom(address,address,uint256[],uint256[],bytes)": {
        "notice": "Transfers a batch of NFTs. Only the owner of the contract can transfer, not the owner of the NFT."
      },
      "safeTransferFrom(address,address,uint256,uint256,bytes)": {
        "notice": "Transfers a NFT. Only the owner of the contract can transfer, not the owner of the NFT."
      }
    },
    "version": 1
  },
  "storageLayout": {
    "storage": [
      {
        "astId": 131,
        "contract": "contracts/tokens/CursesMock.sol:CursesMock",
        "label": "_balances",
        "offset": 0,
        "slot": "0",
        "type": "t_mapping(t_uint256,t_mapping(t_address,t_uint256))"
      },
      {
        "astId": 137,
        "contract": "contracts/tokens/CursesMock.sol:CursesMock",
        "label": "_operatorApprovals",
        "offset": 0,
        "slot": "1",
        "type": "t_mapping(t_address,t_mapping(t_address,t_bool))"
      },
      {
        "astId": 139,
        "contract": "contracts/tokens/CursesMock.sol:CursesMock",
        "label": "_uri",
        "offset": 0,
        "slot": "2",
        "type": "t_string_storage"
      },
      {
        "astId": 2563,
        "contract": "contracts/tokens/CursesMock.sol:CursesMock",
        "label": "contractMetadata",
        "offset": 0,
        "slot": "3",
        "type": "t_struct(Metadata)2560_storage"
      },
      {
        "astId": 2568,
        "contract": "contracts/tokens/CursesMock.sol:CursesMock",
        "label": "tokenMetadata",
        "offset": 0,
        "slot": "6",
        "type": "t_mapping(t_uint256,t_struct(Metadata)2560_storage)"
      },
      {
        "astId": 7,
        "contract": "contracts/tokens/CursesMock.sol:CursesMock",
        "label": "_owner",
        "offset": 0,
        "slot": "7",
        "type": "t_address"
      },
      {
        "astId": 2187,
        "contract": "contracts/tokens/CursesMock.sol:CursesMock",
        "label": "ids",
        "offset": 0,
        "slot": "8",
        "type": "t_mapping(t_uint256,t_bool)"
      }
    ],
    "types": {
      "t_address": {
        "encoding": "inplace",
        "label": "address",
        "numberOfBytes": "20"
      },
      "t_array(t_bytes_storage)dyn_storage": {
        "base": "t_bytes_storage",
        "encoding": "dynamic_array",
        "label": "bytes[]",
        "numberOfBytes": "32"
      },
      "t_bool": {
        "encoding": "inplace",
        "label": "bool",
        "numberOfBytes": "1"
      },
      "t_bytes32": {
        "encoding": "inplace",
        "label": "bytes32",
        "numberOfBytes": "32"
      },
      "t_bytes_storage": {
        "encoding": "bytes",
        "label": "bytes",
        "numberOfBytes": "32"
      },
      "t_mapping(t_address,t_bool)": {
        "encoding": "mapping",
        "key": "t_address",
        "label": "mapping(address => bool)",
        "numberOfBytes": "32",
        "value": "t_bool"
      },
      "t_mapping(t_address,t_mapping(t_address,t_bool))": {
        "encoding": "mapping",
        "key": "t_address",
        "label": "mapping(address => mapping(address => bool))",
        "numberOfBytes": "32",
        "value": "t_mapping(t_address,t_bool)"
      },
      "t_mapping(t_address,t_uint256)": {
        "encoding": "mapping",
        "key": "t_address",
        "label": "mapping(address => uint256)",
        "numberOfBytes": "32",
        "value": "t_uint256"
      },
      "t_mapping(t_bytes32,t_array(t_bytes_storage)dyn_storage)": {
        "encoding": "mapping",
        "key": "t_bytes32",
        "label": "mapping(bytes32 => bytes[])",
        "numberOfBytes": "32",
        "value": "t_array(t_bytes_storage)dyn_storage"
      },
      "t_mapping(t_bytes32,t_uint256)": {
        "encoding": "mapping",
        "key": "t_bytes32",
        "label": "mapping(bytes32 => uint256)",
        "numberOfBytes": "32",
        "value": "t_uint256"
      },
      "t_mapping(t_uint256,t_bool)": {
        "encoding": "mapping",
        "key": "t_uint256",
        "label": "mapping(uint256 => bool)",
        "numberOfBytes": "32",
        "value": "t_bool"
      },
      "t_mapping(t_uint256,t_mapping(t_address,t_uint256))": {
        "encoding": "mapping",
        "key": "t_uint256",
        "label": "mapping(uint256 => mapping(address => uint256))",
        "numberOfBytes": "32",
        "value": "t_mapping(t_address,t_uint256)"
      },
      "t_mapping(t_uint256,t_struct(Metadata)2560_storage)": {
        "encoding": "mapping",
        "key": "t_uint256",
        "label": "mapping(uint256 => struct OnChainMetadata.Metadata)",
        "numberOfBytes": "32",
        "value": "t_struct(Metadata)2560_storage"
      },
      "t_string_storage": {
        "encoding": "bytes",
        "label": "string",
        "numberOfBytes": "32"
      },
      "t_struct(Metadata)2560_storage": {
        "encoding": "inplace",
        "label": "struct OnChainMetadata.Metadata",
        "members": [
          {
            "astId": 2550,
            "contract": "contracts/tokens/CursesMock.sol:CursesMock",
            "label": "keyCount",
            "offset": 0,
            "slot": "0",
            "type": "t_uint256"
          },
          {
            "astId": 2555,
            "contract": "contracts/tokens/CursesMock.sol:CursesMock",
            "label": "data",
            "offset": 0,
            "slot": "1",
            "type": "t_mapping(t_bytes32,t_array(t_bytes_storage)dyn_storage)"
          },
          {
            "astId": 2559,
            "contract": "contracts/tokens/CursesMock.sol:CursesMock",
            "label": "valueCount",
            "offset": 0,
            "slot": "2",
            "type": "t_mapping(t_bytes32,t_uint256)"
          }
        ],
        "numberOfBytes": "96"
      },
      "t_uint256": {
        "encoding": "inplace",
        "label": "uint256",
        "numberOfBytes": "32"
      }
    }
  }
}