{
  "address": "0x91d01C8c8dC6C95625369F062e5fdb1856AD5E5a",
  "abi": [
    {
      "inputs": [
        {
          "internalType": "address",
          "name": "archaeologistAddress",
          "type": "address"
        }
      ],
      "name": "ArchaeologistAlreadyPublishedPrivateKey",
      "type": "error"
    },
    {
      "inputs": [
        {
          "internalType": "address",
          "name": "archaeologistAddress",
          "type": "address"
        },
        {
          "internalType": "bytes32",
          "name": "sarcoId",
          "type": "bytes32"
        }
      ],
      "name": "ArchaeologistHasBeenAccused",
      "type": "error"
    },
    {
      "inputs": [
        {
          "internalType": "address",
          "name": "archaeologist",
          "type": "address"
        }
      ],
      "name": "ArchaeologistNotOnSarcophagus",
      "type": "error"
    },
    {
      "inputs": [
        {
          "internalType": "bool",
          "name": "exists",
          "type": "bool"
        },
        {
          "internalType": "address",
          "name": "archaeologist",
          "type": "address"
        }
      ],
      "name": "ArchaeologistProfileExistsShouldBe",
      "type": "error"
    },
    {
      "inputs": [
        {
          "internalType": "address",
          "name": "archaeologistAddress",
          "type": "address"
        },
        {
          "internalType": "bytes",
          "name": "publicKey",
          "type": "bytes"
        },
        {
          "internalType": "bytes32",
          "name": "privateKey",
          "type": "bytes32"
        }
      ],
      "name": "ArchaeologistPublishedIncorrectPrivateKey",
      "type": "error"
    },
    {
      "inputs": [],
      "name": "CannotSetZeroProfileValue",
      "type": "error"
    },
    {
      "inputs": [
        {
          "internalType": "bytes32",
          "name": "sarcoId",
          "type": "bytes32"
        }
      ],
      "name": "SarcophagusCompromised",
      "type": "error"
    },
    {
      "inputs": [
        {
          "internalType": "bytes32",
          "name": "sarcoId",
          "type": "bytes32"
        }
      ],
      "name": "SarcophagusDoesNotExist",
      "type": "error"
    },
    {
      "inputs": [
        {
          "internalType": "bytes32",
          "name": "sarcoId",
          "type": "bytes32"
        }
      ],
      "name": "SarcophagusInactive",
      "type": "error"
    },
    {
      "inputs": [
        {
          "internalType": "uint256",
          "name": "currentTime",
          "type": "uint256"
        },
        {
          "internalType": "uint256",
          "name": "resurrectionTime",
          "type": "uint256"
        }
      ],
      "name": "TooEarlyForPublish",
      "type": "error"
    },
    {
      "inputs": [
        {
          "internalType": "uint256",
          "name": "currentTime",
          "type": "uint256"
        },
        {
          "internalType": "uint256",
          "name": "publishDeadline",
          "type": "uint256"
        }
      ],
      "name": "TooLateForPublish",
      "type": "error"
    },
    {
      "anonymous": false,
      "inputs": [
        {
          "indexed": true,
          "internalType": "address",
          "name": "archaeologist",
          "type": "address"
        },
        {
          "indexed": false,
          "internalType": "uint256",
          "name": "depositedBond",
          "type": "uint256"
        }
      ],
      "name": "DepositFreeBond",
      "type": "event"
    },
    {
      "anonymous": false,
      "inputs": [
        {
          "indexed": true,
          "internalType": "bytes32",
          "name": "sarcoId",
          "type": "bytes32"
        },
        {
          "indexed": false,
          "internalType": "bytes32",
          "name": "privateKey",
          "type": "bytes32"
        },
        {
          "indexed": true,
          "internalType": "address",
          "name": "archaeologist",
          "type": "address"
        }
      ],
      "name": "PublishPrivateKey",
      "type": "event"
    },
    {
      "anonymous": false,
      "inputs": [
        {
          "indexed": true,
          "internalType": "address",
          "name": "archaeologist",
          "type": "address"
        },
        {
          "indexed": false,
          "internalType": "string",
          "name": "peerId",
          "type": "string"
        },
        {
          "indexed": false,
          "internalType": "uint256",
          "name": "minimumDiggingFee",
          "type": "uint256"
        },
        {
          "indexed": false,
          "internalType": "uint256",
          "name": "maximumRewrapInterval",
          "type": "uint256"
        },
        {
          "indexed": false,
          "internalType": "uint256",
          "name": "freeBond",
          "type": "uint256"
        },
        {
          "indexed": false,
          "internalType": "uint256",
          "name": "maximumResurrectionTime",
          "type": "uint256"
        },
        {
          "indexed": false,
          "internalType": "uint256",
          "name": "curseFee",
          "type": "uint256"
        }
      ],
      "name": "RegisterArchaeologist",
      "type": "event"
    },
    {
      "anonymous": false,
      "inputs": [
        {
          "indexed": true,
          "internalType": "address",
          "name": "archaeologist",
          "type": "address"
        },
        {
          "indexed": false,
          "internalType": "string",
          "name": "peerId",
          "type": "string"
        },
        {
          "indexed": false,
          "internalType": "uint256",
          "name": "minimumDiggingFee",
          "type": "uint256"
        },
        {
          "indexed": false,
          "internalType": "uint256",
          "name": "maximumRewrapInterval",
          "type": "uint256"
        },
        {
          "indexed": false,
          "internalType": "uint256",
          "name": "freeBond",
          "type": "uint256"
        },
        {
          "indexed": false,
          "internalType": "uint256",
          "name": "maximumResurrectionTime",
          "type": "uint256"
        },
        {
          "indexed": false,
          "internalType": "uint256",
          "name": "curseFee",
          "type": "uint256"
        }
      ],
      "name": "UpdateArchaeologist",
      "type": "event"
    },
    {
      "anonymous": false,
      "inputs": [
        {
          "indexed": true,
          "internalType": "address",
          "name": "archaeologist",
          "type": "address"
        },
        {
          "indexed": false,
          "internalType": "uint256",
          "name": "withdrawnBond",
          "type": "uint256"
        }
      ],
      "name": "WithdrawFreeBond",
      "type": "event"
    },
    {
      "anonymous": false,
      "inputs": [
        {
          "indexed": true,
          "internalType": "address",
          "name": "archaeologist",
          "type": "address"
        },
        {
          "indexed": false,
          "internalType": "uint256",
          "name": "withdrawnReward",
          "type": "uint256"
        }
      ],
      "name": "WithdrawReward",
      "type": "event"
    },
    {
      "inputs": [
        {
          "internalType": "uint256",
          "name": "amount",
          "type": "uint256"
        }
      ],
      "name": "depositFreeBond",
      "outputs": [],
      "stateMutability": "nonpayable",
      "type": "function"
    },
    {
      "inputs": [
        {
          "internalType": "bytes32",
          "name": "sarcoId",
          "type": "bytes32"
        },
        {
          "internalType": "bytes32",
          "name": "privateKey",
          "type": "bytes32"
        }
      ],
      "name": "publishPrivateKey",
      "outputs": [],
      "stateMutability": "nonpayable",
      "type": "function"
    },
    {
      "inputs": [
        {
          "internalType": "string",
          "name": "peerId",
          "type": "string"
        },
        {
          "internalType": "uint256",
          "name": "minimumDiggingFeePerSecond",
          "type": "uint256"
        },
        {
          "internalType": "uint256",
          "name": "maximumRewrapInterval",
          "type": "uint256"
        },
        {
          "internalType": "uint256",
          "name": "freeBond",
          "type": "uint256"
        },
        {
          "internalType": "uint256",
          "name": "maximumResurrectionTime",
          "type": "uint256"
        },
        {
          "internalType": "uint256",
          "name": "curseFee",
          "type": "uint256"
        }
      ],
      "name": "registerArchaeologist",
      "outputs": [],
      "stateMutability": "nonpayable",
      "type": "function"
    },
    {
      "inputs": [
        {
          "internalType": "string",
          "name": "peerId",
          "type": "string"
        },
        {
          "internalType": "uint256",
          "name": "minimumDiggingFeePerSecond",
          "type": "uint256"
        },
        {
          "internalType": "uint256",
          "name": "maximumRewrapInterval",
          "type": "uint256"
        },
        {
          "internalType": "uint256",
          "name": "freeBond",
          "type": "uint256"
        },
        {
          "internalType": "uint256",
          "name": "maximumResurrectionTime",
          "type": "uint256"
        },
        {
          "internalType": "uint256",
          "name": "curseFee",
          "type": "uint256"
        }
      ],
      "name": "updateArchaeologist",
      "outputs": [],
      "stateMutability": "nonpayable",
      "type": "function"
    },
    {
      "inputs": [
        {
          "internalType": "uint256",
          "name": "amount",
          "type": "uint256"
        }
      ],
      "name": "withdrawFreeBond",
      "outputs": [],
      "stateMutability": "nonpayable",
      "type": "function"
    },
    {
      "inputs": [],
      "name": "withdrawReward",
      "outputs": [],
      "stateMutability": "nonpayable",
      "type": "function"
    }
  ],
  "transactionHash": "0x4f76f5c5c6ec7e7ba6a77add6f3e9029d012aa30c9c215cbd50fc7606154766c",
  "args": [],
  "numDeployments": 1,
  "solcInputHash": "e727f1f0ec84ea034e37bd61d6f59a1b",
  "bytecode": "0x608060405234801561001057600080fd5b50612142806100206000396000f3fe608060405234801561001057600080fd5b50600436106100625760003560e01c8063364e0801146100675780636a5ac74c1461008357806395b22c721461009f578063a4110dbe146100bb578063a4d9eb43146100d7578063c885bc58146100f3575b600080fd5b610081600480360381019061007c91906114a0565b6100fd565b005b61009d600480360381019061009891906114a0565b610262565b005b6100b960048036038101906100b49190611613565b6103c9565b005b6100d560048036038101906100d091906116f2565b61061d565b005b6100f160048036038101906100ec9190611613565b610a10565b005b6100fb610cc7565b005b6000610107610e55565b905061011233610e82565b8181600b0160003373ffffffffffffffffffffffffffffffffffffffff1673ffffffffffffffffffffffffffffffffffffffff16815260200190815260200160002060040160008282546101669190611761565b925050819055508060000160009054906101000a900473ffffffffffffffffffffffffffffffffffffffff1673ffffffffffffffffffffffffffffffffffffffff1663a9059cbb33846040518363ffffffff1660e01b81526004016101cc9291906117e5565b6020604051808303816000875af11580156101eb573d6000803e3d6000fd5b505050506040513d601f19601f8201168201806040525081019061020f9190611846565b503373ffffffffffffffffffffffffffffffffffffffff167fd91b1e491a880123721b161dbbf8249668b0c546077d7ba4d0016441ca9d8f45836040516102569190611873565b60405180910390a25050565b600061026c610e55565b905061027733610e82565b8181600b0160003373ffffffffffffffffffffffffffffffffffffffff1673ffffffffffffffffffffffffffffffffffffffff16815260200190815260200160002060040160008282546102cb919061188e565b925050819055508060000160009054906101000a900473ffffffffffffffffffffffffffffffffffffffff1673ffffffffffffffffffffffffffffffffffffffff166323b872dd3330856040518463ffffffff1660e01b8152600401610333939291906118c2565b6020604051808303816000875af1158015610352573d6000803e3d6000fd5b505050506040513d601f19601f820116820180604052508101906103769190611846565b503373ffffffffffffffffffffffffffffffffffffffff167ff882a0847c57aefe6f6c7df2098dd0afd122eb0e886199e223651b8e45fda823836040516103bd9190611873565b60405180910390a25050565b60006103d3610e55565b90506103de33610e82565b60008514806103ed5750600086145b15610424576040517fdec9919f00000000000000000000000000000000000000000000000000000000815260040160405180910390fd5b600081600b0160003373ffffffffffffffffffffffffffffffffffffffff1673ffffffffffffffffffffffffffffffffffffffff16815260200190815260200160002090508781600201908161047a9190611b10565b50868160030181905550858160000181905550838160010181905550828160060181905550600085146105a8578482600b0160003373ffffffffffffffffffffffffffffffffffffffff1673ffffffffffffffffffffffffffffffffffffffff16815260200190815260200160002060040160008282546104fb919061188e565b925050819055508160000160009054906101000a900473ffffffffffffffffffffffffffffffffffffffff1673ffffffffffffffffffffffffffffffffffffffff166323b872dd3330886040518463ffffffff1660e01b8152600401610563939291906118c2565b6020604051808303816000875af1158015610582573d6000803e3d6000fd5b505050506040513d601f19601f820116820180604052508101906105a69190611846565b505b3373ffffffffffffffffffffffffffffffffffffffff167f8497b060a6072f95dc9b98911879fc0378644d084b03c80f8acdb6385609deb88260020183600301548460000154898660010154876006015460405161060b96959493929190611c77565b60405180910390a25050505050505050565b6000610627610e55565b9050600081600a0160008581526020019081526020016000209050600081600001540361068b57836040517f018da6880000000000000000000000000000000000000000000000000000000081526004016106829190611cee565b60405180910390fd5b8060020160009054906101000a900460ff16156106df57836040517f9af72b860000000000000000000000000000000000000000000000000000000081526004016106d69190611cee565b60405180910390fd5b7fffffffffffffffffffffffffffffffffffffffffffffffffffffffffffffffff81600001540361074757836040517f7c6a6d7000000000000000000000000000000000000000000000000000000000815260040161073e9190611cee565b60405180910390fd5b8060000154421015610796574281600001546040517f4827680900000000000000000000000000000000000000000000000000000000815260040161078d929190611d09565b60405180910390fd5b816005015481600001546107aa919061188e565b4211156108035742826005015482600001546107c6919061188e565b6040517f4ccffab10000000000000000000000000000000000000000000000000000000081526004016107fa929190611d09565b60405180910390fd5b600082600a016000868152602001908152602001600020600a0160003373ffffffffffffffffffffffffffffffffffffffff1673ffffffffffffffffffffffffffffffffffffffff1681526020019081526020016000209050600081600201805461086d90611933565b9050036108b157336040517f82881f030000000000000000000000000000000000000000000000000000000081526004016108a89190611d32565b60405180910390fd5b8060030160009054906101000a900460ff16156109075733856040517fa40b44230000000000000000000000000000000000000000000000000000000081526004016108fe929190611d4d565b60405180910390fd5b6000801b81600101541461095257336040517f7b06b1770000000000000000000000000000000000000000000000000000000081526004016109499190611d32565b60405180910390fd5b61095f8482600201610f1e565b6109a7573381600201856040517f5a95e91c00000000000000000000000000000000000000000000000000000000815260040161099e93929190611e20565b60405180910390fd5b8381600101819055506109ba85336111b4565b3373ffffffffffffffffffffffffffffffffffffffff16857f110eca32dd0b1dbdeaa29671186ba025abb2a6d9c193469a7214ee3244ef740486604051610a019190611cee565b60405180910390a35050505050565b6000610a1a610e55565b9050610a25336113ba565b6000851480610a345750600086145b15610a6b576040517fdec9919f00000000000000000000000000000000000000000000000000000000815260040160405180910390fd5b60006040518060e001604052808781526020018581526020018981526020018881526020018681526020016000815260200184815250905060008514610b51578160000160009054906101000a900473ffffffffffffffffffffffffffffffffffffffff1673ffffffffffffffffffffffffffffffffffffffff166323b872dd3330886040518463ffffffff1660e01b8152600401610b0c939291906118c2565b6020604051808303816000875af1158015610b2b573d6000803e3d6000fd5b505050506040513d601f19601f82011682018060405250810190610b4f9190611846565b505b8082600b0160003373ffffffffffffffffffffffffffffffffffffffff1673ffffffffffffffffffffffffffffffffffffffff16815260200190815260200160002060008201518160000155602082015181600101556040820151816002019081610bbc9190611b10565b50606082015181600301556080820151816004015560a0820151816005015560c0820151816006015590505081600801339080600181540180825580915050600190039060005260206000200160009091909190916101000a81548173ffffffffffffffffffffffffffffffffffffffff021916908373ffffffffffffffffffffffffffffffffffffffff1602179055503373ffffffffffffffffffffffffffffffffffffffff167f6b3162bc849214e57423b31909892ac678c2245d7ee3c2642c173f7036452394826040015183606001518460000151856080015186602001518760c00151604051610cb596959493929190611ec1565b60405180910390a25050505050505050565b6000610cd1610e55565b9050600081600c0160003373ffffffffffffffffffffffffffffffffffffffff1673ffffffffffffffffffffffffffffffffffffffff168152602001908152602001600020549050600082600c0160003373ffffffffffffffffffffffffffffffffffffffff1673ffffffffffffffffffffffffffffffffffffffff168152602001908152602001600020819055508160000160009054906101000a900473ffffffffffffffffffffffffffffffffffffffff1673ffffffffffffffffffffffffffffffffffffffff1663a9059cbb33836040518363ffffffff1660e01b8152600401610dbf9291906117e5565b6020604051808303816000875af1158015610dde573d6000803e3d6000fd5b505050506040513d601f19601f82011682018060405250810190610e029190611846565b503373ffffffffffffffffffffffffffffffffffffffff167fbc84835063c693975166f00cffb19f01a94c2db55b1bf259238c5da3594e506682604051610e499190611873565b60405180910390a25050565b6000807ff20877bf9d9fb9260326061ac66e420582d0e2a7736ab6a6c3afd0604e1902dd90508091505090565b6000610e8c610e55565b9050600081600b0160008473ffffffffffffffffffffffffffffffffffffffff1673ffffffffffffffffffffffffffffffffffffffff1681526020019081526020016000206000015403610f1a576001826040517f2eeb3571000000000000000000000000000000000000000000000000000000008152600401610f11929190611f38565b60405180910390fd5b5050565b600080828054610f2d90611933565b905090506000600182610f409190611761565b67ffffffffffffffff811115610f5957610f586114e8565b5b6040519080825280601f01601f191660200182016040528015610f8b5781602001600182028036833780820191505090505b5090506000600190505b828110156110575784818154610faa90611933565b8110610fb957610fb8611f61565b5b815460011615610fd85790600052602060002090602091828204019190065b9054901a7f0100000000000000000000000000000000000000000000000000000000000000028260018361100c9190611761565b8151811061101d5761101c611f61565b5b60200101907effffffffffffffffffffffffffffffffffffffffffffffffffffffffffffff1916908160001a905350806001019050610f95565b5060007f79be667ef9dcbbac55a06295ce870b07029bfcdb2dce28d959f2815b16f81798905060007f483ada7726a3c4655da4fbfc0e1108a8fd17b448a68554199c47d08ffb10d4b8905060007ffffffffffffffffffffffffffffffffebaaedce6af48a03bbfd25e8cd03641419050600060016000806002866110db9190611fbf565b036110e757601b6110ea565b601c5b8660001b85806110fd576110fc611f90565b5b888e60001c0960001b604051600081526020016040526040516111239493929190612054565b6020604051602081039080840390855afa158015611145573d6000803e3d6000fd5b505050602060405103519050600073ffffffffffffffffffffffffffffffffffffffff868051906020012060001c1690508173ffffffffffffffffffffffffffffffffffffffff168173ffffffffffffffffffffffffffffffffffffffff161497505050505050505092915050565b60006111be610e55565b9050600081600a0160008581526020019081526020016000209050600082600a016000868152602001908152602001600020600a0160008573ffffffffffffffffffffffffffffffffffffffff1673ffffffffffffffffffffffffffffffffffffffff16815260200190815260200160002090506000826001015483600001546112489190611761565b82600001546112579190612099565b90508260020160029054906101000a900460ff166112825781600401548161127f919061188e565b90505b600061271084600b0154836112979190612099565b6112a191906120db565b90508085600b0160008873ffffffffffffffffffffffffffffffffffffffff1673ffffffffffffffffffffffffffffffffffffffff16815260200190815260200160002060050160008282546112f79190611761565b925050819055508085600b0160008873ffffffffffffffffffffffffffffffffffffffff1673ffffffffffffffffffffffffffffffffffffffff1681526020019081526020016000206004016000828254611352919061188e565b925050819055508185600c0160008873ffffffffffffffffffffffffffffffffffffffff1673ffffffffffffffffffffffffffffffffffffffff16815260200190815260200160002060008282546113aa919061188e565b9250508190555050505050505050565b60006113c4610e55565b9050600081600b0160008473ffffffffffffffffffffffffffffffffffffffff1673ffffffffffffffffffffffffffffffffffffffff1681526020019081526020016000206000015414611452576000826040517f2eeb3571000000000000000000000000000000000000000000000000000000008152600401611449929190611f38565b60405180910390fd5b5050565b6000604051905090565b600080fd5b600080fd5b6000819050919050565b61147d8161146a565b811461148857600080fd5b50565b60008135905061149a81611474565b92915050565b6000602082840312156114b6576114b5611460565b5b60006114c48482850161148b565b91505092915050565b600080fd5b600080fd5b6000601f19601f8301169050919050565b7f4e487b7100000000000000000000000000000000000000000000000000000000600052604160045260246000fd5b611520826114d7565b810181811067ffffffffffffffff8211171561153f5761153e6114e8565b5b80604052505050565b6000611552611456565b905061155e8282611517565b919050565b600067ffffffffffffffff82111561157e5761157d6114e8565b5b611587826114d7565b9050602081019050919050565b82818337600083830152505050565b60006115b66115b184611563565b611548565b9050828152602081018484840111156115d2576115d16114d2565b5b6115dd848285611594565b509392505050565b600082601f8301126115fa576115f96114cd565b5b813561160a8482602086016115a3565b91505092915050565b60008060008060008060c087890312156116305761162f611460565b5b600087013567ffffffffffffffff81111561164e5761164d611465565b5b61165a89828a016115e5565b965050602061166b89828a0161148b565b955050604061167c89828a0161148b565b945050606061168d89828a0161148b565b935050608061169e89828a0161148b565b92505060a06116af89828a0161148b565b9150509295509295509295565b6000819050919050565b6116cf816116bc565b81146116da57600080fd5b50565b6000813590506116ec816116c6565b92915050565b6000806040838503121561170957611708611460565b5b6000611717858286016116dd565b9250506020611728858286016116dd565b9150509250929050565b7f4e487b7100000000000000000000000000000000000000000000000000000000600052601160045260246000fd5b600061176c8261146a565b91506117778361146a565b925082820390508181111561178f5761178e611732565b5b92915050565b600073ffffffffffffffffffffffffffffffffffffffff82169050919050565b60006117c082611795565b9050919050565b6117d0816117b5565b82525050565b6117df8161146a565b82525050565b60006040820190506117fa60008301856117c7565b61180760208301846117d6565b9392505050565b60008115159050919050565b6118238161180e565b811461182e57600080fd5b50565b6000815190506118408161181a565b92915050565b60006020828403121561185c5761185b611460565b5b600061186a84828501611831565b91505092915050565b600060208201905061188860008301846117d6565b92915050565b60006118998261146a565b91506118a48361146a565b92508282019050808211156118bc576118bb611732565b5b92915050565b60006060820190506118d760008301866117c7565b6118e460208301856117c7565b6118f160408301846117d6565b949350505050565b600081519050919050565b7f4e487b7100000000000000000000000000000000000000000000000000000000600052602260045260246000fd5b6000600282049050600182168061194b57607f821691505b60208210810361195e5761195d611904565b5b50919050565b60008190508160005260206000209050919050565b60006020601f8301049050919050565b600082821b905092915050565b6000600883026119c67fffffffffffffffffffffffffffffffffffffffffffffffffffffffffffffffff82611989565b6119d08683611989565b95508019841693508086168417925050509392505050565b6000819050919050565b6000611a0d611a08611a038461146a565b6119e8565b61146a565b9050919050565b6000819050919050565b611a27836119f2565b611a3b611a3382611a14565b848454611996565b825550505050565b600090565b611a50611a43565b611a5b818484611a1e565b505050565b5b81811015611a7f57611a74600082611a48565b600181019050611a61565b5050565b601f821115611ac457611a9581611964565b611a9e84611979565b81016020851015611aad578190505b611ac1611ab985611979565b830182611a60565b50505b505050565b600082821c905092915050565b6000611ae760001984600802611ac9565b1980831691505092915050565b6000611b008383611ad6565b9150826002028217905092915050565b611b19826118f9565b67ffffffffffffffff811115611b3257611b316114e8565b5b611b3c8254611933565b611b47828285611a83565b600060209050601f831160018114611b7a5760008415611b68578287015190505b611b728582611af4565b865550611bda565b601f198416611b8886611964565b60005b82811015611bb057848901518255600182019150602085019450602081019050611b8b565b86831015611bcd5784890151611bc9601f891682611ad6565b8355505b6001600288020188555050505b505050505050565b600082825260208201905092915050565b60008154611c0081611933565b611c0a8186611be2565b94506001821660008114611c255760018114611c3b57611c6e565b60ff198316865281151560200286019350611c6e565b611c4485611964565b60005b83811015611c6657815481890152600182019150602081019050611c47565b808801955050505b50505092915050565b600060c0820190508181036000830152611c918189611bf3565b9050611ca060208301886117d6565b611cad60408301876117d6565b611cba60608301866117d6565b611cc760808301856117d6565b611cd460a08301846117d6565b979650505050505050565b611ce8816116bc565b82525050565b6000602082019050611d036000830184611cdf565b92915050565b6000604082019050611d1e60008301856117d6565b611d2b60208301846117d6565b9392505050565b6000602082019050611d4760008301846117c7565b92915050565b6000604082019050611d6260008301856117c7565b611d6f6020830184611cdf565b9392505050565b600082825260208201905092915050565b60008190508160005260206000209050919050565b60008154611da981611933565b611db38186611d76565b94506001821660008114611dce5760018114611de457611e17565b60ff198316865281151560200286019350611e17565b611ded85611d87565b60005b83811015611e0f57815481890152600182019150602081019050611df0565b808801955050505b50505092915050565b6000606082019050611e3560008301866117c7565b8181036020830152611e478185611d9c565b9050611e566040830184611cdf565b949350505050565b60005b83811015611e7c578082015181840152602081019050611e61565b60008484015250505050565b6000611e93826118f9565b611e9d8185611be2565b9350611ead818560208601611e5e565b611eb6816114d7565b840191505092915050565b600060c0820190508181036000830152611edb8189611e88565b9050611eea60208301886117d6565b611ef760408301876117d6565b611f0460608301866117d6565b611f1160808301856117d6565b611f1e60a08301846117d6565b979650505050505050565b611f328161180e565b82525050565b6000604082019050611f4d6000830185611f29565b611f5a60208301846117c7565b9392505050565b7f4e487b7100000000000000000000000000000000000000000000000000000000600052603260045260246000fd5b7f4e487b7100000000000000000000000000000000000000000000000000000000600052601260045260246000fd5b6000611fca8261146a565b9150611fd58361146a565b925082611fe557611fe4611f90565b5b828206905092915050565b6000819050919050565b60008160001b9050919050565b600061202261201d61201884611ff0565b611ffa565b6116bc565b9050919050565b61203281612007565b82525050565b600060ff82169050919050565b61204e81612038565b82525050565b60006080820190506120696000830187612029565b6120766020830186612045565b6120836040830185611cdf565b6120906060830184611cdf565b95945050505050565b60006120a48261146a565b91506120af8361146a565b92508282026120bd8161146a565b915082820484148315176120d4576120d3611732565b5b5092915050565b60006120e68261146a565b91506120f18361146a565b92508261210157612100611f90565b5b82820490509291505056fea26469706673582212206884388cc017682e4e5a226ddb68518e7496e2b9327fc007cf235e79e884cace64736f6c63430008120033",
  "devdoc": {
    "errors": {
      "ArchaeologistAlreadyPublishedPrivateKey(address)": [
        {
          "params": {
            "archaeologistAddress": "address of publishing archaeologist"
          }
        }
      ],
      "ArchaeologistHasBeenAccused(address,bytes32)": [
        {
          "params": {
            "archaeologistAddress": "Address of accused archaeologist who is attempting to publish their private key",
            "sarcoId": "ID of sarcophagus archaeologist has attempted to publish a key on"
          }
        }
      ],
      "ArchaeologistPublishedIncorrectPrivateKey(address,bytes,bytes32)": [
        {
          "params": {
            "archaeologistAddress": "address of publishing archaeologist",
            "privateKey": "privateKey the archaeologist has attempted to publish",
            "publicKey": "publicKey stored for archaeologist on the sarcophagus"
          }
        }
      ],
      "TooEarlyForPublish(uint256,uint256)": [
        {
          "params": {
            "currentTime": "Timestamp of the failed publish attempt",
            "resurrectionTime": "Time after which the sarcophagus can be resurrected"
          }
        }
      ],
      "TooLateForPublish(uint256,uint256)": [
        {
          "params": {
            "currentTime": "Timestamp of the failed publish attempt",
            "publishDeadline": "Time after which the sarcophagus can no longer be resurrected  (resurrectionTime + gracePeriod)"
          }
        }
      ]
    },
    "events": {
      "PublishPrivateKey(bytes32,bytes32,address)": {
        "params": {
          "privateKey": "private key that has been published",
          "sarcoId": "ID of sarcophagus archaeologist has published the private key on"
        }
      }
    },
    "kind": "dev",
    "methods": {
      "depositFreeBond(uint256)": {
        "params": {
          "amount": "The amount to deposit"
        }
      },
      "publishPrivateKey(bytes32,bytes32)": {
        "params": {
          "privateKey": "The private key the archaeologist is publishing",
          "sarcoId": "The identifier of the sarcophagus for which the archaeologist is responsible"
        }
      },
      "registerArchaeologist(string,uint256,uint256,uint256,uint256,uint256)": {
        "params": {
          "curseFee": "The fee the archaeologist sets to roughly cover the cost of a publishPrivateKey transaction",
          "freeBond": "How much bond the archaeologist wants to deposit during the register call (if any)",
          "maximumResurrectionTime": "The time beyond which the archaeologist is not willing to accept new curses or rewraps",
          "maximumRewrapInterval": "The longest interval of time from a rewrap time the arch will accept for a resurrection",
          "minimumDiggingFeePerSecond": "The archaeologist's minimum amount to earn per second for being cursed",
          "peerId": "The libp2p identifier for the archaeologist"
        }
      },
      "updateArchaeologist(string,uint256,uint256,uint256,uint256,uint256)": {
        "params": {
          "curseFee": "The fee the archaeologist sets to roughly cover the cost of a publishPrivateKey transaction",
          "freeBond": "How much bond the archaeologist wants to deposit during the update call (if any)",
          "maximumRewrapInterval": "The longest interval of time from a rewrap time the arch will accept for a resurrection",
          "minimumDiggingFeePerSecond": "The archaeologist's minimum amount to earn per second for being cursed",
          "peerId": "The libp2p identifier for the archaeologist"
        }
      },
      "withdrawFreeBond(uint256)": {
        "params": {
          "amount": "The amount to withdraw"
        }
      }
    },
    "version": 1
  },
  "userdoc": {
    "errors": {
      "ArchaeologistAlreadyPublishedPrivateKey(address)": [
        {
          "notice": "Archaeologist has attempted to publish a key for a sarcophagus twice"
        }
      ],
      "ArchaeologistHasBeenAccused(address,bytes32)": [
        {
          "notice": "An archaeologist that has already been successfully accused has attempted to publish their private key"
        }
      ],
      "ArchaeologistPublishedIncorrectPrivateKey(address,bytes,bytes32)": [
        {
          "notice": "Archaeologist has attempted to publish the incorrect private key for a sarcophagus"
        }
      ],
      "CannotSetZeroProfileValue()": [
        {
          "notice": "Archaeologist has attempted to set a zero minimumDiggingFeePerSecond or maximumRewrapInterval"
        }
      ],
      "TooEarlyForPublish(uint256,uint256)": [
        {
          "notice": "Archaeologist has attempted to publish a key before the resurrection time"
        }
      ],
      "TooLateForPublish(uint256,uint256)": [
        {
          "notice": "Archaeologist has attempted to publish a key after the end of the resurrection window"
        }
      ]
    },
    "events": {
      "PublishPrivateKey(bytes32,bytes32,address)": {
        "notice": "Emitted when an archaeologist successfully publishes their private key for a sarcophagus"
      }
    },
    "kind": "user",
    "methods": {
      "depositFreeBond(uint256)": {
        "notice": "Deposits an archaeologist's free bond to the contract."
      },
      "publishPrivateKey(bytes32,bytes32)": {
        "notice": "Publishes the private key for which the archaeologist is responsible during the sarcophagus resurrection window. Pays digging fees to the archaeologist and releases their locked bond. Cannot be called on a compromised or buried sarcophagus."
      },
      "registerArchaeologist(string,uint256,uint256,uint256,uint256,uint256)": {
        "notice": "Registers the archaeologist profile"
      },
      "updateArchaeologist(string,uint256,uint256,uint256,uint256,uint256)": {
        "notice": "Updates the archaeologist profile"
      },
      "withdrawFreeBond(uint256)": {
        "notice": "Withdraws an archaeologist's free bond from the contract."
      },
      "withdrawReward()": {
        "notice": "Withdraws all rewards from an archaeologist's reward pool"
      }
    },
    "version": 1
  },
  "storageLayout": {
    "storage": [],
    "types": null
  }
}