{
  "address": "0x941B0319c0B1090810fbA842b372E9F0795B2A96",
  "abi": [
    {
      "inputs": [],
      "name": "CallerIsNotAdminOrOwner",
      "type": "error"
    },
    {
      "inputs": [],
      "name": "CannotSetZeroValue",
      "type": "error"
    },
    {
      "inputs": [],
      "name": "ZeroAddress",
      "type": "error"
    },
    {
      "anonymous": false,
      "inputs": [
        {
          "indexed": true,
          "internalType": "address",
          "name": "previousAdmin",
          "type": "address"
        },
        {
          "indexed": true,
          "internalType": "address",
          "name": "newAdmin",
          "type": "address"
        }
      ],
      "name": "AdminTransferred",
      "type": "event"
    },
    {
      "anonymous": false,
      "inputs": [
        {
          "indexed": false,
          "internalType": "uint256",
          "name": "cursedBondPercentage",
          "type": "uint256"
        }
      ],
      "name": "SetCursedBondPercentage",
      "type": "event"
    },
    {
      "anonymous": false,
      "inputs": [
        {
          "indexed": false,
          "internalType": "uint256",
          "name": "embalmerClaimWindow",
          "type": "uint256"
        }
      ],
      "name": "SetEmbalmerClaimWindow",
      "type": "event"
    },
    {
      "anonymous": false,
      "inputs": [
        {
          "indexed": false,
          "internalType": "uint256",
          "name": "expirationThreshold",
          "type": "uint256"
        }
      ],
      "name": "SetExpirationThreshold",
      "type": "event"
    },
    {
      "anonymous": false,
      "inputs": [
        {
          "indexed": false,
          "internalType": "uint256",
          "name": "gracePeriod",
          "type": "uint256"
        }
      ],
      "name": "SetGracePeriod",
      "type": "event"
    },
    {
      "anonymous": false,
      "inputs": [
        {
          "indexed": false,
          "internalType": "uint256",
          "name": "protocolFeeBasePercentage",
          "type": "uint256"
        }
      ],
      "name": "SetProtocolFeeBasePercentage",
      "type": "event"
    },
    {
      "anonymous": false,
      "inputs": [
        {
          "indexed": false,
          "internalType": "uint256",
          "name": "totalProtocolFees",
          "type": "uint256"
        },
        {
          "indexed": false,
          "internalType": "address",
          "name": "withdrawalAddress",
          "type": "address"
        }
      ],
      "name": "WithdrawProtocolFees",
      "type": "event"
    },
    {
      "inputs": [],
      "name": "getDiamondOwner",
      "outputs": [
        {
          "internalType": "address",
          "name": "",
          "type": "address"
        }
      ],
      "stateMutability": "view",
      "type": "function"
    },
    {
      "inputs": [
        {
          "internalType": "uint256",
          "name": "cursedBondPercentage",
          "type": "uint256"
        }
      ],
      "name": "setCursedBondPercentage",
      "outputs": [],
      "stateMutability": "nonpayable",
      "type": "function"
    },
    {
      "inputs": [
        {
          "internalType": "uint256",
          "name": "embalmerClaimWindow",
          "type": "uint256"
        }
      ],
      "name": "setEmbalmerClaimWindow",
      "outputs": [],
      "stateMutability": "nonpayable",
      "type": "function"
    },
    {
      "inputs": [
        {
          "internalType": "uint256",
          "name": "expirationThreshold",
          "type": "uint256"
        }
      ],
      "name": "setExpirationThreshold",
      "outputs": [],
      "stateMutability": "nonpayable",
      "type": "function"
    },
    {
      "inputs": [
        {
          "internalType": "uint256",
          "name": "gracePeriod",
          "type": "uint256"
        }
      ],
      "name": "setGracePeriod",
      "outputs": [],
      "stateMutability": "nonpayable",
      "type": "function"
    },
    {
      "inputs": [
        {
          "internalType": "uint256",
          "name": "protocolFeeBasePercentage",
          "type": "uint256"
        }
      ],
      "name": "setProtocolFeeBasePercentage",
      "outputs": [],
      "stateMutability": "nonpayable",
      "type": "function"
    },
    {
      "inputs": [
        {
          "internalType": "address",
          "name": "newAdmin",
          "type": "address"
        }
      ],
      "name": "transferAdmin",
      "outputs": [],
      "stateMutability": "nonpayable",
      "type": "function"
    },
    {
      "inputs": [
        {
          "internalType": "address",
          "name": "newOwner",
          "type": "address"
        }
      ],
      "name": "transferDiamondOwner",
      "outputs": [],
      "stateMutability": "nonpayable",
      "type": "function"
    },
    {
      "inputs": [
        {
          "internalType": "address",
          "name": "withdrawalAddress",
          "type": "address"
        }
      ],
      "name": "withdrawProtocolFees",
      "outputs": [],
      "stateMutability": "nonpayable",
      "type": "function"
    }
  ],
  "transactionHash": "0x858cfdedbad263ab76e3d8f7444469b9a635bd52031ecf635d45c7dc37813b7f",
  "args": [],
  "numDeployments": 1,
  "solcInputHash": "69b6ccc89b7eaa4e346529a9a529edba",
  "bytecode": "0x608060405234801561001057600080fd5b5061104d806100206000396000f3fe608060405234801561001057600080fd5b50600436106100935760003560e01c8063682e4e5f11610066578063682e4e5f1461010857806375829def146101265780638a5b569014610142578063a828c4791461015e578063f2f659601461017a57610093565b8063274f255e146100985780632d80caa5146100b45780633a805a3c146100d05780636430ae6a146100ec575b600080fd5b6100b260048036038101906100ad9190610db1565b610196565b005b6100ce60048036038101906100c99190610e3c565b6102bd565b005b6100ea60048036038101906100e59190610e3c565b610494565b005b61010660048036038101906101019190610db1565b6104a8565b005b610110610609565b60405161011d9190610e78565b60405180910390f35b610140600480360381019061013b9190610e3c565b610618565b005b61015c60048036038101906101579190610db1565b610802565b005b61017860048036038101906101739190610db1565b610929565b005b610194600480360381019061018f9190610db1565b610a50565b005b60006101a0610b77565b90508060010160009054906101000a900473ffffffffffffffffffffffffffffffffffffffff1673ffffffffffffffffffffffffffffffffffffffff163373ffffffffffffffffffffffffffffffffffffffff16141580156102355750610205610ba4565b73ffffffffffffffffffffffffffffffffffffffff163373ffffffffffffffffffffffffffffffffffffffff1614155b1561026c576040517fe94bce8700000000000000000000000000000000000000000000000000000000815260040160405180910390fd5b6000610276610b77565b90508281600701819055507f3d58bff47ca074037a5dcd57740255670d45843115cca9c9bc442eb6d3f0ad78836040516102b09190610ea2565b60405180910390a1505050565b60006102c7610b77565b90508060010160009054906101000a900473ffffffffffffffffffffffffffffffffffffffff1673ffffffffffffffffffffffffffffffffffffffff163373ffffffffffffffffffffffffffffffffffffffff161415801561035c575061032c610ba4565b73ffffffffffffffffffffffffffffffffffffffff163373ffffffffffffffffffffffffffffffffffffffff1614155b15610393576040517fe94bce8700000000000000000000000000000000000000000000000000000000815260040160405180910390fd5b600061039d610b77565b9050600081600201549050600082600201819055508160000160009054906101000a900473ffffffffffffffffffffffffffffffffffffffff1673ffffffffffffffffffffffffffffffffffffffff1663a9059cbb85836040518363ffffffff1660e01b8152600401610411929190610ebd565b6020604051808303816000875af1158015610430573d6000803e3d6000fd5b505050506040513d601f19601f820116820180604052508101906104549190610f1e565b507f7baf2b6a1777e2a34a2dcddad43c098eb5ab5b5c7a1f3c8ec4872863265244f48185604051610486929190610f4b565b60405180910390a150505050565b61049c610bd7565b6104a581610c72565b50565b60006104b2610b77565b90508060010160009054906101000a900473ffffffffffffffffffffffffffffffffffffffff1673ffffffffffffffffffffffffffffffffffffffff163373ffffffffffffffffffffffffffffffffffffffff16141580156105475750610517610ba4565b73ffffffffffffffffffffffffffffffffffffffff163373ffffffffffffffffffffffffffffffffffffffff1614155b1561057e576040517fe94bce8700000000000000000000000000000000000000000000000000000000815260040160405180910390fd5b6000610588610b77565b9050600083036105c4576040517f4a8fadb900000000000000000000000000000000000000000000000000000000815260040160405180910390fd5b8281600401819055507f4aeca9f26d25b33ee1b2c061ab4a849de97bfb592e7dfb276c9ded12d0ad56a2836040516105fc9190610ea2565b60405180910390a1505050565b6000610613610ba4565b905090565b6000610622610b77565b90508060010160009054906101000a900473ffffffffffffffffffffffffffffffffffffffff1673ffffffffffffffffffffffffffffffffffffffff163373ffffffffffffffffffffffffffffffffffffffff16141580156106b75750610687610ba4565b73ffffffffffffffffffffffffffffffffffffffff163373ffffffffffffffffffffffffffffffffffffffff1614155b156106ee576040517fe94bce8700000000000000000000000000000000000000000000000000000000815260040160405180910390fd5b60006106f8610b77565b9050600073ffffffffffffffffffffffffffffffffffffffff168373ffffffffffffffffffffffffffffffffffffffff1603610760576040517fd92e233d00000000000000000000000000000000000000000000000000000000815260040160405180910390fd5b828160010160006101000a81548173ffffffffffffffffffffffffffffffffffffffff021916908373ffffffffffffffffffffffffffffffffffffffff1602179055508273ffffffffffffffffffffffffffffffffffffffff163373ffffffffffffffffffffffffffffffffffffffff167ff8ccb027dfcd135e000e9d45e6cc2d662578a8825d4c45b5e32e0adf67e79ec660405160405180910390a3505050565b600061080c610b77565b90508060010160009054906101000a900473ffffffffffffffffffffffffffffffffffffffff1673ffffffffffffffffffffffffffffffffffffffff163373ffffffffffffffffffffffffffffffffffffffff16141580156108a15750610871610ba4565b73ffffffffffffffffffffffffffffffffffffffff163373ffffffffffffffffffffffffffffffffffffffff1614155b156108d8576040517fe94bce8700000000000000000000000000000000000000000000000000000000815260040160405180910390fd5b60006108e2610b77565b90508281600301819055507f4768bb3a79cb8de7ec3c4c950f9f76fbe4588407c214998efbf648001c858e9b8360405161091c9190610ea2565b60405180910390a1505050565b6000610933610b77565b90508060010160009054906101000a900473ffffffffffffffffffffffffffffffffffffffff1673ffffffffffffffffffffffffffffffffffffffff163373ffffffffffffffffffffffffffffffffffffffff16141580156109c85750610998610ba4565b73ffffffffffffffffffffffffffffffffffffffff163373ffffffffffffffffffffffffffffffffffffffff1614155b156109ff576040517fe94bce8700000000000000000000000000000000000000000000000000000000815260040160405180910390fd5b6000610a09610b77565b90508281600601819055507f047ca17cdae34ccbd8db62138d05e11962458ffd86009620909ba6ad606282ad83604051610a439190610ea2565b60405180910390a1505050565b6000610a5a610b77565b90508060010160009054906101000a900473ffffffffffffffffffffffffffffffffffffffff1673ffffffffffffffffffffffffffffffffffffffff163373ffffffffffffffffffffffffffffffffffffffff1614158015610aef5750610abf610ba4565b73ffffffffffffffffffffffffffffffffffffffff163373ffffffffffffffffffffffffffffffffffffffff1614155b15610b26576040517fe94bce8700000000000000000000000000000000000000000000000000000000815260040160405180910390fd5b6000610b30610b77565b90508281600501819055507f848ba7852320e491d84ddc22f1f12fe48672aa22757fc4452703c9046d9982d783604051610b6a9190610ea2565b60405180910390a1505050565b6000807ff20877bf9d9fb9260326061ac66e420582d0e2a7736ab6a6c3afd0604e1902dd90508091505090565b6000610bae610d49565b60040160009054906101000a900473ffffffffffffffffffffffffffffffffffffffff16905090565b610bdf610d49565b60040160009054906101000a900473ffffffffffffffffffffffffffffffffffffffff1673ffffffffffffffffffffffffffffffffffffffff163373ffffffffffffffffffffffffffffffffffffffff1614610c70576040517f08c379a0000000000000000000000000000000000000000000000000000000008152600401610c6790610ff7565b60405180910390fd5b565b6000610c7c610d49565b905060008160040160009054906101000a900473ffffffffffffffffffffffffffffffffffffffff169050828260040160006101000a81548173ffffffffffffffffffffffffffffffffffffffff021916908373ffffffffffffffffffffffffffffffffffffffff1602179055508273ffffffffffffffffffffffffffffffffffffffff168173ffffffffffffffffffffffffffffffffffffffff167f8be0079c531659141344cd1fd0a4f28419497f9722a3daafe3b4186f6b6457e060405160405180910390a3505050565b6000807fc8fcad8db84d3cc18b4c41d551ea0ee66dd599cde068d998e57d5e09332c131c90508091505090565b600080fd5b6000819050919050565b610d8e81610d7b565b8114610d9957600080fd5b50565b600081359050610dab81610d85565b92915050565b600060208284031215610dc757610dc6610d76565b5b6000610dd584828501610d9c565b91505092915050565b600073ffffffffffffffffffffffffffffffffffffffff82169050919050565b6000610e0982610dde565b9050919050565b610e1981610dfe565b8114610e2457600080fd5b50565b600081359050610e3681610e10565b92915050565b600060208284031215610e5257610e51610d76565b5b6000610e6084828501610e27565b91505092915050565b610e7281610dfe565b82525050565b6000602082019050610e8d6000830184610e69565b92915050565b610e9c81610d7b565b82525050565b6000602082019050610eb76000830184610e93565b92915050565b6000604082019050610ed26000830185610e69565b610edf6020830184610e93565b9392505050565b60008115159050919050565b610efb81610ee6565b8114610f0657600080fd5b50565b600081519050610f1881610ef2565b92915050565b600060208284031215610f3457610f33610d76565b5b6000610f4284828501610f09565b91505092915050565b6000604082019050610f606000830185610e93565b610f6d6020830184610e69565b9392505050565b600082825260208201905092915050565b7f4c69624469616d6f6e643a204d75737420626520636f6e7472616374206f776e60008201527f6572000000000000000000000000000000000000000000000000000000000000602082015250565b6000610fe1602283610f74565b9150610fec82610f85565b604082019050919050565b6000602082019050818103600083015261101081610fd4565b905091905056fea2646970667358221220c1ee567769cc75d5c64970b29b4fd9c8e28d7768ced7de766c8f75c9ac317ec864736f6c63430008120033",
  "devdoc": {
    "kind": "dev",
    "methods": {
      "setCursedBondPercentage(uint256)": {
        "params": {
          "cursedBondPercentage": "ratio to set."
        }
      },
      "setEmbalmerClaimWindow(uint256)": {
        "params": {
          "embalmerClaimWindow": "to set"
        }
      },
      "setExpirationThreshold(uint256)": {
        "params": {
          "expirationThreshold": "to set"
        }
      },
      "setGracePeriod(uint256)": {
        "params": {
          "gracePeriod": "to set"
        }
      },
      "setProtocolFeeBasePercentage(uint256)": {
        "params": {
          "protocolFeeBasePercentage": "percentage to set"
        }
      },
      "transferAdmin(address)": {
        "params": {
          "newAdmin": "to set"
        }
      },
      "transferDiamondOwner(address)": {
        "params": {
          "newOwner": "to set"
        }
      },
      "withdrawProtocolFees(address)": {
        "params": {
          "withdrawalAddress": "- the address to withdraw funds to"
        }
      }
    },
    "version": 1
  },
  "userdoc": {
    "errors": {
      "CallerIsNotAdminOrOwner()": [
        {
          "notice": "Caller must be the admin address"
        }
      ],
      "CannotSetZeroValue()": [
        {
          "notice": "Admin has attempted to set a zero value"
        }
      ],
      "ZeroAddress()": [
        {
          "notice": "Provided address cannot be zero address"
        }
      ]
    },
    "kind": "user",
    "methods": {
      "getDiamondOwner()": {
        "notice": "Returns current owner of Diamond contract."
      },
      "setCursedBondPercentage(uint256)": {
        "notice": "Sets the digging fee / cursed bond ratioThe denominator is 10000 used to calculate how much bond archaeologists must lock per curse."
      },
      "setEmbalmerClaimWindow(uint256)": {
        "notice": "Updates the embalmerClaimWindowDenominated in seconds"
      },
      "setExpirationThreshold(uint256)": {
        "notice": "Updates the expirationThreshold used during sarcophagus creationDenominated in seconds"
      },
      "setGracePeriod(uint256)": {
        "notice": "Updates the resurrection grace periodDenominated in seconds"
      },
      "setProtocolFeeBasePercentage(uint256)": {
        "notice": "Sets the protocol fee base percentage, used to calculate protocol feesThe denominator is 10000"
      },
      "transferAdmin(address)": {
        "notice": "Transfers admin address to newAdmin."
      },
      "transferDiamondOwner(address)": {
        "notice": "Transfers diamond owner to new owner."
      },
      "withdrawProtocolFees(address)": {
        "notice": "Withdraws the total protocol fee amount from the contract to the specified address"
      }
    },
    "notice": "Caller of any function in this facet must be the admin address",
    "version": 1
  },
  "storageLayout": {
    "storage": [],
    "types": null
  }
}