{
  "address": "0x16482072356309773cBd24DA9b3f5EAba1aB84Ed",
  "abi": [
    {
      "inputs": [],
      "name": "CannotSetZeroValue",
      "type": "error"
    },
    {
      "anonymous": false,
      "inputs": [
        {
          "indexed": false,
          "internalType": "uint256",
          "name": "cursedBondPercentage",
          "type": "uint256"
        }
      ],
      "name": "SetCursedBondPercentage",
      "type": "event"
    },
    {
      "anonymous": false,
      "inputs": [
        {
          "indexed": false,
          "internalType": "uint256",
          "name": "embalmerClaimWindow",
          "type": "uint256"
        }
      ],
      "name": "SetEmbalmerClaimWindow",
      "type": "event"
    },
    {
      "anonymous": false,
      "inputs": [
        {
          "indexed": false,
          "internalType": "uint256",
          "name": "expirationThreshold",
          "type": "uint256"
        }
      ],
      "name": "SetExpirationThreshold",
      "type": "event"
    },
    {
      "anonymous": false,
      "inputs": [
        {
          "indexed": false,
          "internalType": "uint256",
          "name": "gracePeriod",
          "type": "uint256"
        }
      ],
      "name": "SetGracePeriod",
      "type": "event"
    },
    {
      "anonymous": false,
      "inputs": [
        {
          "indexed": false,
          "internalType": "uint256",
          "name": "protocolFeeBasePercentage",
          "type": "uint256"
        }
      ],
      "name": "SetProtocolFeeBasePercentage",
      "type": "event"
    },
    {
      "anonymous": false,
      "inputs": [],
      "name": "WithdrawProtocolFees",
      "type": "event"
    },
    {
      "inputs": [
        {
          "internalType": "uint256",
          "name": "cursedBondPercentage",
          "type": "uint256"
        }
      ],
      "name": "setCursedBondPercentage",
      "outputs": [],
      "stateMutability": "nonpayable",
      "type": "function"
    },
    {
      "inputs": [
        {
          "internalType": "uint256",
          "name": "embalmerClaimWindow",
          "type": "uint256"
        }
      ],
      "name": "setEmbalmerClaimWindow",
      "outputs": [],
      "stateMutability": "nonpayable",
      "type": "function"
    },
    {
      "inputs": [
        {
          "internalType": "uint256",
          "name": "expirationThreshold",
          "type": "uint256"
        }
      ],
      "name": "setExpirationThreshold",
      "outputs": [],
      "stateMutability": "nonpayable",
      "type": "function"
    },
    {
      "inputs": [
        {
          "internalType": "uint256",
          "name": "gracePeriod",
          "type": "uint256"
        }
      ],
      "name": "setGracePeriod",
      "outputs": [],
      "stateMutability": "nonpayable",
      "type": "function"
    },
    {
      "inputs": [
        {
          "internalType": "uint256",
          "name": "protocolFeeBasePercentage",
          "type": "uint256"
        }
      ],
      "name": "setProtocolFeeBasePercentage",
      "outputs": [],
      "stateMutability": "nonpayable",
      "type": "function"
    },
    {
      "inputs": [],
      "name": "withdrawProtocolFees",
      "outputs": [],
      "stateMutability": "nonpayable",
      "type": "function"
    }
  ],
  "transactionHash": "0x8d3823963d303f9d4b66c2d2f0e5c3a5b82cf8084de3c00f2473b0b2905db8a7",
  "args": [],
  "numDeployments": 3,
  "solcInputHash": "a78177bbb4eca976d6acf6d6eb39b5ad",
  "bytecode": "0x608060405234801561001057600080fd5b50610c6d806100206000396000f3fe608060405234801561001057600080fd5b50600436106100625760003560e01c8063274f255e146100675780636430ae6a146100835780638795cccb1461009f5780638a5b5690146100a9578063a828c479146100c5578063f2f65960146100e1575b600080fd5b610081600480360381019061007c91906107df565b6100fd565b005b61009d600480360381019061009891906107df565b610155565b005b6100a76101e7565b005b6100c360048036038101906100be91906107df565b61028d565b005b6100df60048036038101906100da91906107df565b6102e5565b005b6100fb60048036038101906100f691906107df565b61033d565b005b6000610107610395565b90506101116103c2565b8181600601819055507f3d58bff47ca074037a5dcd57740255670d45843115cca9c9bc442eb6d3f0ad7882604051610149919061081b565b60405180910390a15050565b600061015f610395565b90506101696103c2565b600082036101a3576040517f4a8fadb900000000000000000000000000000000000000000000000000000000815260040160405180910390fd5b8181600301819055507f4aeca9f26d25b33ee1b2c061ab4a849de97bfb592e7dfb276c9ded12d0ad56a2826040516101db919061081b565b60405180910390a15050565b60006101f1610395565b90506101fb6103c2565b6000816001015490506000826001018190555061025d33828460000160009054906101000a900473ffffffffffffffffffffffffffffffffffffffff1673ffffffffffffffffffffffffffffffffffffffff1661045d9092919063ffffffff16565b7f558eb14a73cb63759eec52b44eec0095bd8c7a232c14f47442e841e39fdff99460405160405180910390a15050565b6000610297610395565b90506102a16103c2565b8181600201819055507f4768bb3a79cb8de7ec3c4c950f9f76fbe4588407c214998efbf648001c858e9b826040516102d9919061081b565b60405180910390a15050565b60006102ef610395565b90506102f96103c2565b8181600501819055507f047ca17cdae34ccbd8db62138d05e11962458ffd86009620909ba6ad606282ad82604051610331919061081b565b60405180910390a15050565b6000610347610395565b90506103516103c2565b8181600401819055507f848ba7852320e491d84ddc22f1f12fe48672aa22757fc4452703c9046d9982d782604051610389919061081b565b60405180910390a15050565b6000807f2319d9fa277d38834e73ba5e2482efd90323373359a32bb0c96b78353987994190508091505090565b6103ca6104e3565b60040160009054906101000a900473ffffffffffffffffffffffffffffffffffffffff1673ffffffffffffffffffffffffffffffffffffffff163373ffffffffffffffffffffffffffffffffffffffff161461045b576040517f08c379a0000000000000000000000000000000000000000000000000000000008152600401610452906108b9565b60405180910390fd5b565b6104de8363a9059cbb60e01b848460405160240161047c92919061091a565b604051602081830303815290604052907bffffffffffffffffffffffffffffffffffffffffffffffffffffffff19166020820180517bffffffffffffffffffffffffffffffffffffffffffffffffffffffff8381831617835250505050610510565b505050565b6000807fc8fcad8db84d3cc18b4c41d551ea0ee66dd599cde068d998e57d5e09332c131c90508091505090565b6000610572826040518060400160405280602081526020017f5361666545524332303a206c6f772d6c6576656c2063616c6c206661696c65648152508573ffffffffffffffffffffffffffffffffffffffff166105d79092919063ffffffff16565b90506000815111156105d25780806020019051810190610592919061097b565b6105d1576040517f08c379a00000000000000000000000000000000000000000000000000000000081526004016105c890610a1a565b60405180910390fd5b5b505050565b60606105e684846000856105ef565b90509392505050565b606082471015610634576040517f08c379a000000000000000000000000000000000000000000000000000000000815260040161062b90610aac565b60405180910390fd5b6000808673ffffffffffffffffffffffffffffffffffffffff16858760405161065d9190610b3d565b60006040518083038185875af1925050503d806000811461069a576040519150601f19603f3d011682016040523d82523d6000602084013e61069f565b606091505b50915091506106b0878383876106bc565b92505050949350505050565b6060831561071e576000835103610716576106d685610731565b610715576040517f08c379a000000000000000000000000000000000000000000000000000000000815260040161070c90610ba0565b60405180910390fd5b5b829050610729565b6107288383610754565b5b949350505050565b6000808273ffffffffffffffffffffffffffffffffffffffff163b119050919050565b6000825111156107675781518083602001fd5b806040517f08c379a000000000000000000000000000000000000000000000000000000000815260040161079b9190610c15565b60405180910390fd5b600080fd5b6000819050919050565b6107bc816107a9565b81146107c757600080fd5b50565b6000813590506107d9816107b3565b92915050565b6000602082840312156107f5576107f46107a4565b5b6000610803848285016107ca565b91505092915050565b610815816107a9565b82525050565b6000602082019050610830600083018461080c565b92915050565b600082825260208201905092915050565b7f4c69624469616d6f6e643a204d75737420626520636f6e7472616374206f776e60008201527f6572000000000000000000000000000000000000000000000000000000000000602082015250565b60006108a3602283610836565b91506108ae82610847565b604082019050919050565b600060208201905081810360008301526108d281610896565b9050919050565b600073ffffffffffffffffffffffffffffffffffffffff82169050919050565b6000610904826108d9565b9050919050565b610914816108f9565b82525050565b600060408201905061092f600083018561090b565b61093c602083018461080c565b9392505050565b60008115159050919050565b61095881610943565b811461096357600080fd5b50565b6000815190506109758161094f565b92915050565b600060208284031215610991576109906107a4565b5b600061099f84828501610966565b91505092915050565b7f5361666545524332303a204552433230206f7065726174696f6e20646964206e60008201527f6f74207375636365656400000000000000000000000000000000000000000000602082015250565b6000610a04602a83610836565b9150610a0f826109a8565b604082019050919050565b60006020820190508181036000830152610a33816109f7565b9050919050565b7f416464726573733a20696e73756666696369656e742062616c616e636520666f60008201527f722063616c6c0000000000000000000000000000000000000000000000000000602082015250565b6000610a96602683610836565b9150610aa182610a3a565b604082019050919050565b60006020820190508181036000830152610ac581610a89565b9050919050565b600081519050919050565b600081905092915050565b60005b83811015610b00578082015181840152602081019050610ae5565b60008484015250505050565b6000610b1782610acc565b610b218185610ad7565b9350610b31818560208601610ae2565b80840191505092915050565b6000610b498284610b0c565b915081905092915050565b7f416464726573733a2063616c6c20746f206e6f6e2d636f6e7472616374000000600082015250565b6000610b8a601d83610836565b9150610b9582610b54565b602082019050919050565b60006020820190508181036000830152610bb981610b7d565b9050919050565b600081519050919050565b6000601f19601f8301169050919050565b6000610be782610bc0565b610bf18185610836565b9350610c01818560208601610ae2565b610c0a81610bcb565b840191505092915050565b60006020820190508181036000830152610c2f8184610bdc565b90509291505056fea264697066735822122057c6b6542b4d87be8a3cfbb95e673495b880172ccc5a74d4bbd430fccf9978c864736f6c63430008120033",
  "devdoc": {
    "kind": "dev",
    "methods": {
      "setCursedBondPercentage(uint256)": {
        "details": "Can only be called by the owner.",
        "params": {
          "cursedBondPercentage": "ratio to set."
        }
      },
      "setEmbalmerClaimWindow(uint256)": {
        "details": "Can only be called by the diamond owner.",
        "params": {
          "embalmerClaimWindow": "to set"
        }
      },
      "setExpirationThreshold(uint256)": {
        "details": "Can only be called by the diamond owner.",
        "params": {
          "expirationThreshold": "to set"
        }
      },
      "setGracePeriod(uint256)": {
        "details": "Can only be called by the diamond owner.",
        "params": {
          "gracePeriod": "to set"
        }
      },
      "setProtocolFeeBasePercentage(uint256)": {
        "details": "Can only be called by the owner.",
        "params": {
          "protocolFeeBasePercentage": "percentage to set"
        }
      },
      "withdrawProtocolFees()": {
        "details": "Can only be called by the owner."
      }
    },
    "version": 1
  },
  "userdoc": {
    "errors": {
      "CannotSetZeroValue()": [
        {
          "notice": "Admin has attempted to set a zero value"
        }
      ]
    },
    "kind": "user",
    "methods": {
      "setCursedBondPercentage(uint256)": {
        "notice": "Sets the digging fee / cursed bond ratio used to calculate how much bond archaeologists must lock per curse."
      },
      "setEmbalmerClaimWindow(uint256)": {
        "notice": "Updates the embalmerClaimWindow"
      },
      "setExpirationThreshold(uint256)": {
        "notice": "Updates the expirationThreshold used during sarcophagus creation"
      },
      "setGracePeriod(uint256)": {
        "notice": "Updates the resurrection grace period"
      },
      "setProtocolFeeBasePercentage(uint256)": {
        "notice": "Sets the protocol fee base percentage, used to calculate protocol fees"
      },
      "withdrawProtocolFees()": {
        "notice": "Withdraws the total protocol fee amount from the contract."
      }
    },
    "version": 1
  },
  "storageLayout": {
    "storage": [],
    "types": null
  }
}