{
  "address": "0xc2B8D26b5A874D379c2d8d51fAf3Ce3dDc2a18ee",
  "abi": [
    {
      "inputs": [
        {
          "internalType": "uint256",
          "name": "expirationThreshold",
          "type": "uint256"
        }
      ],
      "name": "setExpirationThreshold",
      "outputs": [],
      "stateMutability": "nonpayable",
      "type": "function"
    },
    {
      "inputs": [
        {
          "internalType": "uint256",
          "name": "gracePeriod",
          "type": "uint256"
        }
      ],
      "name": "setGracePeriod",
      "outputs": [],
      "stateMutability": "nonpayable",
      "type": "function"
    },
    {
      "inputs": [
        {
          "internalType": "uint256",
          "name": "protocolFeeBasePercentage",
          "type": "uint256"
        }
      ],
      "name": "setProtocolFeeBasePercentage",
      "outputs": [],
      "stateMutability": "nonpayable",
      "type": "function"
    },
    {
      "inputs": [],
      "name": "withdrawProtocolFees",
      "outputs": [],
      "stateMutability": "nonpayable",
      "type": "function"
    }
  ],
  "transactionHash": "0x861eee533d69749adf973ea284062174158226634e26a8b3a06ec41f2926a021",
  "args": [],
  "numDeployments": 2,
  "solcInputHash": "56130bd9f01ace07412cd56d3f8a0e58",
  "bytecode": "0x608060405234801561001057600080fd5b50610496806100206000396000f3fe608060405234801561001057600080fd5b506004361061004c5760003560e01c80638795cccb146100515780638a5b56901461005b578063a828c47914610077578063f2f6596014610093575b600080fd5b6100596100af565b005b610075600480360381019061007091906102b2565b610170565b005b610091600480360381019061008c91906102b2565b610185565b005b6100ad60048036038101906100a891906102b2565b61019a565b005b6100b76101af565b600080600201549050600080600201819055506000800160009054906101000a900473ffffffffffffffffffffffffffffffffffffffff1673ffffffffffffffffffffffffffffffffffffffff1663a9059cbb33836040518363ffffffff1660e01b815260040161012992919061032f565b6020604051808303816000875af1158015610148573d6000803e3d6000fd5b505050506040513d601f19601f8201168201806040525081019061016c9190610390565b5050565b6101786101af565b8060006001018190555050565b61018d6101af565b8060006004018190555050565b6101a26101af565b8060006003018190555050565b6101b761024a565b60040160009054906101000a900473ffffffffffffffffffffffffffffffffffffffff1673ffffffffffffffffffffffffffffffffffffffff163373ffffffffffffffffffffffffffffffffffffffff1614610248576040517f08c379a000000000000000000000000000000000000000000000000000000000815260040161023f90610440565b60405180910390fd5b565b6000807fc8fcad8db84d3cc18b4c41d551ea0ee66dd599cde068d998e57d5e09332c131c90508091505090565b600080fd5b6000819050919050565b61028f8161027c565b811461029a57600080fd5b50565b6000813590506102ac81610286565b92915050565b6000602082840312156102c8576102c7610277565b5b60006102d68482850161029d565b91505092915050565b600073ffffffffffffffffffffffffffffffffffffffff82169050919050565b600061030a826102df565b9050919050565b61031a816102ff565b82525050565b6103298161027c565b82525050565b60006040820190506103446000830185610311565b6103516020830184610320565b9392505050565b60008115159050919050565b61036d81610358565b811461037857600080fd5b50565b60008151905061038a81610364565b92915050565b6000602082840312156103a6576103a5610277565b5b60006103b48482850161037b565b91505092915050565b600082825260208201905092915050565b7f4c69624469616d6f6e643a204d75737420626520636f6e7472616374206f776e60008201527f6572000000000000000000000000000000000000000000000000000000000000602082015250565b600061042a6022836103bd565b9150610435826103ce565b604082019050919050565b600060208201905081810360008301526104598161041d565b905091905056fea26469706673582212203081a997407746a4077a1c9cd25d8c16e33e262d1daeb9c0013a0fb7df40ec5c64736f6c634300080d0033",
  "devdoc": {
    "kind": "dev",
    "methods": {
      "setExpirationThreshold(uint256)": {
        "details": "Can only be called by the diamond owner.",
        "params": {
          "expirationThreshold": "to set"
        }
      },
      "setGracePeriod(uint256)": {
        "details": "Can only be called by the diamond owner.",
        "params": {
          "gracePeriod": "to set"
        }
      },
      "setProtocolFeeBasePercentage(uint256)": {
        "details": "Can only be called by the owner.",
        "params": {
          "protocolFeeBasePercentage": "percentage to set"
        }
      },
      "withdrawProtocolFees()": {
        "details": "Can only be called by the owner."
      }
    },
    "version": 1
  },
  "userdoc": {
    "kind": "user",
    "methods": {
      "setExpirationThreshold(uint256)": {
        "notice": "Updates the expirationThreshold used during sarcophagus creation"
      },
      "setGracePeriod(uint256)": {
        "notice": "Updates the resurrection grace period"
      },
      "setProtocolFeeBasePercentage(uint256)": {
        "notice": "Sets the protocol fee base percentage, used to calculate protocol fees"
      },
      "withdrawProtocolFees()": {
        "notice": "Withdraws the total protocol fee amount from the contract."
      }
    },
    "version": 1
  },
  "storageLayout": {
    "storage": [
      {
        "astId": 312,
        "contract": "contracts/facets/AdminFacet.sol:AdminFacet",
        "label": "s",
        "offset": 0,
        "slot": "0",
        "type": "t_struct(AppStorage)4106_storage"
      }
    ],
    "types": {
      "t_address": {
        "encoding": "inplace",
        "label": "address",
        "numberOfBytes": "20"
      },
      "t_array(t_address)dyn_storage": {
        "base": "t_address",
        "encoding": "dynamic_array",
        "label": "address[]",
        "numberOfBytes": "32"
      },
      "t_array(t_bytes32)dyn_storage": {
        "base": "t_bytes32",
        "encoding": "dynamic_array",
        "label": "bytes32[]",
        "numberOfBytes": "32"
      },
      "t_array(t_string_storage)dyn_storage": {
        "base": "t_string_storage",
        "encoding": "dynamic_array",
        "label": "string[]",
        "numberOfBytes": "32"
      },
      "t_bool": {
        "encoding": "inplace",
        "label": "bool",
        "numberOfBytes": "1"
      },
      "t_bytes32": {
        "encoding": "inplace",
        "label": "bytes32",
        "numberOfBytes": "32"
      },
      "t_bytes_storage": {
        "encoding": "bytes",
        "label": "bytes",
        "numberOfBytes": "32"
      },
      "t_contract(IERC20)77": {
        "encoding": "inplace",
        "label": "contract IERC20",
        "numberOfBytes": "20"
      },
      "t_enum(SarcophagusState)3448": {
        "encoding": "inplace",
        "label": "enum LibTypes.SarcophagusState",
        "numberOfBytes": "1"
      },
      "t_mapping(t_address,t_array(t_bytes32)dyn_storage)": {
        "encoding": "mapping",
        "key": "t_address",
        "label": "mapping(address => bytes32[])",
        "numberOfBytes": "32",
        "value": "t_array(t_bytes32)dyn_storage"
      },
      "t_mapping(t_address,t_mapping(t_bytes32,t_bool))": {
        "encoding": "mapping",
        "key": "t_address",
        "label": "mapping(address => mapping(bytes32 => bool))",
        "numberOfBytes": "32",
        "value": "t_mapping(t_bytes32,t_bool)"
      },
      "t_mapping(t_address,t_struct(ArchaeologistProfile)3499_storage)": {
        "encoding": "mapping",
        "key": "t_address",
        "label": "mapping(address => struct LibTypes.ArchaeologistProfile)",
        "numberOfBytes": "32",
        "value": "t_struct(ArchaeologistProfile)3499_storage"
      },
      "t_mapping(t_address,t_struct(ArchaeologistStorage)3486_storage)": {
        "encoding": "mapping",
        "key": "t_address",
        "label": "mapping(address => struct LibTypes.ArchaeologistStorage)",
        "numberOfBytes": "32",
        "value": "t_struct(ArchaeologistStorage)3486_storage"
      },
      "t_mapping(t_address,t_uint256)": {
        "encoding": "mapping",
        "key": "t_address",
        "label": "mapping(address => uint256)",
        "numberOfBytes": "32",
        "value": "t_uint256"
      },
      "t_mapping(t_bytes32,t_address)": {
        "encoding": "mapping",
        "key": "t_bytes32",
        "label": "mapping(bytes32 => address)",
        "numberOfBytes": "32",
        "value": "t_address"
      },
      "t_mapping(t_bytes32,t_bool)": {
        "encoding": "mapping",
        "key": "t_bytes32",
        "label": "mapping(bytes32 => bool)",
        "numberOfBytes": "32",
        "value": "t_bool"
      },
      "t_mapping(t_bytes32,t_mapping(t_address,t_struct(ArchaeologistStorage)3486_storage))": {
        "encoding": "mapping",
        "key": "t_bytes32",
        "label": "mapping(bytes32 => mapping(address => struct LibTypes.ArchaeologistStorage))",
        "numberOfBytes": "32",
        "value": "t_mapping(t_address,t_struct(ArchaeologistStorage)3486_storage)"
      },
      "t_mapping(t_bytes32,t_struct(Sarcophagus)3538_storage)": {
        "encoding": "mapping",
        "key": "t_bytes32",
        "label": "mapping(bytes32 => struct LibTypes.Sarcophagus)",
        "numberOfBytes": "32",
        "value": "t_struct(Sarcophagus)3538_storage"
      },
      "t_string_storage": {
        "encoding": "bytes",
        "label": "string",
        "numberOfBytes": "32"
      },
      "t_struct(AppStorage)4106_storage": {
        "encoding": "inplace",
        "label": "struct AppStorage",
        "members": [
          {
            "astId": 4030,
            "contract": "contracts/facets/AdminFacet.sol:AdminFacet",
            "label": "sarcoToken",
            "offset": 0,
            "slot": "0",
            "type": "t_contract(IERC20)77"
          },
          {
            "astId": 4032,
            "contract": "contracts/facets/AdminFacet.sol:AdminFacet",
            "label": "protocolFeeBasePercentage",
            "offset": 0,
            "slot": "1",
            "type": "t_uint256"
          },
          {
            "astId": 4034,
            "contract": "contracts/facets/AdminFacet.sol:AdminFacet",
            "label": "totalProtocolFees",
            "offset": 0,
            "slot": "2",
            "type": "t_uint256"
          },
          {
            "astId": 4036,
            "contract": "contracts/facets/AdminFacet.sol:AdminFacet",
            "label": "gracePeriod",
            "offset": 0,
            "slot": "3",
            "type": "t_uint256"
          },
          {
            "astId": 4038,
            "contract": "contracts/facets/AdminFacet.sol:AdminFacet",
            "label": "expirationThreshold",
            "offset": 0,
            "slot": "4",
            "type": "t_uint256"
          },
          {
            "astId": 4041,
            "contract": "contracts/facets/AdminFacet.sol:AdminFacet",
            "label": "sarcophagusIdentifiers",
            "offset": 0,
            "slot": "5",
            "type": "t_array(t_bytes32)dyn_storage"
          },
          {
            "astId": 4044,
            "contract": "contracts/facets/AdminFacet.sol:AdminFacet",
            "label": "archaeologistProfileAddresses",
            "offset": 0,
            "slot": "6",
            "type": "t_array(t_address)dyn_storage"
          },
          {
            "astId": 4049,
            "contract": "contracts/facets/AdminFacet.sol:AdminFacet",
            "label": "archaeologistProfiles",
            "offset": 0,
            "slot": "7",
            "type": "t_mapping(t_address,t_struct(ArchaeologistProfile)3499_storage)"
          },
          {
            "astId": 4055,
            "contract": "contracts/facets/AdminFacet.sol:AdminFacet",
            "label": "archaeologistSarcoSuccesses",
            "offset": 0,
            "slot": "8",
            "type": "t_mapping(t_address,t_mapping(t_bytes32,t_bool))"
          },
          {
            "astId": 4060,
            "contract": "contracts/facets/AdminFacet.sol:AdminFacet",
            "label": "archaeologistSuccesses",
            "offset": 0,
            "slot": "9",
            "type": "t_mapping(t_address,t_array(t_bytes32)dyn_storage)"
          },
          {
            "astId": 4065,
            "contract": "contracts/facets/AdminFacet.sol:AdminFacet",
            "label": "archaeologistAccusals",
            "offset": 0,
            "slot": "10",
            "type": "t_mapping(t_address,t_array(t_bytes32)dyn_storage)"
          },
          {
            "astId": 4070,
            "contract": "contracts/facets/AdminFacet.sol:AdminFacet",
            "label": "archaeologistCleanups",
            "offset": 0,
            "slot": "11",
            "type": "t_mapping(t_address,t_array(t_bytes32)dyn_storage)"
          },
          {
            "astId": 4074,
            "contract": "contracts/facets/AdminFacet.sol:AdminFacet",
            "label": "archaeologistRewards",
            "offset": 0,
            "slot": "12",
            "type": "t_mapping(t_address,t_uint256)"
          },
          {
            "astId": 4079,
            "contract": "contracts/facets/AdminFacet.sol:AdminFacet",
            "label": "sarcophagi",
            "offset": 0,
            "slot": "13",
            "type": "t_mapping(t_bytes32,t_struct(Sarcophagus)3538_storage)"
          },
          {
            "astId": 4084,
            "contract": "contracts/facets/AdminFacet.sol:AdminFacet",
            "label": "embalmerSarcophagi",
            "offset": 0,
            "slot": "14",
            "type": "t_mapping(t_address,t_array(t_bytes32)dyn_storage)"
          },
          {
            "astId": 4089,
            "contract": "contracts/facets/AdminFacet.sol:AdminFacet",
            "label": "archaeologistSarcophagi",
            "offset": 0,
            "slot": "15",
            "type": "t_mapping(t_address,t_array(t_bytes32)dyn_storage)"
          },
          {
            "astId": 4094,
            "contract": "contracts/facets/AdminFacet.sol:AdminFacet",
            "label": "recipientSarcophagi",
            "offset": 0,
            "slot": "16",
            "type": "t_mapping(t_address,t_array(t_bytes32)dyn_storage)"
          },
          {
            "astId": 4098,
            "contract": "contracts/facets/AdminFacet.sol:AdminFacet",
            "label": "doubleHashedShardArchaeologists",
            "offset": 0,
            "slot": "17",
            "type": "t_mapping(t_bytes32,t_address)"
          },
          {
            "astId": 4105,
            "contract": "contracts/facets/AdminFacet.sol:AdminFacet",
            "label": "sarcophagusArchaeologists",
            "offset": 0,
            "slot": "18",
            "type": "t_mapping(t_bytes32,t_mapping(t_address,t_struct(ArchaeologistStorage)3486_storage))"
          }
        ],
        "numberOfBytes": "608"
      },
      "t_struct(ArchaeologistProfile)3499_storage": {
        "encoding": "inplace",
        "label": "struct LibTypes.ArchaeologistProfile",
        "members": [
          {
            "astId": 3488,
            "contract": "contracts/facets/AdminFacet.sol:AdminFacet",
            "label": "exists",
            "offset": 0,
            "slot": "0",
            "type": "t_bool"
          },
          {
            "astId": 3490,
            "contract": "contracts/facets/AdminFacet.sol:AdminFacet",
            "label": "peerId",
            "offset": 0,
            "slot": "1",
            "type": "t_string_storage"
          },
          {
            "astId": 3492,
            "contract": "contracts/facets/AdminFacet.sol:AdminFacet",
            "label": "minimumDiggingFee",
            "offset": 0,
            "slot": "2",
            "type": "t_uint256"
          },
          {
            "astId": 3494,
            "contract": "contracts/facets/AdminFacet.sol:AdminFacet",
            "label": "maximumRewrapInterval",
            "offset": 0,
            "slot": "3",
            "type": "t_uint256"
          },
          {
            "astId": 3496,
            "contract": "contracts/facets/AdminFacet.sol:AdminFacet",
            "label": "freeBond",
            "offset": 0,
            "slot": "4",
            "type": "t_uint256"
          },
          {
            "astId": 3498,
            "contract": "contracts/facets/AdminFacet.sol:AdminFacet",
            "label": "cursedBond",
            "offset": 0,
            "slot": "5",
            "type": "t_uint256"
          }
        ],
        "numberOfBytes": "192"
      },
      "t_struct(ArchaeologistStorage)3486_storage": {
        "encoding": "inplace",
        "label": "struct LibTypes.ArchaeologistStorage",
        "members": [
          {
            "astId": 3479,
            "contract": "contracts/facets/AdminFacet.sol:AdminFacet",
            "label": "diggingFee",
            "offset": 0,
            "slot": "0",
            "type": "t_uint256"
          },
          {
            "astId": 3481,
            "contract": "contracts/facets/AdminFacet.sol:AdminFacet",
            "label": "diggingFeesPaid",
            "offset": 0,
            "slot": "1",
            "type": "t_uint256"
          },
          {
            "astId": 3483,
            "contract": "contracts/facets/AdminFacet.sol:AdminFacet",
            "label": "unencryptedShardDoubleHash",
            "offset": 0,
            "slot": "2",
            "type": "t_bytes32"
          },
          {
            "astId": 3485,
            "contract": "contracts/facets/AdminFacet.sol:AdminFacet",
            "label": "unencryptedShard",
            "offset": 0,
            "slot": "3",
            "type": "t_bytes_storage"
          }
        ],
        "numberOfBytes": "128"
      },
      "t_struct(Sarcophagus)3538_storage": {
        "encoding": "inplace",
        "label": "struct LibTypes.Sarcophagus",
        "members": [
          {
            "astId": 3516,
            "contract": "contracts/facets/AdminFacet.sol:AdminFacet",
            "label": "name",
            "offset": 0,
            "slot": "0",
            "type": "t_string_storage"
          },
          {
            "astId": 3519,
            "contract": "contracts/facets/AdminFacet.sol:AdminFacet",
            "label": "state",
            "offset": 0,
            "slot": "1",
            "type": "t_enum(SarcophagusState)3448"
          },
          {
            "astId": 3521,
            "contract": "contracts/facets/AdminFacet.sol:AdminFacet",
            "label": "canBeTransferred",
            "offset": 1,
            "slot": "1",
            "type": "t_bool"
          },
          {
            "astId": 3523,
            "contract": "contracts/facets/AdminFacet.sol:AdminFacet",
            "label": "minShards",
            "offset": 2,
            "slot": "1",
            "type": "t_uint8"
          },
          {
            "astId": 3525,
            "contract": "contracts/facets/AdminFacet.sol:AdminFacet",
            "label": "resurrectionTime",
            "offset": 0,
            "slot": "2",
            "type": "t_uint256"
          },
          {
            "astId": 3527,
            "contract": "contracts/facets/AdminFacet.sol:AdminFacet",
            "label": "maximumRewrapInterval",
            "offset": 0,
            "slot": "3",
            "type": "t_uint256"
          },
          {
            "astId": 3530,
            "contract": "contracts/facets/AdminFacet.sol:AdminFacet",
            "label": "arweaveTxIds",
            "offset": 0,
            "slot": "4",
            "type": "t_array(t_string_storage)dyn_storage"
          },
          {
            "astId": 3532,
            "contract": "contracts/facets/AdminFacet.sol:AdminFacet",
            "label": "embalmer",
            "offset": 0,
            "slot": "5",
            "type": "t_address"
          },
          {
            "astId": 3534,
            "contract": "contracts/facets/AdminFacet.sol:AdminFacet",
            "label": "recipientAddress",
            "offset": 0,
            "slot": "6",
            "type": "t_address"
          },
          {
            "astId": 3537,
            "contract": "contracts/facets/AdminFacet.sol:AdminFacet",
            "label": "archaeologists",
            "offset": 0,
            "slot": "7",
            "type": "t_array(t_address)dyn_storage"
          }
        ],
        "numberOfBytes": "256"
      },
      "t_uint256": {
        "encoding": "inplace",
        "label": "uint256",
        "numberOfBytes": "32"
      },
      "t_uint8": {
        "encoding": "inplace",
        "label": "uint8",
        "numberOfBytes": "1"
      }
    }
  }
}