{
  "address": "0x14f422F3b3cF7D408B449c751e4E336a535004c3",
  "abi": [
    {
      "inputs": [
        {
          "internalType": "contract IERC20",
          "name": "sarcoToken",
          "type": "address"
        },
        {
          "internalType": "uint256",
          "name": "protocolFeeBasePercentage",
          "type": "uint256"
        },
        {
          "internalType": "uint256",
          "name": "gracePeriod",
          "type": "uint256"
        },
        {
          "internalType": "uint256",
          "name": "expirationThreshold",
          "type": "uint256"
        }
      ],
      "name": "init",
      "outputs": [],
      "stateMutability": "nonpayable",
      "type": "function"
    }
  ],
  "transactionHash": "0x864753af3b9e06e8629cdf876c7f0322e9cf689a246174f19e9f6fde544552e3",
  "args": [],
  "numDeployments": 2,
  "solcInputHash": "56130bd9f01ace07412cd56d3f8a0e58",
  "bytecode": "0x608060405234801561001057600080fd5b5061020a806100206000396000f3fe608060405234801561001057600080fd5b506004361061002b5760003560e01c806398c36c0914610030575b600080fd5b61004a6004803603810190610045919061016d565b61004c565b005b60006100566100bd565b9050848160000160006101000a81548173ffffffffffffffffffffffffffffffffffffffff021916908373ffffffffffffffffffffffffffffffffffffffff1602179055508381600101819055508281600301819055508181600401819055505050505050565b600090565b600080fd5b600073ffffffffffffffffffffffffffffffffffffffff82169050919050565b60006100f2826100c7565b9050919050565b6000610104826100e7565b9050919050565b610114816100f9565b811461011f57600080fd5b50565b6000813590506101318161010b565b92915050565b6000819050919050565b61014a81610137565b811461015557600080fd5b50565b60008135905061016781610141565b92915050565b60008060008060808587031215610187576101866100c2565b5b600061019587828801610122565b94505060206101a687828801610158565b93505060406101b787828801610158565b92505060606101c887828801610158565b9150509295919450925056fea26469706673582212202927b840ca47dd91cdb9a98604b0dcb5e488184b7a492f0a6e9e25971780afb564736f6c634300080d0033",
  "devdoc": {
    "kind": "dev",
    "methods": {
      "init(address,uint256,uint256,uint256)": {
        "details": "Add any AppStorage struct properties here to initialize values"
      }
    },
    "version": 1
  },
  "userdoc": {
    "kind": "user",
    "methods": {
      "init(address,uint256,uint256,uint256)": {
        "notice": "Initializes the app with default state values"
      }
    },
    "version": 1
  },
  "storageLayout": {
    "storage": [],
    "types": null
  }
}