{
  "address": "0xc94500eE997aAdd5Adf6aB4e3e8E9924bE82608f",
  "abi": [
    {
      "inputs": [
        {
          "internalType": "address",
          "name": "archaeologist",
          "type": "address"
        }
      ],
      "name": "ArchaeologistAlreadyUnwrapped",
      "type": "error"
    },
    {
      "inputs": [
        {
          "internalType": "address",
          "name": "archaeologist",
          "type": "address"
        }
      ],
      "name": "ArchaeologistNotOnSarcophagus",
      "type": "error"
    },
    {
      "inputs": [
        {
          "internalType": "bool",
          "name": "exists",
          "type": "bool"
        },
        {
          "internalType": "address",
          "name": "archaeologist",
          "type": "address"
        }
      ],
      "name": "ArchaeologistProfileExistsShouldBe",
      "type": "error"
    },
    {
      "inputs": [
        {
          "internalType": "uint256",
          "name": "cursedBond",
          "type": "uint256"
        },
        {
          "internalType": "uint256",
          "name": "amount",
          "type": "uint256"
        }
      ],
      "name": "NotEnoughCursedBond",
      "type": "error"
    },
    {
      "inputs": [
        {
          "internalType": "uint256",
          "name": "freeBond",
          "type": "uint256"
        },
        {
          "internalType": "uint256",
          "name": "amount",
          "type": "uint256"
        }
      ],
      "name": "NotEnoughFreeBond",
      "type": "error"
    },
    {
      "inputs": [
        {
          "internalType": "bytes32",
          "name": "sarcoId",
          "type": "bytes32"
        }
      ],
      "name": "SarcophagusCompromised",
      "type": "error"
    },
    {
      "inputs": [
        {
          "internalType": "bytes32",
          "name": "sarcoId",
          "type": "bytes32"
        }
      ],
      "name": "SarcophagusDoesNotExist",
      "type": "error"
    },
    {
      "inputs": [
        {
          "internalType": "bytes32",
          "name": "sarcoId",
          "type": "bytes32"
        }
      ],
      "name": "SarcophagusInactive",
      "type": "error"
    },
    {
      "inputs": [
        {
          "internalType": "uint256",
          "name": "resurrectionTime",
          "type": "uint256"
        },
        {
          "internalType": "uint256",
          "name": "currentTime",
          "type": "uint256"
        }
      ],
      "name": "TooEarlyToUnwrap",
      "type": "error"
    },
    {
      "inputs": [
        {
          "internalType": "uint256",
          "name": "resurrectionTime",
          "type": "uint256"
        },
        {
          "internalType": "uint256",
          "name": "gracePeriod",
          "type": "uint256"
        },
        {
          "internalType": "uint256",
          "name": "currentTime",
          "type": "uint256"
        }
      ],
      "name": "TooLateToUnwrap",
      "type": "error"
    },
    {
      "inputs": [
        {
          "internalType": "bytes",
          "name": "rawKeyShare",
          "type": "bytes"
        },
        {
          "internalType": "bytes32",
          "name": "doubleHashedKeyShare",
          "type": "bytes32"
        }
      ],
      "name": "UnencryptedShardHashMismatch",
      "type": "error"
    },
    {
      "anonymous": false,
      "inputs": [
        {
          "indexed": true,
          "internalType": "address",
          "name": "archaeologist",
          "type": "address"
        },
        {
          "indexed": false,
          "internalType": "uint256",
          "name": "depositedBond",
          "type": "uint256"
        }
      ],
      "name": "DepositFreeBond",
      "type": "event"
    },
    {
      "anonymous": false,
      "inputs": [
        {
          "indexed": true,
          "internalType": "bytes32",
          "name": "sarcoId",
          "type": "bytes32"
        },
        {
          "indexed": false,
          "internalType": "bytes",
          "name": "rawKeyShare",
          "type": "bytes"
        }
      ],
      "name": "PublishKeyShare",
      "type": "event"
    },
    {
      "anonymous": false,
      "inputs": [
        {
          "indexed": true,
          "internalType": "address",
          "name": "archaeologist",
          "type": "address"
        },
        {
          "indexed": false,
          "internalType": "string",
          "name": "peerId",
          "type": "string"
        },
        {
          "indexed": false,
          "internalType": "uint256",
          "name": "minimumDiggingFee",
          "type": "uint256"
        },
        {
          "indexed": false,
          "internalType": "uint256",
          "name": "maximumRewrapInterval",
          "type": "uint256"
        },
        {
          "indexed": false,
          "internalType": "uint256",
          "name": "freeBond",
          "type": "uint256"
        }
      ],
      "name": "RegisterArchaeologist",
      "type": "event"
    },
    {
      "anonymous": false,
      "inputs": [
        {
          "indexed": true,
          "internalType": "address",
          "name": "archaeologist",
          "type": "address"
        },
        {
          "indexed": false,
          "internalType": "string",
          "name": "peerId",
          "type": "string"
        },
        {
          "indexed": false,
          "internalType": "uint256",
          "name": "minimumDiggingFee",
          "type": "uint256"
        },
        {
          "indexed": false,
          "internalType": "uint256",
          "name": "maximumRewrapInterval",
          "type": "uint256"
        },
        {
          "indexed": false,
          "internalType": "uint256",
          "name": "freeBond",
          "type": "uint256"
        }
      ],
      "name": "UpdateArchaeologist",
      "type": "event"
    },
    {
      "anonymous": false,
      "inputs": [
        {
          "indexed": true,
          "internalType": "address",
          "name": "archaeologist",
          "type": "address"
        },
        {
          "indexed": false,
          "internalType": "uint256",
          "name": "withdrawnBond",
          "type": "uint256"
        }
      ],
      "name": "WithdrawFreeBond",
      "type": "event"
    },
    {
      "anonymous": false,
      "inputs": [
        {
          "indexed": true,
          "internalType": "address",
          "name": "archaeologist",
          "type": "address"
        },
        {
          "indexed": false,
          "internalType": "uint256",
          "name": "withdrawnReward",
          "type": "uint256"
        }
      ],
      "name": "WithdrawReward",
      "type": "event"
    },
    {
      "inputs": [
        {
          "internalType": "uint256",
          "name": "amount",
          "type": "uint256"
        }
      ],
      "name": "depositFreeBond",
      "outputs": [],
      "stateMutability": "nonpayable",
      "type": "function"
    },
    {
      "inputs": [
        {
          "internalType": "bytes32",
          "name": "sarcoId",
          "type": "bytes32"
        },
        {
          "internalType": "bytes",
          "name": "rawKeyShare",
          "type": "bytes"
        }
      ],
      "name": "publishKeyShare",
      "outputs": [],
      "stateMutability": "nonpayable",
      "type": "function"
    },
    {
      "inputs": [
        {
          "internalType": "string",
          "name": "peerId",
          "type": "string"
        },
        {
          "internalType": "uint256",
          "name": "minimumDiggingFee",
          "type": "uint256"
        },
        {
          "internalType": "uint256",
          "name": "maximumRewrapInterval",
          "type": "uint256"
        },
        {
          "internalType": "uint256",
          "name": "freeBond",
          "type": "uint256"
        }
      ],
      "name": "registerArchaeologist",
      "outputs": [],
      "stateMutability": "nonpayable",
      "type": "function"
    },
    {
      "inputs": [
        {
          "internalType": "string",
          "name": "peerId",
          "type": "string"
        },
        {
          "internalType": "uint256",
          "name": "minimumDiggingFee",
          "type": "uint256"
        },
        {
          "internalType": "uint256",
          "name": "maximumRewrapInterval",
          "type": "uint256"
        },
        {
          "internalType": "uint256",
          "name": "freeBond",
          "type": "uint256"
        }
      ],
      "name": "updateArchaeologist",
      "outputs": [],
      "stateMutability": "nonpayable",
      "type": "function"
    },
    {
      "inputs": [
        {
          "internalType": "uint256",
          "name": "amount",
          "type": "uint256"
        }
      ],
      "name": "withdrawFreeBond",
      "outputs": [],
      "stateMutability": "nonpayable",
      "type": "function"
    },
    {
      "inputs": [],
      "name": "withdrawReward",
      "outputs": [],
      "stateMutability": "nonpayable",
      "type": "function"
    }
  ],
  "args": [],
  "numDeployments": 4,
  "solcInputHash": "24da3a57fc1d823ed9295677fe86dbd6",
  "bytecode": "0x608060405234801561001057600080fd5b50611c23806100206000396000f3fe608060405234801561001057600080fd5b50600436106100625760003560e01c80630c4c35f014610067578063364e080114610083578063449f11a61461009f5780636a5ac74c146100bb578063c885bc58146100d7578063d1c32147146100e1575b600080fd5b610081600480360381019061007c919061148f565b6100fd565b005b61009d60048036038101906100989190611512565b610299565b005b6100b960048036038101906100b4919061148f565b6103a0565b005b6100d560048036038101906100d09190611512565b610609565b005b6100df610712565b005b6100fb60048036038101906100f691906115d5565b610893565b005b61010633610d11565b600080600c0160003373ffffffffffffffffffffffffffffffffffffffff1673ffffffffffffffffffffffffffffffffffffffff1681526020019081526020016000209050848160010190805190602001906101639291906111d6565b50838160020181905550828160030181905550600082111561022f576101893383610db7565b6000800160009054906101000a900473ffffffffffffffffffffffffffffffffffffffff1673ffffffffffffffffffffffffffffffffffffffff166323b872dd3330856040518463ffffffff1660e01b81526004016101ea93929190611685565b6020604051808303816000875af1158015610209573d6000803e3d6000fd5b505050506040513d601f19601f8201168201806040525081019061022d91906116f4565b505b3373ffffffffffffffffffffffffffffffffffffffff167f4df9330dcb4af4b522d063da8a473d6711cdd390feef75f059a663a76c2701398260010183600201548460030154856004015460405161028a9493929190611827565b60405180910390a25050505050565b6102a233610d11565b6102ac3382610e23565b6000800160009054906101000a900473ffffffffffffffffffffffffffffffffffffffff1673ffffffffffffffffffffffffffffffffffffffff1663a9059cbb33836040518363ffffffff1660e01b815260040161030b929190611873565b6020604051808303816000875af115801561032a573d6000803e3d6000fd5b505050506040513d601f19601f8201168201806040525081019061034e91906116f4565b503373ffffffffffffffffffffffffffffffffffffffff167fd91b1e491a880123721b161dbbf8249668b0c546077d7ba4d0016441ca9d8f4582604051610395919061189c565b60405180910390a250565b6103a933610f5e565b60006040518060c0016040528060011515815260200186815260200185815260200184815260200183815260200160008152509050600082111561048d576000800160009054906101000a900473ffffffffffffffffffffffffffffffffffffffff1673ffffffffffffffffffffffffffffffffffffffff166323b872dd3330856040518463ffffffff1660e01b815260040161044893929190611685565b6020604051808303816000875af1158015610467573d6000803e3d6000fd5b505050506040513d601f19601f8201168201806040525081019061048b91906116f4565b505b806000600c0160003373ffffffffffffffffffffffffffffffffffffffff1673ffffffffffffffffffffffffffffffffffffffff16815260200190815260200160002060008201518160000160006101000a81548160ff021916908315150217905550602082015181600101908051906020019061050c9291906111d6565b5060408201518160020155606082015181600301556080820151816004015560a082015181600501559050506000600b01339080600181540180825580915050600190039060005260206000200160009091909190916101000a81548173ffffffffffffffffffffffffffffffffffffffff021916908373ffffffffffffffffffffffffffffffffffffffff1602179055503373ffffffffffffffffffffffffffffffffffffffff167fec728a18db560dc21e59ae36132eb1e1c1b00d056a88ee755e0940e471ad591e82602001518360400151846060015185608001516040516105fa949392919061192e565b60405180910390a25050505050565b61061233610d11565b61061c3382610db7565b6000800160009054906101000a900473ffffffffffffffffffffffffffffffffffffffff1673ffffffffffffffffffffffffffffffffffffffff166323b872dd3330846040518463ffffffff1660e01b815260040161067d93929190611685565b6020604051808303816000875af115801561069c573d6000803e3d6000fd5b505050506040513d601f19601f820116820180604052508101906106c091906116f4565b503373ffffffffffffffffffffffffffffffffffffffff167ff882a0847c57aefe6f6c7df2098dd0afd122eb0e886199e223651b8e45fda82382604051610707919061189c565b60405180910390a250565b600080600d0160003373ffffffffffffffffffffffffffffffffffffffff1673ffffffffffffffffffffffffffffffffffffffff168152602001908152602001600020549050600080600d0160003373ffffffffffffffffffffffffffffffffffffffff1673ffffffffffffffffffffffffffffffffffffffff168152602001908152602001600020819055506000800160009054906101000a900473ffffffffffffffffffffffffffffffffffffffff1673ffffffffffffffffffffffffffffffffffffffff1663a9059cbb33836040518363ffffffff1660e01b81526004016107fe929190611873565b6020604051808303816000875af115801561081d573d6000803e3d6000fd5b505050506040513d601f19601f8201168201806040525081019061084191906116f4565b503373ffffffffffffffffffffffffffffffffffffffff167fbc84835063c693975166f00cffb19f01a94c2db55b1bf259238c5da3594e506682604051610888919061189c565b60405180910390a250565b600080600a016000858152602001908152602001600020905060008160000154036108f557836040517f018da6880000000000000000000000000000000000000000000000000000000081526004016108ec9190611989565b60405180910390fd5b8060010160009054906101000a900460ff161561094957836040517f9af72b860000000000000000000000000000000000000000000000000000000081526004016109409190611989565b60405180910390fd5b7fffffffffffffffffffffffffffffffffffffffffffffffffffffffffffffffff8160000154036109b157836040517f7c6a6d700000000000000000000000000000000000000000000000000000000081526004016109a89190611989565b60405180910390fd5b8060000154421015610a00578060000154426040517f0674c5900000000000000000000000000000000000000000000000000000000081526004016109f79291906119a4565b60405180910390fd5b6000600301548160000154610a1591906119fc565b421115610a66578060000154600060030154426040517f4fd4cfc5000000000000000000000000000000000000000000000000000000008152600401610a5d93929190611a52565b60405180910390fd5b600080600a016000868152602001908152602001600020600a0160003373ffffffffffffffffffffffffffffffffffffffff1673ffffffffffffffffffffffffffffffffffffffff16815260200190815260200160002090506000801b816000015403610b0a57336040517f82881f03000000000000000000000000000000000000000000000000000000008152600401610b019190611a89565b60405180910390fd5b6000816003018054610b1b90611750565b905014610b5f57336040517f1b933fa0000000000000000000000000000000000000000000000000000000008152600401610b569190611a89565b60405180910390fd5b80600001548484604051610b74929190611ad4565b6040518091039020604051602001610b8c9190611989565b6040516020818303038152906040528051906020012014610bec57838382600001546040517fd6091bc2000000000000000000000000000000000000000000000000000000008152600401610be393929190611b2b565b60405180910390fd5b8383826003019190610bff92919061125c565b50610c0a8533611005565b80600201546000600d0160003373ffffffffffffffffffffffffffffffffffffffff1673ffffffffffffffffffffffffffffffffffffffff1681526020019081526020016000206000828254610c6091906119fc565b925050819055506000600e0160003373ffffffffffffffffffffffffffffffffffffffff1673ffffffffffffffffffffffffffffffffffffffff168152602001908152602001600020859080600181540180825580915050600190039060005260206000200160009091909190915055847f10b38d22beb9e6da8e778162151bf1e9f67ad2eb0c00f43d7e62806a7990ba6c8585604051610d02929190611b5d565b60405180910390a25050505050565b6000610d1b61107e565b905080600c0160008373ffffffffffffffffffffffffffffffffffffffff1673ffffffffffffffffffffffffffffffffffffffff16815260200190815260200160002060000160009054906101000a900460ff16610db3576001826040517f2eeb3571000000000000000000000000000000000000000000000000000000008152600401610daa929190611b90565b60405180910390fd5b5050565b6000610dc161107e565b90508181600c0160008573ffffffffffffffffffffffffffffffffffffffff1673ffffffffffffffffffffffffffffffffffffffff1681526020019081526020016000206004016000828254610e1791906119fc565b92505081905550505050565b6000610e2d61107e565b905080600c0160008473ffffffffffffffffffffffffffffffffffffffff1673ffffffffffffffffffffffffffffffffffffffff16815260200190815260200160002060040154821115610efe5780600c0160008473ffffffffffffffffffffffffffffffffffffffff1673ffffffffffffffffffffffffffffffffffffffff16815260200190815260200160002060040154826040517fa4e3bead000000000000000000000000000000000000000000000000000000008152600401610ef59291906119a4565b60405180910390fd5b8181600c0160008573ffffffffffffffffffffffffffffffffffffffff1673ffffffffffffffffffffffffffffffffffffffff1681526020019081526020016000206004016000828254610f529190611bb9565b92505081905550505050565b6000610f6861107e565b905080600c0160008373ffffffffffffffffffffffffffffffffffffffff1673ffffffffffffffffffffffffffffffffffffffff16815260200190815260200160002060000160009054906101000a900460ff1615611001576000826040517f2eeb3571000000000000000000000000000000000000000000000000000000008152600401610ff8929190611b90565b60405180910390fd5b5050565b600061100f61107e565b9050600081600a016000858152602001908152602001600020600a0160008473ffffffffffffffffffffffffffffffffffffffff1673ffffffffffffffffffffffffffffffffffffffff1681526020019081526020016000209050611078838260020154611083565b50505050565b600090565b61108d828261109b565b6110978282610db7565b5050565b60006110a561107e565b905080600c0160008473ffffffffffffffffffffffffffffffffffffffff1673ffffffffffffffffffffffffffffffffffffffff168152602001908152602001600020600501548211156111765780600c0160008473ffffffffffffffffffffffffffffffffffffffff1673ffffffffffffffffffffffffffffffffffffffff16815260200190815260200160002060050154826040517faf5a111b00000000000000000000000000000000000000000000000000000000815260040161116d9291906119a4565b60405180910390fd5b8181600c0160008573ffffffffffffffffffffffffffffffffffffffff1673ffffffffffffffffffffffffffffffffffffffff16815260200190815260200160002060050160008282546111ca9190611bb9565b92505081905550505050565b8280546111e290611750565b90600052602060002090601f016020900481019282611204576000855561124b565b82601f1061121d57805160ff191683800117855561124b565b8280016001018555821561124b579182015b8281111561124a57825182559160200191906001019061122f565b5b50905061125891906112e2565b5090565b82805461126890611750565b90600052602060002090601f01602090048101928261128a57600085556112d1565b82601f106112a357803560ff19168380011785556112d1565b828001600101855582156112d1579182015b828111156112d05782358255916020019190600101906112b5565b5b5090506112de91906112e2565b5090565b5b808211156112fb5760008160009055506001016112e3565b5090565b6000604051905090565b600080fd5b600080fd5b600080fd5b600080fd5b6000601f19601f8301169050919050565b7f4e487b7100000000000000000000000000000000000000000000000000000000600052604160045260246000fd5b6113668261131d565b810181811067ffffffffffffffff821117156113855761138461132e565b5b80604052505050565b60006113986112ff565b90506113a4828261135d565b919050565b600067ffffffffffffffff8211156113c4576113c361132e565b5b6113cd8261131d565b9050602081019050919050565b82818337600083830152505050565b60006113fc6113f7846113a9565b61138e565b90508281526020810184848401111561141857611417611318565b5b6114238482856113da565b509392505050565b600082601f8301126114405761143f611313565b5b81356114508482602086016113e9565b91505092915050565b6000819050919050565b61146c81611459565b811461147757600080fd5b50565b60008135905061148981611463565b92915050565b600080600080608085870312156114a9576114a8611309565b5b600085013567ffffffffffffffff8111156114c7576114c661130e565b5b6114d38782880161142b565b94505060206114e48782880161147a565b93505060406114f58782880161147a565b92505060606115068782880161147a565b91505092959194509250565b60006020828403121561152857611527611309565b5b60006115368482850161147a565b91505092915050565b6000819050919050565b6115528161153f565b811461155d57600080fd5b50565b60008135905061156f81611549565b92915050565b600080fd5b600080fd5b60008083601f84011261159557611594611313565b5b8235905067ffffffffffffffff8111156115b2576115b1611575565b5b6020830191508360018202830111156115ce576115cd61157a565b5b9250929050565b6000806000604084860312156115ee576115ed611309565b5b60006115fc86828701611560565b935050602084013567ffffffffffffffff81111561161d5761161c61130e565b5b6116298682870161157f565b92509250509250925092565b600073ffffffffffffffffffffffffffffffffffffffff82169050919050565b600061166082611635565b9050919050565b61167081611655565b82525050565b61167f81611459565b82525050565b600060608201905061169a6000830186611667565b6116a76020830185611667565b6116b46040830184611676565b949350505050565b60008115159050919050565b6116d1816116bc565b81146116dc57600080fd5b50565b6000815190506116ee816116c8565b92915050565b60006020828403121561170a57611709611309565b5b6000611718848285016116df565b91505092915050565b7f4e487b7100000000000000000000000000000000000000000000000000000000600052602260045260246000fd5b6000600282049050600182168061176857607f821691505b60208210810361177b5761177a611721565b5b50919050565b600082825260208201905092915050565b60008190508160005260206000209050919050565b600081546117b481611750565b6117be8186611781565b945060018216600081146117d957600181146117eb5761181e565b60ff198316865260208601935061181e565b6117f485611792565b60005b83811015611816578154818901526001820191506020810190506117f7565b808801955050505b50505092915050565b6000608082019050818103600083015261184181876117a7565b90506118506020830186611676565b61185d6040830185611676565b61186a6060830184611676565b95945050505050565b60006040820190506118886000830185611667565b6118956020830184611676565b9392505050565b60006020820190506118b16000830184611676565b92915050565b600081519050919050565b60005b838110156118e05780820151818401526020810190506118c5565b838111156118ef576000848401525b50505050565b6000611900826118b7565b61190a8185611781565b935061191a8185602086016118c2565b6119238161131d565b840191505092915050565b6000608082019050818103600083015261194881876118f5565b90506119576020830186611676565b6119646040830185611676565b6119716060830184611676565b95945050505050565b6119838161153f565b82525050565b600060208201905061199e600083018461197a565b92915050565b60006040820190506119b96000830185611676565b6119c66020830184611676565b9392505050565b7f4e487b7100000000000000000000000000000000000000000000000000000000600052601160045260246000fd5b6000611a0782611459565b9150611a1283611459565b9250827fffffffffffffffffffffffffffffffffffffffffffffffffffffffffffffffff03821115611a4757611a466119cd565b5b828201905092915050565b6000606082019050611a676000830186611676565b611a746020830185611676565b611a816040830184611676565b949350505050565b6000602082019050611a9e6000830184611667565b92915050565b600081905092915050565b6000611abb8385611aa4565b9350611ac88385846113da565b82840190509392505050565b6000611ae1828486611aaf565b91508190509392505050565b600082825260208201905092915050565b6000611b0a8385611aed565b9350611b178385846113da565b611b208361131d565b840190509392505050565b60006040820190508181036000830152611b46818587611afe565b9050611b55602083018461197a565b949350505050565b60006020820190508181036000830152611b78818486611afe565b90509392505050565b611b8a816116bc565b82525050565b6000604082019050611ba56000830185611b81565b611bb26020830184611667565b9392505050565b6000611bc482611459565b9150611bcf83611459565b925082821015611be257611be16119cd565b5b82820390509291505056fea2646970667358221220366f70978462dd7773f2bc7cd239b4c1a03ed2ac99d026b873eeb7edaf650cca64736f6c634300080d0033",
  "devdoc": {
    "kind": "dev",
    "methods": {
      "depositFreeBond(uint256)": {
        "params": {
          "amount": "The amount to deposit"
        }
      },
      "publishKeyShare(bytes32,bytes)": {
        "params": {
          "rawKeyShare": "The keyshare the archaeologist is publishing",
          "sarcoId": "The identifier of the sarcophagus to unwrap"
        }
      },
      "registerArchaeologist(string,uint256,uint256,uint256)": {
        "params": {
          "freeBond": "How much bond the archaeologist wants to deposit during the register call (if any)",
          "maximumRewrapInterval": "The longest interval of time from a rewrap time the arch will accept for a resurrection",
          "minimumDiggingFee": "The archaeologist's minimum amount to accept for a digging fee",
          "peerId": "The libp2p identifier for the archaeologist"
        }
      },
      "updateArchaeologist(string,uint256,uint256,uint256)": {
        "params": {
          "maximumRewrapInterval": "The longest interval of time from a rewrap time the arch will accept for a resurrection freeBond How much bond the archaeologist wants to deposit during the update call (if any)",
          "minimumDiggingFee": "The archaeologist's minimum amount to accept for a digging fee",
          "peerId": "The libp2p identifier for the archaeologist"
        }
      },
      "withdrawFreeBond(uint256)": {
        "params": {
          "amount": "The amount to withdraw"
        }
      }
    },
    "version": 1
  },
  "userdoc": {
    "kind": "user",
    "methods": {
      "depositFreeBond(uint256)": {
        "notice": "Deposits an archaeologist's free bond to the contract."
      },
      "publishKeyShare(bytes32,bytes)": {
        "notice": "Publishes the raw key share for which the archaeologist is responsible during the sarcophagus resurrection window. Pays digging fees to the archaeologist and releases their locked bond. Cannot be called on a compromised or buried sarcophagus."
      },
      "registerArchaeologist(string,uint256,uint256,uint256)": {
        "notice": "Registers the archaeologist profile"
      },
      "updateArchaeologist(string,uint256,uint256,uint256)": {
        "notice": "Updates the archaeologist profile"
      },
      "withdrawFreeBond(uint256)": {
        "notice": "Withdraws an archaeologist's free bond from the contract."
      },
      "withdrawReward()": {
        "notice": "Withdraws all rewards from an archaeologist's reward pool"
      }
    },
    "version": 1
  },
  "storageLayout": {
    "storage": [
      {
        "astId": 1227,
        "contract": "contracts/facets/ArchaeologistFacet.sol:ArchaeologistFacet",
        "label": "s",
        "offset": 0,
        "slot": "0",
        "type": "t_struct(AppStorage)4520_storage"
      }
    ],
    "types": {
      "t_address": {
        "encoding": "inplace",
        "label": "address",
        "numberOfBytes": "20"
      },
      "t_array(t_address)dyn_storage": {
        "base": "t_address",
        "encoding": "dynamic_array",
        "label": "address[]",
        "numberOfBytes": "32"
      },
      "t_array(t_bytes32)dyn_storage": {
        "base": "t_bytes32",
        "encoding": "dynamic_array",
        "label": "bytes32[]",
        "numberOfBytes": "32"
      },
      "t_array(t_string_storage)2_storage": {
        "base": "t_string_storage",
        "encoding": "inplace",
        "label": "string[2]",
        "numberOfBytes": "64"
      },
      "t_bool": {
        "encoding": "inplace",
        "label": "bool",
        "numberOfBytes": "1"
      },
      "t_bytes32": {
        "encoding": "inplace",
        "label": "bytes32",
        "numberOfBytes": "32"
      },
      "t_bytes_storage": {
        "encoding": "bytes",
        "label": "bytes",
        "numberOfBytes": "32"
      },
      "t_contract(IERC20)77": {
        "encoding": "inplace",
        "label": "contract IERC20",
        "numberOfBytes": "20"
      },
      "t_mapping(t_address,t_array(t_bytes32)dyn_storage)": {
        "encoding": "mapping",
        "key": "t_address",
        "label": "mapping(address => bytes32[])",
        "numberOfBytes": "32",
        "value": "t_array(t_bytes32)dyn_storage"
      },
      "t_mapping(t_address,t_struct(ArchaeologistProfile)4104_storage)": {
        "encoding": "mapping",
        "key": "t_address",
        "label": "mapping(address => struct LibTypes.ArchaeologistProfile)",
        "numberOfBytes": "32",
        "value": "t_struct(ArchaeologistProfile)4104_storage"
      },
      "t_mapping(t_address,t_struct(CursedArchaeologist)4091_storage)": {
        "encoding": "mapping",
        "key": "t_address",
        "label": "mapping(address => struct LibTypes.CursedArchaeologist)",
        "numberOfBytes": "32",
        "value": "t_struct(CursedArchaeologist)4091_storage"
      },
      "t_mapping(t_address,t_uint256)": {
        "encoding": "mapping",
        "key": "t_address",
        "label": "mapping(address => uint256)",
        "numberOfBytes": "32",
        "value": "t_uint256"
      },
      "t_mapping(t_bytes32,t_address)": {
        "encoding": "mapping",
        "key": "t_bytes32",
        "label": "mapping(bytes32 => address)",
        "numberOfBytes": "32",
        "value": "t_address"
      },
      "t_mapping(t_bytes32,t_struct(Sarcophagus)4082_storage)": {
        "encoding": "mapping",
        "key": "t_bytes32",
        "label": "mapping(bytes32 => struct LibTypes.Sarcophagus)",
        "numberOfBytes": "32",
        "value": "t_struct(Sarcophagus)4082_storage"
      },
      "t_string_storage": {
        "encoding": "bytes",
        "label": "string",
        "numberOfBytes": "32"
      },
      "t_struct(AppStorage)4520_storage": {
        "encoding": "inplace",
        "label": "struct AppStorage",
        "members": [
          {
            "astId": 4454,
            "contract": "contracts/facets/ArchaeologistFacet.sol:ArchaeologistFacet",
            "label": "sarcoToken",
            "offset": 0,
            "slot": "0",
            "type": "t_contract(IERC20)77"
          },
          {
            "astId": 4456,
            "contract": "contracts/facets/ArchaeologistFacet.sol:ArchaeologistFacet",
            "label": "totalProtocolFees",
            "offset": 0,
            "slot": "1",
            "type": "t_uint256"
          },
          {
            "astId": 4459,
            "contract": "contracts/facets/ArchaeologistFacet.sol:ArchaeologistFacet",
            "label": "protocolFeeBasePercentage",
            "offset": 0,
            "slot": "2",
            "type": "t_uint256"
          },
          {
            "astId": 4461,
            "contract": "contracts/facets/ArchaeologistFacet.sol:ArchaeologistFacet",
            "label": "gracePeriod",
            "offset": 0,
            "slot": "3",
            "type": "t_uint256"
          },
          {
            "astId": 4463,
            "contract": "contracts/facets/ArchaeologistFacet.sol:ArchaeologistFacet",
            "label": "expirationThreshold",
            "offset": 0,
            "slot": "4",
            "type": "t_uint256"
          },
          {
            "astId": 4469,
            "contract": "contracts/facets/ArchaeologistFacet.sol:ArchaeologistFacet",
            "label": "embalmerSarcophagi",
            "offset": 0,
            "slot": "5",
            "type": "t_mapping(t_address,t_array(t_bytes32)dyn_storage)"
          },
          {
            "astId": 4474,
            "contract": "contracts/facets/ArchaeologistFacet.sol:ArchaeologistFacet",
            "label": "archaeologistSarcophagi",
            "offset": 0,
            "slot": "6",
            "type": "t_mapping(t_address,t_array(t_bytes32)dyn_storage)"
          },
          {
            "astId": 4479,
            "contract": "contracts/facets/ArchaeologistFacet.sol:ArchaeologistFacet",
            "label": "recipientSarcophagi",
            "offset": 0,
            "slot": "7",
            "type": "t_mapping(t_address,t_array(t_bytes32)dyn_storage)"
          },
          {
            "astId": 4483,
            "contract": "contracts/facets/ArchaeologistFacet.sol:ArchaeologistFacet",
            "label": "doubleHashedShardArchaeologists",
            "offset": 0,
            "slot": "8",
            "type": "t_mapping(t_bytes32,t_address)"
          },
          {
            "astId": 4486,
            "contract": "contracts/facets/ArchaeologistFacet.sol:ArchaeologistFacet",
            "label": "sarcophagusIdentifiers",
            "offset": 0,
            "slot": "9",
            "type": "t_array(t_bytes32)dyn_storage"
          },
          {
            "astId": 4491,
            "contract": "contracts/facets/ArchaeologistFacet.sol:ArchaeologistFacet",
            "label": "sarcophagi",
            "offset": 0,
            "slot": "10",
            "type": "t_mapping(t_bytes32,t_struct(Sarcophagus)4082_storage)"
          },
          {
            "astId": 4494,
            "contract": "contracts/facets/ArchaeologistFacet.sol:ArchaeologistFacet",
            "label": "archaeologistProfileAddresses",
            "offset": 0,
            "slot": "11",
            "type": "t_array(t_address)dyn_storage"
          },
          {
            "astId": 4499,
            "contract": "contracts/facets/ArchaeologistFacet.sol:ArchaeologistFacet",
            "label": "archaeologistProfiles",
            "offset": 0,
            "slot": "12",
            "type": "t_mapping(t_address,t_struct(ArchaeologistProfile)4104_storage)"
          },
          {
            "astId": 4503,
            "contract": "contracts/facets/ArchaeologistFacet.sol:ArchaeologistFacet",
            "label": "archaeologistRewards",
            "offset": 0,
            "slot": "13",
            "type": "t_mapping(t_address,t_uint256)"
          },
          {
            "astId": 4509,
            "contract": "contracts/facets/ArchaeologistFacet.sol:ArchaeologistFacet",
            "label": "archaeologistSuccesses",
            "offset": 0,
            "slot": "14",
            "type": "t_mapping(t_address,t_array(t_bytes32)dyn_storage)"
          },
          {
            "astId": 4514,
            "contract": "contracts/facets/ArchaeologistFacet.sol:ArchaeologistFacet",
            "label": "archaeologistAccusals",
            "offset": 0,
            "slot": "15",
            "type": "t_mapping(t_address,t_array(t_bytes32)dyn_storage)"
          },
          {
            "astId": 4519,
            "contract": "contracts/facets/ArchaeologistFacet.sol:ArchaeologistFacet",
            "label": "archaeologistCleanups",
            "offset": 0,
            "slot": "16",
            "type": "t_mapping(t_address,t_array(t_bytes32)dyn_storage)"
          }
        ],
        "numberOfBytes": "544"
      },
      "t_struct(ArchaeologistProfile)4104_storage": {
        "encoding": "inplace",
        "label": "struct LibTypes.ArchaeologistProfile",
        "members": [
          {
            "astId": 4093,
            "contract": "contracts/facets/ArchaeologistFacet.sol:ArchaeologistFacet",
            "label": "exists",
            "offset": 0,
            "slot": "0",
            "type": "t_bool"
          },
          {
            "astId": 4095,
            "contract": "contracts/facets/ArchaeologistFacet.sol:ArchaeologistFacet",
            "label": "peerId",
            "offset": 0,
            "slot": "1",
            "type": "t_string_storage"
          },
          {
            "astId": 4097,
            "contract": "contracts/facets/ArchaeologistFacet.sol:ArchaeologistFacet",
            "label": "minimumDiggingFee",
            "offset": 0,
            "slot": "2",
            "type": "t_uint256"
          },
          {
            "astId": 4099,
            "contract": "contracts/facets/ArchaeologistFacet.sol:ArchaeologistFacet",
            "label": "maximumRewrapInterval",
            "offset": 0,
            "slot": "3",
            "type": "t_uint256"
          },
          {
            "astId": 4101,
            "contract": "contracts/facets/ArchaeologistFacet.sol:ArchaeologistFacet",
            "label": "freeBond",
            "offset": 0,
            "slot": "4",
            "type": "t_uint256"
          },
          {
            "astId": 4103,
            "contract": "contracts/facets/ArchaeologistFacet.sol:ArchaeologistFacet",
            "label": "cursedBond",
            "offset": 0,
            "slot": "5",
            "type": "t_uint256"
          }
        ],
        "numberOfBytes": "192"
      },
      "t_struct(CursedArchaeologist)4091_storage": {
        "encoding": "inplace",
        "label": "struct LibTypes.CursedArchaeologist",
        "members": [
          {
            "astId": 4084,
            "contract": "contracts/facets/ArchaeologistFacet.sol:ArchaeologistFacet",
            "label": "doubleHashedKeyShare",
            "offset": 0,
            "slot": "0",
            "type": "t_bytes32"
          },
          {
            "astId": 4086,
            "contract": "contracts/facets/ArchaeologistFacet.sol:ArchaeologistFacet",
            "label": "isAccused",
            "offset": 0,
            "slot": "1",
            "type": "t_bool"
          },
          {
            "astId": 4088,
            "contract": "contracts/facets/ArchaeologistFacet.sol:ArchaeologistFacet",
            "label": "diggingFee",
            "offset": 0,
            "slot": "2",
            "type": "t_uint256"
          },
          {
            "astId": 4090,
            "contract": "contracts/facets/ArchaeologistFacet.sol:ArchaeologistFacet",
            "label": "rawKeyShare",
            "offset": 0,
            "slot": "3",
            "type": "t_bytes_storage"
          }
        ],
        "numberOfBytes": "128"
      },
      "t_struct(Sarcophagus)4082_storage": {
        "encoding": "inplace",
        "label": "struct LibTypes.Sarcophagus",
        "members": [
          {
            "astId": 4057,
            "contract": "contracts/facets/ArchaeologistFacet.sol:ArchaeologistFacet",
            "label": "resurrectionTime",
            "offset": 0,
            "slot": "0",
            "type": "t_uint256"
          },
          {
            "astId": 4059,
            "contract": "contracts/facets/ArchaeologistFacet.sol:ArchaeologistFacet",
            "label": "isCompromised",
            "offset": 0,
            "slot": "1",
            "type": "t_bool"
          },
          {
            "astId": 4061,
            "contract": "contracts/facets/ArchaeologistFacet.sol:ArchaeologistFacet",
            "label": "name",
            "offset": 0,
            "slot": "2",
            "type": "t_string_storage"
          },
          {
            "astId": 4063,
            "contract": "contracts/facets/ArchaeologistFacet.sol:ArchaeologistFacet",
            "label": "threshold",
            "offset": 0,
            "slot": "3",
            "type": "t_uint8"
          },
          {
            "astId": 4065,
            "contract": "contracts/facets/ArchaeologistFacet.sol:ArchaeologistFacet",
            "label": "maximumRewrapInterval",
            "offset": 0,
            "slot": "4",
            "type": "t_uint256"
          },
          {
            "astId": 4069,
            "contract": "contracts/facets/ArchaeologistFacet.sol:ArchaeologistFacet",
            "label": "arweaveTxIds",
            "offset": 0,
            "slot": "5",
            "type": "t_array(t_string_storage)2_storage"
          },
          {
            "astId": 4071,
            "contract": "contracts/facets/ArchaeologistFacet.sol:ArchaeologistFacet",
            "label": "embalmerAddress",
            "offset": 0,
            "slot": "7",
            "type": "t_address"
          },
          {
            "astId": 4073,
            "contract": "contracts/facets/ArchaeologistFacet.sol:ArchaeologistFacet",
            "label": "recipientAddress",
            "offset": 0,
            "slot": "8",
            "type": "t_address"
          },
          {
            "astId": 4076,
            "contract": "contracts/facets/ArchaeologistFacet.sol:ArchaeologistFacet",
            "label": "cursedArchaeologistAddresses",
            "offset": 0,
            "slot": "9",
            "type": "t_array(t_address)dyn_storage"
          },
          {
            "astId": 4081,
            "contract": "contracts/facets/ArchaeologistFacet.sol:ArchaeologistFacet",
            "label": "cursedArchaeologists",
            "offset": 0,
            "slot": "10",
            "type": "t_mapping(t_address,t_struct(CursedArchaeologist)4091_storage)"
          }
        ],
        "numberOfBytes": "352"
      },
      "t_uint256": {
        "encoding": "inplace",
        "label": "uint256",
        "numberOfBytes": "32"
      },
      "t_uint8": {
        "encoding": "inplace",
        "label": "uint8",
        "numberOfBytes": "1"
      }
    }
  }
}