{
  "address": "0x978F6AfB5d1689da12e36D4bd42860991DEC804F",
  "abi": [
    {
      "inputs": [
        {
          "internalType": "address",
          "name": "archaeologistAddress",
          "type": "address"
        }
      ],
      "name": "ArchaeologistAlreadyPublishedPrivateKey",
      "type": "error"
    },
    {
      "inputs": [
        {
          "internalType": "address",
          "name": "archaeologistAddress",
          "type": "address"
        },
        {
          "internalType": "bytes32",
          "name": "sarcoId",
          "type": "bytes32"
        }
      ],
      "name": "ArchaeologistHasBeenAccused",
      "type": "error"
    },
    {
      "inputs": [
        {
          "internalType": "address",
          "name": "archaeologist",
          "type": "address"
        }
      ],
      "name": "ArchaeologistNotOnSarcophagus",
      "type": "error"
    },
    {
      "inputs": [
        {
          "internalType": "bool",
          "name": "exists",
          "type": "bool"
        },
        {
          "internalType": "address",
          "name": "archaeologist",
          "type": "address"
        }
      ],
      "name": "ArchaeologistProfileExistsShouldBe",
      "type": "error"
    },
    {
      "inputs": [
        {
          "internalType": "address",
          "name": "archaeologistAddress",
          "type": "address"
        },
        {
          "internalType": "bytes",
          "name": "publicKey",
          "type": "bytes"
        },
        {
          "internalType": "bytes32",
          "name": "privateKey",
          "type": "bytes32"
        }
      ],
      "name": "ArchaeologistPublishedIncorrectPrivateKey",
      "type": "error"
    },
    {
      "inputs": [],
      "name": "CannotSetZeroProfileValue",
      "type": "error"
    },
    {
      "inputs": [
        {
          "internalType": "uint256",
          "name": "cursedBond",
          "type": "uint256"
        },
        {
          "internalType": "uint256",
          "name": "amount",
          "type": "uint256"
        }
      ],
      "name": "NotEnoughCursedBond",
      "type": "error"
    },
    {
      "inputs": [
        {
          "internalType": "uint256",
          "name": "freeBond",
          "type": "uint256"
        },
        {
          "internalType": "uint256",
          "name": "amount",
          "type": "uint256"
        }
      ],
      "name": "NotEnoughFreeBond",
      "type": "error"
    },
    {
      "inputs": [
        {
          "internalType": "bytes32",
          "name": "sarcoId",
          "type": "bytes32"
        }
      ],
      "name": "SarcophagusCompromised",
      "type": "error"
    },
    {
      "inputs": [
        {
          "internalType": "bytes32",
          "name": "sarcoId",
          "type": "bytes32"
        }
      ],
      "name": "SarcophagusDoesNotExist",
      "type": "error"
    },
    {
      "inputs": [
        {
          "internalType": "bytes32",
          "name": "sarcoId",
          "type": "bytes32"
        }
      ],
      "name": "SarcophagusInactive",
      "type": "error"
    },
    {
      "inputs": [
        {
          "internalType": "uint256",
          "name": "currentTime",
          "type": "uint256"
        },
        {
          "internalType": "uint256",
          "name": "resurrectionTime",
          "type": "uint256"
        }
      ],
      "name": "TooEarlyForPublish",
      "type": "error"
    },
    {
      "inputs": [
        {
          "internalType": "uint256",
          "name": "currentTime",
          "type": "uint256"
        },
        {
          "internalType": "uint256",
          "name": "publishDeadline",
          "type": "uint256"
        }
      ],
      "name": "TooLateForPublish",
      "type": "error"
    },
    {
      "anonymous": false,
      "inputs": [
        {
          "indexed": true,
          "internalType": "address",
          "name": "archaeologist",
          "type": "address"
        },
        {
          "indexed": false,
          "internalType": "uint256",
          "name": "depositedBond",
          "type": "uint256"
        }
      ],
      "name": "DepositFreeBond",
      "type": "event"
    },
    {
      "anonymous": false,
      "inputs": [
        {
          "indexed": true,
          "internalType": "bytes32",
          "name": "sarcoId",
          "type": "bytes32"
        },
        {
          "indexed": false,
          "internalType": "bytes32",
          "name": "privateKey",
          "type": "bytes32"
        },
        {
          "indexed": true,
          "internalType": "address",
          "name": "archaeologist",
          "type": "address"
        }
      ],
      "name": "PublishPrivateKey",
      "type": "event"
    },
    {
      "anonymous": false,
      "inputs": [
        {
          "indexed": true,
          "internalType": "address",
          "name": "archaeologist",
          "type": "address"
        },
        {
          "indexed": false,
          "internalType": "string",
          "name": "peerId",
          "type": "string"
        },
        {
          "indexed": false,
          "internalType": "uint256",
          "name": "minimumDiggingFee",
          "type": "uint256"
        },
        {
          "indexed": false,
          "internalType": "uint256",
          "name": "maximumRewrapInterval",
          "type": "uint256"
        },
        {
          "indexed": false,
          "internalType": "uint256",
          "name": "freeBond",
          "type": "uint256"
        },
        {
          "indexed": false,
          "internalType": "uint256",
          "name": "maximumResurrectionTime",
          "type": "uint256"
        }
      ],
      "name": "RegisterArchaeologist",
      "type": "event"
    },
    {
      "anonymous": false,
      "inputs": [
        {
          "indexed": true,
          "internalType": "address",
          "name": "archaeologist",
          "type": "address"
        },
        {
          "indexed": false,
          "internalType": "string",
          "name": "peerId",
          "type": "string"
        },
        {
          "indexed": false,
          "internalType": "uint256",
          "name": "minimumDiggingFee",
          "type": "uint256"
        },
        {
          "indexed": false,
          "internalType": "uint256",
          "name": "maximumRewrapInterval",
          "type": "uint256"
        },
        {
          "indexed": false,
          "internalType": "uint256",
          "name": "freeBond",
          "type": "uint256"
        },
        {
          "indexed": false,
          "internalType": "uint256",
          "name": "maximumResurrectionTime",
          "type": "uint256"
        }
      ],
      "name": "UpdateArchaeologist",
      "type": "event"
    },
    {
      "anonymous": false,
      "inputs": [
        {
          "indexed": true,
          "internalType": "address",
          "name": "archaeologist",
          "type": "address"
        },
        {
          "indexed": false,
          "internalType": "uint256",
          "name": "withdrawnBond",
          "type": "uint256"
        }
      ],
      "name": "WithdrawFreeBond",
      "type": "event"
    },
    {
      "anonymous": false,
      "inputs": [
        {
          "indexed": true,
          "internalType": "address",
          "name": "archaeologist",
          "type": "address"
        },
        {
          "indexed": false,
          "internalType": "uint256",
          "name": "withdrawnReward",
          "type": "uint256"
        }
      ],
      "name": "WithdrawReward",
      "type": "event"
    },
    {
      "inputs": [
        {
          "internalType": "uint256",
          "name": "amount",
          "type": "uint256"
        }
      ],
      "name": "depositFreeBond",
      "outputs": [],
      "stateMutability": "nonpayable",
      "type": "function"
    },
    {
      "inputs": [
        {
          "internalType": "bytes32",
          "name": "sarcoId",
          "type": "bytes32"
        },
        {
          "internalType": "bytes32",
          "name": "privateKey",
          "type": "bytes32"
        }
      ],
      "name": "publishPrivateKey",
      "outputs": [],
      "stateMutability": "nonpayable",
      "type": "function"
    },
    {
      "inputs": [
        {
          "internalType": "string",
          "name": "peerId",
          "type": "string"
        },
        {
          "internalType": "uint256",
          "name": "minimumDiggingFeePerSecond",
          "type": "uint256"
        },
        {
          "internalType": "uint256",
          "name": "maximumRewrapInterval",
          "type": "uint256"
        },
        {
          "internalType": "uint256",
          "name": "freeBond",
          "type": "uint256"
        },
        {
          "internalType": "uint256",
          "name": "maximumResurrectionTime",
          "type": "uint256"
        }
      ],
      "name": "registerArchaeologist",
      "outputs": [],
      "stateMutability": "nonpayable",
      "type": "function"
    },
    {
      "inputs": [
        {
          "internalType": "string",
          "name": "peerId",
          "type": "string"
        },
        {
          "internalType": "uint256",
          "name": "minimumDiggingFeePerSecond",
          "type": "uint256"
        },
        {
          "internalType": "uint256",
          "name": "maximumRewrapInterval",
          "type": "uint256"
        },
        {
          "internalType": "uint256",
          "name": "freeBond",
          "type": "uint256"
        },
        {
          "internalType": "uint256",
          "name": "maximumResurrectionTime",
          "type": "uint256"
        }
      ],
      "name": "updateArchaeologist",
      "outputs": [],
      "stateMutability": "nonpayable",
      "type": "function"
    },
    {
      "inputs": [
        {
          "internalType": "uint256",
          "name": "amount",
          "type": "uint256"
        }
      ],
      "name": "withdrawFreeBond",
      "outputs": [],
      "stateMutability": "nonpayable",
      "type": "function"
    },
    {
      "inputs": [],
      "name": "withdrawReward",
      "outputs": [],
      "stateMutability": "nonpayable",
      "type": "function"
    }
  ],
  "transactionHash": "0xe4145dd0c2b76e0f3a55ce8e87a0e4baedbf9a6ca58b595797ab505e233a0545",
  "args": [],
  "numDeployments": 3,
  "solcInputHash": "d2954766a5257e4e199bc2f01ec40385",
  "bytecode": "0x608060405234801561001057600080fd5b506121df806100206000396000f3fe608060405234801561001057600080fd5b50600436106100625760003560e01c8063364e0801146100675780636a5ac74c146100835780637f06727a1461009f5780638355a17b146100bb578063a4110dbe146100d7578063c885bc58146100f3575b600080fd5b610081600480360381019061007c9190611751565b6100fd565b005b61009d60048036038101906100989190611751565b610211565b005b6100b960048036038101906100b491906118c4565b610378565b005b6100d560048036038101906100d091906118c4565b6105c8565b005b6100f160048036038101906100ec9190611991565b610870565b005b6100fb610ccb565b005b6000610107610e59565b905061011233610e86565b61011c3383610f22565b8060000160009054906101000a900473ffffffffffffffffffffffffffffffffffffffff1673ffffffffffffffffffffffffffffffffffffffff1663a9059cbb33846040518363ffffffff1660e01b815260040161017b929190611a21565b6020604051808303816000875af115801561019a573d6000803e3d6000fd5b505050506040513d601f19601f820116820180604052508101906101be9190611a82565b503373ffffffffffffffffffffffffffffffffffffffff167fd91b1e491a880123721b161dbbf8249668b0c546077d7ba4d0016441ca9d8f45836040516102059190611aaf565b60405180910390a25050565b600061021b610e59565b905061022633610e86565b8181600d0160003373ffffffffffffffffffffffffffffffffffffffff1673ffffffffffffffffffffffffffffffffffffffff168152602001908152602001600020600401600082825461027a9190611af9565b925050819055508060000160009054906101000a900473ffffffffffffffffffffffffffffffffffffffff1673ffffffffffffffffffffffffffffffffffffffff166323b872dd3330856040518463ffffffff1660e01b81526004016102e293929190611b4f565b6020604051808303816000875af1158015610301573d6000803e3d6000fd5b505050506040513d601f19601f820116820180604052508101906103259190611a82565b503373ffffffffffffffffffffffffffffffffffffffff167ff882a0847c57aefe6f6c7df2098dd0afd122eb0e886199e223651b8e45fda8238360405161036c9190611aaf565b60405180910390a25050565b6000610382610e59565b905061038d33610e86565b600084148061039c5750600085145b156103d3576040517fdec9919f00000000000000000000000000000000000000000000000000000000815260040160405180910390fd5b600081600d0160003373ffffffffffffffffffffffffffffffffffffffff1673ffffffffffffffffffffffffffffffffffffffff168152602001908152602001600020905086816002019080519060200190610430929190611664565b508581600301819055508481600001819055508281600101819055506000841115610556578382600d0160003373ffffffffffffffffffffffffffffffffffffffff1673ffffffffffffffffffffffffffffffffffffffff16815260200190815260200160002060040160008282546104a99190611af9565b925050819055508160000160009054906101000a900473ffffffffffffffffffffffffffffffffffffffff1673ffffffffffffffffffffffffffffffffffffffff166323b872dd3330876040518463ffffffff1660e01b815260040161051193929190611b4f565b6020604051808303816000875af1158015610530573d6000803e3d6000fd5b505050506040513d601f19601f820116820180604052508101906105549190611a82565b505b3373ffffffffffffffffffffffffffffffffffffffff167f8937618657bc05b4e1f529d147029377f8e0e6886ecf59183d212f263bd1bfa18260020183600301548460000154856004015486600101546040516105b7959493929190611c8c565b60405180910390a250505050505050565b60006105d2610e59565b90506105dd3361105d565b60008414806105ec5750600085145b15610623576040517fdec9919f00000000000000000000000000000000000000000000000000000000815260040160405180910390fd5b60006040518060c00160405280868152602001848152602001888152602001878152602001858152602001600081525090506000841115610704578160000160009054906101000a900473ffffffffffffffffffffffffffffffffffffffff1673ffffffffffffffffffffffffffffffffffffffff166323b872dd3330876040518463ffffffff1660e01b81526004016106bf93929190611b4f565b6020604051808303816000875af11580156106de573d6000803e3d6000fd5b505050506040513d601f19601f820116820180604052508101906107029190611a82565b505b8082600d0160003373ffffffffffffffffffffffffffffffffffffffff1673ffffffffffffffffffffffffffffffffffffffff16815260200190815260200160002060008201518160000155602082015181600101556040820151816002019080519060200190610776929190611664565b50606082015181600301556080820151816004015560a0820151816005015590505081600701339080600181540180825580915050600190039060005260206000200160009091909190916101000a81548173ffffffffffffffffffffffffffffffffffffffff021916908373ffffffffffffffffffffffffffffffffffffffff1602179055503373ffffffffffffffffffffffffffffffffffffffff167f4d7b40490f4c8e19031e2c3248c8e1da3d74d5779beb3b7e2d7295194a58edd98260400151836060015184600001518560800151866020015160405161085f959493929190611d5d565b60405180910390a250505050505050565b600061087a610e59565b9050600081600c016000858152602001908152602001600020905060008160000154036108de57836040517f018da6880000000000000000000000000000000000000000000000000000000081526004016108d59190611dc6565b60405180910390fd5b8060020160009054906101000a900460ff161561093257836040517f9af72b860000000000000000000000000000000000000000000000000000000081526004016109299190611dc6565b60405180910390fd5b7fffffffffffffffffffffffffffffffffffffffffffffffffffffffffffffffff81600001540361099a57836040517f7c6a6d700000000000000000000000000000000000000000000000000000000081526004016109919190611dc6565b60405180910390fd5b80600001544210156109e9574281600001546040517f482768090000000000000000000000000000000000000000000000000000000081526004016109e0929190611de1565b60405180910390fd5b816004015481600001546109fd9190611af9565b421115610a56574282600401548260000154610a199190611af9565b6040517f4ccffab1000000000000000000000000000000000000000000000000000000008152600401610a4d929190611de1565b60405180910390fd5b600082600c016000868152602001908152602001600020600a0160003373ffffffffffffffffffffffffffffffffffffffff1673ffffffffffffffffffffffffffffffffffffffff16815260200190815260200160002090506000816002018054610ac090611bb5565b905003610b0457336040517f82881f03000000000000000000000000000000000000000000000000000000008152600401610afb9190611e0a565b60405180910390fd5b8060030160009054906101000a900460ff1615610b5a5733856040517fa40b4423000000000000000000000000000000000000000000000000000000008152600401610b51929190611e25565b60405180910390fd5b6000801b816001015414610ba557336040517f7b06b177000000000000000000000000000000000000000000000000000000008152600401610b9c9190611e0a565b60405180910390fd5b610bb284826002016110f9565b610bfa573381600201856040517f5a95e91c000000000000000000000000000000000000000000000000000000008152600401610bf193929190611ef4565b60405180910390fd5b838160010181905550610c0d853361139e565b82600f0160003373ffffffffffffffffffffffffffffffffffffffff1673ffffffffffffffffffffffffffffffffffffffff1681526020019081526020016000208590806001815401808255809150506001900390600052602060002001600090919091909150553373ffffffffffffffffffffffffffffffffffffffff16857f110eca32dd0b1dbdeaa29671186ba025abb2a6d9c193469a7214ee3244ef740486604051610cbc9190611dc6565b60405180910390a35050505050565b6000610cd5610e59565b9050600081600e0160003373ffffffffffffffffffffffffffffffffffffffff1673ffffffffffffffffffffffffffffffffffffffff168152602001908152602001600020549050600082600e0160003373ffffffffffffffffffffffffffffffffffffffff1673ffffffffffffffffffffffffffffffffffffffff168152602001908152602001600020819055508160000160009054906101000a900473ffffffffffffffffffffffffffffffffffffffff1673ffffffffffffffffffffffffffffffffffffffff1663a9059cbb33836040518363ffffffff1660e01b8152600401610dc3929190611a21565b6020604051808303816000875af1158015610de2573d6000803e3d6000fd5b505050506040513d601f19601f82011682018060405250810190610e069190611a82565b503373ffffffffffffffffffffffffffffffffffffffff167fbc84835063c693975166f00cffb19f01a94c2db55b1bf259238c5da3594e506682604051610e4d9190611aaf565b60405180910390a25050565b6000807f1464b352a39efde2dd07892d0f2f274ce8052e8749182fc4ead14ba82366194490508091505090565b6000610e90610e59565b9050600081600d0160008473ffffffffffffffffffffffffffffffffffffffff1673ffffffffffffffffffffffffffffffffffffffff1681526020019081526020016000206000015403610f1e576001826040517f2eeb3571000000000000000000000000000000000000000000000000000000008152600401610f15929190611f41565b60405180910390fd5b5050565b6000610f2c610e59565b905080600d0160008473ffffffffffffffffffffffffffffffffffffffff1673ffffffffffffffffffffffffffffffffffffffff16815260200190815260200160002060040154821115610ffd5780600d0160008473ffffffffffffffffffffffffffffffffffffffff1673ffffffffffffffffffffffffffffffffffffffff16815260200190815260200160002060040154826040517fa4e3bead000000000000000000000000000000000000000000000000000000008152600401610ff4929190611de1565b60405180910390fd5b8181600d0160008573ffffffffffffffffffffffffffffffffffffffff1673ffffffffffffffffffffffffffffffffffffffff16815260200190815260200160002060040160008282546110519190611f6a565b92505081905550505050565b6000611067610e59565b9050600081600d0160008473ffffffffffffffffffffffffffffffffffffffff1673ffffffffffffffffffffffffffffffffffffffff16815260200190815260200160002060000154146110f5576000826040517f2eeb35710000000000000000000000000000000000000000000000000000000081526004016110ec929190611f41565b60405180910390fd5b5050565b600080600183805461110a90611bb5565b90506111169190611f6a565b67ffffffffffffffff81111561112f5761112e611799565b5b6040519080825280601f01601f1916602001820160405280156111615781602001600182028036833780820191505090505b5090506000600190505b83805461117790611bb5565b9050811015611242578381815461118d90611bb5565b811061119c5761119b611f9e565b5b8154600116156111bb5790600052602060002090602091828204019190065b9054901a7f010000000000000000000000000000000000000000000000000000000000000002826001836111ef9190611f6a565b81518110611200576111ff611f9e565b5b60200101907effffffffffffffffffffffffffffffffffffffffffffffffffffffffffffff1916908160001a905350808061123a90611fcd565b91505061116b565b5060007f79be667ef9dcbbac55a06295ce870b07029bfcdb2dce28d959f2815b16f81798905060007f483ada7726a3c4655da4fbfc0e1108a8fd17b448a68554199c47d08ffb10d4b8905060007ffffffffffffffffffffffffffffffffebaaedce6af48a03bbfd25e8cd03641419050600060016000806002866112c69190612044565b036112d257601b6112d5565b601c5b8660001b85806112e8576112e7612015565b5b888d60001c0960001b6040516000815260200160405260405161130e94939291906120d9565b6020604051602081039080840390855afa158015611330573d6000803e3d6000fd5b505050602060405103519050600073ffffffffffffffffffffffffffffffffffffffff868051906020012060001c1690508173ffffffffffffffffffffffffffffffffffffffff168173ffffffffffffffffffffffffffffffffffffffff1614965050505050505092915050565b60006113a8610e59565b9050600081600c0160008581526020019081526020016000209050600082600c016000868152602001908152602001600020600a0160008573ffffffffffffffffffffffffffffffffffffffff1673ffffffffffffffffffffffffffffffffffffffff16815260200190815260200160002090506000826001015483600001546114329190611f6a565b8260000154611441919061211e565b90506000606484600b015483611457919061211e565b6114619190612178565b905061146d8682611529565b8085600d0160008873ffffffffffffffffffffffffffffffffffffffff1673ffffffffffffffffffffffffffffffffffffffff16815260200190815260200160002060040160008282546114c19190611af9565b925050819055508185600e0160008873ffffffffffffffffffffffffffffffffffffffff1673ffffffffffffffffffffffffffffffffffffffff16815260200190815260200160002060008282546115199190611af9565b9250508190555050505050505050565b6000611533610e59565b905080600d0160008473ffffffffffffffffffffffffffffffffffffffff1673ffffffffffffffffffffffffffffffffffffffff168152602001908152602001600020600501548211156116045780600d0160008473ffffffffffffffffffffffffffffffffffffffff1673ffffffffffffffffffffffffffffffffffffffff16815260200190815260200160002060050154826040517faf5a111b0000000000000000000000000000000000000000000000000000000081526004016115fb929190611de1565b60405180910390fd5b8181600d0160008573ffffffffffffffffffffffffffffffffffffffff1673ffffffffffffffffffffffffffffffffffffffff16815260200190815260200160002060050160008282546116589190611f6a565b92505081905550505050565b82805461167090611bb5565b90600052602060002090601f01602090048101928261169257600085556116d9565b82601f106116ab57805160ff19168380011785556116d9565b828001600101855582156116d9579182015b828111156116d85782518255916020019190600101906116bd565b5b5090506116e691906116ea565b5090565b5b808211156117035760008160009055506001016116eb565b5090565b6000604051905090565b600080fd5b600080fd5b6000819050919050565b61172e8161171b565b811461173957600080fd5b50565b60008135905061174b81611725565b92915050565b60006020828403121561176757611766611711565b5b60006117758482850161173c565b91505092915050565b600080fd5b600080fd5b6000601f19601f8301169050919050565b7f4e487b7100000000000000000000000000000000000000000000000000000000600052604160045260246000fd5b6117d182611788565b810181811067ffffffffffffffff821117156117f0576117ef611799565b5b80604052505050565b6000611803611707565b905061180f82826117c8565b919050565b600067ffffffffffffffff82111561182f5761182e611799565b5b61183882611788565b9050602081019050919050565b82818337600083830152505050565b600061186761186284611814565b6117f9565b90508281526020810184848401111561188357611882611783565b5b61188e848285611845565b509392505050565b600082601f8301126118ab576118aa61177e565b5b81356118bb848260208601611854565b91505092915050565b600080600080600060a086880312156118e0576118df611711565b5b600086013567ffffffffffffffff8111156118fe576118fd611716565b5b61190a88828901611896565b955050602061191b8882890161173c565b945050604061192c8882890161173c565b935050606061193d8882890161173c565b925050608061194e8882890161173c565b9150509295509295909350565b6000819050919050565b61196e8161195b565b811461197957600080fd5b50565b60008135905061198b81611965565b92915050565b600080604083850312156119a8576119a7611711565b5b60006119b68582860161197c565b92505060206119c78582860161197c565b9150509250929050565b600073ffffffffffffffffffffffffffffffffffffffff82169050919050565b60006119fc826119d1565b9050919050565b611a0c816119f1565b82525050565b611a1b8161171b565b82525050565b6000604082019050611a366000830185611a03565b611a436020830184611a12565b9392505050565b60008115159050919050565b611a5f81611a4a565b8114611a6a57600080fd5b50565b600081519050611a7c81611a56565b92915050565b600060208284031215611a9857611a97611711565b5b6000611aa684828501611a6d565b91505092915050565b6000602082019050611ac46000830184611a12565b92915050565b7f4e487b7100000000000000000000000000000000000000000000000000000000600052601160045260246000fd5b6000611b048261171b565b9150611b0f8361171b565b9250827fffffffffffffffffffffffffffffffffffffffffffffffffffffffffffffffff03821115611b4457611b43611aca565b5b828201905092915050565b6000606082019050611b646000830186611a03565b611b716020830185611a03565b611b7e6040830184611a12565b949350505050565b7f4e487b7100000000000000000000000000000000000000000000000000000000600052602260045260246000fd5b60006002820490506001821680611bcd57607f821691505b602082108103611be057611bdf611b86565b5b50919050565b600082825260208201905092915050565b60008190508160005260206000209050919050565b60008154611c1981611bb5565b611c238186611be6565b94506001821660008114611c3e5760018114611c5057611c83565b60ff1983168652602086019350611c83565b611c5985611bf7565b60005b83811015611c7b57815481890152600182019150602081019050611c5c565b808801955050505b50505092915050565b600060a0820190508181036000830152611ca68188611c0c565b9050611cb56020830187611a12565b611cc26040830186611a12565b611ccf6060830185611a12565b611cdc6080830184611a12565b9695505050505050565b600081519050919050565b60005b83811015611d0f578082015181840152602081019050611cf4565b83811115611d1e576000848401525b50505050565b6000611d2f82611ce6565b611d398185611be6565b9350611d49818560208601611cf1565b611d5281611788565b840191505092915050565b600060a0820190508181036000830152611d778188611d24565b9050611d866020830187611a12565b611d936040830186611a12565b611da06060830185611a12565b611dad6080830184611a12565b9695505050505050565b611dc08161195b565b82525050565b6000602082019050611ddb6000830184611db7565b92915050565b6000604082019050611df66000830185611a12565b611e036020830184611a12565b9392505050565b6000602082019050611e1f6000830184611a03565b92915050565b6000604082019050611e3a6000830185611a03565b611e476020830184611db7565b9392505050565b600082825260208201905092915050565b60008190508160005260206000209050919050565b60008154611e8181611bb5565b611e8b8186611e4e565b94506001821660008114611ea65760018114611eb857611eeb565b60ff1983168652602086019350611eeb565b611ec185611e5f565b60005b83811015611ee357815481890152600182019150602081019050611ec4565b808801955050505b50505092915050565b6000606082019050611f096000830186611a03565b8181036020830152611f1b8185611e74565b9050611f2a6040830184611db7565b949350505050565b611f3b81611a4a565b82525050565b6000604082019050611f566000830185611f32565b611f636020830184611a03565b9392505050565b6000611f758261171b565b9150611f808361171b565b925082821015611f9357611f92611aca565b5b828203905092915050565b7f4e487b7100000000000000000000000000000000000000000000000000000000600052603260045260246000fd5b6000611fd88261171b565b91507fffffffffffffffffffffffffffffffffffffffffffffffffffffffffffffffff820361200a57612009611aca565b5b600182019050919050565b7f4e487b7100000000000000000000000000000000000000000000000000000000600052601260045260246000fd5b600061204f8261171b565b915061205a8361171b565b92508261206a57612069612015565b5b828206905092915050565b6000819050919050565b60008160001b9050919050565b60006120a76120a261209d84612075565b61207f565b61195b565b9050919050565b6120b78161208c565b82525050565b600060ff82169050919050565b6120d3816120bd565b82525050565b60006080820190506120ee60008301876120ae565b6120fb60208301866120ca565b6121086040830185611db7565b6121156060830184611db7565b95945050505050565b60006121298261171b565b91506121348361171b565b9250817fffffffffffffffffffffffffffffffffffffffffffffffffffffffffffffffff048311821515161561216d5761216c611aca565b5b828202905092915050565b60006121838261171b565b915061218e8361171b565b92508261219e5761219d612015565b5b82820490509291505056fea26469706673582212202b57532e4ac5d4fdfabf8d63a5a79e1b985a12583c79d8a6f8f4f565789fce4164736f6c634300080d0033",
  "devdoc": {
    "errors": {
      "ArchaeologistAlreadyPublishedPrivateKey(address)": [
        {
          "params": {
            "archaeologistAddress": "address of publishing archaeologist"
          }
        }
      ],
      "ArchaeologistHasBeenAccused(address,bytes32)": [
        {
          "params": {
            "archaeologistAddress": "Address of accused archaeologist who is attempting to publish their private key",
            "sarcoId": "ID of sarcophagus archaeologist has attempted to publish a key on"
          }
        }
      ],
      "ArchaeologistPublishedIncorrectPrivateKey(address,bytes,bytes32)": [
        {
          "params": {
            "archaeologistAddress": "address of publishing archaeologist",
            "privateKey": "privateKey the archaeologist has attempted to publish",
            "publicKey": "publicKey stored for archaeologist on the sarcophagus"
          }
        }
      ],
      "TooEarlyForPublish(uint256,uint256)": [
        {
          "params": {
            "currentTime": "Timestamp of the failed publish attempt",
            "resurrectionTime": "Time after which the sarcophagus can be resurrected"
          }
        }
      ],
      "TooLateForPublish(uint256,uint256)": [
        {
          "params": {
            "currentTime": "Timestamp of the failed publish attempt",
            "publishDeadline": "Time after which the sarcophagus can no longer be resurrected  (resurrectionTime + gracePeriod)"
          }
        }
      ]
    },
    "events": {
      "PublishPrivateKey(bytes32,bytes32,address)": {
        "params": {
          "privateKey": "private key that has been published",
          "sarcoId": "ID of sarcophagus archaeologist has published the private key on"
        }
      }
    },
    "kind": "dev",
    "methods": {
      "depositFreeBond(uint256)": {
        "params": {
          "amount": "The amount to deposit"
        }
      },
      "publishPrivateKey(bytes32,bytes32)": {
        "params": {
          "privateKey": "The private key the archaeologist is publishing",
          "sarcoId": "The identifier of the sarcophagus for which the archaeologist is responsible"
        }
      },
      "registerArchaeologist(string,uint256,uint256,uint256,uint256)": {
        "params": {
          "freeBond": "How much bond the archaeologist wants to deposit during the register call (if any)",
          "maximumResurrectionTime": "The time beyond which the archaeologist is not willing to accept new curses or rewraps",
          "maximumRewrapInterval": "The longest interval of time from a rewrap time the arch will accept for a resurrection",
          "minimumDiggingFeePerSecond": "The archaeologist's minimum amount to earn per second for being cursed",
          "peerId": "The libp2p identifier for the archaeologist"
        }
      },
      "updateArchaeologist(string,uint256,uint256,uint256,uint256)": {
        "params": {
          "maximumRewrapInterval": "The longest interval of time from a rewrap time the arch will accept for a resurrection freeBond How much bond the archaeologist wants to deposit during the update call (if any)",
          "minimumDiggingFeePerSecond": "The archaeologist's minimum amount to earn per second for being cursed",
          "peerId": "The libp2p identifier for the archaeologist"
        }
      },
      "withdrawFreeBond(uint256)": {
        "params": {
          "amount": "The amount to withdraw"
        }
      }
    },
    "version": 1
  },
  "userdoc": {
    "errors": {
      "ArchaeologistAlreadyPublishedPrivateKey(address)": [
        {
          "notice": "Archaeologist has attempted to publish a key for a sarcophagus twice"
        }
      ],
      "ArchaeologistHasBeenAccused(address,bytes32)": [
        {
          "notice": "An archaeologist that has already been successfully accused has attempted to publish their private key"
        }
      ],
      "ArchaeologistPublishedIncorrectPrivateKey(address,bytes,bytes32)": [
        {
          "notice": "Archaeologist has attempted to publish the incorrect private key for a sarcophagus"
        }
      ],
      "CannotSetZeroProfileValue()": [
        {
          "notice": "Archaeologist has attempted to set a zero minimumDiggingFeePerSecond or maximumRewrapInterval"
        }
      ],
      "TooEarlyForPublish(uint256,uint256)": [
        {
          "notice": "Archaeologist has attempted to publish a key before the resurrection time"
        }
      ],
      "TooLateForPublish(uint256,uint256)": [
        {
          "notice": "Archaeologist has attempted to publish a key after the end of the resurrection window"
        }
      ]
    },
    "events": {
      "PublishPrivateKey(bytes32,bytes32,address)": {
        "notice": "Emitted when an archaeologist successfully publishes their private key for a sarcophagus"
      }
    },
    "kind": "user",
    "methods": {
      "depositFreeBond(uint256)": {
        "notice": "Deposits an archaeologist's free bond to the contract."
      },
      "publishPrivateKey(bytes32,bytes32)": {
        "notice": "Publishes the private key for which the archaeologist is responsible during the sarcophagus resurrection window. Pays digging fees to the archaeologist and releases their locked bond. Cannot be called on a compromised or buried sarcophagus."
      },
      "registerArchaeologist(string,uint256,uint256,uint256,uint256)": {
        "notice": "Registers the archaeologist profile"
      },
      "updateArchaeologist(string,uint256,uint256,uint256,uint256)": {
        "notice": "Updates the archaeologist profile"
      },
      "withdrawFreeBond(uint256)": {
        "notice": "Withdraws an archaeologist's free bond from the contract."
      },
      "withdrawReward()": {
        "notice": "Withdraws all rewards from an archaeologist's reward pool"
      }
    },
    "version": 1
  },
  "storageLayout": {
    "storage": [],
    "types": null
  }
}