{
  "address": "0x2B3711105a9d34C707455e490349F5F062Ff004B",
  "abi": [
    {
      "inputs": [
        {
          "internalType": "address",
          "name": "archaeologist",
          "type": "address"
        }
      ],
      "name": "ArchaeologistAlreadyUnwrapped",
      "type": "error"
    },
    {
      "inputs": [
        {
          "internalType": "address",
          "name": "archaeologist",
          "type": "address"
        }
      ],
      "name": "ArchaeologistNotOnSarcophagus",
      "type": "error"
    },
    {
      "inputs": [
        {
          "internalType": "bool",
          "name": "exists",
          "type": "bool"
        },
        {
          "internalType": "address",
          "name": "archaeologist",
          "type": "address"
        }
      ],
      "name": "ArchaeologistProfileExistsShouldBe",
      "type": "error"
    },
    {
      "inputs": [
        {
          "internalType": "uint256",
          "name": "cursedBond",
          "type": "uint256"
        },
        {
          "internalType": "uint256",
          "name": "amount",
          "type": "uint256"
        }
      ],
      "name": "NotEnoughCursedBond",
      "type": "error"
    },
    {
      "inputs": [
        {
          "internalType": "uint256",
          "name": "freeBond",
          "type": "uint256"
        },
        {
          "internalType": "uint256",
          "name": "amount",
          "type": "uint256"
        }
      ],
      "name": "NotEnoughFreeBond",
      "type": "error"
    },
    {
      "inputs": [
        {
          "internalType": "uint256",
          "name": "resurrectionTime",
          "type": "uint256"
        }
      ],
      "name": "ResurrectionTimeInPast",
      "type": "error"
    },
    {
      "inputs": [
        {
          "internalType": "bytes32",
          "name": "sarcoId",
          "type": "bytes32"
        }
      ],
      "name": "SarcophagusDoesNotExist",
      "type": "error"
    },
    {
      "inputs": [
        {
          "internalType": "bytes32",
          "name": "sarcoId",
          "type": "bytes32"
        }
      ],
      "name": "SarcophagusInactive",
      "type": "error"
    },
    {
      "inputs": [
        {
          "internalType": "bytes32",
          "name": "sarcoId",
          "type": "bytes32"
        },
        {
          "internalType": "address",
          "name": "signer",
          "type": "address"
        }
      ],
      "name": "SignerNotArchaeologistOnSarcophagus",
      "type": "error"
    },
    {
      "inputs": [
        {
          "internalType": "uint256",
          "name": "resurrectionTime",
          "type": "uint256"
        },
        {
          "internalType": "uint256",
          "name": "currentTime",
          "type": "uint256"
        }
      ],
      "name": "TooEarlyToUnwrap",
      "type": "error"
    },
    {
      "inputs": [
        {
          "internalType": "uint256",
          "name": "resurrectionTime",
          "type": "uint256"
        },
        {
          "internalType": "uint256",
          "name": "gracePeriod",
          "type": "uint256"
        },
        {
          "internalType": "uint256",
          "name": "currentTime",
          "type": "uint256"
        }
      ],
      "name": "TooLateToUnwrap",
      "type": "error"
    },
    {
      "inputs": [
        {
          "internalType": "bytes",
          "name": "unencryptedShard",
          "type": "bytes"
        },
        {
          "internalType": "bytes32",
          "name": "doubleHashedShard",
          "type": "bytes32"
        }
      ],
      "name": "UnencryptedShardHashMismatch",
      "type": "error"
    },
    {
      "anonymous": false,
      "inputs": [
        {
          "indexed": true,
          "internalType": "address",
          "name": "archaeologist",
          "type": "address"
        },
        {
          "indexed": false,
          "internalType": "uint256",
          "name": "depositedBond",
          "type": "uint256"
        }
      ],
      "name": "DepositFreeBond",
      "type": "event"
    },
    {
      "anonymous": false,
      "inputs": [
        {
          "indexed": false,
          "internalType": "bytes32",
          "name": "sarcoId",
          "type": "bytes32"
        },
        {
          "indexed": false,
          "internalType": "string",
          "name": "arweaveTxId",
          "type": "string"
        },
        {
          "indexed": false,
          "internalType": "address",
          "name": "oldArchaeologist",
          "type": "address"
        },
        {
          "indexed": false,
          "internalType": "address",
          "name": "newArchaeologist",
          "type": "address"
        }
      ],
      "name": "FinalizeTransfer",
      "type": "event"
    },
    {
      "anonymous": false,
      "inputs": [
        {
          "indexed": true,
          "internalType": "address",
          "name": "archaeologist",
          "type": "address"
        },
        {
          "indexed": false,
          "internalType": "string",
          "name": "peerId",
          "type": "string"
        },
        {
          "indexed": false,
          "internalType": "uint256",
          "name": "minimumDiggingFee",
          "type": "uint256"
        },
        {
          "indexed": false,
          "internalType": "uint256",
          "name": "maximumRewrapInterval",
          "type": "uint256"
        },
        {
          "indexed": false,
          "internalType": "uint256",
          "name": "freeBond",
          "type": "uint256"
        }
      ],
      "name": "RegisterArchaeologist",
      "type": "event"
    },
    {
      "anonymous": false,
      "inputs": [
        {
          "indexed": true,
          "internalType": "bytes32",
          "name": "sarcoId",
          "type": "bytes32"
        },
        {
          "indexed": false,
          "internalType": "bytes",
          "name": "unencryptedShard",
          "type": "bytes"
        }
      ],
      "name": "UnwrapSarcophagus",
      "type": "event"
    },
    {
      "anonymous": false,
      "inputs": [
        {
          "indexed": true,
          "internalType": "address",
          "name": "archaeologist",
          "type": "address"
        },
        {
          "indexed": false,
          "internalType": "string",
          "name": "peerId",
          "type": "string"
        },
        {
          "indexed": false,
          "internalType": "uint256",
          "name": "minimumDiggingFee",
          "type": "uint256"
        },
        {
          "indexed": false,
          "internalType": "uint256",
          "name": "maximumRewrapInterval",
          "type": "uint256"
        },
        {
          "indexed": false,
          "internalType": "uint256",
          "name": "freeBond",
          "type": "uint256"
        }
      ],
      "name": "UpdateArchaeologist",
      "type": "event"
    },
    {
      "anonymous": false,
      "inputs": [
        {
          "indexed": true,
          "internalType": "address",
          "name": "archaeologist",
          "type": "address"
        },
        {
          "indexed": false,
          "internalType": "uint256",
          "name": "withdrawnBond",
          "type": "uint256"
        }
      ],
      "name": "WithdrawFreeBond",
      "type": "event"
    },
    {
      "anonymous": false,
      "inputs": [
        {
          "indexed": true,
          "internalType": "address",
          "name": "archaeologist",
          "type": "address"
        },
        {
          "indexed": false,
          "internalType": "uint256",
          "name": "withdrawnReward",
          "type": "uint256"
        }
      ],
      "name": "WithdrawReward",
      "type": "event"
    },
    {
      "inputs": [
        {
          "internalType": "uint256",
          "name": "amount",
          "type": "uint256"
        }
      ],
      "name": "depositFreeBond",
      "outputs": [],
      "stateMutability": "nonpayable",
      "type": "function"
    },
    {
      "inputs": [
        {
          "internalType": "bytes32",
          "name": "sarcoId",
          "type": "bytes32"
        },
        {
          "internalType": "string",
          "name": "arweaveTxId",
          "type": "string"
        },
        {
          "components": [
            {
              "internalType": "uint8",
              "name": "v",
              "type": "uint8"
            },
            {
              "internalType": "bytes32",
              "name": "r",
              "type": "bytes32"
            },
            {
              "internalType": "bytes32",
              "name": "s",
              "type": "bytes32"
            }
          ],
          "internalType": "struct LibTypes.Signature",
          "name": "oldArchSignature",
          "type": "tuple"
        }
      ],
      "name": "finalizeTransfer",
      "outputs": [],
      "stateMutability": "nonpayable",
      "type": "function"
    },
    {
      "inputs": [
        {
          "internalType": "string",
          "name": "peerId",
          "type": "string"
        },
        {
          "internalType": "uint256",
          "name": "minimumDiggingFee",
          "type": "uint256"
        },
        {
          "internalType": "uint256",
          "name": "maximumRewrapInterval",
          "type": "uint256"
        },
        {
          "internalType": "uint256",
          "name": "freeBond",
          "type": "uint256"
        }
      ],
      "name": "registerArchaeologist",
      "outputs": [],
      "stateMutability": "nonpayable",
      "type": "function"
    },
    {
      "inputs": [
        {
          "internalType": "bytes32",
          "name": "sarcoId",
          "type": "bytes32"
        },
        {
          "internalType": "bytes",
          "name": "unencryptedShard",
          "type": "bytes"
        }
      ],
      "name": "unwrapSarcophagus",
      "outputs": [],
      "stateMutability": "nonpayable",
      "type": "function"
    },
    {
      "inputs": [
        {
          "internalType": "string",
          "name": "peerId",
          "type": "string"
        },
        {
          "internalType": "uint256",
          "name": "minimumDiggingFee",
          "type": "uint256"
        },
        {
          "internalType": "uint256",
          "name": "maximumRewrapInterval",
          "type": "uint256"
        },
        {
          "internalType": "uint256",
          "name": "freeBond",
          "type": "uint256"
        }
      ],
      "name": "updateArchaeologist",
      "outputs": [],
      "stateMutability": "nonpayable",
      "type": "function"
    },
    {
      "inputs": [
        {
          "internalType": "uint256",
          "name": "amount",
          "type": "uint256"
        }
      ],
      "name": "withdrawFreeBond",
      "outputs": [],
      "stateMutability": "nonpayable",
      "type": "function"
    },
    {
      "inputs": [],
      "name": "withdrawReward",
      "outputs": [],
      "stateMutability": "nonpayable",
      "type": "function"
    }
  ],
  "transactionHash": "0xb54d9cbd32d9f9c89254a533bdf9bd80f91bd1fd37b73c75319c8c1824174df9",
  "args": [],
  "numDeployments": 2,
  "solcInputHash": "56130bd9f01ace07412cd56d3f8a0e58",
  "bytecode": "0x608060405234801561001057600080fd5b506129ac806100206000396000f3fe608060405234801561001057600080fd5b506004361061007d5760003560e01c806369afe1c51161005b57806369afe1c5146100d65780636a5ac74c146100f25780638d58642a1461010e578063c885bc581461012a5761007d565b80630c4c35f014610082578063364e08011461009e578063449f11a6146100ba575b600080fd5b61009c60048036038101906100979190611ef3565b610134565b005b6100b860048036038101906100b39190611f76565b6102d0565b005b6100d460048036038101906100cf9190611ef3565b6103d7565b005b6100f060048036038101906100eb919061207b565b610640565b005b61010c60048036038101906101079190611f76565b6109e8565b005b6101286004803603810190610123919061218b565b610af1565b005b610132610de4565b005b61013d33610f65565b60008060070160003373ffffffffffffffffffffffffffffffffffffffff1673ffffffffffffffffffffffffffffffffffffffff16815260200190815260200160002090508481600101908051906020019061019a929190611b89565b508381600201819055508281600301819055506000821115610266576101c0338361100b565b6000800160009054906101000a900473ffffffffffffffffffffffffffffffffffffffff1673ffffffffffffffffffffffffffffffffffffffff166323b872dd3330856040518463ffffffff1660e01b815260040161022193929190612237565b6020604051808303816000875af1158015610240573d6000803e3d6000fd5b505050506040513d601f19601f8201168201806040525081019061026491906122a6565b505b3373ffffffffffffffffffffffffffffffffffffffff167f4df9330dcb4af4b522d063da8a473d6711cdd390feef75f059a663a76c270139826001018360020154846003015485600401546040516102c194939291906123d9565b60405180910390a25050505050565b6102d933610f65565b6102e33382611077565b6000800160009054906101000a900473ffffffffffffffffffffffffffffffffffffffff1673ffffffffffffffffffffffffffffffffffffffff1663a9059cbb33836040518363ffffffff1660e01b8152600401610342929190612425565b6020604051808303816000875af1158015610361573d6000803e3d6000fd5b505050506040513d601f19601f8201168201806040525081019061038591906122a6565b503373ffffffffffffffffffffffffffffffffffffffff167fd91b1e491a880123721b161dbbf8249668b0c546077d7ba4d0016441ca9d8f45826040516103cc919061244e565b60405180910390a250565b6103e0336111b2565b60006040518060c001604052806001151581526020018681526020018581526020018481526020018381526020016000815250905060008211156104c4576000800160009054906101000a900473ffffffffffffffffffffffffffffffffffffffff1673ffffffffffffffffffffffffffffffffffffffff166323b872dd3330856040518463ffffffff1660e01b815260040161047f93929190612237565b6020604051808303816000875af115801561049e573d6000803e3d6000fd5b505050506040513d601f19601f820116820180604052508101906104c291906122a6565b505b80600060070160003373ffffffffffffffffffffffffffffffffffffffff1673ffffffffffffffffffffffffffffffffffffffff16815260200190815260200160002060008201518160000160006101000a81548160ff0219169083151502179055506020820151816001019080519060200190610543929190611b89565b5060408201518160020155606082015181600301556080820151816004015560a082015181600501559050506000600601339080600181540180825580915050600190039060005260206000200160009091909190916101000a81548173ffffffffffffffffffffffffffffffffffffffff021916908373ffffffffffffffffffffffffffffffffffffffff1602179055503373ffffffffffffffffffffffffffffffffffffffff167fec728a18db560dc21e59ae36132eb1e1c1b00d056a88ee755e0940e471ad591e826020015183604001518460600151856080015160405161063194939291906124e0565b60405180910390a25050505050565b61064983611259565b61066b6000600d01600085815260200190815260200160002060020154611385565b6000610685838360000151846020015185604001516113cc565b9050610691848261147e565b6106d45783816040517fd93ccb200000000000000000000000000000000000000000000000000000000081526004016106cb92919061253b565b60405180910390fd5b60005b6000600d0160008681526020019081526020016000206007018054905081101561080f578173ffffffffffffffffffffffffffffffffffffffff166000600d016000878152602001908152602001600020600701828154811061073d5761073c612564565b5b9060005260206000200160009054906101000a900473ffffffffffffffffffffffffffffffffffffffff1673ffffffffffffffffffffffffffffffffffffffff16036107fc57336000600d01600087815260200190815260200160002060070182815481106107af576107ae612564565b5b9060005260206000200160006101000a81548173ffffffffffffffffffffffffffffffffffffffff021916908373ffffffffffffffffffffffffffffffffffffffff16021790555061080f565b8080610807906125c2565b9150506106d7565b5061081a84826114f0565b600080601201600086815260200190815260200160002060003373ffffffffffffffffffffffffffffffffffffffff1673ffffffffffffffffffffffffffffffffffffffff1681526020019081526020016000209050600080601201600087815260200190815260200160002060008473ffffffffffffffffffffffffffffffffffffffff1673ffffffffffffffffffffffffffffffffffffffff1681526020019081526020016000209050806000015482600001819055508060020154826002018190555060405180602001604052806000815250826003019080519060200190610907929190611c0f565b50600081600001819055506000801b816002018190555060405180602001604052806000815250816003019080519060200190610945929190611c0f565b506000600d01600087815260200190815260200160002060040185908060018154018082558091505060019003906000526020600020016000909190919091509080519060200190610998929190611b89565b506109a3863361162f565b7fa11d6c318d830f7ace4ca677c932075082bc61f4356facae5a2a0e1c2a97454c868685336040516109d8949392919061260a565b60405180910390a1505050505050565b6109f133610f65565b6109fb338261100b565b6000800160009054906101000a900473ffffffffffffffffffffffffffffffffffffffff1673ffffffffffffffffffffffffffffffffffffffff166323b872dd3330846040518463ffffffff1660e01b8152600401610a5c93929190612237565b6020604051808303816000875af1158015610a7b573d6000803e3d6000fd5b505050506040513d601f19601f82011682018060405250810190610a9f91906122a6565b503373ffffffffffffffffffffffffffffffffffffffff167ff882a0847c57aefe6f6c7df2098dd0afd122eb0e886199e223651b8e45fda82382604051610ae6919061244e565b60405180910390a250565b610afa82611259565b610b04823361176e565b610b0e823361147e565b610b4f57336040517f82881f03000000000000000000000000000000000000000000000000000000008152600401610b469190612656565b60405180910390fd5b610b716000600d016000848152602001908152602001600020600201546117c6565b6000610b7d8333611879565b905060008280519060200120604051602001610b999190612671565b60405160208183030381529060405280519060200120905081604001518114610bff578282604001516040517fd6091bc2000000000000000000000000000000000000000000000000000000008152600401610bf69291906126e1565b60405180910390fd5b826000601201600086815260200190815260200160002060003373ffffffffffffffffffffffffffffffffffffffff1673ffffffffffffffffffffffffffffffffffffffff1681526020019081526020016000206003019080519060200190610c69929190611c95565b50610c7484336114f0565b6001600060080160003373ffffffffffffffffffffffffffffffffffffffff1673ffffffffffffffffffffffffffffffffffffffff168152602001908152602001600020600086815260200190815260200160002060006101000a81548160ff021916908315150217905550600060090160003373ffffffffffffffffffffffffffffffffffffffff1673ffffffffffffffffffffffffffffffffffffffff16815260200190815260200160002084908060018154018082558091505060019003906000526020600020016000909190919091505581600001516000600c0160003373ffffffffffffffffffffffffffffffffffffffff1673ffffffffffffffffffffffffffffffffffffffff1681526020019081526020016000206000828254610d9f9190612711565b92505081905550837f2a1e0100e3bcf67538d8408f2592de3731b8b40f8c6d7dd813e355c7b73848d884604051610dd69190612767565b60405180910390a250505050565b600080600c0160003373ffffffffffffffffffffffffffffffffffffffff1673ffffffffffffffffffffffffffffffffffffffff168152602001908152602001600020549050600080600c0160003373ffffffffffffffffffffffffffffffffffffffff1673ffffffffffffffffffffffffffffffffffffffff168152602001908152602001600020819055506000800160009054906101000a900473ffffffffffffffffffffffffffffffffffffffff1673ffffffffffffffffffffffffffffffffffffffff1663a9059cbb33836040518363ffffffff1660e01b8152600401610ed0929190612425565b6020604051808303816000875af1158015610eef573d6000803e3d6000fd5b505050506040513d601f19601f82011682018060405250810190610f1391906122a6565b503373ffffffffffffffffffffffffffffffffffffffff167fbc84835063c693975166f00cffb19f01a94c2db55b1bf259238c5da3594e506682604051610f5a919061244e565b60405180910390a250565b6000610f6f6119a3565b90508060070160008373ffffffffffffffffffffffffffffffffffffffff1673ffffffffffffffffffffffffffffffffffffffff16815260200190815260200160002060000160009054906101000a900460ff16611007576001826040517f2eeb3571000000000000000000000000000000000000000000000000000000008152600401610ffe929190612798565b60405180910390fd5b5050565b60006110156119a3565b9050818160070160008573ffffffffffffffffffffffffffffffffffffffff1673ffffffffffffffffffffffffffffffffffffffff168152602001908152602001600020600401600082825461106b9190612711565b92505081905550505050565b60006110816119a3565b90508060070160008473ffffffffffffffffffffffffffffffffffffffff1673ffffffffffffffffffffffffffffffffffffffff16815260200190815260200160002060040154821115611152578060070160008473ffffffffffffffffffffffffffffffffffffffff1673ffffffffffffffffffffffffffffffffffffffff16815260200190815260200160002060040154826040517fa4e3bead0000000000000000000000000000000000000000000000000000000081526004016111499291906127c1565b60405180910390fd5b818160070160008573ffffffffffffffffffffffffffffffffffffffff1673ffffffffffffffffffffffffffffffffffffffff16815260200190815260200160002060040160008282546111a691906127ea565b92505081905550505050565b60006111bc6119a3565b90508060070160008373ffffffffffffffffffffffffffffffffffffffff1673ffffffffffffffffffffffffffffffffffffffff16815260200190815260200160002060000160009054906101000a900460ff1615611255576000826040517f2eeb357100000000000000000000000000000000000000000000000000000000815260040161124c929190612798565b60405180910390fd5b5050565b60006112636119a3565b9050600060078111156112795761127861281e565b5b81600d01600084815260200190815260200160002060010160009054906101000a900460ff1660078111156112b1576112b061281e565b5b036112f357816040517f018da6880000000000000000000000000000000000000000000000000000000081526004016112ea9190612671565b60405180910390fd5b600160078111156113075761130661281e565b5b81600d01600084815260200190815260200160002060010160009054906101000a900460ff16600781111561133f5761133e61281e565b5b1461138157816040517f7c6a6d700000000000000000000000000000000000000000000000000000000081526004016113789190612671565b60405180910390fd5b5050565b4281116113c957806040517f357efa270000000000000000000000000000000000000000000000000000000081526004016113c0919061244e565b60405180910390fd5b50565b600080856040516020016113e09190612767565b6040516020818303038152906040528051906020012060405160200161140691906128c5565b60405160208183030381529060405280519060200120905060006001828787876040516000815260200160405260405161144394939291906128fa565b6020604051602081039080840390855afa158015611465573d6000803e3d6000fd5b5050506020604051035190508092505050949350505050565b6000806114896119a3565b90506000801b81601201600086815260200190815260200160002060008573ffffffffffffffffffffffffffffffffffffffff1673ffffffffffffffffffffffffffffffffffffffff16815260200190815260200160002060020154141591505092915050565b60006114fa6119a3565b9050600081601201600085815260200190815260200160002060008473ffffffffffffffffffffffffffffffffffffffff1673ffffffffffffffffffffffffffffffffffffffff16815260200190815260200160002060405180608001604052908160008201548152602001600182015481526020016002820154815260200160038201805461158990612302565b80601f01602080910402602001604051908101604052809291908181526020018280546115b590612302565b80156116025780601f106115d757610100808354040283529160200191611602565b820191906000526020600020905b8154815290600101906020018083116115e557829003601f168201915b5050505050815250509050600061161c82600001516119a8565b905061162884826119b2565b5050505050565b60006116396119a3565b9050600081601201600085815260200190815260200160002060008473ffffffffffffffffffffffffffffffffffffffff1673ffffffffffffffffffffffffffffffffffffffff1681526020019081526020016000206040518060800160405290816000820154815260200160018201548152602001600282015481526020016003820180546116c890612302565b80601f01602080910402602001604051908101604052809291908181526020018280546116f490612302565b80156117415780601f1061171657610100808354040283529160200191611741565b820191906000526020600020905b81548152906001019060200180831161172457829003601f168201915b5050505050815250509050600061175b82600001516119a8565b905061176784826119ca565b5050505050565b600061177a8383611879565b606001515111156117c257806040517f1b933fa00000000000000000000000000000000000000000000000000000000081526004016117b99190612656565b60405180910390fd5b5050565b4281111561180d5780426040517f0674c5900000000000000000000000000000000000000000000000000000000081526004016118049291906127c1565b60405180910390fd5b60006118176119a3565b90504281600301548361182a9190612711565b101561187557818160030154426040517f4fd4cfc500000000000000000000000000000000000000000000000000000000815260040161186c9392919061293f565b60405180910390fd5b5050565b611881611d1b565b600061188b6119a3565b905080601201600085815260200190815260200160002060008473ffffffffffffffffffffffffffffffffffffffff1673ffffffffffffffffffffffffffffffffffffffff16815260200190815260200160002060405180608001604052908160008201548152602001600182015481526020016002820154815260200160038201805461191890612302565b80601f016020809104026020016040519081016040528092919081815260200182805461194490612302565b80156119915780601f1061196657610100808354040283529160200191611991565b820191906000526020600020905b81548152906001019060200180831161197457829003601f168201915b50505050508152505091505092915050565b600090565b6000819050919050565b6119bc82826119e2565b6119c6828261100b565b5050565b6119d48282611077565b6119de8282611b1d565b5050565b60006119ec6119a3565b90508060070160008473ffffffffffffffffffffffffffffffffffffffff1673ffffffffffffffffffffffffffffffffffffffff16815260200190815260200160002060050154821115611abd578060070160008473ffffffffffffffffffffffffffffffffffffffff1673ffffffffffffffffffffffffffffffffffffffff16815260200190815260200160002060050154826040517faf5a111b000000000000000000000000000000000000000000000000000000008152600401611ab49291906127c1565b60405180910390fd5b818160070160008573ffffffffffffffffffffffffffffffffffffffff1673ffffffffffffffffffffffffffffffffffffffff1681526020019081526020016000206005016000828254611b1191906127ea565b92505081905550505050565b6000611b276119a3565b9050818160070160008573ffffffffffffffffffffffffffffffffffffffff1673ffffffffffffffffffffffffffffffffffffffff1681526020019081526020016000206005016000828254611b7d9190612711565b92505081905550505050565b828054611b9590612302565b90600052602060002090601f016020900481019282611bb75760008555611bfe565b82601f10611bd057805160ff1916838001178555611bfe565b82800160010185558215611bfe579182015b82811115611bfd578251825591602001919060010190611be2565b5b509050611c0b9190611d46565b5090565b828054611c1b90612302565b90600052602060002090601f016020900481019282611c3d5760008555611c84565b82601f10611c5657805160ff1916838001178555611c84565b82800160010185558215611c84579182015b82811115611c83578251825591602001919060010190611c68565b5b509050611c919190611d46565b5090565b828054611ca190612302565b90600052602060002090601f016020900481019282611cc35760008555611d0a565b82601f10611cdc57805160ff1916838001178555611d0a565b82800160010185558215611d0a579182015b82811115611d09578251825591602001919060010190611cee565b5b509050611d179190611d46565b5090565b6040518060800160405280600081526020016000815260200160008019168152602001606081525090565b5b80821115611d5f576000816000905550600101611d47565b5090565b6000604051905090565b600080fd5b600080fd5b600080fd5b600080fd5b6000601f19601f8301169050919050565b7f4e487b7100000000000000000000000000000000000000000000000000000000600052604160045260246000fd5b611dca82611d81565b810181811067ffffffffffffffff82111715611de957611de8611d92565b5b80604052505050565b6000611dfc611d63565b9050611e088282611dc1565b919050565b600067ffffffffffffffff821115611e2857611e27611d92565b5b611e3182611d81565b9050602081019050919050565b82818337600083830152505050565b6000611e60611e5b84611e0d565b611df2565b905082815260208101848484011115611e7c57611e7b611d7c565b5b611e87848285611e3e565b509392505050565b600082601f830112611ea457611ea3611d77565b5b8135611eb4848260208601611e4d565b91505092915050565b6000819050919050565b611ed081611ebd565b8114611edb57600080fd5b50565b600081359050611eed81611ec7565b92915050565b60008060008060808587031215611f0d57611f0c611d6d565b5b600085013567ffffffffffffffff811115611f2b57611f2a611d72565b5b611f3787828801611e8f565b9450506020611f4887828801611ede565b9350506040611f5987828801611ede565b9250506060611f6a87828801611ede565b91505092959194509250565b600060208284031215611f8c57611f8b611d6d565b5b6000611f9a84828501611ede565b91505092915050565b6000819050919050565b611fb681611fa3565b8114611fc157600080fd5b50565b600081359050611fd381611fad565b92915050565b600080fd5b600060ff82169050919050565b611ff481611fde565b8114611fff57600080fd5b50565b60008135905061201181611feb565b92915050565b60006060828403121561202d5761202c611fd9565b5b6120376060611df2565b9050600061204784828501612002565b600083015250602061205b84828501611fc4565b602083015250604061206f84828501611fc4565b60408301525092915050565b600080600060a0848603121561209457612093611d6d565b5b60006120a286828701611fc4565b935050602084013567ffffffffffffffff8111156120c3576120c2611d72565b5b6120cf86828701611e8f565b92505060406120e086828701612017565b9150509250925092565b600067ffffffffffffffff82111561210557612104611d92565b5b61210e82611d81565b9050602081019050919050565b600061212e612129846120ea565b611df2565b90508281526020810184848401111561214a57612149611d7c565b5b612155848285611e3e565b509392505050565b600082601f83011261217257612171611d77565b5b813561218284826020860161211b565b91505092915050565b600080604083850312156121a2576121a1611d6d565b5b60006121b085828601611fc4565b925050602083013567ffffffffffffffff8111156121d1576121d0611d72565b5b6121dd8582860161215d565b9150509250929050565b600073ffffffffffffffffffffffffffffffffffffffff82169050919050565b6000612212826121e7565b9050919050565b61222281612207565b82525050565b61223181611ebd565b82525050565b600060608201905061224c6000830186612219565b6122596020830185612219565b6122666040830184612228565b949350505050565b60008115159050919050565b6122838161226e565b811461228e57600080fd5b50565b6000815190506122a08161227a565b92915050565b6000602082840312156122bc576122bb611d6d565b5b60006122ca84828501612291565b91505092915050565b7f4e487b7100000000000000000000000000000000000000000000000000000000600052602260045260246000fd5b6000600282049050600182168061231a57607f821691505b60208210810361232d5761232c6122d3565b5b50919050565b600082825260208201905092915050565b60008190508160005260206000209050919050565b6000815461236681612302565b6123708186612333565b9450600182166000811461238b576001811461239d576123d0565b60ff19831686526020860193506123d0565b6123a685612344565b60005b838110156123c8578154818901526001820191506020810190506123a9565b808801955050505b50505092915050565b600060808201905081810360008301526123f38187612359565b90506124026020830186612228565b61240f6040830185612228565b61241c6060830184612228565b95945050505050565b600060408201905061243a6000830185612219565b6124476020830184612228565b9392505050565b60006020820190506124636000830184612228565b92915050565b600081519050919050565b60005b83811015612492578082015181840152602081019050612477565b838111156124a1576000848401525b50505050565b60006124b282612469565b6124bc8185612333565b93506124cc818560208601612474565b6124d581611d81565b840191505092915050565b600060808201905081810360008301526124fa81876124a7565b90506125096020830186612228565b6125166040830185612228565b6125236060830184612228565b95945050505050565b61253581611fa3565b82525050565b6000604082019050612550600083018561252c565b61255d6020830184612219565b9392505050565b7f4e487b7100000000000000000000000000000000000000000000000000000000600052603260045260246000fd5b7f4e487b7100000000000000000000000000000000000000000000000000000000600052601160045260246000fd5b60006125cd82611ebd565b91507fffffffffffffffffffffffffffffffffffffffffffffffffffffffffffffffff82036125ff576125fe612593565b5b600182019050919050565b600060808201905061261f600083018761252c565b818103602083015261263181866124a7565b90506126406040830185612219565b61264d6060830184612219565b95945050505050565b600060208201905061266b6000830184612219565b92915050565b6000602082019050612686600083018461252c565b92915050565b600081519050919050565b600082825260208201905092915050565b60006126b38261268c565b6126bd8185612697565b93506126cd818560208601612474565b6126d681611d81565b840191505092915050565b600060408201905081810360008301526126fb81856126a8565b905061270a602083018461252c565b9392505050565b600061271c82611ebd565b915061272783611ebd565b9250827fffffffffffffffffffffffffffffffffffffffffffffffffffffffffffffffff0382111561275c5761275b612593565b5b828201905092915050565b6000602082019050818103600083015261278181846126a8565b905092915050565b6127928161226e565b82525050565b60006040820190506127ad6000830185612789565b6127ba6020830184612219565b9392505050565b60006040820190506127d66000830185612228565b6127e36020830184612228565b9392505050565b60006127f582611ebd565b915061280083611ebd565b92508282101561281357612812612593565b5b828203905092915050565b7f4e487b7100000000000000000000000000000000000000000000000000000000600052602160045260246000fd5b600081905092915050565b7f19457468657265756d205369676e6564204d6573736167653a0a333200000000600082015250565b600061288e601c8361284d565b915061289982612858565b601c82019050919050565b6000819050919050565b6128bf6128ba82611fa3565b6128a4565b82525050565b60006128d082612881565b91506128dc82846128ae565b60208201915081905092915050565b6128f481611fde565b82525050565b600060808201905061290f600083018761252c565b61291c60208301866128eb565b612929604083018561252c565b612936606083018461252c565b95945050505050565b60006060820190506129546000830186612228565b6129616020830185612228565b61296e6040830184612228565b94935050505056fea2646970667358221220bed4013efacd4ffb3ffc420792c0ac2f94ddead1247a93f7239dd658a78adf6264736f6c634300080d0033",
  "devdoc": {
    "kind": "dev",
    "methods": {
      "depositFreeBond(uint256)": {
        "params": {
          "amount": "The amount to deposit"
        }
      },
      "finalizeTransfer(bytes32,string,(uint8,bytes32,bytes32))": {
        "params": {
          "arweaveTxId": "The id of the arweave transaction where the new shard",
          "oldArchSignature": "The signature of the old archaeologist was uploaded",
          "sarcoId": "The identifier of the sarcophagus"
        }
      },
      "registerArchaeologist(string,uint256,uint256,uint256)": {
        "params": {
          "freeBond": "How much bond the archaeologist wants to deposit during the register call (if any)",
          "maximumRewrapInterval": "The longest interval of time from a rewrap time the arch will accept for a resurrection",
          "minimumDiggingFee": "The archaeologist's minimum amount to accept for a digging fee",
          "peerId": "The libp2p identifier for the archaeologist"
        }
      },
      "unwrapSarcophagus(bytes32,bytes)": {
        "details": "Verifies that the unencrypted shard matches the hashedShard stored on chain and pays the archaeologist.",
        "params": {
          "sarcoId": "The identifier of the sarcophagus to unwrap",
          "unencryptedShard": "The archaeologist's corresponding unencrypted shard"
        }
      },
      "updateArchaeologist(string,uint256,uint256,uint256)": {
        "params": {
          "maximumRewrapInterval": "The longest interval of time from a rewrap time the arch will accept for a resurrection freeBond How much bond the archaeologist wants to deposit during the update call (if any)",
          "minimumDiggingFee": "The archaeologist's minimum amount to accept for a digging fee",
          "peerId": "The libp2p identifier for the archaeologist"
        }
      },
      "withdrawFreeBond(uint256)": {
        "params": {
          "amount": "The amount to withdraw"
        }
      }
    },
    "version": 1
  },
  "userdoc": {
    "kind": "user",
    "methods": {
      "depositFreeBond(uint256)": {
        "notice": "Deposits an archaeologist's free bond to the contract."
      },
      "finalizeTransfer(bytes32,string,(uint8,bytes32,bytes32))": {
        "notice": "Finalizes a transfer of roles and responsibilities between two archaeologists. This is to be called by the new archaeologist."
      },
      "registerArchaeologist(string,uint256,uint256,uint256)": {
        "notice": "Registers the archaeologist profile"
      },
      "unwrapSarcophagus(bytes32,bytes)": {
        "notice": "Unwraps the sarcophagus."
      },
      "updateArchaeologist(string,uint256,uint256,uint256)": {
        "notice": "Updates the archaeologist profile"
      },
      "withdrawFreeBond(uint256)": {
        "notice": "Withdraws an archaeologist's free bond from the contract."
      },
      "withdrawReward()": {
        "notice": "Withdraws all rewards from an archaeologist's reward pool"
      }
    },
    "version": 1
  },
  "storageLayout": {
    "storage": [
      {
        "astId": 413,
        "contract": "contracts/facets/ArchaeologistFacet.sol:ArchaeologistFacet",
        "label": "s",
        "offset": 0,
        "slot": "0",
        "type": "t_struct(AppStorage)4106_storage"
      }
    ],
    "types": {
      "t_address": {
        "encoding": "inplace",
        "label": "address",
        "numberOfBytes": "20"
      },
      "t_array(t_address)dyn_storage": {
        "base": "t_address",
        "encoding": "dynamic_array",
        "label": "address[]",
        "numberOfBytes": "32"
      },
      "t_array(t_bytes32)dyn_storage": {
        "base": "t_bytes32",
        "encoding": "dynamic_array",
        "label": "bytes32[]",
        "numberOfBytes": "32"
      },
      "t_array(t_string_storage)dyn_storage": {
        "base": "t_string_storage",
        "encoding": "dynamic_array",
        "label": "string[]",
        "numberOfBytes": "32"
      },
      "t_bool": {
        "encoding": "inplace",
        "label": "bool",
        "numberOfBytes": "1"
      },
      "t_bytes32": {
        "encoding": "inplace",
        "label": "bytes32",
        "numberOfBytes": "32"
      },
      "t_bytes_storage": {
        "encoding": "bytes",
        "label": "bytes",
        "numberOfBytes": "32"
      },
      "t_contract(IERC20)77": {
        "encoding": "inplace",
        "label": "contract IERC20",
        "numberOfBytes": "20"
      },
      "t_enum(SarcophagusState)3448": {
        "encoding": "inplace",
        "label": "enum LibTypes.SarcophagusState",
        "numberOfBytes": "1"
      },
      "t_mapping(t_address,t_array(t_bytes32)dyn_storage)": {
        "encoding": "mapping",
        "key": "t_address",
        "label": "mapping(address => bytes32[])",
        "numberOfBytes": "32",
        "value": "t_array(t_bytes32)dyn_storage"
      },
      "t_mapping(t_address,t_mapping(t_bytes32,t_bool))": {
        "encoding": "mapping",
        "key": "t_address",
        "label": "mapping(address => mapping(bytes32 => bool))",
        "numberOfBytes": "32",
        "value": "t_mapping(t_bytes32,t_bool)"
      },
      "t_mapping(t_address,t_struct(ArchaeologistProfile)3499_storage)": {
        "encoding": "mapping",
        "key": "t_address",
        "label": "mapping(address => struct LibTypes.ArchaeologistProfile)",
        "numberOfBytes": "32",
        "value": "t_struct(ArchaeologistProfile)3499_storage"
      },
      "t_mapping(t_address,t_struct(ArchaeologistStorage)3486_storage)": {
        "encoding": "mapping",
        "key": "t_address",
        "label": "mapping(address => struct LibTypes.ArchaeologistStorage)",
        "numberOfBytes": "32",
        "value": "t_struct(ArchaeologistStorage)3486_storage"
      },
      "t_mapping(t_address,t_uint256)": {
        "encoding": "mapping",
        "key": "t_address",
        "label": "mapping(address => uint256)",
        "numberOfBytes": "32",
        "value": "t_uint256"
      },
      "t_mapping(t_bytes32,t_address)": {
        "encoding": "mapping",
        "key": "t_bytes32",
        "label": "mapping(bytes32 => address)",
        "numberOfBytes": "32",
        "value": "t_address"
      },
      "t_mapping(t_bytes32,t_bool)": {
        "encoding": "mapping",
        "key": "t_bytes32",
        "label": "mapping(bytes32 => bool)",
        "numberOfBytes": "32",
        "value": "t_bool"
      },
      "t_mapping(t_bytes32,t_mapping(t_address,t_struct(ArchaeologistStorage)3486_storage))": {
        "encoding": "mapping",
        "key": "t_bytes32",
        "label": "mapping(bytes32 => mapping(address => struct LibTypes.ArchaeologistStorage))",
        "numberOfBytes": "32",
        "value": "t_mapping(t_address,t_struct(ArchaeologistStorage)3486_storage)"
      },
      "t_mapping(t_bytes32,t_struct(Sarcophagus)3538_storage)": {
        "encoding": "mapping",
        "key": "t_bytes32",
        "label": "mapping(bytes32 => struct LibTypes.Sarcophagus)",
        "numberOfBytes": "32",
        "value": "t_struct(Sarcophagus)3538_storage"
      },
      "t_string_storage": {
        "encoding": "bytes",
        "label": "string",
        "numberOfBytes": "32"
      },
      "t_struct(AppStorage)4106_storage": {
        "encoding": "inplace",
        "label": "struct AppStorage",
        "members": [
          {
            "astId": 4030,
            "contract": "contracts/facets/ArchaeologistFacet.sol:ArchaeologistFacet",
            "label": "sarcoToken",
            "offset": 0,
            "slot": "0",
            "type": "t_contract(IERC20)77"
          },
          {
            "astId": 4032,
            "contract": "contracts/facets/ArchaeologistFacet.sol:ArchaeologistFacet",
            "label": "protocolFeeBasePercentage",
            "offset": 0,
            "slot": "1",
            "type": "t_uint256"
          },
          {
            "astId": 4034,
            "contract": "contracts/facets/ArchaeologistFacet.sol:ArchaeologistFacet",
            "label": "totalProtocolFees",
            "offset": 0,
            "slot": "2",
            "type": "t_uint256"
          },
          {
            "astId": 4036,
            "contract": "contracts/facets/ArchaeologistFacet.sol:ArchaeologistFacet",
            "label": "gracePeriod",
            "offset": 0,
            "slot": "3",
            "type": "t_uint256"
          },
          {
            "astId": 4038,
            "contract": "contracts/facets/ArchaeologistFacet.sol:ArchaeologistFacet",
            "label": "expirationThreshold",
            "offset": 0,
            "slot": "4",
            "type": "t_uint256"
          },
          {
            "astId": 4041,
            "contract": "contracts/facets/ArchaeologistFacet.sol:ArchaeologistFacet",
            "label": "sarcophagusIdentifiers",
            "offset": 0,
            "slot": "5",
            "type": "t_array(t_bytes32)dyn_storage"
          },
          {
            "astId": 4044,
            "contract": "contracts/facets/ArchaeologistFacet.sol:ArchaeologistFacet",
            "label": "archaeologistProfileAddresses",
            "offset": 0,
            "slot": "6",
            "type": "t_array(t_address)dyn_storage"
          },
          {
            "astId": 4049,
            "contract": "contracts/facets/ArchaeologistFacet.sol:ArchaeologistFacet",
            "label": "archaeologistProfiles",
            "offset": 0,
            "slot": "7",
            "type": "t_mapping(t_address,t_struct(ArchaeologistProfile)3499_storage)"
          },
          {
            "astId": 4055,
            "contract": "contracts/facets/ArchaeologistFacet.sol:ArchaeologistFacet",
            "label": "archaeologistSarcoSuccesses",
            "offset": 0,
            "slot": "8",
            "type": "t_mapping(t_address,t_mapping(t_bytes32,t_bool))"
          },
          {
            "astId": 4060,
            "contract": "contracts/facets/ArchaeologistFacet.sol:ArchaeologistFacet",
            "label": "archaeologistSuccesses",
            "offset": 0,
            "slot": "9",
            "type": "t_mapping(t_address,t_array(t_bytes32)dyn_storage)"
          },
          {
            "astId": 4065,
            "contract": "contracts/facets/ArchaeologistFacet.sol:ArchaeologistFacet",
            "label": "archaeologistAccusals",
            "offset": 0,
            "slot": "10",
            "type": "t_mapping(t_address,t_array(t_bytes32)dyn_storage)"
          },
          {
            "astId": 4070,
            "contract": "contracts/facets/ArchaeologistFacet.sol:ArchaeologistFacet",
            "label": "archaeologistCleanups",
            "offset": 0,
            "slot": "11",
            "type": "t_mapping(t_address,t_array(t_bytes32)dyn_storage)"
          },
          {
            "astId": 4074,
            "contract": "contracts/facets/ArchaeologistFacet.sol:ArchaeologistFacet",
            "label": "archaeologistRewards",
            "offset": 0,
            "slot": "12",
            "type": "t_mapping(t_address,t_uint256)"
          },
          {
            "astId": 4079,
            "contract": "contracts/facets/ArchaeologistFacet.sol:ArchaeologistFacet",
            "label": "sarcophagi",
            "offset": 0,
            "slot": "13",
            "type": "t_mapping(t_bytes32,t_struct(Sarcophagus)3538_storage)"
          },
          {
            "astId": 4084,
            "contract": "contracts/facets/ArchaeologistFacet.sol:ArchaeologistFacet",
            "label": "embalmerSarcophagi",
            "offset": 0,
            "slot": "14",
            "type": "t_mapping(t_address,t_array(t_bytes32)dyn_storage)"
          },
          {
            "astId": 4089,
            "contract": "contracts/facets/ArchaeologistFacet.sol:ArchaeologistFacet",
            "label": "archaeologistSarcophagi",
            "offset": 0,
            "slot": "15",
            "type": "t_mapping(t_address,t_array(t_bytes32)dyn_storage)"
          },
          {
            "astId": 4094,
            "contract": "contracts/facets/ArchaeologistFacet.sol:ArchaeologistFacet",
            "label": "recipientSarcophagi",
            "offset": 0,
            "slot": "16",
            "type": "t_mapping(t_address,t_array(t_bytes32)dyn_storage)"
          },
          {
            "astId": 4098,
            "contract": "contracts/facets/ArchaeologistFacet.sol:ArchaeologistFacet",
            "label": "doubleHashedShardArchaeologists",
            "offset": 0,
            "slot": "17",
            "type": "t_mapping(t_bytes32,t_address)"
          },
          {
            "astId": 4105,
            "contract": "contracts/facets/ArchaeologistFacet.sol:ArchaeologistFacet",
            "label": "sarcophagusArchaeologists",
            "offset": 0,
            "slot": "18",
            "type": "t_mapping(t_bytes32,t_mapping(t_address,t_struct(ArchaeologistStorage)3486_storage))"
          }
        ],
        "numberOfBytes": "608"
      },
      "t_struct(ArchaeologistProfile)3499_storage": {
        "encoding": "inplace",
        "label": "struct LibTypes.ArchaeologistProfile",
        "members": [
          {
            "astId": 3488,
            "contract": "contracts/facets/ArchaeologistFacet.sol:ArchaeologistFacet",
            "label": "exists",
            "offset": 0,
            "slot": "0",
            "type": "t_bool"
          },
          {
            "astId": 3490,
            "contract": "contracts/facets/ArchaeologistFacet.sol:ArchaeologistFacet",
            "label": "peerId",
            "offset": 0,
            "slot": "1",
            "type": "t_string_storage"
          },
          {
            "astId": 3492,
            "contract": "contracts/facets/ArchaeologistFacet.sol:ArchaeologistFacet",
            "label": "minimumDiggingFee",
            "offset": 0,
            "slot": "2",
            "type": "t_uint256"
          },
          {
            "astId": 3494,
            "contract": "contracts/facets/ArchaeologistFacet.sol:ArchaeologistFacet",
            "label": "maximumRewrapInterval",
            "offset": 0,
            "slot": "3",
            "type": "t_uint256"
          },
          {
            "astId": 3496,
            "contract": "contracts/facets/ArchaeologistFacet.sol:ArchaeologistFacet",
            "label": "freeBond",
            "offset": 0,
            "slot": "4",
            "type": "t_uint256"
          },
          {
            "astId": 3498,
            "contract": "contracts/facets/ArchaeologistFacet.sol:ArchaeologistFacet",
            "label": "cursedBond",
            "offset": 0,
            "slot": "5",
            "type": "t_uint256"
          }
        ],
        "numberOfBytes": "192"
      },
      "t_struct(ArchaeologistStorage)3486_storage": {
        "encoding": "inplace",
        "label": "struct LibTypes.ArchaeologistStorage",
        "members": [
          {
            "astId": 3479,
            "contract": "contracts/facets/ArchaeologistFacet.sol:ArchaeologistFacet",
            "label": "diggingFee",
            "offset": 0,
            "slot": "0",
            "type": "t_uint256"
          },
          {
            "astId": 3481,
            "contract": "contracts/facets/ArchaeologistFacet.sol:ArchaeologistFacet",
            "label": "diggingFeesPaid",
            "offset": 0,
            "slot": "1",
            "type": "t_uint256"
          },
          {
            "astId": 3483,
            "contract": "contracts/facets/ArchaeologistFacet.sol:ArchaeologistFacet",
            "label": "unencryptedShardDoubleHash",
            "offset": 0,
            "slot": "2",
            "type": "t_bytes32"
          },
          {
            "astId": 3485,
            "contract": "contracts/facets/ArchaeologistFacet.sol:ArchaeologistFacet",
            "label": "unencryptedShard",
            "offset": 0,
            "slot": "3",
            "type": "t_bytes_storage"
          }
        ],
        "numberOfBytes": "128"
      },
      "t_struct(Sarcophagus)3538_storage": {
        "encoding": "inplace",
        "label": "struct LibTypes.Sarcophagus",
        "members": [
          {
            "astId": 3516,
            "contract": "contracts/facets/ArchaeologistFacet.sol:ArchaeologistFacet",
            "label": "name",
            "offset": 0,
            "slot": "0",
            "type": "t_string_storage"
          },
          {
            "astId": 3519,
            "contract": "contracts/facets/ArchaeologistFacet.sol:ArchaeologistFacet",
            "label": "state",
            "offset": 0,
            "slot": "1",
            "type": "t_enum(SarcophagusState)3448"
          },
          {
            "astId": 3521,
            "contract": "contracts/facets/ArchaeologistFacet.sol:ArchaeologistFacet",
            "label": "canBeTransferred",
            "offset": 1,
            "slot": "1",
            "type": "t_bool"
          },
          {
            "astId": 3523,
            "contract": "contracts/facets/ArchaeologistFacet.sol:ArchaeologistFacet",
            "label": "minShards",
            "offset": 2,
            "slot": "1",
            "type": "t_uint8"
          },
          {
            "astId": 3525,
            "contract": "contracts/facets/ArchaeologistFacet.sol:ArchaeologistFacet",
            "label": "resurrectionTime",
            "offset": 0,
            "slot": "2",
            "type": "t_uint256"
          },
          {
            "astId": 3527,
            "contract": "contracts/facets/ArchaeologistFacet.sol:ArchaeologistFacet",
            "label": "maximumRewrapInterval",
            "offset": 0,
            "slot": "3",
            "type": "t_uint256"
          },
          {
            "astId": 3530,
            "contract": "contracts/facets/ArchaeologistFacet.sol:ArchaeologistFacet",
            "label": "arweaveTxIds",
            "offset": 0,
            "slot": "4",
            "type": "t_array(t_string_storage)dyn_storage"
          },
          {
            "astId": 3532,
            "contract": "contracts/facets/ArchaeologistFacet.sol:ArchaeologistFacet",
            "label": "embalmer",
            "offset": 0,
            "slot": "5",
            "type": "t_address"
          },
          {
            "astId": 3534,
            "contract": "contracts/facets/ArchaeologistFacet.sol:ArchaeologistFacet",
            "label": "recipientAddress",
            "offset": 0,
            "slot": "6",
            "type": "t_address"
          },
          {
            "astId": 3537,
            "contract": "contracts/facets/ArchaeologistFacet.sol:ArchaeologistFacet",
            "label": "archaeologists",
            "offset": 0,
            "slot": "7",
            "type": "t_array(t_address)dyn_storage"
          }
        ],
        "numberOfBytes": "256"
      },
      "t_uint256": {
        "encoding": "inplace",
        "label": "uint256",
        "numberOfBytes": "32"
      },
      "t_uint8": {
        "encoding": "inplace",
        "label": "uint8",
        "numberOfBytes": "1"
      }
    }
  }
}