{
  "address": "0x913584D241A5a74d0AEfc4F43a5780cf29227982",
  "abi": [
    {
      "inputs": [
        {
          "internalType": "address",
          "name": "archaeologist",
          "type": "address"
        }
      ],
      "name": "ArchaeologistAlreadyUnwrapped",
      "type": "error"
    },
    {
      "inputs": [
        {
          "internalType": "address",
          "name": "archaeologist",
          "type": "address"
        }
      ],
      "name": "ArchaeologistNotOnSarcophagus",
      "type": "error"
    },
    {
      "inputs": [
        {
          "internalType": "bool",
          "name": "exists",
          "type": "bool"
        },
        {
          "internalType": "address",
          "name": "archaeologist",
          "type": "address"
        }
      ],
      "name": "ArchaeologistProfileExistsShouldBe",
      "type": "error"
    },
    {
      "inputs": [
        {
          "internalType": "uint256",
          "name": "cursedBond",
          "type": "uint256"
        },
        {
          "internalType": "uint256",
          "name": "amount",
          "type": "uint256"
        }
      ],
      "name": "NotEnoughCursedBond",
      "type": "error"
    },
    {
      "inputs": [
        {
          "internalType": "uint256",
          "name": "freeBond",
          "type": "uint256"
        },
        {
          "internalType": "uint256",
          "name": "amount",
          "type": "uint256"
        }
      ],
      "name": "NotEnoughFreeBond",
      "type": "error"
    },
    {
      "inputs": [
        {
          "internalType": "uint256",
          "name": "resurrectionTime",
          "type": "uint256"
        }
      ],
      "name": "ResurrectionTimeInPast",
      "type": "error"
    },
    {
      "inputs": [
        {
          "internalType": "bytes32",
          "name": "sarcoId",
          "type": "bytes32"
        }
      ],
      "name": "SarcophagusDoesNotExist",
      "type": "error"
    },
    {
      "inputs": [
        {
          "internalType": "bytes32",
          "name": "sarcoId",
          "type": "bytes32"
        },
        {
          "internalType": "address",
          "name": "signer",
          "type": "address"
        }
      ],
      "name": "SignerNotArchaeologistOnSarcophagus",
      "type": "error"
    },
    {
      "inputs": [
        {
          "internalType": "uint256",
          "name": "resurrectionTime",
          "type": "uint256"
        },
        {
          "internalType": "uint256",
          "name": "currentTime",
          "type": "uint256"
        }
      ],
      "name": "TooEarlyToUnwrap",
      "type": "error"
    },
    {
      "inputs": [
        {
          "internalType": "uint256",
          "name": "resurrectionTime",
          "type": "uint256"
        },
        {
          "internalType": "uint256",
          "name": "gracePeriod",
          "type": "uint256"
        },
        {
          "internalType": "uint256",
          "name": "currentTime",
          "type": "uint256"
        }
      ],
      "name": "TooLateToUnwrap",
      "type": "error"
    },
    {
      "inputs": [
        {
          "internalType": "bytes",
          "name": "unencryptedShard",
          "type": "bytes"
        },
        {
          "internalType": "bytes32",
          "name": "doubleHashedShard",
          "type": "bytes32"
        }
      ],
      "name": "UnencryptedShardHashMismatch",
      "type": "error"
    },
    {
      "anonymous": false,
      "inputs": [
        {
          "indexed": true,
          "internalType": "address",
          "name": "archaeologist",
          "type": "address"
        },
        {
          "indexed": false,
          "internalType": "uint256",
          "name": "depositedBond",
          "type": "uint256"
        }
      ],
      "name": "DepositFreeBond",
      "type": "event"
    },
    {
      "anonymous": false,
      "inputs": [
        {
          "indexed": false,
          "internalType": "bytes32",
          "name": "sarcoId",
          "type": "bytes32"
        },
        {
          "indexed": false,
          "internalType": "string",
          "name": "arweaveTxId",
          "type": "string"
        },
        {
          "indexed": false,
          "internalType": "address",
          "name": "oldArchaeologist",
          "type": "address"
        },
        {
          "indexed": false,
          "internalType": "address",
          "name": "newArchaeologist",
          "type": "address"
        }
      ],
      "name": "FinalizeTransfer",
      "type": "event"
    },
    {
      "anonymous": false,
      "inputs": [
        {
          "indexed": true,
          "internalType": "address",
          "name": "archaeologist",
          "type": "address"
        },
        {
          "indexed": false,
          "internalType": "string",
          "name": "peerId",
          "type": "string"
        },
        {
          "indexed": false,
          "internalType": "uint256",
          "name": "minimumDiggingFee",
          "type": "uint256"
        },
        {
          "indexed": false,
          "internalType": "uint256",
          "name": "maximumRewrapInterval",
          "type": "uint256"
        },
        {
          "indexed": false,
          "internalType": "uint256",
          "name": "freeBond",
          "type": "uint256"
        }
      ],
      "name": "RegisterArchaeologist",
      "type": "event"
    },
    {
      "anonymous": false,
      "inputs": [
        {
          "indexed": true,
          "internalType": "bytes32",
          "name": "sarcoId",
          "type": "bytes32"
        },
        {
          "indexed": false,
          "internalType": "bytes",
          "name": "unencryptedShard",
          "type": "bytes"
        }
      ],
      "name": "UnwrapSarcophagus",
      "type": "event"
    },
    {
      "anonymous": false,
      "inputs": [
        {
          "indexed": true,
          "internalType": "address",
          "name": "archaeologist",
          "type": "address"
        },
        {
          "indexed": false,
          "internalType": "string",
          "name": "peerId",
          "type": "string"
        },
        {
          "indexed": false,
          "internalType": "uint256",
          "name": "minimumDiggingFee",
          "type": "uint256"
        },
        {
          "indexed": false,
          "internalType": "uint256",
          "name": "maximumRewrapInterval",
          "type": "uint256"
        },
        {
          "indexed": false,
          "internalType": "uint256",
          "name": "freeBond",
          "type": "uint256"
        }
      ],
      "name": "UpdateArchaeologist",
      "type": "event"
    },
    {
      "anonymous": false,
      "inputs": [
        {
          "indexed": true,
          "internalType": "address",
          "name": "archaeologist",
          "type": "address"
        },
        {
          "indexed": false,
          "internalType": "uint256",
          "name": "withdrawnBond",
          "type": "uint256"
        }
      ],
      "name": "WithdrawFreeBond",
      "type": "event"
    },
    {
      "anonymous": false,
      "inputs": [
        {
          "indexed": true,
          "internalType": "address",
          "name": "archaeologist",
          "type": "address"
        },
        {
          "indexed": false,
          "internalType": "uint256",
          "name": "withdrawnReward",
          "type": "uint256"
        }
      ],
      "name": "WithdrawReward",
      "type": "event"
    },
    {
      "inputs": [
        {
          "internalType": "uint256",
          "name": "amount",
          "type": "uint256"
        }
      ],
      "name": "depositFreeBond",
      "outputs": [],
      "stateMutability": "nonpayable",
      "type": "function"
    },
    {
      "inputs": [
        {
          "internalType": "bytes32",
          "name": "sarcoId",
          "type": "bytes32"
        },
        {
          "internalType": "string",
          "name": "arweaveTxId",
          "type": "string"
        },
        {
          "components": [
            {
              "internalType": "uint8",
              "name": "v",
              "type": "uint8"
            },
            {
              "internalType": "bytes32",
              "name": "r",
              "type": "bytes32"
            },
            {
              "internalType": "bytes32",
              "name": "s",
              "type": "bytes32"
            }
          ],
          "internalType": "struct LibTypes.Signature",
          "name": "oldArchSignature",
          "type": "tuple"
        }
      ],
      "name": "finalizeTransfer",
      "outputs": [],
      "stateMutability": "nonpayable",
      "type": "function"
    },
    {
      "inputs": [
        {
          "internalType": "string",
          "name": "peerId",
          "type": "string"
        },
        {
          "internalType": "uint256",
          "name": "minimumDiggingFee",
          "type": "uint256"
        },
        {
          "internalType": "uint256",
          "name": "maximumRewrapInterval",
          "type": "uint256"
        },
        {
          "internalType": "uint256",
          "name": "freeBond",
          "type": "uint256"
        }
      ],
      "name": "registerArchaeologist",
      "outputs": [],
      "stateMutability": "nonpayable",
      "type": "function"
    },
    {
      "inputs": [
        {
          "internalType": "bytes32",
          "name": "sarcoId",
          "type": "bytes32"
        },
        {
          "internalType": "bytes",
          "name": "unencryptedShard",
          "type": "bytes"
        }
      ],
      "name": "unwrapSarcophagus",
      "outputs": [],
      "stateMutability": "nonpayable",
      "type": "function"
    },
    {
      "inputs": [
        {
          "internalType": "string",
          "name": "peerId",
          "type": "string"
        },
        {
          "internalType": "uint256",
          "name": "minimumDiggingFee",
          "type": "uint256"
        },
        {
          "internalType": "uint256",
          "name": "maximumRewrapInterval",
          "type": "uint256"
        },
        {
          "internalType": "uint256",
          "name": "freeBond",
          "type": "uint256"
        }
      ],
      "name": "updateArchaeologist",
      "outputs": [],
      "stateMutability": "nonpayable",
      "type": "function"
    },
    {
      "inputs": [
        {
          "internalType": "uint256",
          "name": "amount",
          "type": "uint256"
        }
      ],
      "name": "withdrawFreeBond",
      "outputs": [],
      "stateMutability": "nonpayable",
      "type": "function"
    },
    {
      "inputs": [],
      "name": "withdrawReward",
      "outputs": [],
      "stateMutability": "nonpayable",
      "type": "function"
    }
  ],
  "transactionHash": "0x92b756f2e2094837b54cc886aca9904bb59fa35359a8fea6547be2b91e743377",
  "args": [],
  "numDeployments": 1,
  "solcInputHash": "bb81ff8fd5e003ac11af6c87c560a8a6",
  "bytecode": "0x608060405234801561001057600080fd5b5061298c806100206000396000f3fe608060405234801561001057600080fd5b506004361061007d5760003560e01c806369afe1c51161005b57806369afe1c5146100d65780636a5ac74c146100f25780638d58642a1461010e578063c885bc581461012a5761007d565b80630c4c35f014610082578063364e08011461009e578063449f11a6146100ba575b600080fd5b61009c60048036038101906100979190611ed3565b610134565b005b6100b860048036038101906100b39190611f56565b6102d0565b005b6100d460048036038101906100cf9190611ed3565b6103d7565b005b6100f060048036038101906100eb919061205b565b610640565b005b61010c60048036038101906101079190611f56565b610a6e565b005b6101286004803603810190610123919061216b565b610b77565b005b610132610ef0565b005b61013d33611071565b60008060070160003373ffffffffffffffffffffffffffffffffffffffff1673ffffffffffffffffffffffffffffffffffffffff16815260200190815260200160002090508481600101908051906020019061019a929190611b69565b508381600201819055508281600301819055506000821115610266576101c03383611117565b6000800160009054906101000a900473ffffffffffffffffffffffffffffffffffffffff1673ffffffffffffffffffffffffffffffffffffffff166323b872dd3330856040518463ffffffff1660e01b815260040161022193929190612217565b6020604051808303816000875af1158015610240573d6000803e3d6000fd5b505050506040513d601f19601f820116820180604052508101906102649190612286565b505b3373ffffffffffffffffffffffffffffffffffffffff167f4df9330dcb4af4b522d063da8a473d6711cdd390feef75f059a663a76c270139826001018360020154846003015485600401546040516102c194939291906123b9565b60405180910390a25050505050565b6102d933611071565b6102e33382611183565b6000800160009054906101000a900473ffffffffffffffffffffffffffffffffffffffff1673ffffffffffffffffffffffffffffffffffffffff1663a9059cbb33836040518363ffffffff1660e01b8152600401610342929190612405565b6020604051808303816000875af1158015610361573d6000803e3d6000fd5b505050506040513d601f19601f820116820180604052508101906103859190612286565b503373ffffffffffffffffffffffffffffffffffffffff167fd91b1e491a880123721b161dbbf8249668b0c546077d7ba4d0016441ca9d8f45826040516103cc919061242e565b60405180910390a250565b6103e0336112be565b60006040518060c001604052806001151581526020018681526020018581526020018481526020018381526020016000815250905060008211156104c4576000800160009054906101000a900473ffffffffffffffffffffffffffffffffffffffff1673ffffffffffffffffffffffffffffffffffffffff166323b872dd3330856040518463ffffffff1660e01b815260040161047f93929190612217565b6020604051808303816000875af115801561049e573d6000803e3d6000fd5b505050506040513d601f19601f820116820180604052508101906104c29190612286565b505b80600060070160003373ffffffffffffffffffffffffffffffffffffffff1673ffffffffffffffffffffffffffffffffffffffff16815260200190815260200160002060008201518160000160006101000a81548160ff0219169083151502179055506020820151816001019080519060200190610543929190611b69565b5060408201518160020155606082015181600301556080820151816004015560a082015181600501559050506000600601339080600181540180825580915050600190039060005260206000200160009091909190916101000a81548173ffffffffffffffffffffffffffffffffffffffff021916908373ffffffffffffffffffffffffffffffffffffffff1602179055503373ffffffffffffffffffffffffffffffffffffffff167fec728a18db560dc21e59ae36132eb1e1c1b00d056a88ee755e0940e471ad591e826020015183604001518460600151856080015160405161063194939291906124c0565b60405180910390a25050505050565b600160028111156106545761065361250c565b5b6000600d01600085815260200190815260200160002060010160009054906101000a900460ff16600281111561068d5761068c61250c565b5b146106cf57826040517f018da6880000000000000000000000000000000000000000000000000000000081526004016106c6919061254a565b60405180910390fd5b6106f16000600d01600085815260200190815260200160002060020154611365565b600061070b838360000151846020015185604001516113ac565b9050610717848261145e565b61075a5783816040517fd93ccb20000000000000000000000000000000000000000000000000000000008152600401610751929190612565565b60405180910390fd5b60005b6000600d01600086815260200190815260200160002060070180549050811015610895578173ffffffffffffffffffffffffffffffffffffffff166000600d01600087815260200190815260200160002060070182815481106107c3576107c261258e565b5b9060005260206000200160009054906101000a900473ffffffffffffffffffffffffffffffffffffffff1673ffffffffffffffffffffffffffffffffffffffff160361088257336000600d01600087815260200190815260200160002060070182815481106108355761083461258e565b5b9060005260206000200160006101000a81548173ffffffffffffffffffffffffffffffffffffffff021916908373ffffffffffffffffffffffffffffffffffffffff160217905550610895565b808061088d906125ec565b91505061075d565b506108a084826114d0565b600080601201600086815260200190815260200160002060003373ffffffffffffffffffffffffffffffffffffffff1673ffffffffffffffffffffffffffffffffffffffff1681526020019081526020016000209050600080601201600087815260200190815260200160002060008473ffffffffffffffffffffffffffffffffffffffff1673ffffffffffffffffffffffffffffffffffffffff168152602001908152602001600020905080600001548260000181905550806002015482600201819055506040518060200160405280600081525082600301908051906020019061098d929190611bef565b50600081600001819055506000801b8160020181905550604051806020016040528060008152508160030190805190602001906109cb929190611bef565b506000600d01600087815260200190815260200160002060040185908060018154018082558091505060019003906000526020600020016000909190919091509080519060200190610a1e929190611b69565b50610a29863361160f565b7fa11d6c318d830f7ace4ca677c932075082bc61f4356facae5a2a0e1c2a97454c86868533604051610a5e9493929190612634565b60405180910390a1505050505050565b610a7733611071565b610a813382611117565b6000800160009054906101000a900473ffffffffffffffffffffffffffffffffffffffff1673ffffffffffffffffffffffffffffffffffffffff166323b872dd3330846040518463ffffffff1660e01b8152600401610ae293929190612217565b6020604051808303816000875af1158015610b01573d6000803e3d6000fd5b505050506040513d601f19601f82011682018060405250810190610b259190612286565b503373ffffffffffffffffffffffffffffffffffffffff167ff882a0847c57aefe6f6c7df2098dd0afd122eb0e886199e223651b8e45fda82382604051610b6c919061242e565b60405180910390a250565b610b81823361174e565b60016002811115610b9557610b9461250c565b5b6000600d01600084815260200190815260200160002060010160009054906101000a900460ff166002811115610bce57610bcd61250c565b5b14610c1057816040517f018da688000000000000000000000000000000000000000000000000000000008152600401610c07919061254a565b60405180910390fd5b610c1a823361145e565b610c5b57336040517f82881f03000000000000000000000000000000000000000000000000000000008152600401610c529190612680565b60405180910390fd5b610c7d6000600d016000848152602001908152602001600020600201546117a6565b6000610c898333611859565b905060008280519060200120604051602001610ca5919061254a565b60405160208183030381529060405280519060200120905081604001518114610d0b578282604001516040517fd6091bc2000000000000000000000000000000000000000000000000000000008152600401610d029291906126f0565b60405180910390fd5b826000601201600086815260200190815260200160002060003373ffffffffffffffffffffffffffffffffffffffff1673ffffffffffffffffffffffffffffffffffffffff1681526020019081526020016000206003019080519060200190610d75929190611c75565b50610d8084336114d0565b6001600060080160003373ffffffffffffffffffffffffffffffffffffffff1673ffffffffffffffffffffffffffffffffffffffff168152602001908152602001600020600086815260200190815260200160002060006101000a81548160ff021916908315150217905550600060090160003373ffffffffffffffffffffffffffffffffffffffff1673ffffffffffffffffffffffffffffffffffffffff16815260200190815260200160002084908060018154018082558091505060019003906000526020600020016000909190919091505581600001516000600c0160003373ffffffffffffffffffffffffffffffffffffffff1673ffffffffffffffffffffffffffffffffffffffff1681526020019081526020016000206000828254610eab9190612720565b92505081905550837f2a1e0100e3bcf67538d8408f2592de3731b8b40f8c6d7dd813e355c7b73848d884604051610ee29190612776565b60405180910390a250505050565b600080600c0160003373ffffffffffffffffffffffffffffffffffffffff1673ffffffffffffffffffffffffffffffffffffffff168152602001908152602001600020549050600080600c0160003373ffffffffffffffffffffffffffffffffffffffff1673ffffffffffffffffffffffffffffffffffffffff168152602001908152602001600020819055506000800160009054906101000a900473ffffffffffffffffffffffffffffffffffffffff1673ffffffffffffffffffffffffffffffffffffffff1663a9059cbb33836040518363ffffffff1660e01b8152600401610fdc929190612405565b6020604051808303816000875af1158015610ffb573d6000803e3d6000fd5b505050506040513d601f19601f8201168201806040525081019061101f9190612286565b503373ffffffffffffffffffffffffffffffffffffffff167fbc84835063c693975166f00cffb19f01a94c2db55b1bf259238c5da3594e506682604051611066919061242e565b60405180910390a250565b600061107b611983565b90508060070160008373ffffffffffffffffffffffffffffffffffffffff1673ffffffffffffffffffffffffffffffffffffffff16815260200190815260200160002060000160009054906101000a900460ff16611113576001826040517f2eeb357100000000000000000000000000000000000000000000000000000000815260040161110a9291906127a7565b60405180910390fd5b5050565b6000611121611983565b9050818160070160008573ffffffffffffffffffffffffffffffffffffffff1673ffffffffffffffffffffffffffffffffffffffff16815260200190815260200160002060040160008282546111779190612720565b92505081905550505050565b600061118d611983565b90508060070160008473ffffffffffffffffffffffffffffffffffffffff1673ffffffffffffffffffffffffffffffffffffffff1681526020019081526020016000206004015482111561125e578060070160008473ffffffffffffffffffffffffffffffffffffffff1673ffffffffffffffffffffffffffffffffffffffff16815260200190815260200160002060040154826040517fa4e3bead0000000000000000000000000000000000000000000000000000000081526004016112559291906127d0565b60405180910390fd5b818160070160008573ffffffffffffffffffffffffffffffffffffffff1673ffffffffffffffffffffffffffffffffffffffff16815260200190815260200160002060040160008282546112b291906127f9565b92505081905550505050565b60006112c8611983565b90508060070160008373ffffffffffffffffffffffffffffffffffffffff1673ffffffffffffffffffffffffffffffffffffffff16815260200190815260200160002060000160009054906101000a900460ff1615611361576000826040517f2eeb35710000000000000000000000000000000000000000000000000000000081526004016113589291906127a7565b60405180910390fd5b5050565b4281116113a957806040517f357efa270000000000000000000000000000000000000000000000000000000081526004016113a0919061242e565b60405180910390fd5b50565b600080856040516020016113c09190612776565b604051602081830303815290604052805190602001206040516020016113e691906128a5565b60405160208183030381529060405280519060200120905060006001828787876040516000815260200160405260405161142394939291906128da565b6020604051602081039080840390855afa158015611445573d6000803e3d6000fd5b5050506020604051035190508092505050949350505050565b600080611469611983565b90506000801b81601201600086815260200190815260200160002060008573ffffffffffffffffffffffffffffffffffffffff1673ffffffffffffffffffffffffffffffffffffffff16815260200190815260200160002060020154141591505092915050565b60006114da611983565b9050600081601201600085815260200190815260200160002060008473ffffffffffffffffffffffffffffffffffffffff1673ffffffffffffffffffffffffffffffffffffffff168152602001908152602001600020604051806080016040529081600082015481526020016001820154815260200160028201548152602001600382018054611569906122e2565b80601f0160208091040260200160405190810160405280929190818152602001828054611595906122e2565b80156115e25780601f106115b7576101008083540402835291602001916115e2565b820191906000526020600020905b8154815290600101906020018083116115c557829003601f168201915b505050505081525050905060006115fc8260000151611988565b90506116088482611992565b5050505050565b6000611619611983565b9050600081601201600085815260200190815260200160002060008473ffffffffffffffffffffffffffffffffffffffff1673ffffffffffffffffffffffffffffffffffffffff1681526020019081526020016000206040518060800160405290816000820154815260200160018201548152602001600282015481526020016003820180546116a8906122e2565b80601f01602080910402602001604051908101604052809291908181526020018280546116d4906122e2565b80156117215780601f106116f657610100808354040283529160200191611721565b820191906000526020600020905b81548152906001019060200180831161170457829003601f168201915b5050505050815250509050600061173b8260000151611988565b905061174784826119aa565b5050505050565b600061175a8383611859565b606001515111156117a257806040517f1b933fa00000000000000000000000000000000000000000000000000000000081526004016117999190612680565b60405180910390fd5b5050565b428111156117ed5780426040517f0674c5900000000000000000000000000000000000000000000000000000000081526004016117e49291906127d0565b60405180910390fd5b60006117f7611983565b90504281600301548361180a9190612720565b101561185557818160030154426040517f4fd4cfc500000000000000000000000000000000000000000000000000000000815260040161184c9392919061291f565b60405180910390fd5b5050565b611861611cfb565b600061186b611983565b905080601201600085815260200190815260200160002060008473ffffffffffffffffffffffffffffffffffffffff1673ffffffffffffffffffffffffffffffffffffffff1681526020019081526020016000206040518060800160405290816000820154815260200160018201548152602001600282015481526020016003820180546118f8906122e2565b80601f0160208091040260200160405190810160405280929190818152602001828054611924906122e2565b80156119715780601f1061194657610100808354040283529160200191611971565b820191906000526020600020905b81548152906001019060200180831161195457829003601f168201915b50505050508152505091505092915050565b600090565b6000819050919050565b61199c82826119c2565b6119a68282611117565b5050565b6119b48282611183565b6119be8282611afd565b5050565b60006119cc611983565b90508060070160008473ffffffffffffffffffffffffffffffffffffffff1673ffffffffffffffffffffffffffffffffffffffff16815260200190815260200160002060050154821115611a9d578060070160008473ffffffffffffffffffffffffffffffffffffffff1673ffffffffffffffffffffffffffffffffffffffff16815260200190815260200160002060050154826040517faf5a111b000000000000000000000000000000000000000000000000000000008152600401611a949291906127d0565b60405180910390fd5b818160070160008573ffffffffffffffffffffffffffffffffffffffff1673ffffffffffffffffffffffffffffffffffffffff1681526020019081526020016000206005016000828254611af191906127f9565b92505081905550505050565b6000611b07611983565b9050818160070160008573ffffffffffffffffffffffffffffffffffffffff1673ffffffffffffffffffffffffffffffffffffffff1681526020019081526020016000206005016000828254611b5d9190612720565b92505081905550505050565b828054611b75906122e2565b90600052602060002090601f016020900481019282611b975760008555611bde565b82601f10611bb057805160ff1916838001178555611bde565b82800160010185558215611bde579182015b82811115611bdd578251825591602001919060010190611bc2565b5b509050611beb9190611d26565b5090565b828054611bfb906122e2565b90600052602060002090601f016020900481019282611c1d5760008555611c64565b82601f10611c3657805160ff1916838001178555611c64565b82800160010185558215611c64579182015b82811115611c63578251825591602001919060010190611c48565b5b509050611c719190611d26565b5090565b828054611c81906122e2565b90600052602060002090601f016020900481019282611ca35760008555611cea565b82601f10611cbc57805160ff1916838001178555611cea565b82800160010185558215611cea579182015b82811115611ce9578251825591602001919060010190611cce565b5b509050611cf79190611d26565b5090565b6040518060800160405280600081526020016000815260200160008019168152602001606081525090565b5b80821115611d3f576000816000905550600101611d27565b5090565b6000604051905090565b600080fd5b600080fd5b600080fd5b600080fd5b6000601f19601f8301169050919050565b7f4e487b7100000000000000000000000000000000000000000000000000000000600052604160045260246000fd5b611daa82611d61565b810181811067ffffffffffffffff82111715611dc957611dc8611d72565b5b80604052505050565b6000611ddc611d43565b9050611de88282611da1565b919050565b600067ffffffffffffffff821115611e0857611e07611d72565b5b611e1182611d61565b9050602081019050919050565b82818337600083830152505050565b6000611e40611e3b84611ded565b611dd2565b905082815260208101848484011115611e5c57611e5b611d5c565b5b611e67848285611e1e565b509392505050565b600082601f830112611e8457611e83611d57565b5b8135611e94848260208601611e2d565b91505092915050565b6000819050919050565b611eb081611e9d565b8114611ebb57600080fd5b50565b600081359050611ecd81611ea7565b92915050565b60008060008060808587031215611eed57611eec611d4d565b5b600085013567ffffffffffffffff811115611f0b57611f0a611d52565b5b611f1787828801611e6f565b9450506020611f2887828801611ebe565b9350506040611f3987828801611ebe565b9250506060611f4a87828801611ebe565b91505092959194509250565b600060208284031215611f6c57611f6b611d4d565b5b6000611f7a84828501611ebe565b91505092915050565b6000819050919050565b611f9681611f83565b8114611fa157600080fd5b50565b600081359050611fb381611f8d565b92915050565b600080fd5b600060ff82169050919050565b611fd481611fbe565b8114611fdf57600080fd5b50565b600081359050611ff181611fcb565b92915050565b60006060828403121561200d5761200c611fb9565b5b6120176060611dd2565b9050600061202784828501611fe2565b600083015250602061203b84828501611fa4565b602083015250604061204f84828501611fa4565b60408301525092915050565b600080600060a0848603121561207457612073611d4d565b5b600061208286828701611fa4565b935050602084013567ffffffffffffffff8111156120a3576120a2611d52565b5b6120af86828701611e6f565b92505060406120c086828701611ff7565b9150509250925092565b600067ffffffffffffffff8211156120e5576120e4611d72565b5b6120ee82611d61565b9050602081019050919050565b600061210e612109846120ca565b611dd2565b90508281526020810184848401111561212a57612129611d5c565b5b612135848285611e1e565b509392505050565b600082601f83011261215257612151611d57565b5b81356121628482602086016120fb565b91505092915050565b6000806040838503121561218257612181611d4d565b5b600061219085828601611fa4565b925050602083013567ffffffffffffffff8111156121b1576121b0611d52565b5b6121bd8582860161213d565b9150509250929050565b600073ffffffffffffffffffffffffffffffffffffffff82169050919050565b60006121f2826121c7565b9050919050565b612202816121e7565b82525050565b61221181611e9d565b82525050565b600060608201905061222c60008301866121f9565b61223960208301856121f9565b6122466040830184612208565b949350505050565b60008115159050919050565b6122638161224e565b811461226e57600080fd5b50565b6000815190506122808161225a565b92915050565b60006020828403121561229c5761229b611d4d565b5b60006122aa84828501612271565b91505092915050565b7f4e487b7100000000000000000000000000000000000000000000000000000000600052602260045260246000fd5b600060028204905060018216806122fa57607f821691505b60208210810361230d5761230c6122b3565b5b50919050565b600082825260208201905092915050565b60008190508160005260206000209050919050565b60008154612346816122e2565b6123508186612313565b9450600182166000811461236b576001811461237d576123b0565b60ff19831686526020860193506123b0565b61238685612324565b60005b838110156123a857815481890152600182019150602081019050612389565b808801955050505b50505092915050565b600060808201905081810360008301526123d38187612339565b90506123e26020830186612208565b6123ef6040830185612208565b6123fc6060830184612208565b95945050505050565b600060408201905061241a60008301856121f9565b6124276020830184612208565b9392505050565b60006020820190506124436000830184612208565b92915050565b600081519050919050565b60005b83811015612472578082015181840152602081019050612457565b83811115612481576000848401525b50505050565b600061249282612449565b61249c8185612313565b93506124ac818560208601612454565b6124b581611d61565b840191505092915050565b600060808201905081810360008301526124da8187612487565b90506124e96020830186612208565b6124f66040830185612208565b6125036060830184612208565b95945050505050565b7f4e487b7100000000000000000000000000000000000000000000000000000000600052602160045260246000fd5b61254481611f83565b82525050565b600060208201905061255f600083018461253b565b92915050565b600060408201905061257a600083018561253b565b61258760208301846121f9565b9392505050565b7f4e487b7100000000000000000000000000000000000000000000000000000000600052603260045260246000fd5b7f4e487b7100000000000000000000000000000000000000000000000000000000600052601160045260246000fd5b60006125f782611e9d565b91507fffffffffffffffffffffffffffffffffffffffffffffffffffffffffffffffff8203612629576126286125bd565b5b600182019050919050565b6000608082019050612649600083018761253b565b818103602083015261265b8186612487565b905061266a60408301856121f9565b61267760608301846121f9565b95945050505050565b600060208201905061269560008301846121f9565b92915050565b600081519050919050565b600082825260208201905092915050565b60006126c28261269b565b6126cc81856126a6565b93506126dc818560208601612454565b6126e581611d61565b840191505092915050565b6000604082019050818103600083015261270a81856126b7565b9050612719602083018461253b565b9392505050565b600061272b82611e9d565b915061273683611e9d565b9250827fffffffffffffffffffffffffffffffffffffffffffffffffffffffffffffffff0382111561276b5761276a6125bd565b5b828201905092915050565b6000602082019050818103600083015261279081846126b7565b905092915050565b6127a18161224e565b82525050565b60006040820190506127bc6000830185612798565b6127c960208301846121f9565b9392505050565b60006040820190506127e56000830185612208565b6127f26020830184612208565b9392505050565b600061280482611e9d565b915061280f83611e9d565b925082821015612822576128216125bd565b5b828203905092915050565b600081905092915050565b7f19457468657265756d205369676e6564204d6573736167653a0a333200000000600082015250565b600061286e601c8361282d565b915061287982612838565b601c82019050919050565b6000819050919050565b61289f61289a82611f83565b612884565b82525050565b60006128b082612861565b91506128bc828461288e565b60208201915081905092915050565b6128d481611fbe565b82525050565b60006080820190506128ef600083018761253b565b6128fc60208301866128cb565b612909604083018561253b565b612916606083018461253b565b95945050505050565b60006060820190506129346000830186612208565b6129416020830185612208565b61294e6040830184612208565b94935050505056fea2646970667358221220ea6f6fe7fa411be1e1e362168a0445760005094305be1b96ae153557cc13103364736f6c634300080d0033",
  "devdoc": {
    "kind": "dev",
    "methods": {
      "depositFreeBond(uint256)": {
        "params": {
          "amount": "The amount to deposit"
        }
      },
      "finalizeTransfer(bytes32,string,(uint8,bytes32,bytes32))": {
        "params": {
          "arweaveTxId": "The id of the arweave transaction where the new shard",
          "oldArchSignature": "The signature of the old archaeologist was uploaded",
          "sarcoId": "The identifier of the sarcophagus"
        }
      },
      "registerArchaeologist(string,uint256,uint256,uint256)": {
        "params": {
          "freeBond": "How much bond the archaeologist wants to deposit during the register call (if any)",
          "maximumRewrapInterval": "The longest interval of time from a rewrap time the arch will accept for a resurrection",
          "minimumDiggingFee": "The archaeologist's minimum amount to accept for a digging fee",
          "peerId": "The libp2p identifier for the archaeologist"
        }
      },
      "unwrapSarcophagus(bytes32,bytes)": {
        "details": "Verifies that the unencrypted shard matches the hashedShard stored on chain and pays the archaeologist.",
        "params": {
          "sarcoId": "The identifier of the sarcophagus to unwrap",
          "unencryptedShard": "The archaeologist's corresponding unencrypted shard"
        }
      },
      "updateArchaeologist(string,uint256,uint256,uint256)": {
        "params": {
          "maximumRewrapInterval": "The longest interval of time from a rewrap time the arch will accept for a resurrection freeBond How much bond the archaeologist wants to deposit during the update call (if any)",
          "minimumDiggingFee": "The archaeologist's minimum amount to accept for a digging fee",
          "peerId": "The libp2p identifier for the archaeologist"
        }
      },
      "withdrawFreeBond(uint256)": {
        "params": {
          "amount": "The amount to withdraw"
        }
      }
    },
    "version": 1
  },
  "userdoc": {
    "kind": "user",
    "methods": {
      "depositFreeBond(uint256)": {
        "notice": "Deposits an archaeologist's free bond to the contract."
      },
      "finalizeTransfer(bytes32,string,(uint8,bytes32,bytes32))": {
        "notice": "Finalizes a transfer of roles and responsibilities between two archaeologists. This is to be called by the new archaeologist."
      },
      "registerArchaeologist(string,uint256,uint256,uint256)": {
        "notice": "Registers the archaeologist profile"
      },
      "unwrapSarcophagus(bytes32,bytes)": {
        "notice": "Unwraps the sarcophagus."
      },
      "updateArchaeologist(string,uint256,uint256,uint256)": {
        "notice": "Updates the archaeologist profile"
      },
      "withdrawFreeBond(uint256)": {
        "notice": "Withdraws an archaeologist's free bond from the contract."
      },
      "withdrawReward()": {
        "notice": "Withdraws all rewards from an archaeologist's reward pool"
      }
    },
    "version": 1
  },
  "storageLayout": {
    "storage": [
      {
        "astId": 1023,
        "contract": "contracts/facets/ArchaeologistFacet.sol:ArchaeologistFacet",
        "label": "s",
        "offset": 0,
        "slot": "0",
        "type": "t_struct(AppStorage)4640_storage"
      }
    ],
    "types": {
      "t_address": {
        "encoding": "inplace",
        "label": "address",
        "numberOfBytes": "20"
      },
      "t_array(t_address)dyn_storage": {
        "base": "t_address",
        "encoding": "dynamic_array",
        "label": "address[]",
        "numberOfBytes": "32"
      },
      "t_array(t_bytes32)dyn_storage": {
        "base": "t_bytes32",
        "encoding": "dynamic_array",
        "label": "bytes32[]",
        "numberOfBytes": "32"
      },
      "t_array(t_string_storage)dyn_storage": {
        "base": "t_string_storage",
        "encoding": "dynamic_array",
        "label": "string[]",
        "numberOfBytes": "32"
      },
      "t_bool": {
        "encoding": "inplace",
        "label": "bool",
        "numberOfBytes": "1"
      },
      "t_bytes32": {
        "encoding": "inplace",
        "label": "bytes32",
        "numberOfBytes": "32"
      },
      "t_bytes_storage": {
        "encoding": "bytes",
        "label": "bytes",
        "numberOfBytes": "32"
      },
      "t_contract(IERC20)663": {
        "encoding": "inplace",
        "label": "contract IERC20",
        "numberOfBytes": "20"
      },
      "t_enum(SarcophagusState)4003": {
        "encoding": "inplace",
        "label": "enum LibTypes.SarcophagusState",
        "numberOfBytes": "1"
      },
      "t_mapping(t_address,t_array(t_bytes32)dyn_storage)": {
        "encoding": "mapping",
        "key": "t_address",
        "label": "mapping(address => bytes32[])",
        "numberOfBytes": "32",
        "value": "t_array(t_bytes32)dyn_storage"
      },
      "t_mapping(t_address,t_mapping(t_bytes32,t_bool))": {
        "encoding": "mapping",
        "key": "t_address",
        "label": "mapping(address => mapping(bytes32 => bool))",
        "numberOfBytes": "32",
        "value": "t_mapping(t_bytes32,t_bool)"
      },
      "t_mapping(t_address,t_struct(ArchaeologistProfile)4054_storage)": {
        "encoding": "mapping",
        "key": "t_address",
        "label": "mapping(address => struct LibTypes.ArchaeologistProfile)",
        "numberOfBytes": "32",
        "value": "t_struct(ArchaeologistProfile)4054_storage"
      },
      "t_mapping(t_address,t_struct(ArchaeologistStorage)4041_storage)": {
        "encoding": "mapping",
        "key": "t_address",
        "label": "mapping(address => struct LibTypes.ArchaeologistStorage)",
        "numberOfBytes": "32",
        "value": "t_struct(ArchaeologistStorage)4041_storage"
      },
      "t_mapping(t_address,t_uint256)": {
        "encoding": "mapping",
        "key": "t_address",
        "label": "mapping(address => uint256)",
        "numberOfBytes": "32",
        "value": "t_uint256"
      },
      "t_mapping(t_bytes32,t_address)": {
        "encoding": "mapping",
        "key": "t_bytes32",
        "label": "mapping(bytes32 => address)",
        "numberOfBytes": "32",
        "value": "t_address"
      },
      "t_mapping(t_bytes32,t_bool)": {
        "encoding": "mapping",
        "key": "t_bytes32",
        "label": "mapping(bytes32 => bool)",
        "numberOfBytes": "32",
        "value": "t_bool"
      },
      "t_mapping(t_bytes32,t_mapping(t_address,t_struct(ArchaeologistStorage)4041_storage))": {
        "encoding": "mapping",
        "key": "t_bytes32",
        "label": "mapping(bytes32 => mapping(address => struct LibTypes.ArchaeologistStorage))",
        "numberOfBytes": "32",
        "value": "t_mapping(t_address,t_struct(ArchaeologistStorage)4041_storage)"
      },
      "t_mapping(t_bytes32,t_struct(Sarcophagus)4093_storage)": {
        "encoding": "mapping",
        "key": "t_bytes32",
        "label": "mapping(bytes32 => struct LibTypes.Sarcophagus)",
        "numberOfBytes": "32",
        "value": "t_struct(Sarcophagus)4093_storage"
      },
      "t_string_storage": {
        "encoding": "bytes",
        "label": "string",
        "numberOfBytes": "32"
      },
      "t_struct(AppStorage)4640_storage": {
        "encoding": "inplace",
        "label": "struct AppStorage",
        "members": [
          {
            "astId": 4564,
            "contract": "contracts/facets/ArchaeologistFacet.sol:ArchaeologistFacet",
            "label": "sarcoToken",
            "offset": 0,
            "slot": "0",
            "type": "t_contract(IERC20)663"
          },
          {
            "astId": 4566,
            "contract": "contracts/facets/ArchaeologistFacet.sol:ArchaeologistFacet",
            "label": "protocolFeeBasePercentage",
            "offset": 0,
            "slot": "1",
            "type": "t_uint256"
          },
          {
            "astId": 4568,
            "contract": "contracts/facets/ArchaeologistFacet.sol:ArchaeologistFacet",
            "label": "totalProtocolFees",
            "offset": 0,
            "slot": "2",
            "type": "t_uint256"
          },
          {
            "astId": 4570,
            "contract": "contracts/facets/ArchaeologistFacet.sol:ArchaeologistFacet",
            "label": "gracePeriod",
            "offset": 0,
            "slot": "3",
            "type": "t_uint256"
          },
          {
            "astId": 4572,
            "contract": "contracts/facets/ArchaeologistFacet.sol:ArchaeologistFacet",
            "label": "expirationThreshold",
            "offset": 0,
            "slot": "4",
            "type": "t_uint256"
          },
          {
            "astId": 4575,
            "contract": "contracts/facets/ArchaeologistFacet.sol:ArchaeologistFacet",
            "label": "sarcophagusIdentifiers",
            "offset": 0,
            "slot": "5",
            "type": "t_array(t_bytes32)dyn_storage"
          },
          {
            "astId": 4578,
            "contract": "contracts/facets/ArchaeologistFacet.sol:ArchaeologistFacet",
            "label": "archaeologistProfileAddresses",
            "offset": 0,
            "slot": "6",
            "type": "t_array(t_address)dyn_storage"
          },
          {
            "astId": 4583,
            "contract": "contracts/facets/ArchaeologistFacet.sol:ArchaeologistFacet",
            "label": "archaeologistProfiles",
            "offset": 0,
            "slot": "7",
            "type": "t_mapping(t_address,t_struct(ArchaeologistProfile)4054_storage)"
          },
          {
            "astId": 4589,
            "contract": "contracts/facets/ArchaeologistFacet.sol:ArchaeologistFacet",
            "label": "archaeologistSarcoSuccesses",
            "offset": 0,
            "slot": "8",
            "type": "t_mapping(t_address,t_mapping(t_bytes32,t_bool))"
          },
          {
            "astId": 4594,
            "contract": "contracts/facets/ArchaeologistFacet.sol:ArchaeologistFacet",
            "label": "archaeologistSuccesses",
            "offset": 0,
            "slot": "9",
            "type": "t_mapping(t_address,t_array(t_bytes32)dyn_storage)"
          },
          {
            "astId": 4599,
            "contract": "contracts/facets/ArchaeologistFacet.sol:ArchaeologistFacet",
            "label": "archaeologistAccusals",
            "offset": 0,
            "slot": "10",
            "type": "t_mapping(t_address,t_array(t_bytes32)dyn_storage)"
          },
          {
            "astId": 4604,
            "contract": "contracts/facets/ArchaeologistFacet.sol:ArchaeologistFacet",
            "label": "archaeologistCleanups",
            "offset": 0,
            "slot": "11",
            "type": "t_mapping(t_address,t_array(t_bytes32)dyn_storage)"
          },
          {
            "astId": 4608,
            "contract": "contracts/facets/ArchaeologistFacet.sol:ArchaeologistFacet",
            "label": "archaeologistRewards",
            "offset": 0,
            "slot": "12",
            "type": "t_mapping(t_address,t_uint256)"
          },
          {
            "astId": 4613,
            "contract": "contracts/facets/ArchaeologistFacet.sol:ArchaeologistFacet",
            "label": "sarcophagi",
            "offset": 0,
            "slot": "13",
            "type": "t_mapping(t_bytes32,t_struct(Sarcophagus)4093_storage)"
          },
          {
            "astId": 4618,
            "contract": "contracts/facets/ArchaeologistFacet.sol:ArchaeologistFacet",
            "label": "embalmerSarcophagi",
            "offset": 0,
            "slot": "14",
            "type": "t_mapping(t_address,t_array(t_bytes32)dyn_storage)"
          },
          {
            "astId": 4623,
            "contract": "contracts/facets/ArchaeologistFacet.sol:ArchaeologistFacet",
            "label": "archaeologistSarcophagi",
            "offset": 0,
            "slot": "15",
            "type": "t_mapping(t_address,t_array(t_bytes32)dyn_storage)"
          },
          {
            "astId": 4628,
            "contract": "contracts/facets/ArchaeologistFacet.sol:ArchaeologistFacet",
            "label": "recipientSarcophagi",
            "offset": 0,
            "slot": "16",
            "type": "t_mapping(t_address,t_array(t_bytes32)dyn_storage)"
          },
          {
            "astId": 4632,
            "contract": "contracts/facets/ArchaeologistFacet.sol:ArchaeologistFacet",
            "label": "doubleHashedShardArchaeologists",
            "offset": 0,
            "slot": "17",
            "type": "t_mapping(t_bytes32,t_address)"
          },
          {
            "astId": 4639,
            "contract": "contracts/facets/ArchaeologistFacet.sol:ArchaeologistFacet",
            "label": "sarcophagusArchaeologists",
            "offset": 0,
            "slot": "18",
            "type": "t_mapping(t_bytes32,t_mapping(t_address,t_struct(ArchaeologistStorage)4041_storage))"
          }
        ],
        "numberOfBytes": "608"
      },
      "t_struct(ArchaeologistProfile)4054_storage": {
        "encoding": "inplace",
        "label": "struct LibTypes.ArchaeologistProfile",
        "members": [
          {
            "astId": 4043,
            "contract": "contracts/facets/ArchaeologistFacet.sol:ArchaeologistFacet",
            "label": "exists",
            "offset": 0,
            "slot": "0",
            "type": "t_bool"
          },
          {
            "astId": 4045,
            "contract": "contracts/facets/ArchaeologistFacet.sol:ArchaeologistFacet",
            "label": "peerId",
            "offset": 0,
            "slot": "1",
            "type": "t_string_storage"
          },
          {
            "astId": 4047,
            "contract": "contracts/facets/ArchaeologistFacet.sol:ArchaeologistFacet",
            "label": "minimumDiggingFee",
            "offset": 0,
            "slot": "2",
            "type": "t_uint256"
          },
          {
            "astId": 4049,
            "contract": "contracts/facets/ArchaeologistFacet.sol:ArchaeologistFacet",
            "label": "maximumRewrapInterval",
            "offset": 0,
            "slot": "3",
            "type": "t_uint256"
          },
          {
            "astId": 4051,
            "contract": "contracts/facets/ArchaeologistFacet.sol:ArchaeologistFacet",
            "label": "freeBond",
            "offset": 0,
            "slot": "4",
            "type": "t_uint256"
          },
          {
            "astId": 4053,
            "contract": "contracts/facets/ArchaeologistFacet.sol:ArchaeologistFacet",
            "label": "cursedBond",
            "offset": 0,
            "slot": "5",
            "type": "t_uint256"
          }
        ],
        "numberOfBytes": "192"
      },
      "t_struct(ArchaeologistStorage)4041_storage": {
        "encoding": "inplace",
        "label": "struct LibTypes.ArchaeologistStorage",
        "members": [
          {
            "astId": 4034,
            "contract": "contracts/facets/ArchaeologistFacet.sol:ArchaeologistFacet",
            "label": "diggingFee",
            "offset": 0,
            "slot": "0",
            "type": "t_uint256"
          },
          {
            "astId": 4036,
            "contract": "contracts/facets/ArchaeologistFacet.sol:ArchaeologistFacet",
            "label": "diggingFeesPaid",
            "offset": 0,
            "slot": "1",
            "type": "t_uint256"
          },
          {
            "astId": 4038,
            "contract": "contracts/facets/ArchaeologistFacet.sol:ArchaeologistFacet",
            "label": "unencryptedShardDoubleHash",
            "offset": 0,
            "slot": "2",
            "type": "t_bytes32"
          },
          {
            "astId": 4040,
            "contract": "contracts/facets/ArchaeologistFacet.sol:ArchaeologistFacet",
            "label": "unencryptedShard",
            "offset": 0,
            "slot": "3",
            "type": "t_bytes_storage"
          }
        ],
        "numberOfBytes": "128"
      },
      "t_struct(Sarcophagus)4093_storage": {
        "encoding": "inplace",
        "label": "struct LibTypes.Sarcophagus",
        "members": [
          {
            "astId": 4071,
            "contract": "contracts/facets/ArchaeologistFacet.sol:ArchaeologistFacet",
            "label": "name",
            "offset": 0,
            "slot": "0",
            "type": "t_string_storage"
          },
          {
            "astId": 4074,
            "contract": "contracts/facets/ArchaeologistFacet.sol:ArchaeologistFacet",
            "label": "state",
            "offset": 0,
            "slot": "1",
            "type": "t_enum(SarcophagusState)4003"
          },
          {
            "astId": 4076,
            "contract": "contracts/facets/ArchaeologistFacet.sol:ArchaeologistFacet",
            "label": "canBeTransferred",
            "offset": 1,
            "slot": "1",
            "type": "t_bool"
          },
          {
            "astId": 4078,
            "contract": "contracts/facets/ArchaeologistFacet.sol:ArchaeologistFacet",
            "label": "minShards",
            "offset": 2,
            "slot": "1",
            "type": "t_uint8"
          },
          {
            "astId": 4080,
            "contract": "contracts/facets/ArchaeologistFacet.sol:ArchaeologistFacet",
            "label": "resurrectionTime",
            "offset": 0,
            "slot": "2",
            "type": "t_uint256"
          },
          {
            "astId": 4082,
            "contract": "contracts/facets/ArchaeologistFacet.sol:ArchaeologistFacet",
            "label": "maximumRewrapInterval",
            "offset": 0,
            "slot": "3",
            "type": "t_uint256"
          },
          {
            "astId": 4085,
            "contract": "contracts/facets/ArchaeologistFacet.sol:ArchaeologistFacet",
            "label": "arweaveTxIds",
            "offset": 0,
            "slot": "4",
            "type": "t_array(t_string_storage)dyn_storage"
          },
          {
            "astId": 4087,
            "contract": "contracts/facets/ArchaeologistFacet.sol:ArchaeologistFacet",
            "label": "embalmer",
            "offset": 0,
            "slot": "5",
            "type": "t_address"
          },
          {
            "astId": 4089,
            "contract": "contracts/facets/ArchaeologistFacet.sol:ArchaeologistFacet",
            "label": "recipientAddress",
            "offset": 0,
            "slot": "6",
            "type": "t_address"
          },
          {
            "astId": 4092,
            "contract": "contracts/facets/ArchaeologistFacet.sol:ArchaeologistFacet",
            "label": "archaeologists",
            "offset": 0,
            "slot": "7",
            "type": "t_array(t_address)dyn_storage"
          }
        ],
        "numberOfBytes": "256"
      },
      "t_uint256": {
        "encoding": "inplace",
        "label": "uint256",
        "numberOfBytes": "32"
      },
      "t_uint8": {
        "encoding": "inplace",
        "label": "uint8",
        "numberOfBytes": "1"
      }
    }
  }
}