{
  "address": "0x610A947f3EA0Dc1213f9890Fc695Fa621e77f602",
  "abi": [
    {
      "inputs": [],
      "stateMutability": "nonpayable",
      "type": "constructor"
    },
    {
      "inputs": [
        {
          "internalType": "uint256",
          "name": "sarcoId",
          "type": "uint256"
        },
        {
          "internalType": "address",
          "name": "archaeologist",
          "type": "address"
        }
      ],
      "name": "CurseAlreadyExists",
      "type": "error"
    },
    {
      "anonymous": false,
      "inputs": [
        {
          "indexed": true,
          "internalType": "address",
          "name": "account",
          "type": "address"
        },
        {
          "indexed": true,
          "internalType": "address",
          "name": "operator",
          "type": "address"
        },
        {
          "indexed": false,
          "internalType": "bool",
          "name": "approved",
          "type": "bool"
        }
      ],
      "name": "ApprovalForAll",
      "type": "event"
    },
    {
      "anonymous": false,
      "inputs": [
        {
          "indexed": true,
          "internalType": "address",
          "name": "previousOwner",
          "type": "address"
        },
        {
          "indexed": true,
          "internalType": "address",
          "name": "newOwner",
          "type": "address"
        }
      ],
      "name": "OwnershipTransferred",
      "type": "event"
    },
    {
      "anonymous": false,
      "inputs": [
        {
          "indexed": true,
          "internalType": "address",
          "name": "operator",
          "type": "address"
        },
        {
          "indexed": true,
          "internalType": "address",
          "name": "from",
          "type": "address"
        },
        {
          "indexed": true,
          "internalType": "address",
          "name": "to",
          "type": "address"
        },
        {
          "indexed": false,
          "internalType": "uint256[]",
          "name": "ids",
          "type": "uint256[]"
        },
        {
          "indexed": false,
          "internalType": "uint256[]",
          "name": "values",
          "type": "uint256[]"
        }
      ],
      "name": "TransferBatch",
      "type": "event"
    },
    {
      "anonymous": false,
      "inputs": [
        {
          "indexed": true,
          "internalType": "address",
          "name": "operator",
          "type": "address"
        },
        {
          "indexed": true,
          "internalType": "address",
          "name": "from",
          "type": "address"
        },
        {
          "indexed": true,
          "internalType": "address",
          "name": "to",
          "type": "address"
        },
        {
          "indexed": false,
          "internalType": "uint256",
          "name": "id",
          "type": "uint256"
        },
        {
          "indexed": false,
          "internalType": "uint256",
          "name": "value",
          "type": "uint256"
        }
      ],
      "name": "TransferSingle",
      "type": "event"
    },
    {
      "anonymous": false,
      "inputs": [
        {
          "indexed": false,
          "internalType": "string",
          "name": "value",
          "type": "string"
        },
        {
          "indexed": true,
          "internalType": "uint256",
          "name": "id",
          "type": "uint256"
        }
      ],
      "name": "URI",
      "type": "event"
    },
    {
      "inputs": [
        {
          "internalType": "address",
          "name": "account",
          "type": "address"
        },
        {
          "internalType": "uint256",
          "name": "id",
          "type": "uint256"
        }
      ],
      "name": "balanceOf",
      "outputs": [
        {
          "internalType": "uint256",
          "name": "",
          "type": "uint256"
        }
      ],
      "stateMutability": "view",
      "type": "function"
    },
    {
      "inputs": [
        {
          "internalType": "address[]",
          "name": "accounts",
          "type": "address[]"
        },
        {
          "internalType": "uint256[]",
          "name": "ids",
          "type": "uint256[]"
        }
      ],
      "name": "balanceOfBatch",
      "outputs": [
        {
          "internalType": "uint256[]",
          "name": "",
          "type": "uint256[]"
        }
      ],
      "stateMutability": "view",
      "type": "function"
    },
    {
      "inputs": [],
      "name": "contractURI",
      "outputs": [
        {
          "internalType": "string",
          "name": "",
          "type": "string"
        }
      ],
      "stateMutability": "view",
      "type": "function"
    },
    {
      "inputs": [],
      "name": "createSVG",
      "outputs": [
        {
          "internalType": "string",
          "name": "",
          "type": "string"
        }
      ],
      "stateMutability": "pure",
      "type": "function"
    },
    {
      "inputs": [
        {
          "internalType": "address",
          "name": "account",
          "type": "address"
        },
        {
          "internalType": "address",
          "name": "operator",
          "type": "address"
        }
      ],
      "name": "isApprovedForAll",
      "outputs": [
        {
          "internalType": "bool",
          "name": "",
          "type": "bool"
        }
      ],
      "stateMutability": "view",
      "type": "function"
    },
    {
      "inputs": [
        {
          "internalType": "address",
          "name": "_to",
          "type": "address"
        },
        {
          "internalType": "uint256",
          "name": "_sarcoId",
          "type": "uint256"
        },
        {
          "internalType": "string",
          "name": "_name",
          "type": "string"
        },
        {
          "internalType": "string",
          "name": "_description",
          "type": "string"
        },
        {
          "internalType": "string",
          "name": "_imageURI",
          "type": "string"
        },
        {
          "internalType": "string",
          "name": "_diggingFee",
          "type": "string"
        },
        {
          "internalType": "string",
          "name": "_bounty",
          "type": "string"
        }
      ],
      "name": "mint",
      "outputs": [],
      "stateMutability": "nonpayable",
      "type": "function"
    },
    {
      "inputs": [],
      "name": "owner",
      "outputs": [
        {
          "internalType": "address",
          "name": "",
          "type": "address"
        }
      ],
      "stateMutability": "view",
      "type": "function"
    },
    {
      "inputs": [],
      "name": "renounceOwnership",
      "outputs": [],
      "stateMutability": "nonpayable",
      "type": "function"
    },
    {
      "inputs": [
        {
          "internalType": "address",
          "name": "from",
          "type": "address"
        },
        {
          "internalType": "address",
          "name": "to",
          "type": "address"
        },
        {
          "internalType": "uint256[]",
          "name": "ids",
          "type": "uint256[]"
        },
        {
          "internalType": "uint256[]",
          "name": "amounts",
          "type": "uint256[]"
        },
        {
          "internalType": "bytes",
          "name": "data",
          "type": "bytes"
        }
      ],
      "name": "safeBatchTransferFrom",
      "outputs": [],
      "stateMutability": "nonpayable",
      "type": "function"
    },
    {
      "inputs": [
        {
          "internalType": "address",
          "name": "from",
          "type": "address"
        },
        {
          "internalType": "address",
          "name": "to",
          "type": "address"
        },
        {
          "internalType": "uint256",
          "name": "id",
          "type": "uint256"
        },
        {
          "internalType": "uint256",
          "name": "amount",
          "type": "uint256"
        },
        {
          "internalType": "bytes",
          "name": "data",
          "type": "bytes"
        }
      ],
      "name": "safeTransferFrom",
      "outputs": [],
      "stateMutability": "nonpayable",
      "type": "function"
    },
    {
      "inputs": [
        {
          "internalType": "address",
          "name": "operator",
          "type": "address"
        },
        {
          "internalType": "bool",
          "name": "approved",
          "type": "bool"
        }
      ],
      "name": "setApprovalForAll",
      "outputs": [],
      "stateMutability": "nonpayable",
      "type": "function"
    },
    {
      "inputs": [
        {
          "internalType": "bytes4",
          "name": "interfaceId",
          "type": "bytes4"
        }
      ],
      "name": "supportsInterface",
      "outputs": [
        {
          "internalType": "bool",
          "name": "",
          "type": "bool"
        }
      ],
      "stateMutability": "view",
      "type": "function"
    },
    {
      "inputs": [
        {
          "internalType": "address",
          "name": "newOwner",
          "type": "address"
        }
      ],
      "name": "transferOwnership",
      "outputs": [],
      "stateMutability": "nonpayable",
      "type": "function"
    },
    {
      "inputs": [
        {
          "internalType": "uint256",
          "name": "_tokenId",
          "type": "uint256"
        }
      ],
      "name": "uri",
      "outputs": [
        {
          "internalType": "string",
          "name": "",
          "type": "string"
        }
      ],
      "stateMutability": "view",
      "type": "function"
    }
  ],
  "transactionHash": "0x88f3a0ea7a446e739c2633afb8972bfdcec8a24d076c86fd747f3fe2f975c8c4",
  "args": [],
  "numDeployments": 4,
  "solcInputHash": "e83838e9c905c58ee8fd57095f9d2a9b",
  "bytecode": "0x60806040523480156200001157600080fd5b506040518060200160405280600081525062000033816200026360201b60201c565b5062000054620000486200027f60201b60201c565b6200028760201b60201c565b620000a57f6e616d65000000000000000000000000000000000000000000000000000000006040516020016200008a906200146c565b6040516020818303038152906040526200034d60201b60201c565b620000f67f6465736372697074696f6e000000000000000000000000000000000000000000604051602001620000db9062001504565b6040516020818303038152906040526200034d60201b60201c565b620001587f696d6167650000000000000000000000000000000000000000000000000000006200012b620003df60201b60201c565b6040516020016200013d9190620015b9565b6040516020818303038152906040526200034d60201b60201c565b6200025d3360006040518060400160405280600a81526020017f466972737420546573740000000000000000000000000000000000000000000081525060405180606001604052806024815260200162006205602491396040518060400160405280600781526020017f736f6d65555249000000000000000000000000000000000000000000000000008152506040518060400160405280600181526020017f30000000000000000000000000000000000000000000000000000000000000008152506040518060400160405280600181526020017f3000000000000000000000000000000000000000000000000000000000000000815250620003f660201b60201c565b62001dd7565b80600290805190602001906200027b929190620011f5565b5050565b600033905090565b6000600860009054906101000a900473ffffffffffffffffffffffffffffffffffffffff16905081600860006101000a81548173ffffffffffffffffffffffffffffffffffffffff021916908373ffffffffffffffffffffffffffffffffffffffff1602179055508173ffffffffffffffffffffffffffffffffffffffff168173ffffffffffffffffffffffffffffffffffffffff167f8be0079c531659141344cd1fd0a4f28419497f9722a3daafe3b4186f6b6457e060405160405180910390a35050565b6000600167ffffffffffffffff8111156200036d576200036c620015dd565b5b604051908082528060200260200182016040528015620003a257816020015b60608152602001906001900390816200038c5790505b5090508181600081518110620003bd57620003bc6200160c565b5b6020026020010181905250620003da838262000a4e60201b60201c565b505050565b606060405180602001604052806000815250905090565b620004066200027f60201b60201c565b73ffffffffffffffffffffffffffffffffffffffff166200042c62000ad860201b60201c565b73ffffffffffffffffffffffffffffffffffffffff161462000485576040517f08c379a00000000000000000000000000000000000000000000000000000000081526004016200047c906200168b565b60405180910390fd5b600015156009600088815260200190815260200160002060008973ffffffffffffffffffffffffffffffffffffffff1673ffffffffffffffffffffffffffffffffffffffff16815260200190815260200160002060009054906101000a900460ff16151514620005305785876040517f352d6bca000000000000000000000000000000000000000000000000000000008152600401620005279291906200170d565b60405180910390fd5b6200058586887f6e616d6500000000000000000000000000000000000000000000000000000000886040516020016200056a9190620015b9565b60405160208183030381529060405262000b0260201b60201c565b620005da86887f6465736372697074696f6e00000000000000000000000000000000000000000087604051602001620005bf9190620015b9565b60405160208183030381529060405262000b0260201b60201c565b6200062f86887f696d61676500000000000000000000000000000000000000000000000000000086604051602001620006149190620015b9565b60405160208183030381529060405262000b0260201b60201c565b6000600267ffffffffffffffff8111156200064f576200064e620015dd565b5b6040519080825280602002602001820160405280156200068457816020015b60608152602001906001900390816200066e5790505b5090506000600267ffffffffffffffff811115620006a757620006a6620015dd565b5b604051908082528060200260200182016040528015620006dc57816020015b6060815260200190600190039081620006c65790505b5090506000600267ffffffffffffffff811115620006ff57620006fe620015dd565b5b6040519080825280602002602001820160405280156200073457816020015b60608152602001906001900390816200071e5790505b50905060405160200162000748906200178a565b604051602081830303815290604052836000815181106200076e576200076d6200160c565b5b60200260200101819052506040516020016200078a90620017fc565b60405160208183030381529060405283600181518110620007b057620007af6200160c565b5b6020026020010181905250604051602001620007cc906200186e565b60405160208183030381529060405282600081518110620007f257620007f16200160c565b5b60200260200101819052506040516020016200080e906200186e565b604051602081830303815290604052826001815181106200083457620008336200160c565b5b602002602001018190525084604051602001620008529190620015b9565b604051602081830303815290604052816000815181106200087857620008776200160c565b5b602002602001018190525083604051602001620008969190620015b9565b60405160208183030381529060405281600181518110620008bc57620008bb6200160c565b5b6020026020010181905250620008fb898b7f74726169745f74797065000000000000000000000000000000000000000000008662000b9860201b60201c565b6200092f898b7f74726169745f646973706c6179000000000000000000000000000000000000008562000b9860201b60201c565b62000963898b7f74726169745f76616c75650000000000000000000000000000000000000000008462000b9860201b60201c565b6001600960008b815260200190815260200160002060008c73ffffffffffffffffffffffffffffffffffffffff1673ffffffffffffffffffffffffffffffffffffffff16815260200190815260200160002060006101000a81548160ff02191690831515021790555089600760008b815260200190815260200160002060006101000a81548173ffffffffffffffffffffffffffffffffffffffff021916908373ffffffffffffffffffffffffffffffffffffffff16021790555062000a428a8a60016040518060200160405280600081525062000d6160201b60201c565b50505050505050505050565b600060036002016000848152602001908152602001600020540362000a8b57600160036000015462000a819190620018bf565b6003600001819055505b8060036001016000848152602001908152602001600020908051906020019062000ab792919062001286565b50805160036002016000848152602001908152602001600020819055505050565b6000600860009054906101000a900473ffffffffffffffffffffffffffffffffffffffff16905090565b6000600167ffffffffffffffff81111562000b225762000b21620015dd565b5b60405190808252806020026020018201604052801562000b5757816020015b606081526020019060019003908162000b415790505b509050818160008151811062000b725762000b716200160c565b5b602002602001018190525062000b918585858462000b9860201b60201c565b5050505050565b60006006600086815260200190815260200160002060008573ffffffffffffffffffffffffffffffffffffffff1673ffffffffffffffffffffffffffffffffffffffff16815260200190815260200160002090506000816002016000858152602001908152602001600020540362000c75576001816000015462000c1d9190620018bf565b6006600087815260200190815260200160002060008673ffffffffffffffffffffffffffffffffffffffff1673ffffffffffffffffffffffffffffffffffffffff168152602001908152602001600020600001819055505b816006600087815260200190815260200160002060008673ffffffffffffffffffffffffffffffffffffffff1673ffffffffffffffffffffffffffffffffffffffff1681526020019081526020016000206001016000858152602001908152602001600020908051906020019062000cef92919062001286565b5081516006600087815260200190815260200160002060008673ffffffffffffffffffffffffffffffffffffffff1673ffffffffffffffffffffffffffffffffffffffff1681526020019081526020016000206002016000858152602001908152602001600020819055505050505050565b600073ffffffffffffffffffffffffffffffffffffffff168473ffffffffffffffffffffffffffffffffffffffff160362000dd3576040517f08c379a000000000000000000000000000000000000000000000000000000000815260040162000dca9062001992565b60405180910390fd5b600062000de56200027f60201b60201c565b9050600062000dfa8562000f4860201b60201c565b9050600062000e0f8562000f4860201b60201c565b905062000e288360008985858962000fc960201b60201c565b8460008088815260200190815260200160002060008973ffffffffffffffffffffffffffffffffffffffff1673ffffffffffffffffffffffffffffffffffffffff168152602001908152602001600020600082825462000e899190620018bf565b925050819055508673ffffffffffffffffffffffffffffffffffffffff16600073ffffffffffffffffffffffffffffffffffffffff168473ffffffffffffffffffffffffffffffffffffffff167fc3d58168c5ae7397731d063d5bbf3d657854427343f4c083240f7aacaa2d0f62898960405162000f09929190620019b4565b60405180910390a462000f288360008985858962000fd160201b60201c565b62000f3f8360008989898962000fd960201b60201c565b50505050505050565b60606000600167ffffffffffffffff81111562000f6a5762000f69620015dd565b5b60405190808252806020026020018201604052801562000f995781602001602082028036833780820191505090505b509050828160008151811062000fb45762000fb36200160c565b5b60200260200101818152505080915050919050565b505050505050565b505050505050565b620010058473ffffffffffffffffffffffffffffffffffffffff16620011d260201b62000f481760201c565b15620011ca578373ffffffffffffffffffffffffffffffffffffffff1663f23a6e6187878686866040518663ffffffff1660e01b81526004016200104e95949392919062001a3e565b6020604051808303816000875af19250505080156200108d57506040513d601f19601f820116820180604052508101906200108a919062001b0e565b60015b6200113e576200109c62001b4d565b806308c379a003620010ff5750620010b362001ba8565b80620010c0575062001101565b806040517f08c379a0000000000000000000000000000000000000000000000000000000008152600401620010f69190620015b9565b60405180910390fd5b505b6040517f08c379a0000000000000000000000000000000000000000000000000000000008152600401620011359062001cb9565b60405180910390fd5b63f23a6e6160e01b7bffffffffffffffffffffffffffffffffffffffffffffffffffffffff1916817bffffffffffffffffffffffffffffffffffffffffffffffffffffffff191614620011c8576040517f08c379a0000000000000000000000000000000000000000000000000000000008152600401620011bf9062001d51565b60405180910390fd5b505b505050505050565b6000808273ffffffffffffffffffffffffffffffffffffffff163b119050919050565b828054620012039062001da2565b90600052602060002090601f01602090048101928262001227576000855562001273565b82601f106200124257805160ff191683800117855562001273565b8280016001018555821562001273579182015b828111156200127257825182559160200191906001019062001255565b5b509050620012829190620012ed565b5090565b828054828255906000526020600020908101928215620012da579160200282015b82811115620012d9578251829080519060200190620012c89291906200130c565b5091602001919060010190620012a7565b5b509050620012e991906200139d565b5090565b5b8082111562001308576000816000905550600101620012ee565b5090565b8280546200131a9062001da2565b90600052602060002090601f0160209004810192826200133e57600085556200138a565b82601f106200135957805160ff19168380011785556200138a565b828001600101855582156200138a579182015b82811115620013895782518255916020019190600101906200136c565b5b509050620013999190620012ed565b5090565b5b80821115620013c15760008181620013b79190620013c5565b506001016200139e565b5090565b508054620013d39062001da2565b6000825580601f10620013e7575062001408565b601f016020900490600052602060002090810190620014079190620012ed565b5b50565b600082825260208201905092915050565b7f455243313135354f6e436861696e4d65746164617461204578616d706c650000600082015250565b600062001454601e836200140b565b915062001461826200141c565b602082019050919050565b60006020820190508181036000830152620014878162001445565b9050919050565b7f53696d706c65206578616d706c65206f6620455243313135354f6e436861696e60008201527f4d657461646174612077697468206f6e20636861696e20737667000000000000602082015250565b6000620014ec603a836200140b565b9150620014f9826200148e565b604082019050919050565b600060208201905081810360008301526200151f81620014dd565b9050919050565b600081519050919050565b60005b838110156200155157808201518184015260208101905062001534565b8381111562001561576000848401525b50505050565b6000601f19601f8301169050919050565b6000620015858262001526565b6200159181856200140b565b9350620015a381856020860162001531565b620015ae8162001567565b840191505092915050565b60006020820190508181036000830152620015d5818462001578565b905092915050565b7f4e487b7100000000000000000000000000000000000000000000000000000000600052604160045260246000fd5b7f4e487b7100000000000000000000000000000000000000000000000000000000600052603260045260246000fd5b7f4f776e61626c653a2063616c6c6572206973206e6f7420746865206f776e6572600082015250565b6000620016736020836200140b565b915062001680826200163b565b602082019050919050565b60006020820190508181036000830152620016a68162001664565b9050919050565b6000819050919050565b620016c281620016ad565b82525050565b600073ffffffffffffffffffffffffffffffffffffffff82169050919050565b6000620016f582620016c8565b9050919050565b6200170781620016e8565b82525050565b6000604082019050620017246000830185620016b7565b620017336020830184620016fc565b9392505050565b7f44696767696e6720466565000000000000000000000000000000000000000000600082015250565b600062001772600b836200140b565b91506200177f826200173a565b602082019050919050565b60006020820190508181036000830152620017a58162001763565b9050919050565b7f426f756e74790000000000000000000000000000000000000000000000000000600082015250565b6000620017e46006836200140b565b9150620017f182620017ac565b602082019050919050565b600060208201905081810360008301526200181781620017d5565b9050919050565b7f737472696e670000000000000000000000000000000000000000000000000000600082015250565b6000620018566006836200140b565b915062001863826200181e565b602082019050919050565b60006020820190508181036000830152620018898162001847565b9050919050565b7f4e487b7100000000000000000000000000000000000000000000000000000000600052601160045260246000fd5b6000620018cc82620016ad565b9150620018d983620016ad565b9250827fffffffffffffffffffffffffffffffffffffffffffffffffffffffffffffffff0382111562001911576200191062001890565b5b828201905092915050565b7f455243313135353a206d696e7420746f20746865207a65726f2061646472657360008201527f7300000000000000000000000000000000000000000000000000000000000000602082015250565b60006200197a6021836200140b565b915062001987826200191c565b604082019050919050565b60006020820190508181036000830152620019ad816200196b565b9050919050565b6000604082019050620019cb6000830185620016b7565b620019da6020830184620016b7565b9392505050565b600081519050919050565b600082825260208201905092915050565b600062001a0a82620019e1565b62001a168185620019ec565b935062001a2881856020860162001531565b62001a338162001567565b840191505092915050565b600060a08201905062001a556000830188620016fc565b62001a646020830187620016fc565b62001a736040830186620016b7565b62001a826060830185620016b7565b818103608083015262001a968184620019fd565b90509695505050505050565b6000604051905090565b600080fd5b60007fffffffff0000000000000000000000000000000000000000000000000000000082169050919050565b62001ae88162001ab1565b811462001af457600080fd5b50565b60008151905062001b088162001add565b92915050565b60006020828403121562001b275762001b2662001aac565b5b600062001b378482850162001af7565b91505092915050565b60008160e01c9050919050565b600060033d111562001b6f5760046000803e62001b6c60005162001b40565b90505b90565b62001b7d8262001567565b810181811067ffffffffffffffff8211171562001b9f5762001b9e620015dd565b5b80604052505050565b600060443d1062001c405762001bbd62001aa2565b60043d036004823e80513d602482011167ffffffffffffffff8211171562001be757505062001c40565b808201805167ffffffffffffffff81111562001c07575050505062001c40565b80602083010160043d03850181111562001c2657505050505062001c40565b62001c378260200185018662001b72565b82955050505050505b90565b7f455243313135353a207472616e7366657220746f206e6f6e204552433131353560008201527f526563656976657220696d706c656d656e746572000000000000000000000000602082015250565b600062001ca16034836200140b565b915062001cae8262001c43565b604082019050919050565b6000602082019050818103600083015262001cd48162001c92565b9050919050565b7f455243313135353a204552433131353552656365697665722072656a6563746560008201527f6420746f6b656e73000000000000000000000000000000000000000000000000602082015250565b600062001d396028836200140b565b915062001d468262001cdb565b604082019050919050565b6000602082019050818103600083015262001d6c8162001d2a565b9050919050565b7f4e487b7100000000000000000000000000000000000000000000000000000000600052602260045260246000fd5b6000600282049050600182168062001dbb57607f821691505b60208210810362001dd15762001dd062001d73565b5b50919050565b61441e8062001de76000396000f3fe608060405234801561001057600080fd5b50600436106100e95760003560e01c8063a22cb4651161008c578063e8a3d48511610066578063e8a3d48514610248578063e985e9c514610266578063f242432a14610296578063f2fde38b146102b2576100e9565b8063a22cb465146101f2578063a5166d151461020e578063daab4c861461022a576100e9565b80632eb2c2d6116100c85780632eb2c2d61461017e5780634e1273f41461019a578063715018a6146101ca5780638da5cb5b146101d4576100e9565b8062fdd58e146100ee57806301ffc9a71461011e5780630e89341c1461014e575b600080fd5b61010860048036038101906101039190612645565b6102ce565b6040516101159190612694565b60405180910390f35b61013860048036038101906101339190612707565b610396565b604051610145919061274f565b60405180910390f35b6101686004803603810190610163919061276a565b610478565b6040516101759190612830565b60405180910390f35b61019860048036038101906101939190612a4f565b61049d565b005b6101b460048036038101906101af9190612be1565b61053e565b6040516101c19190612d17565b60405180910390f35b6101d2610657565b005b6101dc6106df565b6040516101e99190612d48565b60405180910390f35b61020c60048036038101906102079190612d8f565b610709565b005b61022860048036038101906102239190612e70565b61071f565b005b610232610cf6565b60405161023f9190612830565b60405180910390f35b610250610d0d565b60405161025d9190612830565b60405180910390f35b610280600480360381019061027b9190612f9e565b610d1c565b60405161028d919061274f565b60405180910390f35b6102b060048036038101906102ab9190612fde565b610db0565b005b6102cc60048036038101906102c79190613075565b610e51565b005b60008073ffffffffffffffffffffffffffffffffffffffff168373ffffffffffffffffffffffffffffffffffffffff160361033e576040517f08c379a000000000000000000000000000000000000000000000000000000000815260040161033590613114565b60405180910390fd5b60008083815260200190815260200160002060008473ffffffffffffffffffffffffffffffffffffffff1673ffffffffffffffffffffffffffffffffffffffff16815260200190815260200160002054905092915050565b60007fd9b67a26000000000000000000000000000000000000000000000000000000007bffffffffffffffffffffffffffffffffffffffffffffffffffffffff1916827bffffffffffffffffffffffffffffffffffffffffffffffffffffffff1916148061046157507f0e89341c000000000000000000000000000000000000000000000000000000007bffffffffffffffffffffffffffffffffffffffffffffffffffffffff1916827bffffffffffffffffffffffffffffffffffffffffffffffffffffffff1916145b80610471575061047082610f6b565b5b9050919050565b60606040518061022001604052806101e581526020016142046101e591399050919050565b6104a5610fd5565b73ffffffffffffffffffffffffffffffffffffffff168573ffffffffffffffffffffffffffffffffffffffff1614806104eb57506104ea856104e5610fd5565b610d1c565b5b61052a576040517f08c379a0000000000000000000000000000000000000000000000000000000008152600401610521906131a6565b60405180910390fd5b6105378585858585610fdd565b5050505050565b60608151835114610584576040517f08c379a000000000000000000000000000000000000000000000000000000000815260040161057b90613238565b60405180910390fd5b6000835167ffffffffffffffff8111156105a1576105a0612857565b5b6040519080825280602002602001820160405280156105cf5781602001602082028036833780820191505090505b50905060005b845181101561064c5761061c8582815181106105f4576105f3613258565b5b602002602001015185838151811061060f5761060e613258565b5b60200260200101516102ce565b82828151811061062f5761062e613258565b5b60200260200101818152505080610645906132b6565b90506105d5565b508091505092915050565b61065f610fd5565b73ffffffffffffffffffffffffffffffffffffffff1661067d6106df565b73ffffffffffffffffffffffffffffffffffffffff16146106d3576040517f08c379a00000000000000000000000000000000000000000000000000000000081526004016106ca9061334a565b60405180910390fd5b6106dd60006112fe565b565b6000600860009054906101000a900473ffffffffffffffffffffffffffffffffffffffff16905090565b61071b610714610fd5565b83836113c4565b5050565b610727610fd5565b73ffffffffffffffffffffffffffffffffffffffff166107456106df565b73ffffffffffffffffffffffffffffffffffffffff161461079b576040517f08c379a00000000000000000000000000000000000000000000000000000000081526004016107929061334a565b60405180910390fd5b600015156009600088815260200190815260200160002060008973ffffffffffffffffffffffffffffffffffffffff1673ffffffffffffffffffffffffffffffffffffffff16815260200190815260200160002060009054906101000a900460ff161515146108435785876040517f352d6bca00000000000000000000000000000000000000000000000000000000815260040161083a92919061336a565b60405180910390fd5b61088e86887f6e616d65000000000000000000000000000000000000000000000000000000008860405160200161087a9190612830565b604051602081830303815290604052611530565b6108d986887f6465736372697074696f6e000000000000000000000000000000000000000000876040516020016108c59190612830565b604051602081830303815290604052611530565b61092486887f696d616765000000000000000000000000000000000000000000000000000000866040516020016109109190612830565b604051602081830303815290604052611530565b6000600267ffffffffffffffff81111561094157610940612857565b5b60405190808252806020026020018201604052801561097457816020015b606081526020019060019003908161095f5790505b5090506000600267ffffffffffffffff81111561099457610993612857565b5b6040519080825280602002602001820160405280156109c757816020015b60608152602001906001900390816109b25790505b5090506000600267ffffffffffffffff8111156109e7576109e6612857565b5b604051908082528060200260200182016040528015610a1a57816020015b6060815260200190600190039081610a055790505b509050604051602001610a2c906133df565b60405160208183030381529060405283600081518110610a4f57610a4e613258565b5b6020026020010181905250604051602001610a699061344b565b60405160208183030381529060405283600181518110610a8c57610a8b613258565b5b6020026020010181905250604051602001610aa6906134b7565b60405160208183030381529060405282600081518110610ac957610ac8613258565b5b6020026020010181905250604051602001610ae3906134b7565b60405160208183030381529060405282600181518110610b0657610b05613258565b5b602002602001018190525084604051602001610b229190612830565b60405160208183030381529060405281600081518110610b4557610b44613258565b5b602002602001018190525083604051602001610b619190612830565b60405160208183030381529060405281600181518110610b8457610b83613258565b5b6020026020010181905250610bbb898b7f74726169745f7479706500000000000000000000000000000000000000000000866115b6565b610be7898b7f74726169745f646973706c617900000000000000000000000000000000000000856115b6565b610c13898b7f74726169745f76616c7565000000000000000000000000000000000000000000846115b6565b6001600960008b815260200190815260200160002060008c73ffffffffffffffffffffffffffffffffffffffff1673ffffffffffffffffffffffffffffffffffffffff16815260200190815260200160002060006101000a81548160ff02191690831515021790555089600760008b815260200190815260200160002060006101000a81548173ffffffffffffffffffffffffffffffffffffffff021916908373ffffffffffffffffffffffffffffffffffffffff160217905550610cea8a8a60016040518060200160405280600081525061177a565b50505050505050505050565b606060405180602001604052806000815250905090565b6060610d1761192a565b905090565b6000600160008473ffffffffffffffffffffffffffffffffffffffff1673ffffffffffffffffffffffffffffffffffffffff16815260200190815260200160002060008373ffffffffffffffffffffffffffffffffffffffff1673ffffffffffffffffffffffffffffffffffffffff16815260200190815260200160002060009054906101000a900460ff16905092915050565b610db8610fd5565b73ffffffffffffffffffffffffffffffffffffffff168573ffffffffffffffffffffffffffffffffffffffff161480610dfe5750610dfd85610df8610fd5565b610d1c565b5b610e3d576040517f08c379a0000000000000000000000000000000000000000000000000000000008152600401610e3490613549565b60405180910390fd5b610e4a8585858585611abb565b5050505050565b610e59610fd5565b73ffffffffffffffffffffffffffffffffffffffff16610e776106df565b73ffffffffffffffffffffffffffffffffffffffff1614610ecd576040517f08c379a0000000000000000000000000000000000000000000000000000000008152600401610ec49061334a565b60405180910390fd5b600073ffffffffffffffffffffffffffffffffffffffff168173ffffffffffffffffffffffffffffffffffffffff1603610f3c576040517f08c379a0000000000000000000000000000000000000000000000000000000008152600401610f33906135db565b60405180910390fd5b610f45816112fe565b50565b6000808273ffffffffffffffffffffffffffffffffffffffff163b119050919050565b60007f01ffc9a7000000000000000000000000000000000000000000000000000000007bffffffffffffffffffffffffffffffffffffffffffffffffffffffff1916827bffffffffffffffffffffffffffffffffffffffffffffffffffffffff1916149050919050565b600033905090565b8151835114611021576040517f08c379a00000000000000000000000000000000000000000000000000000000081526004016110189061366d565b60405180910390fd5b600073ffffffffffffffffffffffffffffffffffffffff168473ffffffffffffffffffffffffffffffffffffffff1603611090576040517f08c379a0000000000000000000000000000000000000000000000000000000008152600401611087906136ff565b60405180910390fd5b600061109a610fd5565b90506110aa818787878787611d56565b60005b845181101561125b5760008582815181106110cb576110ca613258565b5b6020026020010151905060008583815181106110ea576110e9613258565b5b60200260200101519050600080600084815260200190815260200160002060008b73ffffffffffffffffffffffffffffffffffffffff1673ffffffffffffffffffffffffffffffffffffffff1681526020019081526020016000205490508181101561118b576040517f08c379a000000000000000000000000000000000000000000000000000000000815260040161118290613791565b60405180910390fd5b81810360008085815260200190815260200160002060008c73ffffffffffffffffffffffffffffffffffffffff1673ffffffffffffffffffffffffffffffffffffffff168152602001908152602001600020819055508160008085815260200190815260200160002060008b73ffffffffffffffffffffffffffffffffffffffff1673ffffffffffffffffffffffffffffffffffffffff168152602001908152602001600020600082825461124091906137b1565b9250508190555050505080611254906132b6565b90506110ad565b508473ffffffffffffffffffffffffffffffffffffffff168673ffffffffffffffffffffffffffffffffffffffff168273ffffffffffffffffffffffffffffffffffffffff167f4a39dc06d4c0dbc64b70af90fd698a233a518aa5d07e595d983b8c0526c8f7fb87876040516112d2929190613807565b60405180910390a46112e8818787878787611d5e565b6112f6818787878787611d66565b505050505050565b6000600860009054906101000a900473ffffffffffffffffffffffffffffffffffffffff16905081600860006101000a81548173ffffffffffffffffffffffffffffffffffffffff021916908373ffffffffffffffffffffffffffffffffffffffff1602179055508173ffffffffffffffffffffffffffffffffffffffff168173ffffffffffffffffffffffffffffffffffffffff167f8be0079c531659141344cd1fd0a4f28419497f9722a3daafe3b4186f6b6457e060405160405180910390a35050565b8173ffffffffffffffffffffffffffffffffffffffff168373ffffffffffffffffffffffffffffffffffffffff1603611432576040517f08c379a0000000000000000000000000000000000000000000000000000000008152600401611429906138b0565b60405180910390fd5b80600160008573ffffffffffffffffffffffffffffffffffffffff1673ffffffffffffffffffffffffffffffffffffffff16815260200190815260200160002060008473ffffffffffffffffffffffffffffffffffffffff1673ffffffffffffffffffffffffffffffffffffffff16815260200190815260200160002060006101000a81548160ff0219169083151502179055508173ffffffffffffffffffffffffffffffffffffffff168373ffffffffffffffffffffffffffffffffffffffff167f17307eab39ab6107e8899845ad3d59bd9653f200f220920489ca2b5937696c3183604051611523919061274f565b60405180910390a3505050565b6000600167ffffffffffffffff81111561154d5761154c612857565b5b60405190808252806020026020018201604052801561158057816020015b606081526020019060019003908161156b5790505b509050818160008151811061159857611597613258565b5b60200260200101819052506115af858585846115b6565b5050505050565b60006006600086815260200190815260200160002060008573ffffffffffffffffffffffffffffffffffffffff1673ffffffffffffffffffffffffffffffffffffffff168152602001908152602001600020905060008160020160008581526020019081526020016000205403611690576001816000015461163891906137b1565b6006600087815260200190815260200160002060008673ffffffffffffffffffffffffffffffffffffffff1673ffffffffffffffffffffffffffffffffffffffff168152602001908152602001600020600001819055505b816006600087815260200190815260200160002060008673ffffffffffffffffffffffffffffffffffffffff1673ffffffffffffffffffffffffffffffffffffffff16815260200190815260200160002060010160008581526020019081526020016000209080519060200190611708929190612436565b5081516006600087815260200190815260200160002060008673ffffffffffffffffffffffffffffffffffffffff1673ffffffffffffffffffffffffffffffffffffffff1681526020019081526020016000206002016000858152602001908152602001600020819055505050505050565b600073ffffffffffffffffffffffffffffffffffffffff168473ffffffffffffffffffffffffffffffffffffffff16036117e9576040517f08c379a00000000000000000000000000000000000000000000000000000000081526004016117e090613942565b60405180910390fd5b60006117f3610fd5565b9050600061180085611f3d565b9050600061180d85611f3d565b905061181e83600089858589611d56565b8460008088815260200190815260200160002060008973ffffffffffffffffffffffffffffffffffffffff1673ffffffffffffffffffffffffffffffffffffffff168152602001908152602001600020600082825461187d91906137b1565b925050819055508673ffffffffffffffffffffffffffffffffffffffff16600073ffffffffffffffffffffffffffffffffffffffff168473ffffffffffffffffffffffffffffffffffffffff167fc3d58168c5ae7397731d063d5bbf3d657854427343f4c083240f7aacaa2d0f6289896040516118fb929190613962565b60405180910390a461191283600089858589611d5e565b61192183600089898989611fb7565b50505050505050565b606060006119577f6e616d650000000000000000000000000000000000000000000000000000000061218e565b905060006119847f6465736372697074696f6e00000000000000000000000000000000000000000061218e565b905060006119b17f696d61676500000000000000000000000000000000000000000000000000000061218e565b9050611a94838060200190518101906119ca91906139fb565b60008451116119e85760405180602001604052806000815250611a1c565b838060200190518101906119fc91906139fb565b604051602001611a0c9190613b18565b6040516020818303038152906040525b6000845111611a3a5760405180602001604052806000815250611a6e565b83806020019051810190611a4e91906139fb565b604051602001611a5e9190613b91565b6040516020818303038152906040525b604051602001611a8093929190613ca2565b6040516020818303038152906040526121e4565b604051602001611aa49190613d4b565b604051602081830303815290604052935050505090565b600073ffffffffffffffffffffffffffffffffffffffff168473ffffffffffffffffffffffffffffffffffffffff1603611b2a576040517f08c379a0000000000000000000000000000000000000000000000000000000008152600401611b21906136ff565b60405180910390fd5b6000611b34610fd5565b90506000611b4185611f3d565b90506000611b4e85611f3d565b9050611b5e838989858589611d56565b600080600088815260200190815260200160002060008a73ffffffffffffffffffffffffffffffffffffffff1673ffffffffffffffffffffffffffffffffffffffff16815260200190815260200160002054905085811015611bf5576040517f08c379a0000000000000000000000000000000000000000000000000000000008152600401611bec90613791565b60405180910390fd5b85810360008089815260200190815260200160002060008b73ffffffffffffffffffffffffffffffffffffffff1673ffffffffffffffffffffffffffffffffffffffff168152602001908152602001600020819055508560008089815260200190815260200160002060008a73ffffffffffffffffffffffffffffffffffffffff1673ffffffffffffffffffffffffffffffffffffffff1681526020019081526020016000206000828254611caa91906137b1565b925050819055508773ffffffffffffffffffffffffffffffffffffffff168973ffffffffffffffffffffffffffffffffffffffff168573ffffffffffffffffffffffffffffffffffffffff167fc3d58168c5ae7397731d063d5bbf3d657854427343f4c083240f7aacaa2d0f628a8a604051611d27929190613962565b60405180910390a4611d3d848a8a86868a611d5e565b611d4b848a8a8a8a8a611fb7565b505050505050505050565b505050505050565b505050505050565b611d858473ffffffffffffffffffffffffffffffffffffffff16610f48565b15611f35578373ffffffffffffffffffffffffffffffffffffffff1663bc197c8187878686866040518663ffffffff1660e01b8152600401611dcb959493929190613dc2565b6020604051808303816000875af1925050508015611e0757506040513d601f19601f82011682018060405250810190611e049190613e3f565b60015b611eac57611e13613e79565b806308c379a003611e6f5750611e27613e9b565b80611e325750611e71565b806040517f08c379a0000000000000000000000000000000000000000000000000000000008152600401611e669190612830565b60405180910390fd5b505b6040517f08c379a0000000000000000000000000000000000000000000000000000000008152600401611ea390613f9d565b60405180910390fd5b63bc197c8160e01b7bffffffffffffffffffffffffffffffffffffffffffffffffffffffff1916817bffffffffffffffffffffffffffffffffffffffffffffffffffffffff191614611f33576040517f08c379a0000000000000000000000000000000000000000000000000000000008152600401611f2a9061402f565b60405180910390fd5b505b505050505050565b60606000600167ffffffffffffffff811115611f5c57611f5b612857565b5b604051908082528060200260200182016040528015611f8a5781602001602082028036833780820191505090505b5090508281600081518110611fa257611fa1613258565b5b60200260200101818152505080915050919050565b611fd68473ffffffffffffffffffffffffffffffffffffffff16610f48565b15612186578373ffffffffffffffffffffffffffffffffffffffff1663f23a6e6187878686866040518663ffffffff1660e01b815260040161201c95949392919061404f565b6020604051808303816000875af192505050801561205857506040513d601f19601f820116820180604052508101906120559190613e3f565b60015b6120fd57612064613e79565b806308c379a0036120c05750612078613e9b565b8061208357506120c2565b806040517f08c379a00000000000000000000000000000000000000000000000000000000081526004016120b79190612830565b60405180910390fd5b505b6040517f08c379a00000000000000000000000000000000000000000000000000000000081526004016120f490613f9d565b60405180910390fd5b63f23a6e6160e01b7bffffffffffffffffffffffffffffffffffffffffffffffffffffffff1916817bffffffffffffffffffffffffffffffffffffffffffffffffffffffff191614612184576040517f08c379a000000000000000000000000000000000000000000000000000000000815260040161217b9061402f565b60405180910390fd5b505b505050505050565b6060600061219b83612347565b90506000815111156121cb57806000815181106121bb576121ba613258565b5b60200260200101519150506121df565b604051806020016040528060008152509150505b919050565b6060600082510361220657604051806020016040528060008152509050612342565b60006040518060600160405280604081526020016141c4604091399050600060036002855161223591906137b1565b61223f91906140d8565b600461224b9190614109565b67ffffffffffffffff81111561226457612263612857565b5b6040519080825280601f01601f1916602001820160405280156122965781602001600182028036833780820191505090505b509050600182016020820185865187015b80821015612302576003820191508151603f8160121c168501518453600184019350603f81600c1c168501518453600184019350603f8160061c168501518453600184019350603f81168501518453600184019350506122a7565b505060038651066001811461231e576002811461233157612339565b603d6001830353603d6002830353612339565b603d60018303535b50505080925050505b919050565b606060036001016000838152602001908152602001600020805480602002602001604051908101604052809291908181526020016000905b8282101561242b57838290600052602060002001805461239e90614192565b80601f01602080910402602001604051908101604052809291908181526020018280546123ca90614192565b80156124175780601f106123ec57610100808354040283529160200191612417565b820191906000526020600020905b8154815290600101906020018083116123fa57829003601f168201915b50505050508152602001906001019061237f565b505050509050919050565b828054828255906000526020600020908101928215612485579160200282015b82811115612484578251829080519060200190612474929190612496565b5091602001919060010190612456565b5b509050612492919061251c565b5090565b8280546124a290614192565b90600052602060002090601f0160209004810192826124c4576000855561250b565b82601f106124dd57805160ff191683800117855561250b565b8280016001018555821561250b579182015b8281111561250a5782518255916020019190600101906124ef565b5b5090506125189190612540565b5090565b5b8082111561253c5760008181612533919061255d565b5060010161251d565b5090565b5b80821115612559576000816000905550600101612541565b5090565b50805461256990614192565b6000825580601f1061257b575061259a565b601f0160209004906000526020600020908101906125999190612540565b5b50565b6000604051905090565b600080fd5b600080fd5b600073ffffffffffffffffffffffffffffffffffffffff82169050919050565b60006125dc826125b1565b9050919050565b6125ec816125d1565b81146125f757600080fd5b50565b600081359050612609816125e3565b92915050565b6000819050919050565b6126228161260f565b811461262d57600080fd5b50565b60008135905061263f81612619565b92915050565b6000806040838503121561265c5761265b6125a7565b5b600061266a858286016125fa565b925050602061267b85828601612630565b9150509250929050565b61268e8161260f565b82525050565b60006020820190506126a96000830184612685565b92915050565b60007fffffffff0000000000000000000000000000000000000000000000000000000082169050919050565b6126e4816126af565b81146126ef57600080fd5b50565b600081359050612701816126db565b92915050565b60006020828403121561271d5761271c6125a7565b5b600061272b848285016126f2565b91505092915050565b60008115159050919050565b61274981612734565b82525050565b60006020820190506127646000830184612740565b92915050565b6000602082840312156127805761277f6125a7565b5b600061278e84828501612630565b91505092915050565b600081519050919050565b600082825260208201905092915050565b60005b838110156127d15780820151818401526020810190506127b6565b838111156127e0576000848401525b50505050565b6000601f19601f8301169050919050565b600061280282612797565b61280c81856127a2565b935061281c8185602086016127b3565b612825816127e6565b840191505092915050565b6000602082019050818103600083015261284a81846127f7565b905092915050565b600080fd5b7f4e487b7100000000000000000000000000000000000000000000000000000000600052604160045260246000fd5b61288f826127e6565b810181811067ffffffffffffffff821117156128ae576128ad612857565b5b80604052505050565b60006128c161259d565b90506128cd8282612886565b919050565b600067ffffffffffffffff8211156128ed576128ec612857565b5b602082029050602081019050919050565b600080fd5b6000612916612911846128d2565b6128b7565b90508083825260208201905060208402830185811115612939576129386128fe565b5b835b81811015612962578061294e8882612630565b84526020840193505060208101905061293b565b5050509392505050565b600082601f83011261298157612980612852565b5b8135612991848260208601612903565b91505092915050565b600080fd5b600067ffffffffffffffff8211156129ba576129b9612857565b5b6129c3826127e6565b9050602081019050919050565b82818337600083830152505050565b60006129f26129ed8461299f565b6128b7565b905082815260208101848484011115612a0e57612a0d61299a565b5b612a198482856129d0565b509392505050565b600082601f830112612a3657612a35612852565b5b8135612a468482602086016129df565b91505092915050565b600080600080600060a08688031215612a6b57612a6a6125a7565b5b6000612a79888289016125fa565b9550506020612a8a888289016125fa565b945050604086013567ffffffffffffffff811115612aab57612aaa6125ac565b5b612ab78882890161296c565b935050606086013567ffffffffffffffff811115612ad857612ad76125ac565b5b612ae48882890161296c565b925050608086013567ffffffffffffffff811115612b0557612b046125ac565b5b612b1188828901612a21565b9150509295509295909350565b600067ffffffffffffffff821115612b3957612b38612857565b5b602082029050602081019050919050565b6000612b5d612b5884612b1e565b6128b7565b90508083825260208201905060208402830185811115612b8057612b7f6128fe565b5b835b81811015612ba95780612b9588826125fa565b845260208401935050602081019050612b82565b5050509392505050565b600082601f830112612bc857612bc7612852565b5b8135612bd8848260208601612b4a565b91505092915050565b60008060408385031215612bf857612bf76125a7565b5b600083013567ffffffffffffffff811115612c1657612c156125ac565b5b612c2285828601612bb3565b925050602083013567ffffffffffffffff811115612c4357612c426125ac565b5b612c4f8582860161296c565b9150509250929050565b600081519050919050565b600082825260208201905092915050565b6000819050602082019050919050565b612c8e8161260f565b82525050565b6000612ca08383612c85565b60208301905092915050565b6000602082019050919050565b6000612cc482612c59565b612cce8185612c64565b9350612cd983612c75565b8060005b83811015612d0a578151612cf18882612c94565b9750612cfc83612cac565b925050600181019050612cdd565b5085935050505092915050565b60006020820190508181036000830152612d318184612cb9565b905092915050565b612d42816125d1565b82525050565b6000602082019050612d5d6000830184612d39565b92915050565b612d6c81612734565b8114612d7757600080fd5b50565b600081359050612d8981612d63565b92915050565b60008060408385031215612da657612da56125a7565b5b6000612db4858286016125fa565b9250506020612dc585828601612d7a565b9150509250929050565b600067ffffffffffffffff821115612dea57612de9612857565b5b612df3826127e6565b9050602081019050919050565b6000612e13612e0e84612dcf565b6128b7565b905082815260208101848484011115612e2f57612e2e61299a565b5b612e3a8482856129d0565b509392505050565b600082601f830112612e5757612e56612852565b5b8135612e67848260208601612e00565b91505092915050565b600080600080600080600060e0888a031215612e8f57612e8e6125a7565b5b6000612e9d8a828b016125fa565b9750506020612eae8a828b01612630565b965050604088013567ffffffffffffffff811115612ecf57612ece6125ac565b5b612edb8a828b01612e42565b955050606088013567ffffffffffffffff811115612efc57612efb6125ac565b5b612f088a828b01612e42565b945050608088013567ffffffffffffffff811115612f2957612f286125ac565b5b612f358a828b01612e42565b93505060a088013567ffffffffffffffff811115612f5657612f556125ac565b5b612f628a828b01612e42565b92505060c088013567ffffffffffffffff811115612f8357612f826125ac565b5b612f8f8a828b01612e42565b91505092959891949750929550565b60008060408385031215612fb557612fb46125a7565b5b6000612fc3858286016125fa565b9250506020612fd4858286016125fa565b9150509250929050565b600080600080600060a08688031215612ffa57612ff96125a7565b5b6000613008888289016125fa565b9550506020613019888289016125fa565b945050604061302a88828901612630565b935050606061303b88828901612630565b925050608086013567ffffffffffffffff81111561305c5761305b6125ac565b5b61306888828901612a21565b9150509295509295909350565b60006020828403121561308b5761308a6125a7565b5b6000613099848285016125fa565b91505092915050565b7f455243313135353a2062616c616e636520717565727920666f7220746865207a60008201527f65726f2061646472657373000000000000000000000000000000000000000000602082015250565b60006130fe602b836127a2565b9150613109826130a2565b604082019050919050565b6000602082019050818103600083015261312d816130f1565b9050919050565b7f455243313135353a207472616e736665722063616c6c6572206973206e6f742060008201527f6f776e6572206e6f7220617070726f7665640000000000000000000000000000602082015250565b60006131906032836127a2565b915061319b82613134565b604082019050919050565b600060208201905081810360008301526131bf81613183565b9050919050565b7f455243313135353a206163636f756e747320616e6420696473206c656e67746860008201527f206d69736d617463680000000000000000000000000000000000000000000000602082015250565b60006132226029836127a2565b915061322d826131c6565b604082019050919050565b6000602082019050818103600083015261325181613215565b9050919050565b7f4e487b7100000000000000000000000000000000000000000000000000000000600052603260045260246000fd5b7f4e487b7100000000000000000000000000000000000000000000000000000000600052601160045260246000fd5b60006132c18261260f565b91507fffffffffffffffffffffffffffffffffffffffffffffffffffffffffffffffff82036132f3576132f2613287565b5b600182019050919050565b7f4f776e61626c653a2063616c6c6572206973206e6f7420746865206f776e6572600082015250565b60006133346020836127a2565b915061333f826132fe565b602082019050919050565b6000602082019050818103600083015261336381613327565b9050919050565b600060408201905061337f6000830185612685565b61338c6020830184612d39565b9392505050565b7f44696767696e6720466565000000000000000000000000000000000000000000600082015250565b60006133c9600b836127a2565b91506133d482613393565b602082019050919050565b600060208201905081810360008301526133f8816133bc565b9050919050565b7f426f756e74790000000000000000000000000000000000000000000000000000600082015250565b60006134356006836127a2565b9150613440826133ff565b602082019050919050565b6000602082019050818103600083015261346481613428565b9050919050565b7f737472696e670000000000000000000000000000000000000000000000000000600082015250565b60006134a16006836127a2565b91506134ac8261346b565b602082019050919050565b600060208201905081810360008301526134d081613494565b9050919050565b7f455243313135353a2063616c6c6572206973206e6f74206f776e6572206e6f7260008201527f20617070726f7665640000000000000000000000000000000000000000000000602082015250565b60006135336029836127a2565b915061353e826134d7565b604082019050919050565b6000602082019050818103600083015261356281613526565b9050919050565b7f4f776e61626c653a206e6577206f776e657220697320746865207a65726f206160008201527f6464726573730000000000000000000000000000000000000000000000000000602082015250565b60006135c56026836127a2565b91506135d082613569565b604082019050919050565b600060208201905081810360008301526135f4816135b8565b9050919050565b7f455243313135353a2069647320616e6420616d6f756e7473206c656e6774682060008201527f6d69736d61746368000000000000000000000000000000000000000000000000602082015250565b60006136576028836127a2565b9150613662826135fb565b604082019050919050565b600060208201905081810360008301526136868161364a565b9050919050565b7f455243313135353a207472616e7366657220746f20746865207a65726f20616460008201527f6472657373000000000000000000000000000000000000000000000000000000602082015250565b60006136e96025836127a2565b91506136f48261368d565b604082019050919050565b60006020820190508181036000830152613718816136dc565b9050919050565b7f455243313135353a20696e73756666696369656e742062616c616e636520666f60008201527f72207472616e7366657200000000000000000000000000000000000000000000602082015250565b600061377b602a836127a2565b91506137868261371f565b604082019050919050565b600060208201905081810360008301526137aa8161376e565b9050919050565b60006137bc8261260f565b91506137c78361260f565b9250827fffffffffffffffffffffffffffffffffffffffffffffffffffffffffffffffff038211156137fc576137fb613287565b5b828201905092915050565b600060408201905081810360008301526138218185612cb9565b905081810360208301526138358184612cb9565b90509392505050565b7f455243313135353a2073657474696e6720617070726f76616c2073746174757360008201527f20666f722073656c660000000000000000000000000000000000000000000000602082015250565b600061389a6029836127a2565b91506138a58261383e565b604082019050919050565b600060208201905081810360008301526138c98161388d565b9050919050565b7f455243313135353a206d696e7420746f20746865207a65726f2061646472657360008201527f7300000000000000000000000000000000000000000000000000000000000000602082015250565b600061392c6021836127a2565b9150613937826138d0565b604082019050919050565b6000602082019050818103600083015261395b8161391f565b9050919050565b60006040820190506139776000830185612685565b6139846020830184612685565b9392505050565b600061399e61399984612dcf565b6128b7565b9050828152602081018484840111156139ba576139b961299a565b5b6139c58482856127b3565b509392505050565b600082601f8301126139e2576139e1612852565b5b81516139f284826020860161398b565b91505092915050565b600060208284031215613a1157613a106125a7565b5b600082015167ffffffffffffffff811115613a2f57613a2e6125ac565b5b613a3b848285016139cd565b91505092915050565b600081905092915050565b7f2c20276465736372697074696f6e273a20270000000000000000000000000000600082015250565b6000613a85601283613a44565b9150613a9082613a4f565b601282019050919050565b6000613aa682612797565b613ab08185613a44565b9350613ac08185602086016127b3565b80840191505092915050565b7f2700000000000000000000000000000000000000000000000000000000000000600082015250565b6000613b02600183613a44565b9150613b0d82613acc565b600182019050919050565b6000613b2382613a78565b9150613b2f8284613a9b565b9150613b3a82613af5565b915081905092915050565b7f2c2027696d616765273a20270000000000000000000000000000000000000000600082015250565b6000613b7b600c83613a44565b9150613b8682613b45565b600c82019050919050565b6000613b9c82613b6e565b9150613ba88284613a9b565b9150613bb382613af5565b915081905092915050565b7f7b00000000000000000000000000000000000000000000000000000000000000600082015250565b6000613bf4600183613a44565b9150613bff82613bbe565b600182019050919050565b7f276e616d65273a20270000000000000000000000000000000000000000000000600082015250565b6000613c40600983613a44565b9150613c4b82613c0a565b600982019050919050565b7f7d00000000000000000000000000000000000000000000000000000000000000600082015250565b6000613c8c600183613a44565b9150613c9782613c56565b600182019050919050565b6000613cad82613be7565b9150613cb882613c33565b9150613cc48286613a9b565b9150613ccf82613af5565b9150613cdb8285613a9b565b9150613ce78284613a9b565b9150613cf282613c7f565b9150819050949350505050565b7f646174613a6170706c69636174696f6e2f6a736f6e3b6261736536342c000000600082015250565b6000613d35601d83613a44565b9150613d4082613cff565b601d82019050919050565b6000613d5682613d28565b9150613d628284613a9b565b915081905092915050565b600081519050919050565b600082825260208201905092915050565b6000613d9482613d6d565b613d9e8185613d78565b9350613dae8185602086016127b3565b613db7816127e6565b840191505092915050565b600060a082019050613dd76000830188612d39565b613de46020830187612d39565b8181036040830152613df68186612cb9565b90508181036060830152613e0a8185612cb9565b90508181036080830152613e1e8184613d89565b90509695505050505050565b600081519050613e39816126db565b92915050565b600060208284031215613e5557613e546125a7565b5b6000613e6384828501613e2a565b91505092915050565b60008160e01c9050919050565b600060033d1115613e985760046000803e613e95600051613e6c565b90505b90565b600060443d10613f2857613ead61259d565b60043d036004823e80513d602482011167ffffffffffffffff82111715613ed5575050613f28565b808201805167ffffffffffffffff811115613ef35750505050613f28565b80602083010160043d038501811115613f10575050505050613f28565b613f1f82602001850186612886565b82955050505050505b90565b7f455243313135353a207472616e7366657220746f206e6f6e204552433131353560008201527f526563656976657220696d706c656d656e746572000000000000000000000000602082015250565b6000613f876034836127a2565b9150613f9282613f2b565b604082019050919050565b60006020820190508181036000830152613fb681613f7a565b9050919050565b7f455243313135353a204552433131353552656365697665722072656a6563746560008201527f6420746f6b656e73000000000000000000000000000000000000000000000000602082015250565b60006140196028836127a2565b915061402482613fbd565b604082019050919050565b600060208201905081810360008301526140488161400c565b9050919050565b600060a0820190506140646000830188612d39565b6140716020830187612d39565b61407e6040830186612685565b61408b6060830185612685565b818103608083015261409d8184613d89565b90509695505050505050565b7f4e487b7100000000000000000000000000000000000000000000000000000000600052601260045260246000fd5b60006140e38261260f565b91506140ee8361260f565b9250826140fe576140fd6140a9565b5b828204905092915050565b60006141148261260f565b915061411f8361260f565b9250817fffffffffffffffffffffffffffffffffffffffffffffffffffffffffffffffff048311821515161561415857614157613287565b5b828202905092915050565b7f4e487b7100000000000000000000000000000000000000000000000000000000600052602260045260246000fd5b600060028204905060018216806141aa57607f821691505b6020821081036141bd576141bc614163565b5b5091905056fe4142434445464748494a4b4c4d4e4f505152535455565758595a6162636465666768696a6b6c6d6e6f707172737475767778797a303132333435363738392b2f646174613a6170706c69636174696f6e2f6a736f6e3b6261736536342c65776f6749434169626d46745a534936496c526c633351675532467959323867546b5a55494449694c416f67494341695a47567a59334a7063485270623234694f694a5561476c7a49476c7a494745676447567a6443427a59584a6a627942755a6e5167497a49694c416f6749434169615731685a3255694f694a305a584e3049485679615349734369416749434a686448527961574a316447567a496a706243694167494341674948734b494341674943416749434167496d52706333427359586c6664486c775a534936496e4e30636d6c755a79497343694167494341674943416749434a30636d4670644639306558426c496a6f6952476c6e5a326c755a7942475a5755694c416f67494341674943416749434169646d4673645755694f6949784d43494b49434167494341676653774b494341674943416765776f674943416749434167494341695a476c7a63477868655639306558426c496a6f69633352796157356e4969774b494341674943416749434167496e527959576c3058335235634755694f694a436233567564486b694c416f67494341674943416749434169646d4673645755694f6949784d44416943694167494341674948304b4943416758517039a2646970667358221220840e903726e287fd1c0450e656773aacb6be67b02730d21e3861a1e68887b0c264736f6c634300080d003346697273742074657374206f6620455243313135354f6e436861696e4d65746164617461",
  "devdoc": {
    "kind": "dev",
    "methods": {
      "balanceOf(address,uint256)": {
        "details": "See {IERC1155-balanceOf}. Requirements: - `account` cannot be the zero address."
      },
      "balanceOfBatch(address[],uint256[])": {
        "details": "See {IERC1155-balanceOfBatch}. Requirements: - `accounts` and `ids` must have the same length."
      },
      "isApprovedForAll(address,address)": {
        "details": "See {IERC1155-isApprovedForAll}."
      },
      "mint(address,uint256,string,string,string,string,string)": {
        "params": {
          "_description": "the token description.",
          "_imageURI": "the token image URI.",
          "_name": "the token name.",
          "_sarcoId": "the token identifier.",
          "_to": "the address to mint the token to."
        }
      },
      "owner()": {
        "details": "Returns the address of the current owner."
      },
      "renounceOwnership()": {
        "details": "Leaves the contract without owner. It will not be possible to call `onlyOwner` functions anymore. Can only be called by the current owner. NOTE: Renouncing ownership will leave the contract without an owner, thereby removing any functionality that is only available to the owner."
      },
      "safeBatchTransferFrom(address,address,uint256[],uint256[],bytes)": {
        "details": "See {IERC1155-safeBatchTransferFrom}."
      },
      "safeTransferFrom(address,address,uint256,uint256,bytes)": {
        "details": "See {IERC1155-safeTransferFrom}."
      },
      "setApprovalForAll(address,bool)": {
        "details": "See {IERC1155-setApprovalForAll}."
      },
      "supportsInterface(bytes4)": {
        "details": "See {IERC165-supportsInterface}."
      },
      "transferOwnership(address)": {
        "details": "Transfers ownership of the contract to a new account (`newOwner`). Can only be called by the current owner."
      }
    },
    "version": 1
  },
  "userdoc": {
    "kind": "user",
    "methods": {
      "mint(address,uint256,string,string,string,string,string)": {
        "notice": "Mints a single curse nft with metadata."
      }
    },
    "version": 1
  },
  "storageLayout": {
    "storage": [
      {
        "astId": 131,
        "contract": "contracts/tokens/CursesMock.sol:CursesMock",
        "label": "_balances",
        "offset": 0,
        "slot": "0",
        "type": "t_mapping(t_uint256,t_mapping(t_address,t_uint256))"
      },
      {
        "astId": 137,
        "contract": "contracts/tokens/CursesMock.sol:CursesMock",
        "label": "_operatorApprovals",
        "offset": 0,
        "slot": "1",
        "type": "t_mapping(t_address,t_mapping(t_address,t_bool))"
      },
      {
        "astId": 139,
        "contract": "contracts/tokens/CursesMock.sol:CursesMock",
        "label": "_uri",
        "offset": 0,
        "slot": "2",
        "type": "t_string_storage"
      },
      {
        "astId": 2234,
        "contract": "contracts/tokens/CursesMock.sol:CursesMock",
        "label": "contractMetadata",
        "offset": 0,
        "slot": "3",
        "type": "t_struct(Metadata)2231_storage"
      },
      {
        "astId": 2241,
        "contract": "contracts/tokens/CursesMock.sol:CursesMock",
        "label": "tokenMetadata",
        "offset": 0,
        "slot": "6",
        "type": "t_mapping(t_uint256,t_mapping(t_address,t_struct(Metadata)2231_storage))"
      },
      {
        "astId": 2185,
        "contract": "contracts/tokens/CursesMock.sol:CursesMock",
        "label": "owners",
        "offset": 0,
        "slot": "7",
        "type": "t_mapping(t_uint256,t_address)"
      },
      {
        "astId": 7,
        "contract": "contracts/tokens/CursesMock.sol:CursesMock",
        "label": "_owner",
        "offset": 0,
        "slot": "8",
        "type": "t_address"
      },
      {
        "astId": 1927,
        "contract": "contracts/tokens/CursesMock.sol:CursesMock",
        "label": "ids",
        "offset": 0,
        "slot": "9",
        "type": "t_mapping(t_uint256,t_mapping(t_address,t_bool))"
      }
    ],
    "types": {
      "t_address": {
        "encoding": "inplace",
        "label": "address",
        "numberOfBytes": "20"
      },
      "t_array(t_bytes_storage)dyn_storage": {
        "base": "t_bytes_storage",
        "encoding": "dynamic_array",
        "label": "bytes[]",
        "numberOfBytes": "32"
      },
      "t_bool": {
        "encoding": "inplace",
        "label": "bool",
        "numberOfBytes": "1"
      },
      "t_bytes32": {
        "encoding": "inplace",
        "label": "bytes32",
        "numberOfBytes": "32"
      },
      "t_bytes_storage": {
        "encoding": "bytes",
        "label": "bytes",
        "numberOfBytes": "32"
      },
      "t_mapping(t_address,t_bool)": {
        "encoding": "mapping",
        "key": "t_address",
        "label": "mapping(address => bool)",
        "numberOfBytes": "32",
        "value": "t_bool"
      },
      "t_mapping(t_address,t_mapping(t_address,t_bool))": {
        "encoding": "mapping",
        "key": "t_address",
        "label": "mapping(address => mapping(address => bool))",
        "numberOfBytes": "32",
        "value": "t_mapping(t_address,t_bool)"
      },
      "t_mapping(t_address,t_struct(Metadata)2231_storage)": {
        "encoding": "mapping",
        "key": "t_address",
        "label": "mapping(address => struct OnChainMetadata.Metadata)",
        "numberOfBytes": "32",
        "value": "t_struct(Metadata)2231_storage"
      },
      "t_mapping(t_address,t_uint256)": {
        "encoding": "mapping",
        "key": "t_address",
        "label": "mapping(address => uint256)",
        "numberOfBytes": "32",
        "value": "t_uint256"
      },
      "t_mapping(t_bytes32,t_array(t_bytes_storage)dyn_storage)": {
        "encoding": "mapping",
        "key": "t_bytes32",
        "label": "mapping(bytes32 => bytes[])",
        "numberOfBytes": "32",
        "value": "t_array(t_bytes_storage)dyn_storage"
      },
      "t_mapping(t_bytes32,t_uint256)": {
        "encoding": "mapping",
        "key": "t_bytes32",
        "label": "mapping(bytes32 => uint256)",
        "numberOfBytes": "32",
        "value": "t_uint256"
      },
      "t_mapping(t_uint256,t_address)": {
        "encoding": "mapping",
        "key": "t_uint256",
        "label": "mapping(uint256 => address)",
        "numberOfBytes": "32",
        "value": "t_address"
      },
      "t_mapping(t_uint256,t_mapping(t_address,t_bool))": {
        "encoding": "mapping",
        "key": "t_uint256",
        "label": "mapping(uint256 => mapping(address => bool))",
        "numberOfBytes": "32",
        "value": "t_mapping(t_address,t_bool)"
      },
      "t_mapping(t_uint256,t_mapping(t_address,t_struct(Metadata)2231_storage))": {
        "encoding": "mapping",
        "key": "t_uint256",
        "label": "mapping(uint256 => mapping(address => struct OnChainMetadata.Metadata))",
        "numberOfBytes": "32",
        "value": "t_mapping(t_address,t_struct(Metadata)2231_storage)"
      },
      "t_mapping(t_uint256,t_mapping(t_address,t_uint256))": {
        "encoding": "mapping",
        "key": "t_uint256",
        "label": "mapping(uint256 => mapping(address => uint256))",
        "numberOfBytes": "32",
        "value": "t_mapping(t_address,t_uint256)"
      },
      "t_string_storage": {
        "encoding": "bytes",
        "label": "string",
        "numberOfBytes": "32"
      },
      "t_struct(Metadata)2231_storage": {
        "encoding": "inplace",
        "label": "struct OnChainMetadata.Metadata",
        "members": [
          {
            "astId": 2221,
            "contract": "contracts/tokens/CursesMock.sol:CursesMock",
            "label": "keyCount",
            "offset": 0,
            "slot": "0",
            "type": "t_uint256"
          },
          {
            "astId": 2226,
            "contract": "contracts/tokens/CursesMock.sol:CursesMock",
            "label": "data",
            "offset": 0,
            "slot": "1",
            "type": "t_mapping(t_bytes32,t_array(t_bytes_storage)dyn_storage)"
          },
          {
            "astId": 2230,
            "contract": "contracts/tokens/CursesMock.sol:CursesMock",
            "label": "valueCount",
            "offset": 0,
            "slot": "2",
            "type": "t_mapping(t_bytes32,t_uint256)"
          }
        ],
        "numberOfBytes": "96"
      },
      "t_uint256": {
        "encoding": "inplace",
        "label": "uint256",
        "numberOfBytes": "32"
      }
    }
  }
}