{
  "address": "0x0959fBc17F350f5400d6e06E76F613B89826FC4E",
  "abi": [
    {
      "inputs": [
        {
          "internalType": "address",
          "name": "archaeologistAddress",
          "type": "address"
        }
      ],
      "name": "ArchaeologistListNotUnique",
      "type": "error"
    },
    {
      "inputs": [
        {
          "internalType": "bool",
          "name": "exists",
          "type": "bool"
        },
        {
          "internalType": "address",
          "name": "archaeologist",
          "type": "address"
        }
      ],
      "name": "ArchaeologistProfileExistsShouldBe",
      "type": "error"
    },
    {
      "inputs": [
        {
          "internalType": "address",
          "name": "recoveredAddress",
          "type": "address"
        },
        {
          "internalType": "address",
          "name": "expectedAddress",
          "type": "address"
        }
      ],
      "name": "InvalidSignature",
      "type": "error"
    },
    {
      "inputs": [
        {
          "internalType": "uint8",
          "name": "minShards",
          "type": "uint8"
        }
      ],
      "name": "MinShardsGreaterThanArchaeologists",
      "type": "error"
    },
    {
      "inputs": [],
      "name": "MinShardsZero",
      "type": "error"
    },
    {
      "inputs": [
        {
          "internalType": "uint256",
          "name": "newResurrectionTime",
          "type": "uint256"
        }
      ],
      "name": "NewResurrectionTimeInPast",
      "type": "error"
    },
    {
      "inputs": [
        {
          "internalType": "uint256",
          "name": "newResurrectionTime",
          "type": "uint256"
        }
      ],
      "name": "NewResurrectionTimeTooLarge",
      "type": "error"
    },
    {
      "inputs": [],
      "name": "NoArchaeologistsProvided",
      "type": "error"
    },
    {
      "inputs": [
        {
          "internalType": "uint256",
          "name": "cursedBond",
          "type": "uint256"
        },
        {
          "internalType": "uint256",
          "name": "amount",
          "type": "uint256"
        }
      ],
      "name": "NotEnoughCursedBond",
      "type": "error"
    },
    {
      "inputs": [
        {
          "internalType": "uint256",
          "name": "freeBond",
          "type": "uint256"
        },
        {
          "internalType": "uint256",
          "name": "amount",
          "type": "uint256"
        }
      ],
      "name": "NotEnoughFreeBond",
      "type": "error"
    },
    {
      "inputs": [
        {
          "internalType": "uint256",
          "name": "resurrectionTime",
          "type": "uint256"
        }
      ],
      "name": "ResurrectionTimeInPast",
      "type": "error"
    },
    {
      "inputs": [
        {
          "internalType": "uint256",
          "name": "resurrectionTime",
          "type": "uint256"
        },
        {
          "internalType": "uint256",
          "name": "sarcophagusMaximumRewrapInterval",
          "type": "uint256"
        }
      ],
      "name": "ResurrectionTimeTooFarInFuture",
      "type": "error"
    },
    {
      "inputs": [
        {
          "internalType": "bytes32",
          "name": "sarcoId",
          "type": "bytes32"
        }
      ],
      "name": "SarcophagusAlreadyExists",
      "type": "error"
    },
    {
      "inputs": [
        {
          "internalType": "bytes32",
          "name": "sarcoId",
          "type": "bytes32"
        }
      ],
      "name": "SarcophagusCompromised",
      "type": "error"
    },
    {
      "inputs": [
        {
          "internalType": "bytes32",
          "name": "sarcoId",
          "type": "bytes32"
        }
      ],
      "name": "SarcophagusDoesNotExist",
      "type": "error"
    },
    {
      "inputs": [
        {
          "internalType": "bytes32",
          "name": "sarcoId",
          "type": "bytes32"
        }
      ],
      "name": "SarcophagusInactive",
      "type": "error"
    },
    {
      "inputs": [],
      "name": "SarcophagusIsUnwrappable",
      "type": "error"
    },
    {
      "inputs": [
        {
          "internalType": "uint256",
          "name": "timestamp",
          "type": "uint256"
        }
      ],
      "name": "SarcophagusParametersExpired",
      "type": "error"
    },
    {
      "inputs": [
        {
          "internalType": "address",
          "name": "sender",
          "type": "address"
        },
        {
          "internalType": "address",
          "name": "embalmer",
          "type": "address"
        }
      ],
      "name": "SenderNotEmbalmer",
      "type": "error"
    },
    {
      "anonymous": false,
      "inputs": [
        {
          "indexed": true,
          "internalType": "bytes32",
          "name": "sarcoId",
          "type": "bytes32"
        }
      ],
      "name": "BurySarcophagus",
      "type": "event"
    },
    {
      "anonymous": false,
      "inputs": [
        {
          "indexed": true,
          "internalType": "bytes32",
          "name": "sarcoId",
          "type": "bytes32"
        },
        {
          "indexed": false,
          "internalType": "string",
          "name": "name",
          "type": "string"
        },
        {
          "indexed": false,
          "internalType": "uint256",
          "name": "resurrectionTime",
          "type": "uint256"
        },
        {
          "indexed": false,
          "internalType": "address",
          "name": "embalmer",
          "type": "address"
        },
        {
          "indexed": false,
          "internalType": "address",
          "name": "recipient",
          "type": "address"
        },
        {
          "indexed": false,
          "internalType": "address[]",
          "name": "cursedArchaeologists",
          "type": "address[]"
        },
        {
          "indexed": false,
          "internalType": "uint256",
          "name": "totalDiggingFees",
          "type": "uint256"
        },
        {
          "indexed": false,
          "internalType": "uint256",
          "name": "createSarcophagusProtocolFees",
          "type": "uint256"
        },
        {
          "indexed": false,
          "internalType": "string[2]",
          "name": "arweaveTxIds",
          "type": "string[2]"
        }
      ],
      "name": "CreateSarcophagus",
      "type": "event"
    },
    {
      "anonymous": false,
      "inputs": [
        {
          "indexed": true,
          "internalType": "bytes32",
          "name": "sarcoId",
          "type": "bytes32"
        },
        {
          "indexed": false,
          "internalType": "uint256",
          "name": "resurrectionTime",
          "type": "uint256"
        },
        {
          "indexed": false,
          "internalType": "uint256",
          "name": "totalDiggingFees",
          "type": "uint256"
        },
        {
          "indexed": false,
          "internalType": "uint256",
          "name": "rewrapSarcophagusProtocolFees",
          "type": "uint256"
        }
      ],
      "name": "RewrapSarcophagus",
      "type": "event"
    },
    {
      "inputs": [
        {
          "internalType": "bytes32",
          "name": "sarcoId",
          "type": "bytes32"
        }
      ],
      "name": "burySarcophagus",
      "outputs": [],
      "stateMutability": "nonpayable",
      "type": "function"
    },
    {
      "inputs": [
        {
          "internalType": "bytes32",
          "name": "sarcoId",
          "type": "bytes32"
        },
        {
          "components": [
            {
              "internalType": "string",
              "name": "name",
              "type": "string"
            },
            {
              "internalType": "address",
              "name": "recipientAddress",
              "type": "address"
            },
            {
              "internalType": "uint256",
              "name": "resurrectionTime",
              "type": "uint256"
            },
            {
              "internalType": "uint256",
              "name": "maximumRewrapInterval",
              "type": "uint256"
            },
            {
              "internalType": "uint8",
              "name": "threshold",
              "type": "uint8"
            },
            {
              "internalType": "uint256",
              "name": "creationTime",
              "type": "uint256"
            }
          ],
          "internalType": "struct EmbalmerFacet.SarcophagusParams",
          "name": "sarcophagusParams",
          "type": "tuple"
        },
        {
          "components": [
            {
              "internalType": "address",
              "name": "archAddress",
              "type": "address"
            },
            {
              "internalType": "uint256",
              "name": "diggingFee",
              "type": "uint256"
            },
            {
              "internalType": "bytes32",
              "name": "doubleHashedKeyShare",
              "type": "bytes32"
            },
            {
              "internalType": "uint8",
              "name": "v",
              "type": "uint8"
            },
            {
              "internalType": "bytes32",
              "name": "r",
              "type": "bytes32"
            },
            {
              "internalType": "bytes32",
              "name": "s",
              "type": "bytes32"
            }
          ],
          "internalType": "struct EmbalmerFacet.SelectedArchaeologistData[]",
          "name": "selectedArchaeologists",
          "type": "tuple[]"
        },
        {
          "internalType": "string[2]",
          "name": "arweaveTxIds",
          "type": "string[2]"
        }
      ],
      "name": "createSarcophagus",
      "outputs": [
        {
          "internalType": "uint256",
          "name": "",
          "type": "uint256"
        }
      ],
      "stateMutability": "nonpayable",
      "type": "function"
    },
    {
      "inputs": [
        {
          "internalType": "bytes32",
          "name": "sarcoId",
          "type": "bytes32"
        },
        {
          "internalType": "uint256",
          "name": "resurrectionTime",
          "type": "uint256"
        }
      ],
      "name": "rewrapSarcophagus",
      "outputs": [],
      "stateMutability": "nonpayable",
      "type": "function"
    }
  ],
  "args": [],
  "numDeployments": 4,
  "solcInputHash": "24da3a57fc1d823ed9295677fe86dbd6",
  "bytecode": "0x608060405234801561001057600080fd5b50612dab806100206000396000f3fe608060405234801561001057600080fd5b50600436106100415760003560e01c80630511f2ec146100465780635d5478e214610062578063ab7d796914610092575b600080fd5b610060600480360381019061005b9190611f1c565b6100ae565b005b61007c600480360381019061007791906121e2565b6104bc565b60405161008991906122bb565b60405180910390f35b6100ac60048036038101906100a79190612302565b6110b6565b005b600080600a0160008381526020019081526020016000209050600081600001540361011057816040517f018da6880000000000000000000000000000000000000000000000000000000081526004016101079190612351565b60405180910390fd5b8060010160009054906101000a900460ff161561016457816040517f9af72b8600000000000000000000000000000000000000000000000000000000815260040161015b9190612351565b60405180910390fd5b7fffffffffffffffffffffffffffffffffffffffffffffffffffffffffffffffff8160000154036101cc57816040517f7c6a6d700000000000000000000000000000000000000000000000000000000081526004016101c39190612351565b60405180910390fd5b3373ffffffffffffffffffffffffffffffffffffffff168160070160009054906101000a900473ffffffffffffffffffffffffffffffffffffffff1673ffffffffffffffffffffffffffffffffffffffff161461028657338160070160009054906101000a900473ffffffffffffffffffffffffffffffffffffffff166040517f0e37d99c00000000000000000000000000000000000000000000000000000000815260040161027d9291906123ad565b60405180910390fd5b428160000154116102d25780600001546040517f357efa270000000000000000000000000000000000000000000000000000000081526004016102c991906122bb565b60405180910390fd5b7fffffffffffffffffffffffffffffffffffffffffffffffffffffffffffffffff8160000181905550600081600901905060005b81805490508110156104895761035984838381548110610329576103286123d6565b5b9060005260206000200160009054906101000a900473ffffffffffffffffffffffffffffffffffffffff166115e4565b600083600a016000848481548110610374576103736123d6565b5b9060005260206000200160009054906101000a900473ffffffffffffffffffffffffffffffffffffffff1673ffffffffffffffffffffffffffffffffffffffff1673ffffffffffffffffffffffffffffffffffffffff168152602001908152602001600020905080600201546000600d0160008585815481106103fa576103f96123d6565b5b9060005260206000200160009054906101000a900473ffffffffffffffffffffffffffffffffffffffff1673ffffffffffffffffffffffffffffffffffffffff1673ffffffffffffffffffffffffffffffffffffffff168152602001908152602001600020600082825461046e9190612434565b925050819055505080806104819061248a565b915050610306565b50827f3a0205aa93b1a96da7d6405b2967f91b441383623de2d1ee3b27bfd1642b167a60405160405180910390a2505050565b6000806000600a01600088815260200190815260200160002060000154111561051c57856040517fb9d0d5840000000000000000000000000000000000000000000000000000000081526004016105139190612351565b60405180910390fd5b6000600401548560a001356105319190612434565b421115610579578460a001356040517fdbff58b000000000000000000000000000000000000000000000000000000000815260040161057091906122bb565b60405180910390fd5b846040013542106105c55784604001356040517f357efa270000000000000000000000000000000000000000000000000000000081526004016105bc91906122bb565b60405180910390fd5b84604001358560600135426105da9190612434565b101561062757846040013585606001356040517f9abac2dc00000000000000000000000000000000000000000000000000000000815260040161061e9291906124d2565b60405180910390fd5b60008484905003610664576040517fb274cdd900000000000000000000000000000000000000000000000000000000815260040160405180910390fd5b60008560800160208101906106799190612534565b60ff16036106b3576040517fc289fea400000000000000000000000000000000000000000000000000000000815260040160405180910390fd5b838390508560800160208101906106ca9190612534565b60ff161115610722578460800160208101906106e69190612534565b6040517f4f1dd41a0000000000000000000000000000000000000000000000000000000081526004016107199190612570565b60405180910390fd5b600080600a016000888152602001908152602001600020905085806000019061074b919061259a565b82600201919061075c929190611be2565b508560800160208101906107709190612534565b8160030160006101000a81548160ff021916908360ff160217905550856040013581600001819055508560600135816004018190555082816005019060026107b9929190611c68565b50338160070160006101000a81548173ffffffffffffffffffffffffffffffffffffffff021916908373ffffffffffffffffffffffffffffffffffffffff1602179055508560200160208101906108109190612629565b8160080160006101000a81548173ffffffffffffffffffffffffffffffffffffffff021916908373ffffffffffffffffffffffffffffffffffffffff1602179055508484905067ffffffffffffffff81111561086f5761086e611fe3565b5b60405190808252806020026020018201604052801561089d5781602001602082028036833780820191505090505b508160090190805190602001906108b5929190611cbb565b506000805b86869050811015610e3a576108f88787838181106108db576108da6123d6565b5b905060c0020160000160208101906108f39190612629565b61165d565b6000801b83600a016000898985818110610915576109146123d6565b5b905060c00201600001602081019061092d9190612629565b73ffffffffffffffffffffffffffffffffffffffff1673ffffffffffffffffffffffffffffffffffffffff16815260200190815260200160002060000154146109d757868682818110610983576109826123d6565b5b905060c00201600001602081019061099b9190612629565b6040517f3eba688c0000000000000000000000000000000000000000000000000000000081526004016109ce9190612656565b60405180910390fd5b610acc8787838181106109ed576109ec6123d6565b5b905060c002016040013586600160028110610a0b57610a0a6123d6565b5b60200201518a606001358b60a001358b8b87818110610a2d57610a2c6123d6565b5b905060c00201602001358c8c88818110610a4a57610a496123d6565b5b905060c002016060016020810190610a629190612534565b8d8d89818110610a7557610a746123d6565b5b905060c00201608001358e8e8a818110610a9257610a916123d6565b5b905060c0020160a001358f8f8b818110610aaf57610aae6123d6565b5b905060c002016000016020810190610ac79190612629565b611703565b868682818110610adf57610ade6123d6565b5b905060c002016020013582610af49190612434565b9150610b46878783818110610b0c57610b0b6123d6565b5b905060c002016000016020810190610b249190612629565b888884818110610b3757610b366123d6565b5b905060c002016020013561182e565b6040518060800160405280888884818110610b6457610b636123d6565b5b905060c00201604001358152602001600015158152602001888884818110610b8f57610b8e6123d6565b5b905060c002016020013581526020016040518060200160405280600081525081525083600a016000898985818110610bca57610bc96123d6565b5b905060c002016000016020810190610be29190612629565b73ffffffffffffffffffffffffffffffffffffffff1673ffffffffffffffffffffffffffffffffffffffff1681526020019081526020016000206000820151816000015560208201518160010160006101000a81548160ff021916908315150217905550604082015181600201556060820151816003019080519060200190610c6c929190611d45565b50905050868682818110610c8357610c826123d6565b5b905060c002016000016020810190610c9b9190612629565b836009018281548110610cb157610cb06123d6565b5b9060005260206000200160006101000a81548173ffffffffffffffffffffffffffffffffffffffff021916908373ffffffffffffffffffffffffffffffffffffffff160217905550868682818110610d0c57610d0b6123d6565b5b905060c002016000016020810190610d249190612629565b60006008016000898985818110610d3e57610d3d6123d6565b5b905060c0020160400135815260200190815260200160002060006101000a81548173ffffffffffffffffffffffffffffffffffffffff021916908373ffffffffffffffffffffffffffffffffffffffff16021790555060006006016000888884818110610dae57610dad6123d6565b5b905060c002016000016020810190610dc69190612629565b73ffffffffffffffffffffffffffffffffffffffff1673ffffffffffffffffffffffffffffffffffffffff1681526020019081526020016000208990806001815401808255809150506001900390600052602060002001600090919091909150558080610e329061248a565b9150506108ba565b506000600901889080600181540180825580915050600190039060005260206000200160009091909190915055600060050160003373ffffffffffffffffffffffffffffffffffffffff1673ffffffffffffffffffffffffffffffffffffffff16815260200190815260200160002088908060018154018082558091505060019003906000526020600020016000909190919091505560006007016000886020016020810190610eea9190612629565b73ffffffffffffffffffffffffffffffffffffffff1673ffffffffffffffffffffffffffffffffffffffff1681526020019081526020016000208890806001815401808255809150506001900390600052602060002001600090919091909150556000610f5682611846565b90508060006001016000828254610f6d9190612434565b925050819055506000800160009054906101000a900473ffffffffffffffffffffffffffffffffffffffff1673ffffffffffffffffffffffffffffffffffffffff166323b872dd33308486610fc29190612434565b6040518463ffffffff1660e01b8152600401610fe093929190612671565b6020604051808303816000875af1158015610fff573d6000803e3d6000fd5b505050506040513d601f19601f8201168201806040525081019061102391906126e0565b50887fc8bdb848f6fa69f6b1cf22ed72d4bbd1702f92a0a597f458a150ce8098318ab4898060000190611056919061259a565b8b60400135338d602001602081019061106f9190612629565b8960090189898e60405161108b999897969594939291906129ad565b60405180910390a260016000600901805490506110a89190612a42565b935050505095945050505050565b600080600a0160008481526020019081526020016000209050600081600001540361111857826040517f018da68800000000000000000000000000000000000000000000000000000000815260040161110f9190612351565b60405180910390fd5b8060010160009054906101000a900460ff161561116c57826040517f9af72b860000000000000000000000000000000000000000000000000000000081526004016111639190612351565b60405180910390fd5b7fffffffffffffffffffffffffffffffffffffffffffffffffffffffffffffffff8160000154036111d457826040517f7c6a6d700000000000000000000000000000000000000000000000000000000081526004016111cb9190612351565b60405180910390fd5b3373ffffffffffffffffffffffffffffffffffffffff168160070160009054906101000a900473ffffffffffffffffffffffffffffffffffffffff1673ffffffffffffffffffffffffffffffffffffffff161461128e57338160070160009054906101000a900473ffffffffffffffffffffffffffffffffffffffff166040517f0e37d99c0000000000000000000000000000000000000000000000000000000081526004016112859291906123ad565b60405180910390fd5b428160000154116112cb576040517f8680d5de00000000000000000000000000000000000000000000000000000000815260040160405180910390fd5b42821161130f57816040517f365e353400000000000000000000000000000000000000000000000000000000815260040161130691906122bb565b60405180910390fd5b80600401544261131f9190612434565b82111561136357816040517fe4b2b61800000000000000000000000000000000000000000000000000000000815260040161135a91906122bb565b60405180910390fd5b60008082600901905060005b81805490508110156114bd57600084600a016000848481548110611396576113956123d6565b5b9060005260206000200160009054906101000a900473ffffffffffffffffffffffffffffffffffffffff1673ffffffffffffffffffffffffffffffffffffffff1673ffffffffffffffffffffffffffffffffffffffff168152602001908152602001600020905080600201546000600d01600085858154811061141c5761141b6123d6565b5b9060005260206000200160009054906101000a900473ffffffffffffffffffffffffffffffffffffffff1673ffffffffffffffffffffffffffffffffffffffff1673ffffffffffffffffffffffffffffffffffffffff16815260200190815260200160002060008282546114909190612434565b925050819055508060020154846114a79190612434565b93505080806114b59061248a565b91505061136f565b5060006114c983611846565b905080600060010160008282546114e09190612434565b925050819055508484600001819055506000800160009054906101000a900473ffffffffffffffffffffffffffffffffffffffff1673ffffffffffffffffffffffffffffffffffffffff166323b872dd3330848761153e9190612434565b6040518463ffffffff1660e01b815260040161155c93929190612671565b6020604051808303816000875af115801561157b573d6000803e3d6000fd5b505050506040513d601f19601f8201168201806040525081019061159f91906126e0565b50857ff2ded5f77c6de574fac210979efbdd01ff3071d109e50651be4e05211f6e49438685846040516115d493929190612a76565b60405180910390a2505050505050565b60006115ee611877565b9050600081600a016000858152602001908152602001600020600a0160008473ffffffffffffffffffffffffffffffffffffffff1673ffffffffffffffffffffffffffffffffffffffff168152602001908152602001600020905061165783826002015461187c565b50505050565b6000611667611877565b905080600c0160008373ffffffffffffffffffffffffffffffffffffffff1673ffffffffffffffffffffffffffffffffffffffff16815260200190815260200160002060000160009054906101000a900460ff166116ff576001826040517f2eeb35710000000000000000000000000000000000000000000000000000000081526004016116f6929190612abc565b60405180910390fd5b5050565b6000888a89888a60405160200161171e959493929190612b1e565b604051602081830303815290604052805190602001206040516020016117449190612bf0565b6040516020818303038152906040528051906020012090506000600182878787604051600081526020016040526040516117819493929190612c16565b6020604051602081039080840390855afa1580156117a3573d6000803e3d6000fd5b5050506020604051035190508273ffffffffffffffffffffffffffffffffffffffff168173ffffffffffffffffffffffffffffffffffffffff16146118215780836040517f42d750dc0000000000000000000000000000000000000000000000000000000081526004016118189291906123ad565b60405180910390fd5b5050505050505050505050565b6118388282611894565b61184282826119cf565b5050565b600080611851611877565b905060648160020154846118659190612c5b565b61186f9190612ce4565b915050919050565b600090565b6118868282611a3b565b6118908282611b76565b5050565b600061189e611877565b905080600c0160008473ffffffffffffffffffffffffffffffffffffffff1673ffffffffffffffffffffffffffffffffffffffff1681526020019081526020016000206004015482111561196f5780600c0160008473ffffffffffffffffffffffffffffffffffffffff1673ffffffffffffffffffffffffffffffffffffffff16815260200190815260200160002060040154826040517fa4e3bead0000000000000000000000000000000000000000000000000000000081526004016119669291906124d2565b60405180910390fd5b8181600c0160008573ffffffffffffffffffffffffffffffffffffffff1673ffffffffffffffffffffffffffffffffffffffff16815260200190815260200160002060040160008282546119c39190612a42565b92505081905550505050565b60006119d9611877565b90508181600c0160008573ffffffffffffffffffffffffffffffffffffffff1673ffffffffffffffffffffffffffffffffffffffff1681526020019081526020016000206005016000828254611a2f9190612434565b92505081905550505050565b6000611a45611877565b905080600c0160008473ffffffffffffffffffffffffffffffffffffffff1673ffffffffffffffffffffffffffffffffffffffff16815260200190815260200160002060050154821115611b165780600c0160008473ffffffffffffffffffffffffffffffffffffffff1673ffffffffffffffffffffffffffffffffffffffff16815260200190815260200160002060050154826040517faf5a111b000000000000000000000000000000000000000000000000000000008152600401611b0d9291906124d2565b60405180910390fd5b8181600c0160008573ffffffffffffffffffffffffffffffffffffffff1673ffffffffffffffffffffffffffffffffffffffff1681526020019081526020016000206005016000828254611b6a9190612a42565b92505081905550505050565b6000611b80611877565b90508181600c0160008573ffffffffffffffffffffffffffffffffffffffff1673ffffffffffffffffffffffffffffffffffffffff1681526020019081526020016000206004016000828254611bd69190612434565b92505081905550505050565b828054611bee90612d44565b90600052602060002090601f016020900481019282611c105760008555611c57565b82601f10611c2957803560ff1916838001178555611c57565b82800160010185558215611c57579182015b82811115611c56578235825591602001919060010190611c3b565b5b509050611c649190611dcb565b5090565b8260028101928215611caa579160200282015b82811115611ca9578251829080519060200190611c99929190611de8565b5091602001919060010190611c7b565b5b509050611cb79190611e6e565b5090565b828054828255906000526020600020908101928215611d34579160200282015b82811115611d335782518260006101000a81548173ffffffffffffffffffffffffffffffffffffffff021916908373ffffffffffffffffffffffffffffffffffffffff16021790555091602001919060010190611cdb565b5b509050611d419190611dcb565b5090565b828054611d5190612d44565b90600052602060002090601f016020900481019282611d735760008555611dba565b82601f10611d8c57805160ff1916838001178555611dba565b82800160010185558215611dba579182015b82811115611db9578251825591602001919060010190611d9e565b5b509050611dc79190611dcb565b5090565b5b80821115611de4576000816000905550600101611dcc565b5090565b828054611df490612d44565b90600052602060002090601f016020900481019282611e165760008555611e5d565b82601f10611e2f57805160ff1916838001178555611e5d565b82800160010185558215611e5d579182015b82811115611e5c578251825591602001919060010190611e41565b5b509050611e6a9190611dcb565b5090565b5b80821115611e8e5760008181611e859190611e92565b50600101611e6f565b5090565b508054611e9e90612d44565b6000825580601f10611eb05750611ecf565b601f016020900490600052602060002090810190611ece9190611dcb565b5b50565b6000604051905090565b600080fd5b600080fd5b6000819050919050565b611ef981611ee6565b8114611f0457600080fd5b50565b600081359050611f1681611ef0565b92915050565b600060208284031215611f3257611f31611edc565b5b6000611f4084828501611f07565b91505092915050565b600080fd5b600060c08284031215611f6457611f63611f49565b5b81905092915050565b600080fd5b600080fd5b600080fd5b60008083601f840112611f9257611f91611f6d565b5b8235905067ffffffffffffffff811115611faf57611fae611f72565b5b6020830191508360c0820283011115611fcb57611fca611f77565b5b9250929050565b6000601f19601f8301169050919050565b7f4e487b7100000000000000000000000000000000000000000000000000000000600052604160045260246000fd5b61201b82611fd2565b810181811067ffffffffffffffff8211171561203a57612039611fe3565b5b80604052505050565b600061204d611ed2565b90506120598282612012565b919050565b600067ffffffffffffffff82111561207957612078611fe3565b5b602082029050919050565b600080fd5b600067ffffffffffffffff8211156120a4576120a3611fe3565b5b6120ad82611fd2565b9050602081019050919050565b82818337600083830152505050565b60006120dc6120d784612089565b612043565b9050828152602081018484840111156120f8576120f7612084565b5b6121038482856120ba565b509392505050565b600082601f8301126121205761211f611f6d565b5b81356121308482602086016120c9565b91505092915050565b600061214c6121478461205e565b612043565b9050806020840283018581111561216657612165611f77565b5b835b818110156121ad57803567ffffffffffffffff81111561218b5761218a611f6d565b5b808601612198898261210b565b85526020850194505050602081019050612168565b5050509392505050565b600082601f8301126121cc576121cb611f6d565b5b60026121d9848285612139565b91505092915050565b6000806000806000608086880312156121fe576121fd611edc565b5b600061220c88828901611f07565b955050602086013567ffffffffffffffff81111561222d5761222c611ee1565b5b61223988828901611f4e565b945050604086013567ffffffffffffffff81111561225a57612259611ee1565b5b61226688828901611f7c565b9350935050606086013567ffffffffffffffff81111561228957612288611ee1565b5b612295888289016121b7565b9150509295509295909350565b6000819050919050565b6122b5816122a2565b82525050565b60006020820190506122d060008301846122ac565b92915050565b6122df816122a2565b81146122ea57600080fd5b50565b6000813590506122fc816122d6565b92915050565b6000806040838503121561231957612318611edc565b5b600061232785828601611f07565b9250506020612338858286016122ed565b9150509250929050565b61234b81611ee6565b82525050565b60006020820190506123666000830184612342565b92915050565b600073ffffffffffffffffffffffffffffffffffffffff82169050919050565b60006123978261236c565b9050919050565b6123a78161238c565b82525050565b60006040820190506123c2600083018561239e565b6123cf602083018461239e565b9392505050565b7f4e487b7100000000000000000000000000000000000000000000000000000000600052603260045260246000fd5b7f4e487b7100000000000000000000000000000000000000000000000000000000600052601160045260246000fd5b600061243f826122a2565b915061244a836122a2565b9250827fffffffffffffffffffffffffffffffffffffffffffffffffffffffffffffffff0382111561247f5761247e612405565b5b828201905092915050565b6000612495826122a2565b91507fffffffffffffffffffffffffffffffffffffffffffffffffffffffffffffffff82036124c7576124c6612405565b5b600182019050919050565b60006040820190506124e760008301856122ac565b6124f460208301846122ac565b9392505050565b600060ff82169050919050565b612511816124fb565b811461251c57600080fd5b50565b60008135905061252e81612508565b92915050565b60006020828403121561254a57612549611edc565b5b60006125588482850161251f565b91505092915050565b61256a816124fb565b82525050565b60006020820190506125856000830184612561565b92915050565b600080fd5b600080fd5b600080fd5b600080833560016020038436030381126125b7576125b661258b565b5b80840192508235915067ffffffffffffffff8211156125d9576125d8612590565b5b6020830192506001820236038313156125f5576125f4612595565b5b509250929050565b6126068161238c565b811461261157600080fd5b50565b600081359050612623816125fd565b92915050565b60006020828403121561263f5761263e611edc565b5b600061264d84828501612614565b91505092915050565b600060208201905061266b600083018461239e565b92915050565b6000606082019050612686600083018661239e565b612693602083018561239e565b6126a060408301846122ac565b949350505050565b60008115159050919050565b6126bd816126a8565b81146126c857600080fd5b50565b6000815190506126da816126b4565b92915050565b6000602082840312156126f6576126f5611edc565b5b6000612704848285016126cb565b91505092915050565b600082825260208201905092915050565b600061272a838561270d565b93506127378385846120ba565b61274083611fd2565b840190509392505050565b600081549050919050565b600082825260208201905092915050565b60008190508160005260206000209050919050565b6127858161238c565b82525050565b6000612797838361277c565b60208301905092915050565b60008160001c9050919050565b600073ffffffffffffffffffffffffffffffffffffffff82169050919050565b60006127e36127de836127a3565b6127b0565b9050919050565b60006127f682546127d0565b9050919050565b6000600182019050919050565b60006128158261274b565b61281f8185612756565b935061282a83612767565b8060005b838110156128625761283f826127ea565b612849888261278b565b9750612854836127fd565b92505060018101905061282e565b5085935050505092915050565b600060029050919050565b600081905092915050565b6000819050919050565b600081519050919050565b600082825260208201905092915050565b60005b838110156128c95780820151818401526020810190506128ae565b838111156128d8576000848401525b50505050565b60006128e98261288f565b6128f3818561289a565b93506129038185602086016128ab565b61290c81611fd2565b840191505092915050565b600061292383836128de565b905092915050565b6000602082019050919050565b60006129438261286f565b61294d818561287a565b93508360208202850161295f85612885565b8060005b8581101561299b578484038952815161297c8582612917565b94506129878361292b565b925060208a01995050600181019050612963565b50829750879550505050505092915050565b60006101008201905081810360008301526129c9818b8d61271e565b90506129d8602083018a6122ac565b6129e5604083018961239e565b6129f2606083018861239e565b8181036080830152612a04818761280a565b9050612a1360a08301866122ac565b612a2060c08301856122ac565b81810360e0830152612a328184612938565b90509a9950505050505050505050565b6000612a4d826122a2565b9150612a58836122a2565b925082821015612a6b57612a6a612405565b5b828203905092915050565b6000606082019050612a8b60008301866122ac565b612a9860208301856122ac565b612aa560408301846122ac565b949350505050565b612ab6816126a8565b82525050565b6000604082019050612ad16000830185612aad565b612ade602083018461239e565b9392505050565b6000612af08261288f565b612afa818561270d565b9350612b0a8185602086016128ab565b612b1381611fd2565b840191505092915050565b600060a0820190508181036000830152612b388188612ae5565b9050612b476020830187612342565b612b5460408301866122ac565b612b6160608301856122ac565b612b6e60808301846122ac565b9695505050505050565b600081905092915050565b7f19457468657265756d205369676e6564204d6573736167653a0a333200000000600082015250565b6000612bb9601c83612b78565b9150612bc482612b83565b601c82019050919050565b6000819050919050565b612bea612be582611ee6565b612bcf565b82525050565b6000612bfb82612bac565b9150612c078284612bd9565b60208201915081905092915050565b6000608082019050612c2b6000830187612342565b612c386020830186612561565b612c456040830185612342565b612c526060830184612342565b95945050505050565b6000612c66826122a2565b9150612c71836122a2565b9250817fffffffffffffffffffffffffffffffffffffffffffffffffffffffffffffffff0483118215151615612caa57612ca9612405565b5b828202905092915050565b7f4e487b7100000000000000000000000000000000000000000000000000000000600052601260045260246000fd5b6000612cef826122a2565b9150612cfa836122a2565b925082612d0a57612d09612cb5565b5b828204905092915050565b7f4e487b7100000000000000000000000000000000000000000000000000000000600052602260045260246000fd5b60006002820490506001821680612d5c57607f821691505b602082108103612d6f57612d6e612d15565b5b5091905056fea2646970667358221220ea66b49a93dd47f0b829480d01acb314cf1041bfe7ebb505c9b17e74924bdf9964736f6c634300080d0033",
  "devdoc": {
    "kind": "dev",
    "methods": {
      "burySarcophagus(bytes32)": {
        "params": {
          "sarcoId": "the identifier of the sarcophagus"
        }
      },
      "createSarcophagus(bytes32,(string,address,uint256,uint256,uint8,uint256),(address,uint256,bytes32,uint8,bytes32,bytes32)[],string[2])": {
        "params": {
          "arweaveTxIds": "ordered pair of arweave tx ids: [sarcophagus payload tx, encrypted key share tx]",
          "sarcoId": "the identifier of the sarcophagus",
          "sarcophagusParams": "params to set on sarcophagus being created",
          "selectedArchaeologists": "the archaeologists the embalmer has selected to curse"
        },
        "returns": {
          "_0": "The index of the new sarcophagus in sarcophagusIdentifiers"
        }
      },
      "rewrapSarcophagus(bytes32,uint256)": {
        "params": {
          "resurrectionTime": "the new resurrection time",
          "sarcoId": "the identifier of the sarcophagus"
        }
      }
    },
    "version": 1
  },
  "userdoc": {
    "kind": "user",
    "methods": {
      "burySarcophagus(bytes32)": {
        "notice": "Terminates a sarcophagus by setting its resurrection time to infinity and returning locked bonds to all cursed archaeologists. Callable by the embalmer of a sarcophagus if its resurrection time has not passed, it has not been compromised by >k accusals, and it has not been buried."
      },
      "createSarcophagus(bytes32,(string,address,uint256,uint256,uint8,uint256),(address,uint256,bytes32,uint8,bytes32,bytes32)[],string[2])": {
        "notice": "Creates a sarcophagus with the supplied parameters and locks a portion of each archaeologist's freeBond equal to the diggingFees for the sarcophagus. Verifies that all supplied archaeologists have signed off on    - doubleHashedKeyShare assigned to them    - arweaveTxId for encrypted keyshares    - maximumRewrapInterval to be enforced for the lifetime of the sarcophagus    - creationTime of sarcophagus    - diggingFee to be paid to that archaeologist on all rewraps for the lifetime of the sarcophagus"
      },
      "rewrapSarcophagus(bytes32,uint256)": {
        "notice": "Updates the resurrectionTime on a sarcophagus. Callable by the embalmer of a sarcophagus if its resurrection time has not passed, it has not been compromised by >k accusals, and it has not been buried."
      }
    },
    "version": 1
  },
  "storageLayout": {
    "storage": [
      {
        "astId": 1779,
        "contract": "contracts/facets/EmbalmerFacet.sol:EmbalmerFacet",
        "label": "s",
        "offset": 0,
        "slot": "0",
        "type": "t_struct(AppStorage)4520_storage"
      }
    ],
    "types": {
      "t_address": {
        "encoding": "inplace",
        "label": "address",
        "numberOfBytes": "20"
      },
      "t_array(t_address)dyn_storage": {
        "base": "t_address",
        "encoding": "dynamic_array",
        "label": "address[]",
        "numberOfBytes": "32"
      },
      "t_array(t_bytes32)dyn_storage": {
        "base": "t_bytes32",
        "encoding": "dynamic_array",
        "label": "bytes32[]",
        "numberOfBytes": "32"
      },
      "t_array(t_string_storage)2_storage": {
        "base": "t_string_storage",
        "encoding": "inplace",
        "label": "string[2]",
        "numberOfBytes": "64"
      },
      "t_bool": {
        "encoding": "inplace",
        "label": "bool",
        "numberOfBytes": "1"
      },
      "t_bytes32": {
        "encoding": "inplace",
        "label": "bytes32",
        "numberOfBytes": "32"
      },
      "t_bytes_storage": {
        "encoding": "bytes",
        "label": "bytes",
        "numberOfBytes": "32"
      },
      "t_contract(IERC20)77": {
        "encoding": "inplace",
        "label": "contract IERC20",
        "numberOfBytes": "20"
      },
      "t_mapping(t_address,t_array(t_bytes32)dyn_storage)": {
        "encoding": "mapping",
        "key": "t_address",
        "label": "mapping(address => bytes32[])",
        "numberOfBytes": "32",
        "value": "t_array(t_bytes32)dyn_storage"
      },
      "t_mapping(t_address,t_struct(ArchaeologistProfile)4104_storage)": {
        "encoding": "mapping",
        "key": "t_address",
        "label": "mapping(address => struct LibTypes.ArchaeologistProfile)",
        "numberOfBytes": "32",
        "value": "t_struct(ArchaeologistProfile)4104_storage"
      },
      "t_mapping(t_address,t_struct(CursedArchaeologist)4091_storage)": {
        "encoding": "mapping",
        "key": "t_address",
        "label": "mapping(address => struct LibTypes.CursedArchaeologist)",
        "numberOfBytes": "32",
        "value": "t_struct(CursedArchaeologist)4091_storage"
      },
      "t_mapping(t_address,t_uint256)": {
        "encoding": "mapping",
        "key": "t_address",
        "label": "mapping(address => uint256)",
        "numberOfBytes": "32",
        "value": "t_uint256"
      },
      "t_mapping(t_bytes32,t_address)": {
        "encoding": "mapping",
        "key": "t_bytes32",
        "label": "mapping(bytes32 => address)",
        "numberOfBytes": "32",
        "value": "t_address"
      },
      "t_mapping(t_bytes32,t_struct(Sarcophagus)4082_storage)": {
        "encoding": "mapping",
        "key": "t_bytes32",
        "label": "mapping(bytes32 => struct LibTypes.Sarcophagus)",
        "numberOfBytes": "32",
        "value": "t_struct(Sarcophagus)4082_storage"
      },
      "t_string_storage": {
        "encoding": "bytes",
        "label": "string",
        "numberOfBytes": "32"
      },
      "t_struct(AppStorage)4520_storage": {
        "encoding": "inplace",
        "label": "struct AppStorage",
        "members": [
          {
            "astId": 4454,
            "contract": "contracts/facets/EmbalmerFacet.sol:EmbalmerFacet",
            "label": "sarcoToken",
            "offset": 0,
            "slot": "0",
            "type": "t_contract(IERC20)77"
          },
          {
            "astId": 4456,
            "contract": "contracts/facets/EmbalmerFacet.sol:EmbalmerFacet",
            "label": "totalProtocolFees",
            "offset": 0,
            "slot": "1",
            "type": "t_uint256"
          },
          {
            "astId": 4459,
            "contract": "contracts/facets/EmbalmerFacet.sol:EmbalmerFacet",
            "label": "protocolFeeBasePercentage",
            "offset": 0,
            "slot": "2",
            "type": "t_uint256"
          },
          {
            "astId": 4461,
            "contract": "contracts/facets/EmbalmerFacet.sol:EmbalmerFacet",
            "label": "gracePeriod",
            "offset": 0,
            "slot": "3",
            "type": "t_uint256"
          },
          {
            "astId": 4463,
            "contract": "contracts/facets/EmbalmerFacet.sol:EmbalmerFacet",
            "label": "expirationThreshold",
            "offset": 0,
            "slot": "4",
            "type": "t_uint256"
          },
          {
            "astId": 4469,
            "contract": "contracts/facets/EmbalmerFacet.sol:EmbalmerFacet",
            "label": "embalmerSarcophagi",
            "offset": 0,
            "slot": "5",
            "type": "t_mapping(t_address,t_array(t_bytes32)dyn_storage)"
          },
          {
            "astId": 4474,
            "contract": "contracts/facets/EmbalmerFacet.sol:EmbalmerFacet",
            "label": "archaeologistSarcophagi",
            "offset": 0,
            "slot": "6",
            "type": "t_mapping(t_address,t_array(t_bytes32)dyn_storage)"
          },
          {
            "astId": 4479,
            "contract": "contracts/facets/EmbalmerFacet.sol:EmbalmerFacet",
            "label": "recipientSarcophagi",
            "offset": 0,
            "slot": "7",
            "type": "t_mapping(t_address,t_array(t_bytes32)dyn_storage)"
          },
          {
            "astId": 4483,
            "contract": "contracts/facets/EmbalmerFacet.sol:EmbalmerFacet",
            "label": "doubleHashedShardArchaeologists",
            "offset": 0,
            "slot": "8",
            "type": "t_mapping(t_bytes32,t_address)"
          },
          {
            "astId": 4486,
            "contract": "contracts/facets/EmbalmerFacet.sol:EmbalmerFacet",
            "label": "sarcophagusIdentifiers",
            "offset": 0,
            "slot": "9",
            "type": "t_array(t_bytes32)dyn_storage"
          },
          {
            "astId": 4491,
            "contract": "contracts/facets/EmbalmerFacet.sol:EmbalmerFacet",
            "label": "sarcophagi",
            "offset": 0,
            "slot": "10",
            "type": "t_mapping(t_bytes32,t_struct(Sarcophagus)4082_storage)"
          },
          {
            "astId": 4494,
            "contract": "contracts/facets/EmbalmerFacet.sol:EmbalmerFacet",
            "label": "archaeologistProfileAddresses",
            "offset": 0,
            "slot": "11",
            "type": "t_array(t_address)dyn_storage"
          },
          {
            "astId": 4499,
            "contract": "contracts/facets/EmbalmerFacet.sol:EmbalmerFacet",
            "label": "archaeologistProfiles",
            "offset": 0,
            "slot": "12",
            "type": "t_mapping(t_address,t_struct(ArchaeologistProfile)4104_storage)"
          },
          {
            "astId": 4503,
            "contract": "contracts/facets/EmbalmerFacet.sol:EmbalmerFacet",
            "label": "archaeologistRewards",
            "offset": 0,
            "slot": "13",
            "type": "t_mapping(t_address,t_uint256)"
          },
          {
            "astId": 4509,
            "contract": "contracts/facets/EmbalmerFacet.sol:EmbalmerFacet",
            "label": "archaeologistSuccesses",
            "offset": 0,
            "slot": "14",
            "type": "t_mapping(t_address,t_array(t_bytes32)dyn_storage)"
          },
          {
            "astId": 4514,
            "contract": "contracts/facets/EmbalmerFacet.sol:EmbalmerFacet",
            "label": "archaeologistAccusals",
            "offset": 0,
            "slot": "15",
            "type": "t_mapping(t_address,t_array(t_bytes32)dyn_storage)"
          },
          {
            "astId": 4519,
            "contract": "contracts/facets/EmbalmerFacet.sol:EmbalmerFacet",
            "label": "archaeologistCleanups",
            "offset": 0,
            "slot": "16",
            "type": "t_mapping(t_address,t_array(t_bytes32)dyn_storage)"
          }
        ],
        "numberOfBytes": "544"
      },
      "t_struct(ArchaeologistProfile)4104_storage": {
        "encoding": "inplace",
        "label": "struct LibTypes.ArchaeologistProfile",
        "members": [
          {
            "astId": 4093,
            "contract": "contracts/facets/EmbalmerFacet.sol:EmbalmerFacet",
            "label": "exists",
            "offset": 0,
            "slot": "0",
            "type": "t_bool"
          },
          {
            "astId": 4095,
            "contract": "contracts/facets/EmbalmerFacet.sol:EmbalmerFacet",
            "label": "peerId",
            "offset": 0,
            "slot": "1",
            "type": "t_string_storage"
          },
          {
            "astId": 4097,
            "contract": "contracts/facets/EmbalmerFacet.sol:EmbalmerFacet",
            "label": "minimumDiggingFee",
            "offset": 0,
            "slot": "2",
            "type": "t_uint256"
          },
          {
            "astId": 4099,
            "contract": "contracts/facets/EmbalmerFacet.sol:EmbalmerFacet",
            "label": "maximumRewrapInterval",
            "offset": 0,
            "slot": "3",
            "type": "t_uint256"
          },
          {
            "astId": 4101,
            "contract": "contracts/facets/EmbalmerFacet.sol:EmbalmerFacet",
            "label": "freeBond",
            "offset": 0,
            "slot": "4",
            "type": "t_uint256"
          },
          {
            "astId": 4103,
            "contract": "contracts/facets/EmbalmerFacet.sol:EmbalmerFacet",
            "label": "cursedBond",
            "offset": 0,
            "slot": "5",
            "type": "t_uint256"
          }
        ],
        "numberOfBytes": "192"
      },
      "t_struct(CursedArchaeologist)4091_storage": {
        "encoding": "inplace",
        "label": "struct LibTypes.CursedArchaeologist",
        "members": [
          {
            "astId": 4084,
            "contract": "contracts/facets/EmbalmerFacet.sol:EmbalmerFacet",
            "label": "doubleHashedKeyShare",
            "offset": 0,
            "slot": "0",
            "type": "t_bytes32"
          },
          {
            "astId": 4086,
            "contract": "contracts/facets/EmbalmerFacet.sol:EmbalmerFacet",
            "label": "isAccused",
            "offset": 0,
            "slot": "1",
            "type": "t_bool"
          },
          {
            "astId": 4088,
            "contract": "contracts/facets/EmbalmerFacet.sol:EmbalmerFacet",
            "label": "diggingFee",
            "offset": 0,
            "slot": "2",
            "type": "t_uint256"
          },
          {
            "astId": 4090,
            "contract": "contracts/facets/EmbalmerFacet.sol:EmbalmerFacet",
            "label": "rawKeyShare",
            "offset": 0,
            "slot": "3",
            "type": "t_bytes_storage"
          }
        ],
        "numberOfBytes": "128"
      },
      "t_struct(Sarcophagus)4082_storage": {
        "encoding": "inplace",
        "label": "struct LibTypes.Sarcophagus",
        "members": [
          {
            "astId": 4057,
            "contract": "contracts/facets/EmbalmerFacet.sol:EmbalmerFacet",
            "label": "resurrectionTime",
            "offset": 0,
            "slot": "0",
            "type": "t_uint256"
          },
          {
            "astId": 4059,
            "contract": "contracts/facets/EmbalmerFacet.sol:EmbalmerFacet",
            "label": "isCompromised",
            "offset": 0,
            "slot": "1",
            "type": "t_bool"
          },
          {
            "astId": 4061,
            "contract": "contracts/facets/EmbalmerFacet.sol:EmbalmerFacet",
            "label": "name",
            "offset": 0,
            "slot": "2",
            "type": "t_string_storage"
          },
          {
            "astId": 4063,
            "contract": "contracts/facets/EmbalmerFacet.sol:EmbalmerFacet",
            "label": "threshold",
            "offset": 0,
            "slot": "3",
            "type": "t_uint8"
          },
          {
            "astId": 4065,
            "contract": "contracts/facets/EmbalmerFacet.sol:EmbalmerFacet",
            "label": "maximumRewrapInterval",
            "offset": 0,
            "slot": "4",
            "type": "t_uint256"
          },
          {
            "astId": 4069,
            "contract": "contracts/facets/EmbalmerFacet.sol:EmbalmerFacet",
            "label": "arweaveTxIds",
            "offset": 0,
            "slot": "5",
            "type": "t_array(t_string_storage)2_storage"
          },
          {
            "astId": 4071,
            "contract": "contracts/facets/EmbalmerFacet.sol:EmbalmerFacet",
            "label": "embalmerAddress",
            "offset": 0,
            "slot": "7",
            "type": "t_address"
          },
          {
            "astId": 4073,
            "contract": "contracts/facets/EmbalmerFacet.sol:EmbalmerFacet",
            "label": "recipientAddress",
            "offset": 0,
            "slot": "8",
            "type": "t_address"
          },
          {
            "astId": 4076,
            "contract": "contracts/facets/EmbalmerFacet.sol:EmbalmerFacet",
            "label": "cursedArchaeologistAddresses",
            "offset": 0,
            "slot": "9",
            "type": "t_array(t_address)dyn_storage"
          },
          {
            "astId": 4081,
            "contract": "contracts/facets/EmbalmerFacet.sol:EmbalmerFacet",
            "label": "cursedArchaeologists",
            "offset": 0,
            "slot": "10",
            "type": "t_mapping(t_address,t_struct(CursedArchaeologist)4091_storage)"
          }
        ],
        "numberOfBytes": "352"
      },
      "t_uint256": {
        "encoding": "inplace",
        "label": "uint256",
        "numberOfBytes": "32"
      },
      "t_uint8": {
        "encoding": "inplace",
        "label": "uint8",
        "numberOfBytes": "1"
      }
    }
  }
}