{
  "address": "0xe2FB94C6fF75674b58d70F11c287ca8C5d450398",
  "abi": [
    {
      "inputs": [
        {
          "internalType": "address",
          "name": "archaeologistAddress",
          "type": "address"
        }
      ],
      "name": "ArchaeologistListContainsDuplicate",
      "type": "error"
    },
    {
      "inputs": [
        {
          "internalType": "bool",
          "name": "exists",
          "type": "bool"
        },
        {
          "internalType": "address",
          "name": "archaeologist",
          "type": "address"
        }
      ],
      "name": "ArchaeologistProfileExistsShouldBe",
      "type": "error"
    },
    {
      "inputs": [
        {
          "internalType": "bytes",
          "name": "publicKey",
          "type": "bytes"
        }
      ],
      "name": "DuplicatePublicKey",
      "type": "error"
    },
    {
      "inputs": [
        {
          "internalType": "address",
          "name": "recoveredAddress",
          "type": "address"
        },
        {
          "internalType": "address",
          "name": "expectedAddress",
          "type": "address"
        }
      ],
      "name": "InvalidSignature",
      "type": "error"
    },
    {
      "inputs": [
        {
          "internalType": "uint256",
          "name": "currentTime",
          "type": "uint256"
        },
        {
          "internalType": "uint256",
          "name": "newResurrectionTime",
          "type": "uint256"
        }
      ],
      "name": "NewResurrectionTimeInPast",
      "type": "error"
    },
    {
      "inputs": [],
      "name": "NewResurrectionTimeIsZero",
      "type": "error"
    },
    {
      "inputs": [
        {
          "internalType": "uint256",
          "name": "resurrectionTime",
          "type": "uint256"
        },
        {
          "internalType": "uint256",
          "name": "sarcophagusMaximumRewrapInterval",
          "type": "uint256"
        },
        {
          "internalType": "uint256",
          "name": "maximumPermissibleResurrectionTime",
          "type": "uint256"
        }
      ],
      "name": "NewResurrectionTimeTooFarInFuture",
      "type": "error"
    },
    {
      "inputs": [],
      "name": "NoArchaeologistsProvided",
      "type": "error"
    },
    {
      "inputs": [
        {
          "internalType": "uint256",
          "name": "cursedBond",
          "type": "uint256"
        },
        {
          "internalType": "uint256",
          "name": "amount",
          "type": "uint256"
        }
      ],
      "name": "NotEnoughCursedBond",
      "type": "error"
    },
    {
      "inputs": [
        {
          "internalType": "uint256",
          "name": "freeBond",
          "type": "uint256"
        },
        {
          "internalType": "uint256",
          "name": "amount",
          "type": "uint256"
        }
      ],
      "name": "NotEnoughFreeBond",
      "type": "error"
    },
    {
      "inputs": [
        {
          "internalType": "uint256",
          "name": "currentTime",
          "type": "uint256"
        },
        {
          "internalType": "uint256",
          "name": "resurrectionTime",
          "type": "uint256"
        }
      ],
      "name": "ResurrectionTimeInPast",
      "type": "error"
    },
    {
      "inputs": [
        {
          "internalType": "uint256",
          "name": "resurrectionTime",
          "type": "uint256"
        },
        {
          "internalType": "uint256",
          "name": "maxResurrectionTime",
          "type": "uint256"
        }
      ],
      "name": "ResurrectionTimePastMaxResurrectionTime",
      "type": "error"
    },
    {
      "inputs": [
        {
          "internalType": "uint256",
          "name": "resurrectionTime",
          "type": "uint256"
        },
        {
          "internalType": "uint256",
          "name": "sarcophagusMaximumRewrapInterval",
          "type": "uint256"
        },
        {
          "internalType": "uint256",
          "name": "maximumPermissibleResurrectionTime",
          "type": "uint256"
        }
      ],
      "name": "ResurrectionTimeTooFarInFuture",
      "type": "error"
    },
    {
      "inputs": [
        {
          "internalType": "uint256",
          "name": "resurrectionTime",
          "type": "uint256"
        },
        {
          "internalType": "uint256",
          "name": "previousResurrectionTime",
          "type": "uint256"
        }
      ],
      "name": "ResurrectionTimeTooFarPastPreviousResurrectionTime",
      "type": "error"
    },
    {
      "inputs": [
        {
          "internalType": "bytes32",
          "name": "sarcoId",
          "type": "bytes32"
        }
      ],
      "name": "SarcophagusAlreadyExists",
      "type": "error"
    },
    {
      "inputs": [
        {
          "internalType": "bytes32",
          "name": "sarcoId",
          "type": "bytes32"
        }
      ],
      "name": "SarcophagusCompromised",
      "type": "error"
    },
    {
      "inputs": [
        {
          "internalType": "bytes32",
          "name": "sarcoId",
          "type": "bytes32"
        }
      ],
      "name": "SarcophagusDoesNotExist",
      "type": "error"
    },
    {
      "inputs": [
        {
          "internalType": "bytes32",
          "name": "sarcoId",
          "type": "bytes32"
        }
      ],
      "name": "SarcophagusInactive",
      "type": "error"
    },
    {
      "inputs": [
        {
          "internalType": "uint256",
          "name": "currentTime",
          "type": "uint256"
        },
        {
          "internalType": "uint256",
          "name": "creationTime",
          "type": "uint256"
        },
        {
          "internalType": "uint256",
          "name": "creationDeadline",
          "type": "uint256"
        }
      ],
      "name": "SarcophagusParametersExpired",
      "type": "error"
    },
    {
      "inputs": [
        {
          "internalType": "address",
          "name": "sender",
          "type": "address"
        },
        {
          "internalType": "address",
          "name": "embalmer",
          "type": "address"
        }
      ],
      "name": "SenderNotEmbalmer",
      "type": "error"
    },
    {
      "inputs": [],
      "name": "ThresholdCannotBeZero",
      "type": "error"
    },
    {
      "inputs": [
        {
          "internalType": "uint8",
          "name": "threshold",
          "type": "uint8"
        },
        {
          "internalType": "uint256",
          "name": "totalNumberOfArchaeologists",
          "type": "uint256"
        }
      ],
      "name": "ThresholdGreaterThanTotalNumberOfArchaeologists",
      "type": "error"
    },
    {
      "anonymous": false,
      "inputs": [
        {
          "indexed": true,
          "internalType": "bytes32",
          "name": "sarcoId",
          "type": "bytes32"
        }
      ],
      "name": "BurySarcophagus",
      "type": "event"
    },
    {
      "anonymous": false,
      "inputs": [
        {
          "indexed": true,
          "internalType": "bytes32",
          "name": "sarcoId",
          "type": "bytes32"
        },
        {
          "indexed": false,
          "internalType": "string",
          "name": "name",
          "type": "string"
        },
        {
          "indexed": false,
          "internalType": "uint256",
          "name": "resurrectionTime",
          "type": "uint256"
        },
        {
          "indexed": false,
          "internalType": "address",
          "name": "embalmer",
          "type": "address"
        },
        {
          "indexed": false,
          "internalType": "address",
          "name": "recipient",
          "type": "address"
        },
        {
          "indexed": false,
          "internalType": "address[]",
          "name": "cursedArchaeologists",
          "type": "address[]"
        },
        {
          "indexed": false,
          "internalType": "uint256",
          "name": "totalDiggingFees",
          "type": "uint256"
        },
        {
          "indexed": false,
          "internalType": "uint256",
          "name": "createSarcophagusProtocolFees",
          "type": "uint256"
        },
        {
          "indexed": false,
          "internalType": "string",
          "name": "arweaveTxId",
          "type": "string"
        }
      ],
      "name": "CreateSarcophagus",
      "type": "event"
    },
    {
      "anonymous": false,
      "inputs": [
        {
          "indexed": true,
          "internalType": "bytes32",
          "name": "sarcoId",
          "type": "bytes32"
        },
        {
          "indexed": false,
          "internalType": "uint256",
          "name": "resurrectionTime",
          "type": "uint256"
        },
        {
          "indexed": false,
          "internalType": "uint256",
          "name": "totalDiggingFees",
          "type": "uint256"
        },
        {
          "indexed": false,
          "internalType": "uint256",
          "name": "rewrapSarcophagusProtocolFees",
          "type": "uint256"
        }
      ],
      "name": "RewrapSarcophagus",
      "type": "event"
    },
    {
      "inputs": [
        {
          "internalType": "bytes32",
          "name": "sarcoId",
          "type": "bytes32"
        }
      ],
      "name": "burySarcophagus",
      "outputs": [],
      "stateMutability": "nonpayable",
      "type": "function"
    },
    {
      "inputs": [
        {
          "internalType": "bytes32",
          "name": "sarcoId",
          "type": "bytes32"
        },
        {
          "components": [
            {
              "internalType": "string",
              "name": "name",
              "type": "string"
            },
            {
              "internalType": "uint256",
              "name": "maximumRewrapInterval",
              "type": "uint256"
            },
            {
              "internalType": "uint256",
              "name": "maximumResurrectionTime",
              "type": "uint256"
            },
            {
              "internalType": "address",
              "name": "recipientAddress",
              "type": "address"
            },
            {
              "internalType": "uint256",
              "name": "resurrectionTime",
              "type": "uint256"
            },
            {
              "internalType": "uint8",
              "name": "threshold",
              "type": "uint8"
            },
            {
              "internalType": "uint256",
              "name": "creationTime",
              "type": "uint256"
            }
          ],
          "internalType": "struct EmbalmerFacet.SarcophagusParams",
          "name": "sarcophagusParams",
          "type": "tuple"
        },
        {
          "components": [
            {
              "internalType": "bytes",
              "name": "publicKey",
              "type": "bytes"
            },
            {
              "internalType": "address",
              "name": "archAddress",
              "type": "address"
            },
            {
              "internalType": "uint256",
              "name": "diggingFeePerSecond",
              "type": "uint256"
            },
            {
              "internalType": "uint8",
              "name": "v",
              "type": "uint8"
            },
            {
              "internalType": "bytes32",
              "name": "r",
              "type": "bytes32"
            },
            {
              "internalType": "bytes32",
              "name": "s",
              "type": "bytes32"
            }
          ],
          "internalType": "struct EmbalmerFacet.CurseParams[]",
          "name": "selectedArchaeologists",
          "type": "tuple[]"
        },
        {
          "internalType": "string",
          "name": "arweaveTxId",
          "type": "string"
        }
      ],
      "name": "createSarcophagus",
      "outputs": [],
      "stateMutability": "nonpayable",
      "type": "function"
    },
    {
      "inputs": [
        {
          "internalType": "bytes32",
          "name": "sarcoId",
          "type": "bytes32"
        },
        {
          "internalType": "uint256",
          "name": "resurrectionTime",
          "type": "uint256"
        }
      ],
      "name": "rewrapSarcophagus",
      "outputs": [],
      "stateMutability": "nonpayable",
      "type": "function"
    }
  ],
  "transactionHash": "0x01e088305bf3ab1d1058f2f62707bef9211885ed91d349c1b867a305d5e05a85",
  "args": [],
  "numDeployments": 2,
  "solcInputHash": "90388b3f73084528aeb22ed25c7f07ee",
  "bytecode": "0x608060405234801561001057600080fd5b5061313e806100206000396000f3fe608060405234801561001057600080fd5b50600436106100415760003560e01c80630511f2ec146100465780630bec465214610062578063ab7d79691461007e575b600080fd5b610060600480360381019061005b9190612461565b61009a565b005b61007c6004803603810190610077919061256d565b610434565b005b61009860048036038101906100939190612666565b610ede565b005b60006100a46118e8565b9050600081600c0160008481526020019081526020016000209050600081600001540361010857826040517f018da6880000000000000000000000000000000000000000000000000000000081526004016100ff91906126b5565b60405180910390fd5b8060020160009054906101000a900460ff161561015c57826040517f9af72b8600000000000000000000000000000000000000000000000000000000815260040161015391906126b5565b60405180910390fd5b7fffffffffffffffffffffffffffffffffffffffffffffffffffffffffffffffff8160000154036101c457826040517f7c6a6d700000000000000000000000000000000000000000000000000000000081526004016101bb91906126b5565b60405180910390fd5b3373ffffffffffffffffffffffffffffffffffffffff168160070160009054906101000a900473ffffffffffffffffffffffffffffffffffffffff1673ffffffffffffffffffffffffffffffffffffffff161461027e57338160070160009054906101000a900473ffffffffffffffffffffffffffffffffffffffff166040517f0e37d99c000000000000000000000000000000000000000000000000000000008152600401610275929190612711565b60405180910390fd5b806000015442106102cc574281600001546040517f2458293a0000000000000000000000000000000000000000000000000000000081526004016102c3929190612749565b60405180910390fd5b600081600901905060005b81805490508110156103d757600083600a0160008484815481106102fe576102fd612772565b5b9060005260206000200160009054906101000a900473ffffffffffffffffffffffffffffffffffffffff1673ffffffffffffffffffffffffffffffffffffffff1673ffffffffffffffffffffffffffffffffffffffff16815260200190815260200160002090508060030160009054906101000a900460ff166103c3576103c28684848154811061039257610391612772565b5b9060005260206000200160009054906101000a900473ffffffffffffffffffffffffffffffffffffffff16611915565b5b5080806103cf906127d0565b9150506102d7565b507fffffffffffffffffffffffffffffffffffffffffffffffffffffffffffffffff8260000181905550837f3a0205aa93b1a96da7d6405b2967f91b441383623de2d1ee3b27bfd1642b167a60405160405180910390a250505050565b600061043e6118e8565b9050600081600c01600089815260200190815260200160002060000154111561049e57866040517fb9d0d58400000000000000000000000000000000000000000000000000000000815260040161049591906126b5565b60405180910390fd5b80600501548660c001356104b29190612818565b42111561051157428660c0013582600501548860c001356104d39190612818565b6040517ffafba4950000000000000000000000000000000000000000000000000000000081526004016105089392919061286e565b60405180910390fd5b8560800135421061055f574286608001356040517f2458293a000000000000000000000000000000000000000000000000000000008152600401610556929190612749565b60405180910390fd5b85608001358660200135426105749190612818565b10156105d257856080013586602001358760200135426105949190612818565b6040517f3d7ad6900000000000000000000000000000000000000000000000000000000081526004016105c99392919061286e565b60405180910390fd5b85604001358660800135111561062957856080013586604001356040517f7532a1b0000000000000000000000000000000000000000000000000000000008152600401610620929190612749565b60405180910390fd5b60008585905003610666576040517fb274cdd900000000000000000000000000000000000000000000000000000000815260040160405180910390fd5b60008660a001602081019061067b91906128de565b60ff16036106b5576040517ff412416600000000000000000000000000000000000000000000000000000000815260040160405180910390fd5b848490508660a00160208101906106cc91906128de565b60ff161115610729578560a00160208101906106e891906128de565b858590506040517fa44e438a00000000000000000000000000000000000000000000000000000000815260040161072092919061291a565b60405180910390fd5b600081600c01600089815260200190815260200160002090508680600001906107529190612952565b82600301919061076392919061226e565b508660a001602081019061077791906128de565b8160020160026101000a81548160ff021916908360ff160217905550866080013581600001819055508660c001358160010181905550866020013581600401819055508660400135816005018190555083838260060191906107da92919061226e565b50338160070160006101000a81548173ffffffffffffffffffffffffffffffffffffffff021916908373ffffffffffffffffffffffffffffffffffffffff16021790555086606001602081019061083191906129e1565b8160080160006101000a81548173ffffffffffffffffffffffffffffffffffffffff021916908373ffffffffffffffffffffffffffffffffffffffff1602179055508585905067ffffffffffffffff8111156108905761088f612a0e565b5b6040519080825280602002602001820160405280156108be5781602001602082028036833780820191505090505b508160090190805190602001906108d69291906122f4565b50816003015481600b01819055506000805b87879050811015610ca65761093288888381811061090957610908612772565b5b905060200281019061091b9190612a3d565b602001602081019061092d91906129e1565b611aa0565b600083600a0160008a8a8581811061094d5761094c612772565b5b905060200281019061095f9190612a3d565b602001602081019061097191906129e1565b73ffffffffffffffffffffffffffffffffffffffff1673ffffffffffffffffffffffffffffffffffffffff16815260200190815260200160002060020180546109b990612a94565b905014610a33578787828181106109d3576109d2612772565b5b90506020028101906109e59190612a3d565b60200160208101906109f791906129e1565b6040517f11298b2f000000000000000000000000000000000000000000000000000000008152600401610a2a9190612ac5565b60405180910390fd5b600073ffffffffffffffffffffffffffffffffffffffff1684600b01898984818110610a6257610a61612772565b5b9050602002810190610a749190612a3d565b8060000190610a839190612ae0565b604051610a91929190612b82565b908152602001604051809103902060009054906101000a900473ffffffffffffffffffffffffffffffffffffffff1673ffffffffffffffffffffffffffffffffffffffff1614610b4c57878782818110610aee57610aed612772565b5b9050602002810190610b009190612a3d565b8060000190610b0f9190612ae0565b6040517f65453fd5000000000000000000000000000000000000000000000000000000008152600401610b43929190612bea565b60405180910390fd5b610b8889602001358a604001358b60c001358b8b86818110610b7157610b70612772565b5b9050602002810190610b839190612a3d565b611b3c565b6000610bb98b8a8a85818110610ba157610ba0612772565b5b9050602002810190610bb39190612a3d565b84611cb4565b90508083610bc79190612818565b9250888883818110610bdc57610bdb612772565b5b9050602002810190610bee9190612a3d565b6020016020810190610c0091906129e1565b85600b018a8a85818110610c1757610c16612772565b5b9050602002810190610c299190612a3d565b8060000190610c389190612ae0565b604051610c46929190612b82565b908152602001604051809103902060006101000a81548173ffffffffffffffffffffffffffffffffffffffff021916908373ffffffffffffffffffffffffffffffffffffffff160217905550508080610c9e906127d0565b9150506108e8565b508260080160003373ffffffffffffffffffffffffffffffffffffffff1673ffffffffffffffffffffffffffffffffffffffff16815260200190815260200160002089908060018154018082558091505060019003906000526020600020016000909190919091505582600a016000896060016020810190610d2891906129e1565b73ffffffffffffffffffffffffffffffffffffffff1673ffffffffffffffffffffffffffffffffffffffff1681526020019081526020016000208990806001815401808255809150506001900390600052602060002001600090919091909150556000610d9482611fc7565b905080846001016000828254610daa9190612818565b925050819055508360000160009054906101000a900473ffffffffffffffffffffffffffffffffffffffff1673ffffffffffffffffffffffffffffffffffffffff166323b872dd33308486610dff9190612818565b6040518463ffffffff1660e01b8152600401610e1d93929190612c0e565b6020604051808303816000875af1158015610e3c573d6000803e3d6000fd5b505050506040513d601f19601f82011682018060405250810190610e609190612c7d565b50897f79b5ec1668a72e295838ca20013c4502cce4b5e7a00d4c01cd88936b26303aad8a8060000190610e939190612952565b8c60800135338e6060016020810190610eac91906129e1565b8960090189898f8f604051610eca9a99989796959493929190612e0c565b60405180910390a250505050505050505050565b6000610ee86118e8565b9050600081600c01600085815260200190815260200160002090506000816000015403610f4c57836040517f018da688000000000000000000000000000000000000000000000000000000008152600401610f4391906126b5565b60405180910390fd5b60008303610f86576040517f1406f88c00000000000000000000000000000000000000000000000000000000815260040160405180910390fd5b8060020160009054906101000a900460ff1615610fda57836040517f9af72b86000000000000000000000000000000000000000000000000000000008152600401610fd191906126b5565b60405180910390fd5b7fffffffffffffffffffffffffffffffffffffffffffffffffffffffffffffffff81600001540361104257836040517f7c6a6d7000000000000000000000000000000000000000000000000000000000815260040161103991906126b5565b60405180910390fd5b3373ffffffffffffffffffffffffffffffffffffffff168160070160009054906101000a900473ffffffffffffffffffffffffffffffffffffffff1673ffffffffffffffffffffffffffffffffffffffff16146110fc57338160070160009054906101000a900473ffffffffffffffffffffffffffffffffffffffff166040517f0e37d99c0000000000000000000000000000000000000000000000000000000081526004016110f3929190612711565b60405180910390fd5b8060000154421061114a574281600001546040517f2458293a000000000000000000000000000000000000000000000000000000008152600401611141929190612749565b60405180910390fd5b8242106111905742836040517f3c6870c0000000000000000000000000000000000000000000000000000000008152600401611187929190612749565b60405180910390fd5b828160040154426111a19190612818565b10156111fb578281600401548260040154426111bd9190612818565b6040517fca9b0f900000000000000000000000000000000000000000000000000000000081526004016111f29392919061286e565b60405180910390fd5b828160050154101561124a578281600501546040517f7532a1b0000000000000000000000000000000000000000000000000000000008152600401611241929190612749565b60405180910390fd5b600080826009019050600083600b0154905060005b82805490508110156117b757600085600a01600085848154811061128657611285612772565b5b9060005260206000200160009054906101000a900473ffffffffffffffffffffffffffffffffffffffff1673ffffffffffffffffffffffffffffffffffffffff1673ffffffffffffffffffffffffffffffffffffffff16815260200190815260200160002090508060030160009054906101000a900460ff166117a3576000866001015487600001546113199190612ea3565b82600001546113289190612ed7565b90506000428a6113389190612ea3565b83600001546113479190612ed7565b90508181111561150157600060648684846113629190612ea3565b61136c9190612ed7565b6113769190612f60565b9050828111156113c3578a89600001546040517f48d069230000000000000000000000000000000000000000000000000000000081526004016113ba929190612749565b60405180910390fd5b808a600d0160008988815481106113dd576113dc612772565b5b9060005260206000200160009054906101000a900473ffffffffffffffffffffffffffffffffffffffff1673ffffffffffffffffffffffffffffffffffffffff1673ffffffffffffffffffffffffffffffffffffffff16815260200190815260200160002060050160008282546114549190612818565b9250508190555080836114679190612ea3565b8a600e0160008988815481106114805761147f612772565b5b9060005260206000200160009054906101000a900473ffffffffffffffffffffffffffffffffffffffff1673ffffffffffffffffffffffffffffffffffffffff1673ffffffffffffffffffffffffffffffffffffffff16815260200190815260200160002060008282546114f49190612818565b9250508190555050611792565b818110156116fb576000606486838561151a9190612ea3565b6115249190612ed7565b61152e9190612f60565b9050808a600d01600089888154811061154a57611549612772565b5b9060005260206000200160009054906101000a900473ffffffffffffffffffffffffffffffffffffffff1673ffffffffffffffffffffffffffffffffffffffff1673ffffffffffffffffffffffffffffffffffffffff16815260200190815260200160002060050160008282546115c19190612ea3565b92505081905550808a600d0160008988815481106115e2576115e1612772565b5b9060005260206000200160009054906101000a900473ffffffffffffffffffffffffffffffffffffffff1673ffffffffffffffffffffffffffffffffffffffff1673ffffffffffffffffffffffffffffffffffffffff16815260200190815260200160002060040160008282546116599190612818565b92505081905550828a600e01600089888154811061167a57611679612772565b5b9060005260206000200160009054906101000a900473ffffffffffffffffffffffffffffffffffffffff1673ffffffffffffffffffffffffffffffffffffffff1673ffffffffffffffffffffffffffffffffffffffff16815260200190815260200160002060008282546116ee9190612818565b9250508190555050611791565b8189600e01600088878154811061171557611714612772565b5b9060005260206000200160009054906101000a900473ffffffffffffffffffffffffffffffffffffffff1673ffffffffffffffffffffffffffffffffffffffff1673ffffffffffffffffffffffffffffffffffffffff16815260200190815260200160002060008282546117899190612818565b925050819055505b5b808761179e9190612818565b965050505b5080806117af906127d0565b91505061125f565b5060006117c384611fc7565b9050808660010160008282546117d99190612818565b925050819055508685600001819055504285600101819055508560000160009054906101000a900473ffffffffffffffffffffffffffffffffffffffff1673ffffffffffffffffffffffffffffffffffffffff166323b872dd333084886118409190612818565b6040518463ffffffff1660e01b815260040161185e93929190612c0e565b6020604051808303816000875af115801561187d573d6000803e3d6000fd5b505050506040513d601f19601f820116820180604052508101906118a19190612c7d565b50877ff2ded5f77c6de574fac210979efbdd01ff3071d109e50651be4e05211f6e49438886846040516118d69392919061286e565b60405180910390a25050505050505050565b6000807f2319d9fa277d38834e73ba5e2482efd90323373359a32bb0c96b78353987994190508091505090565b600061191f6118e8565b9050600081600c0160008581526020019081526020016000209050600082600c016000868152602001908152602001600020600a0160008573ffffffffffffffffffffffffffffffffffffffff1673ffffffffffffffffffffffffffffffffffffffff16815260200190815260200160002090506000826001015483600001546119a99190612ea3565b82600001546119b89190612ed7565b90506000606484600b0154836119ce9190612ed7565b6119d89190612f60565b90506119e48682611ff8565b8085600d0160008873ffffffffffffffffffffffffffffffffffffffff1673ffffffffffffffffffffffffffffffffffffffff1681526020019081526020016000206004016000828254611a389190612818565b925050819055508185600e0160008873ffffffffffffffffffffffffffffffffffffffff1673ffffffffffffffffffffffffffffffffffffffff1681526020019081526020016000206000828254611a909190612818565b9250508190555050505050505050565b6000611aaa6118e8565b9050600081600d0160008473ffffffffffffffffffffffffffffffffffffffff1673ffffffffffffffffffffffffffffffffffffffff1681526020019081526020016000206000015403611b38576001826040517f2eeb3571000000000000000000000000000000000000000000000000000000008152600401611b2f929190612fa0565b60405180910390fd5b5050565b6000818060000190611b4e9190612ae0565b8686856040013587604051602001611b6b96959493929190612fc9565b60405160208183030381529060405280519060200120604051602001611b91919061309d565b6040516020818303038152906040528051906020012090506000600182846060016020810190611bc191906128de565b85608001358660a0013560405160008152602001604052604051611be894939291906130c3565b6020604051602081039080840390855afa158015611c0a573d6000803e3d6000fd5b505050602060405103519050826020016020810190611c2991906129e1565b73ffffffffffffffffffffffffffffffffffffffff168173ffffffffffffffffffffffffffffffffffffffff1614611cac5780836020016020810190611c6f91906129e1565b6040517f42d750dc000000000000000000000000000000000000000000000000000000008152600401611ca3929190612711565b60405180910390fd5b505050505050565b600080611cbf6118e8565b9050600081600c01600087815260200190815260200160002090506040518060800160405280866040013581526020016000801b8152602001868060000190611d089190612ae0565b8080601f016020809104026020016040519081016040528093929190818152602001838380828437600081840152601f19601f8201169050808301925050505050505081526020016000151581525081600a016000876020016020810190611d7091906129e1565b73ffffffffffffffffffffffffffffffffffffffff1673ffffffffffffffffffffffffffffffffffffffff16815260200190815260200160002060008201518160000155602082015181600101556040820151816002019080519060200190611dda92919061237e565b5060608201518160030160006101000a81548160ff021916908315150217905550905050846020016020810190611e1191906129e1565b816009018581548110611e2757611e26612772565b5b9060005260206000200160006101000a81548173ffffffffffffffffffffffffffffffffffffffff021916908373ffffffffffffffffffffffffffffffffffffffff160217905550600081600101548260000154611e859190612ea3565b8660400135611e949190612ed7565b905060006064846003015483611eaa9190612ed7565b611eb49190612f60565b9050611ed2876020016020810190611ecc91906129e1565b82612133565b8084600d016000896020016020810190611eec91906129e1565b73ffffffffffffffffffffffffffffffffffffffff1673ffffffffffffffffffffffffffffffffffffffff1681526020019081526020016000206005016000828254611f389190612818565b92505081905550836009016000886020016020810190611f5891906129e1565b73ffffffffffffffffffffffffffffffffffffffff1673ffffffffffffffffffffffffffffffffffffffff168152602001908152602001600020889080600181540180825580915050600190039060005260206000200160009091909190915055819450505050509392505050565b600080611fd26118e8565b90506064816002015484611fe69190612ed7565b611ff09190612f60565b915050919050565b60006120026118e8565b905080600d0160008473ffffffffffffffffffffffffffffffffffffffff1673ffffffffffffffffffffffffffffffffffffffff168152602001908152602001600020600501548211156120d35780600d0160008473ffffffffffffffffffffffffffffffffffffffff1673ffffffffffffffffffffffffffffffffffffffff16815260200190815260200160002060050154826040517faf5a111b0000000000000000000000000000000000000000000000000000000081526004016120ca929190612749565b60405180910390fd5b8181600d0160008573ffffffffffffffffffffffffffffffffffffffff1673ffffffffffffffffffffffffffffffffffffffff16815260200190815260200160002060050160008282546121279190612ea3565b92505081905550505050565b600061213d6118e8565b905080600d0160008473ffffffffffffffffffffffffffffffffffffffff1673ffffffffffffffffffffffffffffffffffffffff1681526020019081526020016000206004015482111561220e5780600d0160008473ffffffffffffffffffffffffffffffffffffffff1673ffffffffffffffffffffffffffffffffffffffff16815260200190815260200160002060040154826040517fa4e3bead000000000000000000000000000000000000000000000000000000008152600401612205929190612749565b60405180910390fd5b8181600d0160008573ffffffffffffffffffffffffffffffffffffffff1673ffffffffffffffffffffffffffffffffffffffff16815260200190815260200160002060040160008282546122629190612ea3565b92505081905550505050565b82805461227a90612a94565b90600052602060002090601f01602090048101928261229c57600085556122e3565b82601f106122b557803560ff19168380011785556122e3565b828001600101855582156122e3579182015b828111156122e25782358255916020019190600101906122c7565b5b5090506122f09190612404565b5090565b82805482825590600052602060002090810192821561236d579160200282015b8281111561236c5782518260006101000a81548173ffffffffffffffffffffffffffffffffffffffff021916908373ffffffffffffffffffffffffffffffffffffffff16021790555091602001919060010190612314565b5b50905061237a9190612404565b5090565b82805461238a90612a94565b90600052602060002090601f0160209004810192826123ac57600085556123f3565b82601f106123c557805160ff19168380011785556123f3565b828001600101855582156123f3579182015b828111156123f25782518255916020019190600101906123d7565b5b5090506124009190612404565b5090565b5b8082111561241d576000816000905550600101612405565b5090565b600080fd5b600080fd5b6000819050919050565b61243e8161242b565b811461244957600080fd5b50565b60008135905061245b81612435565b92915050565b60006020828403121561247757612476612421565b5b60006124858482850161244c565b91505092915050565b600080fd5b600060e082840312156124a9576124a861248e565b5b81905092915050565b600080fd5b600080fd5b600080fd5b60008083601f8401126124d7576124d66124b2565b5b8235905067ffffffffffffffff8111156124f4576124f36124b7565b5b6020830191508360208202830111156125105761250f6124bc565b5b9250929050565b60008083601f84011261252d5761252c6124b2565b5b8235905067ffffffffffffffff81111561254a576125496124b7565b5b602083019150836001820283011115612566576125656124bc565b5b9250929050565b6000806000806000806080878903121561258a57612589612421565b5b600061259889828a0161244c565b965050602087013567ffffffffffffffff8111156125b9576125b8612426565b5b6125c589828a01612493565b955050604087013567ffffffffffffffff8111156125e6576125e5612426565b5b6125f289828a016124c1565b9450945050606087013567ffffffffffffffff81111561261557612614612426565b5b61262189828a01612517565b92509250509295509295509295565b6000819050919050565b61264381612630565b811461264e57600080fd5b50565b6000813590506126608161263a565b92915050565b6000806040838503121561267d5761267c612421565b5b600061268b8582860161244c565b925050602061269c85828601612651565b9150509250929050565b6126af8161242b565b82525050565b60006020820190506126ca60008301846126a6565b92915050565b600073ffffffffffffffffffffffffffffffffffffffff82169050919050565b60006126fb826126d0565b9050919050565b61270b816126f0565b82525050565b60006040820190506127266000830185612702565b6127336020830184612702565b9392505050565b61274381612630565b82525050565b600060408201905061275e600083018561273a565b61276b602083018461273a565b9392505050565b7f4e487b7100000000000000000000000000000000000000000000000000000000600052603260045260246000fd5b7f4e487b7100000000000000000000000000000000000000000000000000000000600052601160045260246000fd5b60006127db82612630565b91507fffffffffffffffffffffffffffffffffffffffffffffffffffffffffffffffff820361280d5761280c6127a1565b5b600182019050919050565b600061282382612630565b915061282e83612630565b9250827fffffffffffffffffffffffffffffffffffffffffffffffffffffffffffffffff03821115612863576128626127a1565b5b828201905092915050565b6000606082019050612883600083018661273a565b612890602083018561273a565b61289d604083018461273a565b949350505050565b600060ff82169050919050565b6128bb816128a5565b81146128c657600080fd5b50565b6000813590506128d8816128b2565b92915050565b6000602082840312156128f4576128f3612421565b5b6000612902848285016128c9565b91505092915050565b612914816128a5565b82525050565b600060408201905061292f600083018561290b565b61293c602083018461273a565b9392505050565b600080fd5b600080fd5b600080fd5b6000808335600160200384360303811261296f5761296e612943565b5b80840192508235915067ffffffffffffffff82111561299157612990612948565b5b6020830192506001820236038313156129ad576129ac61294d565b5b509250929050565b6129be816126f0565b81146129c957600080fd5b50565b6000813590506129db816129b5565b92915050565b6000602082840312156129f7576129f6612421565b5b6000612a05848285016129cc565b91505092915050565b7f4e487b7100000000000000000000000000000000000000000000000000000000600052604160045260246000fd5b60008235600160c003833603038112612a5957612a58612943565b5b80830191505092915050565b7f4e487b7100000000000000000000000000000000000000000000000000000000600052602260045260246000fd5b60006002820490506001821680612aac57607f821691505b602082108103612abf57612abe612a65565b5b50919050565b6000602082019050612ada6000830184612702565b92915050565b60008083356001602003843603038112612afd57612afc612943565b5b80840192508235915067ffffffffffffffff821115612b1f57612b1e612948565b5b602083019250600182023603831315612b3b57612b3a61294d565b5b509250929050565b600081905092915050565b82818337600083830152505050565b6000612b698385612b43565b9350612b76838584612b4e565b82840190509392505050565b6000612b8f828486612b5d565b91508190509392505050565b600082825260208201905092915050565b6000601f19601f8301169050919050565b6000612bc98385612b9b565b9350612bd6838584612b4e565b612bdf83612bac565b840190509392505050565b60006020820190508181036000830152612c05818486612bbd565b90509392505050565b6000606082019050612c236000830186612702565b612c306020830185612702565b612c3d604083018461273a565b949350505050565b60008115159050919050565b612c5a81612c45565b8114612c6557600080fd5b50565b600081519050612c7781612c51565b92915050565b600060208284031215612c9357612c92612421565b5b6000612ca184828501612c68565b91505092915050565b600082825260208201905092915050565b6000612cc78385612caa565b9350612cd4838584612b4e565b612cdd83612bac565b840190509392505050565b600081549050919050565b600082825260208201905092915050565b60008190508160005260206000209050919050565b612d22816126f0565b82525050565b6000612d348383612d19565b60208301905092915050565b60008160001c9050919050565b600073ffffffffffffffffffffffffffffffffffffffff82169050919050565b6000612d80612d7b83612d40565b612d4d565b9050919050565b6000612d938254612d6d565b9050919050565b6000600182019050919050565b6000612db282612ce8565b612dbc8185612cf3565b9350612dc783612d04565b8060005b83811015612dff57612ddc82612d87565b612de68882612d28565b9750612df183612d9a565b925050600181019050612dcb565b5085935050505092915050565b6000610100820190508181036000830152612e28818c8e612cbb565b9050612e37602083018b61273a565b612e44604083018a612702565b612e516060830189612702565b8181036080830152612e638188612da7565b9050612e7260a083018761273a565b612e7f60c083018661273a565b81810360e0830152612e92818486612cbb565b90509b9a5050505050505050505050565b6000612eae82612630565b9150612eb983612630565b925082821015612ecc57612ecb6127a1565b5b828203905092915050565b6000612ee282612630565b9150612eed83612630565b9250817fffffffffffffffffffffffffffffffffffffffffffffffffffffffffffffffff0483118215151615612f2657612f256127a1565b5b828202905092915050565b7f4e487b7100000000000000000000000000000000000000000000000000000000600052601260045260246000fd5b6000612f6b82612630565b9150612f7683612630565b925082612f8657612f85612f31565b5b828204905092915050565b612f9a81612c45565b82525050565b6000604082019050612fb56000830185612f91565b612fc26020830184612702565b9392505050565b600060a0820190508181036000830152612fe481888a612bbd565b9050612ff3602083018761273a565b613000604083018661273a565b61300d606083018561273a565b61301a608083018461273a565b979650505050505050565b600081905092915050565b7f19457468657265756d205369676e6564204d6573736167653a0a333200000000600082015250565b6000613066601c83613025565b915061307182613030565b601c82019050919050565b6000819050919050565b6130976130928261242b565b61307c565b82525050565b60006130a882613059565b91506130b48284613086565b60208201915081905092915050565b60006080820190506130d860008301876126a6565b6130e5602083018661290b565b6130f260408301856126a6565b6130ff60608301846126a6565b9594505050505056fea2646970667358221220726062f3085aa21dab4a9fc33832fb858e00bc30dd0b92cf2edfebf045b0c03d64736f6c634300080d0033",
  "devdoc": {
    "errors": {
      "DuplicatePublicKey(bytes)": [
        {
          "params": {
            "publicKey": "the duplicated public key"
          }
        }
      ],
      "ResurrectionTimeInPast(uint256,uint256)": [
        {
          "params": {
            "currentTime": "Timestamp of the failed rewrap attempt",
            "resurrectionTime": "Resurrection timestamp which has already passed"
          }
        }
      ],
      "ResurrectionTimePastMaxResurrectionTime(uint256,uint256)": [
        {
          "params": {
            "maxResurrectionTime": "The maximum allowed resurrection time",
            "resurrectionTime": "The resurrection time defined during the sarcophagus creation or rewrap"
          }
        }
      ],
      "ResurrectionTimeTooFarInFuture(uint256,uint256,uint256)": [
        {
          "params": {
            "maximumPermissibleResurrectionTime": "Resurrection timestamp which is too far in the future",
            "resurrectionTime": "Resurrection timestamp which is too far in the future",
            "sarcophagusMaximumRewrapInterval": "Maximum rewrap interval set for the sarcophagus"
          }
        }
      ],
      "SarcophagusAlreadyExists(bytes32)": [
        {
          "params": {
            "sarcoId": "Id that is already in use"
          }
        }
      ],
      "SarcophagusParametersExpired(uint256,uint256,uint256)": [
        {
          "params": {
            "creationDeadline": "Deadline for creation of a sarcophagus with the supplied parameters",
            "creationTime": "Time when the sarcophagus parameters were created",
            "currentTime": "Timestamp of the failed create attempt"
          }
        }
      ]
    },
    "events": {
      "BurySarcophagus(bytes32)": {
        "params": {
          "sarcoId": "Id of sarcophagus that was buried"
        }
      },
      "CreateSarcophagus(bytes32,string,uint256,address,address,address[],uint256,uint256,string)": {
        "params": {
          "arweaveTxId": "arweave tx id for the sarcophagus",
          "createSarcophagusProtocolFees": "Total protocol fees charged to embalmer to create the sarcophagus",
          "cursedArchaeologists": "Array of addresses of cursed archaeologists",
          "embalmer": "Address of embalmer",
          "name": "Name of the new sarcophagus",
          "recipient": "Address of recipient",
          "resurrectionTime": "Resurrection time of the new sarcophagus",
          "sarcoId": "Id of the new sarcophagus",
          "totalDiggingFees": "Total digging fees charged to embalmer to create the sarcophagus"
        }
      },
      "RewrapSarcophagus(bytes32,uint256,uint256,uint256)": {
        "params": {
          "resurrectionTime": "New resurrection time for the sarcophagus",
          "rewrapSarcophagusProtocolFees": "Total protocol fees charged to the embalmer for the rewrap",
          "sarcoId": "Id of sarcophagus that was rewrapped",
          "totalDiggingFees": "Total digging fees charged to the embalmer for the rewrap"
        }
      }
    },
    "kind": "dev",
    "methods": {
      "burySarcophagus(bytes32)": {
        "params": {
          "sarcoId": "the identifier of the sarcophagus"
        }
      },
      "createSarcophagus(bytes32,(string,uint256,uint256,address,uint256,uint8,uint256),(bytes,address,uint256,uint8,bytes32,bytes32)[],string)": {
        "params": {
          "arweaveTxId": "id of tx storing the sarcophagus payload on arweave",
          "sarcoId": "the identifier of the sarcophagus",
          "sarcophagusParams": "params to set on sarcophagus being created",
          "selectedArchaeologists": "the archaeologists the embalmer has selected to curse"
        }
      },
      "rewrapSarcophagus(bytes32,uint256)": {
        "params": {
          "resurrectionTime": "the new resurrection time",
          "sarcoId": "the identifier of the sarcophagus"
        }
      }
    },
    "version": 1
  },
  "userdoc": {
    "errors": {
      "ArchaeologistListContainsDuplicate(address)": [
        {
          "notice": "Emitted when an embalmer attempts to create a sarcophagus with an archaeologist list that contains the same archaeologist more than once"
        }
      ],
      "DuplicatePublicKey(bytes)": [
        {
          "notice": "Emitted when an embalmer attempts to create a sarcophagus with a public key that has already been assigned to another sarcophagus"
        }
      ],
      "NoArchaeologistsProvided()": [
        {
          "notice": "Emitted when an embalmer attempts to create a sarcophagus with no archaeologists"
        }
      ],
      "ResurrectionTimeInPast(uint256,uint256)": [
        {
          "notice": "Emitted when an embalmer attempts to rewrap a sarcophagus with a resurrection time that has already passed"
        }
      ],
      "ResurrectionTimePastMaxResurrectionTime(uint256,uint256)": [
        {
          "notice": "Emitted when the resurrection time defined during sarcohpagus creation or rewrap goes past the max resurrection time"
        }
      ],
      "ResurrectionTimeTooFarInFuture(uint256,uint256,uint256)": [
        {
          "notice": "Emitted when an embalmer attempts to rewrap a sarcophagus with a resurrection time that exceeds the maximum rewrap interval"
        }
      ],
      "SarcophagusAlreadyExists(bytes32)": [
        {
          "notice": "Emitted when an embalmer attempts to create a sarcophagus with an id that is already in use"
        }
      ],
      "SarcophagusParametersExpired(uint256,uint256,uint256)": [
        {
          "notice": "Emitted when an embalmer attempts to create a sarcophagus with expired parameters"
        }
      ],
      "ThresholdCannotBeZero()": [
        {
          "notice": "Emitted when an embalmer attempts to create a sarcophagus with a shamir secret sharing threshold of 0"
        }
      ],
      "ThresholdGreaterThanTotalNumberOfArchaeologists(uint8,uint256)": [
        {
          "notice": "Emitted when an embalmer attempts to create a sarcophagus with more required archaeologists than total archaeologists"
        }
      ]
    },
    "events": {
      "BurySarcophagus(bytes32)": {
        "notice": "Emitted when a sarcophagus is buried"
      },
      "CreateSarcophagus(bytes32,string,uint256,address,address,address[],uint256,uint256,string)": {
        "notice": "Emitted when a sarcophagus is created"
      },
      "RewrapSarcophagus(bytes32,uint256,uint256,uint256)": {
        "notice": "Emitted when a sarcophagus is rewrapped"
      }
    },
    "kind": "user",
    "methods": {
      "burySarcophagus(bytes32)": {
        "notice": "Terminates a sarcophagus by setting its resurrection time to infinity and returning locked bonds to all innocent cursed archaeologists. Callable by the embalmer of a sarcophagus if its resurrection time has not passed, it has not been compromised by k or more accusals, and it has not been buried."
      },
      "createSarcophagus(bytes32,(string,uint256,uint256,address,uint256,uint8,uint256),(bytes,address,uint256,uint8,bytes32,bytes32)[],string)": {
        "notice": "Creates a sarcophagus with the supplied parameters and locks a portion of each archaeologist's freeBond equal to the digging fees calculated for the duration of the sarcophagus until its resurrection time. Verifies that each supplied archaeologist has signed off on the sarcophagus negotiation parameters:    - `publicKey` that matches the private key the archaeologist is responsible for    - `maximumRewrapInterval` to be enforced for the lifetime of the sarcophagus. No new resurrection time for future rewraps may exceed this interval from time of rewrap.    - `creationTime` of sarcophagus    - `diggingFeePerSecond` agreed to be paid to the archaeologist during the lifetime of the sarcophagus. Constant."
      },
      "rewrapSarcophagus(bytes32,uint256)": {
        "notice": "Updates the resurrectionTime on a sarcophagus. Callable by the embalmer of a sarcophagus if its resurrection time has not passed, it has not been compromised by k or more accusals, and it has not been buried."
      }
    },
    "version": 1
  },
  "storageLayout": {
    "storage": [],
    "types": null
  }
}