{
  "address": "0x3D29b085AF242Bb567688C74881B015a2d533d7e",
  "abi": [
    {
      "inputs": [
        {
          "internalType": "address[]",
          "name": "archaeologists",
          "type": "address[]"
        }
      ],
      "name": "ArchaeologistListNotUnique",
      "type": "error"
    },
    {
      "inputs": [
        {
          "internalType": "bool",
          "name": "exists",
          "type": "bool"
        },
        {
          "internalType": "address",
          "name": "archaeologist",
          "type": "address"
        }
      ],
      "name": "ArchaeologistProfileExistsShouldBe",
      "type": "error"
    },
    {
      "inputs": [],
      "name": "ArweaveTxIdsInvalid",
      "type": "error"
    },
    {
      "inputs": [
        {
          "internalType": "address",
          "name": "recoveredAddress",
          "type": "address"
        },
        {
          "internalType": "address",
          "name": "expectedAddress",
          "type": "address"
        }
      ],
      "name": "InvalidSignature",
      "type": "error"
    },
    {
      "inputs": [
        {
          "internalType": "uint8",
          "name": "minShards",
          "type": "uint8"
        }
      ],
      "name": "MinShardsGreaterThanArchaeologists",
      "type": "error"
    },
    {
      "inputs": [],
      "name": "MinShardsZero",
      "type": "error"
    },
    {
      "inputs": [
        {
          "internalType": "uint256",
          "name": "newResurrectionTime",
          "type": "uint256"
        }
      ],
      "name": "NewResurrectionTimeInPast",
      "type": "error"
    },
    {
      "inputs": [
        {
          "internalType": "uint256",
          "name": "newResurrectionTime",
          "type": "uint256"
        }
      ],
      "name": "NewResurrectionTimeTooLarge",
      "type": "error"
    },
    {
      "inputs": [],
      "name": "NoArchaeologistsProvided",
      "type": "error"
    },
    {
      "inputs": [
        {
          "internalType": "uint256",
          "name": "cursedBond",
          "type": "uint256"
        },
        {
          "internalType": "uint256",
          "name": "amount",
          "type": "uint256"
        }
      ],
      "name": "NotEnoughCursedBond",
      "type": "error"
    },
    {
      "inputs": [
        {
          "internalType": "uint256",
          "name": "freeBond",
          "type": "uint256"
        },
        {
          "internalType": "uint256",
          "name": "amount",
          "type": "uint256"
        }
      ],
      "name": "NotEnoughFreeBond",
      "type": "error"
    },
    {
      "inputs": [
        {
          "internalType": "uint256",
          "name": "resurrectionTime",
          "type": "uint256"
        }
      ],
      "name": "ResurrectionTimeInPast",
      "type": "error"
    },
    {
      "inputs": [
        {
          "internalType": "uint256",
          "name": "resurrectionTime",
          "type": "uint256"
        },
        {
          "internalType": "uint256",
          "name": "sarcophagusMaximumRewrapInterval",
          "type": "uint256"
        }
      ],
      "name": "ResurrectionTimeTooFarInFuture",
      "type": "error"
    },
    {
      "inputs": [
        {
          "internalType": "bytes32",
          "name": "sarcoId",
          "type": "bytes32"
        }
      ],
      "name": "SarcophagusAlreadyExists",
      "type": "error"
    },
    {
      "inputs": [
        {
          "internalType": "bytes32",
          "name": "sarcoId",
          "type": "bytes32"
        }
      ],
      "name": "SarcophagusDoesNotExist",
      "type": "error"
    },
    {
      "inputs": [
        {
          "internalType": "bytes32",
          "name": "sarcoId",
          "type": "bytes32"
        }
      ],
      "name": "SarcophagusInactive",
      "type": "error"
    },
    {
      "inputs": [],
      "name": "SarcophagusIsUnwrappable",
      "type": "error"
    },
    {
      "inputs": [
        {
          "internalType": "uint256",
          "name": "timestamp",
          "type": "uint256"
        }
      ],
      "name": "SarcophagusParametersExpired",
      "type": "error"
    },
    {
      "inputs": [
        {
          "internalType": "address",
          "name": "sender",
          "type": "address"
        },
        {
          "internalType": "address",
          "name": "embalmer",
          "type": "address"
        }
      ],
      "name": "SenderNotEmbalmer",
      "type": "error"
    },
    {
      "anonymous": false,
      "inputs": [
        {
          "indexed": true,
          "internalType": "bytes32",
          "name": "sarcoId",
          "type": "bytes32"
        }
      ],
      "name": "BurySarcophagus",
      "type": "event"
    },
    {
      "anonymous": false,
      "inputs": [
        {
          "indexed": true,
          "internalType": "bytes32",
          "name": "sarcoId",
          "type": "bytes32"
        },
        {
          "indexed": false,
          "internalType": "string",
          "name": "name",
          "type": "string"
        },
        {
          "indexed": false,
          "internalType": "uint256",
          "name": "resurrectionTime",
          "type": "uint256"
        },
        {
          "indexed": false,
          "internalType": "address",
          "name": "embalmer",
          "type": "address"
        },
        {
          "indexed": false,
          "internalType": "address",
          "name": "recipient",
          "type": "address"
        },
        {
          "indexed": false,
          "internalType": "address[]",
          "name": "cursedArchaeologists",
          "type": "address[]"
        },
        {
          "indexed": false,
          "internalType": "uint256",
          "name": "totalDiggingFees",
          "type": "uint256"
        },
        {
          "indexed": false,
          "internalType": "uint256",
          "name": "createSarcophagusProtocolFees",
          "type": "uint256"
        },
        {
          "indexed": false,
          "internalType": "string[]",
          "name": "arweaveTxIds",
          "type": "string[]"
        }
      ],
      "name": "CreateSarcophagus",
      "type": "event"
    },
    {
      "anonymous": false,
      "inputs": [
        {
          "indexed": true,
          "internalType": "bytes32",
          "name": "sarcoId",
          "type": "bytes32"
        },
        {
          "indexed": false,
          "internalType": "uint256",
          "name": "resurrectionTime",
          "type": "uint256"
        },
        {
          "indexed": false,
          "internalType": "uint256",
          "name": "totalDiggingFees",
          "type": "uint256"
        },
        {
          "indexed": false,
          "internalType": "uint256",
          "name": "rewrapSarcophagusProtocolFees",
          "type": "uint256"
        }
      ],
      "name": "RewrapSarcophagus",
      "type": "event"
    },
    {
      "inputs": [
        {
          "internalType": "bytes32",
          "name": "sarcoId",
          "type": "bytes32"
        }
      ],
      "name": "burySarcophagus",
      "outputs": [],
      "stateMutability": "nonpayable",
      "type": "function"
    },
    {
      "inputs": [
        {
          "internalType": "bytes32",
          "name": "sarcoId",
          "type": "bytes32"
        },
        {
          "components": [
            {
              "internalType": "string",
              "name": "name",
              "type": "string"
            },
            {
              "internalType": "address",
              "name": "recipient",
              "type": "address"
            },
            {
              "internalType": "uint256",
              "name": "resurrectionTime",
              "type": "uint256"
            },
            {
              "internalType": "uint256",
              "name": "maximumRewrapInterval",
              "type": "uint256"
            },
            {
              "internalType": "uint8",
              "name": "minShards",
              "type": "uint8"
            },
            {
              "internalType": "uint256",
              "name": "timestamp",
              "type": "uint256"
            }
          ],
          "internalType": "struct LibTypes.SarcophagusMemory",
          "name": "sarcophagus",
          "type": "tuple"
        },
        {
          "components": [
            {
              "internalType": "address",
              "name": "archAddress",
              "type": "address"
            },
            {
              "internalType": "uint256",
              "name": "diggingFee",
              "type": "uint256"
            },
            {
              "internalType": "bytes32",
              "name": "unencryptedShardDoubleHash",
              "type": "bytes32"
            },
            {
              "internalType": "uint8",
              "name": "v",
              "type": "uint8"
            },
            {
              "internalType": "bytes32",
              "name": "r",
              "type": "bytes32"
            },
            {
              "internalType": "bytes32",
              "name": "s",
              "type": "bytes32"
            }
          ],
          "internalType": "struct LibTypes.SelectedArchaeologistData[]",
          "name": "selectedArchaeologists",
          "type": "tuple[]"
        },
        {
          "internalType": "string[]",
          "name": "arweaveTxIds",
          "type": "string[]"
        }
      ],
      "name": "createSarcophagus",
      "outputs": [
        {
          "internalType": "uint256",
          "name": "",
          "type": "uint256"
        }
      ],
      "stateMutability": "nonpayable",
      "type": "function"
    },
    {
      "inputs": [
        {
          "internalType": "bytes32",
          "name": "sarcoId",
          "type": "bytes32"
        },
        {
          "internalType": "uint256",
          "name": "resurrectionTime",
          "type": "uint256"
        }
      ],
      "name": "rewrapSarcophagus",
      "outputs": [],
      "stateMutability": "nonpayable",
      "type": "function"
    }
  ],
  "transactionHash": "0x3b2aae07bf306793a388a01a3f2361ceeceb197704e79379d74fddf9157baee6",
  "args": [],
  "numDeployments": 3,
  "solcInputHash": "e93e69833cc2861ad35b8a71c75835fd",
  "bytecode": "0x608060405234801561001057600080fd5b50613116806100206000396000f3fe608060405234801561001057600080fd5b50600436106100415760003560e01c80630511f2ec146100465780632e96562e14610062578063ab7d796914610092575b600080fd5b610060600480360381019061005b91906121ef565b6100ae565b005b61007c6004803603810190610077919061273e565b610447565b6040516100899190612808565b60405180910390f35b6100ac60048036038101906100a79190612823565b610ecb565b005b6100b78161142e565b3373ffffffffffffffffffffffffffffffffffffffff166000600d01600083815260200190815260200160002060050160009054906101000a900473ffffffffffffffffffffffffffffffffffffffff1673ffffffffffffffffffffffffffffffffffffffff161461019b57336000600d01600083815260200190815260200160002060050160009054906101000a900473ffffffffffffffffffffffffffffffffffffffff166040517f0e37d99c000000000000000000000000000000000000000000000000000000008152600401610192929190612872565b60405180910390fd5b426000600d0160008381526020019081526020016000206002015411610211576000600d016000828152602001908152602001600020600201546040517f357efa270000000000000000000000000000000000000000000000000000000081526004016102089190612808565b60405180910390fd5b7fffffffffffffffffffffffffffffffffffffffffffffffffffffffffffffffff6000600d0160008381526020019081526020016000206002018190555060046000600d01600083815260200190815260200160002060010160006101000a81548160ff0219169083600781111561028c5761028b61289b565b5b0217905550600080600d01600083815260200190815260200160002060070180548060200260200160405190810160405280929190818152602001828054801561032b57602002820191906000526020600020905b8160009054906101000a900473ffffffffffffffffffffffffffffffffffffffff1673ffffffffffffffffffffffffffffffffffffffff16815260200190600101908083116102e1575b5050505050905060005b81518110156104155761036283838381518110610355576103546128ca565b5b602002602001015161155a565b60006103888484848151811061037b5761037a6128ca565b5b6020026020010151611699565b905080600001516000600c0160008585815181106103a9576103a86128ca565b5b602002602001015173ffffffffffffffffffffffffffffffffffffffff1673ffffffffffffffffffffffffffffffffffffffff16815260200190815260200160002060008282546103fa9190612928565b9250508190555050808061040d9061297e565b915050610335565b50817f3a0205aa93b1a96da7d6405b2967f91b441383623de2d1ee3b27bfd1642b167a60405160405180910390a25050565b600080600781111561045c5761045b61289b565b5b6000600d01600087815260200190815260200160002060010160009054906101000a900460ff1660078111156104955761049461289b565b5b146104d757846040517fb9d0d5840000000000000000000000000000000000000000000000000000000081526004016104ce91906129d5565b60405180910390fd5b426000600401548560a001516104ed9190612928565b1015610534578360a001516040517fdbff58b000000000000000000000000000000000000000000000000000000000815260040161052b9190612808565b60405180910390fd5b428460400151116105805783604001516040517f357efa270000000000000000000000000000000000000000000000000000000081526004016105779190612808565b60405180910390fd5b8360600151426105909190612928565b846040015111156105e257836040015184606001516040517f9abac2dc0000000000000000000000000000000000000000000000000000000081526004016105d99291906129f0565b60405180910390fd5b6002825114158061060f5750600082600081518110610604576106036128ca565b5b602002602001015151145b80610636575060008260018151811061062b5761062a6128ca565b5b602002602001015151145b1561066d576040517fe04bf6fb00000000000000000000000000000000000000000000000000000000815260040160405180910390fd5b60008351036106a8576040517fb274cdd900000000000000000000000000000000000000000000000000000000815260040160405180910390fd5b6000846080015160ff16036106e9576040517fc289fea400000000000000000000000000000000000000000000000000000000815260040160405180910390fd5b8251846080015160ff16111561073a5783608001516040517f4f1dd41a0000000000000000000000000000000000000000000000000000000081526004016107319190612a28565b60405180910390fd5b6000835167ffffffffffffffff81111561075757610756612232565b5b6040519080825280602002602001820160405280156107855781602001602082028036833780820191505090505b5090506000805b8551811015610a815760008682815181106107aa576107a96128ca565b5b602002602001015190506107c181600001516117c3565b6107cf898260000151611869565b1561081157836040517f8cdcf3410000000000000000000000000000000000000000000000000000000081526004016108089190612b01565b60405180910390fd5b61085d81604001518760018151811061082d5761082c6128ca565b5b60200260200101518a606001518b60a001518560200151866060015187608001518860a0015189600001516118db565b80602001518361086d9190612928565b9250600060405180608001604052808360200151815260200160008152602001836040015181526020016040518060200160405280600081525081525090508160000151600060110160008460400151815260200190815260200160002060006101000a81548173ffffffffffffffffffffffffffffffffffffffff021916908373ffffffffffffffffffffffffffffffffffffffff16021790555080600060120160008c81526020019081526020016000206000846000015173ffffffffffffffffffffffffffffffffffffffff1673ffffffffffffffffffffffffffffffffffffffff168152602001908152602001600020600082015181600001556020820151816001015560408201518160020155606082015181600301908051906020019061099b929190611f03565b509050506000600f016000836000015173ffffffffffffffffffffffffffffffffffffffff1673ffffffffffffffffffffffffffffffffffffffff1681526020019081526020016000208a9080600181540180825580915050600190039060005260206000200160009091909190915055610a1a8a8360000151611a06565b8160000151858481518110610a3257610a316128ca565b5b602002602001019073ffffffffffffffffffffffffffffffffffffffff16908173ffffffffffffffffffffffffffffffffffffffff168152505050508080610a799061297e565b91505061078c565b506040518061012001604052808760000151815260200160016007811115610aac57610aab61289b565b5b8152602001876080015160ff16815260200187604001518152602001876060015181526020018581526020013373ffffffffffffffffffffffffffffffffffffffff168152602001876020015173ffffffffffffffffffffffffffffffffffffffff168152602001838152506000600d0160008981526020019081526020016000206000820151816000019080519060200190610b4a929190611f89565b5060208201518160010160006101000a81548160ff02191690836007811115610b7657610b7561289b565b5b021790555060408201518160010160016101000a81548160ff021916908360ff160217905550606082015181600201556080820151816003015560a0820151816004019080519060200190610bcc92919061200f565b5060c08201518160050160006101000a81548173ffffffffffffffffffffffffffffffffffffffff021916908373ffffffffffffffffffffffffffffffffffffffff16021790555060e08201518160060160006101000a81548173ffffffffffffffffffffffffffffffffffffffff021916908373ffffffffffffffffffffffffffffffffffffffff160217905550610100820151816007019080519060200190610c7892919061206f565b5090505060006005018790806001815401808255809150506001900390600052602060002001600090919091909150556000600e0160003373ffffffffffffffffffffffffffffffffffffffff1673ffffffffffffffffffffffffffffffffffffffff16815260200190815260200160002087908060018154018082558091505060019003906000526020600020016000909190919091505560006010016000876020015173ffffffffffffffffffffffffffffffffffffffff1673ffffffffffffffffffffffffffffffffffffffff1681526020019081526020016000208790806001815401808255809150506001900390600052602060002001600090919091909150556000610d8982611b45565b90508060006002016000828254610da09190612928565b925050819055506000800160009054906101000a900473ffffffffffffffffffffffffffffffffffffffff1673ffffffffffffffffffffffffffffffffffffffff166323b872dd33308486610df59190612928565b6040518463ffffffff1660e01b8152600401610e1393929190612b23565b6020604051808303816000875af1158015610e32573d6000803e3d6000fd5b505050506040513d601f19601f82011682018060405250810190610e569190612b92565b50877fc136b428a4c9f0ef2f943c7d05cd7e2e4e7971de832e893c5b215819a9da034288600001518960400151338b602001518888888d604051610ea1989796959493929190612d53565b60405180910390a26001600060050180549050610ebe9190612de6565b9350505050949350505050565b610ed48261142e565b3373ffffffffffffffffffffffffffffffffffffffff166000600d01600084815260200190815260200160002060050160009054906101000a900473ffffffffffffffffffffffffffffffffffffffff1673ffffffffffffffffffffffffffffffffffffffff1614610fb857336000600d01600084815260200190815260200160002060050160009054906101000a900473ffffffffffffffffffffffffffffffffffffffff166040517f0e37d99c000000000000000000000000000000000000000000000000000000008152600401610faf929190612872565b60405180910390fd5b426000600d016000848152602001908152602001600020600201541161100a576040517f8680d5de00000000000000000000000000000000000000000000000000000000815260040160405180910390fd5b42811161104e57806040517f365e35340000000000000000000000000000000000000000000000000000000081526004016110459190612808565b60405180910390fd5b6000600d01600083815260200190815260200160002060030154426110739190612928565b8111156110b757806040517fe4b2b6180000000000000000000000000000000000000000000000000000000081526004016110ae9190612808565b60405180910390fd5b600080600d01600084815260200190815260200160002060070180548060200260200160405190810160405280929190818152602001828054801561115157602002820191906000526020600020905b8160009054906101000a900473ffffffffffffffffffffffffffffffffffffffff1673ffffffffffffffffffffffffffffffffffffffff1681526020019060010190808311611107575b505050505090506000805b82518110156112f357600061118b8685848151811061117e5761117d6128ca565b5b6020026020010151611699565b905080600001516000600c0160008685815181106111ac576111ab6128ca565b5b602002602001015173ffffffffffffffffffffffffffffffffffffffff1673ffffffffffffffffffffffffffffffffffffffff16815260200190815260200160002060008282546111fd9190612928565b9250508190555080600001518160200181815161121a9190612928565b915081815250508060000151836112319190612928565b92508060006012016000888152602001908152602001600020600086858151811061125f5761125e6128ca565b5b602002602001015173ffffffffffffffffffffffffffffffffffffffff1673ffffffffffffffffffffffffffffffffffffffff16815260200190815260200160002060008201518160000155602082015181600101556040820151816002015560608201518160030190805190602001906112db929190611f03565b509050505080806112eb9061297e565b91505061115c565b5060006112ff82611b45565b905080600060020160008282546113169190612928565b92505081905550836000600d016000878152602001908152602001600020600201819055506000800160009054906101000a900473ffffffffffffffffffffffffffffffffffffffff1673ffffffffffffffffffffffffffffffffffffffff166323b872dd333084866113899190612928565b6040518463ffffffff1660e01b81526004016113a793929190612b23565b6020604051808303816000875af11580156113c6573d6000803e3d6000fd5b505050506040513d601f19601f820116820180604052508101906113ea9190612b92565b50847ff2ded5f77c6de574fac210979efbdd01ff3071d109e50651be4e05211f6e494385848460405161141f93929190612e1a565b60405180910390a25050505050565b6000611438611b76565b90506000600781111561144e5761144d61289b565b5b81600d01600084815260200190815260200160002060010160009054906101000a900460ff1660078111156114865761148561289b565b5b036114c857816040517f018da6880000000000000000000000000000000000000000000000000000000081526004016114bf91906129d5565b60405180910390fd5b600160078111156114dc576114db61289b565b5b81600d01600084815260200190815260200160002060010160009054906101000a900460ff1660078111156115145761151361289b565b5b1461155657816040517f7c6a6d7000000000000000000000000000000000000000000000000000000000815260040161154d91906129d5565b60405180910390fd5b5050565b6000611564611b76565b9050600081601201600085815260200190815260200160002060008473ffffffffffffffffffffffffffffffffffffffff1673ffffffffffffffffffffffffffffffffffffffff1681526020019081526020016000206040518060800160405290816000820154815260200160018201548152602001600282015481526020016003820180546115f390612e80565b80601f016020809104026020016040519081016040528092919081815260200182805461161f90612e80565b801561166c5780601f106116415761010080835404028352916020019161166c565b820191906000526020600020905b81548152906001019060200180831161164f57829003601f168201915b505050505081525050905060006116868260000151611b7b565b90506116928482611b85565b5050505050565b6116a16120f9565b60006116ab611b76565b905080601201600085815260200190815260200160002060008473ffffffffffffffffffffffffffffffffffffffff1673ffffffffffffffffffffffffffffffffffffffff16815260200190815260200160002060405180608001604052908160008201548152602001600182015481526020016002820154815260200160038201805461173890612e80565b80601f016020809104026020016040519081016040528092919081815260200182805461176490612e80565b80156117b15780601f10611786576101008083540402835291602001916117b1565b820191906000526020600020905b81548152906001019060200180831161179457829003601f168201915b50505050508152505091505092915050565b60006117cd611b76565b90508060070160008373ffffffffffffffffffffffffffffffffffffffff1673ffffffffffffffffffffffffffffffffffffffff16815260200190815260200160002060000160009054906101000a900460ff16611865576001826040517f2eeb357100000000000000000000000000000000000000000000000000000000815260040161185c929190612ec0565b60405180910390fd5b5050565b600080611874611b76565b90506000801b81601201600086815260200190815260200160002060008573ffffffffffffffffffffffffffffffffffffffff1673ffffffffffffffffffffffffffffffffffffffff16815260200190815260200160002060020154141591505092915050565b6000888a89888a6040516020016118f6959493929190612ee9565b6040516020818303038152906040528051906020012060405160200161191c9190612fbb565b6040516020818303038152906040528051906020012090506000600182878787604051600081526020016040526040516119599493929190612fe1565b6020604051602081039080840390855afa15801561197b573d6000803e3d6000fd5b5050506020604051035190508273ffffffffffffffffffffffffffffffffffffffff168173ffffffffffffffffffffffffffffffffffffffff16146119f95780836040517f42d750dc0000000000000000000000000000000000000000000000000000000081526004016119f0929190612872565b60405180910390fd5b5050505050505050505050565b6000611a10611b76565b9050600081601201600085815260200190815260200160002060008473ffffffffffffffffffffffffffffffffffffffff1673ffffffffffffffffffffffffffffffffffffffff168152602001908152602001600020604051806080016040529081600082015481526020016001820154815260200160028201548152602001600382018054611a9f90612e80565b80601f0160208091040260200160405190810160405280929190818152602001828054611acb90612e80565b8015611b185780601f10611aed57610100808354040283529160200191611b18565b820191906000526020600020905b815481529060010190602001808311611afb57829003601f168201915b50505050508152505090506000611b328260000151611b7b565b9050611b3e8482611b9d565b5050505050565b600080611b50611b76565b90506064816001015484611b649190613026565b611b6e91906130af565b915050919050565b600090565b6000819050919050565b611b8f8282611bb5565b611b998282611cf0565b5050565b611ba78282611d5c565b611bb18282611e97565b5050565b6000611bbf611b76565b90508060070160008473ffffffffffffffffffffffffffffffffffffffff1673ffffffffffffffffffffffffffffffffffffffff16815260200190815260200160002060050154821115611c90578060070160008473ffffffffffffffffffffffffffffffffffffffff1673ffffffffffffffffffffffffffffffffffffffff16815260200190815260200160002060050154826040517faf5a111b000000000000000000000000000000000000000000000000000000008152600401611c879291906129f0565b60405180910390fd5b818160070160008573ffffffffffffffffffffffffffffffffffffffff1673ffffffffffffffffffffffffffffffffffffffff1681526020019081526020016000206005016000828254611ce49190612de6565b92505081905550505050565b6000611cfa611b76565b9050818160070160008573ffffffffffffffffffffffffffffffffffffffff1673ffffffffffffffffffffffffffffffffffffffff1681526020019081526020016000206004016000828254611d509190612928565b92505081905550505050565b6000611d66611b76565b90508060070160008473ffffffffffffffffffffffffffffffffffffffff1673ffffffffffffffffffffffffffffffffffffffff16815260200190815260200160002060040154821115611e37578060070160008473ffffffffffffffffffffffffffffffffffffffff1673ffffffffffffffffffffffffffffffffffffffff16815260200190815260200160002060040154826040517fa4e3bead000000000000000000000000000000000000000000000000000000008152600401611e2e9291906129f0565b60405180910390fd5b818160070160008573ffffffffffffffffffffffffffffffffffffffff1673ffffffffffffffffffffffffffffffffffffffff1681526020019081526020016000206004016000828254611e8b9190612de6565b92505081905550505050565b6000611ea1611b76565b9050818160070160008573ffffffffffffffffffffffffffffffffffffffff1673ffffffffffffffffffffffffffffffffffffffff1681526020019081526020016000206005016000828254611ef79190612928565b92505081905550505050565b828054611f0f90612e80565b90600052602060002090601f016020900481019282611f315760008555611f78565b82601f10611f4a57805160ff1916838001178555611f78565b82800160010185558215611f78579182015b82811115611f77578251825591602001919060010190611f5c565b5b509050611f859190612124565b5090565b828054611f9590612e80565b90600052602060002090601f016020900481019282611fb75760008555611ffe565b82601f10611fd057805160ff1916838001178555611ffe565b82800160010185558215611ffe579182015b82811115611ffd578251825591602001919060010190611fe2565b5b50905061200b9190612124565b5090565b82805482825590600052602060002090810192821561205e579160200282015b8281111561205d57825182908051906020019061204d929190611f89565b509160200191906001019061202f565b5b50905061206b9190612141565b5090565b8280548282559060005260206000209081019282156120e8579160200282015b828111156120e75782518260006101000a81548173ffffffffffffffffffffffffffffffffffffffff021916908373ffffffffffffffffffffffffffffffffffffffff1602179055509160200191906001019061208f565b5b5090506120f59190612124565b5090565b6040518060800160405280600081526020016000815260200160008019168152602001606081525090565b5b8082111561213d576000816000905550600101612125565b5090565b5b8082111561216157600081816121589190612165565b50600101612142565b5090565b50805461217190612e80565b6000825580601f1061218357506121a2565b601f0160209004906000526020600020908101906121a19190612124565b5b50565b6000604051905090565b600080fd5b600080fd5b6000819050919050565b6121cc816121b9565b81146121d757600080fd5b50565b6000813590506121e9816121c3565b92915050565b600060208284031215612205576122046121af565b5b6000612213848285016121da565b91505092915050565b600080fd5b6000601f19601f8301169050919050565b7f4e487b7100000000000000000000000000000000000000000000000000000000600052604160045260246000fd5b61226a82612221565b810181811067ffffffffffffffff8211171561228957612288612232565b5b80604052505050565b600061229c6121a5565b90506122a88282612261565b919050565b600080fd5b600080fd5b600080fd5b600067ffffffffffffffff8211156122d7576122d6612232565b5b6122e082612221565b9050602081019050919050565b82818337600083830152505050565b600061230f61230a846122bc565b612292565b90508281526020810184848401111561232b5761232a6122b7565b5b6123368482856122ed565b509392505050565b600082601f830112612353576123526122b2565b5b81356123638482602086016122fc565b91505092915050565b600073ffffffffffffffffffffffffffffffffffffffff82169050919050565b60006123978261236c565b9050919050565b6123a78161238c565b81146123b257600080fd5b50565b6000813590506123c48161239e565b92915050565b6000819050919050565b6123dd816123ca565b81146123e857600080fd5b50565b6000813590506123fa816123d4565b92915050565b600060ff82169050919050565b61241681612400565b811461242157600080fd5b50565b6000813590506124338161240d565b92915050565b600060c0828403121561244f5761244e61221c565b5b61245960c0612292565b9050600082013567ffffffffffffffff811115612479576124786122ad565b5b6124858482850161233e565b6000830152506020612499848285016123b5565b60208301525060406124ad848285016123eb565b60408301525060606124c1848285016123eb565b60608301525060806124d584828501612424565b60808301525060a06124e9848285016123eb565b60a08301525092915050565b600067ffffffffffffffff8211156125105761250f612232565b5b602082029050602081019050919050565b600080fd5b600060c0828403121561253c5761253b61221c565b5b61254660c0612292565b90506000612556848285016123b5565b600083015250602061256a848285016123eb565b602083015250604061257e848285016121da565b604083015250606061259284828501612424565b60608301525060806125a6848285016121da565b60808301525060a06125ba848285016121da565b60a08301525092915050565b60006125d96125d4846124f5565b612292565b90508083825260208201905060c084028301858111156125fc576125fb612521565b5b835b8181101561262557806126118882612526565b84526020840193505060c0810190506125fe565b5050509392505050565b600082601f830112612644576126436122b2565b5b81356126548482602086016125c6565b91505092915050565b600067ffffffffffffffff82111561267857612677612232565b5b602082029050602081019050919050565b600061269c6126978461265d565b612292565b905080838252602082019050602084028301858111156126bf576126be612521565b5b835b8181101561270657803567ffffffffffffffff8111156126e4576126e36122b2565b5b8086016126f1898261233e565b855260208501945050506020810190506126c1565b5050509392505050565b600082601f830112612725576127246122b2565b5b8135612735848260208601612689565b91505092915050565b60008060008060808587031215612758576127576121af565b5b6000612766878288016121da565b945050602085013567ffffffffffffffff811115612787576127866121b4565b5b61279387828801612439565b935050604085013567ffffffffffffffff8111156127b4576127b36121b4565b5b6127c08782880161262f565b925050606085013567ffffffffffffffff8111156127e1576127e06121b4565b5b6127ed87828801612710565b91505092959194509250565b612802816123ca565b82525050565b600060208201905061281d60008301846127f9565b92915050565b6000806040838503121561283a576128396121af565b5b6000612848858286016121da565b9250506020612859858286016123eb565b9150509250929050565b61286c8161238c565b82525050565b60006040820190506128876000830185612863565b6128946020830184612863565b9392505050565b7f4e487b7100000000000000000000000000000000000000000000000000000000600052602160045260246000fd5b7f4e487b7100000000000000000000000000000000000000000000000000000000600052603260045260246000fd5b7f4e487b7100000000000000000000000000000000000000000000000000000000600052601160045260246000fd5b6000612933826123ca565b915061293e836123ca565b9250827fffffffffffffffffffffffffffffffffffffffffffffffffffffffffffffffff03821115612973576129726128f9565b5b828201905092915050565b6000612989826123ca565b91507fffffffffffffffffffffffffffffffffffffffffffffffffffffffffffffffff82036129bb576129ba6128f9565b5b600182019050919050565b6129cf816121b9565b82525050565b60006020820190506129ea60008301846129c6565b92915050565b6000604082019050612a0560008301856127f9565b612a1260208301846127f9565b9392505050565b612a2281612400565b82525050565b6000602082019050612a3d6000830184612a19565b92915050565b600081519050919050565b600082825260208201905092915050565b6000819050602082019050919050565b612a788161238c565b82525050565b6000612a8a8383612a6f565b60208301905092915050565b6000602082019050919050565b6000612aae82612a43565b612ab88185612a4e565b9350612ac383612a5f565b8060005b83811015612af4578151612adb8882612a7e565b9750612ae683612a96565b925050600181019050612ac7565b5085935050505092915050565b60006020820190508181036000830152612b1b8184612aa3565b905092915050565b6000606082019050612b386000830186612863565b612b456020830185612863565b612b5260408301846127f9565b949350505050565b60008115159050919050565b612b6f81612b5a565b8114612b7a57600080fd5b50565b600081519050612b8c81612b66565b92915050565b600060208284031215612ba857612ba76121af565b5b6000612bb684828501612b7d565b91505092915050565b600081519050919050565b600082825260208201905092915050565b60005b83811015612bf9578082015181840152602081019050612bde565b83811115612c08576000848401525b50505050565b6000612c1982612bbf565b612c238185612bca565b9350612c33818560208601612bdb565b612c3c81612221565b840191505092915050565b600081519050919050565b600082825260208201905092915050565b6000819050602082019050919050565b600082825260208201905092915050565b6000612c8f82612bbf565b612c998185612c73565b9350612ca9818560208601612bdb565b612cb281612221565b840191505092915050565b6000612cc98383612c84565b905092915050565b6000602082019050919050565b6000612ce982612c47565b612cf38185612c52565b935083602082028501612d0585612c63565b8060005b85811015612d415784840389528151612d228582612cbd565b9450612d2d83612cd1565b925060208a01995050600181019050612d09565b50829750879550505050505092915050565b6000610100820190508181036000830152612d6e818b612c0e565b9050612d7d602083018a6127f9565b612d8a6040830189612863565b612d976060830188612863565b8181036080830152612da98187612aa3565b9050612db860a08301866127f9565b612dc560c08301856127f9565b81810360e0830152612dd78184612cde565b90509998505050505050505050565b6000612df1826123ca565b9150612dfc836123ca565b925082821015612e0f57612e0e6128f9565b5b828203905092915050565b6000606082019050612e2f60008301866127f9565b612e3c60208301856127f9565b612e4960408301846127f9565b949350505050565b7f4e487b7100000000000000000000000000000000000000000000000000000000600052602260045260246000fd5b60006002820490506001821680612e9857607f821691505b602082108103612eab57612eaa612e51565b5b50919050565b612eba81612b5a565b82525050565b6000604082019050612ed56000830185612eb1565b612ee26020830184612863565b9392505050565b600060a0820190508181036000830152612f038188612c0e565b9050612f1260208301876129c6565b612f1f60408301866127f9565b612f2c60608301856127f9565b612f3960808301846127f9565b9695505050505050565b600081905092915050565b7f19457468657265756d205369676e6564204d6573736167653a0a333200000000600082015250565b6000612f84601c83612f43565b9150612f8f82612f4e565b601c82019050919050565b6000819050919050565b612fb5612fb0826121b9565b612f9a565b82525050565b6000612fc682612f77565b9150612fd28284612fa4565b60208201915081905092915050565b6000608082019050612ff660008301876129c6565b6130036020830186612a19565b61301060408301856129c6565b61301d60608301846129c6565b95945050505050565b6000613031826123ca565b915061303c836123ca565b9250817fffffffffffffffffffffffffffffffffffffffffffffffffffffffffffffffff0483118215151615613075576130746128f9565b5b828202905092915050565b7f4e487b7100000000000000000000000000000000000000000000000000000000600052601260045260246000fd5b60006130ba826123ca565b91506130c5836123ca565b9250826130d5576130d4613080565b5b82820490509291505056fea264697066735822122097b9a06454d3aab85cedcae4dc3c4e2dfeceac1f5b1724ac40236a884c92603b64736f6c634300080d0033",
  "devdoc": {
    "kind": "dev",
    "methods": {
      "burySarcophagus(bytes32)": {
        "details": "Extends the resurrection time into infinity so that that unwrap will never be successful.",
        "params": {
          "sarcoId": "the identifier of the sarcophagus"
        }
      },
      "createSarcophagus(bytes32,(string,address,uint256,uint256,uint8,uint256),(address,uint256,bytes32,uint8,bytes32,bytes32)[],string[])": {
        "params": {
          "arweaveTxIds": "ordered pair of arweave tx ids: [tx storing sarcophagus payload,         tx storing the archaeologists' encrypted key shares]",
          "sarcoId": "the identifier of the sarcophagus",
          "sarcophagus": "an object that contains the sarcophagus data",
          "selectedArchaeologists": "the archaeologists the embalmer has selected to curse"
        },
        "returns": {
          "_0": "The index of the new sarcophagus"
        }
      },
      "rewrapSarcophagus(bytes32,uint256)": {
        "details": "The embalmer sets a new resurrection time sometime in the future.",
        "params": {
          "resurrectionTime": "the new resurrection time",
          "sarcoId": "the identifier of the sarcophagus"
        }
      }
    },
    "version": 1
  },
  "userdoc": {
    "kind": "user",
    "methods": {
      "burySarcophagus(bytes32)": {
        "notice": "Permanently closes the sarcophagus, giving it no opportunity to be resurrected. This may only be done before resurrection time has passed."
      },
      "createSarcophagus(bytes32,(string,address,uint256,uint256,uint8,uint256),(address,uint256,bytes32,uint8,bytes32,bytes32)[],string[])": {
        "notice": "Embalmer creates the sarcophagus. The purpose of createSarcophagus is to:   - Lock up payment for the selected archaeologists (digging fees)   - Store the arweave TX IDs pertaining to the encrypted file payload   -    and the encrypted shards   - Verify the selected archaeologists have signed off on the         double hash of their key share,         arweave tx id storing key shares,         and maximumRewrapInterval to be used for lifetime of the sarcophagus   - Store the selected archaeologists' addresses, digging fees and   -     unencrypted double hashes   - Curse each participating archaeologist   - Create the sarcophagus object"
      },
      "rewrapSarcophagus(bytes32,uint256)": {
        "notice": "The embalmer may extend the life of the sarcophagus as long as the resurrection time has not passed yet."
      }
    },
    "version": 1
  },
  "storageLayout": {
    "storage": [
      {
        "astId": 1545,
        "contract": "contracts/facets/EmbalmerFacet.sol:EmbalmerFacet",
        "label": "s",
        "offset": 0,
        "slot": "0",
        "type": "t_struct(AppStorage)4551_storage"
      },
      {
        "astId": 1587,
        "contract": "contracts/facets/EmbalmerFacet.sol:EmbalmerFacet",
        "label": "verifiedArchaeologists",
        "offset": 0,
        "slot": "19",
        "type": "t_mapping(t_bytes32,t_mapping(t_address,t_bool))"
      }
    ],
    "types": {
      "t_address": {
        "encoding": "inplace",
        "label": "address",
        "numberOfBytes": "20"
      },
      "t_array(t_address)dyn_storage": {
        "base": "t_address",
        "encoding": "dynamic_array",
        "label": "address[]",
        "numberOfBytes": "32"
      },
      "t_array(t_bytes32)dyn_storage": {
        "base": "t_bytes32",
        "encoding": "dynamic_array",
        "label": "bytes32[]",
        "numberOfBytes": "32"
      },
      "t_array(t_string_storage)dyn_storage": {
        "base": "t_string_storage",
        "encoding": "dynamic_array",
        "label": "string[]",
        "numberOfBytes": "32"
      },
      "t_bool": {
        "encoding": "inplace",
        "label": "bool",
        "numberOfBytes": "1"
      },
      "t_bytes32": {
        "encoding": "inplace",
        "label": "bytes32",
        "numberOfBytes": "32"
      },
      "t_bytes_storage": {
        "encoding": "bytes",
        "label": "bytes",
        "numberOfBytes": "32"
      },
      "t_contract(IERC20)663": {
        "encoding": "inplace",
        "label": "contract IERC20",
        "numberOfBytes": "20"
      },
      "t_enum(SarcophagusState)3869": {
        "encoding": "inplace",
        "label": "enum LibTypes.SarcophagusState",
        "numberOfBytes": "1"
      },
      "t_mapping(t_address,t_array(t_bytes32)dyn_storage)": {
        "encoding": "mapping",
        "key": "t_address",
        "label": "mapping(address => bytes32[])",
        "numberOfBytes": "32",
        "value": "t_array(t_bytes32)dyn_storage"
      },
      "t_mapping(t_address,t_bool)": {
        "encoding": "mapping",
        "key": "t_address",
        "label": "mapping(address => bool)",
        "numberOfBytes": "32",
        "value": "t_bool"
      },
      "t_mapping(t_address,t_mapping(t_bytes32,t_bool))": {
        "encoding": "mapping",
        "key": "t_address",
        "label": "mapping(address => mapping(bytes32 => bool))",
        "numberOfBytes": "32",
        "value": "t_mapping(t_bytes32,t_bool)"
      },
      "t_mapping(t_address,t_struct(ArchaeologistProfile)3920_storage)": {
        "encoding": "mapping",
        "key": "t_address",
        "label": "mapping(address => struct LibTypes.ArchaeologistProfile)",
        "numberOfBytes": "32",
        "value": "t_struct(ArchaeologistProfile)3920_storage"
      },
      "t_mapping(t_address,t_struct(ArchaeologistStorage)3907_storage)": {
        "encoding": "mapping",
        "key": "t_address",
        "label": "mapping(address => struct LibTypes.ArchaeologistStorage)",
        "numberOfBytes": "32",
        "value": "t_struct(ArchaeologistStorage)3907_storage"
      },
      "t_mapping(t_address,t_uint256)": {
        "encoding": "mapping",
        "key": "t_address",
        "label": "mapping(address => uint256)",
        "numberOfBytes": "32",
        "value": "t_uint256"
      },
      "t_mapping(t_bytes32,t_address)": {
        "encoding": "mapping",
        "key": "t_bytes32",
        "label": "mapping(bytes32 => address)",
        "numberOfBytes": "32",
        "value": "t_address"
      },
      "t_mapping(t_bytes32,t_bool)": {
        "encoding": "mapping",
        "key": "t_bytes32",
        "label": "mapping(bytes32 => bool)",
        "numberOfBytes": "32",
        "value": "t_bool"
      },
      "t_mapping(t_bytes32,t_mapping(t_address,t_bool))": {
        "encoding": "mapping",
        "key": "t_bytes32",
        "label": "mapping(bytes32 => mapping(address => bool))",
        "numberOfBytes": "32",
        "value": "t_mapping(t_address,t_bool)"
      },
      "t_mapping(t_bytes32,t_mapping(t_address,t_struct(ArchaeologistStorage)3907_storage))": {
        "encoding": "mapping",
        "key": "t_bytes32",
        "label": "mapping(bytes32 => mapping(address => struct LibTypes.ArchaeologistStorage))",
        "numberOfBytes": "32",
        "value": "t_mapping(t_address,t_struct(ArchaeologistStorage)3907_storage)"
      },
      "t_mapping(t_bytes32,t_struct(Sarcophagus)3955_storage)": {
        "encoding": "mapping",
        "key": "t_bytes32",
        "label": "mapping(bytes32 => struct LibTypes.Sarcophagus)",
        "numberOfBytes": "32",
        "value": "t_struct(Sarcophagus)3955_storage"
      },
      "t_string_storage": {
        "encoding": "bytes",
        "label": "string",
        "numberOfBytes": "32"
      },
      "t_struct(AppStorage)4551_storage": {
        "encoding": "inplace",
        "label": "struct AppStorage",
        "members": [
          {
            "astId": 4475,
            "contract": "contracts/facets/EmbalmerFacet.sol:EmbalmerFacet",
            "label": "sarcoToken",
            "offset": 0,
            "slot": "0",
            "type": "t_contract(IERC20)663"
          },
          {
            "astId": 4477,
            "contract": "contracts/facets/EmbalmerFacet.sol:EmbalmerFacet",
            "label": "protocolFeeBasePercentage",
            "offset": 0,
            "slot": "1",
            "type": "t_uint256"
          },
          {
            "astId": 4479,
            "contract": "contracts/facets/EmbalmerFacet.sol:EmbalmerFacet",
            "label": "totalProtocolFees",
            "offset": 0,
            "slot": "2",
            "type": "t_uint256"
          },
          {
            "astId": 4481,
            "contract": "contracts/facets/EmbalmerFacet.sol:EmbalmerFacet",
            "label": "gracePeriod",
            "offset": 0,
            "slot": "3",
            "type": "t_uint256"
          },
          {
            "astId": 4483,
            "contract": "contracts/facets/EmbalmerFacet.sol:EmbalmerFacet",
            "label": "expirationThreshold",
            "offset": 0,
            "slot": "4",
            "type": "t_uint256"
          },
          {
            "astId": 4486,
            "contract": "contracts/facets/EmbalmerFacet.sol:EmbalmerFacet",
            "label": "sarcophagusIdentifiers",
            "offset": 0,
            "slot": "5",
            "type": "t_array(t_bytes32)dyn_storage"
          },
          {
            "astId": 4489,
            "contract": "contracts/facets/EmbalmerFacet.sol:EmbalmerFacet",
            "label": "archaeologistProfileAddresses",
            "offset": 0,
            "slot": "6",
            "type": "t_array(t_address)dyn_storage"
          },
          {
            "astId": 4494,
            "contract": "contracts/facets/EmbalmerFacet.sol:EmbalmerFacet",
            "label": "archaeologistProfiles",
            "offset": 0,
            "slot": "7",
            "type": "t_mapping(t_address,t_struct(ArchaeologistProfile)3920_storage)"
          },
          {
            "astId": 4500,
            "contract": "contracts/facets/EmbalmerFacet.sol:EmbalmerFacet",
            "label": "archaeologistSarcoSuccesses",
            "offset": 0,
            "slot": "8",
            "type": "t_mapping(t_address,t_mapping(t_bytes32,t_bool))"
          },
          {
            "astId": 4505,
            "contract": "contracts/facets/EmbalmerFacet.sol:EmbalmerFacet",
            "label": "archaeologistSuccesses",
            "offset": 0,
            "slot": "9",
            "type": "t_mapping(t_address,t_array(t_bytes32)dyn_storage)"
          },
          {
            "astId": 4510,
            "contract": "contracts/facets/EmbalmerFacet.sol:EmbalmerFacet",
            "label": "archaeologistAccusals",
            "offset": 0,
            "slot": "10",
            "type": "t_mapping(t_address,t_array(t_bytes32)dyn_storage)"
          },
          {
            "astId": 4515,
            "contract": "contracts/facets/EmbalmerFacet.sol:EmbalmerFacet",
            "label": "archaeologistCleanups",
            "offset": 0,
            "slot": "11",
            "type": "t_mapping(t_address,t_array(t_bytes32)dyn_storage)"
          },
          {
            "astId": 4519,
            "contract": "contracts/facets/EmbalmerFacet.sol:EmbalmerFacet",
            "label": "archaeologistRewards",
            "offset": 0,
            "slot": "12",
            "type": "t_mapping(t_address,t_uint256)"
          },
          {
            "astId": 4524,
            "contract": "contracts/facets/EmbalmerFacet.sol:EmbalmerFacet",
            "label": "sarcophagi",
            "offset": 0,
            "slot": "13",
            "type": "t_mapping(t_bytes32,t_struct(Sarcophagus)3955_storage)"
          },
          {
            "astId": 4529,
            "contract": "contracts/facets/EmbalmerFacet.sol:EmbalmerFacet",
            "label": "embalmerSarcophagi",
            "offset": 0,
            "slot": "14",
            "type": "t_mapping(t_address,t_array(t_bytes32)dyn_storage)"
          },
          {
            "astId": 4534,
            "contract": "contracts/facets/EmbalmerFacet.sol:EmbalmerFacet",
            "label": "archaeologistSarcophagi",
            "offset": 0,
            "slot": "15",
            "type": "t_mapping(t_address,t_array(t_bytes32)dyn_storage)"
          },
          {
            "astId": 4539,
            "contract": "contracts/facets/EmbalmerFacet.sol:EmbalmerFacet",
            "label": "recipientSarcophagi",
            "offset": 0,
            "slot": "16",
            "type": "t_mapping(t_address,t_array(t_bytes32)dyn_storage)"
          },
          {
            "astId": 4543,
            "contract": "contracts/facets/EmbalmerFacet.sol:EmbalmerFacet",
            "label": "doubleHashedShardArchaeologists",
            "offset": 0,
            "slot": "17",
            "type": "t_mapping(t_bytes32,t_address)"
          },
          {
            "astId": 4550,
            "contract": "contracts/facets/EmbalmerFacet.sol:EmbalmerFacet",
            "label": "sarcophagusArchaeologists",
            "offset": 0,
            "slot": "18",
            "type": "t_mapping(t_bytes32,t_mapping(t_address,t_struct(ArchaeologistStorage)3907_storage))"
          }
        ],
        "numberOfBytes": "608"
      },
      "t_struct(ArchaeologistProfile)3920_storage": {
        "encoding": "inplace",
        "label": "struct LibTypes.ArchaeologistProfile",
        "members": [
          {
            "astId": 3909,
            "contract": "contracts/facets/EmbalmerFacet.sol:EmbalmerFacet",
            "label": "exists",
            "offset": 0,
            "slot": "0",
            "type": "t_bool"
          },
          {
            "astId": 3911,
            "contract": "contracts/facets/EmbalmerFacet.sol:EmbalmerFacet",
            "label": "peerId",
            "offset": 0,
            "slot": "1",
            "type": "t_string_storage"
          },
          {
            "astId": 3913,
            "contract": "contracts/facets/EmbalmerFacet.sol:EmbalmerFacet",
            "label": "minimumDiggingFee",
            "offset": 0,
            "slot": "2",
            "type": "t_uint256"
          },
          {
            "astId": 3915,
            "contract": "contracts/facets/EmbalmerFacet.sol:EmbalmerFacet",
            "label": "maximumRewrapInterval",
            "offset": 0,
            "slot": "3",
            "type": "t_uint256"
          },
          {
            "astId": 3917,
            "contract": "contracts/facets/EmbalmerFacet.sol:EmbalmerFacet",
            "label": "freeBond",
            "offset": 0,
            "slot": "4",
            "type": "t_uint256"
          },
          {
            "astId": 3919,
            "contract": "contracts/facets/EmbalmerFacet.sol:EmbalmerFacet",
            "label": "cursedBond",
            "offset": 0,
            "slot": "5",
            "type": "t_uint256"
          }
        ],
        "numberOfBytes": "192"
      },
      "t_struct(ArchaeologistStorage)3907_storage": {
        "encoding": "inplace",
        "label": "struct LibTypes.ArchaeologistStorage",
        "members": [
          {
            "astId": 3900,
            "contract": "contracts/facets/EmbalmerFacet.sol:EmbalmerFacet",
            "label": "diggingFee",
            "offset": 0,
            "slot": "0",
            "type": "t_uint256"
          },
          {
            "astId": 3902,
            "contract": "contracts/facets/EmbalmerFacet.sol:EmbalmerFacet",
            "label": "diggingFeesPaid",
            "offset": 0,
            "slot": "1",
            "type": "t_uint256"
          },
          {
            "astId": 3904,
            "contract": "contracts/facets/EmbalmerFacet.sol:EmbalmerFacet",
            "label": "unencryptedShardDoubleHash",
            "offset": 0,
            "slot": "2",
            "type": "t_bytes32"
          },
          {
            "astId": 3906,
            "contract": "contracts/facets/EmbalmerFacet.sol:EmbalmerFacet",
            "label": "unencryptedShard",
            "offset": 0,
            "slot": "3",
            "type": "t_bytes_storage"
          }
        ],
        "numberOfBytes": "128"
      },
      "t_struct(Sarcophagus)3955_storage": {
        "encoding": "inplace",
        "label": "struct LibTypes.Sarcophagus",
        "members": [
          {
            "astId": 3935,
            "contract": "contracts/facets/EmbalmerFacet.sol:EmbalmerFacet",
            "label": "name",
            "offset": 0,
            "slot": "0",
            "type": "t_string_storage"
          },
          {
            "astId": 3938,
            "contract": "contracts/facets/EmbalmerFacet.sol:EmbalmerFacet",
            "label": "state",
            "offset": 0,
            "slot": "1",
            "type": "t_enum(SarcophagusState)3869"
          },
          {
            "astId": 3940,
            "contract": "contracts/facets/EmbalmerFacet.sol:EmbalmerFacet",
            "label": "minShards",
            "offset": 1,
            "slot": "1",
            "type": "t_uint8"
          },
          {
            "astId": 3942,
            "contract": "contracts/facets/EmbalmerFacet.sol:EmbalmerFacet",
            "label": "resurrectionTime",
            "offset": 0,
            "slot": "2",
            "type": "t_uint256"
          },
          {
            "astId": 3944,
            "contract": "contracts/facets/EmbalmerFacet.sol:EmbalmerFacet",
            "label": "maximumRewrapInterval",
            "offset": 0,
            "slot": "3",
            "type": "t_uint256"
          },
          {
            "astId": 3947,
            "contract": "contracts/facets/EmbalmerFacet.sol:EmbalmerFacet",
            "label": "arweaveTxIds",
            "offset": 0,
            "slot": "4",
            "type": "t_array(t_string_storage)dyn_storage"
          },
          {
            "astId": 3949,
            "contract": "contracts/facets/EmbalmerFacet.sol:EmbalmerFacet",
            "label": "embalmer",
            "offset": 0,
            "slot": "5",
            "type": "t_address"
          },
          {
            "astId": 3951,
            "contract": "contracts/facets/EmbalmerFacet.sol:EmbalmerFacet",
            "label": "recipientAddress",
            "offset": 0,
            "slot": "6",
            "type": "t_address"
          },
          {
            "astId": 3954,
            "contract": "contracts/facets/EmbalmerFacet.sol:EmbalmerFacet",
            "label": "archaeologists",
            "offset": 0,
            "slot": "7",
            "type": "t_array(t_address)dyn_storage"
          }
        ],
        "numberOfBytes": "256"
      },
      "t_uint256": {
        "encoding": "inplace",
        "label": "uint256",
        "numberOfBytes": "32"
      },
      "t_uint8": {
        "encoding": "inplace",
        "label": "uint8",
        "numberOfBytes": "1"
      }
    }
  }
}