{
  "address": "0x573f94101a71DBe41abEDf8BCF85f0dE2068d20e",
  "abi": [
    {
      "inputs": [
        {
          "internalType": "address",
          "name": "archaeologist",
          "type": "address"
        }
      ],
      "name": "ArchaeologistNotOnSarcophagus",
      "type": "error"
    },
    {
      "inputs": [
        {
          "internalType": "uint256",
          "name": "cursedBond",
          "type": "uint256"
        },
        {
          "internalType": "uint256",
          "name": "amount",
          "type": "uint256"
        }
      ],
      "name": "NotEnoughCursedBond",
      "type": "error"
    },
    {
      "inputs": [
        {
          "internalType": "bytes32",
          "name": "sarcoId",
          "type": "bytes32"
        }
      ],
      "name": "SarcophagusCompromised",
      "type": "error"
    },
    {
      "inputs": [
        {
          "internalType": "bytes32",
          "name": "sarcoId",
          "type": "bytes32"
        }
      ],
      "name": "SarcophagusDoesNotExist",
      "type": "error"
    },
    {
      "inputs": [
        {
          "internalType": "bytes32",
          "name": "sarcoId",
          "type": "bytes32"
        }
      ],
      "name": "SarcophagusInactive",
      "type": "error"
    },
    {
      "inputs": [],
      "name": "SarcophagusIsUnwrappable",
      "type": "error"
    },
    {
      "anonymous": false,
      "inputs": [
        {
          "indexed": true,
          "internalType": "bytes32",
          "name": "sarcoId",
          "type": "bytes32"
        },
        {
          "indexed": true,
          "internalType": "address",
          "name": "accuser",
          "type": "address"
        },
        {
          "indexed": false,
          "internalType": "uint256",
          "name": "accuserBondReward",
          "type": "uint256"
        },
        {
          "indexed": false,
          "internalType": "uint256",
          "name": "embalmerBondReward",
          "type": "uint256"
        }
      ],
      "name": "AccuseArchaeologist",
      "type": "event"
    },
    {
      "anonymous": false,
      "inputs": [
        {
          "indexed": true,
          "internalType": "bytes32",
          "name": "sarcoId",
          "type": "bytes32"
        },
        {
          "indexed": true,
          "internalType": "address",
          "name": "cleaner",
          "type": "address"
        },
        {
          "indexed": false,
          "internalType": "uint256",
          "name": "cleanerBondReward",
          "type": "uint256"
        },
        {
          "indexed": false,
          "internalType": "uint256",
          "name": "embalmerBondReward",
          "type": "uint256"
        }
      ],
      "name": "CleanUpSarcophagus",
      "type": "event"
    },
    {
      "inputs": [
        {
          "internalType": "bytes32",
          "name": "sarcoId",
          "type": "bytes32"
        },
        {
          "internalType": "bytes32[]",
          "name": "keyShareHashes",
          "type": "bytes32[]"
        },
        {
          "internalType": "address",
          "name": "paymentAddress",
          "type": "address"
        }
      ],
      "name": "accuse",
      "outputs": [],
      "stateMutability": "nonpayable",
      "type": "function"
    }
  ],
  "args": [],
  "numDeployments": 4,
  "solcInputHash": "24da3a57fc1d823ed9295677fe86dbd6",
  "bytecode": "0x608060405234801561001057600080fd5b50610fa8806100206000396000f3fe608060405234801561001057600080fd5b506004361061002b5760003560e01c80635c88a8e114610030575b600080fd5b61004a60048036038101906100459190610c1b565b61004c565b005b600080600a016000868152602001908152602001600020905060008160000154036100ae57846040517f018da6880000000000000000000000000000000000000000000000000000000081526004016100a59190610c9e565b60405180910390fd5b80600001544211156100ec576040517f8680d5de00000000000000000000000000000000000000000000000000000000815260040160405180910390fd5b8060010160009054906101000a900460ff161561014057846040517f9af72b860000000000000000000000000000000000000000000000000000000081526004016101379190610c9e565b60405180910390fd5b7fffffffffffffffffffffffffffffffffffffffffffffffffffffffffffffffff8160000154036101a857846040517f7c6a6d7000000000000000000000000000000000000000000000000000000000815260040161019f9190610c9e565b60405180910390fd5b60008484905067ffffffffffffffff8111156101c7576101c6610cb9565b5b6040519080825280602002602001820160405280156101f55781602001602082028036833780820191505090505b50905060008060005b8787905081101561044c57600088888381811061021e5761021d610ce8565b5b905060200201356040516020016102359190610c9e565b604051602081830303815290604052805190602001209050600080600801600083815260200190815260200160002060009054906101000a900473ffffffffffffffffffffffffffffffffffffffff169050600087600a0160008373ffffffffffffffffffffffffffffffffffffffff1673ffffffffffffffffffffffffffffffffffffffff16815260200190815260200160002090506000801b81600001540361031757336040517f82881f0300000000000000000000000000000000000000000000000000000000815260040161030e9190610d26565b60405180910390fd5b8060010160009054906101000a900460ff16156103365750505061044c565b60018160010160006101000a81548160ff0219169083151502179055508187868061036090610d7a565b97508151811061037357610372610ce8565b5b602002602001019073ffffffffffffffffffffffffffffffffffffffff16908173ffffffffffffffffffffffffffffffffffffffff16815250508060020154866103bd9190610dc2565b95506103cd828260020154610732565b6000600f0160008373ffffffffffffffffffffffffffffffffffffffff1673ffffffffffffffffffffffffffffffffffffffff1681526020019081526020016000208c9080600181540180825580915050600190039060005260206000200160009091909190915055505050808061044490610d7a565b9150506101fe565b506000810361045e575050505061072c565b8360030160009054906101000a900460ff1660ff16811061049b5760018460010160006101000a81548160ff0219169083151502179055506105a3565b6000805b85600901805490508110156105675785600a0160008760090183815481106104ca576104c9610ce8565b5b9060005260206000200160009054906101000a900473ffffffffffffffffffffffffffffffffffffffff1673ffffffffffffffffffffffffffffffffffffffff1673ffffffffffffffffffffffffffffffffffffffff16815260200190815260200160002060010160009054906101000a900460ff161561055457818061055090610d7a565b9250505b808061055f90610d7a565b91505061049f565b508460030160009054906101000a900460ff1660ff1681106105a15760018560010160006101000a81548160ff0219169083151502179055505b505b8360010160009054906101000a900460ff16156106c25760005b84600901805490508110156106c05784600a0160008660090183815481106105e8576105e7610ce8565b5b9060005260206000200160009054906101000a900473ffffffffffffffffffffffffffffffffffffffff1673ffffffffffffffffffffffffffffffffffffffff1673ffffffffffffffffffffffffffffffffffffffff16815260200190815260200160002060010160009054906101000a900460ff166106ad576106ac8986600901838154811061067c5761067b610ce8565b5b9060005260206000200160009054906101000a900473ffffffffffffffffffffffffffffffffffffffff1661086d565b5b80806106b890610d7a565b9150506105bd565b505b6000806106d08787866108e6565b915091503373ffffffffffffffffffffffffffffffffffffffff168a7f6cee286923fc4de6af78ba8b06ff9f4236e5aad4282a5e13a3cea8446c803fd4848460405161071d929190610e27565b60405180910390a35050505050505b50505050565b600061073c610a8f565b905080600c0160008473ffffffffffffffffffffffffffffffffffffffff1673ffffffffffffffffffffffffffffffffffffffff1681526020019081526020016000206005015482111561080d5780600c0160008473ffffffffffffffffffffffffffffffffffffffff1673ffffffffffffffffffffffffffffffffffffffff16815260200190815260200160002060050154826040517faf5a111b000000000000000000000000000000000000000000000000000000008152600401610804929190610e27565b60405180910390fd5b8181600c0160008573ffffffffffffffffffffffffffffffffffffffff1673ffffffffffffffffffffffffffffffffffffffff16815260200190815260200160002060050160008282546108619190610e50565b92505081905550505050565b6000610877610a8f565b9050600081600a016000858152602001908152602001600020600a0160008473ffffffffffffffffffffffffffffffffffffffff1673ffffffffffffffffffffffffffffffffffffffff16815260200190815260200160002090506108e0838260020154610a94565b50505050565b60008060006002846108f89190610eb3565b9050600081856109089190610e50565b90506000800160009054906101000a900473ffffffffffffffffffffffffffffffffffffffff1673ffffffffffffffffffffffffffffffffffffffff1663a9059cbb8760070160009054906101000a900473ffffffffffffffffffffffffffffffffffffffff16848861097b9190610dc2565b6040518363ffffffff1660e01b8152600401610998929190610ee4565b6020604051808303816000875af11580156109b7573d6000803e3d6000fd5b505050506040513d601f19601f820116820180604052508101906109db9190610f45565b506000800160009054906101000a900473ffffffffffffffffffffffffffffffffffffffff1673ffffffffffffffffffffffffffffffffffffffff1663a9059cbb88836040518363ffffffff1660e01b8152600401610a3b929190610ee4565b6020604051808303816000875af1158015610a5a573d6000803e3d6000fd5b505050506040513d601f19601f82011682018060405250810190610a7e9190610f45565b508082935093505050935093915050565b600090565b610a9e8282610732565b610aa88282610aac565b5050565b6000610ab6610a8f565b90508181600c0160008573ffffffffffffffffffffffffffffffffffffffff1673ffffffffffffffffffffffffffffffffffffffff1681526020019081526020016000206004016000828254610b0c9190610dc2565b92505081905550505050565b600080fd5b600080fd5b6000819050919050565b610b3581610b22565b8114610b4057600080fd5b50565b600081359050610b5281610b2c565b92915050565b600080fd5b600080fd5b600080fd5b60008083601f840112610b7d57610b7c610b58565b5b8235905067ffffffffffffffff811115610b9a57610b99610b5d565b5b602083019150836020820283011115610bb657610bb5610b62565b5b9250929050565b600073ffffffffffffffffffffffffffffffffffffffff82169050919050565b6000610be882610bbd565b9050919050565b610bf881610bdd565b8114610c0357600080fd5b50565b600081359050610c1581610bef565b92915050565b60008060008060608587031215610c3557610c34610b18565b5b6000610c4387828801610b43565b945050602085013567ffffffffffffffff811115610c6457610c63610b1d565b5b610c7087828801610b67565b93509350506040610c8387828801610c06565b91505092959194509250565b610c9881610b22565b82525050565b6000602082019050610cb36000830184610c8f565b92915050565b7f4e487b7100000000000000000000000000000000000000000000000000000000600052604160045260246000fd5b7f4e487b7100000000000000000000000000000000000000000000000000000000600052603260045260246000fd5b610d2081610bdd565b82525050565b6000602082019050610d3b6000830184610d17565b92915050565b7f4e487b7100000000000000000000000000000000000000000000000000000000600052601160045260246000fd5b6000819050919050565b6000610d8582610d70565b91507fffffffffffffffffffffffffffffffffffffffffffffffffffffffffffffffff8203610db757610db6610d41565b5b600182019050919050565b6000610dcd82610d70565b9150610dd883610d70565b9250827fffffffffffffffffffffffffffffffffffffffffffffffffffffffffffffffff03821115610e0d57610e0c610d41565b5b828201905092915050565b610e2181610d70565b82525050565b6000604082019050610e3c6000830185610e18565b610e496020830184610e18565b9392505050565b6000610e5b82610d70565b9150610e6683610d70565b925082821015610e7957610e78610d41565b5b828203905092915050565b7f4e487b7100000000000000000000000000000000000000000000000000000000600052601260045260246000fd5b6000610ebe82610d70565b9150610ec983610d70565b925082610ed957610ed8610e84565b5b828204905092915050565b6000604082019050610ef96000830185610d17565b610f066020830184610e18565b9392505050565b60008115159050919050565b610f2281610f0d565b8114610f2d57600080fd5b50565b600081519050610f3f81610f19565b92915050565b600060208284031215610f5b57610f5a610b18565b5b6000610f6984828501610f30565b9150509291505056fea26469706673582212202db7980710faf48f9ebd726b8269fefac742ab5a05b2f68203a753b38462589d64736f6c634300080d0033",
  "devdoc": {
    "kind": "dev",
    "methods": {
      "accuse(bytes32,bytes32[],address)": {
        "params": {
          "keyShareHashes": "hashes of the leaked key shares",
          "paymentAddress": "the address to which rewards should be sent if successful",
          "sarcoId": "The identifier of the sarcophagus having leaked shares"
        }
      }
    },
    "version": 1
  },
  "userdoc": {
    "kind": "user",
    "methods": {
      "accuse(bytes32,bytes32[],address)": {
        "notice": "Accuse one or more archaeologists of leaking key shares by submitting the hashes of the leaked shares If the archaeologists responsible for those shares haven't already been accused, their locked bond will be split between the embalmer and the supplied payment address and digging fees allocated for those archaeologists will be refunded to the embalmer If k or more archaeologists are accused over the lifetime of a sarcophagus, the sarcophagus state will be updated to Accused and bonds for all remaining unaccused archaeologists will be returned"
      }
    },
    "version": 1
  },
  "storageLayout": {
    "storage": [
      {
        "astId": 2650,
        "contract": "contracts/facets/ThirdPartyFacet.sol:ThirdPartyFacet",
        "label": "s",
        "offset": 0,
        "slot": "0",
        "type": "t_struct(AppStorage)4520_storage"
      }
    ],
    "types": {
      "t_address": {
        "encoding": "inplace",
        "label": "address",
        "numberOfBytes": "20"
      },
      "t_array(t_address)dyn_storage": {
        "base": "t_address",
        "encoding": "dynamic_array",
        "label": "address[]",
        "numberOfBytes": "32"
      },
      "t_array(t_bytes32)dyn_storage": {
        "base": "t_bytes32",
        "encoding": "dynamic_array",
        "label": "bytes32[]",
        "numberOfBytes": "32"
      },
      "t_array(t_string_storage)2_storage": {
        "base": "t_string_storage",
        "encoding": "inplace",
        "label": "string[2]",
        "numberOfBytes": "64"
      },
      "t_bool": {
        "encoding": "inplace",
        "label": "bool",
        "numberOfBytes": "1"
      },
      "t_bytes32": {
        "encoding": "inplace",
        "label": "bytes32",
        "numberOfBytes": "32"
      },
      "t_bytes_storage": {
        "encoding": "bytes",
        "label": "bytes",
        "numberOfBytes": "32"
      },
      "t_contract(IERC20)77": {
        "encoding": "inplace",
        "label": "contract IERC20",
        "numberOfBytes": "20"
      },
      "t_mapping(t_address,t_array(t_bytes32)dyn_storage)": {
        "encoding": "mapping",
        "key": "t_address",
        "label": "mapping(address => bytes32[])",
        "numberOfBytes": "32",
        "value": "t_array(t_bytes32)dyn_storage"
      },
      "t_mapping(t_address,t_struct(ArchaeologistProfile)4104_storage)": {
        "encoding": "mapping",
        "key": "t_address",
        "label": "mapping(address => struct LibTypes.ArchaeologistProfile)",
        "numberOfBytes": "32",
        "value": "t_struct(ArchaeologistProfile)4104_storage"
      },
      "t_mapping(t_address,t_struct(CursedArchaeologist)4091_storage)": {
        "encoding": "mapping",
        "key": "t_address",
        "label": "mapping(address => struct LibTypes.CursedArchaeologist)",
        "numberOfBytes": "32",
        "value": "t_struct(CursedArchaeologist)4091_storage"
      },
      "t_mapping(t_address,t_uint256)": {
        "encoding": "mapping",
        "key": "t_address",
        "label": "mapping(address => uint256)",
        "numberOfBytes": "32",
        "value": "t_uint256"
      },
      "t_mapping(t_bytes32,t_address)": {
        "encoding": "mapping",
        "key": "t_bytes32",
        "label": "mapping(bytes32 => address)",
        "numberOfBytes": "32",
        "value": "t_address"
      },
      "t_mapping(t_bytes32,t_struct(Sarcophagus)4082_storage)": {
        "encoding": "mapping",
        "key": "t_bytes32",
        "label": "mapping(bytes32 => struct LibTypes.Sarcophagus)",
        "numberOfBytes": "32",
        "value": "t_struct(Sarcophagus)4082_storage"
      },
      "t_string_storage": {
        "encoding": "bytes",
        "label": "string",
        "numberOfBytes": "32"
      },
      "t_struct(AppStorage)4520_storage": {
        "encoding": "inplace",
        "label": "struct AppStorage",
        "members": [
          {
            "astId": 4454,
            "contract": "contracts/facets/ThirdPartyFacet.sol:ThirdPartyFacet",
            "label": "sarcoToken",
            "offset": 0,
            "slot": "0",
            "type": "t_contract(IERC20)77"
          },
          {
            "astId": 4456,
            "contract": "contracts/facets/ThirdPartyFacet.sol:ThirdPartyFacet",
            "label": "totalProtocolFees",
            "offset": 0,
            "slot": "1",
            "type": "t_uint256"
          },
          {
            "astId": 4459,
            "contract": "contracts/facets/ThirdPartyFacet.sol:ThirdPartyFacet",
            "label": "protocolFeeBasePercentage",
            "offset": 0,
            "slot": "2",
            "type": "t_uint256"
          },
          {
            "astId": 4461,
            "contract": "contracts/facets/ThirdPartyFacet.sol:ThirdPartyFacet",
            "label": "gracePeriod",
            "offset": 0,
            "slot": "3",
            "type": "t_uint256"
          },
          {
            "astId": 4463,
            "contract": "contracts/facets/ThirdPartyFacet.sol:ThirdPartyFacet",
            "label": "expirationThreshold",
            "offset": 0,
            "slot": "4",
            "type": "t_uint256"
          },
          {
            "astId": 4469,
            "contract": "contracts/facets/ThirdPartyFacet.sol:ThirdPartyFacet",
            "label": "embalmerSarcophagi",
            "offset": 0,
            "slot": "5",
            "type": "t_mapping(t_address,t_array(t_bytes32)dyn_storage)"
          },
          {
            "astId": 4474,
            "contract": "contracts/facets/ThirdPartyFacet.sol:ThirdPartyFacet",
            "label": "archaeologistSarcophagi",
            "offset": 0,
            "slot": "6",
            "type": "t_mapping(t_address,t_array(t_bytes32)dyn_storage)"
          },
          {
            "astId": 4479,
            "contract": "contracts/facets/ThirdPartyFacet.sol:ThirdPartyFacet",
            "label": "recipientSarcophagi",
            "offset": 0,
            "slot": "7",
            "type": "t_mapping(t_address,t_array(t_bytes32)dyn_storage)"
          },
          {
            "astId": 4483,
            "contract": "contracts/facets/ThirdPartyFacet.sol:ThirdPartyFacet",
            "label": "doubleHashedShardArchaeologists",
            "offset": 0,
            "slot": "8",
            "type": "t_mapping(t_bytes32,t_address)"
          },
          {
            "astId": 4486,
            "contract": "contracts/facets/ThirdPartyFacet.sol:ThirdPartyFacet",
            "label": "sarcophagusIdentifiers",
            "offset": 0,
            "slot": "9",
            "type": "t_array(t_bytes32)dyn_storage"
          },
          {
            "astId": 4491,
            "contract": "contracts/facets/ThirdPartyFacet.sol:ThirdPartyFacet",
            "label": "sarcophagi",
            "offset": 0,
            "slot": "10",
            "type": "t_mapping(t_bytes32,t_struct(Sarcophagus)4082_storage)"
          },
          {
            "astId": 4494,
            "contract": "contracts/facets/ThirdPartyFacet.sol:ThirdPartyFacet",
            "label": "archaeologistProfileAddresses",
            "offset": 0,
            "slot": "11",
            "type": "t_array(t_address)dyn_storage"
          },
          {
            "astId": 4499,
            "contract": "contracts/facets/ThirdPartyFacet.sol:ThirdPartyFacet",
            "label": "archaeologistProfiles",
            "offset": 0,
            "slot": "12",
            "type": "t_mapping(t_address,t_struct(ArchaeologistProfile)4104_storage)"
          },
          {
            "astId": 4503,
            "contract": "contracts/facets/ThirdPartyFacet.sol:ThirdPartyFacet",
            "label": "archaeologistRewards",
            "offset": 0,
            "slot": "13",
            "type": "t_mapping(t_address,t_uint256)"
          },
          {
            "astId": 4509,
            "contract": "contracts/facets/ThirdPartyFacet.sol:ThirdPartyFacet",
            "label": "archaeologistSuccesses",
            "offset": 0,
            "slot": "14",
            "type": "t_mapping(t_address,t_array(t_bytes32)dyn_storage)"
          },
          {
            "astId": 4514,
            "contract": "contracts/facets/ThirdPartyFacet.sol:ThirdPartyFacet",
            "label": "archaeologistAccusals",
            "offset": 0,
            "slot": "15",
            "type": "t_mapping(t_address,t_array(t_bytes32)dyn_storage)"
          },
          {
            "astId": 4519,
            "contract": "contracts/facets/ThirdPartyFacet.sol:ThirdPartyFacet",
            "label": "archaeologistCleanups",
            "offset": 0,
            "slot": "16",
            "type": "t_mapping(t_address,t_array(t_bytes32)dyn_storage)"
          }
        ],
        "numberOfBytes": "544"
      },
      "t_struct(ArchaeologistProfile)4104_storage": {
        "encoding": "inplace",
        "label": "struct LibTypes.ArchaeologistProfile",
        "members": [
          {
            "astId": 4093,
            "contract": "contracts/facets/ThirdPartyFacet.sol:ThirdPartyFacet",
            "label": "exists",
            "offset": 0,
            "slot": "0",
            "type": "t_bool"
          },
          {
            "astId": 4095,
            "contract": "contracts/facets/ThirdPartyFacet.sol:ThirdPartyFacet",
            "label": "peerId",
            "offset": 0,
            "slot": "1",
            "type": "t_string_storage"
          },
          {
            "astId": 4097,
            "contract": "contracts/facets/ThirdPartyFacet.sol:ThirdPartyFacet",
            "label": "minimumDiggingFee",
            "offset": 0,
            "slot": "2",
            "type": "t_uint256"
          },
          {
            "astId": 4099,
            "contract": "contracts/facets/ThirdPartyFacet.sol:ThirdPartyFacet",
            "label": "maximumRewrapInterval",
            "offset": 0,
            "slot": "3",
            "type": "t_uint256"
          },
          {
            "astId": 4101,
            "contract": "contracts/facets/ThirdPartyFacet.sol:ThirdPartyFacet",
            "label": "freeBond",
            "offset": 0,
            "slot": "4",
            "type": "t_uint256"
          },
          {
            "astId": 4103,
            "contract": "contracts/facets/ThirdPartyFacet.sol:ThirdPartyFacet",
            "label": "cursedBond",
            "offset": 0,
            "slot": "5",
            "type": "t_uint256"
          }
        ],
        "numberOfBytes": "192"
      },
      "t_struct(CursedArchaeologist)4091_storage": {
        "encoding": "inplace",
        "label": "struct LibTypes.CursedArchaeologist",
        "members": [
          {
            "astId": 4084,
            "contract": "contracts/facets/ThirdPartyFacet.sol:ThirdPartyFacet",
            "label": "doubleHashedKeyShare",
            "offset": 0,
            "slot": "0",
            "type": "t_bytes32"
          },
          {
            "astId": 4086,
            "contract": "contracts/facets/ThirdPartyFacet.sol:ThirdPartyFacet",
            "label": "isAccused",
            "offset": 0,
            "slot": "1",
            "type": "t_bool"
          },
          {
            "astId": 4088,
            "contract": "contracts/facets/ThirdPartyFacet.sol:ThirdPartyFacet",
            "label": "diggingFee",
            "offset": 0,
            "slot": "2",
            "type": "t_uint256"
          },
          {
            "astId": 4090,
            "contract": "contracts/facets/ThirdPartyFacet.sol:ThirdPartyFacet",
            "label": "rawKeyShare",
            "offset": 0,
            "slot": "3",
            "type": "t_bytes_storage"
          }
        ],
        "numberOfBytes": "128"
      },
      "t_struct(Sarcophagus)4082_storage": {
        "encoding": "inplace",
        "label": "struct LibTypes.Sarcophagus",
        "members": [
          {
            "astId": 4057,
            "contract": "contracts/facets/ThirdPartyFacet.sol:ThirdPartyFacet",
            "label": "resurrectionTime",
            "offset": 0,
            "slot": "0",
            "type": "t_uint256"
          },
          {
            "astId": 4059,
            "contract": "contracts/facets/ThirdPartyFacet.sol:ThirdPartyFacet",
            "label": "isCompromised",
            "offset": 0,
            "slot": "1",
            "type": "t_bool"
          },
          {
            "astId": 4061,
            "contract": "contracts/facets/ThirdPartyFacet.sol:ThirdPartyFacet",
            "label": "name",
            "offset": 0,
            "slot": "2",
            "type": "t_string_storage"
          },
          {
            "astId": 4063,
            "contract": "contracts/facets/ThirdPartyFacet.sol:ThirdPartyFacet",
            "label": "threshold",
            "offset": 0,
            "slot": "3",
            "type": "t_uint8"
          },
          {
            "astId": 4065,
            "contract": "contracts/facets/ThirdPartyFacet.sol:ThirdPartyFacet",
            "label": "maximumRewrapInterval",
            "offset": 0,
            "slot": "4",
            "type": "t_uint256"
          },
          {
            "astId": 4069,
            "contract": "contracts/facets/ThirdPartyFacet.sol:ThirdPartyFacet",
            "label": "arweaveTxIds",
            "offset": 0,
            "slot": "5",
            "type": "t_array(t_string_storage)2_storage"
          },
          {
            "astId": 4071,
            "contract": "contracts/facets/ThirdPartyFacet.sol:ThirdPartyFacet",
            "label": "embalmerAddress",
            "offset": 0,
            "slot": "7",
            "type": "t_address"
          },
          {
            "astId": 4073,
            "contract": "contracts/facets/ThirdPartyFacet.sol:ThirdPartyFacet",
            "label": "recipientAddress",
            "offset": 0,
            "slot": "8",
            "type": "t_address"
          },
          {
            "astId": 4076,
            "contract": "contracts/facets/ThirdPartyFacet.sol:ThirdPartyFacet",
            "label": "cursedArchaeologistAddresses",
            "offset": 0,
            "slot": "9",
            "type": "t_array(t_address)dyn_storage"
          },
          {
            "astId": 4081,
            "contract": "contracts/facets/ThirdPartyFacet.sol:ThirdPartyFacet",
            "label": "cursedArchaeologists",
            "offset": 0,
            "slot": "10",
            "type": "t_mapping(t_address,t_struct(CursedArchaeologist)4091_storage)"
          }
        ],
        "numberOfBytes": "352"
      },
      "t_uint256": {
        "encoding": "inplace",
        "label": "uint256",
        "numberOfBytes": "32"
      },
      "t_uint8": {
        "encoding": "inplace",
        "label": "uint8",
        "numberOfBytes": "1"
      }
    }
  }
}