{
  "address": "0xf73f5dF4Ea06a5A1c943F3b1AF1450422F936807",
  "abi": [
    {
      "inputs": [],
      "name": "AccuseIncorrectProof",
      "type": "error"
    },
    {
      "inputs": [
        {
          "internalType": "uint256",
          "name": "shardsProvided",
          "type": "uint256"
        },
        {
          "internalType": "uint8",
          "name": "minShards",
          "type": "uint8"
        }
      ],
      "name": "AccuseNotEnoughProof",
      "type": "error"
    },
    {
      "inputs": [
        {
          "internalType": "uint256",
          "name": "cursedBond",
          "type": "uint256"
        },
        {
          "internalType": "uint256",
          "name": "amount",
          "type": "uint256"
        }
      ],
      "name": "NotEnoughCursedBond",
      "type": "error"
    },
    {
      "inputs": [
        {
          "internalType": "bytes32",
          "name": "sarcoId",
          "type": "bytes32"
        }
      ],
      "name": "SarcophagusDoesNotExist",
      "type": "error"
    },
    {
      "inputs": [
        {
          "internalType": "bytes32",
          "name": "sarcoId",
          "type": "bytes32"
        }
      ],
      "name": "SarcophagusInactive",
      "type": "error"
    },
    {
      "inputs": [],
      "name": "SarcophagusIsUnwrappable",
      "type": "error"
    },
    {
      "inputs": [],
      "name": "SarcophagusNotCleanable",
      "type": "error"
    },
    {
      "anonymous": false,
      "inputs": [
        {
          "indexed": true,
          "internalType": "bytes32",
          "name": "sarcoId",
          "type": "bytes32"
        },
        {
          "indexed": true,
          "internalType": "address",
          "name": "accuser",
          "type": "address"
        },
        {
          "indexed": false,
          "internalType": "uint256",
          "name": "accuserBondReward",
          "type": "uint256"
        },
        {
          "indexed": false,
          "internalType": "uint256",
          "name": "embalmerBondReward",
          "type": "uint256"
        }
      ],
      "name": "AccuseArchaeologist",
      "type": "event"
    },
    {
      "anonymous": false,
      "inputs": [
        {
          "indexed": true,
          "internalType": "bytes32",
          "name": "sarcoId",
          "type": "bytes32"
        },
        {
          "indexed": true,
          "internalType": "address",
          "name": "cleaner",
          "type": "address"
        },
        {
          "indexed": false,
          "internalType": "uint256",
          "name": "cleanerBondReward",
          "type": "uint256"
        },
        {
          "indexed": false,
          "internalType": "uint256",
          "name": "embalmerBondReward",
          "type": "uint256"
        }
      ],
      "name": "CleanUpSarcophagus",
      "type": "event"
    },
    {
      "inputs": [
        {
          "internalType": "bytes32",
          "name": "sarcoId",
          "type": "bytes32"
        },
        {
          "internalType": "bytes32[]",
          "name": "unencryptedShardHashes",
          "type": "bytes32[]"
        },
        {
          "internalType": "address",
          "name": "paymentAddress",
          "type": "address"
        }
      ],
      "name": "accuse",
      "outputs": [],
      "stateMutability": "nonpayable",
      "type": "function"
    },
    {
      "inputs": [
        {
          "internalType": "bytes32",
          "name": "sarcoId",
          "type": "bytes32"
        },
        {
          "internalType": "address",
          "name": "paymentAddress",
          "type": "address"
        }
      ],
      "name": "clean",
      "outputs": [],
      "stateMutability": "nonpayable",
      "type": "function"
    }
  ],
  "transactionHash": "0xac45a1e7826ad2e50d2732a3fdfa256fb706a500ee3446cef65a5957dcc3c811",
  "args": [],
  "numDeployments": 3,
  "solcInputHash": "e93e69833cc2861ad35b8a71c75835fd",
  "bytecode": "0x608060405234801561001057600080fd5b50611670806100206000396000f3fe608060405234801561001057600080fd5b50600436106100365760003560e01c80633f5e9d6c1461003b5780635c88a8e114610057575b600080fd5b610055600480360381019061005091906110c5565b610073565b005b610071600480360381019061006c919061125e565b6104c0565b005b61007c82610a3a565b600080600d016000848152602001908152602001600020905080600201546000600301546100aa9190611306565b4210156100e3576040517f57f122a100000000000000000000000000000000000000000000000000000000815260040160405180910390fd5b60008160070180548060200260200160405190810160405280929190818152602001828054801561016957602002820191906000526020600020905b8160009054906101000a900473ffffffffffffffffffffffffffffffffffffffff1673ffffffffffffffffffffffffffffffffffffffff168152602001906001019080831161011f575b5050505050905060008060005b83518110156104245760008015156000600801600087858151811061019e5761019d61135c565b5b602002602001015173ffffffffffffffffffffffffffffffffffffffff1673ffffffffffffffffffffffffffffffffffffffff16815260200190815260200160002060008a815260200190815260200160002060009054906101000a900460ff16151514905080156104105760008060120160008a815260200190815260200160002060008785815181106102365761023561135c565b5b602002602001015173ffffffffffffffffffffffffffffffffffffffff1673ffffffffffffffffffffffffffffffffffffffff1681526020019081526020016000206040518060800160405290816000820154815260200160018201548152602001600282015481526020016003820180546102b1906113ba565b80601f01602080910402602001604051908101604052809291908181526020018280546102dd906113ba565b801561032a5780601f106102ff5761010080835404028352916020019161032a565b820191906000526020600020905b81548152906001019060200180831161030d57829003601f168201915b50505050508152505090508060000151846103459190611306565b935060006103568260000151610b66565b905080866103649190611306565b955061038a87858151811061037c5761037b61135c565b5b602002602001015182610b70565b6000600b0160008886815181106103a4576103a361135c565b5b602002602001015173ffffffffffffffffffffffffffffffffffffffff1673ffffffffffffffffffffffffffffffffffffffff1681526020019081526020016000208a908060018154018082558091505060019003906000526020600020016000909190919091505550505b50808061041c906113eb565b915050610176565b5060008061043487878686610cab565b9150915060058660010160006101000a81548160ff021916908360078111156104605761045f611433565b5b02179055503373ffffffffffffffffffffffffffffffffffffffff16887f106e723534f3d39516c80d5e49eb5ac7788139c661267137c40382659d409fb984846040516104ae929190611471565b60405180910390a35050505050505050565b6104c983610a3a565b600080600d01600085815260200190815260200160002090504281600201541015610520576040517f8680d5de00000000000000000000000000000000000000000000000000000000815260040160405180910390fd5b8060010160019054906101000a900460ff1660ff168351101561058e5782518160010160019054906101000a900460ff166040517f5dcc949b0000000000000000000000000000000000000000000000000000000081526004016105859291906114b6565b60405180910390fd5b6000835167ffffffffffffffff8111156105ab576105aa61111b565b5b6040519080825280602002602001820160405280156105d95781602001602082028036833780820191505090505b5090506000806000805b87518110156108185760008882815181106106015761060061135c565b5b602002602001015160405160200161061991906114ee565b604051602081830303815290604052805190602001209050600080601101600083815260200190815260200160002060009054906101000a900473ffffffffffffffffffffffffffffffffffffffff16905060008060120160008d815260200190815260200160002060008373ffffffffffffffffffffffffffffffffffffffff1673ffffffffffffffffffffffffffffffffffffffff1681526020019081526020016000209050828160020154036107d057818886806106d9906113eb565b9750815181106106ec576106eb61135c565b5b602002602001019073ffffffffffffffffffffffffffffffffffffffff16908173ffffffffffffffffffffffffffffffffffffffff168152505060006107358260000154610b66565b90508160000154886107479190611306565b975080876107559190611306565b96506107618382610b70565b6000600a0160008473ffffffffffffffffffffffffffffffffffffffff1673ffffffffffffffffffffffffffffffffffffffff1681526020019081526020016000208d908060018154018082558091505060019003906000526020600020016000909190919091505550610802565b6040517ff2591c7900000000000000000000000000000000000000000000000000000000815260040160405180910390fd5b5050508080610810906113eb565b9150506105e3565b50600080600d0160008a81526020019081526020016000206007018054806020026020016040519081016040528092919081815260200182805480156108b357602002820191906000526020600020905b8160009054906101000a900473ffffffffffffffffffffffffffffffffffffffff1673ffffffffffffffffffffffffffffffffffffffff1681526020019060010190808311610869575b5050505050905060005b815181101561099b5760006001905060005b875181101561095b578781815181106108eb576108ea61135c565b5b602002602001015173ffffffffffffffffffffffffffffffffffffffff1684848151811061091c5761091b61135c565b5b602002602001015173ffffffffffffffffffffffffffffffffffffffff1603610948576000915061095b565b8080610953906113eb565b9150506108cf565b508015610987576109868b8484815181106109795761097861135c565b5b6020026020010151610e55565b5b508080610993906113eb565b9150506108bd565b506000806109ab89898789610cab565b9150915060068860010160006101000a81548160ff021916908360078111156109d7576109d6611433565b5b02179055503373ffffffffffffffffffffffffffffffffffffffff168b7f6cee286923fc4de6af78ba8b06ff9f4236e5aad4282a5e13a3cea8446c803fd48484604051610a25929190611471565b60405180910390a35050505050505050505050565b6000610a44610f94565b905060006007811115610a5a57610a59611433565b5b81600d01600084815260200190815260200160002060010160009054906101000a900460ff166007811115610a9257610a91611433565b5b03610ad457816040517f018da688000000000000000000000000000000000000000000000000000000008152600401610acb91906114ee565b60405180910390fd5b60016007811115610ae857610ae7611433565b5b81600d01600084815260200190815260200160002060010160009054906101000a900460ff166007811115610b2057610b1f611433565b5b14610b6257816040517f7c6a6d70000000000000000000000000000000000000000000000000000000008152600401610b5991906114ee565b60405180910390fd5b5050565b6000819050919050565b6000610b7a610f94565b90508060070160008473ffffffffffffffffffffffffffffffffffffffff1673ffffffffffffffffffffffffffffffffffffffff16815260200190815260200160002060050154821115610c4b578060070160008473ffffffffffffffffffffffffffffffffffffffff1673ffffffffffffffffffffffffffffffffffffffff16815260200190815260200160002060050154826040517faf5a111b000000000000000000000000000000000000000000000000000000008152600401610c42929190611471565b60405180910390fd5b818160070160008573ffffffffffffffffffffffffffffffffffffffff1673ffffffffffffffffffffffffffffffffffffffff1681526020019081526020016000206005016000828254610c9f9190611509565b92505081905550505050565b6000806000600285610cbd919061156c565b905060008186610ccd9190611509565b90506000800160009054906101000a900473ffffffffffffffffffffffffffffffffffffffff1673ffffffffffffffffffffffffffffffffffffffff1663a9059cbb8860050160009054906101000a900473ffffffffffffffffffffffffffffffffffffffff168488610d409190611306565b6040518363ffffffff1660e01b8152600401610d5d9291906115ac565b6020604051808303816000875af1158015610d7c573d6000803e3d6000fd5b505050506040513d601f19601f82011682018060405250810190610da0919061160d565b506000800160009054906101000a900473ffffffffffffffffffffffffffffffffffffffff1673ffffffffffffffffffffffffffffffffffffffff1663a9059cbb89836040518363ffffffff1660e01b8152600401610e009291906115ac565b6020604051808303816000875af1158015610e1f573d6000803e3d6000fd5b505050506040513d601f19601f82011682018060405250810190610e43919061160d565b50808293509350505094509492505050565b6000610e5f610f94565b9050600081601201600085815260200190815260200160002060008473ffffffffffffffffffffffffffffffffffffffff1673ffffffffffffffffffffffffffffffffffffffff168152602001908152602001600020604051806080016040529081600082015481526020016001820154815260200160028201548152602001600382018054610eee906113ba565b80601f0160208091040260200160405190810160405280929190818152602001828054610f1a906113ba565b8015610f675780601f10610f3c57610100808354040283529160200191610f67565b820191906000526020600020905b815481529060010190602001808311610f4a57829003601f168201915b50505050508152505090506000610f818260000151610b66565b9050610f8d8482610f99565b5050505050565b600090565b610fa38282610b70565b610fad8282610fb1565b5050565b6000610fbb610f94565b9050818160070160008573ffffffffffffffffffffffffffffffffffffffff1673ffffffffffffffffffffffffffffffffffffffff16815260200190815260200160002060040160008282546110119190611306565b92505081905550505050565b6000604051905090565b600080fd5b600080fd5b6000819050919050565b61104481611031565b811461104f57600080fd5b50565b6000813590506110618161103b565b92915050565b600073ffffffffffffffffffffffffffffffffffffffff82169050919050565b600061109282611067565b9050919050565b6110a281611087565b81146110ad57600080fd5b50565b6000813590506110bf81611099565b92915050565b600080604083850312156110dc576110db611027565b5b60006110ea85828601611052565b92505060206110fb858286016110b0565b9150509250929050565b600080fd5b6000601f19601f8301169050919050565b7f4e487b7100000000000000000000000000000000000000000000000000000000600052604160045260246000fd5b6111538261110a565b810181811067ffffffffffffffff821117156111725761117161111b565b5b80604052505050565b600061118561101d565b9050611191828261114a565b919050565b600067ffffffffffffffff8211156111b1576111b061111b565b5b602082029050602081019050919050565b600080fd5b60006111da6111d584611196565b61117b565b905080838252602082019050602084028301858111156111fd576111fc6111c2565b5b835b8181101561122657806112128882611052565b8452602084019350506020810190506111ff565b5050509392505050565b600082601f83011261124557611244611105565b5b81356112558482602086016111c7565b91505092915050565b60008060006060848603121561127757611276611027565b5b600061128586828701611052565b935050602084013567ffffffffffffffff8111156112a6576112a561102c565b5b6112b286828701611230565b92505060406112c3868287016110b0565b9150509250925092565b6000819050919050565b7f4e487b7100000000000000000000000000000000000000000000000000000000600052601160045260246000fd5b6000611311826112cd565b915061131c836112cd565b9250827fffffffffffffffffffffffffffffffffffffffffffffffffffffffffffffffff03821115611351576113506112d7565b5b828201905092915050565b7f4e487b7100000000000000000000000000000000000000000000000000000000600052603260045260246000fd5b7f4e487b7100000000000000000000000000000000000000000000000000000000600052602260045260246000fd5b600060028204905060018216806113d257607f821691505b6020821081036113e5576113e461138b565b5b50919050565b60006113f6826112cd565b91507fffffffffffffffffffffffffffffffffffffffffffffffffffffffffffffffff8203611428576114276112d7565b5b600182019050919050565b7f4e487b7100000000000000000000000000000000000000000000000000000000600052602160045260246000fd5b61146b816112cd565b82525050565b60006040820190506114866000830185611462565b6114936020830184611462565b9392505050565b600060ff82169050919050565b6114b08161149a565b82525050565b60006040820190506114cb6000830185611462565b6114d860208301846114a7565b9392505050565b6114e881611031565b82525050565b600060208201905061150360008301846114df565b92915050565b6000611514826112cd565b915061151f836112cd565b925082821015611532576115316112d7565b5b828203905092915050565b7f4e487b7100000000000000000000000000000000000000000000000000000000600052601260045260246000fd5b6000611577826112cd565b9150611582836112cd565b9250826115925761159161153d565b5b828204905092915050565b6115a681611087565b82525050565b60006040820190506115c1600083018561159d565b6115ce6020830184611462565b9392505050565b60008115159050919050565b6115ea816115d5565b81146115f557600080fd5b50565b600081519050611607816115e1565b92915050565b60006020828403121561162357611622611027565b5b6000611631848285016115f8565b9150509291505056fea26469706673582212206150d150fd80a6f4bf9245b730d995f764fe7d4e1905974d833bfbbc0579429464736f6c634300080d0033",
  "devdoc": {
    "kind": "dev",
    "methods": {
      "accuse(bytes32,bytes32[],address)": {
        "params": {
          "paymentAddress": "the address to which rewards should be sent if successful",
          "sarcoId": "The identifier of the sarcophagus having leaked shards",
          "unencryptedShardHashes": "At least 'm' unencrypted shard hashes as proof of bad behaviour"
        }
      },
      "clean(bytes32,address)": {
        "params": {
          "paymentAddress": "The address to which rewards will be sent",
          "sarcoId": "The identifier of the sarcophagus to clean"
        }
      }
    },
    "version": 1
  },
  "userdoc": {
    "kind": "user",
    "methods": {
      "accuse(bytes32,bytes32[],address)": {
        "notice": "Accuse archaeologoists of bad behaviour, by providing proof of leaked unencrypted shards before a sarcophagus is ready to be unwrapped. The minumum number of shards required to unwrap the sarcophagus should be provided for a a successful accusal. of the cursed bonds of the archs back to them, and un-curses their bonds."
      },
      "clean(bytes32,address)": {
        "notice": "Close a sarcophagus that has not been unwrapped within its grace period"
      }
    },
    "version": 1
  },
  "storageLayout": {
    "storage": [
      {
        "astId": 2354,
        "contract": "contracts/facets/ThirdPartyFacet.sol:ThirdPartyFacet",
        "label": "s",
        "offset": 0,
        "slot": "0",
        "type": "t_struct(AppStorage)4551_storage"
      }
    ],
    "types": {
      "t_address": {
        "encoding": "inplace",
        "label": "address",
        "numberOfBytes": "20"
      },
      "t_array(t_address)dyn_storage": {
        "base": "t_address",
        "encoding": "dynamic_array",
        "label": "address[]",
        "numberOfBytes": "32"
      },
      "t_array(t_bytes32)dyn_storage": {
        "base": "t_bytes32",
        "encoding": "dynamic_array",
        "label": "bytes32[]",
        "numberOfBytes": "32"
      },
      "t_array(t_string_storage)dyn_storage": {
        "base": "t_string_storage",
        "encoding": "dynamic_array",
        "label": "string[]",
        "numberOfBytes": "32"
      },
      "t_bool": {
        "encoding": "inplace",
        "label": "bool",
        "numberOfBytes": "1"
      },
      "t_bytes32": {
        "encoding": "inplace",
        "label": "bytes32",
        "numberOfBytes": "32"
      },
      "t_bytes_storage": {
        "encoding": "bytes",
        "label": "bytes",
        "numberOfBytes": "32"
      },
      "t_contract(IERC20)663": {
        "encoding": "inplace",
        "label": "contract IERC20",
        "numberOfBytes": "20"
      },
      "t_enum(SarcophagusState)3869": {
        "encoding": "inplace",
        "label": "enum LibTypes.SarcophagusState",
        "numberOfBytes": "1"
      },
      "t_mapping(t_address,t_array(t_bytes32)dyn_storage)": {
        "encoding": "mapping",
        "key": "t_address",
        "label": "mapping(address => bytes32[])",
        "numberOfBytes": "32",
        "value": "t_array(t_bytes32)dyn_storage"
      },
      "t_mapping(t_address,t_mapping(t_bytes32,t_bool))": {
        "encoding": "mapping",
        "key": "t_address",
        "label": "mapping(address => mapping(bytes32 => bool))",
        "numberOfBytes": "32",
        "value": "t_mapping(t_bytes32,t_bool)"
      },
      "t_mapping(t_address,t_struct(ArchaeologistProfile)3920_storage)": {
        "encoding": "mapping",
        "key": "t_address",
        "label": "mapping(address => struct LibTypes.ArchaeologistProfile)",
        "numberOfBytes": "32",
        "value": "t_struct(ArchaeologistProfile)3920_storage"
      },
      "t_mapping(t_address,t_struct(ArchaeologistStorage)3907_storage)": {
        "encoding": "mapping",
        "key": "t_address",
        "label": "mapping(address => struct LibTypes.ArchaeologistStorage)",
        "numberOfBytes": "32",
        "value": "t_struct(ArchaeologistStorage)3907_storage"
      },
      "t_mapping(t_address,t_uint256)": {
        "encoding": "mapping",
        "key": "t_address",
        "label": "mapping(address => uint256)",
        "numberOfBytes": "32",
        "value": "t_uint256"
      },
      "t_mapping(t_bytes32,t_address)": {
        "encoding": "mapping",
        "key": "t_bytes32",
        "label": "mapping(bytes32 => address)",
        "numberOfBytes": "32",
        "value": "t_address"
      },
      "t_mapping(t_bytes32,t_bool)": {
        "encoding": "mapping",
        "key": "t_bytes32",
        "label": "mapping(bytes32 => bool)",
        "numberOfBytes": "32",
        "value": "t_bool"
      },
      "t_mapping(t_bytes32,t_mapping(t_address,t_struct(ArchaeologistStorage)3907_storage))": {
        "encoding": "mapping",
        "key": "t_bytes32",
        "label": "mapping(bytes32 => mapping(address => struct LibTypes.ArchaeologistStorage))",
        "numberOfBytes": "32",
        "value": "t_mapping(t_address,t_struct(ArchaeologistStorage)3907_storage)"
      },
      "t_mapping(t_bytes32,t_struct(Sarcophagus)3955_storage)": {
        "encoding": "mapping",
        "key": "t_bytes32",
        "label": "mapping(bytes32 => struct LibTypes.Sarcophagus)",
        "numberOfBytes": "32",
        "value": "t_struct(Sarcophagus)3955_storage"
      },
      "t_string_storage": {
        "encoding": "bytes",
        "label": "string",
        "numberOfBytes": "32"
      },
      "t_struct(AppStorage)4551_storage": {
        "encoding": "inplace",
        "label": "struct AppStorage",
        "members": [
          {
            "astId": 4475,
            "contract": "contracts/facets/ThirdPartyFacet.sol:ThirdPartyFacet",
            "label": "sarcoToken",
            "offset": 0,
            "slot": "0",
            "type": "t_contract(IERC20)663"
          },
          {
            "astId": 4477,
            "contract": "contracts/facets/ThirdPartyFacet.sol:ThirdPartyFacet",
            "label": "protocolFeeBasePercentage",
            "offset": 0,
            "slot": "1",
            "type": "t_uint256"
          },
          {
            "astId": 4479,
            "contract": "contracts/facets/ThirdPartyFacet.sol:ThirdPartyFacet",
            "label": "totalProtocolFees",
            "offset": 0,
            "slot": "2",
            "type": "t_uint256"
          },
          {
            "astId": 4481,
            "contract": "contracts/facets/ThirdPartyFacet.sol:ThirdPartyFacet",
            "label": "gracePeriod",
            "offset": 0,
            "slot": "3",
            "type": "t_uint256"
          },
          {
            "astId": 4483,
            "contract": "contracts/facets/ThirdPartyFacet.sol:ThirdPartyFacet",
            "label": "expirationThreshold",
            "offset": 0,
            "slot": "4",
            "type": "t_uint256"
          },
          {
            "astId": 4486,
            "contract": "contracts/facets/ThirdPartyFacet.sol:ThirdPartyFacet",
            "label": "sarcophagusIdentifiers",
            "offset": 0,
            "slot": "5",
            "type": "t_array(t_bytes32)dyn_storage"
          },
          {
            "astId": 4489,
            "contract": "contracts/facets/ThirdPartyFacet.sol:ThirdPartyFacet",
            "label": "archaeologistProfileAddresses",
            "offset": 0,
            "slot": "6",
            "type": "t_array(t_address)dyn_storage"
          },
          {
            "astId": 4494,
            "contract": "contracts/facets/ThirdPartyFacet.sol:ThirdPartyFacet",
            "label": "archaeologistProfiles",
            "offset": 0,
            "slot": "7",
            "type": "t_mapping(t_address,t_struct(ArchaeologistProfile)3920_storage)"
          },
          {
            "astId": 4500,
            "contract": "contracts/facets/ThirdPartyFacet.sol:ThirdPartyFacet",
            "label": "archaeologistSarcoSuccesses",
            "offset": 0,
            "slot": "8",
            "type": "t_mapping(t_address,t_mapping(t_bytes32,t_bool))"
          },
          {
            "astId": 4505,
            "contract": "contracts/facets/ThirdPartyFacet.sol:ThirdPartyFacet",
            "label": "archaeologistSuccesses",
            "offset": 0,
            "slot": "9",
            "type": "t_mapping(t_address,t_array(t_bytes32)dyn_storage)"
          },
          {
            "astId": 4510,
            "contract": "contracts/facets/ThirdPartyFacet.sol:ThirdPartyFacet",
            "label": "archaeologistAccusals",
            "offset": 0,
            "slot": "10",
            "type": "t_mapping(t_address,t_array(t_bytes32)dyn_storage)"
          },
          {
            "astId": 4515,
            "contract": "contracts/facets/ThirdPartyFacet.sol:ThirdPartyFacet",
            "label": "archaeologistCleanups",
            "offset": 0,
            "slot": "11",
            "type": "t_mapping(t_address,t_array(t_bytes32)dyn_storage)"
          },
          {
            "astId": 4519,
            "contract": "contracts/facets/ThirdPartyFacet.sol:ThirdPartyFacet",
            "label": "archaeologistRewards",
            "offset": 0,
            "slot": "12",
            "type": "t_mapping(t_address,t_uint256)"
          },
          {
            "astId": 4524,
            "contract": "contracts/facets/ThirdPartyFacet.sol:ThirdPartyFacet",
            "label": "sarcophagi",
            "offset": 0,
            "slot": "13",
            "type": "t_mapping(t_bytes32,t_struct(Sarcophagus)3955_storage)"
          },
          {
            "astId": 4529,
            "contract": "contracts/facets/ThirdPartyFacet.sol:ThirdPartyFacet",
            "label": "embalmerSarcophagi",
            "offset": 0,
            "slot": "14",
            "type": "t_mapping(t_address,t_array(t_bytes32)dyn_storage)"
          },
          {
            "astId": 4534,
            "contract": "contracts/facets/ThirdPartyFacet.sol:ThirdPartyFacet",
            "label": "archaeologistSarcophagi",
            "offset": 0,
            "slot": "15",
            "type": "t_mapping(t_address,t_array(t_bytes32)dyn_storage)"
          },
          {
            "astId": 4539,
            "contract": "contracts/facets/ThirdPartyFacet.sol:ThirdPartyFacet",
            "label": "recipientSarcophagi",
            "offset": 0,
            "slot": "16",
            "type": "t_mapping(t_address,t_array(t_bytes32)dyn_storage)"
          },
          {
            "astId": 4543,
            "contract": "contracts/facets/ThirdPartyFacet.sol:ThirdPartyFacet",
            "label": "doubleHashedShardArchaeologists",
            "offset": 0,
            "slot": "17",
            "type": "t_mapping(t_bytes32,t_address)"
          },
          {
            "astId": 4550,
            "contract": "contracts/facets/ThirdPartyFacet.sol:ThirdPartyFacet",
            "label": "sarcophagusArchaeologists",
            "offset": 0,
            "slot": "18",
            "type": "t_mapping(t_bytes32,t_mapping(t_address,t_struct(ArchaeologistStorage)3907_storage))"
          }
        ],
        "numberOfBytes": "608"
      },
      "t_struct(ArchaeologistProfile)3920_storage": {
        "encoding": "inplace",
        "label": "struct LibTypes.ArchaeologistProfile",
        "members": [
          {
            "astId": 3909,
            "contract": "contracts/facets/ThirdPartyFacet.sol:ThirdPartyFacet",
            "label": "exists",
            "offset": 0,
            "slot": "0",
            "type": "t_bool"
          },
          {
            "astId": 3911,
            "contract": "contracts/facets/ThirdPartyFacet.sol:ThirdPartyFacet",
            "label": "peerId",
            "offset": 0,
            "slot": "1",
            "type": "t_string_storage"
          },
          {
            "astId": 3913,
            "contract": "contracts/facets/ThirdPartyFacet.sol:ThirdPartyFacet",
            "label": "minimumDiggingFee",
            "offset": 0,
            "slot": "2",
            "type": "t_uint256"
          },
          {
            "astId": 3915,
            "contract": "contracts/facets/ThirdPartyFacet.sol:ThirdPartyFacet",
            "label": "maximumRewrapInterval",
            "offset": 0,
            "slot": "3",
            "type": "t_uint256"
          },
          {
            "astId": 3917,
            "contract": "contracts/facets/ThirdPartyFacet.sol:ThirdPartyFacet",
            "label": "freeBond",
            "offset": 0,
            "slot": "4",
            "type": "t_uint256"
          },
          {
            "astId": 3919,
            "contract": "contracts/facets/ThirdPartyFacet.sol:ThirdPartyFacet",
            "label": "cursedBond",
            "offset": 0,
            "slot": "5",
            "type": "t_uint256"
          }
        ],
        "numberOfBytes": "192"
      },
      "t_struct(ArchaeologistStorage)3907_storage": {
        "encoding": "inplace",
        "label": "struct LibTypes.ArchaeologistStorage",
        "members": [
          {
            "astId": 3900,
            "contract": "contracts/facets/ThirdPartyFacet.sol:ThirdPartyFacet",
            "label": "diggingFee",
            "offset": 0,
            "slot": "0",
            "type": "t_uint256"
          },
          {
            "astId": 3902,
            "contract": "contracts/facets/ThirdPartyFacet.sol:ThirdPartyFacet",
            "label": "diggingFeesPaid",
            "offset": 0,
            "slot": "1",
            "type": "t_uint256"
          },
          {
            "astId": 3904,
            "contract": "contracts/facets/ThirdPartyFacet.sol:ThirdPartyFacet",
            "label": "unencryptedShardDoubleHash",
            "offset": 0,
            "slot": "2",
            "type": "t_bytes32"
          },
          {
            "astId": 3906,
            "contract": "contracts/facets/ThirdPartyFacet.sol:ThirdPartyFacet",
            "label": "unencryptedShard",
            "offset": 0,
            "slot": "3",
            "type": "t_bytes_storage"
          }
        ],
        "numberOfBytes": "128"
      },
      "t_struct(Sarcophagus)3955_storage": {
        "encoding": "inplace",
        "label": "struct LibTypes.Sarcophagus",
        "members": [
          {
            "astId": 3935,
            "contract": "contracts/facets/ThirdPartyFacet.sol:ThirdPartyFacet",
            "label": "name",
            "offset": 0,
            "slot": "0",
            "type": "t_string_storage"
          },
          {
            "astId": 3938,
            "contract": "contracts/facets/ThirdPartyFacet.sol:ThirdPartyFacet",
            "label": "state",
            "offset": 0,
            "slot": "1",
            "type": "t_enum(SarcophagusState)3869"
          },
          {
            "astId": 3940,
            "contract": "contracts/facets/ThirdPartyFacet.sol:ThirdPartyFacet",
            "label": "minShards",
            "offset": 1,
            "slot": "1",
            "type": "t_uint8"
          },
          {
            "astId": 3942,
            "contract": "contracts/facets/ThirdPartyFacet.sol:ThirdPartyFacet",
            "label": "resurrectionTime",
            "offset": 0,
            "slot": "2",
            "type": "t_uint256"
          },
          {
            "astId": 3944,
            "contract": "contracts/facets/ThirdPartyFacet.sol:ThirdPartyFacet",
            "label": "maximumRewrapInterval",
            "offset": 0,
            "slot": "3",
            "type": "t_uint256"
          },
          {
            "astId": 3947,
            "contract": "contracts/facets/ThirdPartyFacet.sol:ThirdPartyFacet",
            "label": "arweaveTxIds",
            "offset": 0,
            "slot": "4",
            "type": "t_array(t_string_storage)dyn_storage"
          },
          {
            "astId": 3949,
            "contract": "contracts/facets/ThirdPartyFacet.sol:ThirdPartyFacet",
            "label": "embalmer",
            "offset": 0,
            "slot": "5",
            "type": "t_address"
          },
          {
            "astId": 3951,
            "contract": "contracts/facets/ThirdPartyFacet.sol:ThirdPartyFacet",
            "label": "recipientAddress",
            "offset": 0,
            "slot": "6",
            "type": "t_address"
          },
          {
            "astId": 3954,
            "contract": "contracts/facets/ThirdPartyFacet.sol:ThirdPartyFacet",
            "label": "archaeologists",
            "offset": 0,
            "slot": "7",
            "type": "t_array(t_address)dyn_storage"
          }
        ],
        "numberOfBytes": "256"
      },
      "t_uint256": {
        "encoding": "inplace",
        "label": "uint256",
        "numberOfBytes": "32"
      },
      "t_uint8": {
        "encoding": "inplace",
        "label": "uint8",
        "numberOfBytes": "1"
      }
    }
  }
}