{
  "address": "0x9B5F1Ff572f64540D41408b6BC95408bB02dB69b",
  "abi": [
    {
      "inputs": [
        {
          "internalType": "address",
          "name": "archaeologist",
          "type": "address"
        }
      ],
      "name": "ArchaeologistNotOnSarcophagus",
      "type": "error"
    },
    {
      "inputs": [
        {
          "internalType": "uint256",
          "name": "signatures",
          "type": "uint256"
        },
        {
          "internalType": "uint256",
          "name": "publicKeys",
          "type": "uint256"
        }
      ],
      "name": "DifferentNumberOfSignaturesAndPublicKeys",
      "type": "error"
    },
    {
      "inputs": [
        {
          "internalType": "uint256",
          "name": "currentTime",
          "type": "uint256"
        },
        {
          "internalType": "uint256",
          "name": "embalmerClaimWindowEnd",
          "type": "uint256"
        }
      ],
      "name": "EmbalmerClaimWindowPassed",
      "type": "error"
    },
    {
      "inputs": [
        {
          "internalType": "bytes32",
          "name": "sarcoId",
          "type": "bytes32"
        },
        {
          "internalType": "address",
          "name": "paymentAddress",
          "type": "address"
        },
        {
          "internalType": "bytes",
          "name": "publicKey",
          "type": "bytes"
        },
        {
          "components": [
            {
              "internalType": "uint8",
              "name": "v",
              "type": "uint8"
            },
            {
              "internalType": "bytes32",
              "name": "r",
              "type": "bytes32"
            },
            {
              "internalType": "bytes32",
              "name": "s",
              "type": "bytes32"
            }
          ],
          "internalType": "struct LibTypes.Signature",
          "name": "signature",
          "type": "tuple"
        }
      ],
      "name": "InvalidAccusalSignature",
      "type": "error"
    },
    {
      "inputs": [
        {
          "internalType": "uint256",
          "name": "cursedBond",
          "type": "uint256"
        },
        {
          "internalType": "uint256",
          "name": "amount",
          "type": "uint256"
        }
      ],
      "name": "NotEnoughCursedBond",
      "type": "error"
    },
    {
      "inputs": [
        {
          "internalType": "uint256",
          "name": "currentTime",
          "type": "uint256"
        },
        {
          "internalType": "uint256",
          "name": "resurrectionTime",
          "type": "uint256"
        }
      ],
      "name": "ResurrectionTimeInPast",
      "type": "error"
    },
    {
      "inputs": [
        {
          "internalType": "bytes32",
          "name": "sarcoId",
          "type": "bytes32"
        }
      ],
      "name": "SarcophagusAlreadyCleaned",
      "type": "error"
    },
    {
      "inputs": [
        {
          "internalType": "bytes32",
          "name": "sarcoId",
          "type": "bytes32"
        }
      ],
      "name": "SarcophagusCompromised",
      "type": "error"
    },
    {
      "inputs": [
        {
          "internalType": "bytes32",
          "name": "sarcoId",
          "type": "bytes32"
        }
      ],
      "name": "SarcophagusDoesNotExist",
      "type": "error"
    },
    {
      "inputs": [
        {
          "internalType": "bytes32",
          "name": "sarcoId",
          "type": "bytes32"
        }
      ],
      "name": "SarcophagusInactive",
      "type": "error"
    },
    {
      "inputs": [
        {
          "internalType": "address",
          "name": "senderAddress",
          "type": "address"
        }
      ],
      "name": "SenderNotEmbalmerOrAdmin",
      "type": "error"
    },
    {
      "inputs": [
        {
          "internalType": "uint256",
          "name": "currentTime",
          "type": "uint256"
        },
        {
          "internalType": "uint256",
          "name": "embalmerClaimWindowEnd",
          "type": "uint256"
        }
      ],
      "name": "TooEarlyForAdminClean",
      "type": "error"
    },
    {
      "inputs": [
        {
          "internalType": "uint256",
          "name": "currentTime",
          "type": "uint256"
        },
        {
          "internalType": "uint256",
          "name": "publishDeadline",
          "type": "uint256"
        }
      ],
      "name": "TooEarlyForClean",
      "type": "error"
    },
    {
      "anonymous": false,
      "inputs": [
        {
          "indexed": true,
          "internalType": "bytes32",
          "name": "sarcoId",
          "type": "bytes32"
        },
        {
          "indexed": true,
          "internalType": "address",
          "name": "accuser",
          "type": "address"
        },
        {
          "indexed": false,
          "internalType": "uint256",
          "name": "totalSlashedBondDistributed",
          "type": "uint256"
        },
        {
          "indexed": false,
          "internalType": "uint256",
          "name": "totalDiggingFeesDistributed",
          "type": "uint256"
        },
        {
          "indexed": true,
          "internalType": "address[]",
          "name": "accusedArchAddresses",
          "type": "address[]"
        }
      ],
      "name": "AccuseArchaeologist",
      "type": "event"
    },
    {
      "anonymous": false,
      "inputs": [
        {
          "indexed": true,
          "internalType": "bytes32",
          "name": "sarcoId",
          "type": "bytes32"
        },
        {
          "indexed": true,
          "internalType": "address",
          "name": "cleaner",
          "type": "address"
        }
      ],
      "name": "Clean",
      "type": "event"
    },
    {
      "inputs": [
        {
          "internalType": "bytes32",
          "name": "sarcoId",
          "type": "bytes32"
        },
        {
          "internalType": "bytes[]",
          "name": "publicKeys",
          "type": "bytes[]"
        },
        {
          "components": [
            {
              "internalType": "uint8",
              "name": "v",
              "type": "uint8"
            },
            {
              "internalType": "bytes32",
              "name": "r",
              "type": "bytes32"
            },
            {
              "internalType": "bytes32",
              "name": "s",
              "type": "bytes32"
            }
          ],
          "internalType": "struct LibTypes.Signature[]",
          "name": "signatures",
          "type": "tuple[]"
        },
        {
          "internalType": "address",
          "name": "paymentAddress",
          "type": "address"
        }
      ],
      "name": "accuse",
      "outputs": [],
      "stateMutability": "nonpayable",
      "type": "function"
    },
    {
      "inputs": [
        {
          "internalType": "bytes32",
          "name": "sarcoId",
          "type": "bytes32"
        }
      ],
      "name": "clean",
      "outputs": [],
      "stateMutability": "nonpayable",
      "type": "function"
    }
  ],
  "transactionHash": "0x34437560d09039ac1a35e44311da1db0599b482ac83926dc3173d6924b8a3650",
  "args": [],
  "numDeployments": 3,
  "solcInputHash": "a78177bbb4eca976d6acf6d6eb39b5ad",
  "bytecode": "0x608060405234801561001057600080fd5b5061263f806100206000396000f3fe608060405234801561001057600080fd5b50600436106100365760003560e01c806397b03b531461003b578063ebad22f814610057575b600080fd5b610055600480360381019061005091906119d8565b610073565b005b610071600480360381019061006c9190611b1e565b6107df565b005b600061007d6110f2565b9050600081600c016000848152602001908152602001600020905060008160000154036100e157826040517f018da6880000000000000000000000000000000000000000000000000000000081526004016100d89190611bd4565b60405180910390fd5b8060070160009054906101000a900473ffffffffffffffffffffffffffffffffffffffff1673ffffffffffffffffffffffffffffffffffffffff163373ffffffffffffffffffffffffffffffffffffffff1614158015610174575061014461111f565b73ffffffffffffffffffffffffffffffffffffffff163373ffffffffffffffffffffffffffffffffffffffff1614155b156101b657336040517fd5fa066e0000000000000000000000000000000000000000000000000000000081526004016101ad9190611bfe565b60405180910390fd5b8060020160009054906101000a900460ff161561020a57826040517f9af72b860000000000000000000000000000000000000000000000000000000081526004016102019190611bd4565b60405180910390fd5b7fffffffffffffffffffffffffffffffffffffffffffffffffffffffffffffffff81600001540361027257826040517f7c6a6d700000000000000000000000000000000000000000000000000000000081526004016102699190611bd4565b60405180910390fd5b8060020160019054906101000a900460ff16156102c657826040517fc921f1850000000000000000000000000000000000000000000000000000000081526004016102bd9190611bd4565b60405180910390fd5b816004015481600001546102da9190611c52565b42116103325742826004015482600001546102f59190611c52565b6040517f808b7d7c000000000000000000000000000000000000000000000000000000008152600401610329929190611c95565b60405180910390fd5b8060070160009054906101000a900473ffffffffffffffffffffffffffffffffffffffff1673ffffffffffffffffffffffffffffffffffffffff163373ffffffffffffffffffffffffffffffffffffffff161480156103b257508160060154826004015482600001546103a59190611c52565b6103af9190611c52565b42115b1561041857428260060154836004015483600001546103d19190611c52565b6103db9190611c52565b6040517f569861b100000000000000000000000000000000000000000000000000000000815260040161040f929190611c95565b60405180910390fd5b61042061111f565b73ffffffffffffffffffffffffffffffffffffffff163373ffffffffffffffffffffffffffffffffffffffff1614801561047c575081600601548260040154826000015461046e9190611c52565b6104789190611c52565b4211155b156104e2574282600601548360040154836000015461049b9190611c52565b6104a59190611c52565b6040517ff88af35b0000000000000000000000000000000000000000000000000000000081526004016104d9929190611c95565b60405180910390fd5b6000808260090180549050905060005b8181101561068b57600084600a01600086600901848154811061051857610517611cbe565b5b9060005260206000200160009054906101000a900473ffffffffffffffffffffffffffffffffffffffff1673ffffffffffffffffffffffffffffffffffffffff1673ffffffffffffffffffffffffffffffffffffffff16815260200190815260200160002090508060030160009054906101000a900460ff161580156105a457506000801b8160010154145b1561067f576000856001015486600001546105bf9190611ced565b82600001546105ce9190611d21565b90508560020160029054906101000a900460ff166105f9578160040154816105f69190611c52565b90505b6000606487600b01548361060d9190611d21565b6106179190611d92565b905080826106259190611c52565b866106309190611c52565b955061067c87600901858154811061064b5761064a611cbe565b5b9060005260206000200160009054906101000a900473ffffffffffffffffffffffffffffffffffffffff1682611152565b50505b816001019150506104f2565b508260070160009054906101000a900473ffffffffffffffffffffffffffffffffffffffff1673ffffffffffffffffffffffffffffffffffffffff163373ffffffffffffffffffffffffffffffffffffffff160361075b576107568360070160009054906101000a900473ffffffffffffffffffffffffffffffffffffffff16838660000160009054906101000a900473ffffffffffffffffffffffffffffffffffffffff1673ffffffffffffffffffffffffffffffffffffffff1661128d9092919063ffffffff16565b610777565b8184600101600082825461076f9190611c52565b925050819055505b60018360020160016101000a81548160ff0219169083151502179055503373ffffffffffffffffffffffffffffffffffffffff16857ffa165ffb1378fffa7397821a24fb52e993eab195619a2573789fca8a9e12b26660405160405180910390a35050505050565b60006107e96110f2565b9050600081600c0160008981526020019081526020016000209050600081600001540361084d57876040517f018da6880000000000000000000000000000000000000000000000000000000081526004016108449190611bd4565b60405180910390fd5b806000015442111561089c574281600001546040517f2458293a000000000000000000000000000000000000000000000000000000008152600401610893929190611c95565b60405180910390fd5b8060020160009054906101000a900460ff16156108f057876040517f9af72b860000000000000000000000000000000000000000000000000000000081526004016108e79190611bd4565b60405180910390fd5b7fffffffffffffffffffffffffffffffffffffffffffffffffffffffffffffffff81600001540361095857876040517f7c6a6d7000000000000000000000000000000000000000000000000000000000815260040161094f9190611bd4565b60405180910390fd5b60008585905090508787905081146109ac5780888890506040517fcc1d5b800000000000000000000000000000000000000000000000000000000081526004016109a3929190611c95565b60405180910390fd5b60008167ffffffffffffffff8111156109c8576109c7611dc3565b5b6040519080825280602002602001820160405280156109f65781602001602082028036833780820191505090505b50905060008060005b84811015610d1f57610a4f8d898e8e85818110610a1f57610a1e611cbe565b5b9050602002810190610a319190611e01565b8e8e87818110610a4457610a43611cbe565b5b905060600201611313565b610ad3578c888d8d84818110610a6857610a67611cbe565b5b9050602002810190610a7a9190611e01565b8d8d86818110610a8d57610a8c611cbe565b5b9050606002016040517f272bd265000000000000000000000000000000000000000000000000000000008152600401610aca959493929190611fa1565b60405180910390fd5b600087600b018d8d84818110610aec57610aeb611cbe565b5b9050602002810190610afe9190611e01565b604051610b0c92919061201f565b908152602001604051809103902060009054906101000a900473ffffffffffffffffffffffffffffffffffffffff169050600087600a0160008373ffffffffffffffffffffffffffffffffffffffff1673ffffffffffffffffffffffffffffffffffffffff16815260200190815260200160002090506000816002018054610b9390612067565b905003610bd757336040517f82881f03000000000000000000000000000000000000000000000000000000008152600401610bce9190611bfe565b60405180910390fd5b8060030160009054906101000a900460ff1615610bfb578260010192505050610d1a565b60018160030160006101000a81548160ff02191690831515021790555081868580610c2590612098565b965081518110610c3857610c37611cbe565b5b602002602001019073ffffffffffffffffffffffffffffffffffffffff16908173ffffffffffffffffffffffffffffffffffffffff16815250506000606489600b01548a600101548b60000154610c8f9190611ced565b8460000154610c9e9190611d21565b610ca89190611d21565b610cb29190611d92565b90508860020160029054906101000a900460ff16610cf857606489600b01548360040154610ce09190611d21565b610cea9190611d92565b81610cf59190611c52565b90505b8086610d049190611c52565b9550610d108382611152565b8360010193505050505b6109ff565b5060008103610d33575050505050506110ea565b6000856009018054905090508560020160039054906101000a900460ff1660ff168210610d7c5760018660020160006101000a81548160ff021916908315150217905550610e73565b6000805b82811015610e375787600a016000896009018381548110610da457610da3611cbe565b5b9060005260206000200160009054906101000a900473ffffffffffffffffffffffffffffffffffffffff1673ffffffffffffffffffffffffffffffffffffffff1673ffffffffffffffffffffffffffffffffffffffff16815260200190815260200160002060030160009054906101000a900460ff1615610e2c5781610e2990612098565b91505b806001019050610d80565b508660020160039054906101000a900460ff1660ff168110610e715760018760020160006101000a81548160ff0219169083151502179055505b505b8560020160009054906101000a900460ff1615610f835760005b81811015610f815786600a016000886009018381548110610eb157610eb0611cbe565b5b9060005260206000200160009054906101000a900473ffffffffffffffffffffffffffffffffffffffff1673ffffffffffffffffffffffffffffffffffffffff1673ffffffffffffffffffffffffffffffffffffffff16815260200190815260200160002060030160009054906101000a900460ff16610f7657610f758e886009018381548110610f4557610f44611cbe565b5b9060005260206000200160009054906101000a900473ffffffffffffffffffffffffffffffffffffffff16611523565b5b806001019050610e8d565b505b506000600183901c90506000606487600b0154610fa09190611d92565b84610fab9190611d92565b905061102b8760070160009054906101000a900473ffffffffffffffffffffffffffffffffffffffff168383610fe19190611c52565b8a60000160009054906101000a900473ffffffffffffffffffffffffffffffffffffffff1673ffffffffffffffffffffffffffffffffffffffff1661128d9092919063ffffffff16565b61107a89838a60000160009054906101000a900473ffffffffffffffffffffffffffffffffffffffff1673ffffffffffffffffffffffffffffffffffffffff1661128d9092919063ffffffff16565b846040516110889190612198565b60405180910390203373ffffffffffffffffffffffffffffffffffffffff168f7fe9dec50cc13b92f93757042597e26d7b2af2ac85e441e773d4701a50093ec8d887856040516110d9929190611c95565b60405180910390a450505050505050505b505050505050565b6000807f2319d9fa277d38834e73ba5e2482efd90323373359a32bb0c96b78353987994190508091505090565b60006111296116d7565b60040160009054906101000a900473ffffffffffffffffffffffffffffffffffffffff16905090565b600061115c6110f2565b905080600d0160008473ffffffffffffffffffffffffffffffffffffffff1673ffffffffffffffffffffffffffffffffffffffff1681526020019081526020016000206005015482111561122d5780600d0160008473ffffffffffffffffffffffffffffffffffffffff1673ffffffffffffffffffffffffffffffffffffffff16815260200190815260200160002060050154826040517faf5a111b000000000000000000000000000000000000000000000000000000008152600401611224929190611c95565b60405180910390fd5b8181600d0160008573ffffffffffffffffffffffffffffffffffffffff1673ffffffffffffffffffffffffffffffffffffffff16815260200190815260200160002060050160008282546112819190611ced565b92505081905550505050565b61130e8363a9059cbb60e01b84846040516024016112ac9291906121af565b604051602081830303815290604052907bffffffffffffffffffffffffffffffffffffffffffffffffffffffff19166020820180517bffffffffffffffffffffffffffffffffffffffffffffffffffffffff8381831617835250505050611704565b505050565b600080848490509050600060018261132b9190611ced565b67ffffffffffffffff81111561134457611343611dc3565b5b6040519080825280601f01601f1916602001820160405280156113765781602001600182028036833780820191505090505b5090506000600190505b828110156113fe5786868281811061139b5761139a611cbe565b5b9050013560f81c60f81b826001836113b39190611ced565b815181106113c4576113c3611cbe565b5b60200101907effffffffffffffffffffffffffffffffffffffffffffffffffffffffffffff1916908160001a905350806001019050611380565b50600088886040516020016114149291906121d8565b6040516020818303038152906040528051906020012060405160200161143a9190612279565b604051602081830303815290604052805190602001209050600060018287600001602081019061146a919061229f565b886020013589604001356040516000815260200160405260405161149194939291906122db565b6020604051602081039080840390855afa1580156114b3573d6000803e3d6000fd5b505050602060405103519050600073ffffffffffffffffffffffffffffffffffffffff848051906020012060001c1690508073ffffffffffffffffffffffffffffffffffffffff168273ffffffffffffffffffffffffffffffffffffffff16149550505050505095945050505050565b600061152d6110f2565b9050600081600c0160008581526020019081526020016000209050600082600c016000868152602001908152602001600020600a0160008573ffffffffffffffffffffffffffffffffffffffff1673ffffffffffffffffffffffffffffffffffffffff16815260200190815260200160002090506000826001015483600001546115b79190611ced565b82600001546115c69190611d21565b90508260020160029054906101000a900460ff166115f1578160040154816115ee9190611c52565b90505b6000606484600b0154836116059190611d21565b61160f9190611d92565b905061161b8682611152565b8085600d0160008873ffffffffffffffffffffffffffffffffffffffff1673ffffffffffffffffffffffffffffffffffffffff168152602001908152602001600020600401600082825461166f9190611c52565b925050819055508185600e0160008873ffffffffffffffffffffffffffffffffffffffff1673ffffffffffffffffffffffffffffffffffffffff16815260200190815260200160002060008282546116c79190611c52565b9250508190555050505050505050565b6000807fc8fcad8db84d3cc18b4c41d551ea0ee66dd599cde068d998e57d5e09332c131c90508091505090565b6000611766826040518060400160405280602081526020017f5361666545524332303a206c6f772d6c6576656c2063616c6c206661696c65648152508573ffffffffffffffffffffffffffffffffffffffff166117cb9092919063ffffffff16565b90506000815111156117c657808060200190518101906117869190612358565b6117c5576040517f08c379a00000000000000000000000000000000000000000000000000000000081526004016117bc90612408565b60405180910390fd5b5b505050565b60606117da84846000856117e3565b90509392505050565b606082471015611828576040517f08c379a000000000000000000000000000000000000000000000000000000000815260040161181f9061249a565b60405180910390fd5b6000808673ffffffffffffffffffffffffffffffffffffffff1685876040516118519190612520565b60006040518083038185875af1925050503d806000811461188e576040519150601f19603f3d011682016040523d82523d6000602084013e611893565b606091505b50915091506118a4878383876118b0565b92505050949350505050565b6060831561191257600083510361190a576118ca85611925565b611909576040517f08c379a000000000000000000000000000000000000000000000000000000000815260040161190090612583565b60405180910390fd5b5b82905061191d565b61191c8383611948565b5b949350505050565b6000808273ffffffffffffffffffffffffffffffffffffffff163b119050919050565b60008251111561195b5781518083602001fd5b806040517f08c379a000000000000000000000000000000000000000000000000000000000815260040161198f91906125e7565b60405180910390fd5b600080fd5b600080fd5b6000819050919050565b6119b5816119a2565b81146119c057600080fd5b50565b6000813590506119d2816119ac565b92915050565b6000602082840312156119ee576119ed611998565b5b60006119fc848285016119c3565b91505092915050565b600080fd5b600080fd5b600080fd5b60008083601f840112611a2a57611a29611a05565b5b8235905067ffffffffffffffff811115611a4757611a46611a0a565b5b602083019150836020820283011115611a6357611a62611a0f565b5b9250929050565b60008083601f840112611a8057611a7f611a05565b5b8235905067ffffffffffffffff811115611a9d57611a9c611a0a565b5b602083019150836060820283011115611ab957611ab8611a0f565b5b9250929050565b600073ffffffffffffffffffffffffffffffffffffffff82169050919050565b6000611aeb82611ac0565b9050919050565b611afb81611ae0565b8114611b0657600080fd5b50565b600081359050611b1881611af2565b92915050565b60008060008060008060808789031215611b3b57611b3a611998565b5b6000611b4989828a016119c3565b965050602087013567ffffffffffffffff811115611b6a57611b6961199d565b5b611b7689828a01611a14565b9550955050604087013567ffffffffffffffff811115611b9957611b9861199d565b5b611ba589828a01611a6a565b93509350506060611bb889828a01611b09565b9150509295509295509295565b611bce816119a2565b82525050565b6000602082019050611be96000830184611bc5565b92915050565b611bf881611ae0565b82525050565b6000602082019050611c136000830184611bef565b92915050565b6000819050919050565b7f4e487b7100000000000000000000000000000000000000000000000000000000600052601160045260246000fd5b6000611c5d82611c19565b9150611c6883611c19565b9250828201905080821115611c8057611c7f611c23565b5b92915050565b611c8f81611c19565b82525050565b6000604082019050611caa6000830185611c86565b611cb76020830184611c86565b9392505050565b7f4e487b7100000000000000000000000000000000000000000000000000000000600052603260045260246000fd5b6000611cf882611c19565b9150611d0383611c19565b9250828203905081811115611d1b57611d1a611c23565b5b92915050565b6000611d2c82611c19565b9150611d3783611c19565b9250828202611d4581611c19565b91508282048414831517611d5c57611d5b611c23565b5b5092915050565b7f4e487b7100000000000000000000000000000000000000000000000000000000600052601260045260246000fd5b6000611d9d82611c19565b9150611da883611c19565b925082611db857611db7611d63565b5b828204905092915050565b7f4e487b7100000000000000000000000000000000000000000000000000000000600052604160045260246000fd5b600080fd5b600080fd5b600080fd5b60008083356001602003843603038112611e1e57611e1d611df2565b5b80840192508235915067ffffffffffffffff821115611e4057611e3f611df7565b5b602083019250600182023603831315611e5c57611e5b611dfc565b5b509250929050565b600082825260208201905092915050565b82818337600083830152505050565b6000601f19601f8301169050919050565b6000611ea18385611e64565b9350611eae838584611e75565b611eb783611e84565b840190509392505050565b600060ff82169050919050565b611ed881611ec2565b8114611ee357600080fd5b50565b600081359050611ef581611ecf565b92915050565b6000611f0a6020840184611ee6565b905092915050565b611f1b81611ec2565b82525050565b6000611f3060208401846119c3565b905092915050565b611f41816119a2565b82525050565b60608201611f586000830183611efb565b611f656000850182611f12565b50611f736020830183611f21565b611f806020850182611f38565b50611f8e6040830183611f21565b611f9b6040850182611f38565b50505050565b600060c082019050611fb66000830188611bc5565b611fc36020830187611bef565b8181036040830152611fd6818587611e95565b9050611fe56060830184611f47565b9695505050505050565b600081905092915050565b60006120068385611fef565b9350612013838584611e75565b82840190509392505050565b600061202c828486611ffa565b91508190509392505050565b7f4e487b7100000000000000000000000000000000000000000000000000000000600052602260045260246000fd5b6000600282049050600182168061207f57607f821691505b60208210810361209257612091612038565b5b50919050565b60006120a382611c19565b91507fffffffffffffffffffffffffffffffffffffffffffffffffffffffffffffffff82036120d5576120d4611c23565b5b600182019050919050565b600081519050919050565b600081905092915050565b6000819050602082019050919050565b61210f81611ae0565b82525050565b60006121218383612106565b60208301905092915050565b6000602082019050919050565b6000612145826120e0565b61214f81856120eb565b935061215a836120f6565b8060005b8381101561218b5781516121728882612115565b975061217d8361212d565b92505060018101905061215e565b5085935050505092915050565b60006121a4828461213a565b915081905092915050565b60006040820190506121c46000830185611bef565b6121d16020830184611c86565b9392505050565b60006040820190506121ed6000830185611bc5565b6121fa6020830184611bef565b9392505050565b600081905092915050565b7f19457468657265756d205369676e6564204d6573736167653a0a333200000000600082015250565b6000612242601c83612201565b915061224d8261220c565b601c82019050919050565b6000819050919050565b61227361226e826119a2565b612258565b82525050565b600061228482612235565b91506122908284612262565b60208201915081905092915050565b6000602082840312156122b5576122b4611998565b5b60006122c384828501611ee6565b91505092915050565b6122d581611ec2565b82525050565b60006080820190506122f06000830187611bc5565b6122fd60208301866122cc565b61230a6040830185611bc5565b6123176060830184611bc5565b95945050505050565b60008115159050919050565b61233581612320565b811461234057600080fd5b50565b6000815190506123528161232c565b92915050565b60006020828403121561236e5761236d611998565b5b600061237c84828501612343565b91505092915050565b600082825260208201905092915050565b7f5361666545524332303a204552433230206f7065726174696f6e20646964206e60008201527f6f74207375636365656400000000000000000000000000000000000000000000602082015250565b60006123f2602a83612385565b91506123fd82612396565b604082019050919050565b60006020820190508181036000830152612421816123e5565b9050919050565b7f416464726573733a20696e73756666696369656e742062616c616e636520666f60008201527f722063616c6c0000000000000000000000000000000000000000000000000000602082015250565b6000612484602683612385565b915061248f82612428565b604082019050919050565b600060208201905081810360008301526124b381612477565b9050919050565b600081519050919050565b60005b838110156124e35780820151818401526020810190506124c8565b60008484015250505050565b60006124fa826124ba565b6125048185611fef565b93506125148185602086016124c5565b80840191505092915050565b600061252c82846124ef565b915081905092915050565b7f416464726573733a2063616c6c20746f206e6f6e2d636f6e7472616374000000600082015250565b600061256d601d83612385565b915061257882612537565b602082019050919050565b6000602082019050818103600083015261259c81612560565b9050919050565b600081519050919050565b60006125b9826125a3565b6125c38185612385565b93506125d38185602086016124c5565b6125dc81611e84565b840191505092915050565b6000602082019050818103600083015261260181846125ae565b90509291505056fea26469706673582212207193881d77c37cae854e003b1e3edcc4654db4882c5f942389a046dd52947c6064736f6c63430008120033",
  "devdoc": {
    "errors": {
      "DifferentNumberOfSignaturesAndPublicKeys(uint256,uint256)": [
        {
          "params": {
            "publicKeys": "the number of public keys passed into the accuse call",
            "signatures": "the number of signatures passed into the accuse call"
          }
        }
      ],
      "EmbalmerClaimWindowPassed(uint256,uint256)": [
        {
          "params": {
            "currentTime": "Timestamp of the failed clean attempt",
            "embalmerClaimWindowEnd": "Latest time an embalmer may claim residual locked bonds the sarcophagus: resurrectionTime + gracePeriod + embalmerClaimWindow"
          }
        }
      ],
      "InvalidAccusalSignature(bytes32,address,bytes,(uint8,bytes32,bytes32))": [
        {
          "params": {
            "paymentAddress": "payment address that should have been signed",
            "publicKey": "publicKey that should be derived from signing key",
            "sarcoId": "that should have been signed",
            "signature": "invalid signature"
          }
        }
      ],
      "ResurrectionTimeInPast(uint256,uint256)": [
        {
          "params": {
            "currentTime": "Timestamp of the failed accuse attempt",
            "resurrectionTime": "Resurrection timestamp which has already passed"
          }
        }
      ],
      "SarcophagusAlreadyCleaned(bytes32)": [
        {
          "params": {
            "sarcoId": "ID of sarcophagus archaeologist has attempted to publish a private key on"
          }
        }
      ],
      "SenderNotEmbalmerOrAdmin(address)": [
        {
          "params": {
            "senderAddress": "Address of sender"
          }
        }
      ],
      "TooEarlyForAdminClean(uint256,uint256)": [
        {
          "params": {
            "currentTime": "Timestamp of the failed clean attempt",
            "embalmerClaimWindowEnd": "Latest time an embalmer may claim residual locked bonds the sarcophagus: resurrectionTime + gracePeriod + embalmerClaimWindow"
          }
        }
      ],
      "TooEarlyForClean(uint256,uint256)": [
        {
          "params": {
            "currentTime": "Timestamp of the failed clean attempt",
            "publishDeadline": "Latest time an archaeologist may publish a private key on a sarcophagus: resurrectionTime + gracePeriod"
          }
        }
      ]
    },
    "kind": "dev",
    "methods": {
      "accuse(bytes32,bytes[],(uint8,bytes32,bytes32)[],address)": {
        "params": {
          "paymentAddress": "the address to which rewards should be sent if successful",
          "publicKeys": "an array of public keys corresponding to leaked private keys - order must match order of signatures",
          "sarcoId": "The identifier of the sarcophagus having leaked private keys",
          "signatures": "an array of signatures of the sarcoId and payment address signed by the leaked private keys - order must match order of publicKeys"
        }
      },
      "clean(bytes32)": {
        "params": {
          "sarcoId": "The identifier of the sarcophagus to clean"
        }
      }
    },
    "version": 1
  },
  "userdoc": {
    "errors": {
      "DifferentNumberOfSignaturesAndPublicKeys(uint256,uint256)": [
        {
          "notice": "Emitted when accuse is called with an unequal numbers of public keys and signatures"
        }
      ],
      "EmbalmerClaimWindowPassed(uint256,uint256)": [
        {
          "notice": "Embalmer has attempted to clean a sarcophagus after the embalmerClaimWindow has passed"
        }
      ],
      "InvalidAccusalSignature(bytes32,address,bytes,(uint8,bytes32,bytes32))": [
        {
          "notice": "Emitted when accuse is called with an invalid signature for the supplied sarcoId, paymentAddress, and publicKey"
        }
      ],
      "ResurrectionTimeInPast(uint256,uint256)": [
        {
          "notice": "Emitted when a third party attempts to accuse an archaeologist on a sarcophagus where the resurrection time has already passed"
        }
      ],
      "SarcophagusAlreadyCleaned(bytes32)": [
        {
          "notice": "Clean has been called on a sarcophagus that has already been cleaned"
        }
      ],
      "SenderNotEmbalmerOrAdmin(address)": [
        {
          "notice": "Clean has been called by someone other than the admin or embalmer of the sarcophagus"
        }
      ],
      "TooEarlyForAdminClean(uint256,uint256)": [
        {
          "notice": "Admin has attempted to clean a sarcophagus before the embalmerClaimWindow has passed"
        }
      ],
      "TooEarlyForClean(uint256,uint256)": [
        {
          "notice": "Clean has been called before the deadline for archaeologists to publish private keys has passed"
        }
      ]
    },
    "kind": "user",
    "methods": {
      "accuse(bytes32,bytes[],(uint8,bytes32,bytes32)[],address)": {
        "notice": "Accuse one or more archaeologists of leaking private keys by submitting signatures on the sarco id and payment address generated with the leaked private keys If the archaeologists responsible for those private keys haven't already been accused, their locked bond will be split between the embalmer and the supplied payment address and digging fees allocated for those archaeologists will be refunded to the embalmer If k or more archaeologists are accused over the lifetime of a sarcophagus, the sarcophagus state will be updated to Accused and bonds for all remaining unaccused archaeologists will be returned"
      },
      "clean(bytes32)": {
        "notice": "If archaeologists fail to publish their private keys on a sarcophagus before the end of the gracePeriod, their locked bonds and diggingFees may be claimed by either the embalmer or the admin embalmers may claim during a limited embalmerClaimWindow after the end of the gracePeriod, after that only the admin will be able to claim remaining locked bond and diggingFees"
      }
    },
    "version": 1
  },
  "storageLayout": {
    "storage": [],
    "types": null
  }
}