{
  "address": "0x7D9291961fCafcb96152E2a07e3275394c919440",
  "abi": [
    {
      "inputs": [
        {
          "internalType": "address",
          "name": "archaeologist",
          "type": "address"
        }
      ],
      "name": "ArchaeologistNotOnSarcophagus",
      "type": "error"
    },
    {
      "inputs": [
        {
          "internalType": "uint256",
          "name": "currentTime",
          "type": "uint256"
        },
        {
          "internalType": "uint256",
          "name": "embalmerClaimWindowEnd",
          "type": "uint256"
        }
      ],
      "name": "EmbalmerClaimWindowPassed",
      "type": "error"
    },
    {
      "inputs": [
        {
          "internalType": "uint256",
          "name": "cursedBond",
          "type": "uint256"
        },
        {
          "internalType": "uint256",
          "name": "amount",
          "type": "uint256"
        }
      ],
      "name": "NotEnoughCursedBond",
      "type": "error"
    },
    {
      "inputs": [
        {
          "internalType": "uint256",
          "name": "currentTime",
          "type": "uint256"
        },
        {
          "internalType": "uint256",
          "name": "resurrectionTime",
          "type": "uint256"
        }
      ],
      "name": "ResurrectionTimeInPast",
      "type": "error"
    },
    {
      "inputs": [
        {
          "internalType": "bytes32",
          "name": "sarcoId",
          "type": "bytes32"
        }
      ],
      "name": "SarcophagusAlreadyCleaned",
      "type": "error"
    },
    {
      "inputs": [
        {
          "internalType": "bytes32",
          "name": "sarcoId",
          "type": "bytes32"
        }
      ],
      "name": "SarcophagusCompromised",
      "type": "error"
    },
    {
      "inputs": [
        {
          "internalType": "bytes32",
          "name": "sarcoId",
          "type": "bytes32"
        }
      ],
      "name": "SarcophagusDoesNotExist",
      "type": "error"
    },
    {
      "inputs": [
        {
          "internalType": "bytes32",
          "name": "sarcoId",
          "type": "bytes32"
        }
      ],
      "name": "SarcophagusInactive",
      "type": "error"
    },
    {
      "inputs": [
        {
          "internalType": "address",
          "name": "senderAddress",
          "type": "address"
        }
      ],
      "name": "SenderNotEmbalmerOrAdmin",
      "type": "error"
    },
    {
      "inputs": [
        {
          "internalType": "uint256",
          "name": "currentTime",
          "type": "uint256"
        },
        {
          "internalType": "uint256",
          "name": "embalmerClaimWindowEnd",
          "type": "uint256"
        }
      ],
      "name": "TooEarlyForAdminClean",
      "type": "error"
    },
    {
      "inputs": [
        {
          "internalType": "uint256",
          "name": "currentTime",
          "type": "uint256"
        },
        {
          "internalType": "uint256",
          "name": "publishDeadline",
          "type": "uint256"
        }
      ],
      "name": "TooEarlyForClean",
      "type": "error"
    },
    {
      "anonymous": false,
      "inputs": [
        {
          "indexed": true,
          "internalType": "bytes32",
          "name": "sarcoId",
          "type": "bytes32"
        },
        {
          "indexed": true,
          "internalType": "address",
          "name": "accuser",
          "type": "address"
        },
        {
          "indexed": false,
          "internalType": "uint256",
          "name": "accuserBondReward",
          "type": "uint256"
        },
        {
          "indexed": false,
          "internalType": "uint256",
          "name": "embalmerBondReward",
          "type": "uint256"
        }
      ],
      "name": "AccuseArchaeologist",
      "type": "event"
    },
    {
      "anonymous": false,
      "inputs": [
        {
          "indexed": true,
          "internalType": "bytes32",
          "name": "sarcoId",
          "type": "bytes32"
        },
        {
          "indexed": true,
          "internalType": "address",
          "name": "cleaner",
          "type": "address"
        }
      ],
      "name": "Clean",
      "type": "event"
    },
    {
      "inputs": [
        {
          "internalType": "bytes32",
          "name": "sarcoId",
          "type": "bytes32"
        },
        {
          "components": [
            {
              "internalType": "uint8",
              "name": "v",
              "type": "uint8"
            },
            {
              "internalType": "bytes32",
              "name": "r",
              "type": "bytes32"
            },
            {
              "internalType": "bytes32",
              "name": "s",
              "type": "bytes32"
            }
          ],
          "internalType": "struct ThirdPartyFacet.Signature[]",
          "name": "signatures",
          "type": "tuple[]"
        },
        {
          "internalType": "address",
          "name": "paymentAddress",
          "type": "address"
        }
      ],
      "name": "accuse",
      "outputs": [],
      "stateMutability": "nonpayable",
      "type": "function"
    },
    {
      "inputs": [
        {
          "internalType": "bytes32",
          "name": "sarcoId",
          "type": "bytes32"
        }
      ],
      "name": "clean",
      "outputs": [],
      "stateMutability": "nonpayable",
      "type": "function"
    }
  ],
  "args": [],
  "numDeployments": 1,
  "solcInputHash": "aafac77779cdafaa19a837f40bbba7a9",
  "bytecode": "0x608060405234801561001057600080fd5b5061197f806100206000396000f3fe608060405234801561001057600080fd5b50600436106100365760003560e01c80634519c2021461003b57806397b03b5314610057575b600080fd5b610055600480360381019061005091906114d4565b610073565b005b610071600480360381019061006c9190611548565b61074f565b005b600080600a016000868152602001908152602001600020905060008160000154036100d557846040517f018da6880000000000000000000000000000000000000000000000000000000081526004016100cc9190611584565b60405180910390fd5b8060000154421115610124574281600001546040517f2458293a00000000000000000000000000000000000000000000000000000000815260040161011b9291906115b8565b60405180910390fd5b8060010160009054906101000a900460ff161561017857846040517f9af72b8600000000000000000000000000000000000000000000000000000000815260040161016f9190611584565b60405180910390fd5b7fffffffffffffffffffffffffffffffffffffffffffffffffffffffffffffffff8160000154036101e057846040517f7c6a6d700000000000000000000000000000000000000000000000000000000081526004016101d79190611584565b60405180910390fd5b60008484905067ffffffffffffffff8111156101ff576101fe6115e1565b5b60405190808252806020026020018201604052801561022d5781602001602082028036833780820191505090505b50905060008060005b8787905081101561046957600060405180602001604052806000815250905060008060090182604051610269919061168a565b908152602001604051809103902060009054906101000a900473ffffffffffffffffffffffffffffffffffffffff16905060008760090160008373ffffffffffffffffffffffffffffffffffffffff1673ffffffffffffffffffffffffffffffffffffffff168152602001908152602001600020905060008160000180546102f0906116d0565b90500361033457336040517f82881f0300000000000000000000000000000000000000000000000000000000815260040161032b9190611710565b60405180910390fd5b8060020160009054906101000a900460ff161561035357505050610469565b60018160020160006101000a81548160ff0219169083151502179055508187868061037d9061175a565b9750815181106103905761038f6117a2565b5b602002602001019073ffffffffffffffffffffffffffffffffffffffff16908173ffffffffffffffffffffffffffffffffffffffff16815250508060030154866103da91906117d1565b95506103ea828260030154610f8b565b6000600f0160008373ffffffffffffffffffffffffffffffffffffffff1673ffffffffffffffffffffffffffffffffffffffff1681526020019081526020016000208c908060018154018082558091505060019003906000526020600020016000909190919091505550505080806104619061175a565b915050610236565b506000810361047b5750505050610749565b8360030160009054906101000a900460ff1660ff1681106104b85760018460010160006101000a81548160ff0219169083151502179055506105c0565b6000805b8560080180549050811015610584578560090160008760080183815481106104e7576104e66117a2565b5b9060005260206000200160009054906101000a900473ffffffffffffffffffffffffffffffffffffffff1673ffffffffffffffffffffffffffffffffffffffff1673ffffffffffffffffffffffffffffffffffffffff16815260200190815260200160002060020160009054906101000a900460ff161561057157818061056d9061175a565b9250505b808061057c9061175a565b9150506104bc565b508460030160009054906101000a900460ff1660ff1681106105be5760018560010160006101000a81548160ff0219169083151502179055505b505b8360010160009054906101000a900460ff16156106df5760005b84600801805490508110156106dd57846009016000866008018381548110610605576106046117a2565b5b9060005260206000200160009054906101000a900473ffffffffffffffffffffffffffffffffffffffff1673ffffffffffffffffffffffffffffffffffffffff1673ffffffffffffffffffffffffffffffffffffffff16815260200190815260200160002060020160009054906101000a900460ff166106ca576106c989866008018381548110610699576106986117a2565b5b9060005260206000200160009054906101000a900473ffffffffffffffffffffffffffffffffffffffff166110c6565b5b80806106d59061175a565b9150506105da565b505b6000806106ed87878661113f565b915091503373ffffffffffffffffffffffffffffffffffffffff168a7f6cee286923fc4de6af78ba8b06ff9f4236e5aad4282a5e13a3cea8446c803fd4848460405161073a9291906115b8565b60405180910390a35050505050505b50505050565b600080600a016000838152602001908152602001600020905060008160000154036107b157816040517f018da6880000000000000000000000000000000000000000000000000000000081526004016107a89190611584565b60405180910390fd5b8060010160009054906101000a900460ff161561080557816040517f9af72b860000000000000000000000000000000000000000000000000000000081526004016107fc9190611584565b60405180910390fd5b7fffffffffffffffffffffffffffffffffffffffffffffffffffffffffffffffff81600001540361086d57816040517f7c6a6d700000000000000000000000000000000000000000000000000000000081526004016108649190611584565b60405180910390fd5b8060010160019054906101000a900460ff16156108c157816040517fc921f1850000000000000000000000000000000000000000000000000000000081526004016108b89190611584565b60405180910390fd5b60006003015481600001546108d691906117d1565b421161092f574260006003015482600001546108f291906117d1565b6040517f808b7d7c0000000000000000000000000000000000000000000000000000000081526004016109269291906115b8565b60405180910390fd5b8060060160009054906101000a900473ffffffffffffffffffffffffffffffffffffffff1673ffffffffffffffffffffffffffffffffffffffff163373ffffffffffffffffffffffffffffffffffffffff16141580156109c257506109926112e8565b73ffffffffffffffffffffffffffffffffffffffff163373ffffffffffffffffffffffffffffffffffffffff1614155b15610a0457336040517fd5fa066e0000000000000000000000000000000000000000000000000000000081526004016109fb9190611710565b60405180910390fd5b8060060160009054906101000a900473ffffffffffffffffffffffffffffffffffffffff1673ffffffffffffffffffffffffffffffffffffffff163373ffffffffffffffffffffffffffffffffffffffff16148015610a8657506000600501546000600301548260000154610a7991906117d1565b610a8391906117d1565b42115b15610aee57426000600501546000600301548360000154610aa791906117d1565b610ab191906117d1565b6040517f569861b1000000000000000000000000000000000000000000000000000000008152600401610ae59291906115b8565b60405180910390fd5b610af66112e8565b73ffffffffffffffffffffffffffffffffffffffff163373ffffffffffffffffffffffffffffffffffffffff16148015610b5457506000600501546000600301548260000154610b4691906117d1565b610b5091906117d1565b4211155b15610bbc57426000600501546000600301548360000154610b7591906117d1565b610b7f91906117d1565b6040517ff88af35b000000000000000000000000000000000000000000000000000000008152600401610bb39291906115b8565b60405180910390fd5b6000805b8260080180549050811015610dae576000836009016000856008018481548110610bed57610bec6117a2565b5b9060005260206000200160009054906101000a900473ffffffffffffffffffffffffffffffffffffffff1673ffffffffffffffffffffffffffffffffffffffff1673ffffffffffffffffffffffffffffffffffffffff16815260200190815260200160002090508060020160009054906101000a900460ff16158015610c7957506000801b8160010154145b15610d9a57806003015483610c8e91906117d1565b9250806003015483610ca091906117d1565b9250610cf0846008018381548110610cbb57610cba6117a2565b5b9060005260206000200160009054906101000a900473ffffffffffffffffffffffffffffffffffffffff168260030154610f8b565b60006010016000856008018481548110610d0d57610d0c6117a2565b5b9060005260206000200160009054906101000a900473ffffffffffffffffffffffffffffffffffffffff1673ffffffffffffffffffffffffffffffffffffffff1673ffffffffffffffffffffffffffffffffffffffff1681526020019081526020016000208590806001815401808255809150506001900390600052602060002001600090919091909150555b508080610da69061175a565b915050610bc0565b508160060160009054906101000a900473ffffffffffffffffffffffffffffffffffffffff1673ffffffffffffffffffffffffffffffffffffffff163373ffffffffffffffffffffffffffffffffffffffff1603610ece576000800160009054906101000a900473ffffffffffffffffffffffffffffffffffffffff1673ffffffffffffffffffffffffffffffffffffffff1663a9059cbb8360060160009054906101000a900473ffffffffffffffffffffffffffffffffffffffff16836040518363ffffffff1660e01b8152600401610e89929190611827565b6020604051808303816000875af1158015610ea8573d6000803e3d6000fd5b505050506040513d601f19601f82011682018060405250810190610ecc9190611888565b505b610ed66112e8565b73ffffffffffffffffffffffffffffffffffffffff163373ffffffffffffffffffffffffffffffffffffffff1603610f25578060006001016000828254610f1d91906117d1565b925050819055505b60018260010160016101000a81548160ff0219169083151502179055503373ffffffffffffffffffffffffffffffffffffffff16837ffa165ffb1378fffa7397821a24fb52e993eab195619a2573789fca8a9e12b26660405160405180910390a3505050565b6000610f9561131b565b905080600c0160008473ffffffffffffffffffffffffffffffffffffffff1673ffffffffffffffffffffffffffffffffffffffff168152602001908152602001600020600501548211156110665780600c0160008473ffffffffffffffffffffffffffffffffffffffff1673ffffffffffffffffffffffffffffffffffffffff16815260200190815260200160002060050154826040517faf5a111b00000000000000000000000000000000000000000000000000000000815260040161105d9291906115b8565b60405180910390fd5b8181600c0160008573ffffffffffffffffffffffffffffffffffffffff1673ffffffffffffffffffffffffffffffffffffffff16815260200190815260200160002060050160008282546110ba91906118b5565b92505081905550505050565b60006110d061131b565b9050600081600a01600085815260200190815260200160002060090160008473ffffffffffffffffffffffffffffffffffffffff1673ffffffffffffffffffffffffffffffffffffffff1681526020019081526020016000209050611139838260030154611320565b50505050565b60008060006002846111519190611918565b90506000818561116191906118b5565b90506000800160009054906101000a900473ffffffffffffffffffffffffffffffffffffffff1673ffffffffffffffffffffffffffffffffffffffff1663a9059cbb8760060160009054906101000a900473ffffffffffffffffffffffffffffffffffffffff1684886111d491906117d1565b6040518363ffffffff1660e01b81526004016111f1929190611827565b6020604051808303816000875af1158015611210573d6000803e3d6000fd5b505050506040513d601f19601f820116820180604052508101906112349190611888565b506000800160009054906101000a900473ffffffffffffffffffffffffffffffffffffffff1673ffffffffffffffffffffffffffffffffffffffff1663a9059cbb88836040518363ffffffff1660e01b8152600401611294929190611827565b6020604051808303816000875af11580156112b3573d6000803e3d6000fd5b505050506040513d601f19601f820116820180604052508101906112d79190611888565b508082935093505050935093915050565b60006112f2611338565b60040160009054906101000a900473ffffffffffffffffffffffffffffffffffffffff16905090565b600090565b61132a8282610f8b565b6113348282611365565b5050565b6000807fc8fcad8db84d3cc18b4c41d551ea0ee66dd599cde068d998e57d5e09332c131c90508091505090565b600061136f61131b565b90508181600c0160008573ffffffffffffffffffffffffffffffffffffffff1673ffffffffffffffffffffffffffffffffffffffff16815260200190815260200160002060040160008282546113c591906117d1565b92505081905550505050565b600080fd5b600080fd5b6000819050919050565b6113ee816113db565b81146113f957600080fd5b50565b60008135905061140b816113e5565b92915050565b600080fd5b600080fd5b600080fd5b60008083601f84011261143657611435611411565b5b8235905067ffffffffffffffff81111561145357611452611416565b5b60208301915083606082028301111561146f5761146e61141b565b5b9250929050565b600073ffffffffffffffffffffffffffffffffffffffff82169050919050565b60006114a182611476565b9050919050565b6114b181611496565b81146114bc57600080fd5b50565b6000813590506114ce816114a8565b92915050565b600080600080606085870312156114ee576114ed6113d1565b5b60006114fc878288016113fc565b945050602085013567ffffffffffffffff81111561151d5761151c6113d6565b5b61152987828801611420565b9350935050604061153c878288016114bf565b91505092959194509250565b60006020828403121561155e5761155d6113d1565b5b600061156c848285016113fc565b91505092915050565b61157e816113db565b82525050565b60006020820190506115996000830184611575565b92915050565b6000819050919050565b6115b28161159f565b82525050565b60006040820190506115cd60008301856115a9565b6115da60208301846115a9565b9392505050565b7f4e487b7100000000000000000000000000000000000000000000000000000000600052604160045260246000fd5b600081519050919050565b600081905092915050565b60005b83811015611644578082015181840152602081019050611629565b83811115611653576000848401525b50505050565b600061166482611610565b61166e818561161b565b935061167e818560208601611626565b80840191505092915050565b60006116968284611659565b915081905092915050565b7f4e487b7100000000000000000000000000000000000000000000000000000000600052602260045260246000fd5b600060028204905060018216806116e857607f821691505b6020821081036116fb576116fa6116a1565b5b50919050565b61170a81611496565b82525050565b60006020820190506117256000830184611701565b92915050565b7f4e487b7100000000000000000000000000000000000000000000000000000000600052601160045260246000fd5b60006117658261159f565b91507fffffffffffffffffffffffffffffffffffffffffffffffffffffffffffffffff82036117975761179661172b565b5b600182019050919050565b7f4e487b7100000000000000000000000000000000000000000000000000000000600052603260045260246000fd5b60006117dc8261159f565b91506117e78361159f565b9250827fffffffffffffffffffffffffffffffffffffffffffffffffffffffffffffffff0382111561181c5761181b61172b565b5b828201905092915050565b600060408201905061183c6000830185611701565b61184960208301846115a9565b9392505050565b60008115159050919050565b61186581611850565b811461187057600080fd5b50565b6000815190506118828161185c565b92915050565b60006020828403121561189e5761189d6113d1565b5b60006118ac84828501611873565b91505092915050565b60006118c08261159f565b91506118cb8361159f565b9250828210156118de576118dd61172b565b5b828203905092915050565b7f4e487b7100000000000000000000000000000000000000000000000000000000600052601260045260246000fd5b60006119238261159f565b915061192e8361159f565b92508261193e5761193d6118e9565b5b82820490509291505056fea2646970667358221220e15b80f025651f622112b58cb2cfef4f60bdbebd79945664a13face84be4f52164736f6c634300080d0033",
  "devdoc": {
    "errors": {
      "EmbalmerClaimWindowPassed(uint256,uint256)": [
        {
          "params": {
            "currentTime": "Timestamp of the failed clean attempt",
            "embalmerClaimWindowEnd": "Latest time an embalmer may claim residual locked bonds the sarcophagus: resurrectionTime + gracePeriod + embalmerClaimWindow"
          }
        }
      ],
      "ResurrectionTimeInPast(uint256,uint256)": [
        {
          "params": {
            "currentTime": "Timestamp of the failed accuse attempt",
            "resurrectionTime": "Resurrection timestamp which has already passed"
          }
        }
      ],
      "SarcophagusAlreadyCleaned(bytes32)": [
        {
          "params": {
            "sarcoId": "ID of sarcophagus archaeologist has attempted to publish a private key on"
          }
        }
      ],
      "SenderNotEmbalmerOrAdmin(address)": [
        {
          "params": {
            "senderAddress": "Address of sender"
          }
        }
      ],
      "TooEarlyForAdminClean(uint256,uint256)": [
        {
          "params": {
            "currentTime": "Timestamp of the failed clean attempt",
            "embalmerClaimWindowEnd": "Latest time an embalmer may claim residual locked bonds the sarcophagus: resurrectionTime + gracePeriod + embalmerClaimWindow"
          }
        }
      ],
      "TooEarlyForClean(uint256,uint256)": [
        {
          "params": {
            "currentTime": "Timestamp of the failed clean attempt",
            "publishDeadline": "Latest time an archaeologist may publish a private key on a sarcophagus: resurrectionTime + gracePeriod"
          }
        }
      ]
    },
    "kind": "dev",
    "methods": {
      "accuse(bytes32,(uint8,bytes32,bytes32)[],address)": {
        "params": {
          "paymentAddress": "the address to which rewards should be sent if successful",
          "sarcoId": "The identifier of the sarcophagus having leaked private keys",
          "signatures": "an array of signatures of the sarcoId signed by the leaked private keys"
        }
      },
      "clean(bytes32)": {
        "params": {
          "sarcoId": "The identifier of the sarcophagus to clean"
        }
      }
    },
    "version": 1
  },
  "userdoc": {
    "errors": {
      "EmbalmerClaimWindowPassed(uint256,uint256)": [
        {
          "notice": "Embalmer has attempted to clean a sarcophagus after the embalmerClaimWindow has passed"
        }
      ],
      "ResurrectionTimeInPast(uint256,uint256)": [
        {
          "notice": "Emitted when a third party attempts to accuse an archaeologist on a sarcophagus where the resurrection time has already passed"
        }
      ],
      "SarcophagusAlreadyCleaned(bytes32)": [
        {
          "notice": "Clean has been called on a sarcophagus that has already been cleaned"
        }
      ],
      "SenderNotEmbalmerOrAdmin(address)": [
        {
          "notice": "Clean has been called by someone other than the admin or embalmer of the sarcophagus"
        }
      ],
      "TooEarlyForAdminClean(uint256,uint256)": [
        {
          "notice": "Admin has attempted to clean a sarcophagus before the embalmerClaimWindow has passed"
        }
      ],
      "TooEarlyForClean(uint256,uint256)": [
        {
          "notice": "Clean has been called before the deadline for archaeologists to publish private keys has passed"
        }
      ]
    },
    "kind": "user",
    "methods": {
      "accuse(bytes32,(uint8,bytes32,bytes32)[],address)": {
        "notice": "Accuse one or more archaeologists of leaking private keys by submitting signatures on the sarco id and payment address generated with the leaked private keys If the archaeologists responsible for those private keys haven't already been accused, their locked bond will be split between the embalmer and the supplied payment address and digging fees allocated for those archaeologists will be refunded to the embalmer If k or more archaeologists are accused over the lifetime of a sarcophagus, the sarcophagus state will be updated to Accused and bonds for all remaining unaccused archaeologists will be returned"
      },
      "clean(bytes32)": {
        "notice": "If archaeologists fail to publish their private keys on a sarcophagus before the end of the gracePeriod, their locked bonds and diggingFees may be claimed by either the embalmer or the admin embalmers may claim during a limited embalmerClaimWindow after the end of the gracePeriod, after that only the admin will be able to claim remaining locked bond and diggingFees"
      }
    },
    "version": 1
  },
  "storageLayout": {
    "storage": [
      {
        "astId": 2723,
        "contract": "contracts/facets/ThirdPartyFacet.sol:ThirdPartyFacet",
        "label": "s",
        "offset": 0,
        "slot": "0",
        "type": "t_struct(AppStorage)4093_storage"
      }
    ],
    "types": {
      "t_address": {
        "encoding": "inplace",
        "label": "address",
        "numberOfBytes": "20"
      },
      "t_array(t_address)dyn_storage": {
        "base": "t_address",
        "encoding": "dynamic_array",
        "label": "address[]",
        "numberOfBytes": "32"
      },
      "t_array(t_bytes32)dyn_storage": {
        "base": "t_bytes32",
        "encoding": "dynamic_array",
        "label": "bytes32[]",
        "numberOfBytes": "32"
      },
      "t_bool": {
        "encoding": "inplace",
        "label": "bool",
        "numberOfBytes": "1"
      },
      "t_bytes32": {
        "encoding": "inplace",
        "label": "bytes32",
        "numberOfBytes": "32"
      },
      "t_bytes_memory_ptr": {
        "encoding": "bytes",
        "label": "bytes",
        "numberOfBytes": "32"
      },
      "t_bytes_storage": {
        "encoding": "bytes",
        "label": "bytes",
        "numberOfBytes": "32"
      },
      "t_contract(IERC20)77": {
        "encoding": "inplace",
        "label": "contract IERC20",
        "numberOfBytes": "20"
      },
      "t_mapping(t_address,t_array(t_bytes32)dyn_storage)": {
        "encoding": "mapping",
        "key": "t_address",
        "label": "mapping(address => bytes32[])",
        "numberOfBytes": "32",
        "value": "t_array(t_bytes32)dyn_storage"
      },
      "t_mapping(t_address,t_struct(ArchaeologistProfile)3871_storage)": {
        "encoding": "mapping",
        "key": "t_address",
        "label": "mapping(address => struct LibTypes.ArchaeologistProfile)",
        "numberOfBytes": "32",
        "value": "t_struct(ArchaeologistProfile)3871_storage"
      },
      "t_mapping(t_address,t_struct(CursedArchaeologist)3858_storage)": {
        "encoding": "mapping",
        "key": "t_address",
        "label": "mapping(address => struct LibTypes.CursedArchaeologist)",
        "numberOfBytes": "32",
        "value": "t_struct(CursedArchaeologist)3858_storage"
      },
      "t_mapping(t_address,t_uint256)": {
        "encoding": "mapping",
        "key": "t_address",
        "label": "mapping(address => uint256)",
        "numberOfBytes": "32",
        "value": "t_uint256"
      },
      "t_mapping(t_bytes32,t_struct(Sarcophagus)3849_storage)": {
        "encoding": "mapping",
        "key": "t_bytes32",
        "label": "mapping(bytes32 => struct LibTypes.Sarcophagus)",
        "numberOfBytes": "32",
        "value": "t_struct(Sarcophagus)3849_storage"
      },
      "t_mapping(t_bytes_memory_ptr,t_address)": {
        "encoding": "mapping",
        "key": "t_bytes_memory_ptr",
        "label": "mapping(bytes => address)",
        "numberOfBytes": "32",
        "value": "t_address"
      },
      "t_string_storage": {
        "encoding": "bytes",
        "label": "string",
        "numberOfBytes": "32"
      },
      "t_struct(AppStorage)4093_storage": {
        "encoding": "inplace",
        "label": "struct AppStorage",
        "members": [
          {
            "astId": 4028,
            "contract": "contracts/facets/ThirdPartyFacet.sol:ThirdPartyFacet",
            "label": "sarcoToken",
            "offset": 0,
            "slot": "0",
            "type": "t_contract(IERC20)77"
          },
          {
            "astId": 4030,
            "contract": "contracts/facets/ThirdPartyFacet.sol:ThirdPartyFacet",
            "label": "totalProtocolFees",
            "offset": 0,
            "slot": "1",
            "type": "t_uint256"
          },
          {
            "astId": 4033,
            "contract": "contracts/facets/ThirdPartyFacet.sol:ThirdPartyFacet",
            "label": "protocolFeeBasePercentage",
            "offset": 0,
            "slot": "2",
            "type": "t_uint256"
          },
          {
            "astId": 4035,
            "contract": "contracts/facets/ThirdPartyFacet.sol:ThirdPartyFacet",
            "label": "gracePeriod",
            "offset": 0,
            "slot": "3",
            "type": "t_uint256"
          },
          {
            "astId": 4037,
            "contract": "contracts/facets/ThirdPartyFacet.sol:ThirdPartyFacet",
            "label": "expirationThreshold",
            "offset": 0,
            "slot": "4",
            "type": "t_uint256"
          },
          {
            "astId": 4039,
            "contract": "contracts/facets/ThirdPartyFacet.sol:ThirdPartyFacet",
            "label": "embalmerClaimWindow",
            "offset": 0,
            "slot": "5",
            "type": "t_uint256"
          },
          {
            "astId": 4045,
            "contract": "contracts/facets/ThirdPartyFacet.sol:ThirdPartyFacet",
            "label": "embalmerSarcophagi",
            "offset": 0,
            "slot": "6",
            "type": "t_mapping(t_address,t_array(t_bytes32)dyn_storage)"
          },
          {
            "astId": 4050,
            "contract": "contracts/facets/ThirdPartyFacet.sol:ThirdPartyFacet",
            "label": "archaeologistSarcophagi",
            "offset": 0,
            "slot": "7",
            "type": "t_mapping(t_address,t_array(t_bytes32)dyn_storage)"
          },
          {
            "astId": 4055,
            "contract": "contracts/facets/ThirdPartyFacet.sol:ThirdPartyFacet",
            "label": "recipientSarcophagi",
            "offset": 0,
            "slot": "8",
            "type": "t_mapping(t_address,t_array(t_bytes32)dyn_storage)"
          },
          {
            "astId": 4059,
            "contract": "contracts/facets/ThirdPartyFacet.sol:ThirdPartyFacet",
            "label": "publicKeyToArchaeologistAddress",
            "offset": 0,
            "slot": "9",
            "type": "t_mapping(t_bytes_memory_ptr,t_address)"
          },
          {
            "astId": 4064,
            "contract": "contracts/facets/ThirdPartyFacet.sol:ThirdPartyFacet",
            "label": "sarcophagi",
            "offset": 0,
            "slot": "10",
            "type": "t_mapping(t_bytes32,t_struct(Sarcophagus)3849_storage)"
          },
          {
            "astId": 4067,
            "contract": "contracts/facets/ThirdPartyFacet.sol:ThirdPartyFacet",
            "label": "archaeologistProfileAddresses",
            "offset": 0,
            "slot": "11",
            "type": "t_array(t_address)dyn_storage"
          },
          {
            "astId": 4072,
            "contract": "contracts/facets/ThirdPartyFacet.sol:ThirdPartyFacet",
            "label": "archaeologistProfiles",
            "offset": 0,
            "slot": "12",
            "type": "t_mapping(t_address,t_struct(ArchaeologistProfile)3871_storage)"
          },
          {
            "astId": 4076,
            "contract": "contracts/facets/ThirdPartyFacet.sol:ThirdPartyFacet",
            "label": "archaeologistRewards",
            "offset": 0,
            "slot": "13",
            "type": "t_mapping(t_address,t_uint256)"
          },
          {
            "astId": 4082,
            "contract": "contracts/facets/ThirdPartyFacet.sol:ThirdPartyFacet",
            "label": "archaeologistSuccesses",
            "offset": 0,
            "slot": "14",
            "type": "t_mapping(t_address,t_array(t_bytes32)dyn_storage)"
          },
          {
            "astId": 4087,
            "contract": "contracts/facets/ThirdPartyFacet.sol:ThirdPartyFacet",
            "label": "archaeologistAccusals",
            "offset": 0,
            "slot": "15",
            "type": "t_mapping(t_address,t_array(t_bytes32)dyn_storage)"
          },
          {
            "astId": 4092,
            "contract": "contracts/facets/ThirdPartyFacet.sol:ThirdPartyFacet",
            "label": "archaeologistCleanups",
            "offset": 0,
            "slot": "16",
            "type": "t_mapping(t_address,t_array(t_bytes32)dyn_storage)"
          }
        ],
        "numberOfBytes": "544"
      },
      "t_struct(ArchaeologistProfile)3871_storage": {
        "encoding": "inplace",
        "label": "struct LibTypes.ArchaeologistProfile",
        "members": [
          {
            "astId": 3860,
            "contract": "contracts/facets/ThirdPartyFacet.sol:ThirdPartyFacet",
            "label": "exists",
            "offset": 0,
            "slot": "0",
            "type": "t_bool"
          },
          {
            "astId": 3862,
            "contract": "contracts/facets/ThirdPartyFacet.sol:ThirdPartyFacet",
            "label": "peerId",
            "offset": 0,
            "slot": "1",
            "type": "t_string_storage"
          },
          {
            "astId": 3864,
            "contract": "contracts/facets/ThirdPartyFacet.sol:ThirdPartyFacet",
            "label": "minimumDiggingFee",
            "offset": 0,
            "slot": "2",
            "type": "t_uint256"
          },
          {
            "astId": 3866,
            "contract": "contracts/facets/ThirdPartyFacet.sol:ThirdPartyFacet",
            "label": "maximumRewrapInterval",
            "offset": 0,
            "slot": "3",
            "type": "t_uint256"
          },
          {
            "astId": 3868,
            "contract": "contracts/facets/ThirdPartyFacet.sol:ThirdPartyFacet",
            "label": "freeBond",
            "offset": 0,
            "slot": "4",
            "type": "t_uint256"
          },
          {
            "astId": 3870,
            "contract": "contracts/facets/ThirdPartyFacet.sol:ThirdPartyFacet",
            "label": "cursedBond",
            "offset": 0,
            "slot": "5",
            "type": "t_uint256"
          }
        ],
        "numberOfBytes": "192"
      },
      "t_struct(CursedArchaeologist)3858_storage": {
        "encoding": "inplace",
        "label": "struct LibTypes.CursedArchaeologist",
        "members": [
          {
            "astId": 3851,
            "contract": "contracts/facets/ThirdPartyFacet.sol:ThirdPartyFacet",
            "label": "publicKey",
            "offset": 0,
            "slot": "0",
            "type": "t_bytes_storage"
          },
          {
            "astId": 3853,
            "contract": "contracts/facets/ThirdPartyFacet.sol:ThirdPartyFacet",
            "label": "privateKey",
            "offset": 0,
            "slot": "1",
            "type": "t_bytes32"
          },
          {
            "astId": 3855,
            "contract": "contracts/facets/ThirdPartyFacet.sol:ThirdPartyFacet",
            "label": "isAccused",
            "offset": 0,
            "slot": "2",
            "type": "t_bool"
          },
          {
            "astId": 3857,
            "contract": "contracts/facets/ThirdPartyFacet.sol:ThirdPartyFacet",
            "label": "diggingFee",
            "offset": 0,
            "slot": "3",
            "type": "t_uint256"
          }
        ],
        "numberOfBytes": "128"
      },
      "t_struct(Sarcophagus)3849_storage": {
        "encoding": "inplace",
        "label": "struct LibTypes.Sarcophagus",
        "members": [
          {
            "astId": 3824,
            "contract": "contracts/facets/ThirdPartyFacet.sol:ThirdPartyFacet",
            "label": "resurrectionTime",
            "offset": 0,
            "slot": "0",
            "type": "t_uint256"
          },
          {
            "astId": 3826,
            "contract": "contracts/facets/ThirdPartyFacet.sol:ThirdPartyFacet",
            "label": "isCompromised",
            "offset": 0,
            "slot": "1",
            "type": "t_bool"
          },
          {
            "astId": 3828,
            "contract": "contracts/facets/ThirdPartyFacet.sol:ThirdPartyFacet",
            "label": "isCleaned",
            "offset": 1,
            "slot": "1",
            "type": "t_bool"
          },
          {
            "astId": 3830,
            "contract": "contracts/facets/ThirdPartyFacet.sol:ThirdPartyFacet",
            "label": "name",
            "offset": 0,
            "slot": "2",
            "type": "t_string_storage"
          },
          {
            "astId": 3832,
            "contract": "contracts/facets/ThirdPartyFacet.sol:ThirdPartyFacet",
            "label": "threshold",
            "offset": 0,
            "slot": "3",
            "type": "t_uint8"
          },
          {
            "astId": 3834,
            "contract": "contracts/facets/ThirdPartyFacet.sol:ThirdPartyFacet",
            "label": "maximumRewrapInterval",
            "offset": 0,
            "slot": "4",
            "type": "t_uint256"
          },
          {
            "astId": 3836,
            "contract": "contracts/facets/ThirdPartyFacet.sol:ThirdPartyFacet",
            "label": "arweaveTxId",
            "offset": 0,
            "slot": "5",
            "type": "t_string_storage"
          },
          {
            "astId": 3838,
            "contract": "contracts/facets/ThirdPartyFacet.sol:ThirdPartyFacet",
            "label": "embalmerAddress",
            "offset": 0,
            "slot": "6",
            "type": "t_address"
          },
          {
            "astId": 3840,
            "contract": "contracts/facets/ThirdPartyFacet.sol:ThirdPartyFacet",
            "label": "recipientAddress",
            "offset": 0,
            "slot": "7",
            "type": "t_address"
          },
          {
            "astId": 3843,
            "contract": "contracts/facets/ThirdPartyFacet.sol:ThirdPartyFacet",
            "label": "cursedArchaeologistAddresses",
            "offset": 0,
            "slot": "8",
            "type": "t_array(t_address)dyn_storage"
          },
          {
            "astId": 3848,
            "contract": "contracts/facets/ThirdPartyFacet.sol:ThirdPartyFacet",
            "label": "cursedArchaeologists",
            "offset": 0,
            "slot": "9",
            "type": "t_mapping(t_address,t_struct(CursedArchaeologist)3858_storage)"
          }
        ],
        "numberOfBytes": "320"
      },
      "t_uint256": {
        "encoding": "inplace",
        "label": "uint256",
        "numberOfBytes": "32"
      },
      "t_uint8": {
        "encoding": "inplace",
        "label": "uint8",
        "numberOfBytes": "1"
      }
    }
  }
}