{
  "address": "0x15Da9b0ef78607490d878Ea0AbF1727fbD6e9684",
  "abi": [
    {
      "inputs": [
        {
          "internalType": "bool",
          "name": "exists",
          "type": "bool"
        },
        {
          "internalType": "address",
          "name": "archaeologist",
          "type": "address"
        }
      ],
      "name": "ArchaeologistProfileExistsShouldBe",
      "type": "error"
    },
    {
      "inputs": [
        {
          "internalType": "bytes32",
          "name": "sarcoId",
          "type": "bytes32"
        }
      ],
      "name": "SarcophagusDoesNotExist",
      "type": "error"
    },
    {
      "inputs": [],
      "name": "getAdmin",
      "outputs": [
        {
          "internalType": "address",
          "name": "",
          "type": "address"
        }
      ],
      "stateMutability": "view",
      "type": "function"
    },
    {
      "inputs": [
        {
          "internalType": "address",
          "name": "archaeologist",
          "type": "address"
        }
      ],
      "name": "getArchaeologistProfile",
      "outputs": [
        {
          "components": [
            {
              "internalType": "uint256",
              "name": "maximumRewrapInterval",
              "type": "uint256"
            },
            {
              "internalType": "uint256",
              "name": "maximumResurrectionTime",
              "type": "uint256"
            },
            {
              "internalType": "string",
              "name": "peerId",
              "type": "string"
            },
            {
              "internalType": "uint256",
              "name": "minimumDiggingFeePerSecond",
              "type": "uint256"
            },
            {
              "internalType": "uint256",
              "name": "freeBond",
              "type": "uint256"
            },
            {
              "internalType": "uint256",
              "name": "cursedBond",
              "type": "uint256"
            },
            {
              "internalType": "uint256",
              "name": "curseFee",
              "type": "uint256"
            }
          ],
          "internalType": "struct LibTypes.ArchaeologistProfile",
          "name": "",
          "type": "tuple"
        }
      ],
      "stateMutability": "view",
      "type": "function"
    },
    {
      "inputs": [
        {
          "internalType": "uint256",
          "name": "index",
          "type": "uint256"
        }
      ],
      "name": "getArchaeologistProfileAddressAtIndex",
      "outputs": [
        {
          "internalType": "address",
          "name": "",
          "type": "address"
        }
      ],
      "stateMutability": "view",
      "type": "function"
    },
    {
      "inputs": [],
      "name": "getArchaeologistProfileAddresses",
      "outputs": [
        {
          "internalType": "address[]",
          "name": "",
          "type": "address[]"
        }
      ],
      "stateMutability": "view",
      "type": "function"
    },
    {
      "inputs": [
        {
          "internalType": "address[]",
          "name": "addresses",
          "type": "address[]"
        }
      ],
      "name": "getArchaeologistProfiles",
      "outputs": [
        {
          "components": [
            {
              "internalType": "uint256",
              "name": "maximumRewrapInterval",
              "type": "uint256"
            },
            {
              "internalType": "uint256",
              "name": "maximumResurrectionTime",
              "type": "uint256"
            },
            {
              "internalType": "string",
              "name": "peerId",
              "type": "string"
            },
            {
              "internalType": "uint256",
              "name": "minimumDiggingFeePerSecond",
              "type": "uint256"
            },
            {
              "internalType": "uint256",
              "name": "freeBond",
              "type": "uint256"
            },
            {
              "internalType": "uint256",
              "name": "cursedBond",
              "type": "uint256"
            },
            {
              "internalType": "uint256",
              "name": "curseFee",
              "type": "uint256"
            }
          ],
          "internalType": "struct LibTypes.ArchaeologistProfile[]",
          "name": "",
          "type": "tuple[]"
        }
      ],
      "stateMutability": "view",
      "type": "function"
    },
    {
      "inputs": [
        {
          "internalType": "address",
          "name": "archaeologist",
          "type": "address"
        }
      ],
      "name": "getCursedBond",
      "outputs": [
        {
          "internalType": "uint256",
          "name": "",
          "type": "uint256"
        }
      ],
      "stateMutability": "view",
      "type": "function"
    },
    {
      "inputs": [],
      "name": "getCursedBondPercentage",
      "outputs": [
        {
          "internalType": "uint256",
          "name": "",
          "type": "uint256"
        }
      ],
      "stateMutability": "view",
      "type": "function"
    },
    {
      "inputs": [],
      "name": "getEmbalmerClaimWindow",
      "outputs": [
        {
          "internalType": "uint256",
          "name": "",
          "type": "uint256"
        }
      ],
      "stateMutability": "view",
      "type": "function"
    },
    {
      "inputs": [],
      "name": "getExpirationThreshold",
      "outputs": [
        {
          "internalType": "uint256",
          "name": "",
          "type": "uint256"
        }
      ],
      "stateMutability": "view",
      "type": "function"
    },
    {
      "inputs": [
        {
          "internalType": "address",
          "name": "archaeologist",
          "type": "address"
        }
      ],
      "name": "getFreeBond",
      "outputs": [
        {
          "internalType": "uint256",
          "name": "",
          "type": "uint256"
        }
      ],
      "stateMutability": "view",
      "type": "function"
    },
    {
      "inputs": [],
      "name": "getGracePeriod",
      "outputs": [
        {
          "internalType": "uint256",
          "name": "",
          "type": "uint256"
        }
      ],
      "stateMutability": "view",
      "type": "function"
    },
    {
      "inputs": [],
      "name": "getProtocolFeeBasePercentage",
      "outputs": [
        {
          "internalType": "uint256",
          "name": "",
          "type": "uint256"
        }
      ],
      "stateMutability": "view",
      "type": "function"
    },
    {
      "inputs": [
        {
          "internalType": "address",
          "name": "archaeologist",
          "type": "address"
        }
      ],
      "name": "getRewards",
      "outputs": [
        {
          "internalType": "uint256",
          "name": "",
          "type": "uint256"
        }
      ],
      "stateMutability": "view",
      "type": "function"
    },
    {
      "inputs": [
        {
          "internalType": "bytes32",
          "name": "sarcoId",
          "type": "bytes32"
        }
      ],
      "name": "getSarcophagus",
      "outputs": [
        {
          "components": [
            {
              "internalType": "uint256",
              "name": "resurrectionTime",
              "type": "uint256"
            },
            {
              "internalType": "uint256",
              "name": "previousRewrapTime",
              "type": "uint256"
            },
            {
              "internalType": "bool",
              "name": "isCompromised",
              "type": "bool"
            },
            {
              "internalType": "bool",
              "name": "isCleaned",
              "type": "bool"
            },
            {
              "internalType": "string",
              "name": "name",
              "type": "string"
            },
            {
              "internalType": "uint8",
              "name": "threshold",
              "type": "uint8"
            },
            {
              "internalType": "uint256",
              "name": "maximumRewrapInterval",
              "type": "uint256"
            },
            {
              "internalType": "uint256",
              "name": "maximumResurrectionTime",
              "type": "uint256"
            },
            {
              "internalType": "uint256",
              "name": "cursedBondPercentage",
              "type": "uint256"
            },
            {
              "internalType": "string",
              "name": "arweaveTxId",
              "type": "string"
            },
            {
              "internalType": "address",
              "name": "embalmerAddress",
              "type": "address"
            },
            {
              "internalType": "address",
              "name": "recipientAddress",
              "type": "address"
            },
            {
              "internalType": "address[]",
              "name": "archaeologistAddresses",
              "type": "address[]"
            },
            {
              "internalType": "uint8",
              "name": "publishedPrivateKeyCount",
              "type": "uint8"
            },
            {
              "internalType": "bool",
              "name": "hasLockedBond",
              "type": "bool"
            }
          ],
          "internalType": "struct ViewStateFacet.SarcophagusResponse",
          "name": "",
          "type": "tuple"
        }
      ],
      "stateMutability": "view",
      "type": "function"
    },
    {
      "inputs": [
        {
          "internalType": "bytes32",
          "name": "sarcoId",
          "type": "bytes32"
        },
        {
          "internalType": "address",
          "name": "archaeologist",
          "type": "address"
        }
      ],
      "name": "getSarcophagusArchaeologist",
      "outputs": [
        {
          "components": [
            {
              "internalType": "uint256",
              "name": "diggingFeePerSecond",
              "type": "uint256"
            },
            {
              "internalType": "bytes32",
              "name": "privateKey",
              "type": "bytes32"
            },
            {
              "internalType": "bytes",
              "name": "publicKey",
              "type": "bytes"
            },
            {
              "internalType": "bool",
              "name": "isAccused",
              "type": "bool"
            },
            {
              "internalType": "uint256",
              "name": "curseFee",
              "type": "uint256"
            }
          ],
          "internalType": "struct LibTypes.CursedArchaeologist",
          "name": "",
          "type": "tuple"
        }
      ],
      "stateMutability": "view",
      "type": "function"
    },
    {
      "inputs": [],
      "name": "getTotalProtocolFees",
      "outputs": [
        {
          "internalType": "uint256",
          "name": "",
          "type": "uint256"
        }
      ],
      "stateMutability": "view",
      "type": "function"
    }
  ],
  "transactionHash": "0x6d5610c7fcb4f463e4eaf133f23e47e39315426f691772b8cf346227edb26853",
  "args": [],
  "numDeployments": 4,
  "solcInputHash": "7d09e987652489282f2109ae3e674202",
  "bytecode": "0x608060405234801561001057600080fd5b50611de3806100206000396000f3fe608060405234801561001057600080fd5b50600436106101005760003560e01c80638fbd55d211610097578063dbd1838811610066578063dbd18388146102d9578063dc231f43146102f7578063dcfcb90114610327578063de116f061461034557610100565b80638fbd55d21461023d5780639c5456391461026d5780639fdaded11461028b578063a9328dcc146102a957610100565b80636e9960c3116100d35780636e9960c3146101a157806379ee54f7146101bf5780637aa9fd2f146101ef57806387927ce61461020d57610100565b806331baea67146101055780633fbb89301461012357806342e10bc81461014157806357babbaf14610171575b600080fd5b61010d610375565b60405161011a9190611221565b60405180910390f35b61012b61038d565b604051610138919061132c565b60405180910390f35b61015b6004803603810190610156919061138e565b61042a565b60405161016891906114f6565b60405180910390f35b61018b60048036038101906101869190611544565b610569565b6040516101989190611580565b60405180910390f35b6101a96105bf565b6040516101b69190611580565b60405180910390f35b6101d960048036038101906101d4919061138e565b6105f7565b6040516101e69190611221565b60405180910390f35b6101f761064e565b6040516102049190611221565b60405180910390f35b6102276004803603810190610222919061138e565b610666565b6040516102349190611221565b60405180910390f35b6102576004803603810190610252919061138e565b6106c0565b6040516102649190611221565b60405180910390f35b61027561071a565b6040516102829190611221565b60405180910390f35b610293610732565b6040516102a09190611221565b60405180910390f35b6102c360048036038101906102be91906116e3565b61074a565b6040516102d0919061188a565b60405180910390f35b6102e1610992565b6040516102ee9190611221565b60405180910390f35b610311600480360381019061030c91906118e2565b6109aa565b60405161031e9190611a17565b60405180910390f35b61032f610af2565b60405161033c9190611221565b60405180910390f35b61035f600480360381019061035a9190611a39565b610b0a565b60405161036c9190611c42565b60405180910390f35b600080610380611020565b9050806007015491505090565b60606000610399611020565b90508060080180548060200260200160405190810160405280929190818152602001828054801561041f57602002820191906000526020600020905b8160009054906101000a900473ffffffffffffffffffffffffffffffffffffffff1673ffffffffffffffffffffffffffffffffffffffff16815260200190600101908083116103d5575b505050505091505090565b6104326110e9565b600061043c611020565b90506104478361104d565b80600b0160008473ffffffffffffffffffffffffffffffffffffffff1673ffffffffffffffffffffffffffffffffffffffff1681526020019081526020016000206040518060e001604052908160008201548152602001600182015481526020016002820180546104b790611c93565b80601f01602080910402602001604051908101604052809291908181526020018280546104e390611c93565b80156105305780601f1061050557610100808354040283529160200191610530565b820191906000526020600020905b81548152906001019060200180831161051357829003601f168201915b50505050508152602001600382015481526020016004820154815260200160058201548152602001600682015481525050915050919050565b600080610574611020565b905080600801838154811061058c5761058b611cc4565b5b9060005260206000200160009054906101000a900473ffffffffffffffffffffffffffffffffffffffff16915050919050565b6000806105ca611020565b90508060010160009054906101000a900473ffffffffffffffffffffffffffffffffffffffff1691505090565b600080610602611020565b905080600c0160008473ffffffffffffffffffffffffffffffffffffffff1673ffffffffffffffffffffffffffffffffffffffff16815260200190815260200160002054915050919050565b600080610659611020565b9050806006015491505090565b600080610671611020565b905080600b0160008473ffffffffffffffffffffffffffffffffffffffff1673ffffffffffffffffffffffffffffffffffffffff16815260200190815260200160002060050154915050919050565b6000806106cb611020565b905080600b0160008473ffffffffffffffffffffffffffffffffffffffff1673ffffffffffffffffffffffffffffffffffffffff16815260200190815260200160002060040154915050919050565b600080610725611020565b9050806002015491505090565b60008061073d611020565b9050806003015491505090565b60606000610756611020565b905060008351905060008167ffffffffffffffff81111561077a576107796115a0565b5b6040519080825280602002602001820160405280156107b357816020015b6107a06110e9565b8152602001906001900390816107985790505b50905060005b8281101561098657600084600b0160008884815181106107dc576107db611cc4565b5b602002602001015173ffffffffffffffffffffffffffffffffffffffff1673ffffffffffffffffffffffffffffffffffffffff1681526020019081526020016000206000015403156109815783600b01600087838151811061084157610840611cc4565b5b602002602001015173ffffffffffffffffffffffffffffffffffffffff1673ffffffffffffffffffffffffffffffffffffffff1681526020019081526020016000206040518060e001604052908160008201548152602001600182015481526020016002820180546108b290611c93565b80601f01602080910402602001604051908101604052809291908181526020018280546108de90611c93565b801561092b5780601f106109005761010080835404028352916020019161092b565b820191906000526020600020905b81548152906001019060200180831161090e57829003601f168201915b5050505050815260200160038201548152602001600482015481526020016005820154815260200160068201548152505082828151811061096f5761096e611cc4565b5b60200260200101819052508060010190505b6107b9565b50809350505050919050565b60008061099d611020565b9050806005015491505090565b6109b2611126565b60006109bc611020565b905080600a016000858152602001908152602001600020600a0160008473ffffffffffffffffffffffffffffffffffffffff1673ffffffffffffffffffffffffffffffffffffffff1681526020019081526020016000206040518060a00160405290816000820154815260200160018201548152602001600282018054610a4290611c93565b80601f0160208091040260200160405190810160405280929190818152602001828054610a6e90611c93565b8015610abb5780601f10610a9057610100808354040283529160200191610abb565b820191906000526020600020905b815481529060010190602001808311610a9e57829003601f168201915b505050505081526020016003820160009054906101000a900460ff1615151515815260200160048201548152505091505092915050565b600080610afd611020565b9050806004015491505090565b610b1261115a565b6000610b1c611020565b9050600081600a01600085815260200190815260200160002090506000816000015403610b8057836040517f018da688000000000000000000000000000000000000000000000000000000008152600401610b779190611d02565b60405180910390fd5b60008060008360090180549050905060005b81811015610d48576000801b85600a016000876009018481548110610bba57610bb9611cc4565b5b9060005260206000200160009054906101000a900473ffffffffffffffffffffffffffffffffffffffff1673ffffffffffffffffffffffffffffffffffffffff1673ffffffffffffffffffffffffffffffffffffffff1681526020019081526020016000206001015414610c395783610c3290611d4c565b9350610d3d565b84600a016000866009018381548110610c5557610c54611cc4565b5b9060005260206000200160009054906101000a900473ffffffffffffffffffffffffffffffffffffffff1673ffffffffffffffffffffffffffffffffffffffff1673ffffffffffffffffffffffffffffffffffffffff16815260200190815260200160002060030160009054906101000a900460ff16158015610ce757508460020160009054906101000a900460ff16155b8015610d0257508460020160019054906101000a900460ff16155b8015610d3257507fffffffffffffffffffffffffffffffffffffffffffffffffffffffffffffffff856000015414155b15610d3c57600192505b5b806001019050610b92565b50604051806101e0016040528085600001548152602001856001015481526020018560020160009054906101000a900460ff16151581526020018560020160019054906101000a900460ff1615158152602001856003018054610daa90611c93565b80601f0160208091040260200160405190810160405280929190818152602001828054610dd690611c93565b8015610e235780601f10610df857610100808354040283529160200191610e23565b820191906000526020600020905b815481529060010190602001808311610e0657829003601f168201915b505050505081526020018560020160039054906101000a900460ff1660ff168152602001856004015481526020018560050154815260200185600b01548152602001856006018054610e7490611c93565b80601f0160208091040260200160405190810160405280929190818152602001828054610ea090611c93565b8015610eed5780601f10610ec257610100808354040283529160200191610eed565b820191906000526020600020905b815481529060010190602001808311610ed057829003601f168201915b505050505081526020018560070160009054906101000a900473ffffffffffffffffffffffffffffffffffffffff1673ffffffffffffffffffffffffffffffffffffffff1681526020018560080160009054906101000a900473ffffffffffffffffffffffffffffffffffffffff1673ffffffffffffffffffffffffffffffffffffffff16815260200185600901805480602002602001604051908101604052809291908181526020018280548015610ffb57602002820191906000526020600020905b8160009054906101000a900473ffffffffffffffffffffffffffffffffffffffff1673ffffffffffffffffffffffffffffffffffffffff1681526020019060010190808311610fb1575b505050505081526020018460ff16815260200183151581525095505050505050919050565b6000807f2319d9fa277d38834e73ba5e2482efd90323373359a32bb0c96b78353987994190508091505090565b6000611057611020565b9050600081600b0160008473ffffffffffffffffffffffffffffffffffffffff1673ffffffffffffffffffffffffffffffffffffffff16815260200190815260200160002060000154036110e5576001826040517f2eeb35710000000000000000000000000000000000000000000000000000000081526004016110dc929190611d84565b60405180910390fd5b5050565b6040518060e00160405280600081526020016000815260200160608152602001600081526020016000815260200160008152602001600081525090565b6040518060a00160405280600081526020016000801916815260200160608152602001600015158152602001600081525090565b604051806101e00160405280600081526020016000815260200160001515815260200160001515815260200160608152602001600060ff16815260200160008152602001600081526020016000815260200160608152602001600073ffffffffffffffffffffffffffffffffffffffff168152602001600073ffffffffffffffffffffffffffffffffffffffff16815260200160608152602001600060ff1681526020016000151581525090565b6000819050919050565b61121b81611208565b82525050565b60006020820190506112366000830184611212565b92915050565b600081519050919050565b600082825260208201905092915050565b6000819050602082019050919050565b600073ffffffffffffffffffffffffffffffffffffffff82169050919050565b600061129382611268565b9050919050565b6112a381611288565b82525050565b60006112b5838361129a565b60208301905092915050565b6000602082019050919050565b60006112d98261123c565b6112e38185611247565b93506112ee83611258565b8060005b8381101561131f57815161130688826112a9565b9750611311836112c1565b9250506001810190506112f2565b5085935050505092915050565b6000602082019050818103600083015261134681846112ce565b905092915050565b6000604051905090565b600080fd5b600080fd5b61136b81611288565b811461137657600080fd5b50565b60008135905061138881611362565b92915050565b6000602082840312156113a4576113a3611358565b5b60006113b284828501611379565b91505092915050565b6113c481611208565b82525050565b600081519050919050565b600082825260208201905092915050565b60005b838110156114045780820151818401526020810190506113e9565b60008484015250505050565b6000601f19601f8301169050919050565b600061142c826113ca565b61143681856113d5565b93506114468185602086016113e6565b61144f81611410565b840191505092915050565b600060e08301600083015161147260008601826113bb565b50602083015161148560208601826113bb565b506040830151848203604086015261149d8282611421565b91505060608301516114b260608601826113bb565b5060808301516114c560808601826113bb565b5060a08301516114d860a08601826113bb565b5060c08301516114eb60c08601826113bb565b508091505092915050565b60006020820190508181036000830152611510818461145a565b905092915050565b61152181611208565b811461152c57600080fd5b50565b60008135905061153e81611518565b92915050565b60006020828403121561155a57611559611358565b5b60006115688482850161152f565b91505092915050565b61157a81611288565b82525050565b60006020820190506115956000830184611571565b92915050565b600080fd5b7f4e487b7100000000000000000000000000000000000000000000000000000000600052604160045260246000fd5b6115d882611410565b810181811067ffffffffffffffff821117156115f7576115f66115a0565b5b80604052505050565b600061160a61134e565b905061161682826115cf565b919050565b600067ffffffffffffffff821115611636576116356115a0565b5b602082029050602081019050919050565b600080fd5b600061165f61165a8461161b565b611600565b9050808382526020820190506020840283018581111561168257611681611647565b5b835b818110156116ab57806116978882611379565b845260208401935050602081019050611684565b5050509392505050565b600082601f8301126116ca576116c961159b565b5b81356116da84826020860161164c565b91505092915050565b6000602082840312156116f9576116f8611358565b5b600082013567ffffffffffffffff8111156117175761171661135d565b5b611723848285016116b5565b91505092915050565b600081519050919050565b600082825260208201905092915050565b6000819050602082019050919050565b600060e08301600083015161177060008601826113bb565b50602083015161178360208601826113bb565b506040830151848203604086015261179b8282611421565b91505060608301516117b060608601826113bb565b5060808301516117c360808601826113bb565b5060a08301516117d660a08601826113bb565b5060c08301516117e960c08601826113bb565b508091505092915050565b60006118008383611758565b905092915050565b6000602082019050919050565b60006118208261172c565b61182a8185611737565b93508360208202850161183c85611748565b8060005b85811015611878578484038952815161185985826117f4565b945061186483611808565b925060208a01995050600181019050611840565b50829750879550505050505092915050565b600060208201905081810360008301526118a48184611815565b905092915050565b6000819050919050565b6118bf816118ac565b81146118ca57600080fd5b50565b6000813590506118dc816118b6565b92915050565b600080604083850312156118f9576118f8611358565b5b6000611907858286016118cd565b925050602061191885828601611379565b9150509250929050565b61192b816118ac565b82525050565b600081519050919050565b600082825260208201905092915050565b600061195882611931565b611962818561193c565b93506119728185602086016113e6565b61197b81611410565b840191505092915050565b60008115159050919050565b61199b81611986565b82525050565b600060a0830160008301516119b960008601826113bb565b5060208301516119cc6020860182611922565b50604083015184820360408601526119e4828261194d565b91505060608301516119f96060860182611992565b506080830151611a0c60808601826113bb565b508091505092915050565b60006020820190508181036000830152611a3181846119a1565b905092915050565b600060208284031215611a4f57611a4e611358565b5b6000611a5d848285016118cd565b91505092915050565b600060ff82169050919050565b611a7c81611a66565b82525050565b600082825260208201905092915050565b6000611a9e8261123c565b611aa88185611a82565b9350611ab383611258565b8060005b83811015611ae4578151611acb88826112a9565b9750611ad6836112c1565b925050600181019050611ab7565b5085935050505092915050565b60006101e083016000830151611b0a60008601826113bb565b506020830151611b1d60208601826113bb565b506040830151611b306040860182611992565b506060830151611b436060860182611992565b5060808301518482036080860152611b5b8282611421565b91505060a0830151611b7060a0860182611a73565b5060c0830151611b8360c08601826113bb565b5060e0830151611b9660e08601826113bb565b50610100830151611bab6101008601826113bb565b50610120830151848203610120860152611bc58282611421565b915050610140830151611bdc61014086018261129a565b50610160830151611bf161016086018261129a565b50610180830151848203610180860152611c0b8282611a93565b9150506101a0830151611c226101a0860182611a73565b506101c0830151611c376101c0860182611992565b508091505092915050565b60006020820190508181036000830152611c5c8184611af1565b905092915050565b7f4e487b7100000000000000000000000000000000000000000000000000000000600052602260045260246000fd5b60006002820490506001821680611cab57607f821691505b602082108103611cbe57611cbd611c64565b5b50919050565b7f4e487b7100000000000000000000000000000000000000000000000000000000600052603260045260246000fd5b611cfc816118ac565b82525050565b6000602082019050611d176000830184611cf3565b92915050565b7f4e487b7100000000000000000000000000000000000000000000000000000000600052601160045260246000fd5b6000611d5782611a66565b915060ff8203611d6a57611d69611d1d565b5b600182019050919050565b611d7e81611986565b82525050565b6000604082019050611d996000830185611d75565b611da66020830184611571565b939250505056fea2646970667358221220e26204f51bb15b91ab7c4319be2d2a795b018b1029fe5ff9e277740e03910a4064736f6c63430008120033",
  "devdoc": {
    "kind": "dev",
    "methods": {
      "getAdmin()": {
        "returns": {
          "_0": "The admin address"
        }
      },
      "getArchaeologistProfile(address)": {
        "params": {
          "archaeologist": "The archaeologist account's address"
        },
        "returns": {
          "_0": "the Archaeologist object"
        }
      },
      "getArchaeologistProfileAddressAtIndex(uint256)": {
        "params": {
          "index": "The index of the registered archaeologist"
        },
        "returns": {
          "_0": "address of the archaeologist"
        }
      },
      "getArchaeologistProfileAddresses()": {
        "returns": {
          "_0": "addresses of registered archaeologists"
        }
      },
      "getArchaeologistProfiles(address[])": {
        "params": {
          "addresses": "The list of archaeologist addresses"
        },
        "returns": {
          "_0": "The list of archaeologist profiles"
        }
      },
      "getCursedBond(address)": {
        "params": {
          "archaeologist": "The address of the archaeologist whose cursed bond is being returned"
        }
      },
      "getCursedBondPercentage()": {
        "returns": {
          "_0": "The cursed bond percentage - cursedBondPercentage"
        }
      },
      "getEmbalmerClaimWindow()": {
        "returns": {
          "_0": "The embalmer claim window"
        }
      },
      "getExpirationThreshold()": {
        "returns": {
          "_0": "The expiration threshold"
        }
      },
      "getFreeBond(address)": {
        "params": {
          "archaeologist": "The address of the archaeologist whose free bond is being returned"
        }
      },
      "getGracePeriod()": {
        "returns": {
          "_0": "The resurrection grace period"
        }
      },
      "getProtocolFeeBasePercentage()": {
        "returns": {
          "_0": "The protocol fee base percentage - protocolFeeBasePercentage"
        }
      },
      "getRewards(address)": {
        "params": {
          "archaeologist": "The address of the archaeologist whose reward is being returned"
        }
      },
      "getSarcophagus(bytes32)": {
        "params": {
          "sarcoId": "The identifier of the sarcophagus being returned"
        }
      },
      "getSarcophagusArchaeologist(bytes32,address)": {
        "params": {
          "archaeologist": "The address of the archaeologist whose data is being returned",
          "sarcoId": "The identifier of the sarcophagus whose data is being returned"
        }
      },
      "getTotalProtocolFees()": {
        "returns": {
          "_0": "The total protocol fees"
        }
      }
    },
    "version": 1
  },
  "userdoc": {
    "kind": "user",
    "methods": {
      "getAdmin()": {
        "notice": "Get the admin address from diamond storage"
      },
      "getArchaeologistProfile(address)": {
        "notice": "Given an archaeologist address, return that archaeologist's profile"
      },
      "getArchaeologistProfileAddressAtIndex(uint256)": {
        "notice": "Given an index (of the full archaeologist array), return the archaeologist address at that index"
      },
      "getArchaeologistProfileAddresses()": {
        "notice": "Return the list of registereed archaeologist addresses."
      },
      "getArchaeologistProfiles(address[])": {
        "notice": "Gets archaeologist profiles given a list of archaeologist addresses. If an invalid address is included, simply leaves it out of the list."
      },
      "getCursedBond(address)": {
        "notice": "Returns the amount of cursed bond stored in the contract for an archaeologist."
      },
      "getCursedBondPercentage()": {
        "notice": "Get the cursed bond percentage from diamond storage"
      },
      "getEmbalmerClaimWindow()": {
        "notice": "Gets the window after end of gracePeriod + resurrectionTime where embalmer can claim remaining bonds from archaeologists that have failed to publish private keys"
      },
      "getExpirationThreshold()": {
        "notice": "Gets the expiration threshold after which a sarcophagus must be renegotiated"
      },
      "getFreeBond(address)": {
        "notice": "Returns the amount of free bond stored in the contract for an archaeologist."
      },
      "getGracePeriod()": {
        "notice": "Gets the grace period an archaeologist is given to resurrect a sarcophagus after the resurrection time passes"
      },
      "getProtocolFeeBasePercentage()": {
        "notice": "Get the protocol fee base percentage from diamond storage"
      },
      "getRewards(address)": {
        "notice": "Returns the amount of rewards stored in the contract for an archaeologist."
      },
      "getSarcophagus(bytes32)": {
        "notice": "Returns data on the sarcophagus with the supplied id includes aggregate data on cursed archaeologists associated with the sarcophagus     - publishedPrivateKeyCount - the total number of private keys published by archaeologists on the sarcophagus     - hasLockedBond - true if archaeologists still have bond locked in the contract for this sarcophagus"
      },
      "getSarcophagusArchaeologist(bytes32,address)": {
        "notice": "Returns the data stored on a sarcophagus for an archaeologist."
      },
      "getTotalProtocolFees()": {
        "notice": "Gets the total protocol fees from diamond storage"
      }
    },
    "version": 1
  },
  "storageLayout": {
    "storage": [],
    "types": null
  }
}