{
  "address": "0xb17E80c43Be8f3192C91e8EaC819DE7b698C6E3F",
  "abi": [
    {
      "inputs": [
        {
          "internalType": "address",
          "name": "archaeologist",
          "type": "address"
        },
        {
          "internalType": "uint256",
          "name": "index",
          "type": "uint256"
        }
      ],
      "name": "archaeologistAccusalsIdentifier",
      "outputs": [
        {
          "internalType": "bytes32",
          "name": "",
          "type": "bytes32"
        }
      ],
      "stateMutability": "view",
      "type": "function"
    },
    {
      "inputs": [
        {
          "internalType": "address",
          "name": "archaeologist",
          "type": "address"
        },
        {
          "internalType": "uint256",
          "name": "index",
          "type": "uint256"
        }
      ],
      "name": "archaeologistCleanupsIdentifier",
      "outputs": [
        {
          "internalType": "bytes32",
          "name": "",
          "type": "bytes32"
        }
      ],
      "stateMutability": "view",
      "type": "function"
    },
    {
      "inputs": [
        {
          "internalType": "address",
          "name": "archaeologist",
          "type": "address"
        },
        {
          "internalType": "uint256",
          "name": "index",
          "type": "uint256"
        }
      ],
      "name": "archaeologistSuccessesIdentifier",
      "outputs": [
        {
          "internalType": "bytes32",
          "name": "",
          "type": "bytes32"
        }
      ],
      "stateMutability": "view",
      "type": "function"
    },
    {
      "inputs": [
        {
          "internalType": "address",
          "name": "archaeologist",
          "type": "address"
        }
      ],
      "name": "getArchaeologistAccusalsCount",
      "outputs": [
        {
          "internalType": "uint256",
          "name": "",
          "type": "uint256"
        }
      ],
      "stateMutability": "view",
      "type": "function"
    },
    {
      "inputs": [
        {
          "internalType": "address",
          "name": "archaeologist",
          "type": "address"
        }
      ],
      "name": "getArchaeologistCleanupsCount",
      "outputs": [
        {
          "internalType": "uint256",
          "name": "",
          "type": "uint256"
        }
      ],
      "stateMutability": "view",
      "type": "function"
    },
    {
      "inputs": [
        {
          "internalType": "address",
          "name": "archaeologist",
          "type": "address"
        }
      ],
      "name": "getArchaeologistProfile",
      "outputs": [
        {
          "components": [
            {
              "internalType": "bool",
              "name": "exists",
              "type": "bool"
            },
            {
              "internalType": "string",
              "name": "peerId",
              "type": "string"
            },
            {
              "internalType": "uint256",
              "name": "minimumDiggingFee",
              "type": "uint256"
            },
            {
              "internalType": "uint256",
              "name": "maximumRewrapInterval",
              "type": "uint256"
            },
            {
              "internalType": "uint256",
              "name": "freeBond",
              "type": "uint256"
            },
            {
              "internalType": "uint256",
              "name": "cursedBond",
              "type": "uint256"
            }
          ],
          "internalType": "struct LibTypes.ArchaeologistProfile",
          "name": "",
          "type": "tuple"
        }
      ],
      "stateMutability": "view",
      "type": "function"
    },
    {
      "inputs": [
        {
          "internalType": "uint256",
          "name": "index",
          "type": "uint256"
        }
      ],
      "name": "getArchaeologistProfileAddressAtIndex",
      "outputs": [
        {
          "internalType": "address",
          "name": "",
          "type": "address"
        }
      ],
      "stateMutability": "view",
      "type": "function"
    },
    {
      "inputs": [],
      "name": "getArchaeologistProfileAddresses",
      "outputs": [
        {
          "internalType": "address[]",
          "name": "",
          "type": "address[]"
        }
      ],
      "stateMutability": "view",
      "type": "function"
    },
    {
      "inputs": [
        {
          "internalType": "address[]",
          "name": "addresses",
          "type": "address[]"
        }
      ],
      "name": "getArchaeologistProfiles",
      "outputs": [
        {
          "components": [
            {
              "internalType": "bool",
              "name": "exists",
              "type": "bool"
            },
            {
              "internalType": "string",
              "name": "peerId",
              "type": "string"
            },
            {
              "internalType": "uint256",
              "name": "minimumDiggingFee",
              "type": "uint256"
            },
            {
              "internalType": "uint256",
              "name": "maximumRewrapInterval",
              "type": "uint256"
            },
            {
              "internalType": "uint256",
              "name": "freeBond",
              "type": "uint256"
            },
            {
              "internalType": "uint256",
              "name": "cursedBond",
              "type": "uint256"
            }
          ],
          "internalType": "struct LibTypes.ArchaeologistProfile[]",
          "name": "",
          "type": "tuple[]"
        }
      ],
      "stateMutability": "view",
      "type": "function"
    },
    {
      "inputs": [
        {
          "internalType": "address",
          "name": "archaeologist",
          "type": "address"
        }
      ],
      "name": "getArchaeologistSarcophagi",
      "outputs": [
        {
          "internalType": "bytes32[]",
          "name": "",
          "type": "bytes32[]"
        }
      ],
      "stateMutability": "view",
      "type": "function"
    },
    {
      "inputs": [
        {
          "internalType": "address",
          "name": "archaeologist",
          "type": "address"
        },
        {
          "internalType": "bytes32",
          "name": "sarcoId",
          "type": "bytes32"
        }
      ],
      "name": "getArchaeologistSuccessOnSarcophagus",
      "outputs": [
        {
          "internalType": "bool",
          "name": "",
          "type": "bool"
        }
      ],
      "stateMutability": "view",
      "type": "function"
    },
    {
      "inputs": [
        {
          "internalType": "address",
          "name": "archaeologist",
          "type": "address"
        }
      ],
      "name": "getArchaeologistSuccessesCount",
      "outputs": [
        {
          "internalType": "uint256",
          "name": "",
          "type": "uint256"
        }
      ],
      "stateMutability": "view",
      "type": "function"
    },
    {
      "inputs": [
        {
          "internalType": "address[]",
          "name": "addresses",
          "type": "address[]"
        }
      ],
      "name": "getArchaeologistsStatistics",
      "outputs": [
        {
          "components": [
            {
              "internalType": "uint256",
              "name": "successes",
              "type": "uint256"
            },
            {
              "internalType": "uint256",
              "name": "accusals",
              "type": "uint256"
            },
            {
              "internalType": "uint256",
              "name": "cleanups",
              "type": "uint256"
            }
          ],
          "internalType": "struct LibTypes.ArchaeologistStatistics[]",
          "name": "",
          "type": "tuple[]"
        }
      ],
      "stateMutability": "view",
      "type": "function"
    },
    {
      "inputs": [
        {
          "internalType": "address",
          "name": "archaeologist",
          "type": "address"
        }
      ],
      "name": "getCursedBond",
      "outputs": [
        {
          "internalType": "uint256",
          "name": "",
          "type": "uint256"
        }
      ],
      "stateMutability": "view",
      "type": "function"
    },
    {
      "inputs": [
        {
          "internalType": "address",
          "name": "embalmer",
          "type": "address"
        }
      ],
      "name": "getEmbalmerSarcophagi",
      "outputs": [
        {
          "internalType": "bytes32[]",
          "name": "",
          "type": "bytes32[]"
        }
      ],
      "stateMutability": "view",
      "type": "function"
    },
    {
      "inputs": [],
      "name": "getExpirationThreshold",
      "outputs": [
        {
          "internalType": "uint256",
          "name": "",
          "type": "uint256"
        }
      ],
      "stateMutability": "view",
      "type": "function"
    },
    {
      "inputs": [
        {
          "internalType": "address",
          "name": "archaeologist",
          "type": "address"
        }
      ],
      "name": "getFreeBond",
      "outputs": [
        {
          "internalType": "uint256",
          "name": "",
          "type": "uint256"
        }
      ],
      "stateMutability": "view",
      "type": "function"
    },
    {
      "inputs": [],
      "name": "getGracePeriod",
      "outputs": [
        {
          "internalType": "uint256",
          "name": "",
          "type": "uint256"
        }
      ],
      "stateMutability": "view",
      "type": "function"
    },
    {
      "inputs": [],
      "name": "getProtocolFeeBasePercentage",
      "outputs": [
        {
          "internalType": "uint256",
          "name": "",
          "type": "uint256"
        }
      ],
      "stateMutability": "view",
      "type": "function"
    },
    {
      "inputs": [
        {
          "internalType": "address",
          "name": "recipient",
          "type": "address"
        }
      ],
      "name": "getRecipientSarcophagi",
      "outputs": [
        {
          "internalType": "bytes32[]",
          "name": "",
          "type": "bytes32[]"
        }
      ],
      "stateMutability": "view",
      "type": "function"
    },
    {
      "inputs": [
        {
          "internalType": "address",
          "name": "archaeologist",
          "type": "address"
        }
      ],
      "name": "getRewards",
      "outputs": [
        {
          "internalType": "uint256",
          "name": "",
          "type": "uint256"
        }
      ],
      "stateMutability": "view",
      "type": "function"
    },
    {
      "inputs": [
        {
          "internalType": "bytes32",
          "name": "sarcoId",
          "type": "bytes32"
        }
      ],
      "name": "getSarcophagus",
      "outputs": [
        {
          "components": [
            {
              "internalType": "string",
              "name": "name",
              "type": "string"
            },
            {
              "internalType": "enum LibTypes.SarcophagusState",
              "name": "state",
              "type": "uint8"
            },
            {
              "internalType": "uint8",
              "name": "minShards",
              "type": "uint8"
            },
            {
              "internalType": "uint256",
              "name": "resurrectionTime",
              "type": "uint256"
            },
            {
              "internalType": "uint256",
              "name": "maximumRewrapInterval",
              "type": "uint256"
            },
            {
              "internalType": "string[]",
              "name": "arweaveTxIds",
              "type": "string[]"
            },
            {
              "internalType": "address",
              "name": "embalmer",
              "type": "address"
            },
            {
              "internalType": "address",
              "name": "recipientAddress",
              "type": "address"
            },
            {
              "internalType": "address[]",
              "name": "archaeologists",
              "type": "address[]"
            }
          ],
          "internalType": "struct LibTypes.Sarcophagus",
          "name": "",
          "type": "tuple"
        }
      ],
      "stateMutability": "view",
      "type": "function"
    },
    {
      "inputs": [
        {
          "internalType": "bytes32",
          "name": "sarcoId",
          "type": "bytes32"
        },
        {
          "internalType": "address",
          "name": "archaeologist",
          "type": "address"
        }
      ],
      "name": "getSarcophagusArchaeologist",
      "outputs": [
        {
          "components": [
            {
              "internalType": "uint256",
              "name": "diggingFee",
              "type": "uint256"
            },
            {
              "internalType": "uint256",
              "name": "diggingFeesPaid",
              "type": "uint256"
            },
            {
              "internalType": "bytes32",
              "name": "unencryptedShardDoubleHash",
              "type": "bytes32"
            },
            {
              "internalType": "bytes",
              "name": "unencryptedShard",
              "type": "bytes"
            }
          ],
          "internalType": "struct LibTypes.ArchaeologistStorage",
          "name": "",
          "type": "tuple"
        }
      ],
      "stateMutability": "view",
      "type": "function"
    },
    {
      "inputs": [],
      "name": "getTotalProtocolFees",
      "outputs": [
        {
          "internalType": "uint256",
          "name": "",
          "type": "uint256"
        }
      ],
      "stateMutability": "view",
      "type": "function"
    }
  ],
  "transactionHash": "0x951f3e4eb1f07566883d64cd972d14dee8284ca390e98401ddb087427038d4f8",
  "args": [],
  "numDeployments": 3,
  "solcInputHash": "e93e69833cc2861ad35b8a71c75835fd",
  "bytecode": "0x608060405234801561001057600080fd5b5061296e806100206000396000f3fe608060405234801561001057600080fd5b50600436106101585760003560e01c80638fbd55d2116100c3578063daa4d21b1161007c578063daa4d21b14610475578063dbd18388146104a5578063dc231f43146104c3578063de116f06146104f3578063ef60e4e714610523578063fb6fffb51461055357610158565b80638fbd55d2146103795780639c545639146103a95780639fdaded1146103c7578063a9328dcc146103e5578063c34e9bff14610415578063d31dedd11461044557610158565b80636b74d55a116101155780636b74d55a1461026b5780636ba5c8ef1461029b5780636c99bedc146102cb57806379ee54f7146102fb5780637aa9fd2f1461032b57806387927ce61461034957610158565b8063256909021461015d578063284f34de1461018d5780633fbb8930146101bd57806342e10bc8146101db5780634d0b67671461020b57806357babbaf1461023b575b600080fd5b61017760048036038101906101729190611a0d565b610583565b6040516101849190611a53565b60405180910390f35b6101a760048036038101906101a29190611a9a565b6105d1565b6040516101b49190611af3565b60405180910390f35b6101c5610639565b6040516101d29190611bcc565b60405180910390f35b6101f560048036038101906101f09190611a0d565b6106ca565b6040516102029190611d3a565b60405180910390f35b61022560048036038101906102209190611a0d565b6107fb565b6040516102329190611e1a565b60405180910390f35b61025560048036038101906102509190611e3c565b610895565b6040516102629190611e78565b60405180910390f35b61028560048036038101906102809190611fdb565b6108df565b6040516102929190612115565b60405180910390f35b6102b560048036038101906102b09190612163565b610b55565b6040516102c291906121b2565b60405180910390f35b6102e560048036038101906102e09190611a9a565b610bbf565b6040516102f29190611af3565b60405180910390f35b61031560048036038101906103109190611a0d565b610c27565b6040516103229190611a53565b60405180910390f35b610333610c72565b6040516103409190611a53565b60405180910390f35b610363600480360381019061035e9190611a0d565b610c7e565b6040516103709190611a53565b60405180910390f35b610393600480360381019061038e9190611a0d565b610ccc565b6040516103a09190611a53565b60405180910390f35b6103b1610d1a565b6040516103be9190611a53565b60405180910390f35b6103cf610d26565b6040516103dc9190611a53565b60405180910390f35b6103ff60048036038101906103fa9190611fdb565b610d32565b60405161040c9190612318565b60405180910390f35b61042f600480360381019061042a9190611a0d565b610f83565b60405161043c9190611e1a565b60405180910390f35b61045f600480360381019061045a9190611a0d565b61101d565b60405161046c9190611a53565b60405180910390f35b61048f600480360381019061048a9190611a0d565b61106b565b60405161049c9190611a53565b60405180910390f35b6104ad6110b9565b6040516104ba9190611a53565b60405180910390f35b6104dd60048036038101906104d8919061233a565b6110c5565b6040516104ea9190612432565b60405180910390f35b61050d60048036038101906105089190612454565b6111e3565b60405161051a9190612718565b60405180910390f35b61053d60048036038101906105389190611a0d565b611788565b60405161054a9190611e1a565b60405180910390f35b61056d60048036038101906105689190611a9a565b611822565b60405161057a9190611af3565b60405180910390f35b60008060090160008373ffffffffffffffffffffffffffffffffffffffff1673ffffffffffffffffffffffffffffffffffffffff168152602001908152602001600020805490509050919050565b60008060090160008473ffffffffffffffffffffffffffffffffffffffff1673ffffffffffffffffffffffffffffffffffffffff16815260200190815260200160002082815481106106265761062561273a565b5b9060005260206000200154905092915050565b606060006006018054806020026020016040519081016040528092919081815260200182805480156106c057602002820191906000526020600020905b8160009054906101000a900473ffffffffffffffffffffffffffffffffffffffff1673ffffffffffffffffffffffffffffffffffffffff1681526020019060010190808311610676575b5050505050905090565b6106d261188a565b600060070160008373ffffffffffffffffffffffffffffffffffffffff1673ffffffffffffffffffffffffffffffffffffffff1681526020019081526020016000206040518060c00160405290816000820160009054906101000a900460ff1615151515815260200160018201805461074a90612798565b80601f016020809104026020016040519081016040528092919081815260200182805461077690612798565b80156107c35780601f10610798576101008083540402835291602001916107c3565b820191906000526020600020905b8154815290600101906020018083116107a657829003601f168201915b505050505081526020016002820154815260200160038201548152602001600482015481526020016005820154815250509050919050565b6060600060100160008373ffffffffffffffffffffffffffffffffffffffff1673ffffffffffffffffffffffffffffffffffffffff16815260200190815260200160002080548060200260200160405190810160405280929190818152602001828054801561088957602002820191906000526020600020905b815481526020019060010190808311610875575b50505050509050919050565b60008060060182815481106108ad576108ac61273a565b5b9060005260206000200160009054906101000a900473ffffffffffffffffffffffffffffffffffffffff169050919050565b60606000825167ffffffffffffffff8111156108fe576108fd611e98565b5b60405190808252806020026020018201604052801561093757816020015b6109246118c2565b81526020019060019003908161091c5790505b50905060005b8351811015610b4b5760405180606001604052803073ffffffffffffffffffffffffffffffffffffffff1663256909028785815181106109805761097f61273a565b5b60200260200101516040518263ffffffff1660e01b81526004016109a49190611e78565b602060405180830381865afa1580156109c1573d6000803e3d6000fd5b505050506040513d601f19601f820116820180604052508101906109e591906127de565b81526020013073ffffffffffffffffffffffffffffffffffffffff1663daa4d21b878581518110610a1957610a1861273a565b5b60200260200101516040518263ffffffff1660e01b8152600401610a3d9190611e78565b602060405180830381865afa158015610a5a573d6000803e3d6000fd5b505050506040513d601f19601f82011682018060405250810190610a7e91906127de565b81526020013073ffffffffffffffffffffffffffffffffffffffff1663d31dedd1878581518110610ab257610ab161273a565b5b60200260200101516040518263ffffffff1660e01b8152600401610ad69190611e78565b602060405180830381865afa158015610af3573d6000803e3d6000fd5b505050506040513d601f19601f82011682018060405250810190610b1791906127de565b815250828281518110610b2d57610b2c61273a565b5b60200260200101819052508080610b439061283a565b91505061093d565b5080915050919050565b60008060080160008473ffffffffffffffffffffffffffffffffffffffff1673ffffffffffffffffffffffffffffffffffffffff168152602001908152602001600020600083815260200190815260200160002060009054906101000a900460ff16905092915050565b600080600a0160008473ffffffffffffffffffffffffffffffffffffffff1673ffffffffffffffffffffffffffffffffffffffff1681526020019081526020016000208281548110610c1457610c1361273a565b5b9060005260206000200154905092915050565b600080600c0160008373ffffffffffffffffffffffffffffffffffffffff1673ffffffffffffffffffffffffffffffffffffffff168152602001908152602001600020549050919050565b60008060040154905090565b60008060070160008373ffffffffffffffffffffffffffffffffffffffff1673ffffffffffffffffffffffffffffffffffffffff168152602001908152602001600020600501549050919050565b60008060070160008373ffffffffffffffffffffffffffffffffffffffff1673ffffffffffffffffffffffffffffffffffffffff168152602001908152602001600020600401549050919050565b60008060020154905090565b60008060010154905090565b60606000825167ffffffffffffffff811115610d5157610d50611e98565b5b604051908082528060200260200182016040528015610d8a57816020015b610d7761188a565b815260200190600190039081610d6f5790505b50905060005b8351811015610f795760006007016000858381518110610db357610db261273a565b5b602002602001015173ffffffffffffffffffffffffffffffffffffffff1673ffffffffffffffffffffffffffffffffffffffff16815260200190815260200160002060000160009054906101000a900460ff1615610f665760006007016000858381518110610e2557610e2461273a565b5b602002602001015173ffffffffffffffffffffffffffffffffffffffff1673ffffffffffffffffffffffffffffffffffffffff1681526020019081526020016000206040518060c00160405290816000820160009054906101000a900460ff16151515158152602001600182018054610e9d90612798565b80601f0160208091040260200160405190810160405280929190818152602001828054610ec990612798565b8015610f165780601f10610eeb57610100808354040283529160200191610f16565b820191906000526020600020905b815481529060010190602001808311610ef957829003601f168201915b50505050508152602001600282015481526020016003820154815260200160048201548152602001600582015481525050828281518110610f5a57610f5961273a565b5b60200260200101819052505b8080610f719061283a565b915050610d90565b5080915050919050565b60606000600e0160008373ffffffffffffffffffffffffffffffffffffffff1673ffffffffffffffffffffffffffffffffffffffff16815260200190815260200160002080548060200260200160405190810160405280929190818152602001828054801561101157602002820191906000526020600020905b815481526020019060010190808311610ffd575b50505050509050919050565b600080600b0160008373ffffffffffffffffffffffffffffffffffffffff1673ffffffffffffffffffffffffffffffffffffffff168152602001908152602001600020805490509050919050565b600080600a0160008373ffffffffffffffffffffffffffffffffffffffff1673ffffffffffffffffffffffffffffffffffffffff168152602001908152602001600020805490509050919050565b60008060030154905090565b6110cd6118e3565b6000601201600084815260200190815260200160002060008373ffffffffffffffffffffffffffffffffffffffff1673ffffffffffffffffffffffffffffffffffffffff16815260200190815260200160002060405180608001604052908160008201548152602001600182015481526020016002820154815260200160038201805461115990612798565b80601f016020809104026020016040519081016040528092919081815260200182805461118590612798565b80156111d25780601f106111a7576101008083540402835291602001916111d2565b820191906000526020600020905b8154815290600101906020018083116111b557829003601f168201915b505050505081525050905092915050565b6111eb61190e565b600080600d0160008481526020019081526020016000206040518061012001604052908160008201805461121e90612798565b80601f016020809104026020016040519081016040528092919081815260200182805461124a90612798565b80156112975780601f1061126c57610100808354040283529160200191611297565b820191906000526020600020905b81548152906001019060200180831161127a57829003601f168201915b505050505081526020016001820160009054906101000a900460ff1660078111156112c5576112c4612481565b5b60078111156112d7576112d6612481565b5b81526020016001820160019054906101000a900460ff1660ff1660ff168152602001600282015481526020016003820154815260200160048201805480602002602001604051908101604052809291908181526020016000905b828210156113dd57838290600052602060002001805461135090612798565b80601f016020809104026020016040519081016040528092919081815260200182805461137c90612798565b80156113c95780601f1061139e576101008083540402835291602001916113c9565b820191906000526020600020905b8154815290600101906020018083116113ac57829003601f168201915b505050505081526020019060010190611331565b5050505081526020016005820160009054906101000a900473ffffffffffffffffffffffffffffffffffffffff1673ffffffffffffffffffffffffffffffffffffffff1673ffffffffffffffffffffffffffffffffffffffff1681526020016006820160009054906101000a900473ffffffffffffffffffffffffffffffffffffffff1673ffffffffffffffffffffffffffffffffffffffff1673ffffffffffffffffffffffffffffffffffffffff1681526020016007820180548060200260200160405190810160405280929190818152602001828054801561151657602002820191906000526020600020905b8160009054906101000a900473ffffffffffffffffffffffffffffffffffffffff1673ffffffffffffffffffffffffffffffffffffffff16815260200190600101908083116114cc575b50505050508152505090506001600781111561153557611534612481565b5b8160200151600781111561154c5761154b612481565b5b1461155a5780915050611783565b6000805b826101000151518160ff16101561171957600080601201600087815260200190815260200160002060008561010001518460ff16815181106115a3576115a261273a565b5b602002602001015173ffffffffffffffffffffffffffffffffffffffff1673ffffffffffffffffffffffffffffffffffffffff16815260200190815260200160002060030180546115f390612798565b80601f016020809104026020016040519081016040528092919081815260200182805461161f90612798565b801561166c5780601f106116415761010080835404028352916020019161166c565b820191906000526020600020905b81548152906001019060200180831161164f57829003601f168201915b5050505050905060008151146116bd576001836116899190612882565b92506002846020019060078111156116a4576116a3612481565b5b908160078111156116b8576116b7612481565b5b815250505b836040015160ff168360ff1603611705576003846020019060078111156116e7576116e6612481565b5b908160078111156116fb576116fa612481565b5b8152505050611719565b508080611711906128b9565b91505061155e565b50816040015160ff168160ff161080156117465750600060030154826060015161174391906128e2565b42115b1561177d5760078260200190600781111561176457611763612481565b5b9081600781111561177857611777612481565b5b815250505b81925050505b919050565b60606000600f0160008373ffffffffffffffffffffffffffffffffffffffff1673ffffffffffffffffffffffffffffffffffffffff16815260200190815260200160002080548060200260200160405190810160405280929190818152602001828054801561181657602002820191906000526020600020905b815481526020019060010190808311611802575b50505050509050919050565b600080600b0160008473ffffffffffffffffffffffffffffffffffffffff1673ffffffffffffffffffffffffffffffffffffffff16815260200190815260200160002082815481106118775761187661273a565b5b9060005260206000200154905092915050565b6040518060c0016040528060001515815260200160608152602001600081526020016000815260200160008152602001600081525090565b60405180606001604052806000815260200160008152602001600081525090565b6040518060800160405280600081526020016000815260200160008019168152602001606081525090565b604051806101200160405280606081526020016000600781111561193557611934612481565b5b8152602001600060ff168152602001600081526020016000815260200160608152602001600073ffffffffffffffffffffffffffffffffffffffff168152602001600073ffffffffffffffffffffffffffffffffffffffff168152602001606081525090565b6000604051905090565b600080fd5b600080fd5b600073ffffffffffffffffffffffffffffffffffffffff82169050919050565b60006119da826119af565b9050919050565b6119ea816119cf565b81146119f557600080fd5b50565b600081359050611a07816119e1565b92915050565b600060208284031215611a2357611a226119a5565b5b6000611a31848285016119f8565b91505092915050565b6000819050919050565b611a4d81611a3a565b82525050565b6000602082019050611a686000830184611a44565b92915050565b611a7781611a3a565b8114611a8257600080fd5b50565b600081359050611a9481611a6e565b92915050565b60008060408385031215611ab157611ab06119a5565b5b6000611abf858286016119f8565b9250506020611ad085828601611a85565b9150509250929050565b6000819050919050565b611aed81611ada565b82525050565b6000602082019050611b086000830184611ae4565b92915050565b600081519050919050565b600082825260208201905092915050565b6000819050602082019050919050565b611b43816119cf565b82525050565b6000611b558383611b3a565b60208301905092915050565b6000602082019050919050565b6000611b7982611b0e565b611b838185611b19565b9350611b8e83611b2a565b8060005b83811015611bbf578151611ba68882611b49565b9750611bb183611b61565b925050600181019050611b92565b5085935050505092915050565b60006020820190508181036000830152611be68184611b6e565b905092915050565b60008115159050919050565b611c0381611bee565b82525050565b600081519050919050565b600082825260208201905092915050565b60005b83811015611c43578082015181840152602081019050611c28565b83811115611c52576000848401525b50505050565b6000601f19601f8301169050919050565b6000611c7482611c09565b611c7e8185611c14565b9350611c8e818560208601611c25565b611c9781611c58565b840191505092915050565b611cab81611a3a565b82525050565b600060c083016000830151611cc96000860182611bfa565b5060208301518482036020860152611ce18282611c69565b9150506040830151611cf66040860182611ca2565b506060830151611d096060860182611ca2565b506080830151611d1c6080860182611ca2565b5060a0830151611d2f60a0860182611ca2565b508091505092915050565b60006020820190508181036000830152611d548184611cb1565b905092915050565b600081519050919050565b600082825260208201905092915050565b6000819050602082019050919050565b611d9181611ada565b82525050565b6000611da38383611d88565b60208301905092915050565b6000602082019050919050565b6000611dc782611d5c565b611dd18185611d67565b9350611ddc83611d78565b8060005b83811015611e0d578151611df48882611d97565b9750611dff83611daf565b925050600181019050611de0565b5085935050505092915050565b60006020820190508181036000830152611e348184611dbc565b905092915050565b600060208284031215611e5257611e516119a5565b5b6000611e6084828501611a85565b91505092915050565b611e72816119cf565b82525050565b6000602082019050611e8d6000830184611e69565b92915050565b600080fd5b7f4e487b7100000000000000000000000000000000000000000000000000000000600052604160045260246000fd5b611ed082611c58565b810181811067ffffffffffffffff82111715611eef57611eee611e98565b5b80604052505050565b6000611f0261199b565b9050611f0e8282611ec7565b919050565b600067ffffffffffffffff821115611f2e57611f2d611e98565b5b602082029050602081019050919050565b600080fd5b6000611f57611f5284611f13565b611ef8565b90508083825260208201905060208402830185811115611f7a57611f79611f3f565b5b835b81811015611fa35780611f8f88826119f8565b845260208401935050602081019050611f7c565b5050509392505050565b600082601f830112611fc257611fc1611e93565b5b8135611fd2848260208601611f44565b91505092915050565b600060208284031215611ff157611ff06119a5565b5b600082013567ffffffffffffffff81111561200f5761200e6119aa565b5b61201b84828501611fad565b91505092915050565b600081519050919050565b600082825260208201905092915050565b6000819050602082019050919050565b6060820160008201516120666000850182611ca2565b5060208201516120796020850182611ca2565b50604082015161208c6040850182611ca2565b50505050565b600061209e8383612050565b60608301905092915050565b6000602082019050919050565b60006120c282612024565b6120cc818561202f565b93506120d783612040565b8060005b838110156121085781516120ef8882612092565b97506120fa836120aa565b9250506001810190506120db565b5085935050505092915050565b6000602082019050818103600083015261212f81846120b7565b905092915050565b61214081611ada565b811461214b57600080fd5b50565b60008135905061215d81612137565b92915050565b6000806040838503121561217a576121796119a5565b5b6000612188858286016119f8565b92505060206121998582860161214e565b9150509250929050565b6121ac81611bee565b82525050565b60006020820190506121c760008301846121a3565b92915050565b600081519050919050565b600082825260208201905092915050565b6000819050602082019050919050565b600060c0830160008301516122116000860182611bfa565b50602083015184820360208601526122298282611c69565b915050604083015161223e6040860182611ca2565b5060608301516122516060860182611ca2565b5060808301516122646080860182611ca2565b5060a083015161227760a0860182611ca2565b508091505092915050565b600061228e83836121f9565b905092915050565b6000602082019050919050565b60006122ae826121cd565b6122b881856121d8565b9350836020820285016122ca856121e9565b8060005b8581101561230657848403895281516122e78582612282565b94506122f283612296565b925060208a019950506001810190506122ce565b50829750879550505050505092915050565b6000602082019050818103600083015261233281846122a3565b905092915050565b60008060408385031215612351576123506119a5565b5b600061235f8582860161214e565b9250506020612370858286016119f8565b9150509250929050565b600081519050919050565b600082825260208201905092915050565b60006123a18261237a565b6123ab8185612385565b93506123bb818560208601611c25565b6123c481611c58565b840191505092915050565b60006080830160008301516123e76000860182611ca2565b5060208301516123fa6020860182611ca2565b50604083015161240d6040860182611d88565b50606083015184820360608601526124258282612396565b9150508091505092915050565b6000602082019050818103600083015261244c81846123cf565b905092915050565b60006020828403121561246a576124696119a5565b5b60006124788482850161214e565b91505092915050565b7f4e487b7100000000000000000000000000000000000000000000000000000000600052602160045260246000fd5b600881106124c1576124c0612481565b5b50565b60008190506124d2826124b0565b919050565b60006124e2826124c4565b9050919050565b6124f2816124d7565b82525050565b600060ff82169050919050565b61250e816124f8565b82525050565b600081519050919050565b600082825260208201905092915050565b6000819050602082019050919050565b600061254c8383611c69565b905092915050565b6000602082019050919050565b600061256c82612514565b612576818561251f565b93508360208202850161258885612530565b8060005b858110156125c457848403895281516125a58582612540565b94506125b083612554565b925060208a0199505060018101905061258c565b50829750879550505050505092915050565b600082825260208201905092915050565b60006125f282611b0e565b6125fc81856125d6565b935061260783611b2a565b8060005b8381101561263857815161261f8882611b49565b975061262a83611b61565b92505060018101905061260b565b5085935050505092915050565b60006101208301600083015184820360008601526126638282611c69565b915050602083015161267860208601826124e9565b50604083015161268b6040860182612505565b50606083015161269e6060860182611ca2565b5060808301516126b16080860182611ca2565b5060a083015184820360a08601526126c98282612561565b91505060c08301516126de60c0860182611b3a565b5060e08301516126f160e0860182611b3a565b5061010083015184820361010086015261270b82826125e7565b9150508091505092915050565b600060208201905081810360008301526127328184612645565b905092915050565b7f4e487b7100000000000000000000000000000000000000000000000000000000600052603260045260246000fd5b7f4e487b7100000000000000000000000000000000000000000000000000000000600052602260045260246000fd5b600060028204905060018216806127b057607f821691505b6020821081036127c3576127c2612769565b5b50919050565b6000815190506127d881611a6e565b92915050565b6000602082840312156127f4576127f36119a5565b5b6000612802848285016127c9565b91505092915050565b7f4e487b7100000000000000000000000000000000000000000000000000000000600052601160045260246000fd5b600061284582611a3a565b91507fffffffffffffffffffffffffffffffffffffffffffffffffffffffffffffffff82036128775761287661280b565b5b600182019050919050565b600061288d826124f8565b9150612898836124f8565b92508260ff038211156128ae576128ad61280b565b5b828201905092915050565b60006128c4826124f8565b915060ff82036128d7576128d661280b565b5b600182019050919050565b60006128ed82611a3a565b91506128f883611a3a565b9250827fffffffffffffffffffffffffffffffffffffffffffffffffffffffffffffffff0382111561292d5761292c61280b565b5b82820190509291505056fea2646970667358221220480d15513adc7b2dbbb4c866bdd88cb2c0d2f45a4c627524d67ac41ff1db1e4064736f6c634300080d0033",
  "devdoc": {
    "kind": "dev",
    "methods": {
      "archaeologistAccusalsIdentifier(address,uint256)": {
        "params": {
          "archaeologist": "The address of an archaeologist",
          "index": "The index of the archaeologist's accused sarcophagi"
        },
        "returns": {
          "_0": "the identifier associated with the index of the archaeologist's accused sarcophagi"
        }
      },
      "archaeologistCleanupsIdentifier(address,uint256)": {
        "params": {
          "archaeologist": "The address of an archaeologist",
          "index": "The index of the archaeologist's cleaned-up sarcophagi"
        },
        "returns": {
          "_0": "the identifier associated with the index of the archaeologist's cleaned-up sarcophagi"
        }
      },
      "archaeologistSuccessesIdentifier(address,uint256)": {
        "params": {
          "archaeologist": "The address of an archaeologist",
          "index": "The index of the archaeologist's unwrapped sarcophagi"
        },
        "returns": {
          "_0": "the identifier associated with the index of the archaeologist's unwrapped sarcophagi"
        }
      },
      "getArchaeologistAccusalsCount(address)": {
        "params": {
          "archaeologist": "The address of the archaeologist whose accusations count is being returned"
        }
      },
      "getArchaeologistCleanupsCount(address)": {
        "params": {
          "archaeologist": "The address of the archaeologist whose cleanups count is being returned"
        }
      },
      "getArchaeologistProfile(address)": {
        "params": {
          "archaeologist": "The archaeologist account's address"
        },
        "returns": {
          "_0": "the Archaeologist object"
        }
      },
      "getArchaeologistProfileAddressAtIndex(uint256)": {
        "params": {
          "index": "The index of the registered archaeologist"
        },
        "returns": {
          "_0": "address of the archaeologist"
        }
      },
      "getArchaeologistProfileAddresses()": {
        "returns": {
          "_0": "addresses of registered archaeologists"
        }
      },
      "getArchaeologistProfiles(address[])": {
        "params": {
          "addresses": "The list of archaeologist addresses"
        },
        "returns": {
          "_0": "The list of archaeologist profiles"
        }
      },
      "getArchaeologistSarcophagi(address)": {
        "params": {
          "archaeologist": "The address of the archaeologist whose sarcophagi are being returned"
        }
      },
      "getArchaeologistSuccessOnSarcophagus(address,bytes32)": {
        "params": {
          "archaeologist": "The address of the archaeologist",
          "sarcoId": "the sarcophagus to check if unwrapping occured"
        }
      },
      "getArchaeologistSuccessesCount(address)": {
        "params": {
          "archaeologist": "The address of the archaeologist whose success"
        }
      },
      "getArchaeologistsStatistics(address[])": {
        "params": {
          "addresses": "The list of archaeologist addresses"
        },
        "returns": {
          "_0": "The list of archaeologist statistics"
        }
      },
      "getCursedBond(address)": {
        "params": {
          "archaeologist": "The address of the archaeologist whose cursed bond is being returned"
        }
      },
      "getEmbalmerSarcophagi(address)": {
        "params": {
          "embalmer": "The address of the embalmer whose sarcophagi are being returned"
        }
      },
      "getExpirationThreshold()": {
        "returns": {
          "_0": "The expiration threshold"
        }
      },
      "getFreeBond(address)": {
        "params": {
          "archaeologist": "The address of the archaeologist whose free bond is being returned"
        }
      },
      "getGracePeriod()": {
        "returns": {
          "_0": "The resurrection grace period"
        }
      },
      "getProtocolFeeBasePercentage()": {
        "returns": {
          "_0": "The protocol fee base percentage - protocolFeeBasePercentage"
        }
      },
      "getRecipientSarcophagi(address)": {
        "params": {
          "recipient": "The address of the recipient whose sarcophagi are being returned"
        }
      },
      "getRewards(address)": {
        "params": {
          "archaeologist": "The address of the archaeologist whose reward is being returned"
        }
      },
      "getSarcophagus(bytes32)": {
        "params": {
          "sarcoId": "The identifier of the sarcophagus being returned"
        }
      },
      "getSarcophagusArchaeologist(bytes32,address)": {
        "params": {
          "archaeologist": "The address of the archaeologist whose data is being returned",
          "sarcoId": "The identifier of the sarcophagus whose data is being returned"
        }
      },
      "getTotalProtocolFees()": {
        "returns": {
          "_0": "The total protocol fees"
        }
      }
    },
    "version": 1
  },
  "userdoc": {
    "kind": "user",
    "methods": {
      "archaeologistAccusalsIdentifier(address,uint256)": {
        "notice": "Returns the sarcophagus unique identifier for a given archaeologist and index of the accused sarcophagi"
      },
      "archaeologistCleanupsIdentifier(address,uint256)": {
        "notice": "Returns the sarcophagus unique identifier for a given archaeologist and index of the cleaned-up sarcophagi"
      },
      "archaeologistSuccessesIdentifier(address,uint256)": {
        "notice": "Returns the sarcophagus unique identifier for a given archaeologist and index of the successfully unwrapped sarcophagi"
      },
      "getArchaeologistAccusalsCount(address)": {
        "notice": "Returns the number of accusations for an archaeologist."
      },
      "getArchaeologistCleanupsCount(address)": {
        "notice": "Returns the number of cleanups for an archaeologist."
      },
      "getArchaeologistProfile(address)": {
        "notice": "Given an archaeologist address, return that archaeologist's profile"
      },
      "getArchaeologistProfileAddressAtIndex(uint256)": {
        "notice": "Given an index (of the full archaeologist array), return the archaeologist address at that index"
      },
      "getArchaeologistProfileAddresses()": {
        "notice": "Return the list of registereed archaeologist addresses."
      },
      "getArchaeologistProfiles(address[])": {
        "notice": "Gets archaeologist profiles given a list of archaeologist addresses. If an invalid address is included, simply leaves it out of the list."
      },
      "getArchaeologistSarcophagi(address)": {
        "notice": "Given an archaeologist's address, returns the identifiers of all sarcophagi that the archaeologist has participated in."
      },
      "getArchaeologistSuccessOnSarcophagus(address,bytes32)": {
        "notice": "Returns whether an archaeologist completed an unwrap for a sarcophagus"
      },
      "getArchaeologistSuccessesCount(address)": {
        "notice": "Returns the number of successful unwraps for an archaeologist."
      },
      "getArchaeologistsStatistics(address[])": {
        "notice": "Gets all reputation statistics for each archaeologist Contains a list of counts for each category."
      },
      "getCursedBond(address)": {
        "notice": "Returns the amount of cursed bond stored in the contract for an archaeologist."
      },
      "getEmbalmerSarcophagi(address)": {
        "notice": "Given an embalmer's address, returns the identifiers of all sarcophagi that the embalmer has created."
      },
      "getExpirationThreshold()": {
        "notice": "Gets the expiration threshold after which a sarcophagus must be renegotiated"
      },
      "getFreeBond(address)": {
        "notice": "Returns the amount of free bond stored in the contract for an archaeologist."
      },
      "getGracePeriod()": {
        "notice": "Gets the grace period an archaeologist is given to resurrect a sarcophagus after the resurrection time passes"
      },
      "getProtocolFeeBasePercentage()": {
        "notice": "Get the protocol fee base percentage from the contract."
      },
      "getRecipientSarcophagi(address)": {
        "notice": "Given a recipient's address, returns the identifiers of all sarcophagi that the recipient has participated in."
      },
      "getRewards(address)": {
        "notice": "Returns the amount of rewards stored in the contract for an archaeologist."
      },
      "getSarcophagus(bytes32)": {
        "notice": "Returns a sarcophagus."
      },
      "getSarcophagusArchaeologist(bytes32,address)": {
        "notice": "Returns the data stored on a sarcophagus for an archaeologist."
      },
      "getTotalProtocolFees()": {
        "notice": "Gets the total protocol fees from the contract."
      }
    },
    "version": 1
  },
  "storageLayout": {
    "storage": [
      {
        "astId": 2881,
        "contract": "contracts/facets/ViewStateFacet.sol:ViewStateFacet",
        "label": "s",
        "offset": 0,
        "slot": "0",
        "type": "t_struct(AppStorage)4551_storage"
      }
    ],
    "types": {
      "t_address": {
        "encoding": "inplace",
        "label": "address",
        "numberOfBytes": "20"
      },
      "t_array(t_address)dyn_storage": {
        "base": "t_address",
        "encoding": "dynamic_array",
        "label": "address[]",
        "numberOfBytes": "32"
      },
      "t_array(t_bytes32)dyn_storage": {
        "base": "t_bytes32",
        "encoding": "dynamic_array",
        "label": "bytes32[]",
        "numberOfBytes": "32"
      },
      "t_array(t_string_storage)dyn_storage": {
        "base": "t_string_storage",
        "encoding": "dynamic_array",
        "label": "string[]",
        "numberOfBytes": "32"
      },
      "t_bool": {
        "encoding": "inplace",
        "label": "bool",
        "numberOfBytes": "1"
      },
      "t_bytes32": {
        "encoding": "inplace",
        "label": "bytes32",
        "numberOfBytes": "32"
      },
      "t_bytes_storage": {
        "encoding": "bytes",
        "label": "bytes",
        "numberOfBytes": "32"
      },
      "t_contract(IERC20)663": {
        "encoding": "inplace",
        "label": "contract IERC20",
        "numberOfBytes": "20"
      },
      "t_enum(SarcophagusState)3869": {
        "encoding": "inplace",
        "label": "enum LibTypes.SarcophagusState",
        "numberOfBytes": "1"
      },
      "t_mapping(t_address,t_array(t_bytes32)dyn_storage)": {
        "encoding": "mapping",
        "key": "t_address",
        "label": "mapping(address => bytes32[])",
        "numberOfBytes": "32",
        "value": "t_array(t_bytes32)dyn_storage"
      },
      "t_mapping(t_address,t_mapping(t_bytes32,t_bool))": {
        "encoding": "mapping",
        "key": "t_address",
        "label": "mapping(address => mapping(bytes32 => bool))",
        "numberOfBytes": "32",
        "value": "t_mapping(t_bytes32,t_bool)"
      },
      "t_mapping(t_address,t_struct(ArchaeologistProfile)3920_storage)": {
        "encoding": "mapping",
        "key": "t_address",
        "label": "mapping(address => struct LibTypes.ArchaeologistProfile)",
        "numberOfBytes": "32",
        "value": "t_struct(ArchaeologistProfile)3920_storage"
      },
      "t_mapping(t_address,t_struct(ArchaeologistStorage)3907_storage)": {
        "encoding": "mapping",
        "key": "t_address",
        "label": "mapping(address => struct LibTypes.ArchaeologistStorage)",
        "numberOfBytes": "32",
        "value": "t_struct(ArchaeologistStorage)3907_storage"
      },
      "t_mapping(t_address,t_uint256)": {
        "encoding": "mapping",
        "key": "t_address",
        "label": "mapping(address => uint256)",
        "numberOfBytes": "32",
        "value": "t_uint256"
      },
      "t_mapping(t_bytes32,t_address)": {
        "encoding": "mapping",
        "key": "t_bytes32",
        "label": "mapping(bytes32 => address)",
        "numberOfBytes": "32",
        "value": "t_address"
      },
      "t_mapping(t_bytes32,t_bool)": {
        "encoding": "mapping",
        "key": "t_bytes32",
        "label": "mapping(bytes32 => bool)",
        "numberOfBytes": "32",
        "value": "t_bool"
      },
      "t_mapping(t_bytes32,t_mapping(t_address,t_struct(ArchaeologistStorage)3907_storage))": {
        "encoding": "mapping",
        "key": "t_bytes32",
        "label": "mapping(bytes32 => mapping(address => struct LibTypes.ArchaeologistStorage))",
        "numberOfBytes": "32",
        "value": "t_mapping(t_address,t_struct(ArchaeologistStorage)3907_storage)"
      },
      "t_mapping(t_bytes32,t_struct(Sarcophagus)3955_storage)": {
        "encoding": "mapping",
        "key": "t_bytes32",
        "label": "mapping(bytes32 => struct LibTypes.Sarcophagus)",
        "numberOfBytes": "32",
        "value": "t_struct(Sarcophagus)3955_storage"
      },
      "t_string_storage": {
        "encoding": "bytes",
        "label": "string",
        "numberOfBytes": "32"
      },
      "t_struct(AppStorage)4551_storage": {
        "encoding": "inplace",
        "label": "struct AppStorage",
        "members": [
          {
            "astId": 4475,
            "contract": "contracts/facets/ViewStateFacet.sol:ViewStateFacet",
            "label": "sarcoToken",
            "offset": 0,
            "slot": "0",
            "type": "t_contract(IERC20)663"
          },
          {
            "astId": 4477,
            "contract": "contracts/facets/ViewStateFacet.sol:ViewStateFacet",
            "label": "protocolFeeBasePercentage",
            "offset": 0,
            "slot": "1",
            "type": "t_uint256"
          },
          {
            "astId": 4479,
            "contract": "contracts/facets/ViewStateFacet.sol:ViewStateFacet",
            "label": "totalProtocolFees",
            "offset": 0,
            "slot": "2",
            "type": "t_uint256"
          },
          {
            "astId": 4481,
            "contract": "contracts/facets/ViewStateFacet.sol:ViewStateFacet",
            "label": "gracePeriod",
            "offset": 0,
            "slot": "3",
            "type": "t_uint256"
          },
          {
            "astId": 4483,
            "contract": "contracts/facets/ViewStateFacet.sol:ViewStateFacet",
            "label": "expirationThreshold",
            "offset": 0,
            "slot": "4",
            "type": "t_uint256"
          },
          {
            "astId": 4486,
            "contract": "contracts/facets/ViewStateFacet.sol:ViewStateFacet",
            "label": "sarcophagusIdentifiers",
            "offset": 0,
            "slot": "5",
            "type": "t_array(t_bytes32)dyn_storage"
          },
          {
            "astId": 4489,
            "contract": "contracts/facets/ViewStateFacet.sol:ViewStateFacet",
            "label": "archaeologistProfileAddresses",
            "offset": 0,
            "slot": "6",
            "type": "t_array(t_address)dyn_storage"
          },
          {
            "astId": 4494,
            "contract": "contracts/facets/ViewStateFacet.sol:ViewStateFacet",
            "label": "archaeologistProfiles",
            "offset": 0,
            "slot": "7",
            "type": "t_mapping(t_address,t_struct(ArchaeologistProfile)3920_storage)"
          },
          {
            "astId": 4500,
            "contract": "contracts/facets/ViewStateFacet.sol:ViewStateFacet",
            "label": "archaeologistSarcoSuccesses",
            "offset": 0,
            "slot": "8",
            "type": "t_mapping(t_address,t_mapping(t_bytes32,t_bool))"
          },
          {
            "astId": 4505,
            "contract": "contracts/facets/ViewStateFacet.sol:ViewStateFacet",
            "label": "archaeologistSuccesses",
            "offset": 0,
            "slot": "9",
            "type": "t_mapping(t_address,t_array(t_bytes32)dyn_storage)"
          },
          {
            "astId": 4510,
            "contract": "contracts/facets/ViewStateFacet.sol:ViewStateFacet",
            "label": "archaeologistAccusals",
            "offset": 0,
            "slot": "10",
            "type": "t_mapping(t_address,t_array(t_bytes32)dyn_storage)"
          },
          {
            "astId": 4515,
            "contract": "contracts/facets/ViewStateFacet.sol:ViewStateFacet",
            "label": "archaeologistCleanups",
            "offset": 0,
            "slot": "11",
            "type": "t_mapping(t_address,t_array(t_bytes32)dyn_storage)"
          },
          {
            "astId": 4519,
            "contract": "contracts/facets/ViewStateFacet.sol:ViewStateFacet",
            "label": "archaeologistRewards",
            "offset": 0,
            "slot": "12",
            "type": "t_mapping(t_address,t_uint256)"
          },
          {
            "astId": 4524,
            "contract": "contracts/facets/ViewStateFacet.sol:ViewStateFacet",
            "label": "sarcophagi",
            "offset": 0,
            "slot": "13",
            "type": "t_mapping(t_bytes32,t_struct(Sarcophagus)3955_storage)"
          },
          {
            "astId": 4529,
            "contract": "contracts/facets/ViewStateFacet.sol:ViewStateFacet",
            "label": "embalmerSarcophagi",
            "offset": 0,
            "slot": "14",
            "type": "t_mapping(t_address,t_array(t_bytes32)dyn_storage)"
          },
          {
            "astId": 4534,
            "contract": "contracts/facets/ViewStateFacet.sol:ViewStateFacet",
            "label": "archaeologistSarcophagi",
            "offset": 0,
            "slot": "15",
            "type": "t_mapping(t_address,t_array(t_bytes32)dyn_storage)"
          },
          {
            "astId": 4539,
            "contract": "contracts/facets/ViewStateFacet.sol:ViewStateFacet",
            "label": "recipientSarcophagi",
            "offset": 0,
            "slot": "16",
            "type": "t_mapping(t_address,t_array(t_bytes32)dyn_storage)"
          },
          {
            "astId": 4543,
            "contract": "contracts/facets/ViewStateFacet.sol:ViewStateFacet",
            "label": "doubleHashedShardArchaeologists",
            "offset": 0,
            "slot": "17",
            "type": "t_mapping(t_bytes32,t_address)"
          },
          {
            "astId": 4550,
            "contract": "contracts/facets/ViewStateFacet.sol:ViewStateFacet",
            "label": "sarcophagusArchaeologists",
            "offset": 0,
            "slot": "18",
            "type": "t_mapping(t_bytes32,t_mapping(t_address,t_struct(ArchaeologistStorage)3907_storage))"
          }
        ],
        "numberOfBytes": "608"
      },
      "t_struct(ArchaeologistProfile)3920_storage": {
        "encoding": "inplace",
        "label": "struct LibTypes.ArchaeologistProfile",
        "members": [
          {
            "astId": 3909,
            "contract": "contracts/facets/ViewStateFacet.sol:ViewStateFacet",
            "label": "exists",
            "offset": 0,
            "slot": "0",
            "type": "t_bool"
          },
          {
            "astId": 3911,
            "contract": "contracts/facets/ViewStateFacet.sol:ViewStateFacet",
            "label": "peerId",
            "offset": 0,
            "slot": "1",
            "type": "t_string_storage"
          },
          {
            "astId": 3913,
            "contract": "contracts/facets/ViewStateFacet.sol:ViewStateFacet",
            "label": "minimumDiggingFee",
            "offset": 0,
            "slot": "2",
            "type": "t_uint256"
          },
          {
            "astId": 3915,
            "contract": "contracts/facets/ViewStateFacet.sol:ViewStateFacet",
            "label": "maximumRewrapInterval",
            "offset": 0,
            "slot": "3",
            "type": "t_uint256"
          },
          {
            "astId": 3917,
            "contract": "contracts/facets/ViewStateFacet.sol:ViewStateFacet",
            "label": "freeBond",
            "offset": 0,
            "slot": "4",
            "type": "t_uint256"
          },
          {
            "astId": 3919,
            "contract": "contracts/facets/ViewStateFacet.sol:ViewStateFacet",
            "label": "cursedBond",
            "offset": 0,
            "slot": "5",
            "type": "t_uint256"
          }
        ],
        "numberOfBytes": "192"
      },
      "t_struct(ArchaeologistStorage)3907_storage": {
        "encoding": "inplace",
        "label": "struct LibTypes.ArchaeologistStorage",
        "members": [
          {
            "astId": 3900,
            "contract": "contracts/facets/ViewStateFacet.sol:ViewStateFacet",
            "label": "diggingFee",
            "offset": 0,
            "slot": "0",
            "type": "t_uint256"
          },
          {
            "astId": 3902,
            "contract": "contracts/facets/ViewStateFacet.sol:ViewStateFacet",
            "label": "diggingFeesPaid",
            "offset": 0,
            "slot": "1",
            "type": "t_uint256"
          },
          {
            "astId": 3904,
            "contract": "contracts/facets/ViewStateFacet.sol:ViewStateFacet",
            "label": "unencryptedShardDoubleHash",
            "offset": 0,
            "slot": "2",
            "type": "t_bytes32"
          },
          {
            "astId": 3906,
            "contract": "contracts/facets/ViewStateFacet.sol:ViewStateFacet",
            "label": "unencryptedShard",
            "offset": 0,
            "slot": "3",
            "type": "t_bytes_storage"
          }
        ],
        "numberOfBytes": "128"
      },
      "t_struct(Sarcophagus)3955_storage": {
        "encoding": "inplace",
        "label": "struct LibTypes.Sarcophagus",
        "members": [
          {
            "astId": 3935,
            "contract": "contracts/facets/ViewStateFacet.sol:ViewStateFacet",
            "label": "name",
            "offset": 0,
            "slot": "0",
            "type": "t_string_storage"
          },
          {
            "astId": 3938,
            "contract": "contracts/facets/ViewStateFacet.sol:ViewStateFacet",
            "label": "state",
            "offset": 0,
            "slot": "1",
            "type": "t_enum(SarcophagusState)3869"
          },
          {
            "astId": 3940,
            "contract": "contracts/facets/ViewStateFacet.sol:ViewStateFacet",
            "label": "minShards",
            "offset": 1,
            "slot": "1",
            "type": "t_uint8"
          },
          {
            "astId": 3942,
            "contract": "contracts/facets/ViewStateFacet.sol:ViewStateFacet",
            "label": "resurrectionTime",
            "offset": 0,
            "slot": "2",
            "type": "t_uint256"
          },
          {
            "astId": 3944,
            "contract": "contracts/facets/ViewStateFacet.sol:ViewStateFacet",
            "label": "maximumRewrapInterval",
            "offset": 0,
            "slot": "3",
            "type": "t_uint256"
          },
          {
            "astId": 3947,
            "contract": "contracts/facets/ViewStateFacet.sol:ViewStateFacet",
            "label": "arweaveTxIds",
            "offset": 0,
            "slot": "4",
            "type": "t_array(t_string_storage)dyn_storage"
          },
          {
            "astId": 3949,
            "contract": "contracts/facets/ViewStateFacet.sol:ViewStateFacet",
            "label": "embalmer",
            "offset": 0,
            "slot": "5",
            "type": "t_address"
          },
          {
            "astId": 3951,
            "contract": "contracts/facets/ViewStateFacet.sol:ViewStateFacet",
            "label": "recipientAddress",
            "offset": 0,
            "slot": "6",
            "type": "t_address"
          },
          {
            "astId": 3954,
            "contract": "contracts/facets/ViewStateFacet.sol:ViewStateFacet",
            "label": "archaeologists",
            "offset": 0,
            "slot": "7",
            "type": "t_array(t_address)dyn_storage"
          }
        ],
        "numberOfBytes": "256"
      },
      "t_uint256": {
        "encoding": "inplace",
        "label": "uint256",
        "numberOfBytes": "32"
      },
      "t_uint8": {
        "encoding": "inplace",
        "label": "uint8",
        "numberOfBytes": "1"
      }
    }
  }
}