{
  "address": "0xC57D88E898856358a21EA294c9A2D5659439C936",
  "abi": [
    {
      "inputs": [
        {
          "internalType": "address",
          "name": "archaeologist",
          "type": "address"
        },
        {
          "internalType": "uint256",
          "name": "index",
          "type": "uint256"
        }
      ],
      "name": "archaeologistAccusalsIdentifier",
      "outputs": [
        {
          "internalType": "bytes32",
          "name": "",
          "type": "bytes32"
        }
      ],
      "stateMutability": "view",
      "type": "function"
    },
    {
      "inputs": [
        {
          "internalType": "address",
          "name": "archaeologist",
          "type": "address"
        },
        {
          "internalType": "uint256",
          "name": "index",
          "type": "uint256"
        }
      ],
      "name": "archaeologistCleanupsIdentifier",
      "outputs": [
        {
          "internalType": "bytes32",
          "name": "",
          "type": "bytes32"
        }
      ],
      "stateMutability": "view",
      "type": "function"
    },
    {
      "inputs": [
        {
          "internalType": "address",
          "name": "archaeologist",
          "type": "address"
        },
        {
          "internalType": "uint256",
          "name": "index",
          "type": "uint256"
        }
      ],
      "name": "archaeologistSuccessesIdentifier",
      "outputs": [
        {
          "internalType": "bytes32",
          "name": "",
          "type": "bytes32"
        }
      ],
      "stateMutability": "view",
      "type": "function"
    },
    {
      "inputs": [
        {
          "internalType": "address",
          "name": "archaeologist",
          "type": "address"
        }
      ],
      "name": "getArchaeologistAccusalsCount",
      "outputs": [
        {
          "internalType": "uint256",
          "name": "",
          "type": "uint256"
        }
      ],
      "stateMutability": "view",
      "type": "function"
    },
    {
      "inputs": [
        {
          "internalType": "address",
          "name": "archaeologist",
          "type": "address"
        }
      ],
      "name": "getArchaeologistCleanupsCount",
      "outputs": [
        {
          "internalType": "uint256",
          "name": "",
          "type": "uint256"
        }
      ],
      "stateMutability": "view",
      "type": "function"
    },
    {
      "inputs": [
        {
          "internalType": "address",
          "name": "archaeologist",
          "type": "address"
        }
      ],
      "name": "getArchaeologistProfile",
      "outputs": [
        {
          "components": [
            {
              "internalType": "bool",
              "name": "exists",
              "type": "bool"
            },
            {
              "internalType": "string",
              "name": "peerId",
              "type": "string"
            },
            {
              "internalType": "uint256",
              "name": "minimumDiggingFee",
              "type": "uint256"
            },
            {
              "internalType": "uint256",
              "name": "maximumRewrapInterval",
              "type": "uint256"
            },
            {
              "internalType": "uint256",
              "name": "freeBond",
              "type": "uint256"
            },
            {
              "internalType": "uint256",
              "name": "cursedBond",
              "type": "uint256"
            }
          ],
          "internalType": "struct LibTypes.ArchaeologistProfile",
          "name": "",
          "type": "tuple"
        }
      ],
      "stateMutability": "view",
      "type": "function"
    },
    {
      "inputs": [
        {
          "internalType": "uint256",
          "name": "index",
          "type": "uint256"
        }
      ],
      "name": "getArchaeologistProfileAddressAtIndex",
      "outputs": [
        {
          "internalType": "address",
          "name": "",
          "type": "address"
        }
      ],
      "stateMutability": "view",
      "type": "function"
    },
    {
      "inputs": [],
      "name": "getArchaeologistProfileAddresses",
      "outputs": [
        {
          "internalType": "address[]",
          "name": "",
          "type": "address[]"
        }
      ],
      "stateMutability": "view",
      "type": "function"
    },
    {
      "inputs": [
        {
          "internalType": "address[]",
          "name": "addresses",
          "type": "address[]"
        }
      ],
      "name": "getArchaeologistProfiles",
      "outputs": [
        {
          "components": [
            {
              "internalType": "bool",
              "name": "exists",
              "type": "bool"
            },
            {
              "internalType": "string",
              "name": "peerId",
              "type": "string"
            },
            {
              "internalType": "uint256",
              "name": "minimumDiggingFee",
              "type": "uint256"
            },
            {
              "internalType": "uint256",
              "name": "maximumRewrapInterval",
              "type": "uint256"
            },
            {
              "internalType": "uint256",
              "name": "freeBond",
              "type": "uint256"
            },
            {
              "internalType": "uint256",
              "name": "cursedBond",
              "type": "uint256"
            }
          ],
          "internalType": "struct LibTypes.ArchaeologistProfile[]",
          "name": "",
          "type": "tuple[]"
        }
      ],
      "stateMutability": "view",
      "type": "function"
    },
    {
      "inputs": [
        {
          "internalType": "address",
          "name": "archaeologist",
          "type": "address"
        }
      ],
      "name": "getArchaeologistSarcophagi",
      "outputs": [
        {
          "internalType": "bytes32[]",
          "name": "",
          "type": "bytes32[]"
        }
      ],
      "stateMutability": "view",
      "type": "function"
    },
    {
      "inputs": [
        {
          "internalType": "address",
          "name": "archaeologist",
          "type": "address"
        },
        {
          "internalType": "bytes32",
          "name": "sarcoId",
          "type": "bytes32"
        }
      ],
      "name": "getArchaeologistSuccessOnSarcophagus",
      "outputs": [
        {
          "internalType": "bool",
          "name": "",
          "type": "bool"
        }
      ],
      "stateMutability": "view",
      "type": "function"
    },
    {
      "inputs": [
        {
          "internalType": "address",
          "name": "archaeologist",
          "type": "address"
        }
      ],
      "name": "getArchaeologistSuccessesCount",
      "outputs": [
        {
          "internalType": "uint256",
          "name": "",
          "type": "uint256"
        }
      ],
      "stateMutability": "view",
      "type": "function"
    },
    {
      "inputs": [
        {
          "internalType": "address[]",
          "name": "addresses",
          "type": "address[]"
        }
      ],
      "name": "getArchaeologistsStatistics",
      "outputs": [
        {
          "components": [
            {
              "internalType": "uint256",
              "name": "successes",
              "type": "uint256"
            },
            {
              "internalType": "uint256",
              "name": "accusals",
              "type": "uint256"
            },
            {
              "internalType": "uint256",
              "name": "cleanups",
              "type": "uint256"
            }
          ],
          "internalType": "struct LibTypes.ArchaeologistStatistics[]",
          "name": "",
          "type": "tuple[]"
        }
      ],
      "stateMutability": "view",
      "type": "function"
    },
    {
      "inputs": [
        {
          "internalType": "address",
          "name": "archaeologist",
          "type": "address"
        }
      ],
      "name": "getCursedBond",
      "outputs": [
        {
          "internalType": "uint256",
          "name": "",
          "type": "uint256"
        }
      ],
      "stateMutability": "view",
      "type": "function"
    },
    {
      "inputs": [
        {
          "internalType": "address",
          "name": "embalmer",
          "type": "address"
        }
      ],
      "name": "getEmbalmerSarcophagi",
      "outputs": [
        {
          "internalType": "bytes32[]",
          "name": "",
          "type": "bytes32[]"
        }
      ],
      "stateMutability": "view",
      "type": "function"
    },
    {
      "inputs": [],
      "name": "getExpirationThreshold",
      "outputs": [
        {
          "internalType": "uint256",
          "name": "",
          "type": "uint256"
        }
      ],
      "stateMutability": "view",
      "type": "function"
    },
    {
      "inputs": [
        {
          "internalType": "address",
          "name": "archaeologist",
          "type": "address"
        }
      ],
      "name": "getFreeBond",
      "outputs": [
        {
          "internalType": "uint256",
          "name": "",
          "type": "uint256"
        }
      ],
      "stateMutability": "view",
      "type": "function"
    },
    {
      "inputs": [],
      "name": "getGracePeriod",
      "outputs": [
        {
          "internalType": "uint256",
          "name": "",
          "type": "uint256"
        }
      ],
      "stateMutability": "view",
      "type": "function"
    },
    {
      "inputs": [],
      "name": "getProtocolFeeBasePercentage",
      "outputs": [
        {
          "internalType": "uint256",
          "name": "",
          "type": "uint256"
        }
      ],
      "stateMutability": "view",
      "type": "function"
    },
    {
      "inputs": [
        {
          "internalType": "address",
          "name": "recipient",
          "type": "address"
        }
      ],
      "name": "getRecipientSarcophagi",
      "outputs": [
        {
          "internalType": "bytes32[]",
          "name": "",
          "type": "bytes32[]"
        }
      ],
      "stateMutability": "view",
      "type": "function"
    },
    {
      "inputs": [
        {
          "internalType": "address",
          "name": "archaeologist",
          "type": "address"
        }
      ],
      "name": "getRewards",
      "outputs": [
        {
          "internalType": "uint256",
          "name": "",
          "type": "uint256"
        }
      ],
      "stateMutability": "view",
      "type": "function"
    },
    {
      "inputs": [
        {
          "internalType": "bytes32",
          "name": "sarcoId",
          "type": "bytes32"
        }
      ],
      "name": "getSarcophagus",
      "outputs": [
        {
          "components": [
            {
              "internalType": "string",
              "name": "name",
              "type": "string"
            },
            {
              "internalType": "enum LibTypes.SarcophagusState",
              "name": "state",
              "type": "uint8"
            },
            {
              "internalType": "bool",
              "name": "canBeTransferred",
              "type": "bool"
            },
            {
              "internalType": "uint8",
              "name": "minShards",
              "type": "uint8"
            },
            {
              "internalType": "uint256",
              "name": "resurrectionTime",
              "type": "uint256"
            },
            {
              "internalType": "uint256",
              "name": "maximumRewrapInterval",
              "type": "uint256"
            },
            {
              "internalType": "string[]",
              "name": "arweaveTxIds",
              "type": "string[]"
            },
            {
              "internalType": "address",
              "name": "embalmer",
              "type": "address"
            },
            {
              "internalType": "address",
              "name": "recipientAddress",
              "type": "address"
            },
            {
              "internalType": "address[]",
              "name": "archaeologists",
              "type": "address[]"
            }
          ],
          "internalType": "struct LibTypes.Sarcophagus",
          "name": "",
          "type": "tuple"
        }
      ],
      "stateMutability": "view",
      "type": "function"
    },
    {
      "inputs": [
        {
          "internalType": "bytes32",
          "name": "sarcoId",
          "type": "bytes32"
        },
        {
          "internalType": "address",
          "name": "archaeologist",
          "type": "address"
        }
      ],
      "name": "getSarcophagusArchaeologist",
      "outputs": [
        {
          "components": [
            {
              "internalType": "uint256",
              "name": "diggingFee",
              "type": "uint256"
            },
            {
              "internalType": "uint256",
              "name": "diggingFeesPaid",
              "type": "uint256"
            },
            {
              "internalType": "bytes32",
              "name": "unencryptedShardDoubleHash",
              "type": "bytes32"
            },
            {
              "internalType": "bytes",
              "name": "unencryptedShard",
              "type": "bytes"
            }
          ],
          "internalType": "struct LibTypes.ArchaeologistStorage",
          "name": "",
          "type": "tuple"
        }
      ],
      "stateMutability": "view",
      "type": "function"
    },
    {
      "inputs": [],
      "name": "getTotalProtocolFees",
      "outputs": [
        {
          "internalType": "uint256",
          "name": "",
          "type": "uint256"
        }
      ],
      "stateMutability": "view",
      "type": "function"
    }
  ],
  "transactionHash": "0xd7e1a5e3a0010c71b22549f27cc8c4a9f556a709d0ac360bd3ec9b50284f4fc6",
  "args": [],
  "numDeployments": 2,
  "solcInputHash": "56130bd9f01ace07412cd56d3f8a0e58",
  "bytecode": "0x608060405234801561001057600080fd5b506129a7806100206000396000f3fe608060405234801561001057600080fd5b50600436106101585760003560e01c80638fbd55d2116100c3578063daa4d21b1161007c578063daa4d21b14610475578063dbd18388146104a5578063dc231f43146104c3578063de116f06146104f3578063ef60e4e714610523578063fb6fffb51461055357610158565b80638fbd55d2146103795780639c545639146103a95780639fdaded1146103c7578063a9328dcc146103e5578063c34e9bff14610415578063d31dedd11461044557610158565b80636b74d55a116101155780636b74d55a1461026b5780636ba5c8ef1461029b5780636c99bedc146102cb57806379ee54f7146102fb5780637aa9fd2f1461032b57806387927ce61461034957610158565b8063256909021461015d578063284f34de1461018d5780633fbb8930146101bd57806342e10bc8146101db5780634d0b67671461020b57806357babbaf1461023b575b600080fd5b61017760048036038101906101729190611a31565b610583565b6040516101849190611a77565b60405180910390f35b6101a760048036038101906101a29190611abe565b6105d1565b6040516101b49190611b17565b60405180910390f35b6101c5610639565b6040516101d29190611bf0565b60405180910390f35b6101f560048036038101906101f09190611a31565b6106ca565b6040516102029190611d5e565b60405180910390f35b61022560048036038101906102209190611a31565b6107fb565b6040516102329190611e3e565b60405180910390f35b61025560048036038101906102509190611e60565b610895565b6040516102629190611e9c565b60405180910390f35b61028560048036038101906102809190611fff565b6108df565b6040516102929190612139565b60405180910390f35b6102b560048036038101906102b09190612187565b610b55565b6040516102c291906121d6565b60405180910390f35b6102e560048036038101906102e09190611abe565b610bbf565b6040516102f29190611b17565b60405180910390f35b61031560048036038101906103109190611a31565b610c27565b6040516103229190611a77565b60405180910390f35b610333610c72565b6040516103409190611a77565b60405180910390f35b610363600480360381019061035e9190611a31565b610c7e565b6040516103709190611a77565b60405180910390f35b610393600480360381019061038e9190611a31565b610ccc565b6040516103a09190611a77565b60405180910390f35b6103b1610d1a565b6040516103be9190611a77565b60405180910390f35b6103cf610d26565b6040516103dc9190611a77565b60405180910390f35b6103ff60048036038101906103fa9190611fff565b610d32565b60405161040c919061233c565b60405180910390f35b61042f600480360381019061042a9190611a31565b610f83565b60405161043c9190611e3e565b60405180910390f35b61045f600480360381019061045a9190611a31565b61101d565b60405161046c9190611a77565b60405180910390f35b61048f600480360381019061048a9190611a31565b61106b565b60405161049c9190611a77565b60405180910390f35b6104ad6110b9565b6040516104ba9190611a77565b60405180910390f35b6104dd60048036038101906104d8919061235e565b6110c5565b6040516104ea9190612456565b60405180910390f35b61050d60048036038101906105089190612478565b6111e3565b60405161051a9190612751565b60405180910390f35b61053d60048036038101906105389190611a31565b6117a3565b60405161054a9190611e3e565b60405180910390f35b61056d60048036038101906105689190611abe565b61183d565b60405161057a9190611b17565b60405180910390f35b60008060090160008373ffffffffffffffffffffffffffffffffffffffff1673ffffffffffffffffffffffffffffffffffffffff168152602001908152602001600020805490509050919050565b60008060090160008473ffffffffffffffffffffffffffffffffffffffff1673ffffffffffffffffffffffffffffffffffffffff168152602001908152602001600020828154811061062657610625612773565b5b9060005260206000200154905092915050565b606060006006018054806020026020016040519081016040528092919081815260200182805480156106c057602002820191906000526020600020905b8160009054906101000a900473ffffffffffffffffffffffffffffffffffffffff1673ffffffffffffffffffffffffffffffffffffffff1681526020019060010190808311610676575b5050505050905090565b6106d26118a5565b600060070160008373ffffffffffffffffffffffffffffffffffffffff1673ffffffffffffffffffffffffffffffffffffffff1681526020019081526020016000206040518060c00160405290816000820160009054906101000a900460ff1615151515815260200160018201805461074a906127d1565b80601f0160208091040260200160405190810160405280929190818152602001828054610776906127d1565b80156107c35780601f10610798576101008083540402835291602001916107c3565b820191906000526020600020905b8154815290600101906020018083116107a657829003601f168201915b505050505081526020016002820154815260200160038201548152602001600482015481526020016005820154815250509050919050565b6060600060100160008373ffffffffffffffffffffffffffffffffffffffff1673ffffffffffffffffffffffffffffffffffffffff16815260200190815260200160002080548060200260200160405190810160405280929190818152602001828054801561088957602002820191906000526020600020905b815481526020019060010190808311610875575b50505050509050919050565b60008060060182815481106108ad576108ac612773565b5b9060005260206000200160009054906101000a900473ffffffffffffffffffffffffffffffffffffffff169050919050565b60606000825167ffffffffffffffff8111156108fe576108fd611ebc565b5b60405190808252806020026020018201604052801561093757816020015b6109246118dd565b81526020019060019003908161091c5790505b50905060005b8351811015610b4b5760405180606001604052803073ffffffffffffffffffffffffffffffffffffffff1663256909028785815181106109805761097f612773565b5b60200260200101516040518263ffffffff1660e01b81526004016109a49190611e9c565b602060405180830381865afa1580156109c1573d6000803e3d6000fd5b505050506040513d601f19601f820116820180604052508101906109e59190612817565b81526020013073ffffffffffffffffffffffffffffffffffffffff1663daa4d21b878581518110610a1957610a18612773565b5b60200260200101516040518263ffffffff1660e01b8152600401610a3d9190611e9c565b602060405180830381865afa158015610a5a573d6000803e3d6000fd5b505050506040513d601f19601f82011682018060405250810190610a7e9190612817565b81526020013073ffffffffffffffffffffffffffffffffffffffff1663d31dedd1878581518110610ab257610ab1612773565b5b60200260200101516040518263ffffffff1660e01b8152600401610ad69190611e9c565b602060405180830381865afa158015610af3573d6000803e3d6000fd5b505050506040513d601f19601f82011682018060405250810190610b179190612817565b815250828281518110610b2d57610b2c612773565b5b60200260200101819052508080610b4390612873565b91505061093d565b5080915050919050565b60008060080160008473ffffffffffffffffffffffffffffffffffffffff1673ffffffffffffffffffffffffffffffffffffffff168152602001908152602001600020600083815260200190815260200160002060009054906101000a900460ff16905092915050565b600080600a0160008473ffffffffffffffffffffffffffffffffffffffff1673ffffffffffffffffffffffffffffffffffffffff1681526020019081526020016000208281548110610c1457610c13612773565b5b9060005260206000200154905092915050565b600080600c0160008373ffffffffffffffffffffffffffffffffffffffff1673ffffffffffffffffffffffffffffffffffffffff168152602001908152602001600020549050919050565b60008060040154905090565b60008060070160008373ffffffffffffffffffffffffffffffffffffffff1673ffffffffffffffffffffffffffffffffffffffff168152602001908152602001600020600501549050919050565b60008060070160008373ffffffffffffffffffffffffffffffffffffffff1673ffffffffffffffffffffffffffffffffffffffff168152602001908152602001600020600401549050919050565b60008060020154905090565b60008060010154905090565b60606000825167ffffffffffffffff811115610d5157610d50611ebc565b5b604051908082528060200260200182016040528015610d8a57816020015b610d776118a5565b815260200190600190039081610d6f5790505b50905060005b8351811015610f795760006007016000858381518110610db357610db2612773565b5b602002602001015173ffffffffffffffffffffffffffffffffffffffff1673ffffffffffffffffffffffffffffffffffffffff16815260200190815260200160002060000160009054906101000a900460ff1615610f665760006007016000858381518110610e2557610e24612773565b5b602002602001015173ffffffffffffffffffffffffffffffffffffffff1673ffffffffffffffffffffffffffffffffffffffff1681526020019081526020016000206040518060c00160405290816000820160009054906101000a900460ff16151515158152602001600182018054610e9d906127d1565b80601f0160208091040260200160405190810160405280929190818152602001828054610ec9906127d1565b8015610f165780601f10610eeb57610100808354040283529160200191610f16565b820191906000526020600020905b815481529060010190602001808311610ef957829003601f168201915b50505050508152602001600282015481526020016003820154815260200160048201548152602001600582015481525050828281518110610f5a57610f59612773565b5b60200260200101819052505b8080610f7190612873565b915050610d90565b5080915050919050565b60606000600e0160008373ffffffffffffffffffffffffffffffffffffffff1673ffffffffffffffffffffffffffffffffffffffff16815260200190815260200160002080548060200260200160405190810160405280929190818152602001828054801561101157602002820191906000526020600020905b815481526020019060010190808311610ffd575b50505050509050919050565b600080600b0160008373ffffffffffffffffffffffffffffffffffffffff1673ffffffffffffffffffffffffffffffffffffffff168152602001908152602001600020805490509050919050565b600080600a0160008373ffffffffffffffffffffffffffffffffffffffff1673ffffffffffffffffffffffffffffffffffffffff168152602001908152602001600020805490509050919050565b60008060030154905090565b6110cd6118fe565b6000601201600084815260200190815260200160002060008373ffffffffffffffffffffffffffffffffffffffff1673ffffffffffffffffffffffffffffffffffffffff168152602001908152602001600020604051806080016040529081600082015481526020016001820154815260200160028201548152602001600382018054611159906127d1565b80601f0160208091040260200160405190810160405280929190818152602001828054611185906127d1565b80156111d25780601f106111a7576101008083540402835291602001916111d2565b820191906000526020600020905b8154815290600101906020018083116111b557829003601f168201915b505050505081525050905092915050565b6111eb611929565b600080600d0160008481526020019081526020016000206040518061014001604052908160008201805461121e906127d1565b80601f016020809104026020016040519081016040528092919081815260200182805461124a906127d1565b80156112975780601f1061126c57610100808354040283529160200191611297565b820191906000526020600020905b81548152906001019060200180831161127a57829003601f168201915b505050505081526020016001820160009054906101000a900460ff1660078111156112c5576112c46124a5565b5b60078111156112d7576112d66124a5565b5b81526020016001820160019054906101000a900460ff161515151581526020016001820160029054906101000a900460ff1660ff1660ff168152602001600282015481526020016003820154815260200160048201805480602002602001604051908101604052809291908181526020016000905b828210156113f857838290600052602060002001805461136b906127d1565b80601f0160208091040260200160405190810160405280929190818152602001828054611397906127d1565b80156113e45780601f106113b9576101008083540402835291602001916113e4565b820191906000526020600020905b8154815290600101906020018083116113c757829003601f168201915b50505050508152602001906001019061134c565b5050505081526020016005820160009054906101000a900473ffffffffffffffffffffffffffffffffffffffff1673ffffffffffffffffffffffffffffffffffffffff1673ffffffffffffffffffffffffffffffffffffffff1681526020016006820160009054906101000a900473ffffffffffffffffffffffffffffffffffffffff1673ffffffffffffffffffffffffffffffffffffffff1673ffffffffffffffffffffffffffffffffffffffff1681526020016007820180548060200260200160405190810160405280929190818152602001828054801561153157602002820191906000526020600020905b8160009054906101000a900473ffffffffffffffffffffffffffffffffffffffff1673ffffffffffffffffffffffffffffffffffffffff16815260200190600101908083116114e7575b5050505050815250509050600160078111156115505761154f6124a5565b5b81602001516007811115611567576115666124a5565b5b14611575578091505061179e565b6000805b826101200151518160ff16101561173457600080601201600087815260200190815260200160002060008561012001518460ff16815181106115be576115bd612773565b5b602002602001015173ffffffffffffffffffffffffffffffffffffffff1673ffffffffffffffffffffffffffffffffffffffff168152602001908152602001600020600301805461160e906127d1565b80601f016020809104026020016040519081016040528092919081815260200182805461163a906127d1565b80156116875780601f1061165c57610100808354040283529160200191611687565b820191906000526020600020905b81548152906001019060200180831161166a57829003601f168201915b5050505050905060008151146116d8576001836116a491906128bb565b92506002846020019060078111156116bf576116be6124a5565b5b908160078111156116d3576116d26124a5565b5b815250505b836060015160ff168360ff160361172057600384602001906007811115611702576117016124a5565b5b90816007811115611716576117156124a5565b5b8152505050611734565b50808061172c906128f2565b915050611579565b50816060015160ff168160ff161080156117615750600060030154826080015161175e919061291b565b42115b156117985760078260200190600781111561177f5761177e6124a5565b5b90816007811115611793576117926124a5565b5b815250505b81925050505b919050565b60606000600f0160008373ffffffffffffffffffffffffffffffffffffffff1673ffffffffffffffffffffffffffffffffffffffff16815260200190815260200160002080548060200260200160405190810160405280929190818152602001828054801561183157602002820191906000526020600020905b81548152602001906001019080831161181d575b50505050509050919050565b600080600b0160008473ffffffffffffffffffffffffffffffffffffffff1673ffffffffffffffffffffffffffffffffffffffff168152602001908152602001600020828154811061189257611891612773565b5b9060005260206000200154905092915050565b6040518060c0016040528060001515815260200160608152602001600081526020016000815260200160008152602001600081525090565b60405180606001604052806000815260200160008152602001600081525090565b6040518060800160405280600081526020016000815260200160008019168152602001606081525090565b60405180610140016040528060608152602001600060078111156119505761194f6124a5565b5b8152602001600015158152602001600060ff168152602001600081526020016000815260200160608152602001600073ffffffffffffffffffffffffffffffffffffffff168152602001600073ffffffffffffffffffffffffffffffffffffffff168152602001606081525090565b6000604051905090565b600080fd5b600080fd5b600073ffffffffffffffffffffffffffffffffffffffff82169050919050565b60006119fe826119d3565b9050919050565b611a0e816119f3565b8114611a1957600080fd5b50565b600081359050611a2b81611a05565b92915050565b600060208284031215611a4757611a466119c9565b5b6000611a5584828501611a1c565b91505092915050565b6000819050919050565b611a7181611a5e565b82525050565b6000602082019050611a8c6000830184611a68565b92915050565b611a9b81611a5e565b8114611aa657600080fd5b50565b600081359050611ab881611a92565b92915050565b60008060408385031215611ad557611ad46119c9565b5b6000611ae385828601611a1c565b9250506020611af485828601611aa9565b9150509250929050565b6000819050919050565b611b1181611afe565b82525050565b6000602082019050611b2c6000830184611b08565b92915050565b600081519050919050565b600082825260208201905092915050565b6000819050602082019050919050565b611b67816119f3565b82525050565b6000611b798383611b5e565b60208301905092915050565b6000602082019050919050565b6000611b9d82611b32565b611ba78185611b3d565b9350611bb283611b4e565b8060005b83811015611be3578151611bca8882611b6d565b9750611bd583611b85565b925050600181019050611bb6565b5085935050505092915050565b60006020820190508181036000830152611c0a8184611b92565b905092915050565b60008115159050919050565b611c2781611c12565b82525050565b600081519050919050565b600082825260208201905092915050565b60005b83811015611c67578082015181840152602081019050611c4c565b83811115611c76576000848401525b50505050565b6000601f19601f8301169050919050565b6000611c9882611c2d565b611ca28185611c38565b9350611cb2818560208601611c49565b611cbb81611c7c565b840191505092915050565b611ccf81611a5e565b82525050565b600060c083016000830151611ced6000860182611c1e565b5060208301518482036020860152611d058282611c8d565b9150506040830151611d1a6040860182611cc6565b506060830151611d2d6060860182611cc6565b506080830151611d406080860182611cc6565b5060a0830151611d5360a0860182611cc6565b508091505092915050565b60006020820190508181036000830152611d788184611cd5565b905092915050565b600081519050919050565b600082825260208201905092915050565b6000819050602082019050919050565b611db581611afe565b82525050565b6000611dc78383611dac565b60208301905092915050565b6000602082019050919050565b6000611deb82611d80565b611df58185611d8b565b9350611e0083611d9c565b8060005b83811015611e31578151611e188882611dbb565b9750611e2383611dd3565b925050600181019050611e04565b5085935050505092915050565b60006020820190508181036000830152611e588184611de0565b905092915050565b600060208284031215611e7657611e756119c9565b5b6000611e8484828501611aa9565b91505092915050565b611e96816119f3565b82525050565b6000602082019050611eb16000830184611e8d565b92915050565b600080fd5b7f4e487b7100000000000000000000000000000000000000000000000000000000600052604160045260246000fd5b611ef482611c7c565b810181811067ffffffffffffffff82111715611f1357611f12611ebc565b5b80604052505050565b6000611f266119bf565b9050611f328282611eeb565b919050565b600067ffffffffffffffff821115611f5257611f51611ebc565b5b602082029050602081019050919050565b600080fd5b6000611f7b611f7684611f37565b611f1c565b90508083825260208201905060208402830185811115611f9e57611f9d611f63565b5b835b81811015611fc75780611fb38882611a1c565b845260208401935050602081019050611fa0565b5050509392505050565b600082601f830112611fe657611fe5611eb7565b5b8135611ff6848260208601611f68565b91505092915050565b600060208284031215612015576120146119c9565b5b600082013567ffffffffffffffff811115612033576120326119ce565b5b61203f84828501611fd1565b91505092915050565b600081519050919050565b600082825260208201905092915050565b6000819050602082019050919050565b60608201600082015161208a6000850182611cc6565b50602082015161209d6020850182611cc6565b5060408201516120b06040850182611cc6565b50505050565b60006120c28383612074565b60608301905092915050565b6000602082019050919050565b60006120e682612048565b6120f08185612053565b93506120fb83612064565b8060005b8381101561212c57815161211388826120b6565b975061211e836120ce565b9250506001810190506120ff565b5085935050505092915050565b6000602082019050818103600083015261215381846120db565b905092915050565b61216481611afe565b811461216f57600080fd5b50565b6000813590506121818161215b565b92915050565b6000806040838503121561219e5761219d6119c9565b5b60006121ac85828601611a1c565b92505060206121bd85828601612172565b9150509250929050565b6121d081611c12565b82525050565b60006020820190506121eb60008301846121c7565b92915050565b600081519050919050565b600082825260208201905092915050565b6000819050602082019050919050565b600060c0830160008301516122356000860182611c1e565b506020830151848203602086015261224d8282611c8d565b91505060408301516122626040860182611cc6565b5060608301516122756060860182611cc6565b5060808301516122886080860182611cc6565b5060a083015161229b60a0860182611cc6565b508091505092915050565b60006122b2838361221d565b905092915050565b6000602082019050919050565b60006122d2826121f1565b6122dc81856121fc565b9350836020820285016122ee8561220d565b8060005b8581101561232a578484038952815161230b85826122a6565b9450612316836122ba565b925060208a019950506001810190506122f2565b50829750879550505050505092915050565b6000602082019050818103600083015261235681846122c7565b905092915050565b60008060408385031215612375576123746119c9565b5b600061238385828601612172565b925050602061239485828601611a1c565b9150509250929050565b600081519050919050565b600082825260208201905092915050565b60006123c58261239e565b6123cf81856123a9565b93506123df818560208601611c49565b6123e881611c7c565b840191505092915050565b600060808301600083015161240b6000860182611cc6565b50602083015161241e6020860182611cc6565b5060408301516124316040860182611dac565b506060830151848203606086015261244982826123ba565b9150508091505092915050565b6000602082019050818103600083015261247081846123f3565b905092915050565b60006020828403121561248e5761248d6119c9565b5b600061249c84828501612172565b91505092915050565b7f4e487b7100000000000000000000000000000000000000000000000000000000600052602160045260246000fd5b600881106124e5576124e46124a5565b5b50565b60008190506124f6826124d4565b919050565b6000612506826124e8565b9050919050565b612516816124fb565b82525050565b600060ff82169050919050565b6125328161251c565b82525050565b600081519050919050565b600082825260208201905092915050565b6000819050602082019050919050565b60006125708383611c8d565b905092915050565b6000602082019050919050565b600061259082612538565b61259a8185612543565b9350836020820285016125ac85612554565b8060005b858110156125e857848403895281516125c98582612564565b94506125d483612578565b925060208a019950506001810190506125b0565b50829750879550505050505092915050565b600082825260208201905092915050565b600061261682611b32565b61262081856125fa565b935061262b83611b4e565b8060005b8381101561265c5781516126438882611b6d565b975061264e83611b85565b92505060018101905061262f565b5085935050505092915050565b60006101408301600083015184820360008601526126878282611c8d565b915050602083015161269c602086018261250d565b5060408301516126af6040860182611c1e565b5060608301516126c26060860182612529565b5060808301516126d56080860182611cc6565b5060a08301516126e860a0860182611cc6565b5060c083015184820360c08601526127008282612585565b91505060e083015161271560e0860182611b5e565b5061010083015161272a610100860182611b5e565b50610120830151848203610120860152612744828261260b565b9150508091505092915050565b6000602082019050818103600083015261276b8184612669565b905092915050565b7f4e487b7100000000000000000000000000000000000000000000000000000000600052603260045260246000fd5b7f4e487b7100000000000000000000000000000000000000000000000000000000600052602260045260246000fd5b600060028204905060018216806127e957607f821691505b6020821081036127fc576127fb6127a2565b5b50919050565b60008151905061281181611a92565b92915050565b60006020828403121561282d5761282c6119c9565b5b600061283b84828501612802565b91505092915050565b7f4e487b7100000000000000000000000000000000000000000000000000000000600052601160045260246000fd5b600061287e82611a5e565b91507fffffffffffffffffffffffffffffffffffffffffffffffffffffffffffffffff82036128b0576128af612844565b5b600182019050919050565b60006128c68261251c565b91506128d18361251c565b92508260ff038211156128e7576128e6612844565b5b828201905092915050565b60006128fd8261251c565b915060ff82036129105761290f612844565b5b600182019050919050565b600061292682611a5e565b915061293183611a5e565b9250827fffffffffffffffffffffffffffffffffffffffffffffffffffffffffffffffff0382111561296657612965612844565b5b82820190509291505056fea2646970667358221220a1b76b308d33034fb88ca7d8b1e3f7da0bac14cccd11052a6abba298d6ee602864736f6c634300080d0033",
  "devdoc": {
    "kind": "dev",
    "methods": {
      "archaeologistAccusalsIdentifier(address,uint256)": {
        "params": {
          "archaeologist": "The address of an archaeologist",
          "index": "The index of the archaeologist's accused sarcophagi"
        },
        "returns": {
          "_0": "the identifier associated with the index of the archaeologist's accused sarcophagi"
        }
      },
      "archaeologistCleanupsIdentifier(address,uint256)": {
        "params": {
          "archaeologist": "The address of an archaeologist",
          "index": "The index of the archaeologist's cleaned-up sarcophagi"
        },
        "returns": {
          "_0": "the identifier associated with the index of the archaeologist's cleaned-up sarcophagi"
        }
      },
      "archaeologistSuccessesIdentifier(address,uint256)": {
        "params": {
          "archaeologist": "The address of an archaeologist",
          "index": "The index of the archaeologist's unwrapped sarcophagi"
        },
        "returns": {
          "_0": "the identifier associated with the index of the archaeologist's unwrapped sarcophagi"
        }
      },
      "getArchaeologistAccusalsCount(address)": {
        "params": {
          "archaeologist": "The address of the archaeologist whose accusations count is being returned"
        }
      },
      "getArchaeologistCleanupsCount(address)": {
        "params": {
          "archaeologist": "The address of the archaeologist whose cleanups count is being returned"
        }
      },
      "getArchaeologistProfile(address)": {
        "params": {
          "archaeologist": "The archaeologist account's address"
        },
        "returns": {
          "_0": "the Archaeologist object"
        }
      },
      "getArchaeologistProfileAddressAtIndex(uint256)": {
        "params": {
          "index": "The index of the registered archaeologist"
        },
        "returns": {
          "_0": "address of the archaeologist"
        }
      },
      "getArchaeologistProfileAddresses()": {
        "returns": {
          "_0": "addresses of registered archaeologists"
        }
      },
      "getArchaeologistProfiles(address[])": {
        "params": {
          "addresses": "The list of archaeologist addresses"
        },
        "returns": {
          "_0": "The list of archaeologist profiles"
        }
      },
      "getArchaeologistSarcophagi(address)": {
        "params": {
          "archaeologist": "The address of the archaeologist whose sarcophagi are being returned"
        }
      },
      "getArchaeologistSuccessOnSarcophagus(address,bytes32)": {
        "params": {
          "archaeologist": "The address of the archaeologist",
          "sarcoId": "the sarcophagus to check if unwrapping occured"
        }
      },
      "getArchaeologistSuccessesCount(address)": {
        "params": {
          "archaeologist": "The address of the archaeologist whose success"
        }
      },
      "getArchaeologistsStatistics(address[])": {
        "params": {
          "addresses": "The list of archaeologist addresses"
        },
        "returns": {
          "_0": "The list of archaeologist statistics"
        }
      },
      "getCursedBond(address)": {
        "params": {
          "archaeologist": "The address of the archaeologist whose cursed bond is being returned"
        }
      },
      "getEmbalmerSarcophagi(address)": {
        "params": {
          "embalmer": "The address of the embalmer whose sarcophagi are being returned"
        }
      },
      "getExpirationThreshold()": {
        "returns": {
          "_0": "The expiration threshold"
        }
      },
      "getFreeBond(address)": {
        "params": {
          "archaeologist": "The address of the archaeologist whose free bond is being returned"
        }
      },
      "getGracePeriod()": {
        "returns": {
          "_0": "The resurrection grace period"
        }
      },
      "getProtocolFeeBasePercentage()": {
        "returns": {
          "_0": "The protocol fee base percentage - protocolFeeBasePercentage"
        }
      },
      "getRecipientSarcophagi(address)": {
        "params": {
          "recipient": "The address of the recipient whose sarcophagi are being returned"
        }
      },
      "getRewards(address)": {
        "params": {
          "archaeologist": "The address of the archaeologist whose reward is being returned"
        }
      },
      "getSarcophagus(bytes32)": {
        "params": {
          "sarcoId": "The identifier of the sarcophagus being returned"
        }
      },
      "getSarcophagusArchaeologist(bytes32,address)": {
        "params": {
          "archaeologist": "The address of the archaeologist whose data is being returned",
          "sarcoId": "The identifier of the sarcophagus whose data is being returned"
        }
      },
      "getTotalProtocolFees()": {
        "returns": {
          "_0": "The total protocol fees"
        }
      }
    },
    "version": 1
  },
  "userdoc": {
    "kind": "user",
    "methods": {
      "archaeologistAccusalsIdentifier(address,uint256)": {
        "notice": "Returns the sarcophagus unique identifier for a given archaeologist and index of the accused sarcophagi"
      },
      "archaeologistCleanupsIdentifier(address,uint256)": {
        "notice": "Returns the sarcophagus unique identifier for a given archaeologist and index of the cleaned-up sarcophagi"
      },
      "archaeologistSuccessesIdentifier(address,uint256)": {
        "notice": "Returns the sarcophagus unique identifier for a given archaeologist and index of the successfully unwrapped sarcophagi"
      },
      "getArchaeologistAccusalsCount(address)": {
        "notice": "Returns the number of accusations for an archaeologist."
      },
      "getArchaeologistCleanupsCount(address)": {
        "notice": "Returns the number of cleanups for an archaeologist."
      },
      "getArchaeologistProfile(address)": {
        "notice": "Given an archaeologist address, return that archaeologist's profile"
      },
      "getArchaeologistProfileAddressAtIndex(uint256)": {
        "notice": "Given an index (of the full archaeologist array), return the archaeologist address at that index"
      },
      "getArchaeologistProfileAddresses()": {
        "notice": "Return the list of registereed archaeologist addresses."
      },
      "getArchaeologistProfiles(address[])": {
        "notice": "Gets archaeologist profiles given a list of archaeologist addresses. If an invalid address is included, simply leaves it out of the list."
      },
      "getArchaeologistSarcophagi(address)": {
        "notice": "Given an archaeologist's address, returns the identifiers of all sarcophagi that the archaeologist has participated in."
      },
      "getArchaeologistSuccessOnSarcophagus(address,bytes32)": {
        "notice": "Returns whether an archaeologist completed an unwrap for a sarcophagus"
      },
      "getArchaeologistSuccessesCount(address)": {
        "notice": "Returns the number of successful unwraps for an archaeologist."
      },
      "getArchaeologistsStatistics(address[])": {
        "notice": "Gets all reputation statistics for each archaeologist Contains a list of counts for each category."
      },
      "getCursedBond(address)": {
        "notice": "Returns the amount of cursed bond stored in the contract for an archaeologist."
      },
      "getEmbalmerSarcophagi(address)": {
        "notice": "Given an embalmer's address, returns the identifiers of all sarcophagi that the embalmer has created."
      },
      "getExpirationThreshold()": {
        "notice": "Gets the expiration threshold after which a sarcophagus must be renegotiated"
      },
      "getFreeBond(address)": {
        "notice": "Returns the amount of free bond stored in the contract for an archaeologist."
      },
      "getGracePeriod()": {
        "notice": "Gets the grace period an archaeologist is given to resurrect a sarcophagus after the resurrection time passes"
      },
      "getProtocolFeeBasePercentage()": {
        "notice": "Get the protocol fee base percentage from the contract."
      },
      "getRecipientSarcophagi(address)": {
        "notice": "Given a recipient's address, returns the identifiers of all sarcophagi that the recipient has participated in."
      },
      "getRewards(address)": {
        "notice": "Returns the amount of rewards stored in the contract for an archaeologist."
      },
      "getSarcophagus(bytes32)": {
        "notice": "Returns a sarcophagus."
      },
      "getSarcophagusArchaeologist(bytes32,address)": {
        "notice": "Returns the data stored on a sarcophagus for an archaeologist."
      },
      "getTotalProtocolFees()": {
        "notice": "Gets the total protocol fees from the contract."
      }
    },
    "version": 1
  },
  "storageLayout": {
    "storage": [
      {
        "astId": 2460,
        "contract": "contracts/facets/ViewStateFacet.sol:ViewStateFacet",
        "label": "s",
        "offset": 0,
        "slot": "0",
        "type": "t_struct(AppStorage)4106_storage"
      }
    ],
    "types": {
      "t_address": {
        "encoding": "inplace",
        "label": "address",
        "numberOfBytes": "20"
      },
      "t_array(t_address)dyn_storage": {
        "base": "t_address",
        "encoding": "dynamic_array",
        "label": "address[]",
        "numberOfBytes": "32"
      },
      "t_array(t_bytes32)dyn_storage": {
        "base": "t_bytes32",
        "encoding": "dynamic_array",
        "label": "bytes32[]",
        "numberOfBytes": "32"
      },
      "t_array(t_string_storage)dyn_storage": {
        "base": "t_string_storage",
        "encoding": "dynamic_array",
        "label": "string[]",
        "numberOfBytes": "32"
      },
      "t_bool": {
        "encoding": "inplace",
        "label": "bool",
        "numberOfBytes": "1"
      },
      "t_bytes32": {
        "encoding": "inplace",
        "label": "bytes32",
        "numberOfBytes": "32"
      },
      "t_bytes_storage": {
        "encoding": "bytes",
        "label": "bytes",
        "numberOfBytes": "32"
      },
      "t_contract(IERC20)77": {
        "encoding": "inplace",
        "label": "contract IERC20",
        "numberOfBytes": "20"
      },
      "t_enum(SarcophagusState)3448": {
        "encoding": "inplace",
        "label": "enum LibTypes.SarcophagusState",
        "numberOfBytes": "1"
      },
      "t_mapping(t_address,t_array(t_bytes32)dyn_storage)": {
        "encoding": "mapping",
        "key": "t_address",
        "label": "mapping(address => bytes32[])",
        "numberOfBytes": "32",
        "value": "t_array(t_bytes32)dyn_storage"
      },
      "t_mapping(t_address,t_mapping(t_bytes32,t_bool))": {
        "encoding": "mapping",
        "key": "t_address",
        "label": "mapping(address => mapping(bytes32 => bool))",
        "numberOfBytes": "32",
        "value": "t_mapping(t_bytes32,t_bool)"
      },
      "t_mapping(t_address,t_struct(ArchaeologistProfile)3499_storage)": {
        "encoding": "mapping",
        "key": "t_address",
        "label": "mapping(address => struct LibTypes.ArchaeologistProfile)",
        "numberOfBytes": "32",
        "value": "t_struct(ArchaeologistProfile)3499_storage"
      },
      "t_mapping(t_address,t_struct(ArchaeologistStorage)3486_storage)": {
        "encoding": "mapping",
        "key": "t_address",
        "label": "mapping(address => struct LibTypes.ArchaeologistStorage)",
        "numberOfBytes": "32",
        "value": "t_struct(ArchaeologistStorage)3486_storage"
      },
      "t_mapping(t_address,t_uint256)": {
        "encoding": "mapping",
        "key": "t_address",
        "label": "mapping(address => uint256)",
        "numberOfBytes": "32",
        "value": "t_uint256"
      },
      "t_mapping(t_bytes32,t_address)": {
        "encoding": "mapping",
        "key": "t_bytes32",
        "label": "mapping(bytes32 => address)",
        "numberOfBytes": "32",
        "value": "t_address"
      },
      "t_mapping(t_bytes32,t_bool)": {
        "encoding": "mapping",
        "key": "t_bytes32",
        "label": "mapping(bytes32 => bool)",
        "numberOfBytes": "32",
        "value": "t_bool"
      },
      "t_mapping(t_bytes32,t_mapping(t_address,t_struct(ArchaeologistStorage)3486_storage))": {
        "encoding": "mapping",
        "key": "t_bytes32",
        "label": "mapping(bytes32 => mapping(address => struct LibTypes.ArchaeologistStorage))",
        "numberOfBytes": "32",
        "value": "t_mapping(t_address,t_struct(ArchaeologistStorage)3486_storage)"
      },
      "t_mapping(t_bytes32,t_struct(Sarcophagus)3538_storage)": {
        "encoding": "mapping",
        "key": "t_bytes32",
        "label": "mapping(bytes32 => struct LibTypes.Sarcophagus)",
        "numberOfBytes": "32",
        "value": "t_struct(Sarcophagus)3538_storage"
      },
      "t_string_storage": {
        "encoding": "bytes",
        "label": "string",
        "numberOfBytes": "32"
      },
      "t_struct(AppStorage)4106_storage": {
        "encoding": "inplace",
        "label": "struct AppStorage",
        "members": [
          {
            "astId": 4030,
            "contract": "contracts/facets/ViewStateFacet.sol:ViewStateFacet",
            "label": "sarcoToken",
            "offset": 0,
            "slot": "0",
            "type": "t_contract(IERC20)77"
          },
          {
            "astId": 4032,
            "contract": "contracts/facets/ViewStateFacet.sol:ViewStateFacet",
            "label": "protocolFeeBasePercentage",
            "offset": 0,
            "slot": "1",
            "type": "t_uint256"
          },
          {
            "astId": 4034,
            "contract": "contracts/facets/ViewStateFacet.sol:ViewStateFacet",
            "label": "totalProtocolFees",
            "offset": 0,
            "slot": "2",
            "type": "t_uint256"
          },
          {
            "astId": 4036,
            "contract": "contracts/facets/ViewStateFacet.sol:ViewStateFacet",
            "label": "gracePeriod",
            "offset": 0,
            "slot": "3",
            "type": "t_uint256"
          },
          {
            "astId": 4038,
            "contract": "contracts/facets/ViewStateFacet.sol:ViewStateFacet",
            "label": "expirationThreshold",
            "offset": 0,
            "slot": "4",
            "type": "t_uint256"
          },
          {
            "astId": 4041,
            "contract": "contracts/facets/ViewStateFacet.sol:ViewStateFacet",
            "label": "sarcophagusIdentifiers",
            "offset": 0,
            "slot": "5",
            "type": "t_array(t_bytes32)dyn_storage"
          },
          {
            "astId": 4044,
            "contract": "contracts/facets/ViewStateFacet.sol:ViewStateFacet",
            "label": "archaeologistProfileAddresses",
            "offset": 0,
            "slot": "6",
            "type": "t_array(t_address)dyn_storage"
          },
          {
            "astId": 4049,
            "contract": "contracts/facets/ViewStateFacet.sol:ViewStateFacet",
            "label": "archaeologistProfiles",
            "offset": 0,
            "slot": "7",
            "type": "t_mapping(t_address,t_struct(ArchaeologistProfile)3499_storage)"
          },
          {
            "astId": 4055,
            "contract": "contracts/facets/ViewStateFacet.sol:ViewStateFacet",
            "label": "archaeologistSarcoSuccesses",
            "offset": 0,
            "slot": "8",
            "type": "t_mapping(t_address,t_mapping(t_bytes32,t_bool))"
          },
          {
            "astId": 4060,
            "contract": "contracts/facets/ViewStateFacet.sol:ViewStateFacet",
            "label": "archaeologistSuccesses",
            "offset": 0,
            "slot": "9",
            "type": "t_mapping(t_address,t_array(t_bytes32)dyn_storage)"
          },
          {
            "astId": 4065,
            "contract": "contracts/facets/ViewStateFacet.sol:ViewStateFacet",
            "label": "archaeologistAccusals",
            "offset": 0,
            "slot": "10",
            "type": "t_mapping(t_address,t_array(t_bytes32)dyn_storage)"
          },
          {
            "astId": 4070,
            "contract": "contracts/facets/ViewStateFacet.sol:ViewStateFacet",
            "label": "archaeologistCleanups",
            "offset": 0,
            "slot": "11",
            "type": "t_mapping(t_address,t_array(t_bytes32)dyn_storage)"
          },
          {
            "astId": 4074,
            "contract": "contracts/facets/ViewStateFacet.sol:ViewStateFacet",
            "label": "archaeologistRewards",
            "offset": 0,
            "slot": "12",
            "type": "t_mapping(t_address,t_uint256)"
          },
          {
            "astId": 4079,
            "contract": "contracts/facets/ViewStateFacet.sol:ViewStateFacet",
            "label": "sarcophagi",
            "offset": 0,
            "slot": "13",
            "type": "t_mapping(t_bytes32,t_struct(Sarcophagus)3538_storage)"
          },
          {
            "astId": 4084,
            "contract": "contracts/facets/ViewStateFacet.sol:ViewStateFacet",
            "label": "embalmerSarcophagi",
            "offset": 0,
            "slot": "14",
            "type": "t_mapping(t_address,t_array(t_bytes32)dyn_storage)"
          },
          {
            "astId": 4089,
            "contract": "contracts/facets/ViewStateFacet.sol:ViewStateFacet",
            "label": "archaeologistSarcophagi",
            "offset": 0,
            "slot": "15",
            "type": "t_mapping(t_address,t_array(t_bytes32)dyn_storage)"
          },
          {
            "astId": 4094,
            "contract": "contracts/facets/ViewStateFacet.sol:ViewStateFacet",
            "label": "recipientSarcophagi",
            "offset": 0,
            "slot": "16",
            "type": "t_mapping(t_address,t_array(t_bytes32)dyn_storage)"
          },
          {
            "astId": 4098,
            "contract": "contracts/facets/ViewStateFacet.sol:ViewStateFacet",
            "label": "doubleHashedShardArchaeologists",
            "offset": 0,
            "slot": "17",
            "type": "t_mapping(t_bytes32,t_address)"
          },
          {
            "astId": 4105,
            "contract": "contracts/facets/ViewStateFacet.sol:ViewStateFacet",
            "label": "sarcophagusArchaeologists",
            "offset": 0,
            "slot": "18",
            "type": "t_mapping(t_bytes32,t_mapping(t_address,t_struct(ArchaeologistStorage)3486_storage))"
          }
        ],
        "numberOfBytes": "608"
      },
      "t_struct(ArchaeologistProfile)3499_storage": {
        "encoding": "inplace",
        "label": "struct LibTypes.ArchaeologistProfile",
        "members": [
          {
            "astId": 3488,
            "contract": "contracts/facets/ViewStateFacet.sol:ViewStateFacet",
            "label": "exists",
            "offset": 0,
            "slot": "0",
            "type": "t_bool"
          },
          {
            "astId": 3490,
            "contract": "contracts/facets/ViewStateFacet.sol:ViewStateFacet",
            "label": "peerId",
            "offset": 0,
            "slot": "1",
            "type": "t_string_storage"
          },
          {
            "astId": 3492,
            "contract": "contracts/facets/ViewStateFacet.sol:ViewStateFacet",
            "label": "minimumDiggingFee",
            "offset": 0,
            "slot": "2",
            "type": "t_uint256"
          },
          {
            "astId": 3494,
            "contract": "contracts/facets/ViewStateFacet.sol:ViewStateFacet",
            "label": "maximumRewrapInterval",
            "offset": 0,
            "slot": "3",
            "type": "t_uint256"
          },
          {
            "astId": 3496,
            "contract": "contracts/facets/ViewStateFacet.sol:ViewStateFacet",
            "label": "freeBond",
            "offset": 0,
            "slot": "4",
            "type": "t_uint256"
          },
          {
            "astId": 3498,
            "contract": "contracts/facets/ViewStateFacet.sol:ViewStateFacet",
            "label": "cursedBond",
            "offset": 0,
            "slot": "5",
            "type": "t_uint256"
          }
        ],
        "numberOfBytes": "192"
      },
      "t_struct(ArchaeologistStorage)3486_storage": {
        "encoding": "inplace",
        "label": "struct LibTypes.ArchaeologistStorage",
        "members": [
          {
            "astId": 3479,
            "contract": "contracts/facets/ViewStateFacet.sol:ViewStateFacet",
            "label": "diggingFee",
            "offset": 0,
            "slot": "0",
            "type": "t_uint256"
          },
          {
            "astId": 3481,
            "contract": "contracts/facets/ViewStateFacet.sol:ViewStateFacet",
            "label": "diggingFeesPaid",
            "offset": 0,
            "slot": "1",
            "type": "t_uint256"
          },
          {
            "astId": 3483,
            "contract": "contracts/facets/ViewStateFacet.sol:ViewStateFacet",
            "label": "unencryptedShardDoubleHash",
            "offset": 0,
            "slot": "2",
            "type": "t_bytes32"
          },
          {
            "astId": 3485,
            "contract": "contracts/facets/ViewStateFacet.sol:ViewStateFacet",
            "label": "unencryptedShard",
            "offset": 0,
            "slot": "3",
            "type": "t_bytes_storage"
          }
        ],
        "numberOfBytes": "128"
      },
      "t_struct(Sarcophagus)3538_storage": {
        "encoding": "inplace",
        "label": "struct LibTypes.Sarcophagus",
        "members": [
          {
            "astId": 3516,
            "contract": "contracts/facets/ViewStateFacet.sol:ViewStateFacet",
            "label": "name",
            "offset": 0,
            "slot": "0",
            "type": "t_string_storage"
          },
          {
            "astId": 3519,
            "contract": "contracts/facets/ViewStateFacet.sol:ViewStateFacet",
            "label": "state",
            "offset": 0,
            "slot": "1",
            "type": "t_enum(SarcophagusState)3448"
          },
          {
            "astId": 3521,
            "contract": "contracts/facets/ViewStateFacet.sol:ViewStateFacet",
            "label": "canBeTransferred",
            "offset": 1,
            "slot": "1",
            "type": "t_bool"
          },
          {
            "astId": 3523,
            "contract": "contracts/facets/ViewStateFacet.sol:ViewStateFacet",
            "label": "minShards",
            "offset": 2,
            "slot": "1",
            "type": "t_uint8"
          },
          {
            "astId": 3525,
            "contract": "contracts/facets/ViewStateFacet.sol:ViewStateFacet",
            "label": "resurrectionTime",
            "offset": 0,
            "slot": "2",
            "type": "t_uint256"
          },
          {
            "astId": 3527,
            "contract": "contracts/facets/ViewStateFacet.sol:ViewStateFacet",
            "label": "maximumRewrapInterval",
            "offset": 0,
            "slot": "3",
            "type": "t_uint256"
          },
          {
            "astId": 3530,
            "contract": "contracts/facets/ViewStateFacet.sol:ViewStateFacet",
            "label": "arweaveTxIds",
            "offset": 0,
            "slot": "4",
            "type": "t_array(t_string_storage)dyn_storage"
          },
          {
            "astId": 3532,
            "contract": "contracts/facets/ViewStateFacet.sol:ViewStateFacet",
            "label": "embalmer",
            "offset": 0,
            "slot": "5",
            "type": "t_address"
          },
          {
            "astId": 3534,
            "contract": "contracts/facets/ViewStateFacet.sol:ViewStateFacet",
            "label": "recipientAddress",
            "offset": 0,
            "slot": "6",
            "type": "t_address"
          },
          {
            "astId": 3537,
            "contract": "contracts/facets/ViewStateFacet.sol:ViewStateFacet",
            "label": "archaeologists",
            "offset": 0,
            "slot": "7",
            "type": "t_array(t_address)dyn_storage"
          }
        ],
        "numberOfBytes": "256"
      },
      "t_uint256": {
        "encoding": "inplace",
        "label": "uint256",
        "numberOfBytes": "32"
      },
      "t_uint8": {
        "encoding": "inplace",
        "label": "uint8",
        "numberOfBytes": "1"
      }
    }
  }
}